{
  "contractName": "DPublish",
  "abi": [
    {
      "inputs": [],
      "stateMutability": "nonpayable",
      "type": "constructor"
    },
    {
      "inputs": [
        {
          "internalType": "uint256",
          "name": "requested",
          "type": "uint256"
        },
        {
          "internalType": "uint256",
          "name": "available",
          "type": "uint256"
        }
      ],
      "name": "NotEnoughFunds",
      "type": "error"
    },
    {
      "anonymous": false,
      "inputs": [
        {
          "indexed": false,
          "internalType": "address",
          "name": "from",
          "type": "address"
        },
        {
          "indexed": false,
          "internalType": "uint256",
          "name": "amount",
          "type": "uint256"
        }
      ],
      "name": "PaymentReceived",
      "type": "event"
    },
    {
      "anonymous": false,
      "inputs": [
        {
          "indexed": true,
          "internalType": "address",
          "name": "from",
          "type": "address"
        },
        {
          "indexed": true,
          "internalType": "address",
          "name": "to",
          "type": "address"
        },
        {
          "indexed": false,
          "internalType": "uint256",
          "name": "value",
          "type": "uint256"
        }
      ],
      "name": "Transfer",
      "type": "event"
    },
    {
      "inputs": [
        {
          "internalType": "address",
          "name": "",
          "type": "address"
        }
      ],
      "name": "balances",
      "outputs": [
        {
          "internalType": "uint256",
          "name": "",
          "type": "uint256"
        }
      ],
      "stateMutability": "view",
      "type": "function",
      "constant": true
    },
    {
      "inputs": [
        {
          "internalType": "string",
          "name": "",
          "type": "string"
        }
      ],
      "name": "bounties",
      "outputs": [
        {
          "internalType": "uint256",
          "name": "",
          "type": "uint256"
        }
      ],
      "stateMutability": "view",
      "type": "function",
      "constant": true
    },
    {
      "inputs": [
        {
          "internalType": "address",
          "name": "",
          "type": "address"
        }
      ],
      "name": "is_reviewer",
      "outputs": [
        {
          "internalType": "bool",
          "name": "",
          "type": "bool"
        }
      ],
      "stateMutability": "view",
      "type": "function",
      "constant": true
    },
    {
      "inputs": [],
      "name": "publishing_fee",
      "outputs": [
        {
          "internalType": "uint256",
          "name": "",
          "type": "uint256"
        }
      ],
      "stateMutability": "view",
      "type": "function",
      "constant": true
    },
    {
      "inputs": [
        {
          "internalType": "address",
          "name": "",
          "type": "address"
        }
      ],
      "name": "review_archive",
      "outputs": [
        {
          "internalType": "string",
          "name": "",
          "type": "string"
        }
      ],
      "stateMutability": "view",
      "type": "function",
      "constant": true
    },
    {
      "inputs": [],
      "name": "review_payment",
      "outputs": [
        {
          "internalType": "uint16",
          "name": "",
          "type": "uint16"
        }
      ],
      "stateMutability": "view",
      "type": "function",
      "constant": true
    },
    {
      "inputs": [],
      "name": "review_time",
      "outputs": [
        {
          "internalType": "uint16",
          "name": "",
          "type": "uint16"
        }
      ],
      "stateMutability": "view",
      "type": "function",
      "constant": true
    },
    {
      "inputs": [
        {
          "internalType": "string",
          "name": "",
          "type": "string"
        }
      ],
      "name": "submitted_manuscripts",
      "outputs": [
        {
          "internalType": "address",
          "name": "",
          "type": "address"
        }
      ],
      "stateMutability": "view",
      "type": "function",
      "constant": true
    },
    {
      "inputs": [
        {
          "internalType": "string",
          "name": "idmanuscript",
          "type": "string"
        }
      ],
      "name": "submit_manuscripts",
      "outputs": [],
      "stateMutability": "payable",
      "type": "function",
      "payable": true
    },
    {
      "inputs": [
        {
          "internalType": "uint256",
          "name": "fee",
          "type": "uint256"
        }
      ],
      "name": "set_fee",
      "outputs": [],
      "stateMutability": "payable",
      "type": "function",
      "payable": true
    },
    {
      "inputs": [
        {
          "internalType": "address",
          "name": "user",
          "type": "address"
        },
        {
          "internalType": "uint256",
          "name": "value",
          "type": "uint256"
        }
      ],
      "name": "set_balance",
      "outputs": [],
      "stateMutability": "nonpayable",
      "type": "function"
    },
    {
      "inputs": [
        {
          "internalType": "address",
          "name": "user",
          "type": "address"
        }
      ],
      "name": "subscribe_to_review",
      "outputs": [],
      "stateMutability": "nonpayable",
      "type": "function"
    },
    {
      "inputs": [
        {
          "internalType": "string",
          "name": "linkIPFS",
          "type": "string"
        }
      ],
      "name": "sent_review",
      "outputs": [],
      "stateMutability": "nonpayable",
      "type": "function"
    },
    {
      "inputs": [
        {
          "internalType": "address",
          "name": "reviewer",
          "type": "address"
        }
      ],
      "name": "get_review",
      "outputs": [],
      "stateMutability": "nonpayable",
      "type": "function"
    }
  ],
  "bytecode": "0x60806040526000601260006101000a81548161ffff021916908361ffff16021790555034801561002e57600080fd5b5033600560006101000a81548173ffffffffffffffffffffffffffffffffffffffff021916908373ffffffffffffffffffffffffffffffffffffffff1602179055506113cb8061007f6000396000f3fe6080604052600436106100dd5760003560e01c806345f466321161007f5780637e44361c116100595780637e44361c146102a0578063cbb5f2d0146102dd578063f46f4fe514610308578063f7147dc914610345576100dd565b806345f466321461022357806355710a221461024c5780636b83685514610277576100dd565b80631e7e8dec116100bb5780631e7e8dec1461015057806322efd4101461016c57806327e235e3146101a95780633cbef373146101e6576100dd565b80630776e4fa146100e25780631956c4831461010b5780631aa02d5914610134575b600080fd5b3480156100ee57600080fd5b5061010960048036038101906101049190610cdc565b610370565b005b34801561011757600080fd5b50610132600480360381019061012d9190610d1c565b610412565b005b61014e60048036038101906101499190610d49565b6105fb565b005b61016a60048036038101906101659190610ebc565b61065f565b005b34801561017857600080fd5b50610193600480360381019061018e9190610d1c565b610807565b6040516101a09190610f8d565b60405180910390f35b3480156101b557600080fd5b506101d060048036038101906101cb9190610d1c565b6108a7565b6040516101dd9190610fbe565b60405180910390f35b3480156101f257600080fd5b5061020d60048036038101906102089190610ebc565b6108bf565b60405161021a9190610fbe565b60405180910390f35b34801561022f57600080fd5b5061024a60048036038101906102459190610d1c565b6108ed565b005b34801561025857600080fd5b50610261610930565b60405161026e9190610ff6565b60405180910390f35b34801561028357600080fd5b5061029e60048036038101906102999190610ebc565b610944565b005b3480156102ac57600080fd5b506102c760048036038101906102c29190610d1c565b610aa1565b6040516102d4919061102c565b60405180910390f35b3480156102e957600080fd5b506102f2610ac1565b6040516102ff9190610fbe565b60405180910390f35b34801561031457600080fd5b5061032f600480360381019061032a9190610ebc565b610ac7565b60405161033c9190611056565b60405180910390f35b34801561035157600080fd5b5061035a610b10565b6040516103679190610ff6565b60405180910390f35b600560009054906101000a900473ffffffffffffffffffffffffffffffffffffffff1673ffffffffffffffffffffffffffffffffffffffff163373ffffffffffffffffffffffffffffffffffffffff16146103ca57600080fd5b80600160008473ffffffffffffffffffffffffffffffffffffffff1673ffffffffffffffffffffffffffffffffffffffff168152602001908152602001600020819055505050565b600a601260009054906101000a900461ffff1661ffff16111561046a576040517f08c379a0000000000000000000000000000000000000000000000000000000008152600401610461906110bd565b60405180910390fd5b60011515600460003373ffffffffffffffffffffffffffffffffffffffff1673ffffffffffffffffffffffffffffffffffffffff16815260200190815260200160002060009054906101000a900460ff16151514156104fe576040517f08c379a00000000000000000000000000000000000000000000000000000000081526004016104f59061114f565b60405180910390fd5b806008601260009054906101000a900461ffff1661ffff16600a81106105275761052661116f565b5b0160006101000a81548173ffffffffffffffffffffffffffffffffffffffff021916908373ffffffffffffffffffffffffffffffffffffffff1602179055506001601260008282829054906101000a900461ffff1661058691906111cd565b92506101000a81548161ffff021916908361ffff1602179055506001600460008373ffffffffffffffffffffffffffffffffffffffff1673ffffffffffffffffffffffffffffffffffffffff16815260200190815260200160002060006101000a81548160ff02191690831515021790555050565b600560009054906101000a900473ffffffffffffffffffffffffffffffffffffffff1673ffffffffffffffffffffffffffffffffffffffff163373ffffffffffffffffffffffffffffffffffffffff161461065557600080fd5b8060068190555050565b336000826040516106709190611241565b908152602001604051809103902060006101000a81548173ffffffffffffffffffffffffffffffffffffffff021916908373ffffffffffffffffffffffffffffffffffffffff1602179055506000600160003373ffffffffffffffffffffffffffffffffffffffff1673ffffffffffffffffffffffffffffffffffffffff16815260200190815260200160002054905060065481101561074b57600654816040517f8c905368000000000000000000000000000000000000000000000000000000008152600401610742929190611258565b60405180910390fd5b600654600160003373ffffffffffffffffffffffffffffffffffffffff1673ffffffffffffffffffffffffffffffffffffffff168152602001908152602001600020600082825461079c9190611281565b925050819055506006546002836040516107b69190611241565b9081526020016040518091039020819055507f6ef95f06320e7a25a04a175ca677b7052bdd97131872c2192525a629f51be770336006546040516107fb9291906112b5565b60405180910390a15050565b600360205280600052604060002060009150905080546108269061130d565b80601f01602080910402602001604051908101604052809291908181526020018280546108529061130d565b801561089f5780601f106108745761010080835404028352916020019161089f565b820191906000526020600020905b81548152906001019060200180831161088257829003601f168201915b505050505081565b60016020528060005260406000206000915090505481565b6002818051602081018201805184825260208301602085012081835280955050505050506000915090505481565b600360008273ffffffffffffffffffffffffffffffffffffffff1673ffffffffffffffffffffffffffffffffffffffff1681526020019081526020016000205050565b600760009054906101000a900461ffff1681565b60011515600460003373ffffffffffffffffffffffffffffffffffffffff1673ffffffffffffffffffffffffffffffffffffffff16815260200190815260200160002060009054906101000a900460ff161515146109d7576040517f08c379a00000000000000000000000000000000000000000000000000000000081526004016109ce9061114f565b60405180910390fd5b80600360003373ffffffffffffffffffffffffffffffffffffffff1673ffffffffffffffffffffffffffffffffffffffff1681526020019081526020016000209080519060200190610a2a929190610b91565b50600760029054906101000a900461ffff1661ffff16600160003373ffffffffffffffffffffffffffffffffffffffff1673ffffffffffffffffffffffffffffffffffffffff1681526020019081526020016000206000828254610a8e9190611281565b92505081905550610a9e33610b24565b50565b60046020528060005260406000206000915054906101000a900460ff1681565b60065481565b6000818051602081018201805184825260208301602085012081835280955050505050506000915054906101000a900473ffffffffffffffffffffffffffffffffffffffff1681565b600760029054906101000a900461ffff1681565b600760029054906101000a900461ffff1661ffff16600160008373ffffffffffffffffffffffffffffffffffffffff1673ffffffffffffffffffffffffffffffffffffffff1681526020019081526020016000206000828254610b87919061133f565b9250508190555050565b828054610b9d9061130d565b90600052602060002090601f016020900481019282610bbf5760008555610c06565b82601f10610bd857805160ff1916838001178555610c06565b82800160010185558215610c06579182015b82811115610c05578251825591602001919060010190610bea565b5b509050610c139190610c17565b5090565b5b80821115610c30576000816000905550600101610c18565b5090565b6000604051905090565b600080fd5b600080fd5b600073ffffffffffffffffffffffffffffffffffffffff82169050919050565b6000610c7382610c48565b9050919050565b610c8381610c68565b8114610c8e57600080fd5b50565b600081359050610ca081610c7a565b92915050565b6000819050919050565b610cb981610ca6565b8114610cc457600080fd5b50565b600081359050610cd681610cb0565b92915050565b60008060408385031215610cf357610cf2610c3e565b5b6000610d0185828601610c91565b9250506020610d1285828601610cc7565b9150509250929050565b600060208284031215610d3257610d31610c3e565b5b6000610d4084828501610c91565b91505092915050565b600060208284031215610d5f57610d5e610c3e565b5b6000610d6d84828501610cc7565b91505092915050565b600080fd5b600080fd5b6000601f19601f8301169050919050565b7f4e487b7100000000000000000000000000000000000000000000000000000000600052604160045260246000fd5b610dc982610d80565b810181811067ffffffffffffffff82111715610de857610de7610d91565b5b80604052505050565b6000610dfb610c34565b9050610e078282610dc0565b919050565b600067ffffffffffffffff821115610e2757610e26610d91565b5b610e3082610d80565b9050602081019050919050565b82818337600083830152505050565b6000610e5f610e5a84610e0c565b610df1565b905082815260208101848484011115610e7b57610e7a610d7b565b5b610e86848285610e3d565b509392505050565b600082601f830112610ea357610ea2610d76565b5b8135610eb3848260208601610e4c565b91505092915050565b600060208284031215610ed257610ed1610c3e565b5b600082013567ffffffffffffffff811115610ef057610eef610c43565b5b610efc84828501610e8e565b91505092915050565b600081519050919050565b600082825260208201905092915050565b60005b83811015610f3f578082015181840152602081019050610f24565b83811115610f4e576000848401525b50505050565b6000610f5f82610f05565b610f698185610f10565b9350610f79818560208601610f21565b610f8281610d80565b840191505092915050565b60006020820190508181036000830152610fa78184610f54565b905092915050565b610fb881610ca6565b82525050565b6000602082019050610fd36000830184610faf565b92915050565b600061ffff82169050919050565b610ff081610fd9565b82525050565b600060208201905061100b6000830184610fe7565b92915050565b60008115159050919050565b61102681611011565b82525050565b6000602082019050611041600083018461101d565b92915050565b61105081610c68565b82525050565b600060208201905061106b6000830184611047565b92915050565b7f4e616f20706f6465206d61697320726576697361720000000000000000000000600082015250565b60006110a7601583610f10565b91506110b282611071565b602082019050919050565b600060208201905081810360008301526110d68161109a565b9050919050565b7f5072656369736120736520696e7363726576657220636f6d6f2072657669736f60008201527f7200000000000000000000000000000000000000000000000000000000000000602082015250565b6000611139602183610f10565b9150611144826110dd565b604082019050919050565b600060208201905081810360008301526111688161112c565b9050919050565b7f4e487b7100000000000000000000000000000000000000000000000000000000600052603260045260246000fd5b7f4e487b7100000000000000000000000000000000000000000000000000000000600052601160045260246000fd5b60006111d882610fd9565b91506111e383610fd9565b92508261ffff038211156111fa576111f961119e565b5b828201905092915050565b600081905092915050565b600061121b82610f05565b6112258185611205565b9350611235818560208601610f21565b80840191505092915050565b600061124d8284611210565b915081905092915050565b600060408201905061126d6000830185610faf565b61127a6020830184610faf565b9392505050565b600061128c82610ca6565b915061129783610ca6565b9250828210156112aa576112a961119e565b5b828203905092915050565b60006040820190506112ca6000830185611047565b6112d76020830184610faf565b9392505050565b7f4e487b7100000000000000000000000000000000000000000000000000000000600052602260045260246000fd5b6000600282049050600182168061132557607f821691505b60208210811415611339576113386112de565b5b50919050565b600061134a82610ca6565b915061135583610ca6565b9250827fffffffffffffffffffffffffffffffffffffffffffffffffffffffffffffffff0382111561138a5761138961119e565b5b82820190509291505056fea26469706673582212209cb48802fe574922f90607eca84648ff9a5cb13b0c30d10a3bde9eddb995698c64736f6c63430008090033",
  "immutableReferences": {},
  "source": "// SPDX-License-Identifier: MIT\npragma solidity ^0.8.4;\n\nimport \"@openzeppelin/contracts/utils/Context.sol\";\nimport \"@openzeppelin/contracts/utils/Address.sol\";\n\nimport \"./DPubToken.sol\";\nimport \"./PaperToken.sol\";\nimport \"./ReviewToken.sol\";\n\ncontract DPublish {\n\n    mapping(string => address) public submitted_manuscripts; ///Armazena no dicionrio os endereos\n    mapping(address => uint256) public balances; ///Quantidade de DPubTokens que o usurio possui\n    mapping(string => uint256) public bounties; ///Armazena o pagamento para revisores\n    mapping(address => string) public review_archive; ///Armazena as revises. O revisor manda um link com arquivo com a reviso, e o review_archive armazena os links\n    mapping(address => bool) public is_reviewer; ///Diz se o usurio  revisor\n\n    address private Editor; ///Endereo do editor\n    uint256 public publishing_fee; ///Taxa mnima para publicar um artigo\n    uint16 public review_time; ///Tempo para completar uma reviso\n    uint16 public review_payment; ///Pagamento para o revisor\n\n    address[10] reviewers; ///Endereo dos revisores\n    uint16 count_review = 0; ///Contagem de revises\n\n    ///Eventos:\n    event PaymentReceived(address from, uint256 amount); ///Aviso de pagamento recebido\n    event Transfer(address indexed from, address indexed to, uint value); ///Transferncia\n    ////Erros:\n    error NotEnoughFunds(uint256 requested, uint256 available); ///Falta de tokens suficientes para pagamento\n\n    constructor(){\n        Editor = msg.sender; ///Guarda o endereo do autor\n    } \n\n    //struct Ratings{\n    //    string dt_contents;\n    //    int dt_rating;\n    //}\n\n    //struct Writer_review{\n    //    mapping(bytes32 => Ratings) datas;\n    //}\n\n    //address writer;\n    //mapping(address => Writer_review) reviews;\n\n    function submit_manuscripts(string memory idmanuscript) public payable{\n        submitted_manuscripts[idmanuscript] = msg.sender;  ///Armazena o endereo de quem publicou\n        uint balance = balances[msg.sender]; ///Pega o saldo do usurio\n        if (balance < publishing_fee) \n            revert NotEnoughFunds(publishing_fee, balance); ///Caso o saldo seja insuficiente\n        balances[msg.sender] -= publishing_fee; ///Desconta a taxa de publicao\n        bounties[idmanuscript] = publishing_fee; ///Armazena o novo saldo\n        emit PaymentReceived(msg.sender, publishing_fee);\n\n    }\n\n    function set_fee(uint256 fee) public payable{\n        require(msg.sender == Editor); ///Publica o artigo caso o expedidor do contrato seja o editor\n        publishing_fee = fee; ///Atribui uma taxa\n    }\n\n    function set_balance(address user, uint256 value) public{\n        require(msg.sender == Editor);\n        balances[user] = value; ///Atribui um saldo ao usurio\n    }\n\n    function subscribe_to_review(address user) public{\n        require(count_review <= 10, \"Nao pode mais revisar\"); ///Inscrio de revisores. Se tiver revisto mais de 10 artigos,  impossvel rever mais\n        require(!(is_reviewer[msg.sender]==true), \"Precisa se inscrever como revisor\");\n        reviewers[count_review] = user; \n        count_review += 1 ;\n        is_reviewer[user] = true;\n    }\n\n    function sent_review(string memory linkIPFS) public{\n        require(is_reviewer[msg.sender]==true, \"Precisa se inscrever como revisor\"); ///Envio de reviso\n        review_archive[msg.sender] = linkIPFS;\n        balances[msg.sender] -= review_payment; ///Desconta o valor do pagamento para evitar pagamentos adicionais\n        pay_review(msg.sender);\n\n    }\n\n    //function exist_review(address id, bytes32 metadata) public{ ///constant returns(int){\n    //    if (reviews[id].datas[metadata].dt_rating==0){\n    //        return 0;\n    //        }\n    //    else{\n    //         return 1;\n    //    }\n    //}\n\n    //function set_review(bytes32 metadata, string memory contents, int rating)\n    //public returns(int){\n    //    writer = msg.sender;\n    //    reviews[writer].datas[metadata].dt_contents = contents;\n    //    reviews[writer].datas[metadata].dt_rating = rating;\n    //    return 1; \n    //}\n\n    function pay_review(address reviewer) private{\n        balances[reviewer] += review_payment; ///Paga a reviso\n    }\n\n    function get_review(address reviewer) public{\n        review_archive[reviewer]; ///Pega a reviso\n    }\n\n    ///function get_review(address id, bytes32 metadata) public returns(string){ ///public constant returns(string){\n    ///    return (reviews[id].datas[metadata].dt_contents);\n    ///}\n\n    ///function get_rating(address id, bytes32 metadata) public returns(int){ ///public constant returns(int){\n    ///    return (reviews[id].datas[metadata].dt_rating);\n    ///}\n\n}\n",
  "sourcePath": "/home/fccoelho/Mega/Cursos/Blockchain_EMAp/Dpublish/project_A2_Levy/contracts/DPublish.sol",
  "compiler": {
    "name": "solc",
    "version": "0.8.9+commit.e5eed63a.Emscripten.clang"
  },
  "schemaVersion": "3.4.3",
  "updatedAt": "2021-12-15T15:07:23.869Z",
  "networkType": "ethereum",
  "devdoc": {
    "kind": "dev",
    "methods": {},
    "version": 1
  },
  "userdoc": {
    "errors": {
      "NotEnoughFunds(uint256,uint256)": [
        {
          "notice": "Transferncia"
        }
      ]
    },
    "events": {
      "PaymentReceived(address,uint256)": {
        "notice": "Eventos:"
      },
      "Transfer(address,address,uint256)": {
        "notice": "Aviso de pagamento recebido"
      }
    },
    "kind": "user",
    "methods": {
      "balances(address)": {
        "notice": "Armazena no dicionrio os endereos"
      },
      "bounties(string)": {
        "notice": "Quantidade de DPubTokens que o usurio possui"
      },
      "constructor": {
        "notice": "Falta de tokens suficientes para pagamento"
      },
      "is_reviewer(address)": {
        "notice": "Armazena as revises. O revisor manda um link com arquivo com a reviso, e o review_archive armazena os links"
      },
      "publishing_fee()": {
        "notice": "Endereo do editor"
      },
      "review_archive(address)": {
        "notice": "Armazena o pagamento para revisores"
      },
      "review_payment()": {
        "notice": "Tempo para completar uma reviso"
      },
      "review_time()": {
        "notice": "Taxa mnima para publicar um artigo"
      }
    },
    "version": 1
  }
}