{
  "contractName": "DPublish",
  "abi": [
    {
      "inputs": [],
      "stateMutability": "nonpayable",
      "type": "constructor"
    },
    {
      "inputs": [
        {
          "internalType": "uint256",
          "name": "requested",
          "type": "uint256"
        },
        {
          "internalType": "uint256",
          "name": "available",
          "type": "uint256"
        }
      ],
      "name": "NotEnoughFunds",
      "type": "error"
    },
    {
      "anonymous": false,
      "inputs": [
        {
          "indexed": false,
          "internalType": "address",
          "name": "from",
          "type": "address"
        },
        {
          "indexed": false,
          "internalType": "uint256",
          "name": "amount",
          "type": "uint256"
        }
      ],
      "name": "PaymentReceived",
      "type": "event"
    },
    {
      "inputs": [
        {
          "internalType": "address",
          "name": "",
          "type": "address"
        }
      ],
      "name": "balances",
      "outputs": [
        {
          "internalType": "uint256",
          "name": "",
          "type": "uint256"
        }
      ],
      "stateMutability": "view",
      "type": "function",
      "constant": true
    },
    {
      "inputs": [
        {
          "internalType": "string",
          "name": "",
          "type": "string"
        }
      ],
      "name": "bounties",
      "outputs": [
        {
          "internalType": "uint256",
          "name": "",
          "type": "uint256"
        }
      ],
      "stateMutability": "view",
      "type": "function",
      "constant": true
    },
    {
      "inputs": [
        {
          "internalType": "address",
          "name": "",
          "type": "address"
        }
      ],
      "name": "is_reviewer",
      "outputs": [
        {
          "internalType": "bool",
          "name": "",
          "type": "bool"
        }
      ],
      "stateMutability": "view",
      "type": "function",
      "constant": true
    },
    {
      "inputs": [],
      "name": "publishing_fee",
      "outputs": [
        {
          "internalType": "uint256",
          "name": "",
          "type": "uint256"
        }
      ],
      "stateMutability": "view",
      "type": "function",
      "constant": true
    },
    {
      "inputs": [
        {
          "internalType": "address",
          "name": "",
          "type": "address"
        }
      ],
      "name": "review_archive",
      "outputs": [
        {
          "internalType": "string",
          "name": "",
          "type": "string"
        }
      ],
      "stateMutability": "view",
      "type": "function",
      "constant": true
    },
    {
      "inputs": [],
      "name": "review_payment",
      "outputs": [
        {
          "internalType": "uint16",
          "name": "",
          "type": "uint16"
        }
      ],
      "stateMutability": "view",
      "type": "function",
      "constant": true
    },
    {
      "inputs": [],
      "name": "review_time",
      "outputs": [
        {
          "internalType": "uint16",
          "name": "",
          "type": "uint16"
        }
      ],
      "stateMutability": "view",
      "type": "function",
      "constant": true
    },
    {
      "inputs": [
        {
          "internalType": "string",
          "name": "",
          "type": "string"
        }
      ],
      "name": "submitted_manuscripts",
      "outputs": [
        {
          "internalType": "address",
          "name": "",
          "type": "address"
        }
      ],
      "stateMutability": "view",
      "type": "function",
      "constant": true
    },
    {
      "inputs": [
        {
          "internalType": "string",
          "name": "idmanuscript",
          "type": "string"
        }
      ],
      "name": "submit_manuscripts",
      "outputs": [],
      "stateMutability": "payable",
      "type": "function",
      "payable": true
    },
    {
      "inputs": [
        {
          "internalType": "uint256",
          "name": "fee",
          "type": "uint256"
        }
      ],
      "name": "set_fee",
      "outputs": [],
      "stateMutability": "payable",
      "type": "function",
      "payable": true
    },
    {
      "inputs": [
        {
          "internalType": "address",
          "name": "user",
          "type": "address"
        },
        {
          "internalType": "uint256",
          "name": "value",
          "type": "uint256"
        }
      ],
      "name": "set_balance",
      "outputs": [],
      "stateMutability": "nonpayable",
      "type": "function"
    },
    {
      "inputs": [
        {
          "internalType": "address",
          "name": "user",
          "type": "address"
        }
      ],
      "name": "subscribe_to_review",
      "outputs": [],
      "stateMutability": "nonpayable",
      "type": "function"
    },
    {
      "inputs": [
        {
          "internalType": "string",
          "name": "linkIPFS",
          "type": "string"
        }
      ],
      "name": "sent_review",
      "outputs": [],
      "stateMutability": "nonpayable",
      "type": "function"
    }
  ],
  "bytecode": "0x60806040526000601260006101000a81548161ffff021916908361ffff16021790555034801561002e57600080fd5b5033600560006101000a81548173ffffffffffffffffffffffffffffffffffffffff021916908373ffffffffffffffffffffffffffffffffffffffff1602179055506113448061007f6000396000f3fe6080604052600436106100c25760003560e01c80633cbef3731161007f5780637e44361c116100595780637e44361c1461025c578063cbb5f2d014610299578063f46f4fe5146102c4578063f7147dc914610301576100c2565b80633cbef373146101cb57806355710a22146102085780636b83685514610233576100c2565b80630776e4fa146100c75780631956c483146100f05780631aa02d59146101195780631e7e8dec1461013557806322efd4101461015157806327e235e31461018e575b600080fd5b3480156100d357600080fd5b506100ee60048036038101906100e99190610c55565b61032c565b005b3480156100fc57600080fd5b5061011760048036038101906101129190610c95565b6103ce565b005b610133600480360381019061012e9190610cc2565b6105b7565b005b61014f600480360381019061014a9190610e35565b61061b565b005b34801561015d57600080fd5b5061017860048036038101906101739190610c95565b6107c3565b6040516101859190610f06565b60405180910390f35b34801561019a57600080fd5b506101b560048036038101906101b09190610c95565b610863565b6040516101c29190610f37565b60405180910390f35b3480156101d757600080fd5b506101f260048036038101906101ed9190610e35565b61087b565b6040516101ff9190610f37565b60405180910390f35b34801561021457600080fd5b5061021d6108a9565b60405161022a9190610f6f565b60405180910390f35b34801561023f57600080fd5b5061025a60048036038101906102559190610e35565b6108bd565b005b34801561026857600080fd5b50610283600480360381019061027e9190610c95565b610a1a565b6040516102909190610fa5565b60405180910390f35b3480156102a557600080fd5b506102ae610a3a565b6040516102bb9190610f37565b60405180910390f35b3480156102d057600080fd5b506102eb60048036038101906102e69190610e35565b610a40565b6040516102f89190610fcf565b60405180910390f35b34801561030d57600080fd5b50610316610a89565b6040516103239190610f6f565b60405180910390f35b600560009054906101000a900473ffffffffffffffffffffffffffffffffffffffff1673ffffffffffffffffffffffffffffffffffffffff163373ffffffffffffffffffffffffffffffffffffffff161461038657600080fd5b80600160008473ffffffffffffffffffffffffffffffffffffffff1673ffffffffffffffffffffffffffffffffffffffff168152602001908152602001600020819055505050565b600a601260009054906101000a900461ffff1661ffff161115610426576040517f08c379a000000000000000000000000000000000000000000000000000000000815260040161041d90611036565b60405180910390fd5b60011515600460003373ffffffffffffffffffffffffffffffffffffffff1673ffffffffffffffffffffffffffffffffffffffff16815260200190815260200160002060009054906101000a900460ff16151514156104ba576040517f08c379a00000000000000000000000000000000000000000000000000000000081526004016104b1906110c8565b60405180910390fd5b806008601260009054906101000a900461ffff1661ffff16600a81106104e3576104e26110e8565b5b0160006101000a81548173ffffffffffffffffffffffffffffffffffffffff021916908373ffffffffffffffffffffffffffffffffffffffff1602179055506001601260008282829054906101000a900461ffff166105429190611146565b92506101000a81548161ffff021916908361ffff1602179055506001600460008373ffffffffffffffffffffffffffffffffffffffff1673ffffffffffffffffffffffffffffffffffffffff16815260200190815260200160002060006101000a81548160ff02191690831515021790555050565b600560009054906101000a900473ffffffffffffffffffffffffffffffffffffffff1673ffffffffffffffffffffffffffffffffffffffff163373ffffffffffffffffffffffffffffffffffffffff161461061157600080fd5b8060068190555050565b3360008260405161062c91906111ba565b908152602001604051809103902060006101000a81548173ffffffffffffffffffffffffffffffffffffffff021916908373ffffffffffffffffffffffffffffffffffffffff1602179055506000600160003373ffffffffffffffffffffffffffffffffffffffff1673ffffffffffffffffffffffffffffffffffffffff16815260200190815260200160002054905060065481101561070757600654816040517f8c9053680000000000000000000000000000000000000000000000000000000081526004016106fe9291906111d1565b60405180910390fd5b600654600160003373ffffffffffffffffffffffffffffffffffffffff1673ffffffffffffffffffffffffffffffffffffffff168152602001908152602001600020600082825461075891906111fa565b9250508190555060065460028360405161077291906111ba565b9081526020016040518091039020819055507f6ef95f06320e7a25a04a175ca677b7052bdd97131872c2192525a629f51be770336006546040516107b792919061122e565b60405180910390a15050565b600360205280600052604060002060009150905080546107e290611286565b80601f016020809104026020016040519081016040528092919081815260200182805461080e90611286565b801561085b5780601f106108305761010080835404028352916020019161085b565b820191906000526020600020905b81548152906001019060200180831161083e57829003601f168201915b505050505081565b60016020528060005260406000206000915090505481565b6002818051602081018201805184825260208301602085012081835280955050505050506000915090505481565b600760009054906101000a900461ffff1681565b60011515600460003373ffffffffffffffffffffffffffffffffffffffff1673ffffffffffffffffffffffffffffffffffffffff16815260200190815260200160002060009054906101000a900460ff16151514610950576040517f08c379a0000000000000000000000000000000000000000000000000000000008152600401610947906110c8565b60405180910390fd5b80600360003373ffffffffffffffffffffffffffffffffffffffff1673ffffffffffffffffffffffffffffffffffffffff16815260200190815260200160002090805190602001906109a3929190610b0a565b50600760029054906101000a900461ffff1661ffff16600160003373ffffffffffffffffffffffffffffffffffffffff1673ffffffffffffffffffffffffffffffffffffffff1681526020019081526020016000206000828254610a0791906111fa565b92505081905550610a1733610a9d565b50565b60046020528060005260406000206000915054906101000a900460ff1681565b60065481565b6000818051602081018201805184825260208301602085012081835280955050505050506000915054906101000a900473ffffffffffffffffffffffffffffffffffffffff1681565b600760029054906101000a900461ffff1681565b600760029054906101000a900461ffff1661ffff16600160008373ffffffffffffffffffffffffffffffffffffffff1673ffffffffffffffffffffffffffffffffffffffff1681526020019081526020016000206000828254610b0091906112b8565b9250508190555050565b828054610b1690611286565b90600052602060002090601f016020900481019282610b385760008555610b7f565b82601f10610b5157805160ff1916838001178555610b7f565b82800160010185558215610b7f579182015b82811115610b7e578251825591602001919060010190610b63565b5b509050610b8c9190610b90565b5090565b5b80821115610ba9576000816000905550600101610b91565b5090565b6000604051905090565b600080fd5b600080fd5b600073ffffffffffffffffffffffffffffffffffffffff82169050919050565b6000610bec82610bc1565b9050919050565b610bfc81610be1565b8114610c0757600080fd5b50565b600081359050610c1981610bf3565b92915050565b6000819050919050565b610c3281610c1f565b8114610c3d57600080fd5b50565b600081359050610c4f81610c29565b92915050565b60008060408385031215610c6c57610c6b610bb7565b5b6000610c7a85828601610c0a565b9250506020610c8b85828601610c40565b9150509250929050565b600060208284031215610cab57610caa610bb7565b5b6000610cb984828501610c0a565b91505092915050565b600060208284031215610cd857610cd7610bb7565b5b6000610ce684828501610c40565b91505092915050565b600080fd5b600080fd5b6000601f19601f8301169050919050565b7f4e487b7100000000000000000000000000000000000000000000000000000000600052604160045260246000fd5b610d4282610cf9565b810181811067ffffffffffffffff82111715610d6157610d60610d0a565b5b80604052505050565b6000610d74610bad565b9050610d808282610d39565b919050565b600067ffffffffffffffff821115610da057610d9f610d0a565b5b610da982610cf9565b9050602081019050919050565b82818337600083830152505050565b6000610dd8610dd384610d85565b610d6a565b905082815260208101848484011115610df457610df3610cf4565b5b610dff848285610db6565b509392505050565b600082601f830112610e1c57610e1b610cef565b5b8135610e2c848260208601610dc5565b91505092915050565b600060208284031215610e4b57610e4a610bb7565b5b600082013567ffffffffffffffff811115610e6957610e68610bbc565b5b610e7584828501610e07565b91505092915050565b600081519050919050565b600082825260208201905092915050565b60005b83811015610eb8578082015181840152602081019050610e9d565b83811115610ec7576000848401525b50505050565b6000610ed882610e7e565b610ee28185610e89565b9350610ef2818560208601610e9a565b610efb81610cf9565b840191505092915050565b60006020820190508181036000830152610f208184610ecd565b905092915050565b610f3181610c1f565b82525050565b6000602082019050610f4c6000830184610f28565b92915050565b600061ffff82169050919050565b610f6981610f52565b82525050565b6000602082019050610f846000830184610f60565b92915050565b60008115159050919050565b610f9f81610f8a565b82525050565b6000602082019050610fba6000830184610f96565b92915050565b610fc981610be1565b82525050565b6000602082019050610fe46000830184610fc0565b92915050565b7f4e616f20706f6465206d61697320726576697361720000000000000000000000600082015250565b6000611020601583610e89565b915061102b82610fea565b602082019050919050565b6000602082019050818103600083015261104f81611013565b9050919050565b7f5072656369736120736520696e7363726576657220636f6d6f2072657669736f60008201527f7200000000000000000000000000000000000000000000000000000000000000602082015250565b60006110b2602183610e89565b91506110bd82611056565b604082019050919050565b600060208201905081810360008301526110e1816110a5565b9050919050565b7f4e487b7100000000000000000000000000000000000000000000000000000000600052603260045260246000fd5b7f4e487b7100000000000000000000000000000000000000000000000000000000600052601160045260246000fd5b600061115182610f52565b915061115c83610f52565b92508261ffff0382111561117357611172611117565b5b828201905092915050565b600081905092915050565b600061119482610e7e565b61119e818561117e565b93506111ae818560208601610e9a565b80840191505092915050565b60006111c68284611189565b915081905092915050565b60006040820190506111e66000830185610f28565b6111f36020830184610f28565b9392505050565b600061120582610c1f565b915061121083610c1f565b92508282101561122357611222611117565b5b828203905092915050565b60006040820190506112436000830185610fc0565b6112506020830184610f28565b9392505050565b7f4e487b7100000000000000000000000000000000000000000000000000000000600052602260045260246000fd5b6000600282049050600182168061129e57607f821691505b602082108114156112b2576112b1611257565b5b50919050565b60006112c382610c1f565b91506112ce83610c1f565b9250827fffffffffffffffffffffffffffffffffffffffffffffffffffffffffffffffff0382111561130357611302611117565b5b82820190509291505056fea264697066735822122097f751da0cfba388dd680d61f79218cef6d9e6700aa7fee9e855aee90150b3f664736f6c63430008090033",
  "immutableReferences": {},
  "source": "// SPDX-License-Identifier: MIT\r\npragma solidity ^0.8.4;\r\n\r\nimport \"@openzeppelin/contracts/utils/Context.sol\";\r\nimport \"@openzeppelin/contracts/utils/Address.sol\";\r\n\r\nimport \"./DpubToken.sol\";\r\nimport \"./PaperToken.sol\";\r\nimport \"./ReviewToken.sol\";\r\n\r\ncontract DPublish {\r\n\r\n    mapping(string => address) public submitted_manuscripts; ///Armazena no dicionrio os endereos\r\n    mapping(address => uint256) public balances; ///Quantidade de DPubTokens que o usurio possui\r\n    mapping(string => uint256) public bounties; ///Armazena o pagamento para revisores\r\n    mapping(address => string) public review_archive; ///Armazena as revises. O revisor manda um link com arquivo com a reviso, e o review_archive armazena os links\r\n    mapping(address => bool) public is_reviewer; ///Diz se o usurio  revisor\r\n\r\n    address private Editor; ///Endereo do editor\r\n    uint256 public publishing_fee; ///Taxa mnima para publicar um artigo\r\n    uint16 public review_time; ///Tempo para completar uma reviso\r\n    uint16 public review_payment; ///Pagamento para o revisor\r\n\r\n    address[10] reviewers; ///Endereo dos revisores\r\n    uint16 count_review = 0; ///Contagem de revises\r\n\r\n    ///Eventos:\r\n    event PaymentReceived(address from, uint256 amount); ///Aviso de pagamento recebido\r\n    ////Erros:\r\n    error NotEnoughFunds(uint256 requested, uint256 available); ///Falta de tokens suficientes para pagamento\r\n\r\n    constructor(){\r\n        Editor = msg.sender; ///Guarda o endereo do autor\r\n    } \r\n\r\n    function submit_manuscripts(string memory idmanuscript) public payable{\r\n        submitted_manuscripts[idmanuscript] = msg.sender;  ///Armazena o endereo de quem publicou\r\n        uint balance = balances[msg.sender]; ///Pega o saldo do usurio\r\n        if (balance < publishing_fee) \r\n            revert NotEnoughFunds(publishing_fee, balance); ///Caso o saldo seja insuficiente\r\n        balances[msg.sender] -= publishing_fee; ///Desconta a taxa de publicao\r\n        bounties[idmanuscript] = publishing_fee; ///Armazena o novo saldo\r\n        emit PaymentReceived(msg.sender, publishing_fee);\r\n\r\n    }\r\n\r\n    function set_fee(uint256 fee) public payable{\r\n        require(msg.sender == Editor); ///Publica o artigo caso o expedidor do contrato seja o editor\r\n        publishing_fee = fee;\r\n    }\r\n\r\n    function set_balance(address user, uint256 value) public{\r\n        require(msg.sender == Editor);\r\n        balances[user] = value; ///Atribui um saldo ao usurio\r\n    }\r\n\r\n    function subscribe_to_review(address user) public{\r\n        require(count_review <= 10, \"Nao pode mais revisar\"); ///Inscrio de revisores. Se tiver revisto mais de 10 artigos,  impossvel rever mais\r\n        require(!(is_reviewer[msg.sender]==true), \"Precisa se inscrever como revisor\");\r\n        reviewers[count_review] = user; \r\n        count_review += 1 ;\r\n        is_reviewer[user] = true;\r\n    }\r\n\r\n\r\n    function sent_review(string memory linkIPFS) public{\r\n        require(is_reviewer[msg.sender]==true, \"Precisa se inscrever como revisor\"); ///Envio de reviso\r\n        review_archive[msg.sender] = linkIPFS;\r\n        balances[msg.sender] -= review_payment; ///Desconta o valor do pagamento para evitar pagamentos adicionais\r\n        pay_review(msg.sender);\r\n\r\n    }\r\n\r\n    function pay_review(address reviewer) private{\r\n        balances[reviewer] += review_payment; ///Paga a reviso\r\n    }\r\n\r\n\r\n\r\n}",
  "sourcePath": "C:\\Users\\ilana\\Documents\\RAPHAEL\\FGV\\2021\\2021.2\\Git\\PortableGit\\Dpublish\\project_A2_Levy\\contracts\\DPublish.sol",
  "compiler": {
    "name": "solc",
    "version": "0.8.9+commit.e5eed63a.Emscripten.clang"
  },
  "schemaVersion": "3.4.3",
  "updatedAt": "2021-12-11T15:15:09.574Z",
  "networkType": "ethereum",
  "devdoc": {
    "kind": "dev",
    "methods": {},
    "version": 1
  },
  "userdoc": {
    "errors": {
      "NotEnoughFunds(uint256,uint256)": [
        {
          "notice": "Aviso de pagamento recebido"
        }
      ]
    },
    "events": {
      "PaymentReceived(address,uint256)": {
        "notice": "Eventos:"
      }
    },
    "kind": "user",
    "methods": {
      "balances(address)": {
        "notice": "Armazena no dicionrio os endereos"
      },
      "bounties(string)": {
        "notice": "Quantidade de DPubTokens que o usurio possui"
      },
      "constructor": {
        "notice": "Falta de tokens suficientes para pagamento"
      },
      "is_reviewer(address)": {
        "notice": "Armazena as revises. O revisor manda um link com arquivo com a reviso, e o review_archive armazena os links"
      },
      "publishing_fee()": {
        "notice": "Endereo do editor"
      },
      "review_archive(address)": {
        "notice": "Armazena o pagamento para revisores"
      },
      "review_payment()": {
        "notice": "Tempo para completar uma reviso"
      },
      "review_time()": {
        "notice": "Taxa mnima para publicar um artigo"
      }
    },
    "version": 1
  }
}