{
  "contractName": "PaperToken",
  "abi": [
    {
      "inputs": [],
      "stateMutability": "nonpayable",
      "type": "constructor"
    },
    {
      "anonymous": false,
      "inputs": [
        {
          "indexed": true,
          "internalType": "address",
          "name": "owner",
          "type": "address"
        },
        {
          "indexed": true,
          "internalType": "address",
          "name": "approved",
          "type": "address"
        },
        {
          "indexed": true,
          "internalType": "uint256",
          "name": "tokenId",
          "type": "uint256"
        }
      ],
      "name": "Approval",
      "type": "event"
    },
    {
      "anonymous": false,
      "inputs": [
        {
          "indexed": true,
          "internalType": "address",
          "name": "owner",
          "type": "address"
        },
        {
          "indexed": true,
          "internalType": "address",
          "name": "operator",
          "type": "address"
        },
        {
          "indexed": false,
          "internalType": "bool",
          "name": "approved",
          "type": "bool"
        }
      ],
      "name": "ApprovalForAll",
      "type": "event"
    },
    {
      "anonymous": false,
      "inputs": [
        {
          "indexed": true,
          "internalType": "address",
          "name": "previousOwner",
          "type": "address"
        },
        {
          "indexed": true,
          "internalType": "address",
          "name": "newOwner",
          "type": "address"
        }
      ],
      "name": "OwnershipTransferred",
      "type": "event"
    },
    {
      "anonymous": false,
      "inputs": [
        {
          "indexed": true,
          "internalType": "address",
          "name": "from",
          "type": "address"
        },
        {
          "indexed": true,
          "internalType": "address",
          "name": "to",
          "type": "address"
        },
        {
          "indexed": true,
          "internalType": "uint256",
          "name": "tokenId",
          "type": "uint256"
        }
      ],
      "name": "Transfer",
      "type": "event"
    },
    {
      "inputs": [
        {
          "internalType": "address",
          "name": "to",
          "type": "address"
        },
        {
          "internalType": "uint256",
          "name": "tokenId",
          "type": "uint256"
        }
      ],
      "name": "approve",
      "outputs": [],
      "stateMutability": "nonpayable",
      "type": "function"
    },
    {
      "inputs": [
        {
          "internalType": "address",
          "name": "owner",
          "type": "address"
        }
      ],
      "name": "balanceOf",
      "outputs": [
        {
          "internalType": "uint256",
          "name": "",
          "type": "uint256"
        }
      ],
      "stateMutability": "view",
      "type": "function",
      "constant": true
    },
    {
      "inputs": [
        {
          "internalType": "uint256",
          "name": "tokenId",
          "type": "uint256"
        }
      ],
      "name": "getApproved",
      "outputs": [
        {
          "internalType": "address",
          "name": "",
          "type": "address"
        }
      ],
      "stateMutability": "view",
      "type": "function",
      "constant": true
    },
    {
      "inputs": [
        {
          "internalType": "address",
          "name": "owner",
          "type": "address"
        },
        {
          "internalType": "address",
          "name": "operator",
          "type": "address"
        }
      ],
      "name": "isApprovedForAll",
      "outputs": [
        {
          "internalType": "bool",
          "name": "",
          "type": "bool"
        }
      ],
      "stateMutability": "view",
      "type": "function",
      "constant": true
    },
    {
      "inputs": [],
      "name": "name",
      "outputs": [
        {
          "internalType": "string",
          "name": "",
          "type": "string"
        }
      ],
      "stateMutability": "view",
      "type": "function",
      "constant": true
    },
    {
      "inputs": [],
      "name": "owner",
      "outputs": [
        {
          "internalType": "address",
          "name": "",
          "type": "address"
        }
      ],
      "stateMutability": "view",
      "type": "function",
      "constant": true
    },
    {
      "inputs": [
        {
          "internalType": "uint256",
          "name": "tokenId",
          "type": "uint256"
        }
      ],
      "name": "ownerOf",
      "outputs": [
        {
          "internalType": "address",
          "name": "",
          "type": "address"
        }
      ],
      "stateMutability": "view",
      "type": "function",
      "constant": true
    },
    {
      "inputs": [],
      "name": "renounceOwnership",
      "outputs": [],
      "stateMutability": "nonpayable",
      "type": "function"
    },
    {
      "inputs": [
        {
          "internalType": "address",
          "name": "from",
          "type": "address"
        },
        {
          "internalType": "address",
          "name": "to",
          "type": "address"
        },
        {
          "internalType": "uint256",
          "name": "tokenId",
          "type": "uint256"
        }
      ],
      "name": "safeTransferFrom",
      "outputs": [],
      "stateMutability": "nonpayable",
      "type": "function"
    },
    {
      "inputs": [
        {
          "internalType": "address",
          "name": "from",
          "type": "address"
        },
        {
          "internalType": "address",
          "name": "to",
          "type": "address"
        },
        {
          "internalType": "uint256",
          "name": "tokenId",
          "type": "uint256"
        },
        {
          "internalType": "bytes",
          "name": "_data",
          "type": "bytes"
        }
      ],
      "name": "safeTransferFrom",
      "outputs": [],
      "stateMutability": "nonpayable",
      "type": "function"
    },
    {
      "inputs": [
        {
          "internalType": "address",
          "name": "operator",
          "type": "address"
        },
        {
          "internalType": "bool",
          "name": "approved",
          "type": "bool"
        }
      ],
      "name": "setApprovalForAll",
      "outputs": [],
      "stateMutability": "nonpayable",
      "type": "function"
    },
    {
      "inputs": [
        {
          "internalType": "bytes4",
          "name": "interfaceId",
          "type": "bytes4"
        }
      ],
      "name": "supportsInterface",
      "outputs": [
        {
          "internalType": "bool",
          "name": "",
          "type": "bool"
        }
      ],
      "stateMutability": "view",
      "type": "function",
      "constant": true
    },
    {
      "inputs": [],
      "name": "symbol",
      "outputs": [
        {
          "internalType": "string",
          "name": "",
          "type": "string"
        }
      ],
      "stateMutability": "view",
      "type": "function",
      "constant": true
    },
    {
      "inputs": [
        {
          "internalType": "address",
          "name": "from",
          "type": "address"
        },
        {
          "internalType": "address",
          "name": "to",
          "type": "address"
        },
        {
          "internalType": "uint256",
          "name": "tokenId",
          "type": "uint256"
        }
      ],
      "name": "transferFrom",
      "outputs": [],
      "stateMutability": "nonpayable",
      "type": "function"
    },
    {
      "inputs": [
        {
          "internalType": "address",
          "name": "newOwner",
          "type": "address"
        }
      ],
      "name": "transferOwnership",
      "outputs": [],
      "stateMutability": "nonpayable",
      "type": "function"
    },
    {
      "inputs": [],
      "name": "newID",
      "outputs": [
        {
          "internalType": "uint256",
          "name": "",
          "type": "uint256"
        }
      ],
      "stateMutability": "nonpayable",
      "type": "function"
    },
    {
      "inputs": [
        {
          "internalType": "address",
          "name": "to",
          "type": "address"
        },
        {
          "internalType": "uint256",
          "name": "tokenId",
          "type": "uint256"
        }
      ],
      "name": "safeMint",
      "outputs": [],
      "stateMutability": "nonpayable",
      "type": "function"
    },
    {
      "inputs": [
        {
          "internalType": "address",
          "name": "to",
          "type": "address"
        },
        {
          "internalType": "uint256",
          "name": "userId",
          "type": "uint256"
        }
      ],
      "name": "register",
      "outputs": [],
      "stateMutability": "nonpayable",
      "type": "function"
    },
    {
      "inputs": [
        {
          "internalType": "uint256",
          "name": "tokenId",
          "type": "uint256"
        }
      ],
      "name": "tokenURI",
      "outputs": [
        {
          "internalType": "string",
          "name": "",
          "type": "string"
        }
      ],
      "stateMutability": "view",
      "type": "function",
      "constant": true
    }
  ],
  "bytecode": "0x60806040523480156200001157600080fd5b506040518060400160405280600a81526020017f5061706572546f6b656e000000000000000000000000000000000000000000008152506040518060400160405280600381526020017f50544b0000000000000000000000000000000000000000000000000000000000815250816000908051906020019062000096929190620001ae565b508060019080519060200190620000af929190620001ae565b505050620000d2620000c6620000e060201b60201c565b620000e860201b60201c565b6001600881905550620002c3565b600033905090565b6000600760009054906101000a900473ffffffffffffffffffffffffffffffffffffffff16905081600760006101000a81548173ffffffffffffffffffffffffffffffffffffffff021916908373ffffffffffffffffffffffffffffffffffffffff1602179055508173ffffffffffffffffffffffffffffffffffffffff168173ffffffffffffffffffffffffffffffffffffffff167f8be0079c531659141344cd1fd0a4f28419497f9722a3daafe3b4186f6b6457e060405160405180910390a35050565b828054620001bc906200028d565b90600052602060002090601f016020900481019282620001e057600085556200022c565b82601f10620001fb57805160ff19168380011785556200022c565b828001600101855582156200022c579182015b828111156200022b5782518255916020019190600101906200020e565b5b5090506200023b91906200023f565b5090565b5b808211156200025a57600081600090555060010162000240565b5090565b7f4e487b7100000000000000000000000000000000000000000000000000000000600052602260045260246000fd5b60006002820490506001821680620002a657607f821691505b60208210811415620002bd57620002bc6200025e565b5b50919050565b612e9680620002d36000396000f3fe608060405234801561001057600080fd5b50600436106101215760003560e01c8063715018a6116100ad578063a22cb46511610071578063a22cb465146102f4578063b88d4fde14610310578063c87b56dd1461032c578063e985e9c51461035c578063f2fde38b1461038c57610121565b8063715018a6146102745780638da5cb5b1461027e57806395d89b411461029c5780639f7a9f38146102ba578063a1448194146102d857610121565b806323b872dd116100f457806323b872dd146101c057806342842e0e146101dc5780636352211e146101f85780636d705ebb1461022857806370a082311461024457610121565b806301ffc9a71461012657806306fdde0314610156578063081812fc14610174578063095ea7b3146101a4575b600080fd5b610140600480360381019061013b9190611c89565b6103a8565b60405161014d9190611cd1565b60405180910390f35b61015e61048a565b60405161016b9190611d85565b60405180910390f35b61018e60048036038101906101899190611ddd565b61051c565b60405161019b9190611e4b565b60405180910390f35b6101be60048036038101906101b99190611e92565b6105a1565b005b6101da60048036038101906101d59190611ed2565b6106b9565b005b6101f660048036038101906101f19190611ed2565b610719565b005b610212600480360381019061020d9190611ddd565b610739565b60405161021f9190611e4b565b60405180910390f35b610242600480360381019061023d9190611e92565b6107eb565b005b61025e60048036038101906102599190611f25565b610875565b60405161026b9190611f61565b60405180910390f35b61027c61092d565b005b6102866109b5565b6040516102939190611e4b565b60405180910390f35b6102a46109df565b6040516102b19190611d85565b60405180910390f35b6102c2610a71565b6040516102cf9190611f61565b60405180910390f35b6102f260048036038101906102ed9190611e92565b610a90565b005b61030e60048036038101906103099190611fa8565b610b1a565b005b61032a6004803603810190610325919061211d565b610b30565b005b61034660048036038101906103419190611ddd565b610b92565b6040516103539190611d85565b60405180910390f35b610376600480360381019061037191906121a0565b610ba4565b6040516103839190611cd1565b60405180910390f35b6103a660048036038101906103a19190611f25565b610c38565b005b60007f80ac58cd000000000000000000000000000000000000000000000000000000007bffffffffffffffffffffffffffffffffffffffffffffffffffffffff1916827bffffffffffffffffffffffffffffffffffffffffffffffffffffffff1916148061047357507f5b5e139f000000000000000000000000000000000000000000000000000000007bffffffffffffffffffffffffffffffffffffffffffffffffffffffff1916827bffffffffffffffffffffffffffffffffffffffffffffffffffffffff1916145b80610483575061048282610d30565b5b9050919050565b6060600080546104999061220f565b80601f01602080910402602001604051908101604052809291908181526020018280546104c59061220f565b80156105125780601f106104e757610100808354040283529160200191610512565b820191906000526020600020905b8154815290600101906020018083116104f557829003601f168201915b5050505050905090565b600061052782610d9a565b610566576040517f08c379a000000000000000000000000000000000000000000000000000000000815260040161055d906122b3565b60405180910390fd5b6004600083815260200190815260200160002060009054906101000a900473ffffffffffffffffffffffffffffffffffffffff169050919050565b60006105ac82610739565b90508073ffffffffffffffffffffffffffffffffffffffff168373ffffffffffffffffffffffffffffffffffffffff16141561061d576040517f08c379a000000000000000000000000000000000000000000000000000000000815260040161061490612345565b60405180910390fd5b8073ffffffffffffffffffffffffffffffffffffffff1661063c610e06565b73ffffffffffffffffffffffffffffffffffffffff16148061066b575061066a81610665610e06565b610ba4565b5b6106aa576040517f08c379a00000000000000000000000000000000000000000000000000000000081526004016106a1906123d7565b60405180910390fd5b6106b48383610e0e565b505050565b6106ca6106c4610e06565b82610ec7565b610709576040517f08c379a000000000000000000000000000000000000000000000000000000000815260040161070090612469565b60405180910390fd5b610714838383610fa5565b505050565b61073483838360405180602001604052806000815250610b30565b505050565b6000806002600084815260200190815260200160002060009054906101000a900473ffffffffffffffffffffffffffffffffffffffff169050600073ffffffffffffffffffffffffffffffffffffffff168173ffffffffffffffffffffffffffffffffffffffff1614156107e2576040517f08c379a00000000000000000000000000000000000000000000000000000000081526004016107d9906124fb565b60405180910390fd5b80915050919050565b6107f3610e06565b73ffffffffffffffffffffffffffffffffffffffff166108116109b5565b73ffffffffffffffffffffffffffffffffffffffff1614610867576040517f08c379a000000000000000000000000000000000000000000000000000000000815260040161085e90612567565b60405180910390fd5b61087182826107eb565b5050565b60008073ffffffffffffffffffffffffffffffffffffffff168273ffffffffffffffffffffffffffffffffffffffff1614156108e6576040517f08c379a00000000000000000000000000000000000000000000000000000000081526004016108dd906125f9565b60405180910390fd5b600360008373ffffffffffffffffffffffffffffffffffffffff1673ffffffffffffffffffffffffffffffffffffffff168152602001908152602001600020549050919050565b610935610e06565b73ffffffffffffffffffffffffffffffffffffffff166109536109b5565b73ffffffffffffffffffffffffffffffffffffffff16146109a9576040517f08c379a00000000000000000000000000000000000000000000000000000000081526004016109a090612567565b60405180910390fd5b6109b36000611201565b565b6000600760009054906101000a900473ffffffffffffffffffffffffffffffffffffffff16905090565b6060600180546109ee9061220f565b80601f0160208091040260200160405190810160405280929190818152602001828054610a1a9061220f565b8015610a675780601f10610a3c57610100808354040283529160200191610a67565b820191906000526020600020905b815481529060010190602001808311610a4a57829003601f168201915b5050505050905090565b60006001600854610a829190612648565b600881905550600854905090565b610a98610e06565b73ffffffffffffffffffffffffffffffffffffffff16610ab66109b5565b73ffffffffffffffffffffffffffffffffffffffff1614610b0c576040517f08c379a0000000000000000000000000000000000000000000000000000000008152600401610b0390612567565b60405180910390fd5b610b1682826112c7565b5050565b610b2c610b25610e06565b83836112e5565b5050565b610b41610b3b610e06565b83610ec7565b610b80576040517f08c379a0000000000000000000000000000000000000000000000000000000008152600401610b7790612469565b60405180910390fd5b610b8c84848484611452565b50505050565b6060610b9d826114ae565b9050919050565b6000600560008473ffffffffffffffffffffffffffffffffffffffff1673ffffffffffffffffffffffffffffffffffffffff16815260200190815260200160002060008373ffffffffffffffffffffffffffffffffffffffff1673ffffffffffffffffffffffffffffffffffffffff16815260200190815260200160002060009054906101000a900460ff16905092915050565b610c40610e06565b73ffffffffffffffffffffffffffffffffffffffff16610c5e6109b5565b73ffffffffffffffffffffffffffffffffffffffff1614610cb4576040517f08c379a0000000000000000000000000000000000000000000000000000000008152600401610cab90612567565b60405180910390fd5b600073ffffffffffffffffffffffffffffffffffffffff168173ffffffffffffffffffffffffffffffffffffffff161415610d24576040517f08c379a0000000000000000000000000000000000000000000000000000000008152600401610d1b90612710565b60405180910390fd5b610d2d81611201565b50565b60007f01ffc9a7000000000000000000000000000000000000000000000000000000007bffffffffffffffffffffffffffffffffffffffffffffffffffffffff1916827bffffffffffffffffffffffffffffffffffffffffffffffffffffffff1916149050919050565b60008073ffffffffffffffffffffffffffffffffffffffff166002600084815260200190815260200160002060009054906101000a900473ffffffffffffffffffffffffffffffffffffffff1673ffffffffffffffffffffffffffffffffffffffff1614159050919050565b600033905090565b816004600083815260200190815260200160002060006101000a81548173ffffffffffffffffffffffffffffffffffffffff021916908373ffffffffffffffffffffffffffffffffffffffff160217905550808273ffffffffffffffffffffffffffffffffffffffff16610e8183610739565b73ffffffffffffffffffffffffffffffffffffffff167f8c5be1e5ebec7d5bd14f71427d1e84f3dd0314c0f7b2291e5b200ac8c7c3b92560405160405180910390a45050565b6000610ed282610d9a565b610f11576040517f08c379a0000000000000000000000000000000000000000000000000000000008152600401610f08906127a2565b60405180910390fd5b6000610f1c83610739565b90508073ffffffffffffffffffffffffffffffffffffffff168473ffffffffffffffffffffffffffffffffffffffff161480610f8b57508373ffffffffffffffffffffffffffffffffffffffff16610f738461051c565b73ffffffffffffffffffffffffffffffffffffffff16145b80610f9c5750610f9b8185610ba4565b5b91505092915050565b8273ffffffffffffffffffffffffffffffffffffffff16610fc582610739565b73ffffffffffffffffffffffffffffffffffffffff161461101b576040517f08c379a000000000000000000000000000000000000000000000000000000000815260040161101290612834565b60405180910390fd5b600073ffffffffffffffffffffffffffffffffffffffff168273ffffffffffffffffffffffffffffffffffffffff16141561108b576040517f08c379a0000000000000000000000000000000000000000000000000000000008152600401611082906128c6565b60405180910390fd5b611096838383611600565b6110a1600082610e0e565b6001600360008573ffffffffffffffffffffffffffffffffffffffff1673ffffffffffffffffffffffffffffffffffffffff16815260200190815260200160002060008282546110f191906128e6565b925050819055506001600360008473ffffffffffffffffffffffffffffffffffffffff1673ffffffffffffffffffffffffffffffffffffffff16815260200190815260200160002060008282546111489190612648565b92505081905550816002600083815260200190815260200160002060006101000a81548173ffffffffffffffffffffffffffffffffffffffff021916908373ffffffffffffffffffffffffffffffffffffffff160217905550808273ffffffffffffffffffffffffffffffffffffffff168473ffffffffffffffffffffffffffffffffffffffff167fddf252ad1be2c89b69c2b068fc378daa952ba7f163c4a11628f55a4df523b3ef60405160405180910390a4505050565b6000600760009054906101000a900473ffffffffffffffffffffffffffffffffffffffff16905081600760006101000a81548173ffffffffffffffffffffffffffffffffffffffff021916908373ffffffffffffffffffffffffffffffffffffffff1602179055508173ffffffffffffffffffffffffffffffffffffffff168173ffffffffffffffffffffffffffffffffffffffff167f8be0079c531659141344cd1fd0a4f28419497f9722a3daafe3b4186f6b6457e060405160405180910390a35050565b6112e1828260405180602001604052806000815250611605565b5050565b8173ffffffffffffffffffffffffffffffffffffffff168373ffffffffffffffffffffffffffffffffffffffff161415611354576040517f08c379a000000000000000000000000000000000000000000000000000000000815260040161134b90612966565b60405180910390fd5b80600560008573ffffffffffffffffffffffffffffffffffffffff1673ffffffffffffffffffffffffffffffffffffffff16815260200190815260200160002060008473ffffffffffffffffffffffffffffffffffffffff1673ffffffffffffffffffffffffffffffffffffffff16815260200190815260200160002060006101000a81548160ff0219169083151502179055508173ffffffffffffffffffffffffffffffffffffffff168373ffffffffffffffffffffffffffffffffffffffff167f17307eab39ab6107e8899845ad3d59bd9653f200f220920489ca2b5937696c31836040516114459190611cd1565b60405180910390a3505050565b61145d848484610fa5565b61146984848484611660565b6114a8576040517f08c379a000000000000000000000000000000000000000000000000000000000815260040161149f906129f8565b60405180910390fd5b50505050565b60606114b982610d9a565b6114f8576040517f08c379a00000000000000000000000000000000000000000000000000000000081526004016114ef90612a8a565b60405180910390fd5b60006006600084815260200190815260200160002080546115189061220f565b80601f01602080910402602001604051908101604052809291908181526020018280546115449061220f565b80156115915780601f1061156657610100808354040283529160200191611591565b820191906000526020600020905b81548152906001019060200180831161157457829003601f168201915b5050505050905060006115a26117f7565b90506000815114156115b85781925050506115fb565b6000825111156115ed5780826040516020016115d5929190612ae6565b604051602081830303815290604052925050506115fb565b6115f684611834565b925050505b919050565b505050565b61160f83836118db565b61161c6000848484611660565b61165b576040517f08c379a0000000000000000000000000000000000000000000000000000000008152600401611652906129f8565b60405180910390fd5b505050565b60006116818473ffffffffffffffffffffffffffffffffffffffff16611aa9565b156117ea578373ffffffffffffffffffffffffffffffffffffffff1663150b7a026116aa610e06565b8786866040518563ffffffff1660e01b81526004016116cc9493929190612b5f565b602060405180830381600087803b1580156116e657600080fd5b505af192505050801561171757506040513d601f19601f820116820180604052508101906117149190612bc0565b60015b61179a573d8060008114611747576040519150601f19603f3d011682016040523d82523d6000602084013e61174c565b606091505b50600081511415611792576040517f08c379a0000000000000000000000000000000000000000000000000000000008152600401611789906129f8565b60405180910390fd5b805181602001fd5b63150b7a0260e01b7bffffffffffffffffffffffffffffffffffffffffffffffffffffffff1916817bffffffffffffffffffffffffffffffffffffffffffffffffffffffff1916149150506117ef565b600190505b949350505050565b60606040518060400160405280601481526020017f68747470733a2f2f647075626c6973682e6f7267000000000000000000000000815250905090565b606061183f82610d9a565b61187e576040517f08c379a000000000000000000000000000000000000000000000000000000000815260040161187590612c5f565b60405180910390fd5b60006118886117f7565b905060008151116118a857604051806020016040528060008152506118d3565b806118b284611abc565b6040516020016118c3929190612ae6565b6040516020818303038152906040525b915050919050565b600073ffffffffffffffffffffffffffffffffffffffff168273ffffffffffffffffffffffffffffffffffffffff16141561194b576040517f08c379a000000000000000000000000000000000000000000000000000000000815260040161194290612ccb565b60405180910390fd5b61195481610d9a565b15611994576040517f08c379a000000000000000000000000000000000000000000000000000000000815260040161198b90612d37565b60405180910390fd5b6119a060008383611600565b6001600360008473ffffffffffffffffffffffffffffffffffffffff1673ffffffffffffffffffffffffffffffffffffffff16815260200190815260200160002060008282546119f09190612648565b92505081905550816002600083815260200190815260200160002060006101000a81548173ffffffffffffffffffffffffffffffffffffffff021916908373ffffffffffffffffffffffffffffffffffffffff160217905550808273ffffffffffffffffffffffffffffffffffffffff16600073ffffffffffffffffffffffffffffffffffffffff167fddf252ad1be2c89b69c2b068fc378daa952ba7f163c4a11628f55a4df523b3ef60405160405180910390a45050565b600080823b905060008111915050919050565b60606000821415611b04576040518060400160405280600181526020017f30000000000000000000000000000000000000000000000000000000000000008152509050611c18565b600082905060005b60008214611b36578080611b1f90612d57565b915050600a82611b2f9190612dcf565b9150611b0c565b60008167ffffffffffffffff811115611b5257611b51611ff2565b5b6040519080825280601f01601f191660200182016040528015611b845781602001600182028036833780820191505090505b5090505b60008514611c1157600182611b9d91906128e6565b9150600a85611bac9190612e00565b6030611bb89190612648565b60f81b818381518110611bce57611bcd612e31565b5b60200101907effffffffffffffffffffffffffffffffffffffffffffffffffffffffffffff1916908160001a905350600a85611c0a9190612dcf565b9450611b88565b8093505050505b919050565b6000604051905090565b600080fd5b600080fd5b60007fffffffff0000000000000000000000000000000000000000000000000000000082169050919050565b611c6681611c31565b8114611c7157600080fd5b50565b600081359050611c8381611c5d565b92915050565b600060208284031215611c9f57611c9e611c27565b5b6000611cad84828501611c74565b91505092915050565b60008115159050919050565b611ccb81611cb6565b82525050565b6000602082019050611ce66000830184611cc2565b92915050565b600081519050919050565b600082825260208201905092915050565b60005b83811015611d26578082015181840152602081019050611d0b565b83811115611d35576000848401525b50505050565b6000601f19601f8301169050919050565b6000611d5782611cec565b611d618185611cf7565b9350611d71818560208601611d08565b611d7a81611d3b565b840191505092915050565b60006020820190508181036000830152611d9f8184611d4c565b905092915050565b6000819050919050565b611dba81611da7565b8114611dc557600080fd5b50565b600081359050611dd781611db1565b92915050565b600060208284031215611df357611df2611c27565b5b6000611e0184828501611dc8565b91505092915050565b600073ffffffffffffffffffffffffffffffffffffffff82169050919050565b6000611e3582611e0a565b9050919050565b611e4581611e2a565b82525050565b6000602082019050611e606000830184611e3c565b92915050565b611e6f81611e2a565b8114611e7a57600080fd5b50565b600081359050611e8c81611e66565b92915050565b60008060408385031215611ea957611ea8611c27565b5b6000611eb785828601611e7d565b9250506020611ec885828601611dc8565b9150509250929050565b600080600060608486031215611eeb57611eea611c27565b5b6000611ef986828701611e7d565b9350506020611f0a86828701611e7d565b9250506040611f1b86828701611dc8565b9150509250925092565b600060208284031215611f3b57611f3a611c27565b5b6000611f4984828501611e7d565b91505092915050565b611f5b81611da7565b82525050565b6000602082019050611f766000830184611f52565b92915050565b611f8581611cb6565b8114611f9057600080fd5b50565b600081359050611fa281611f7c565b92915050565b60008060408385031215611fbf57611fbe611c27565b5b6000611fcd85828601611e7d565b9250506020611fde85828601611f93565b9150509250929050565b600080fd5b600080fd5b7f4e487b7100000000000000000000000000000000000000000000000000000000600052604160045260246000fd5b61202a82611d3b565b810181811067ffffffffffffffff8211171561204957612048611ff2565b5b80604052505050565b600061205c611c1d565b90506120688282612021565b919050565b600067ffffffffffffffff82111561208857612087611ff2565b5b61209182611d3b565b9050602081019050919050565b82818337600083830152505050565b60006120c06120bb8461206d565b612052565b9050828152602081018484840111156120dc576120db611fed565b5b6120e784828561209e565b509392505050565b600082601f83011261210457612103611fe8565b5b81356121148482602086016120ad565b91505092915050565b6000806000806080858703121561213757612136611c27565b5b600061214587828801611e7d565b945050602061215687828801611e7d565b935050604061216787828801611dc8565b925050606085013567ffffffffffffffff81111561218857612187611c2c565b5b612194878288016120ef565b91505092959194509250565b600080604083850312156121b7576121b6611c27565b5b60006121c585828601611e7d565b92505060206121d685828601611e7d565b9150509250929050565b7f4e487b7100000000000000000000000000000000000000000000000000000000600052602260045260246000fd5b6000600282049050600182168061222757607f821691505b6020821081141561223b5761223a6121e0565b5b50919050565b7f4552433732313a20617070726f76656420717565727920666f72206e6f6e657860008201527f697374656e7420746f6b656e0000000000000000000000000000000000000000602082015250565b600061229d602c83611cf7565b91506122a882612241565b604082019050919050565b600060208201905081810360008301526122cc81612290565b9050919050565b7f4552433732313a20617070726f76616c20746f2063757272656e74206f776e6560008201527f7200000000000000000000000000000000000000000000000000000000000000602082015250565b600061232f602183611cf7565b915061233a826122d3565b604082019050919050565b6000602082019050818103600083015261235e81612322565b9050919050565b7f4552433732313a20617070726f76652063616c6c6572206973206e6f74206f7760008201527f6e6572206e6f7220617070726f76656420666f7220616c6c0000000000000000602082015250565b60006123c1603883611cf7565b91506123cc82612365565b604082019050919050565b600060208201905081810360008301526123f0816123b4565b9050919050565b7f4552433732313a207472616e736665722063616c6c6572206973206e6f74206f60008201527f776e6572206e6f7220617070726f766564000000000000000000000000000000602082015250565b6000612453603183611cf7565b915061245e826123f7565b604082019050919050565b6000602082019050818103600083015261248281612446565b9050919050565b7f4552433732313a206f776e657220717565727920666f72206e6f6e657869737460008201527f656e7420746f6b656e0000000000000000000000000000000000000000000000602082015250565b60006124e5602983611cf7565b91506124f082612489565b604082019050919050565b60006020820190508181036000830152612514816124d8565b9050919050565b7f4f776e61626c653a2063616c6c6572206973206e6f7420746865206f776e6572600082015250565b6000612551602083611cf7565b915061255c8261251b565b602082019050919050565b6000602082019050818103600083015261258081612544565b9050919050565b7f4552433732313a2062616c616e636520717565727920666f7220746865207a6560008201527f726f206164647265737300000000000000000000000000000000000000000000602082015250565b60006125e3602a83611cf7565b91506125ee82612587565b604082019050919050565b60006020820190508181036000830152612612816125d6565b9050919050565b7f4e487b7100000000000000000000000000000000000000000000000000000000600052601160045260246000fd5b600061265382611da7565b915061265e83611da7565b9250827fffffffffffffffffffffffffffffffffffffffffffffffffffffffffffffffff0382111561269357612692612619565b5b828201905092915050565b7f4f776e61626c653a206e6577206f776e657220697320746865207a65726f206160008201527f6464726573730000000000000000000000000000000000000000000000000000602082015250565b60006126fa602683611cf7565b91506127058261269e565b604082019050919050565b60006020820190508181036000830152612729816126ed565b9050919050565b7f4552433732313a206f70657261746f7220717565727920666f72206e6f6e657860008201527f697374656e7420746f6b656e0000000000000000000000000000000000000000602082015250565b600061278c602c83611cf7565b915061279782612730565b604082019050919050565b600060208201905081810360008301526127bb8161277f565b9050919050565b7f4552433732313a207472616e73666572206f6620746f6b656e2074686174206960008201527f73206e6f74206f776e0000000000000000000000000000000000000000000000602082015250565b600061281e602983611cf7565b9150612829826127c2565b604082019050919050565b6000602082019050818103600083015261284d81612811565b9050919050565b7f4552433732313a207472616e7366657220746f20746865207a65726f2061646460008201527f7265737300000000000000000000000000000000000000000000000000000000602082015250565b60006128b0602483611cf7565b91506128bb82612854565b604082019050919050565b600060208201905081810360008301526128df816128a3565b9050919050565b60006128f182611da7565b91506128fc83611da7565b92508282101561290f5761290e612619565b5b828203905092915050565b7f4552433732313a20617070726f766520746f2063616c6c657200000000000000600082015250565b6000612950601983611cf7565b915061295b8261291a565b602082019050919050565b6000602082019050818103600083015261297f81612943565b9050919050565b7f4552433732313a207472616e7366657220746f206e6f6e20455243373231526560008201527f63656976657220696d706c656d656e7465720000000000000000000000000000602082015250565b60006129e2603283611cf7565b91506129ed82612986565b604082019050919050565b60006020820190508181036000830152612a11816129d5565b9050919050565b7f45524337323155524953746f726167653a2055524920717565727920666f722060008201527f6e6f6e6578697374656e7420746f6b656e000000000000000000000000000000602082015250565b6000612a74603183611cf7565b9150612a7f82612a18565b604082019050919050565b60006020820190508181036000830152612aa381612a67565b9050919050565b600081905092915050565b6000612ac082611cec565b612aca8185612aaa565b9350612ada818560208601611d08565b80840191505092915050565b6000612af28285612ab5565b9150612afe8284612ab5565b91508190509392505050565b600081519050919050565b600082825260208201905092915050565b6000612b3182612b0a565b612b3b8185612b15565b9350612b4b818560208601611d08565b612b5481611d3b565b840191505092915050565b6000608082019050612b746000830187611e3c565b612b816020830186611e3c565b612b8e6040830185611f52565b8181036060830152612ba08184612b26565b905095945050505050565b600081519050612bba81611c5d565b92915050565b600060208284031215612bd657612bd5611c27565b5b6000612be484828501612bab565b91505092915050565b7f4552433732314d657461646174613a2055524920717565727920666f72206e6f60008201527f6e6578697374656e7420746f6b656e0000000000000000000000000000000000602082015250565b6000612c49602f83611cf7565b9150612c5482612bed565b604082019050919050565b60006020820190508181036000830152612c7881612c3c565b9050919050565b7f4552433732313a206d696e7420746f20746865207a65726f2061646472657373600082015250565b6000612cb5602083611cf7565b9150612cc082612c7f565b602082019050919050565b60006020820190508181036000830152612ce481612ca8565b9050919050565b7f4552433732313a20746f6b656e20616c7265616479206d696e74656400000000600082015250565b6000612d21601c83611cf7565b9150612d2c82612ceb565b602082019050919050565b60006020820190508181036000830152612d5081612d14565b9050919050565b6000612d6282611da7565b91507fffffffffffffffffffffffffffffffffffffffffffffffffffffffffffffffff821415612d9557612d94612619565b5b600182019050919050565b7f4e487b7100000000000000000000000000000000000000000000000000000000600052601260045260246000fd5b6000612dda82611da7565b9150612de583611da7565b925082612df557612df4612da0565b5b828204905092915050565b6000612e0b82611da7565b9150612e1683611da7565b925082612e2657612e25612da0565b5b828206905092915050565b7f4e487b7100000000000000000000000000000000000000000000000000000000600052603260045260246000fdfea26469706673582212204527cb8b665acaecb3880bd2baab617fda27ee37fbab4fb5986f5b5d3e09398c64736f6c63430008090033",
  "immutableReferences": {},
  "source": "// SPDX-License-Identifier: MIT\npragma solidity ^0.8.2;\n\nimport \"@openzeppelin/contracts/token/ERC721/ERC721.sol\";\nimport \"@openzeppelin/contracts/token/ERC721/extensions/ERC721URIStorage.sol\";\nimport \"@openzeppelin/contracts/access/Ownable.sol\";\n\ncontract PaperToken is ERC721, ERC721URIStorage, Ownable {\n    uint256 private tokenID;\n\n    function newID() public returns(uint256){\n        tokenID = tokenID + 1;\n        return tokenID;\n    }\n\n    constructor() ERC721(\"PaperToken\", \"PTK\") {\n        tokenID =1;\n    }\n\n    function _baseURI() internal pure override returns (string memory) {\n        return \"https://dpublish.org\";\n    }\n\n    function safeMint(address to, uint256 tokenId) public onlyOwner {\n        _safeMint(to, tokenId);\n    }\n    \n    function register(address to, uint256 userId) public onlyOwner {\n        register(to, userId);\n    }\n\n    // The following functions are overrides required by Solidity.\n\n    function _burn(uint256 tokenId) internal override(ERC721, ERC721URIStorage) {\n        super._burn(tokenId);\n    }\n\n    function tokenURI(uint256 tokenId)\n        public\n        view\n        override(ERC721, ERC721URIStorage)\n        returns (string memory)\n    {\n        return super.tokenURI(tokenId);\n    }\n}",
  "sourcePath": "/home/fccoelho/Mega/Cursos/Blockchain_EMAp/Dpublish/project_A2_Levy/contracts/PaperToken.sol",
  "compiler": {
    "name": "solc",
    "version": "0.8.9+commit.e5eed63a.Emscripten.clang"
  },
  "schemaVersion": "3.4.3",
  "updatedAt": "2021-12-15T15:07:23.890Z",
  "networkType": "ethereum",
  "devdoc": {
    "kind": "dev",
    "methods": {
      "approve(address,uint256)": {
        "details": "See {IERC721-approve}."
      },
      "balanceOf(address)": {
        "details": "See {IERC721-balanceOf}."
      },
      "getApproved(uint256)": {
        "details": "See {IERC721-getApproved}."
      },
      "isApprovedForAll(address,address)": {
        "details": "See {IERC721-isApprovedForAll}."
      },
      "name()": {
        "details": "See {IERC721Metadata-name}."
      },
      "owner()": {
        "details": "Returns the address of the current owner."
      },
      "ownerOf(uint256)": {
        "details": "See {IERC721-ownerOf}."
      },
      "renounceOwnership()": {
        "details": "Leaves the contract without owner. It will not be possible to call `onlyOwner` functions anymore. Can only be called by the current owner. NOTE: Renouncing ownership will leave the contract without an owner, thereby removing any functionality that is only available to the owner."
      },
      "safeTransferFrom(address,address,uint256)": {
        "details": "See {IERC721-safeTransferFrom}."
      },
      "safeTransferFrom(address,address,uint256,bytes)": {
        "details": "See {IERC721-safeTransferFrom}."
      },
      "setApprovalForAll(address,bool)": {
        "details": "See {IERC721-setApprovalForAll}."
      },
      "supportsInterface(bytes4)": {
        "details": "See {IERC165-supportsInterface}."
      },
      "symbol()": {
        "details": "See {IERC721Metadata-symbol}."
      },
      "transferFrom(address,address,uint256)": {
        "details": "See {IERC721-transferFrom}."
      },
      "transferOwnership(address)": {
        "details": "Transfers ownership of the contract to a new account (`newOwner`). Can only be called by the current owner."
      }
    },
    "version": 1
  },
  "userdoc": {
    "kind": "user",
    "methods": {},
    "version": 1
  }
}