{
  "contractName": "PaperToken",
  "abi": [
    {
      "inputs": [],
      "stateMutability": "nonpayable",
      "type": "constructor"
    },
    {
      "anonymous": false,
      "inputs": [
        {
          "indexed": true,
          "internalType": "address",
          "name": "owner",
          "type": "address"
        },
        {
          "indexed": true,
          "internalType": "address",
          "name": "approved",
          "type": "address"
        },
        {
          "indexed": true,
          "internalType": "uint256",
          "name": "tokenId",
          "type": "uint256"
        }
      ],
      "name": "Approval",
      "type": "event"
    },
    {
      "anonymous": false,
      "inputs": [
        {
          "indexed": true,
          "internalType": "address",
          "name": "owner",
          "type": "address"
        },
        {
          "indexed": true,
          "internalType": "address",
          "name": "operator",
          "type": "address"
        },
        {
          "indexed": false,
          "internalType": "bool",
          "name": "approved",
          "type": "bool"
        }
      ],
      "name": "ApprovalForAll",
      "type": "event"
    },
    {
      "anonymous": false,
      "inputs": [
        {
          "indexed": true,
          "internalType": "address",
          "name": "previousOwner",
          "type": "address"
        },
        {
          "indexed": true,
          "internalType": "address",
          "name": "newOwner",
          "type": "address"
        }
      ],
      "name": "OwnershipTransferred",
      "type": "event"
    },
    {
      "anonymous": false,
      "inputs": [
        {
          "indexed": true,
          "internalType": "address",
          "name": "from",
          "type": "address"
        },
        {
          "indexed": true,
          "internalType": "address",
          "name": "to",
          "type": "address"
        },
        {
          "indexed": true,
          "internalType": "uint256",
          "name": "tokenId",
          "type": "uint256"
        }
      ],
      "name": "Transfer",
      "type": "event"
    },
    {
      "inputs": [
        {
          "internalType": "address",
          "name": "to",
          "type": "address"
        },
        {
          "internalType": "uint256",
          "name": "tokenId",
          "type": "uint256"
        }
      ],
      "name": "approve",
      "outputs": [],
      "stateMutability": "nonpayable",
      "type": "function"
    },
    {
      "inputs": [
        {
          "internalType": "address",
          "name": "owner",
          "type": "address"
        }
      ],
      "name": "balanceOf",
      "outputs": [
        {
          "internalType": "uint256",
          "name": "",
          "type": "uint256"
        }
      ],
      "stateMutability": "view",
      "type": "function",
      "constant": true
    },
    {
      "inputs": [
        {
          "internalType": "uint256",
          "name": "tokenId",
          "type": "uint256"
        }
      ],
      "name": "getApproved",
      "outputs": [
        {
          "internalType": "address",
          "name": "",
          "type": "address"
        }
      ],
      "stateMutability": "view",
      "type": "function",
      "constant": true
    },
    {
      "inputs": [
        {
          "internalType": "address",
          "name": "owner",
          "type": "address"
        },
        {
          "internalType": "address",
          "name": "operator",
          "type": "address"
        }
      ],
      "name": "isApprovedForAll",
      "outputs": [
        {
          "internalType": "bool",
          "name": "",
          "type": "bool"
        }
      ],
      "stateMutability": "view",
      "type": "function",
      "constant": true
    },
    {
      "inputs": [],
      "name": "name",
      "outputs": [
        {
          "internalType": "string",
          "name": "",
          "type": "string"
        }
      ],
      "stateMutability": "view",
      "type": "function",
      "constant": true
    },
    {
      "inputs": [],
      "name": "owner",
      "outputs": [
        {
          "internalType": "address",
          "name": "",
          "type": "address"
        }
      ],
      "stateMutability": "view",
      "type": "function",
      "constant": true
    },
    {
      "inputs": [
        {
          "internalType": "uint256",
          "name": "tokenId",
          "type": "uint256"
        }
      ],
      "name": "ownerOf",
      "outputs": [
        {
          "internalType": "address",
          "name": "",
          "type": "address"
        }
      ],
      "stateMutability": "view",
      "type": "function",
      "constant": true
    },
    {
      "inputs": [],
      "name": "renounceOwnership",
      "outputs": [],
      "stateMutability": "nonpayable",
      "type": "function"
    },
    {
      "inputs": [
        {
          "internalType": "address",
          "name": "from",
          "type": "address"
        },
        {
          "internalType": "address",
          "name": "to",
          "type": "address"
        },
        {
          "internalType": "uint256",
          "name": "tokenId",
          "type": "uint256"
        }
      ],
      "name": "safeTransferFrom",
      "outputs": [],
      "stateMutability": "nonpayable",
      "type": "function"
    },
    {
      "inputs": [
        {
          "internalType": "address",
          "name": "from",
          "type": "address"
        },
        {
          "internalType": "address",
          "name": "to",
          "type": "address"
        },
        {
          "internalType": "uint256",
          "name": "tokenId",
          "type": "uint256"
        },
        {
          "internalType": "bytes",
          "name": "_data",
          "type": "bytes"
        }
      ],
      "name": "safeTransferFrom",
      "outputs": [],
      "stateMutability": "nonpayable",
      "type": "function"
    },
    {
      "inputs": [
        {
          "internalType": "address",
          "name": "operator",
          "type": "address"
        },
        {
          "internalType": "bool",
          "name": "approved",
          "type": "bool"
        }
      ],
      "name": "setApprovalForAll",
      "outputs": [],
      "stateMutability": "nonpayable",
      "type": "function"
    },
    {
      "inputs": [
        {
          "internalType": "bytes4",
          "name": "interfaceId",
          "type": "bytes4"
        }
      ],
      "name": "supportsInterface",
      "outputs": [
        {
          "internalType": "bool",
          "name": "",
          "type": "bool"
        }
      ],
      "stateMutability": "view",
      "type": "function",
      "constant": true
    },
    {
      "inputs": [],
      "name": "symbol",
      "outputs": [
        {
          "internalType": "string",
          "name": "",
          "type": "string"
        }
      ],
      "stateMutability": "view",
      "type": "function",
      "constant": true
    },
    {
      "inputs": [
        {
          "internalType": "address",
          "name": "from",
          "type": "address"
        },
        {
          "internalType": "address",
          "name": "to",
          "type": "address"
        },
        {
          "internalType": "uint256",
          "name": "tokenId",
          "type": "uint256"
        }
      ],
      "name": "transferFrom",
      "outputs": [],
      "stateMutability": "nonpayable",
      "type": "function"
    },
    {
      "inputs": [
        {
          "internalType": "address",
          "name": "newOwner",
          "type": "address"
        }
      ],
      "name": "transferOwnership",
      "outputs": [],
      "stateMutability": "nonpayable",
      "type": "function"
    },
    {
      "inputs": [],
      "name": "newID",
      "outputs": [
        {
          "internalType": "uint256",
          "name": "",
          "type": "uint256"
        }
      ],
      "stateMutability": "nonpayable",
      "type": "function"
    },
    {
      "inputs": [
        {
          "internalType": "address",
          "name": "to",
          "type": "address"
        },
        {
          "internalType": "uint256",
          "name": "tokenId",
          "type": "uint256"
        }
      ],
      "name": "safeMint",
      "outputs": [],
      "stateMutability": "nonpayable",
      "type": "function"
    },
    {
      "inputs": [
        {
          "internalType": "address",
          "name": "to",
          "type": "address"
        },
        {
          "internalType": "uint256",
          "name": "userId",
          "type": "uint256"
        }
      ],
      "name": "register",
      "outputs": [],
      "stateMutability": "nonpayable",
      "type": "function"
    },
    {
      "inputs": [
        {
          "internalType": "uint256",
          "name": "tokenId",
          "type": "uint256"
        }
      ],
      "name": "tokenURI",
      "outputs": [
        {
          "internalType": "string",
          "name": "",
          "type": "string"
        }
      ],
      "stateMutability": "view",
      "type": "function",
      "constant": true
    }
  ],
  "bytecode": "0x60806040523480156200001157600080fd5b506040518060400160405280600a81526020017f5061706572546f6b656e000000000000000000000000000000000000000000008152506040518060400160405280600381526020017f50544b0000000000000000000000000000000000000000000000000000000000815250816000908051906020019062000096929190620001ae565b508060019080519060200190620000af929190620001ae565b505050620000d2620000c6620000e060201b60201c565b620000e860201b60201c565b6001600881905550620002c3565b600033905090565b6000600760009054906101000a900473ffffffffffffffffffffffffffffffffffffffff16905081600760006101000a81548173ffffffffffffffffffffffffffffffffffffffff021916908373ffffffffffffffffffffffffffffffffffffffff1602179055508173ffffffffffffffffffffffffffffffffffffffff168173ffffffffffffffffffffffffffffffffffffffff167f8be0079c531659141344cd1fd0a4f28419497f9722a3daafe3b4186f6b6457e060405160405180910390a35050565b828054620001bc906200028d565b90600052602060002090601f016020900481019282620001e057600085556200022c565b82601f10620001fb57805160ff19168380011785556200022c565b828001600101855582156200022c579182015b828111156200022b5782518255916020019190600101906200020e565b5b5090506200023b91906200023f565b5090565b5b808211156200025a57600081600090555060010162000240565b5090565b7f4e487b7100000000000000000000000000000000000000000000000000000000600052602260045260246000fd5b60006002820490506001821680620002a657607f821691505b60208210811415620002bd57620002bc6200025e565b5b50919050565b612e9480620002d36000396000f3fe608060405234801561001057600080fd5b50600436106101215760003560e01c8063715018a6116100ad578063a22cb46511610071578063a22cb465146102f4578063b88d4fde14610310578063c87b56dd1461032c578063e985e9c51461035c578063f2fde38b1461038c57610121565b8063715018a6146102745780638da5cb5b1461027e57806395d89b411461029c5780639f7a9f38146102ba578063a1448194146102d857610121565b806323b872dd116100f457806323b872dd146101c057806342842e0e146101dc5780636352211e146101f85780636d705ebb1461022857806370a082311461024457610121565b806301ffc9a71461012657806306fdde0314610156578063081812fc14610174578063095ea7b3146101a4575b600080fd5b610140600480360381019061013b9190611c87565b6103a8565b60405161014d9190611ccf565b60405180910390f35b61015e61048a565b60405161016b9190611d83565b60405180910390f35b61018e60048036038101906101899190611ddb565b61051c565b60405161019b9190611e49565b60405180910390f35b6101be60048036038101906101b99190611e90565b6105a1565b005b6101da60048036038101906101d59190611ed0565b6106b9565b005b6101f660048036038101906101f19190611ed0565b610719565b005b610212600480360381019061020d9190611ddb565b610739565b60405161021f9190611e49565b60405180910390f35b610242600480360381019061023d9190611e90565b6107eb565b005b61025e60048036038101906102599190611f23565b610875565b60405161026b9190611f5f565b60405180910390f35b61027c61092d565b005b6102866109b5565b6040516102939190611e49565b60405180910390f35b6102a46109df565b6040516102b19190611d83565b60405180910390f35b6102c2610a71565b6040516102cf9190611f5f565b60405180910390f35b6102f260048036038101906102ed9190611e90565b610a90565b005b61030e60048036038101906103099190611fa6565b610b1a565b005b61032a6004803603810190610325919061211b565b610c9b565b005b61034660048036038101906103419190611ddb565b610cfd565b6040516103539190611d83565b60405180910390f35b6103766004803603810190610371919061219e565b610d0f565b6040516103839190611ccf565b60405180910390f35b6103a660048036038101906103a19190611f23565b610da3565b005b60007f80ac58cd000000000000000000000000000000000000000000000000000000007bffffffffffffffffffffffffffffffffffffffffffffffffffffffff1916827bffffffffffffffffffffffffffffffffffffffffffffffffffffffff1916148061047357507f5b5e139f000000000000000000000000000000000000000000000000000000007bffffffffffffffffffffffffffffffffffffffffffffffffffffffff1916827bffffffffffffffffffffffffffffffffffffffffffffffffffffffff1916145b80610483575061048282610e9b565b5b9050919050565b6060600080546104999061220d565b80601f01602080910402602001604051908101604052809291908181526020018280546104c59061220d565b80156105125780601f106104e757610100808354040283529160200191610512565b820191906000526020600020905b8154815290600101906020018083116104f557829003601f168201915b5050505050905090565b600061052782610f05565b610566576040517f08c379a000000000000000000000000000000000000000000000000000000000815260040161055d906122b1565b60405180910390fd5b6004600083815260200190815260200160002060009054906101000a900473ffffffffffffffffffffffffffffffffffffffff169050919050565b60006105ac82610739565b90508073ffffffffffffffffffffffffffffffffffffffff168373ffffffffffffffffffffffffffffffffffffffff16141561061d576040517f08c379a000000000000000000000000000000000000000000000000000000000815260040161061490612343565b60405180910390fd5b8073ffffffffffffffffffffffffffffffffffffffff1661063c610f71565b73ffffffffffffffffffffffffffffffffffffffff16148061066b575061066a81610665610f71565b610d0f565b5b6106aa576040517f08c379a00000000000000000000000000000000000000000000000000000000081526004016106a1906123d5565b60405180910390fd5b6106b48383610f79565b505050565b6106ca6106c4610f71565b82611032565b610709576040517f08c379a000000000000000000000000000000000000000000000000000000000815260040161070090612467565b60405180910390fd5b610714838383611110565b505050565b61073483838360405180602001604052806000815250610c9b565b505050565b6000806002600084815260200190815260200160002060009054906101000a900473ffffffffffffffffffffffffffffffffffffffff169050600073ffffffffffffffffffffffffffffffffffffffff168173ffffffffffffffffffffffffffffffffffffffff1614156107e2576040517f08c379a00000000000000000000000000000000000000000000000000000000081526004016107d9906124f9565b60405180910390fd5b80915050919050565b6107f3610f71565b73ffffffffffffffffffffffffffffffffffffffff166108116109b5565b73ffffffffffffffffffffffffffffffffffffffff1614610867576040517f08c379a000000000000000000000000000000000000000000000000000000000815260040161085e90612565565b60405180910390fd5b61087182826107eb565b5050565b60008073ffffffffffffffffffffffffffffffffffffffff168273ffffffffffffffffffffffffffffffffffffffff1614156108e6576040517f08c379a00000000000000000000000000000000000000000000000000000000081526004016108dd906125f7565b60405180910390fd5b600360008373ffffffffffffffffffffffffffffffffffffffff1673ffffffffffffffffffffffffffffffffffffffff168152602001908152602001600020549050919050565b610935610f71565b73ffffffffffffffffffffffffffffffffffffffff166109536109b5565b73ffffffffffffffffffffffffffffffffffffffff16146109a9576040517f08c379a00000000000000000000000000000000000000000000000000000000081526004016109a090612565565b60405180910390fd5b6109b3600061136c565b565b6000600760009054906101000a900473ffffffffffffffffffffffffffffffffffffffff16905090565b6060600180546109ee9061220d565b80601f0160208091040260200160405190810160405280929190818152602001828054610a1a9061220d565b8015610a675780601f10610a3c57610100808354040283529160200191610a67565b820191906000526020600020905b815481529060010190602001808311610a4a57829003601f168201915b5050505050905090565b60006001600854610a829190612646565b600881905550600854905090565b610a98610f71565b73ffffffffffffffffffffffffffffffffffffffff16610ab66109b5565b73ffffffffffffffffffffffffffffffffffffffff1614610b0c576040517f08c379a0000000000000000000000000000000000000000000000000000000008152600401610b0390612565565b60405180910390fd5b610b168282611432565b5050565b610b22610f71565b73ffffffffffffffffffffffffffffffffffffffff168273ffffffffffffffffffffffffffffffffffffffff161415610b90576040517f08c379a0000000000000000000000000000000000000000000000000000000008152600401610b87906126e8565b60405180910390fd5b8060056000610b9d610f71565b73ffffffffffffffffffffffffffffffffffffffff1673ffffffffffffffffffffffffffffffffffffffff16815260200190815260200160002060008473ffffffffffffffffffffffffffffffffffffffff1673ffffffffffffffffffffffffffffffffffffffff16815260200190815260200160002060006101000a81548160ff0219169083151502179055508173ffffffffffffffffffffffffffffffffffffffff16610c4a610f71565b73ffffffffffffffffffffffffffffffffffffffff167f17307eab39ab6107e8899845ad3d59bd9653f200f220920489ca2b5937696c3183604051610c8f9190611ccf565b60405180910390a35050565b610cac610ca6610f71565b83611032565b610ceb576040517f08c379a0000000000000000000000000000000000000000000000000000000008152600401610ce290612467565b60405180910390fd5b610cf784848484611450565b50505050565b6060610d08826114ac565b9050919050565b6000600560008473ffffffffffffffffffffffffffffffffffffffff1673ffffffffffffffffffffffffffffffffffffffff16815260200190815260200160002060008373ffffffffffffffffffffffffffffffffffffffff1673ffffffffffffffffffffffffffffffffffffffff16815260200190815260200160002060009054906101000a900460ff16905092915050565b610dab610f71565b73ffffffffffffffffffffffffffffffffffffffff16610dc96109b5565b73ffffffffffffffffffffffffffffffffffffffff1614610e1f576040517f08c379a0000000000000000000000000000000000000000000000000000000008152600401610e1690612565565b60405180910390fd5b600073ffffffffffffffffffffffffffffffffffffffff168173ffffffffffffffffffffffffffffffffffffffff161415610e8f576040517f08c379a0000000000000000000000000000000000000000000000000000000008152600401610e869061277a565b60405180910390fd5b610e988161136c565b50565b60007f01ffc9a7000000000000000000000000000000000000000000000000000000007bffffffffffffffffffffffffffffffffffffffffffffffffffffffff1916827bffffffffffffffffffffffffffffffffffffffffffffffffffffffff1916149050919050565b60008073ffffffffffffffffffffffffffffffffffffffff166002600084815260200190815260200160002060009054906101000a900473ffffffffffffffffffffffffffffffffffffffff1673ffffffffffffffffffffffffffffffffffffffff1614159050919050565b600033905090565b816004600083815260200190815260200160002060006101000a81548173ffffffffffffffffffffffffffffffffffffffff021916908373ffffffffffffffffffffffffffffffffffffffff160217905550808273ffffffffffffffffffffffffffffffffffffffff16610fec83610739565b73ffffffffffffffffffffffffffffffffffffffff167f8c5be1e5ebec7d5bd14f71427d1e84f3dd0314c0f7b2291e5b200ac8c7c3b92560405160405180910390a45050565b600061103d82610f05565b61107c576040517f08c379a00000000000000000000000000000000000000000000000000000000081526004016110739061280c565b60405180910390fd5b600061108783610739565b90508073ffffffffffffffffffffffffffffffffffffffff168473ffffffffffffffffffffffffffffffffffffffff1614806110f657508373ffffffffffffffffffffffffffffffffffffffff166110de8461051c565b73ffffffffffffffffffffffffffffffffffffffff16145b8061110757506111068185610d0f565b5b91505092915050565b8273ffffffffffffffffffffffffffffffffffffffff1661113082610739565b73ffffffffffffffffffffffffffffffffffffffff1614611186576040517f08c379a000000000000000000000000000000000000000000000000000000000815260040161117d9061289e565b60405180910390fd5b600073ffffffffffffffffffffffffffffffffffffffff168273ffffffffffffffffffffffffffffffffffffffff1614156111f6576040517f08c379a00000000000000000000000000000000000000000000000000000000081526004016111ed90612930565b60405180910390fd5b6112018383836115fe565b61120c600082610f79565b6001600360008573ffffffffffffffffffffffffffffffffffffffff1673ffffffffffffffffffffffffffffffffffffffff168152602001908152602001600020600082825461125c9190612950565b925050819055506001600360008473ffffffffffffffffffffffffffffffffffffffff1673ffffffffffffffffffffffffffffffffffffffff16815260200190815260200160002060008282546112b39190612646565b92505081905550816002600083815260200190815260200160002060006101000a81548173ffffffffffffffffffffffffffffffffffffffff021916908373ffffffffffffffffffffffffffffffffffffffff160217905550808273ffffffffffffffffffffffffffffffffffffffff168473ffffffffffffffffffffffffffffffffffffffff167fddf252ad1be2c89b69c2b068fc378daa952ba7f163c4a11628f55a4df523b3ef60405160405180910390a4505050565b6000600760009054906101000a900473ffffffffffffffffffffffffffffffffffffffff16905081600760006101000a81548173ffffffffffffffffffffffffffffffffffffffff021916908373ffffffffffffffffffffffffffffffffffffffff1602179055508173ffffffffffffffffffffffffffffffffffffffff168173ffffffffffffffffffffffffffffffffffffffff167f8be0079c531659141344cd1fd0a4f28419497f9722a3daafe3b4186f6b6457e060405160405180910390a35050565b61144c828260405180602001604052806000815250611603565b5050565b61145b848484611110565b6114678484848461165e565b6114a6576040517f08c379a000000000000000000000000000000000000000000000000000000000815260040161149d906129f6565b60405180910390fd5b50505050565b60606114b782610f05565b6114f6576040517f08c379a00000000000000000000000000000000000000000000000000000000081526004016114ed90612a88565b60405180910390fd5b60006006600084815260200190815260200160002080546115169061220d565b80601f01602080910402602001604051908101604052809291908181526020018280546115429061220d565b801561158f5780601f106115645761010080835404028352916020019161158f565b820191906000526020600020905b81548152906001019060200180831161157257829003601f168201915b5050505050905060006115a06117f5565b90506000815114156115b65781925050506115f9565b6000825111156115eb5780826040516020016115d3929190612ae4565b604051602081830303815290604052925050506115f9565b6115f484611832565b925050505b919050565b505050565b61160d83836118d9565b61161a600084848461165e565b611659576040517f08c379a0000000000000000000000000000000000000000000000000000000008152600401611650906129f6565b60405180910390fd5b505050565b600061167f8473ffffffffffffffffffffffffffffffffffffffff16611aa7565b156117e8578373ffffffffffffffffffffffffffffffffffffffff1663150b7a026116a8610f71565b8786866040518563ffffffff1660e01b81526004016116ca9493929190612b5d565b602060405180830381600087803b1580156116e457600080fd5b505af192505050801561171557506040513d601f19601f820116820180604052508101906117129190612bbe565b60015b611798573d8060008114611745576040519150601f19603f3d011682016040523d82523d6000602084013e61174a565b606091505b50600081511415611790576040517f08c379a0000000000000000000000000000000000000000000000000000000008152600401611787906129f6565b60405180910390fd5b805181602001fd5b63150b7a0260e01b7bffffffffffffffffffffffffffffffffffffffffffffffffffffffff1916817bffffffffffffffffffffffffffffffffffffffffffffffffffffffff1916149150506117ed565b600190505b949350505050565b60606040518060400160405280601481526020017f68747470733a2f2f647075626c6973682e6f7267000000000000000000000000815250905090565b606061183d82610f05565b61187c576040517f08c379a000000000000000000000000000000000000000000000000000000000815260040161187390612c5d565b60405180910390fd5b60006118866117f5565b905060008151116118a657604051806020016040528060008152506118d1565b806118b084611aba565b6040516020016118c1929190612ae4565b6040516020818303038152906040525b915050919050565b600073ffffffffffffffffffffffffffffffffffffffff168273ffffffffffffffffffffffffffffffffffffffff161415611949576040517f08c379a000000000000000000000000000000000000000000000000000000000815260040161194090612cc9565b60405180910390fd5b61195281610f05565b15611992576040517f08c379a000000000000000000000000000000000000000000000000000000000815260040161198990612d35565b60405180910390fd5b61199e600083836115fe565b6001600360008473ffffffffffffffffffffffffffffffffffffffff1673ffffffffffffffffffffffffffffffffffffffff16815260200190815260200160002060008282546119ee9190612646565b92505081905550816002600083815260200190815260200160002060006101000a81548173ffffffffffffffffffffffffffffffffffffffff021916908373ffffffffffffffffffffffffffffffffffffffff160217905550808273ffffffffffffffffffffffffffffffffffffffff16600073ffffffffffffffffffffffffffffffffffffffff167fddf252ad1be2c89b69c2b068fc378daa952ba7f163c4a11628f55a4df523b3ef60405160405180910390a45050565b600080823b905060008111915050919050565b60606000821415611b02576040518060400160405280600181526020017f30000000000000000000000000000000000000000000000000000000000000008152509050611c16565b600082905060005b60008214611b34578080611b1d90612d55565b915050600a82611b2d9190612dcd565b9150611b0a565b60008167ffffffffffffffff811115611b5057611b4f611ff0565b5b6040519080825280601f01601f191660200182016040528015611b825781602001600182028036833780820191505090505b5090505b60008514611c0f57600182611b9b9190612950565b9150600a85611baa9190612dfe565b6030611bb69190612646565b60f81b818381518110611bcc57611bcb612e2f565b5b60200101907effffffffffffffffffffffffffffffffffffffffffffffffffffffffffffff1916908160001a905350600a85611c089190612dcd565b9450611b86565b8093505050505b919050565b6000604051905090565b600080fd5b600080fd5b60007fffffffff0000000000000000000000000000000000000000000000000000000082169050919050565b611c6481611c2f565b8114611c6f57600080fd5b50565b600081359050611c8181611c5b565b92915050565b600060208284031215611c9d57611c9c611c25565b5b6000611cab84828501611c72565b91505092915050565b60008115159050919050565b611cc981611cb4565b82525050565b6000602082019050611ce46000830184611cc0565b92915050565b600081519050919050565b600082825260208201905092915050565b60005b83811015611d24578082015181840152602081019050611d09565b83811115611d33576000848401525b50505050565b6000601f19601f8301169050919050565b6000611d5582611cea565b611d5f8185611cf5565b9350611d6f818560208601611d06565b611d7881611d39565b840191505092915050565b60006020820190508181036000830152611d9d8184611d4a565b905092915050565b6000819050919050565b611db881611da5565b8114611dc357600080fd5b50565b600081359050611dd581611daf565b92915050565b600060208284031215611df157611df0611c25565b5b6000611dff84828501611dc6565b91505092915050565b600073ffffffffffffffffffffffffffffffffffffffff82169050919050565b6000611e3382611e08565b9050919050565b611e4381611e28565b82525050565b6000602082019050611e5e6000830184611e3a565b92915050565b611e6d81611e28565b8114611e7857600080fd5b50565b600081359050611e8a81611e64565b92915050565b60008060408385031215611ea757611ea6611c25565b5b6000611eb585828601611e7b565b9250506020611ec685828601611dc6565b9150509250929050565b600080600060608486031215611ee957611ee8611c25565b5b6000611ef786828701611e7b565b9350506020611f0886828701611e7b565b9250506040611f1986828701611dc6565b9150509250925092565b600060208284031215611f3957611f38611c25565b5b6000611f4784828501611e7b565b91505092915050565b611f5981611da5565b82525050565b6000602082019050611f746000830184611f50565b92915050565b611f8381611cb4565b8114611f8e57600080fd5b50565b600081359050611fa081611f7a565b92915050565b60008060408385031215611fbd57611fbc611c25565b5b6000611fcb85828601611e7b565b9250506020611fdc85828601611f91565b9150509250929050565b600080fd5b600080fd5b7f4e487b7100000000000000000000000000000000000000000000000000000000600052604160045260246000fd5b61202882611d39565b810181811067ffffffffffffffff8211171561204757612046611ff0565b5b80604052505050565b600061205a611c1b565b9050612066828261201f565b919050565b600067ffffffffffffffff82111561208657612085611ff0565b5b61208f82611d39565b9050602081019050919050565b82818337600083830152505050565b60006120be6120b98461206b565b612050565b9050828152602081018484840111156120da576120d9611feb565b5b6120e584828561209c565b509392505050565b600082601f83011261210257612101611fe6565b5b81356121128482602086016120ab565b91505092915050565b6000806000806080858703121561213557612134611c25565b5b600061214387828801611e7b565b945050602061215487828801611e7b565b935050604061216587828801611dc6565b925050606085013567ffffffffffffffff81111561218657612185611c2a565b5b612192878288016120ed565b91505092959194509250565b600080604083850312156121b5576121b4611c25565b5b60006121c385828601611e7b565b92505060206121d485828601611e7b565b9150509250929050565b7f4e487b7100000000000000000000000000000000000000000000000000000000600052602260045260246000fd5b6000600282049050600182168061222557607f821691505b60208210811415612239576122386121de565b5b50919050565b7f4552433732313a20617070726f76656420717565727920666f72206e6f6e657860008201527f697374656e7420746f6b656e0000000000000000000000000000000000000000602082015250565b600061229b602c83611cf5565b91506122a68261223f565b604082019050919050565b600060208201905081810360008301526122ca8161228e565b9050919050565b7f4552433732313a20617070726f76616c20746f2063757272656e74206f776e6560008201527f7200000000000000000000000000000000000000000000000000000000000000602082015250565b600061232d602183611cf5565b9150612338826122d1565b604082019050919050565b6000602082019050818103600083015261235c81612320565b9050919050565b7f4552433732313a20617070726f76652063616c6c6572206973206e6f74206f7760008201527f6e6572206e6f7220617070726f76656420666f7220616c6c0000000000000000602082015250565b60006123bf603883611cf5565b91506123ca82612363565b604082019050919050565b600060208201905081810360008301526123ee816123b2565b9050919050565b7f4552433732313a207472616e736665722063616c6c6572206973206e6f74206f60008201527f776e6572206e6f7220617070726f766564000000000000000000000000000000602082015250565b6000612451603183611cf5565b915061245c826123f5565b604082019050919050565b6000602082019050818103600083015261248081612444565b9050919050565b7f4552433732313a206f776e657220717565727920666f72206e6f6e657869737460008201527f656e7420746f6b656e0000000000000000000000000000000000000000000000602082015250565b60006124e3602983611cf5565b91506124ee82612487565b604082019050919050565b60006020820190508181036000830152612512816124d6565b9050919050565b7f4f776e61626c653a2063616c6c6572206973206e6f7420746865206f776e6572600082015250565b600061254f602083611cf5565b915061255a82612519565b602082019050919050565b6000602082019050818103600083015261257e81612542565b9050919050565b7f4552433732313a2062616c616e636520717565727920666f7220746865207a6560008201527f726f206164647265737300000000000000000000000000000000000000000000602082015250565b60006125e1602a83611cf5565b91506125ec82612585565b604082019050919050565b60006020820190508181036000830152612610816125d4565b9050919050565b7f4e487b7100000000000000000000000000000000000000000000000000000000600052601160045260246000fd5b600061265182611da5565b915061265c83611da5565b9250827fffffffffffffffffffffffffffffffffffffffffffffffffffffffffffffffff0382111561269157612690612617565b5b828201905092915050565b7f4552433732313a20617070726f766520746f2063616c6c657200000000000000600082015250565b60006126d2601983611cf5565b91506126dd8261269c565b602082019050919050565b60006020820190508181036000830152612701816126c5565b9050919050565b7f4f776e61626c653a206e6577206f776e657220697320746865207a65726f206160008201527f6464726573730000000000000000000000000000000000000000000000000000602082015250565b6000612764602683611cf5565b915061276f82612708565b604082019050919050565b6000602082019050818103600083015261279381612757565b9050919050565b7f4552433732313a206f70657261746f7220717565727920666f72206e6f6e657860008201527f697374656e7420746f6b656e0000000000000000000000000000000000000000602082015250565b60006127f6602c83611cf5565b91506128018261279a565b604082019050919050565b60006020820190508181036000830152612825816127e9565b9050919050565b7f4552433732313a207472616e73666572206f6620746f6b656e2074686174206960008201527f73206e6f74206f776e0000000000000000000000000000000000000000000000602082015250565b6000612888602983611cf5565b91506128938261282c565b604082019050919050565b600060208201905081810360008301526128b78161287b565b9050919050565b7f4552433732313a207472616e7366657220746f20746865207a65726f2061646460008201527f7265737300000000000000000000000000000000000000000000000000000000602082015250565b600061291a602483611cf5565b9150612925826128be565b604082019050919050565b600060208201905081810360008301526129498161290d565b9050919050565b600061295b82611da5565b915061296683611da5565b92508282101561297957612978612617565b5b828203905092915050565b7f4552433732313a207472616e7366657220746f206e6f6e20455243373231526560008201527f63656976657220696d706c656d656e7465720000000000000000000000000000602082015250565b60006129e0603283611cf5565b91506129eb82612984565b604082019050919050565b60006020820190508181036000830152612a0f816129d3565b9050919050565b7f45524337323155524953746f726167653a2055524920717565727920666f722060008201527f6e6f6e6578697374656e7420746f6b656e000000000000000000000000000000602082015250565b6000612a72603183611cf5565b9150612a7d82612a16565b604082019050919050565b60006020820190508181036000830152612aa181612a65565b9050919050565b600081905092915050565b6000612abe82611cea565b612ac88185612aa8565b9350612ad8818560208601611d06565b80840191505092915050565b6000612af08285612ab3565b9150612afc8284612ab3565b91508190509392505050565b600081519050919050565b600082825260208201905092915050565b6000612b2f82612b08565b612b398185612b13565b9350612b49818560208601611d06565b612b5281611d39565b840191505092915050565b6000608082019050612b726000830187611e3a565b612b7f6020830186611e3a565b612b8c6040830185611f50565b8181036060830152612b9e8184612b24565b905095945050505050565b600081519050612bb881611c5b565b92915050565b600060208284031215612bd457612bd3611c25565b5b6000612be284828501612ba9565b91505092915050565b7f4552433732314d657461646174613a2055524920717565727920666f72206e6f60008201527f6e6578697374656e7420746f6b656e0000000000000000000000000000000000602082015250565b6000612c47602f83611cf5565b9150612c5282612beb565b604082019050919050565b60006020820190508181036000830152612c7681612c3a565b9050919050565b7f4552433732313a206d696e7420746f20746865207a65726f2061646472657373600082015250565b6000612cb3602083611cf5565b9150612cbe82612c7d565b602082019050919050565b60006020820190508181036000830152612ce281612ca6565b9050919050565b7f4552433732313a20746f6b656e20616c7265616479206d696e74656400000000600082015250565b6000612d1f601c83611cf5565b9150612d2a82612ce9565b602082019050919050565b60006020820190508181036000830152612d4e81612d12565b9050919050565b6000612d6082611da5565b91507fffffffffffffffffffffffffffffffffffffffffffffffffffffffffffffffff821415612d9357612d92612617565b5b600182019050919050565b7f4e487b7100000000000000000000000000000000000000000000000000000000600052601260045260246000fd5b6000612dd882611da5565b9150612de383611da5565b925082612df357612df2612d9e565b5b828204905092915050565b6000612e0982611da5565b9150612e1483611da5565b925082612e2457612e23612d9e565b5b828206905092915050565b7f4e487b7100000000000000000000000000000000000000000000000000000000600052603260045260246000fdfea2646970667358221220d49b19e049725fe639e365edef54164ad05922c2d424a9b35a14cef8a893b33d64736f6c63430008090033",
  "immutableReferences": {},
  "source": "// SPDX-License-Identifier: MIT\r\npragma solidity ^0.8.2;\r\n\r\nimport \"@openzeppelin/contracts/token/ERC721/ERC721.sol\";\r\nimport \"@openzeppelin/contracts/token/ERC721/extensions/ERC721URIStorage.sol\";\r\nimport \"@openzeppelin/contracts/access/Ownable.sol\";\r\n\r\ncontract PaperToken is ERC721, ERC721URIStorage, Ownable {\r\n    uint256 private tokenID;\r\n\r\n    function newID() public returns(uint256){\r\n        tokenID = tokenID + 1;\r\n        return tokenID;\r\n    }\r\n\r\n    constructor() ERC721(\"PaperToken\", \"PTK\") {\r\n        tokenID =1;\r\n    }\r\n\r\n    function _baseURI() internal pure override returns (string memory) {\r\n        return \"https://dpublish.org\";\r\n    }\r\n\r\n    function safeMint(address to, uint256 tokenId) public onlyOwner {\r\n        _safeMint(to, tokenId);\r\n    }\r\n    \r\n    function register(address to, uint256 userId) public onlyOwner {\r\n        register(to, userId);\r\n    }\r\n\r\n    // The following functions are overrides required by Solidity.\r\n\r\n    function _burn(uint256 tokenId) internal override(ERC721, ERC721URIStorage) {\r\n        super._burn(tokenId);\r\n    }\r\n\r\n    function tokenURI(uint256 tokenId)\r\n        public\r\n        view\r\n        override(ERC721, ERC721URIStorage)\r\n        returns (string memory)\r\n    {\r\n        return super.tokenURI(tokenId);\r\n    }\r\n}",
  "sourcePath": "C:\\Users\\ilana\\Documents\\RAPHAEL\\FGV\\2021\\2021.2\\Git\\PortableGit\\Dpublish\\project_A2_Levy\\contracts\\PaperToken.sol",
  "compiler": {
    "name": "solc",
    "version": "0.8.9+commit.e5eed63a.Emscripten.clang"
  },
  "schemaVersion": "3.4.3",
  "updatedAt": "2021-12-11T15:15:09.606Z",
  "networkType": "ethereum",
  "devdoc": {
    "kind": "dev",
    "methods": {
      "approve(address,uint256)": {
        "details": "See {IERC721-approve}."
      },
      "balanceOf(address)": {
        "details": "See {IERC721-balanceOf}."
      },
      "getApproved(uint256)": {
        "details": "See {IERC721-getApproved}."
      },
      "isApprovedForAll(address,address)": {
        "details": "See {IERC721-isApprovedForAll}."
      },
      "name()": {
        "details": "See {IERC721Metadata-name}."
      },
      "owner()": {
        "details": "Returns the address of the current owner."
      },
      "ownerOf(uint256)": {
        "details": "See {IERC721-ownerOf}."
      },
      "renounceOwnership()": {
        "details": "Leaves the contract without owner. It will not be possible to call `onlyOwner` functions anymore. Can only be called by the current owner. NOTE: Renouncing ownership will leave the contract without an owner, thereby removing any functionality that is only available to the owner."
      },
      "safeTransferFrom(address,address,uint256)": {
        "details": "See {IERC721-safeTransferFrom}."
      },
      "safeTransferFrom(address,address,uint256,bytes)": {
        "details": "See {IERC721-safeTransferFrom}."
      },
      "setApprovalForAll(address,bool)": {
        "details": "See {IERC721-setApprovalForAll}."
      },
      "supportsInterface(bytes4)": {
        "details": "See {IERC165-supportsInterface}."
      },
      "symbol()": {
        "details": "See {IERC721Metadata-symbol}."
      },
      "transferFrom(address,address,uint256)": {
        "details": "See {IERC721-transferFrom}."
      },
      "transferOwnership(address)": {
        "details": "Transfers ownership of the contract to a new account (`newOwner`). Can only be called by the current owner."
      }
    },
    "version": 1
  },
  "userdoc": {
    "kind": "user",
    "methods": {},
    "version": 1
  }
}