{
  "contractName": "Token",
  "abi": [
    {
      "inputs": [],
      "stateMutability": "nonpayable",
      "type": "constructor"
    },
    {
      "anonymous": false,
      "inputs": [
        {
          "indexed": true,
          "internalType": "address",
          "name": "account",
          "type": "address"
        },
        {
          "indexed": true,
          "internalType": "address",
          "name": "operator",
          "type": "address"
        },
        {
          "indexed": false,
          "internalType": "bool",
          "name": "approved",
          "type": "bool"
        }
      ],
      "name": "ApprovalForAll",
      "type": "event"
    },
    {
      "anonymous": false,
      "inputs": [
        {
          "indexed": true,
          "internalType": "address",
          "name": "operator",
          "type": "address"
        },
        {
          "indexed": true,
          "internalType": "address",
          "name": "from",
          "type": "address"
        },
        {
          "indexed": true,
          "internalType": "address",
          "name": "to",
          "type": "address"
        },
        {
          "indexed": false,
          "internalType": "uint256[]",
          "name": "ids",
          "type": "uint256[]"
        },
        {
          "indexed": false,
          "internalType": "uint256[]",
          "name": "values",
          "type": "uint256[]"
        }
      ],
      "name": "TransferBatch",
      "type": "event"
    },
    {
      "anonymous": false,
      "inputs": [
        {
          "indexed": true,
          "internalType": "address",
          "name": "operator",
          "type": "address"
        },
        {
          "indexed": true,
          "internalType": "address",
          "name": "from",
          "type": "address"
        },
        {
          "indexed": true,
          "internalType": "address",
          "name": "to",
          "type": "address"
        },
        {
          "indexed": false,
          "internalType": "uint256",
          "name": "id",
          "type": "uint256"
        },
        {
          "indexed": false,
          "internalType": "uint256",
          "name": "value",
          "type": "uint256"
        }
      ],
      "name": "TransferSingle",
      "type": "event"
    },
    {
      "anonymous": false,
      "inputs": [
        {
          "indexed": false,
          "internalType": "string",
          "name": "value",
          "type": "string"
        },
        {
          "indexed": true,
          "internalType": "uint256",
          "name": "id",
          "type": "uint256"
        }
      ],
      "name": "URI",
      "type": "event"
    },
    {
      "inputs": [],
      "name": "DPub",
      "outputs": [
        {
          "internalType": "uint256",
          "name": "",
          "type": "uint256"
        }
      ],
      "stateMutability": "view",
      "type": "function"
    },
    {
      "inputs": [],
      "name": "Paper",
      "outputs": [
        {
          "internalType": "uint256",
          "name": "",
          "type": "uint256"
        }
      ],
      "stateMutability": "view",
      "type": "function"
    },
    {
      "inputs": [],
      "name": "Review",
      "outputs": [
        {
          "internalType": "uint256",
          "name": "",
          "type": "uint256"
        }
      ],
      "stateMutability": "view",
      "type": "function"
    },
    {
      "inputs": [
        {
          "internalType": "address",
          "name": "account",
          "type": "address"
        },
        {
          "internalType": "uint256",
          "name": "id",
          "type": "uint256"
        }
      ],
      "name": "balanceOf",
      "outputs": [
        {
          "internalType": "uint256",
          "name": "",
          "type": "uint256"
        }
      ],
      "stateMutability": "view",
      "type": "function"
    },
    {
      "inputs": [
        {
          "internalType": "address[]",
          "name": "accounts",
          "type": "address[]"
        },
        {
          "internalType": "uint256[]",
          "name": "ids",
          "type": "uint256[]"
        }
      ],
      "name": "balanceOfBatch",
      "outputs": [
        {
          "internalType": "uint256[]",
          "name": "",
          "type": "uint256[]"
        }
      ],
      "stateMutability": "view",
      "type": "function"
    },
    {
      "inputs": [
        {
          "internalType": "address",
          "name": "account",
          "type": "address"
        },
        {
          "internalType": "address",
          "name": "operator",
          "type": "address"
        }
      ],
      "name": "isApprovedForAll",
      "outputs": [
        {
          "internalType": "bool",
          "name": "",
          "type": "bool"
        }
      ],
      "stateMutability": "view",
      "type": "function"
    },
    {
      "inputs": [
        {
          "internalType": "address",
          "name": "from",
          "type": "address"
        },
        {
          "internalType": "address",
          "name": "to",
          "type": "address"
        },
        {
          "internalType": "uint256[]",
          "name": "ids",
          "type": "uint256[]"
        },
        {
          "internalType": "uint256[]",
          "name": "amounts",
          "type": "uint256[]"
        },
        {
          "internalType": "bytes",
          "name": "data",
          "type": "bytes"
        }
      ],
      "name": "safeBatchTransferFrom",
      "outputs": [],
      "stateMutability": "nonpayable",
      "type": "function"
    },
    {
      "inputs": [
        {
          "internalType": "address",
          "name": "from",
          "type": "address"
        },
        {
          "internalType": "address",
          "name": "to",
          "type": "address"
        },
        {
          "internalType": "uint256",
          "name": "id",
          "type": "uint256"
        },
        {
          "internalType": "uint256",
          "name": "amount",
          "type": "uint256"
        },
        {
          "internalType": "bytes",
          "name": "data",
          "type": "bytes"
        }
      ],
      "name": "safeTransferFrom",
      "outputs": [],
      "stateMutability": "nonpayable",
      "type": "function"
    },
    {
      "inputs": [
        {
          "internalType": "address",
          "name": "operator",
          "type": "address"
        },
        {
          "internalType": "bool",
          "name": "approved",
          "type": "bool"
        }
      ],
      "name": "setApprovalForAll",
      "outputs": [],
      "stateMutability": "nonpayable",
      "type": "function"
    },
    {
      "inputs": [
        {
          "internalType": "bytes4",
          "name": "interfaceId",
          "type": "bytes4"
        }
      ],
      "name": "supportsInterface",
      "outputs": [
        {
          "internalType": "bool",
          "name": "",
          "type": "bool"
        }
      ],
      "stateMutability": "view",
      "type": "function"
    },
    {
      "inputs": [
        {
          "internalType": "uint256",
          "name": "",
          "type": "uint256"
        }
      ],
      "name": "uri",
      "outputs": [
        {
          "internalType": "string",
          "name": "",
          "type": "string"
        }
      ],
      "stateMutability": "view",
      "type": "function"
    }
  ],
  "bytecode": "0x60806040523480156200001157600080fd5b50604051806060016040528060288152602001620032bc602891396200003d816200007060201b60201c565b506200006a336000670de0b6b3a7640000604051806020016040528060008152506200008c60201b60201c565b62000c84565b806002908051906020019062000088929190620004ff565b5050565b600073ffffffffffffffffffffffffffffffffffffffff168473ffffffffffffffffffffffffffffffffffffffff161415620000ff576040517f08c379a0000000000000000000000000000000000000000000000000000000008152600401620000f69062000636565b60405180910390fd5b6000620001116200025160201b60201c565b90506200014a816000876200012c886200025960201b60201c565b6200013d886200025960201b60201c565b87620002da60201b60201c565b8260008086815260200190815260200160002060008773ffffffffffffffffffffffffffffffffffffffff1673ffffffffffffffffffffffffffffffffffffffff1681526020019081526020016000206000828254620001ab919062000691565b925050819055508473ffffffffffffffffffffffffffffffffffffffff16600073ffffffffffffffffffffffffffffffffffffffff168273ffffffffffffffffffffffffffffffffffffffff167fc3d58168c5ae7397731d063d5bbf3d657854427343f4c083240f7aacaa2d0f6287876040516200022b929190620006ff565b60405180910390a46200024a81600087878787620002e260201b60201c565b5050505050565b600033905090565b60606000600167ffffffffffffffff8111156200027b576200027a6200072c565b5b604051908082528060200260200182016040528015620002aa5781602001602082028036833780820191505090505b5090508281600081518110620002c557620002c46200075b565b5b60200260200101818152505080915050919050565b505050505050565b6200030e8473ffffffffffffffffffffffffffffffffffffffff16620004ec60201b620009091760201c565b15620004e4578373ffffffffffffffffffffffffffffffffffffffff1663f23a6e6187878686866040518663ffffffff1660e01b81526004016200035795949392919062000873565b602060405180830381600087803b1580156200037257600080fd5b505af1925050508015620003a657506040513d601f19601f82011682018060405250810190620003a3919062000943565b60015b6200045857620003b562000982565b806308c379a01415620004195750620003cd620009dd565b80620003da57506200041b565b806040517f08c379a000000000000000000000000000000000000000000000000000000000815260040162000410919062000acb565b60405180910390fd5b505b6040517f08c379a00000000000000000000000000000000000000000000000000000000081526004016200044f9062000b65565b60405180910390fd5b63f23a6e6160e01b7bffffffffffffffffffffffffffffffffffffffffffffffffffffffff1916817bffffffffffffffffffffffffffffffffffffffffffffffffffffffff191614620004e2576040517f08c379a0000000000000000000000000000000000000000000000000000000008152600401620004d99062000bfd565b60405180910390fd5b505b505050505050565b600080823b905060008111915050919050565b8280546200050d9062000c4e565b90600052602060002090601f0160209004810192826200053157600085556200057d565b82601f106200054c57805160ff19168380011785556200057d565b828001600101855582156200057d579182015b828111156200057c5782518255916020019190600101906200055f565b5b5090506200058c919062000590565b5090565b5b80821115620005ab57600081600090555060010162000591565b5090565b600082825260208201905092915050565b7f455243313135353a206d696e7420746f20746865207a65726f2061646472657360008201527f7300000000000000000000000000000000000000000000000000000000000000602082015250565b60006200061e602183620005af565b91506200062b82620005c0565b604082019050919050565b6000602082019050818103600083015262000651816200060f565b9050919050565b6000819050919050565b7f4e487b7100000000000000000000000000000000000000000000000000000000600052601160045260246000fd5b60006200069e8262000658565b9150620006ab8362000658565b9250827fffffffffffffffffffffffffffffffffffffffffffffffffffffffffffffffff03821115620006e357620006e262000662565b5b828201905092915050565b620006f98162000658565b82525050565b6000604082019050620007166000830185620006ee565b620007256020830184620006ee565b9392505050565b7f4e487b7100000000000000000000000000000000000000000000000000000000600052604160045260246000fd5b7f4e487b7100000000000000000000000000000000000000000000000000000000600052603260045260246000fd5b600073ffffffffffffffffffffffffffffffffffffffff82169050919050565b6000620007b7826200078a565b9050919050565b620007c981620007aa565b82525050565b600081519050919050565b600082825260208201905092915050565b60005b838110156200080b578082015181840152602081019050620007ee565b838111156200081b576000848401525b50505050565b6000601f19601f8301169050919050565b60006200083f82620007cf565b6200084b8185620007da565b93506200085d818560208601620007eb565b620008688162000821565b840191505092915050565b600060a0820190506200088a6000830188620007be565b620008996020830187620007be565b620008a86040830186620006ee565b620008b76060830185620006ee565b8181036080830152620008cb818462000832565b90509695505050505050565b6000604051905090565b600080fd5b60007fffffffff0000000000000000000000000000000000000000000000000000000082169050919050565b6200091d81620008e6565b81146200092957600080fd5b50565b6000815190506200093d8162000912565b92915050565b6000602082840312156200095c576200095b620008e1565b5b60006200096c848285016200092c565b91505092915050565b60008160e01c9050919050565b600060033d1115620009a45760046000803e620009a160005162000975565b90505b90565b620009b28262000821565b810181811067ffffffffffffffff82111715620009d457620009d36200072c565b5b80604052505050565b600060443d1015620009ef5762000a7c565b620009f9620008d7565b60043d036004823e80513d602482011167ffffffffffffffff8211171562000a2357505062000a7c565b808201805167ffffffffffffffff81111562000a43575050505062000a7c565b80602083010160043d03850181111562000a6257505050505062000a7c565b62000a7382602001850186620009a7565b82955050505050505b90565b600081519050919050565b600062000a978262000a7f565b62000aa38185620005af565b935062000ab5818560208601620007eb565b62000ac08162000821565b840191505092915050565b6000602082019050818103600083015262000ae7818462000a8a565b905092915050565b7f455243313135353a207472616e7366657220746f206e6f6e204552433131353560008201527f526563656976657220696d706c656d656e746572000000000000000000000000602082015250565b600062000b4d603483620005af565b915062000b5a8262000aef565b604082019050919050565b6000602082019050818103600083015262000b808162000b3e565b9050919050565b7f455243313135353a204552433131353552656365697665722072656a6563746560008201527f6420746f6b656e73000000000000000000000000000000000000000000000000602082015250565b600062000be5602883620005af565b915062000bf28262000b87565b604082019050919050565b6000602082019050818103600083015262000c188162000bd6565b9050919050565b7f4e487b7100000000000000000000000000000000000000000000000000000000600052602260045260246000fd5b6000600282049050600182168062000c6757607f821691505b6020821081141562000c7e5762000c7d62000c1f565b5b50919050565b6126288062000c946000396000f3fe608060405234801561001057600080fd5b50600436106100a85760003560e01c806394b4c4dc1161007157806394b4c4dc14610189578063a22cb465146101a7578063af769eff146101c3578063c751da8f146101e1578063e985e9c5146101ff578063f242432a1461022f576100a8565b8062fdd58e146100ad57806301ffc9a7146100dd5780630e89341c1461010d5780632eb2c2d61461013d5780634e1273f414610159575b600080fd5b6100c760048036038101906100c2919061141c565b61024b565b6040516100d4919061146b565b60405180910390f35b6100f760048036038101906100f291906114de565b610314565b6040516101049190611526565b60405180910390f35b61012760048036038101906101229190611541565b6103f6565b6040516101349190611607565b60405180910390f35b61015760048036038101906101529190611826565b61048a565b005b610173600480360381019061016e91906119b8565b61052b565b6040516101809190611aee565b60405180910390f35b610191610644565b60405161019e919061146b565b60405180910390f35b6101c160048036038101906101bc9190611b3c565b610649565b005b6101cb6107ca565b6040516101d8919061146b565b60405180910390f35b6101e96107cf565b6040516101f6919061146b565b60405180910390f35b61021960048036038101906102149190611b7c565b6107d4565b6040516102269190611526565b60405180910390f35b61024960048036038101906102449190611bbc565b610868565b005b60008073ffffffffffffffffffffffffffffffffffffffff168373ffffffffffffffffffffffffffffffffffffffff1614156102bc576040517f08c379a00000000000000000000000000000000000000000000000000000000081526004016102b390611cc5565b60405180910390fd5b60008083815260200190815260200160002060008473ffffffffffffffffffffffffffffffffffffffff1673ffffffffffffffffffffffffffffffffffffffff16815260200190815260200160002054905092915050565b60007fd9b67a26000000000000000000000000000000000000000000000000000000007bffffffffffffffffffffffffffffffffffffffffffffffffffffffff1916827bffffffffffffffffffffffffffffffffffffffffffffffffffffffff191614806103df57507f0e89341c000000000000000000000000000000000000000000000000000000007bffffffffffffffffffffffffffffffffffffffffffffffffffffffff1916827bffffffffffffffffffffffffffffffffffffffffffffffffffffffff1916145b806103ef57506103ee8261091c565b5b9050919050565b60606002805461040590611d14565b80601f016020809104026020016040519081016040528092919081815260200182805461043190611d14565b801561047e5780601f106104535761010080835404028352916020019161047e565b820191906000526020600020905b81548152906001019060200180831161046157829003601f168201915b50505050509050919050565b610492610986565b73ffffffffffffffffffffffffffffffffffffffff168573ffffffffffffffffffffffffffffffffffffffff1614806104d857506104d7856104d2610986565b6107d4565b5b610517576040517f08c379a000000000000000000000000000000000000000000000000000000000815260040161050e90611db8565b60405180910390fd5b610524858585858561098e565b5050505050565b60608151835114610571576040517f08c379a000000000000000000000000000000000000000000000000000000000815260040161056890611e4a565b60405180910390fd5b6000835167ffffffffffffffff81111561058e5761058d61162e565b5b6040519080825280602002602001820160405280156105bc5781602001602082028036833780820191505090505b50905060005b8451811015610639576106098582815181106105e1576105e0611e6a565b5b60200260200101518583815181106105fc576105fb611e6a565b5b602002602001015161024b565b82828151811061061c5761061b611e6a565b5b6020026020010181815250508061063290611ec8565b90506105c2565b508091505092915050565b600081565b8173ffffffffffffffffffffffffffffffffffffffff16610668610986565b73ffffffffffffffffffffffffffffffffffffffff1614156106bf576040517f08c379a00000000000000000000000000000000000000000000000000000000081526004016106b690611f83565b60405180910390fd5b80600160006106cc610986565b73ffffffffffffffffffffffffffffffffffffffff1673ffffffffffffffffffffffffffffffffffffffff16815260200190815260200160002060008473ffffffffffffffffffffffffffffffffffffffff1673ffffffffffffffffffffffffffffffffffffffff16815260200190815260200160002060006101000a81548160ff0219169083151502179055508173ffffffffffffffffffffffffffffffffffffffff16610779610986565b73ffffffffffffffffffffffffffffffffffffffff167f17307eab39ab6107e8899845ad3d59bd9653f200f220920489ca2b5937696c31836040516107be9190611526565b60405180910390a35050565b600281565b600181565b6000600160008473ffffffffffffffffffffffffffffffffffffffff1673ffffffffffffffffffffffffffffffffffffffff16815260200190815260200160002060008373ffffffffffffffffffffffffffffffffffffffff1673ffffffffffffffffffffffffffffffffffffffff16815260200190815260200160002060009054906101000a900460ff16905092915050565b610870610986565b73ffffffffffffffffffffffffffffffffffffffff168573ffffffffffffffffffffffffffffffffffffffff1614806108b657506108b5856108b0610986565b6107d4565b5b6108f5576040517f08c379a00000000000000000000000000000000000000000000000000000000081526004016108ec90612015565b60405180910390fd5b6109028585858585610ca2565b5050505050565b600080823b905060008111915050919050565b60007f01ffc9a7000000000000000000000000000000000000000000000000000000007bffffffffffffffffffffffffffffffffffffffffffffffffffffffff1916827bffffffffffffffffffffffffffffffffffffffffffffffffffffffff1916149050919050565b600033905090565b81518351146109d2576040517f08c379a00000000000000000000000000000000000000000000000000000000081526004016109c9906120a7565b60405180910390fd5b600073ffffffffffffffffffffffffffffffffffffffff168473ffffffffffffffffffffffffffffffffffffffff161415610a42576040517f08c379a0000000000000000000000000000000000000000000000000000000008152600401610a3990612139565b60405180910390fd5b6000610a4c610986565b9050610a5c818787878787610f24565b60005b8451811015610c0d576000858281518110610a7d57610a7c611e6a565b5b602002602001015190506000858381518110610a9c57610a9b611e6a565b5b60200260200101519050600080600084815260200190815260200160002060008b73ffffffffffffffffffffffffffffffffffffffff1673ffffffffffffffffffffffffffffffffffffffff16815260200190815260200160002054905081811015610b3d576040517f08c379a0000000000000000000000000000000000000000000000000000000008152600401610b34906121cb565b60405180910390fd5b81810360008085815260200190815260200160002060008c73ffffffffffffffffffffffffffffffffffffffff1673ffffffffffffffffffffffffffffffffffffffff168152602001908152602001600020819055508160008085815260200190815260200160002060008b73ffffffffffffffffffffffffffffffffffffffff1673ffffffffffffffffffffffffffffffffffffffff1681526020019081526020016000206000828254610bf291906121eb565b9250508190555050505080610c0690611ec8565b9050610a5f565b508473ffffffffffffffffffffffffffffffffffffffff168673ffffffffffffffffffffffffffffffffffffffff168273ffffffffffffffffffffffffffffffffffffffff167f4a39dc06d4c0dbc64b70af90fd698a233a518aa5d07e595d983b8c0526c8f7fb8787604051610c84929190612241565b60405180910390a4610c9a818787878787610f2c565b505050505050565b600073ffffffffffffffffffffffffffffffffffffffff168473ffffffffffffffffffffffffffffffffffffffff161415610d12576040517f08c379a0000000000000000000000000000000000000000000000000000000008152600401610d0990612139565b60405180910390fd5b6000610d1c610986565b9050610d3c818787610d2d88611113565b610d3688611113565b87610f24565b600080600086815260200190815260200160002060008873ffffffffffffffffffffffffffffffffffffffff1673ffffffffffffffffffffffffffffffffffffffff16815260200190815260200160002054905083811015610dd3576040517f08c379a0000000000000000000000000000000000000000000000000000000008152600401610dca906121cb565b60405180910390fd5b83810360008087815260200190815260200160002060008973ffffffffffffffffffffffffffffffffffffffff1673ffffffffffffffffffffffffffffffffffffffff168152602001908152602001600020819055508360008087815260200190815260200160002060008873ffffffffffffffffffffffffffffffffffffffff1673ffffffffffffffffffffffffffffffffffffffff1681526020019081526020016000206000828254610e8891906121eb565b925050819055508573ffffffffffffffffffffffffffffffffffffffff168773ffffffffffffffffffffffffffffffffffffffff168373ffffffffffffffffffffffffffffffffffffffff167fc3d58168c5ae7397731d063d5bbf3d657854427343f4c083240f7aacaa2d0f628888604051610f05929190612278565b60405180910390a4610f1b82888888888861118d565b50505050505050565b505050505050565b610f4b8473ffffffffffffffffffffffffffffffffffffffff16610909565b1561110b578373ffffffffffffffffffffffffffffffffffffffff1663bc197c8187878686866040518663ffffffff1660e01b8152600401610f91959493929190612305565b602060405180830381600087803b158015610fab57600080fd5b505af1925050508015610fdc57506040513d601f19601f82011682018060405250810190610fd99190612382565b60015b61108257610fe86123bc565b806308c379a014156110455750610ffd6123de565b806110085750611047565b806040517f08c379a000000000000000000000000000000000000000000000000000000000815260040161103c9190611607565b60405180910390fd5b505b6040517f08c379a0000000000000000000000000000000000000000000000000000000008152600401611079906124e6565b60405180910390fd5b63bc197c8160e01b7bffffffffffffffffffffffffffffffffffffffffffffffffffffffff1916817bffffffffffffffffffffffffffffffffffffffffffffffffffffffff191614611109576040517f08c379a000000000000000000000000000000000000000000000000000000000815260040161110090612578565b60405180910390fd5b505b505050505050565b60606000600167ffffffffffffffff8111156111325761113161162e565b5b6040519080825280602002602001820160405280156111605781602001602082028036833780820191505090505b509050828160008151811061117857611177611e6a565b5b60200260200101818152505080915050919050565b6111ac8473ffffffffffffffffffffffffffffffffffffffff16610909565b1561136c578373ffffffffffffffffffffffffffffffffffffffff1663f23a6e6187878686866040518663ffffffff1660e01b81526004016111f2959493929190612598565b602060405180830381600087803b15801561120c57600080fd5b505af192505050801561123d57506040513d601f19601f8201168201806040525081019061123a9190612382565b60015b6112e3576112496123bc565b806308c379a014156112a6575061125e6123de565b8061126957506112a8565b806040517f08c379a000000000000000000000000000000000000000000000000000000000815260040161129d9190611607565b60405180910390fd5b505b6040517f08c379a00000000000000000000000000000000000000000000000000000000081526004016112da906124e6565b60405180910390fd5b63f23a6e6160e01b7bffffffffffffffffffffffffffffffffffffffffffffffffffffffff1916817bffffffffffffffffffffffffffffffffffffffffffffffffffffffff19161461136a576040517f08c379a000000000000000000000000000000000000000000000000000000000815260040161136190612578565b60405180910390fd5b505b505050505050565b6000604051905090565b600080fd5b600080fd5b600073ffffffffffffffffffffffffffffffffffffffff82169050919050565b60006113b382611388565b9050919050565b6113c3816113a8565b81146113ce57600080fd5b50565b6000813590506113e0816113ba565b92915050565b6000819050919050565b6113f9816113e6565b811461140457600080fd5b50565b600081359050611416816113f0565b92915050565b600080604083850312156114335761143261137e565b5b6000611441858286016113d1565b925050602061145285828601611407565b9150509250929050565b611465816113e6565b82525050565b6000602082019050611480600083018461145c565b92915050565b60007fffffffff0000000000000000000000000000000000000000000000000000000082169050919050565b6114bb81611486565b81146114c657600080fd5b50565b6000813590506114d8816114b2565b92915050565b6000602082840312156114f4576114f361137e565b5b6000611502848285016114c9565b91505092915050565b60008115159050919050565b6115208161150b565b82525050565b600060208201905061153b6000830184611517565b92915050565b6000602082840312156115575761155661137e565b5b600061156584828501611407565b91505092915050565b600081519050919050565b600082825260208201905092915050565b60005b838110156115a857808201518184015260208101905061158d565b838111156115b7576000848401525b50505050565b6000601f19601f8301169050919050565b60006115d98261156e565b6115e38185611579565b93506115f381856020860161158a565b6115fc816115bd565b840191505092915050565b6000602082019050818103600083015261162181846115ce565b905092915050565b600080fd5b7f4e487b7100000000000000000000000000000000000000000000000000000000600052604160045260246000fd5b611666826115bd565b810181811067ffffffffffffffff821117156116855761168461162e565b5b80604052505050565b6000611698611374565b90506116a4828261165d565b919050565b600067ffffffffffffffff8211156116c4576116c361162e565b5b602082029050602081019050919050565b600080fd5b60006116ed6116e8846116a9565b61168e565b905080838252602082019050602084028301858111156117105761170f6116d5565b5b835b8181101561173957806117258882611407565b845260208401935050602081019050611712565b5050509392505050565b600082601f83011261175857611757611629565b5b81356117688482602086016116da565b91505092915050565b600080fd5b600067ffffffffffffffff8211156117915761179061162e565b5b61179a826115bd565b9050602081019050919050565b82818337600083830152505050565b60006117c96117c484611776565b61168e565b9050828152602081018484840111156117e5576117e4611771565b5b6117f08482856117a7565b509392505050565b600082601f83011261180d5761180c611629565b5b813561181d8482602086016117b6565b91505092915050565b600080600080600060a086880312156118425761184161137e565b5b6000611850888289016113d1565b9550506020611861888289016113d1565b945050604086013567ffffffffffffffff81111561188257611881611383565b5b61188e88828901611743565b935050606086013567ffffffffffffffff8111156118af576118ae611383565b5b6118bb88828901611743565b925050608086013567ffffffffffffffff8111156118dc576118db611383565b5b6118e8888289016117f8565b9150509295509295909350565b600067ffffffffffffffff8211156119105761190f61162e565b5b602082029050602081019050919050565b600061193461192f846118f5565b61168e565b90508083825260208201905060208402830185811115611957576119566116d5565b5b835b81811015611980578061196c88826113d1565b845260208401935050602081019050611959565b5050509392505050565b600082601f83011261199f5761199e611629565b5b81356119af848260208601611921565b91505092915050565b600080604083850312156119cf576119ce61137e565b5b600083013567ffffffffffffffff8111156119ed576119ec611383565b5b6119f98582860161198a565b925050602083013567ffffffffffffffff811115611a1a57611a19611383565b5b611a2685828601611743565b9150509250929050565b600081519050919050565b600082825260208201905092915050565b6000819050602082019050919050565b611a65816113e6565b82525050565b6000611a778383611a5c565b60208301905092915050565b6000602082019050919050565b6000611a9b82611a30565b611aa58185611a3b565b9350611ab083611a4c565b8060005b83811015611ae1578151611ac88882611a6b565b9750611ad383611a83565b925050600181019050611ab4565b5085935050505092915050565b60006020820190508181036000830152611b088184611a90565b905092915050565b611b198161150b565b8114611b2457600080fd5b50565b600081359050611b3681611b10565b92915050565b60008060408385031215611b5357611b5261137e565b5b6000611b61858286016113d1565b9250506020611b7285828601611b27565b9150509250929050565b60008060408385031215611b9357611b9261137e565b5b6000611ba1858286016113d1565b9250506020611bb2858286016113d1565b9150509250929050565b600080600080600060a08688031215611bd857611bd761137e565b5b6000611be6888289016113d1565b9550506020611bf7888289016113d1565b9450506040611c0888828901611407565b9350506060611c1988828901611407565b925050608086013567ffffffffffffffff811115611c3a57611c39611383565b5b611c46888289016117f8565b9150509295509295909350565b7f455243313135353a2062616c616e636520717565727920666f7220746865207a60008201527f65726f2061646472657373000000000000000000000000000000000000000000602082015250565b6000611caf602b83611579565b9150611cba82611c53565b604082019050919050565b60006020820190508181036000830152611cde81611ca2565b9050919050565b7f4e487b7100000000000000000000000000000000000000000000000000000000600052602260045260246000fd5b60006002820490506001821680611d2c57607f821691505b60208210811415611d4057611d3f611ce5565b5b50919050565b7f455243313135353a207472616e736665722063616c6c6572206973206e6f742060008201527f6f776e6572206e6f7220617070726f7665640000000000000000000000000000602082015250565b6000611da2603283611579565b9150611dad82611d46565b604082019050919050565b60006020820190508181036000830152611dd181611d95565b9050919050565b7f455243313135353a206163636f756e747320616e6420696473206c656e67746860008201527f206d69736d617463680000000000000000000000000000000000000000000000602082015250565b6000611e34602983611579565b9150611e3f82611dd8565b604082019050919050565b60006020820190508181036000830152611e6381611e27565b9050919050565b7f4e487b7100000000000000000000000000000000000000000000000000000000600052603260045260246000fd5b7f4e487b7100000000000000000000000000000000000000000000000000000000600052601160045260246000fd5b6000611ed3826113e6565b91507fffffffffffffffffffffffffffffffffffffffffffffffffffffffffffffffff821415611f0657611f05611e99565b5b600182019050919050565b7f455243313135353a2073657474696e6720617070726f76616c2073746174757360008201527f20666f722073656c660000000000000000000000000000000000000000000000602082015250565b6000611f6d602983611579565b9150611f7882611f11565b604082019050919050565b60006020820190508181036000830152611f9c81611f60565b9050919050565b7f455243313135353a2063616c6c6572206973206e6f74206f776e6572206e6f7260008201527f20617070726f7665640000000000000000000000000000000000000000000000602082015250565b6000611fff602983611579565b915061200a82611fa3565b604082019050919050565b6000602082019050818103600083015261202e81611ff2565b9050919050565b7f455243313135353a2069647320616e6420616d6f756e7473206c656e6774682060008201527f6d69736d61746368000000000000000000000000000000000000000000000000602082015250565b6000612091602883611579565b915061209c82612035565b604082019050919050565b600060208201905081810360008301526120c081612084565b9050919050565b7f455243313135353a207472616e7366657220746f20746865207a65726f20616460008201527f6472657373000000000000000000000000000000000000000000000000000000602082015250565b6000612123602583611579565b915061212e826120c7565b604082019050919050565b6000602082019050818103600083015261215281612116565b9050919050565b7f455243313135353a20696e73756666696369656e742062616c616e636520666f60008201527f72207472616e7366657200000000000000000000000000000000000000000000602082015250565b60006121b5602a83611579565b91506121c082612159565b604082019050919050565b600060208201905081810360008301526121e4816121a8565b9050919050565b60006121f6826113e6565b9150612201836113e6565b9250827fffffffffffffffffffffffffffffffffffffffffffffffffffffffffffffffff0382111561223657612235611e99565b5b828201905092915050565b6000604082019050818103600083015261225b8185611a90565b9050818103602083015261226f8184611a90565b90509392505050565b600060408201905061228d600083018561145c565b61229a602083018461145c565b9392505050565b6122aa816113a8565b82525050565b600081519050919050565b600082825260208201905092915050565b60006122d7826122b0565b6122e181856122bb565b93506122f181856020860161158a565b6122fa816115bd565b840191505092915050565b600060a08201905061231a60008301886122a1565b61232760208301876122a1565b81810360408301526123398186611a90565b9050818103606083015261234d8185611a90565b9050818103608083015261236181846122cc565b90509695505050505050565b60008151905061237c816114b2565b92915050565b6000602082840312156123985761239761137e565b5b60006123a68482850161236d565b91505092915050565b60008160e01c9050919050565b600060033d11156123db5760046000803e6123d86000516123af565b90505b90565b600060443d10156123ee57612471565b6123f6611374565b60043d036004823e80513d602482011167ffffffffffffffff8211171561241e575050612471565b808201805167ffffffffffffffff81111561243c5750505050612471565b80602083010160043d038501811115612459575050505050612471565b6124688260200185018661165d565b82955050505050505b90565b7f455243313135353a207472616e7366657220746f206e6f6e204552433131353560008201527f526563656976657220696d706c656d656e746572000000000000000000000000602082015250565b60006124d0603483611579565b91506124db82612474565b604082019050919050565b600060208201905081810360008301526124ff816124c3565b9050919050565b7f455243313135353a204552433131353552656365697665722072656a6563746560008201527f6420746f6b656e73000000000000000000000000000000000000000000000000602082015250565b6000612562602883611579565b915061256d82612506565b604082019050919050565b6000602082019050818103600083015261259181612555565b9050919050565b600060a0820190506125ad60008301886122a1565b6125ba60208301876122a1565b6125c7604083018661145c565b6125d4606083018561145c565b81810360808301526125e681846122cc565b9050969550505050505056fea2646970667358221220674dabbb1d37b9152f3e9e2edd78e4c15fe34f47c53264fb33740128d30b6b4564736f6c6343000809003368747470733a2f2f647075626c6973682e6f72672f6170692f746f6b656e2f7b69647d2e6a736f6e",
  "immutableReferences": {},
  "source": "// contracts/Token.sol\n// SPDX-License-Identifier: MIT\npragma solidity ^0.8.0;\n\nimport \"@openzeppelin/contracts/token/ERC1155/ERC1155.sol\";\n\ncontract Token is ERC1155 {\n    uint256 public constant DPub = 0;\n    uint256 public constant Review = 1;\n    uint256 public constant Paper = 2;\n    \n    constructor() ERC1155(\"https://dpublish.org/api/token/{id}.json\") {\n        _mint(msg.sender, DPub, 10**18, \"\"); //only DPub token is minted from the start\n        \n        \n    }\n}",
  "sourcePath": "C:\\Users\\ilana\\Documents\\RAPHAEL\\FGV\\2021\\2021.2\\Git\\PortableGit\\Dpublish\\project_A2_Levy\\contracts\\Tokens.sol",
  "compiler": {
    "name": "solc",
    "version": "0.8.9+commit.e5eed63a.Emscripten.clang"
  },
  "schemaVersion": "3.4.3",
  "updatedAt": "2021-10-29T00:05:47.791Z",
  "devdoc": {
    "kind": "dev",
    "methods": {
      "balanceOf(address,uint256)": {
        "details": "See {IERC1155-balanceOf}. Requirements: - `account` cannot be the zero address."
      },
      "balanceOfBatch(address[],uint256[])": {
        "details": "See {IERC1155-balanceOfBatch}. Requirements: - `accounts` and `ids` must have the same length."
      },
      "isApprovedForAll(address,address)": {
        "details": "See {IERC1155-isApprovedForAll}."
      },
      "safeBatchTransferFrom(address,address,uint256[],uint256[],bytes)": {
        "details": "See {IERC1155-safeBatchTransferFrom}."
      },
      "safeTransferFrom(address,address,uint256,uint256,bytes)": {
        "details": "See {IERC1155-safeTransferFrom}."
      },
      "setApprovalForAll(address,bool)": {
        "details": "See {IERC1155-setApprovalForAll}."
      },
      "supportsInterface(bytes4)": {
        "details": "See {IERC165-supportsInterface}."
      },
      "uri(uint256)": {
        "details": "See {IERC1155MetadataURI-uri}. This implementation returns the same URI for *all* token types. It relies on the token type ID substitution mechanism https://eips.ethereum.org/EIPS/eip-1155#metadata[defined in the EIP]. Clients calling this function must replace the `\\{id\\}` substring with the actual token type ID."
      }
    },
    "version": 1
  },
  "userdoc": {
    "kind": "user",
    "methods": {},
    "version": 1
  }
}