{
  "contractName": "DPublish",
  "abi": [
    {
      "inputs": [],
      "stateMutability": "nonpayable",
      "type": "constructor"
    },
    {
      "inputs": [
        {
          "internalType": "uint256",
          "name": "requested",
          "type": "uint256"
        },
        {
          "internalType": "uint256",
          "name": "available",
          "type": "uint256"
        }
      ],
      "name": "LowFundsOnBag",
      "type": "error"
    },
    {
      "anonymous": false,
      "inputs": [
        {
          "indexed": false,
          "internalType": "address",
          "name": "from",
          "type": "address"
        },
        {
          "indexed": false,
          "internalType": "uint256",
          "name": "amount",
          "type": "uint256"
        }
      ],
      "name": "PaymentReceived",
      "type": "event"
    },
    {
      "inputs": [
        {
          "internalType": "address",
          "name": "",
          "type": "address"
        }
      ],
      "name": "digital_bag",
      "outputs": [
        {
          "internalType": "uint256",
          "name": "",
          "type": "uint256"
        }
      ],
      "stateMutability": "view",
      "type": "function"
    },
    {
      "inputs": [],
      "name": "fee",
      "outputs": [
        {
          "internalType": "uint256",
          "name": "",
          "type": "uint256"
        }
      ],
      "stateMutability": "view",
      "type": "function"
    },
    {
      "inputs": [
        {
          "internalType": "address",
          "name": "",
          "type": "address"
        }
      ],
      "name": "is_reviewer",
      "outputs": [
        {
          "internalType": "bool",
          "name": "",
          "type": "bool"
        }
      ],
      "stateMutability": "view",
      "type": "function"
    },
    {
      "inputs": [
        {
          "internalType": "address",
          "name": "",
          "type": "address"
        }
      ],
      "name": "review_document",
      "outputs": [
        {
          "internalType": "string",
          "name": "",
          "type": "string"
        }
      ],
      "stateMutability": "view",
      "type": "function"
    },
    {
      "inputs": [],
      "name": "review_payment",
      "outputs": [
        {
          "internalType": "uint16",
          "name": "",
          "type": "uint16"
        }
      ],
      "stateMutability": "view",
      "type": "function"
    },
    {
      "inputs": [
        {
          "internalType": "string",
          "name": "",
          "type": "string"
        }
      ],
      "name": "submitted_manuscripts",
      "outputs": [
        {
          "internalType": "address",
          "name": "",
          "type": "address"
        }
      ],
      "stateMutability": "view",
      "type": "function"
    },
    {
      "inputs": [
        {
          "internalType": "string",
          "name": "",
          "type": "string"
        }
      ],
      "name": "values",
      "outputs": [
        {
          "internalType": "uint256",
          "name": "",
          "type": "uint256"
        }
      ],
      "stateMutability": "view",
      "type": "function"
    },
    {
      "inputs": [
        {
          "internalType": "string",
          "name": "idmanuscript",
          "type": "string"
        }
      ],
      "name": "submit_manuscript",
      "outputs": [],
      "stateMutability": "payable",
      "type": "function"
    },
    {
      "inputs": [
        {
          "internalType": "address",
          "name": "user",
          "type": "address"
        },
        {
          "internalType": "uint256",
          "name": "value",
          "type": "uint256"
        }
      ],
      "name": "set_balance",
      "outputs": [],
      "stateMutability": "nonpayable",
      "type": "function"
    },
    {
      "inputs": [
        {
          "internalType": "uint256",
          "name": "n_fee",
          "type": "uint256"
        }
      ],
      "name": "set_fee",
      "outputs": [],
      "stateMutability": "payable",
      "type": "function"
    },
    {
      "inputs": [
        {
          "internalType": "address",
          "name": "user",
          "type": "address"
        }
      ],
      "name": "subscribe_to_review",
      "outputs": [],
      "stateMutability": "nonpayable",
      "type": "function"
    },
    {
      "inputs": [
        {
          "internalType": "string",
          "name": "linkIPFS",
          "type": "string"
        }
      ],
      "name": "sent_review",
      "outputs": [],
      "stateMutability": "nonpayable",
      "type": "function"
    }
  ],
  "bytecode": "0x60806040526000601260006101000a81548161ffff021916908361ffff16021790555034801561002e57600080fd5b5033600560006101000a81548173ffffffffffffffffffffffffffffffffffffffff021916908373ffffffffffffffffffffffffffffffffffffffff1602179055506112b18061007f6000396000f3fe6080604052600436106100a75760003560e01c80636b836855116100645780636b836855146101d15780637e44361c146101fa578063cdeca25214610237578063ddca3f4314610253578063f46f4fe51461027e578063f7147dc9146102bb576100a7565b80630776e4fa146100ac5780631956c483146100d55780631aa02d59146100fe5780632ebd81c81461011a57806335fb3e92146101575780635a9ade8b14610194575b600080fd5b3480156100b857600080fd5b506100d360048036038101906100ce9190610c34565b6102e6565b005b3480156100e157600080fd5b506100fc60048036038101906100f79190610c0b565b610388565b005b61011860048036038101906101139190610cb1565b610597565b005b34801561012657600080fd5b50610141600480360381019061013c9190610c0b565b6105fb565b60405161014e9190610eb9565b60405180910390f35b34801561016357600080fd5b5061017e60048036038101906101799190610c0b565b610613565b60405161018b9190610e3c565b60405180910390f35b3480156101a057600080fd5b506101bb60048036038101906101b69190610c70565b6106b3565b6040516101c89190610eb9565b60405180910390f35b3480156101dd57600080fd5b506101f860048036038101906101f39190610c70565b6106e1565b005b34801561020657600080fd5b50610221600480360381019061021c9190610c0b565b61083e565b60405161022e9190610e21565b60405180910390f35b610251600480360381019061024c9190610c70565b61085e565b005b34801561025f57600080fd5b50610268610a06565b6040516102759190610eb9565b60405180910390f35b34801561028a57600080fd5b506102a560048036038101906102a09190610c70565b610a0c565b6040516102b29190610ddd565b60405180910390f35b3480156102c757600080fd5b506102d0610a55565b6040516102dd9190610e9e565b60405180910390f35b600560009054906101000a900473ffffffffffffffffffffffffffffffffffffffff1673ffffffffffffffffffffffffffffffffffffffff163373ffffffffffffffffffffffffffffffffffffffff161461034057600080fd5b80600260008473ffffffffffffffffffffffffffffffffffffffff1673ffffffffffffffffffffffffffffffffffffffff168152602001908152602001600020819055505050565b600a601260009054906101000a900461ffff1661ffff1611156103e0576040517f08c379a00000000000000000000000000000000000000000000000000000000081526004016103d790610e5e565b60405180910390fd5b60011515600460003373ffffffffffffffffffffffffffffffffffffffff1673ffffffffffffffffffffffffffffffffffffffff16815260200190815260200160002060009054906101000a900460ff1615151415610474576040517f08c379a000000000000000000000000000000000000000000000000000000000815260040161046b90610e7e565b60405180910390fd5b806008601260009054906101000a900461ffff1661ffff16600a81106104c3577f4e487b7100000000000000000000000000000000000000000000000000000000600052603260045260246000fd5b0160006101000a81548173ffffffffffffffffffffffffffffffffffffffff021916908373ffffffffffffffffffffffffffffffffffffffff1602179055506001601260008282829054906101000a900461ffff166105229190610f7a565b92506101000a81548161ffff021916908361ffff1602179055506001600460008373ffffffffffffffffffffffffffffffffffffffff1673ffffffffffffffffffffffffffffffffffffffff16815260200190815260200160002060006101000a81548160ff02191690831515021790555050565b600560009054906101000a900473ffffffffffffffffffffffffffffffffffffffff1673ffffffffffffffffffffffffffffffffffffffff163373ffffffffffffffffffffffffffffffffffffffff16146105f157600080fd5b8060068190555050565b60026020528060005260406000206000915090505481565b60036020528060005260406000206000915090508054610632906110d4565b80601f016020809104026020016040519081016040528092919081815260200182805461065e906110d4565b80156106ab5780601f10610680576101008083540402835291602001916106ab565b820191906000526020600020905b81548152906001019060200180831161068e57829003601f168201915b505050505081565b6001818051602081018201805184825260208301602085012081835280955050505050506000915090505481565b60011515600460003373ffffffffffffffffffffffffffffffffffffffff1673ffffffffffffffffffffffffffffffffffffffff16815260200190815260200160002060009054906101000a900460ff16151514610774576040517f08c379a000000000000000000000000000000000000000000000000000000000815260040161076b90610e7e565b60405180910390fd5b80600360003373ffffffffffffffffffffffffffffffffffffffff1673ffffffffffffffffffffffffffffffffffffffff16815260200190815260200160002090805190602001906107c7929190610ad6565b50600760009054906101000a900461ffff1661ffff16600260003373ffffffffffffffffffffffffffffffffffffffff1673ffffffffffffffffffffffffffffffffffffffff168152602001908152602001600020600082825461082b9190611008565b9250508190555061083b33610a69565b50565b60046020528060005260406000206000915054906101000a900460ff1681565b3360008260405161086f9190610dc6565b908152602001604051809103902060006101000a81548173ffffffffffffffffffffffffffffffffffffffff021916908373ffffffffffffffffffffffffffffffffffffffff1602179055506000600260003373ffffffffffffffffffffffffffffffffffffffff1673ffffffffffffffffffffffffffffffffffffffff16815260200190815260200160002054905080600654111561094a57600654816040517fa29bb2c5000000000000000000000000000000000000000000000000000000008152600401610941929190610ed4565b60405180910390fd5b600654600260003373ffffffffffffffffffffffffffffffffffffffff1673ffffffffffffffffffffffffffffffffffffffff168152602001908152602001600020600082825461099b9190611008565b925050819055506006546001836040516109b59190610dc6565b9081526020016040518091039020819055507f6ef95f06320e7a25a04a175ca677b7052bdd97131872c2192525a629f51be770336006546040516109fa929190610df8565b60405180910390a15050565b60065481565b6000818051602081018201805184825260208301602085012081835280955050505050506000915054906101000a900473ffffffffffffffffffffffffffffffffffffffff1681565b600760009054906101000a900461ffff1681565b600760009054906101000a900461ffff1661ffff16600260008373ffffffffffffffffffffffffffffffffffffffff1673ffffffffffffffffffffffffffffffffffffffff1681526020019081526020016000206000828254610acc9190610fb2565b9250508190555050565b828054610ae2906110d4565b90600052602060002090601f016020900481019282610b045760008555610b4b565b82601f10610b1d57805160ff1916838001178555610b4b565b82800160010185558215610b4b579182015b82811115610b4a578251825591602001919060010190610b2f565b5b509050610b589190610b5c565b5090565b5b80821115610b75576000816000905550600101610b5d565b5090565b6000610b8c610b8784610f22565b610efd565b905082815260208101848484011115610ba457600080fd5b610baf848285611092565b509392505050565b600081359050610bc68161124d565b92915050565b600082601f830112610bdd57600080fd5b8135610bed848260208601610b79565b91505092915050565b600081359050610c0581611264565b92915050565b600060208284031215610c1d57600080fd5b6000610c2b84828501610bb7565b91505092915050565b60008060408385031215610c4757600080fd5b6000610c5585828601610bb7565b9250506020610c6685828601610bf6565b9150509250929050565b600060208284031215610c8257600080fd5b600082013567ffffffffffffffff811115610c9c57600080fd5b610ca884828501610bcc565b91505092915050565b600060208284031215610cc357600080fd5b6000610cd184828501610bf6565b91505092915050565b610ce38161103c565b82525050565b610cf28161104e565b82525050565b6000610d0382610f53565b610d0d8185610f5e565b9350610d1d8185602086016110a1565b610d26816111c4565b840191505092915050565b6000610d3c82610f53565b610d468185610f6f565b9350610d568185602086016110a1565b80840191505092915050565b6000610d6f601583610f5e565b9150610d7a826111d5565b602082019050919050565b6000610d92602183610f5e565b9150610d9d826111fe565b604082019050919050565b610db18161105a565b82525050565b610dc081611088565b82525050565b6000610dd28284610d31565b915081905092915050565b6000602082019050610df26000830184610cda565b92915050565b6000604082019050610e0d6000830185610cda565b610e1a6020830184610db7565b9392505050565b6000602082019050610e366000830184610ce9565b92915050565b60006020820190508181036000830152610e568184610cf8565b905092915050565b60006020820190508181036000830152610e7781610d62565b9050919050565b60006020820190508181036000830152610e9781610d85565b9050919050565b6000602082019050610eb36000830184610da8565b92915050565b6000602082019050610ece6000830184610db7565b92915050565b6000604082019050610ee96000830185610db7565b610ef66020830184610db7565b9392505050565b6000610f07610f18565b9050610f138282611106565b919050565b6000604051905090565b600067ffffffffffffffff821115610f3d57610f3c611195565b5b610f46826111c4565b9050602081019050919050565b600081519050919050565b600082825260208201905092915050565b600081905092915050565b6000610f858261105a565b9150610f908361105a565b92508261ffff03821115610fa757610fa6611137565b5b828201905092915050565b6000610fbd82611088565b9150610fc883611088565b9250827fffffffffffffffffffffffffffffffffffffffffffffffffffffffffffffffff03821115610ffd57610ffc611137565b5b828201905092915050565b600061101382611088565b915061101e83611088565b92508282101561103157611030611137565b5b828203905092915050565b600061104782611068565b9050919050565b60008115159050919050565b600061ffff82169050919050565b600073ffffffffffffffffffffffffffffffffffffffff82169050919050565b6000819050919050565b82818337600083830152505050565b60005b838110156110bf5780820151818401526020810190506110a4565b838111156110ce576000848401525b50505050565b600060028204905060018216806110ec57607f821691505b60208210811415611100576110ff611166565b5b50919050565b61110f826111c4565b810181811067ffffffffffffffff8211171561112e5761112d611195565b5b80604052505050565b7f4e487b7100000000000000000000000000000000000000000000000000000000600052601160045260246000fd5b7f4e487b7100000000000000000000000000000000000000000000000000000000600052602260045260246000fd5b7f4e487b7100000000000000000000000000000000000000000000000000000000600052604160045260246000fd5b6000601f19601f8301169050919050565b7f4e616f20706f6465206d61697320726576697361720000000000000000000000600082015250565b7f5072656369736120736520696e7363726576657220636f6d6f2072657669736f60008201527f7200000000000000000000000000000000000000000000000000000000000000602082015250565b6112568161103c565b811461126157600080fd5b50565b61126d81611088565b811461127857600080fd5b5056fea264697066735822122063d60353133a3dd6c1ed86c51c7a833b8d6352142730a96ef70e5e0f764027d364736f6c63430008040033",
  "immutableReferences": {},
  "source": "// SPDX-License-Identifier: MIT\r\n// pragma solidity ^0.8.2;\r\npragma solidity ^0.8.4;\r\nimport \"@openzeppelin/contracts/utils/Context.sol\";\r\nimport \"@openzeppelin/contracts/utils/Address.sol\";\r\n//^^import bibs\r\ncontract DPublish {\r\n    mapping(string => address) public submitted_manuscripts;\r\n    //^^Manuscritos submetidos\r\n    mapping(string => uint256) public values; \r\n    //^^Pagamentos para revisar\r\n    mapping(address => uint256) public digital_bag; \r\n    //^^Carteira digital do user\r\n    mapping (address => string) public review_document;\r\n    //^^Review_document\r\n    mapping(address => bool) public is_reviewer;\r\n    //^^Reviewer determinado\r\n\r\n    address private Editor; \r\n    //^^Editor address\r\n    uint256 public fee; \r\n    //^^Fee para publi\r\n    uint16 public review_payment; \r\n    //^^ReviewPagamento ao revisor\r\n\r\n    address[10] reviewers;\r\n    //^^Address dos reviewers\r\n    uint16 count_review = 0;\r\n    //^Conta review_\r\n\r\n    event PaymentReceived(address from, uint256 amount);\r\n    //^^Alerta para pagamento recebido\r\n\r\n    error LowFundsOnBag(uint256 requested, uint256 available);\r\n    //^^Declarando erro\r\n\r\n    constructor(){\r\n        Editor = msg.sender;\r\n        //^^Endereo do autor\r\n    }\r\n\r\n    function submit_manuscript(string memory idmanuscript) public payable{\r\n        submitted_manuscripts[idmanuscript] = msg.sender; \r\n        //^^Usurio publicou\r\n        uint funds = digital_bag[msg.sender];\r\n        //^^Fundo na Bag\r\n        if (fee > funds)\r\n        //^^Checando fundos na bag\r\n            revert LowFundsOnBag(fee, funds);\r\n            //^^Sem fundo na bag :(\r\n        digital_bag[msg.sender] -= fee;\r\n        // ^^Pagamento feito, debitando\r\n        values[idmanuscript] = fee;\r\n        // ^^Armazena fundo restante\r\n        emit PaymentReceived(msg.sender, fee);\r\n    }\r\n\r\n    function set_balance(address user, uint256 value) public{\r\n        require(msg.sender == Editor);\r\n        digital_bag[user] = value; \r\n        //^^Tomando um fundo para a bag determinada\r\n    }\r\n\r\n    function set_fee(uint256 n_fee) public payable{\r\n        require(msg.sender == Editor);\r\n        fee = n_fee;\r\n        //^^Taxa determinada\r\n    }\r\n\r\n    function subscribe_to_review(address user) public{\r\n        require(count_review <= 10, \"Nao pode mais revisar\");\r\n        //^^Set limite de reviews\r\n        require(!(is_reviewer[msg.sender]==true), \"Precisa se inscrever como revisor\");\r\n        //^^Verifica incrio como revisor\r\n        reviewers[count_review] = user;\r\n        count_review += 1 ;\r\n        //^^Soma review_\r\n        is_reviewer[user] = true;\r\n    }\r\n\r\n    function sent_review(string memory linkIPFS) public{\r\n        require(is_reviewer[msg.sender]==true, \"Precisa se inscrever como revisor\");\r\n        review_document[msg.sender] = linkIPFS;\r\n        digital_bag[msg.sender] -= review_payment;\r\n        //^^Inibe multiplos pagamentos\r\n        pay_review(msg.sender);\r\n    }\r\n\r\n    function pay_review(address reviewer) private{\r\n        digital_bag[reviewer] += review_payment;\r\n        //^^Pay reviso\r\n    }\r\n}",
  "sourcePath": "F:\\Meus Documentos\\Documents\\GitHub\\Dpublish\\contracts\\DPublish.sol",
  "compiler": {
    "name": "solc",
    "version": "0.8.4+commit.c7e474f2.Emscripten.clang"
  },
  "schemaVersion": "3.4.3",
  "updatedAt": "2021-12-15T22:27:26.826Z",
  "devdoc": {
    "kind": "dev",
    "methods": {},
    "version": 1
  },
  "userdoc": {
    "kind": "user",
    "methods": {},
    "version": 1
  }
}