{
  "contractName": "DPubToken",
  "abi": [
    {
      "inputs": [],
      "stateMutability": "nonpayable",
      "type": "constructor"
    },
    {
      "anonymous": false,
      "inputs": [
        {
          "indexed": true,
          "internalType": "address",
          "name": "owner",
          "type": "address"
        },
        {
          "indexed": true,
          "internalType": "address",
          "name": "spender",
          "type": "address"
        },
        {
          "indexed": false,
          "internalType": "uint256",
          "name": "value",
          "type": "uint256"
        }
      ],
      "name": "Approval",
      "type": "event"
    },
    {
      "anonymous": false,
      "inputs": [
        {
          "indexed": true,
          "internalType": "address",
          "name": "delegator",
          "type": "address"
        },
        {
          "indexed": true,
          "internalType": "address",
          "name": "fromDelegate",
          "type": "address"
        },
        {
          "indexed": true,
          "internalType": "address",
          "name": "toDelegate",
          "type": "address"
        }
      ],
      "name": "DelegateChanged",
      "type": "event"
    },
    {
      "anonymous": false,
      "inputs": [
        {
          "indexed": true,
          "internalType": "address",
          "name": "delegate",
          "type": "address"
        },
        {
          "indexed": false,
          "internalType": "uint256",
          "name": "previousBalance",
          "type": "uint256"
        },
        {
          "indexed": false,
          "internalType": "uint256",
          "name": "newBalance",
          "type": "uint256"
        }
      ],
      "name": "DelegateVotesChanged",
      "type": "event"
    },
    {
      "anonymous": false,
      "inputs": [
        {
          "indexed": true,
          "internalType": "address",
          "name": "from",
          "type": "address"
        },
        {
          "indexed": true,
          "internalType": "address",
          "name": "to",
          "type": "address"
        },
        {
          "indexed": false,
          "internalType": "uint256",
          "name": "value",
          "type": "uint256"
        }
      ],
      "name": "Transfer",
      "type": "event"
    },
    {
      "inputs": [],
      "name": "DOMAIN_SEPARATOR",
      "outputs": [
        {
          "internalType": "bytes32",
          "name": "",
          "type": "bytes32"
        }
      ],
      "stateMutability": "view",
      "type": "function",
      "constant": true
    },
    {
      "inputs": [
        {
          "internalType": "address",
          "name": "owner",
          "type": "address"
        },
        {
          "internalType": "address",
          "name": "spender",
          "type": "address"
        }
      ],
      "name": "allowance",
      "outputs": [
        {
          "internalType": "uint256",
          "name": "",
          "type": "uint256"
        }
      ],
      "stateMutability": "view",
      "type": "function",
      "constant": true
    },
    {
      "inputs": [
        {
          "internalType": "address",
          "name": "spender",
          "type": "address"
        },
        {
          "internalType": "uint256",
          "name": "amount",
          "type": "uint256"
        }
      ],
      "name": "approve",
      "outputs": [
        {
          "internalType": "bool",
          "name": "",
          "type": "bool"
        }
      ],
      "stateMutability": "nonpayable",
      "type": "function"
    },
    {
      "inputs": [
        {
          "internalType": "address",
          "name": "account",
          "type": "address"
        }
      ],
      "name": "balanceOf",
      "outputs": [
        {
          "internalType": "uint256",
          "name": "",
          "type": "uint256"
        }
      ],
      "stateMutability": "view",
      "type": "function",
      "constant": true
    },
    {
      "inputs": [
        {
          "internalType": "address",
          "name": "account",
          "type": "address"
        },
        {
          "internalType": "uint32",
          "name": "pos",
          "type": "uint32"
        }
      ],
      "name": "checkpoints",
      "outputs": [
        {
          "components": [
            {
              "internalType": "uint32",
              "name": "fromBlock",
              "type": "uint32"
            },
            {
              "internalType": "uint224",
              "name": "votes",
              "type": "uint224"
            }
          ],
          "internalType": "struct ERC20Votes.Checkpoint",
          "name": "",
          "type": "tuple"
        }
      ],
      "stateMutability": "view",
      "type": "function",
      "constant": true
    },
    {
      "inputs": [],
      "name": "decimals",
      "outputs": [
        {
          "internalType": "uint8",
          "name": "",
          "type": "uint8"
        }
      ],
      "stateMutability": "view",
      "type": "function",
      "constant": true
    },
    {
      "inputs": [
        {
          "internalType": "address",
          "name": "spender",
          "type": "address"
        },
        {
          "internalType": "uint256",
          "name": "subtractedValue",
          "type": "uint256"
        }
      ],
      "name": "decreaseAllowance",
      "outputs": [
        {
          "internalType": "bool",
          "name": "",
          "type": "bool"
        }
      ],
      "stateMutability": "nonpayable",
      "type": "function"
    },
    {
      "inputs": [
        {
          "internalType": "address",
          "name": "delegatee",
          "type": "address"
        }
      ],
      "name": "delegate",
      "outputs": [],
      "stateMutability": "nonpayable",
      "type": "function"
    },
    {
      "inputs": [
        {
          "internalType": "address",
          "name": "delegatee",
          "type": "address"
        },
        {
          "internalType": "uint256",
          "name": "nonce",
          "type": "uint256"
        },
        {
          "internalType": "uint256",
          "name": "expiry",
          "type": "uint256"
        },
        {
          "internalType": "uint8",
          "name": "v",
          "type": "uint8"
        },
        {
          "internalType": "bytes32",
          "name": "r",
          "type": "bytes32"
        },
        {
          "internalType": "bytes32",
          "name": "s",
          "type": "bytes32"
        }
      ],
      "name": "delegateBySig",
      "outputs": [],
      "stateMutability": "nonpayable",
      "type": "function"
    },
    {
      "inputs": [
        {
          "internalType": "address",
          "name": "account",
          "type": "address"
        }
      ],
      "name": "delegates",
      "outputs": [
        {
          "internalType": "address",
          "name": "",
          "type": "address"
        }
      ],
      "stateMutability": "view",
      "type": "function",
      "constant": true
    },
    {
      "inputs": [
        {
          "internalType": "uint256",
          "name": "blockNumber",
          "type": "uint256"
        }
      ],
      "name": "getPastTotalSupply",
      "outputs": [
        {
          "internalType": "uint256",
          "name": "",
          "type": "uint256"
        }
      ],
      "stateMutability": "view",
      "type": "function",
      "constant": true
    },
    {
      "inputs": [
        {
          "internalType": "address",
          "name": "account",
          "type": "address"
        },
        {
          "internalType": "uint256",
          "name": "blockNumber",
          "type": "uint256"
        }
      ],
      "name": "getPastVotes",
      "outputs": [
        {
          "internalType": "uint256",
          "name": "",
          "type": "uint256"
        }
      ],
      "stateMutability": "view",
      "type": "function",
      "constant": true
    },
    {
      "inputs": [
        {
          "internalType": "address",
          "name": "account",
          "type": "address"
        }
      ],
      "name": "getVotes",
      "outputs": [
        {
          "internalType": "uint256",
          "name": "",
          "type": "uint256"
        }
      ],
      "stateMutability": "view",
      "type": "function",
      "constant": true
    },
    {
      "inputs": [
        {
          "internalType": "address",
          "name": "spender",
          "type": "address"
        },
        {
          "internalType": "uint256",
          "name": "addedValue",
          "type": "uint256"
        }
      ],
      "name": "increaseAllowance",
      "outputs": [
        {
          "internalType": "bool",
          "name": "",
          "type": "bool"
        }
      ],
      "stateMutability": "nonpayable",
      "type": "function"
    },
    {
      "inputs": [],
      "name": "name",
      "outputs": [
        {
          "internalType": "string",
          "name": "",
          "type": "string"
        }
      ],
      "stateMutability": "view",
      "type": "function",
      "constant": true
    },
    {
      "inputs": [
        {
          "internalType": "address",
          "name": "owner",
          "type": "address"
        }
      ],
      "name": "nonces",
      "outputs": [
        {
          "internalType": "uint256",
          "name": "",
          "type": "uint256"
        }
      ],
      "stateMutability": "view",
      "type": "function",
      "constant": true
    },
    {
      "inputs": [
        {
          "internalType": "address",
          "name": "account",
          "type": "address"
        }
      ],
      "name": "numCheckpoints",
      "outputs": [
        {
          "internalType": "uint32",
          "name": "",
          "type": "uint32"
        }
      ],
      "stateMutability": "view",
      "type": "function",
      "constant": true
    },
    {
      "inputs": [
        {
          "internalType": "address",
          "name": "owner",
          "type": "address"
        },
        {
          "internalType": "address",
          "name": "spender",
          "type": "address"
        },
        {
          "internalType": "uint256",
          "name": "value",
          "type": "uint256"
        },
        {
          "internalType": "uint256",
          "name": "deadline",
          "type": "uint256"
        },
        {
          "internalType": "uint8",
          "name": "v",
          "type": "uint8"
        },
        {
          "internalType": "bytes32",
          "name": "r",
          "type": "bytes32"
        },
        {
          "internalType": "bytes32",
          "name": "s",
          "type": "bytes32"
        }
      ],
      "name": "permit",
      "outputs": [],
      "stateMutability": "nonpayable",
      "type": "function"
    },
    {
      "inputs": [
        {
          "internalType": "string",
          "name": "",
          "type": "string"
        }
      ],
      "name": "submittedManuscripts",
      "outputs": [
        {
          "internalType": "uint256",
          "name": "timestamp",
          "type": "uint256"
        },
        {
          "internalType": "address",
          "name": "author",
          "type": "address"
        }
      ],
      "stateMutability": "view",
      "type": "function",
      "constant": true
    },
    {
      "inputs": [],
      "name": "symbol",
      "outputs": [
        {
          "internalType": "string",
          "name": "",
          "type": "string"
        }
      ],
      "stateMutability": "view",
      "type": "function",
      "constant": true
    },
    {
      "inputs": [],
      "name": "totalSupply",
      "outputs": [
        {
          "internalType": "uint256",
          "name": "",
          "type": "uint256"
        }
      ],
      "stateMutability": "view",
      "type": "function",
      "constant": true
    },
    {
      "inputs": [
        {
          "internalType": "address",
          "name": "to",
          "type": "address"
        },
        {
          "internalType": "uint256",
          "name": "amount",
          "type": "uint256"
        }
      ],
      "name": "transfer",
      "outputs": [
        {
          "internalType": "bool",
          "name": "",
          "type": "bool"
        }
      ],
      "stateMutability": "nonpayable",
      "type": "function"
    },
    {
      "inputs": [
        {
          "internalType": "address",
          "name": "from",
          "type": "address"
        },
        {
          "internalType": "address",
          "name": "to",
          "type": "address"
        },
        {
          "internalType": "uint256",
          "name": "amount",
          "type": "uint256"
        }
      ],
      "name": "transferFrom",
      "outputs": [
        {
          "internalType": "bool",
          "name": "",
          "type": "bool"
        }
      ],
      "stateMutability": "nonpayable",
      "type": "function"
    },
    {
      "inputs": [
        {
          "internalType": "string",
          "name": "idManuscript",
          "type": "string"
        }
      ],
      "name": "submitManuscript",
      "outputs": [],
      "stateMutability": "nonpayable",
      "type": "function"
    },
    {
      "inputs": [
        {
          "internalType": "string",
          "name": "idManuscript",
          "type": "string"
        }
      ],
      "name": "resubmitManuscript",
      "outputs": [],
      "stateMutability": "nonpayable",
      "type": "function"
    },
    {
      "inputs": [
        {
          "internalType": "string",
          "name": "idManuscript",
          "type": "string"
        }
      ],
      "name": "submitReview",
      "outputs": [],
      "stateMutability": "nonpayable",
      "type": "function"
    },
    {
      "inputs": [],
      "name": "minimumReviews",
      "outputs": [
        {
          "internalType": "uint32",
          "name": "",
          "type": "uint32"
        }
      ],
      "stateMutability": "pure",
      "type": "function",
      "constant": true
    }
  ],
  "bytecode": "0x6101406040526064600b556032600c553480156200001c57600080fd5b506040518060400160405280600981526020017f44507562546f6b656e0000000000000000000000000000000000000000000000815250806040518060400160405280600181526020017f31000000000000000000000000000000000000000000000000000000000000008152506040518060400160405280600981526020017f44507562546f6b656e00000000000000000000000000000000000000000000008152506040518060400160405280600481526020017f4450544b0000000000000000000000000000000000000000000000000000000081525081600390805190602001906200010e92919062000bfe565b5080600490805190602001906200012792919062000bfe565b50505060008280519060200120905060008280519060200120905060007f8b73c3c69bb8fe3d512ecc4cf759cc79239f7b179b0ffacaa9a75d522b39400f90508260e081815250508161010081815250504660a08181525050620001938184846200022560201b60201c565b608081815250503073ffffffffffffffffffffffffffffffffffffffff1660c08173ffffffffffffffffffffffffffffffffffffffff1660601b815250508061012081815250505050505050506200021f33620001f56200026160201b60201c565b600a62000203919062000f75565b620f4240620002139190620010b2565b6200026a60201b60201c565b6200135a565b600083838346306040516020016200024295949392919062000d7d565b6040516020818303038152906040528051906020012090509392505050565b60006012905090565b6200028182826200028560201b620014c31760201c565b5050565b6200029c82826200034360201b620015501760201c565b620002ac620004bc60201b60201c565b7bffffffffffffffffffffffffffffffffffffffffffffffffffffffff16620002da620004e060201b60201c565b11156200031e576040517f08c379a0000000000000000000000000000000000000000000000000000000008152600401620003159062000dda565b60405180910390fd5b6200033d6009620004ea60201b620016b017836200050260201b60201c565b50505050565b600073ffffffffffffffffffffffffffffffffffffffff168273ffffffffffffffffffffffffffffffffffffffff161415620003b6576040517f08c379a0000000000000000000000000000000000000000000000000000000008152600401620003ad9062000e40565b60405180910390fd5b620003ca600083836200081f60201b60201c565b8060026000828254620003de919062000ebd565b92505081905550806000808473ffffffffffffffffffffffffffffffffffffffff1673ffffffffffffffffffffffffffffffffffffffff168152602001908152602001600020600082825462000435919062000ebd565b925050819055508173ffffffffffffffffffffffffffffffffffffffff16600073ffffffffffffffffffffffffffffffffffffffff167fddf252ad1be2c89b69c2b068fc378daa952ba7f163c4a11628f55a4df523b3ef836040516200049c919062000e62565b60405180910390a3620004b8600083836200082460201b60201c565b5050565b60007bffffffffffffffffffffffffffffffffffffffffffffffffffffffff905090565b6000600254905090565b60008183620004fa919062000ebd565b905092915050565b600080600085805490509050600081146200059b578560018262000527919062001113565b815481106200055f577f4e487b7100000000000000000000000000000000000000000000000000000000600052603260045260246000fd5b9060005260206000200160000160049054906101000a90047bffffffffffffffffffffffffffffffffffffffffffffffffffffffff166200059e565b60005b7bffffffffffffffffffffffffffffffffffffffffffffffffffffffff169250620005ca83858760201c565b91506000811180156200064757504386600183620005e9919062001113565b8154811062000621577f4e487b7100000000000000000000000000000000000000000000000000000000600052603260045260246000fd5b9060005260206000200160000160009054906101000a900463ffffffff1663ffffffff16145b156200070c5762000663826200084160201b620016c61760201c565b8660018362000673919062001113565b81548110620006ab577f4e487b7100000000000000000000000000000000000000000000000000000000600052603260045260246000fd5b9060005260206000200160000160046101000a8154817bffffffffffffffffffffffffffffffffffffffffffffffffffffffff02191690837bffffffffffffffffffffffffffffffffffffffffffffffffffffffff16021790555062000816565b8560405180604001604052806200072e43620008af60201b620017311760201c565b63ffffffff1681526020016200074f856200084160201b620016c61760201c565b7bffffffffffffffffffffffffffffffffffffffffffffffffffffffff168152509080600181540180825580915050600190039060005260206000200160009091909190915060008201518160000160006101000a81548163ffffffff021916908363ffffffff16021790555060208201518160000160046101000a8154817bffffffffffffffffffffffffffffffffffffffffffffffffffffffff02191690837bffffffffffffffffffffffffffffffffffffffffffffffffffffffff16021790555050505b50935093915050565b505050565b6200083c8383836200090560201b620017841760201c565b505050565b60007bffffffffffffffffffffffffffffffffffffffffffffffffffffffff8016821115620008a7576040517f08c379a00000000000000000000000000000000000000000000000000000000081526004016200089e9062000dfc565b60405180910390fd5b819050919050565b600063ffffffff8016821115620008fd576040517f08c379a0000000000000000000000000000000000000000000000000000000008152600401620008f49062000e1e565b60405180910390fd5b819050919050565b6200091d8383836200095560201b620017af1760201c565b6200095062000932846200095a60201b60201c565b62000943846200095a60201b60201c565b83620009c360201b60201c565b505050565b505050565b6000600760008373ffffffffffffffffffffffffffffffffffffffff1673ffffffffffffffffffffffffffffffffffffffff16815260200190815260200160002060009054906101000a900473ffffffffffffffffffffffffffffffffffffffff169050919050565b8173ffffffffffffffffffffffffffffffffffffffff168373ffffffffffffffffffffffffffffffffffffffff161415801562000a005750600081115b1562000be157600073ffffffffffffffffffffffffffffffffffffffff168373ffffffffffffffffffffffffffffffffffffffff161462000af35760008062000a9a600860008773ffffffffffffffffffffffffffffffffffffffff1673ffffffffffffffffffffffffffffffffffffffff16815260200190815260200160002062000be660201b620017b417856200050260201b60201c565b915091508473ffffffffffffffffffffffffffffffffffffffff167fdec2bacdd2f05b59de34da9b523dff8be42e5e38e818c82fdb0bae774387a724838360405162000ae892919062000e7f565b60405180910390a250505b600073ffffffffffffffffffffffffffffffffffffffff168273ffffffffffffffffffffffffffffffffffffffff161462000be05760008062000b87600860008673ffffffffffffffffffffffffffffffffffffffff1673ffffffffffffffffffffffffffffffffffffffff168152602001908152602001600020620004ea60201b620016b017856200050260201b60201c565b915091508373ffffffffffffffffffffffffffffffffffffffff167fdec2bacdd2f05b59de34da9b523dff8be42e5e38e818c82fdb0bae774387a724838360405162000bd592919062000e7f565b60405180910390a250505b5b505050565b6000818362000bf6919062001113565b905092915050565b82805462000c0c90620011a3565b90600052602060002090601f01602090048101928262000c30576000855562000c7c565b82601f1062000c4b57805160ff191683800117855562000c7c565b8280016001018555821562000c7c579182015b8281111562000c7b57825182559160200191906001019062000c5e565b5b50905062000c8b919062000c8f565b5090565b5b8082111562000caa57600081600090555060010162000c90565b5090565b62000cb9816200114e565b82525050565b62000cca8162001162565b82525050565b600062000cdf60308362000eac565b915062000cec8262001244565b604082019050919050565b600062000d0660278362000eac565b915062000d138262001293565b604082019050919050565b600062000d2d60268362000eac565b915062000d3a82620012e2565b604082019050919050565b600062000d54601f8362000eac565b915062000d618262001331565b602082019050919050565b62000d77816200118c565b82525050565b600060a08201905062000d94600083018862000cbf565b62000da3602083018762000cbf565b62000db2604083018662000cbf565b62000dc1606083018562000d6c565b62000dd0608083018462000cae565b9695505050505050565b6000602082019050818103600083015262000df58162000cd0565b9050919050565b6000602082019050818103600083015262000e178162000cf7565b9050919050565b6000602082019050818103600083015262000e398162000d1e565b9050919050565b6000602082019050818103600083015262000e5b8162000d45565b9050919050565b600060208201905062000e79600083018462000d6c565b92915050565b600060408201905062000e96600083018562000d6c565b62000ea5602083018462000d6c565b9392505050565b600082825260208201905092915050565b600062000eca826200118c565b915062000ed7836200118c565b9250827fffffffffffffffffffffffffffffffffffffffffffffffffffffffffffffffff0382111562000f0f5762000f0e620011d9565b5b828201905092915050565b6000808291508390505b600185111562000f6c5780860481111562000f445762000f43620011d9565b5b600185161562000f545780820291505b808102905062000f648562001237565b945062000f24565b94509492505050565b600062000f82826200118c565b915062000f8f8362001196565b925062000fbe7fffffffffffffffffffffffffffffffffffffffffffffffffffffffffffffffff848462000fc6565b905092915050565b60008262000fd85760019050620010ab565b8162000fe85760009050620010ab565b81600181146200100157600281146200100c5762001042565b6001915050620010ab565b60ff841115620010215762001020620011d9565b5b8360020a9150848211156200103b576200103a620011d9565b5b50620010ab565b5060208310610133831016604e8410600b84101617156200107c5782820a905083811115620010765762001075620011d9565b5b620010ab565b6200108b848484600162000f1a565b92509050818404811115620010a557620010a4620011d9565b5b81810290505b9392505050565b6000620010bf826200118c565b9150620010cc836200118c565b9250817fffffffffffffffffffffffffffffffffffffffffffffffffffffffffffffffff0483118215151615620011085762001107620011d9565b5b828202905092915050565b600062001120826200118c565b91506200112d836200118c565b925082821015620011435762001142620011d9565b5b828203905092915050565b60006200115b826200116c565b9050919050565b6000819050919050565b600073ffffffffffffffffffffffffffffffffffffffff82169050919050565b6000819050919050565b600060ff82169050919050565b60006002820490506001821680620011bc57607f821691505b60208210811415620011d357620011d262001208565b5b50919050565b7f4e487b7100000000000000000000000000000000000000000000000000000000600052601160045260246000fd5b7f4e487b7100000000000000000000000000000000000000000000000000000000600052602260045260246000fd5b60008160011c9050919050565b7f4552433230566f7465733a20746f74616c20737570706c79207269736b73206f60008201527f766572666c6f77696e6720766f74657300000000000000000000000000000000602082015250565b7f53616665436173743a2076616c756520646f65736e27742066697420696e203260008201527f3234206269747300000000000000000000000000000000000000000000000000602082015250565b7f53616665436173743a2076616c756520646f65736e27742066697420696e203360008201527f3220626974730000000000000000000000000000000000000000000000000000602082015250565b7f45524332303a206d696e7420746f20746865207a65726f206164647265737300600082015250565b60805160a05160c05160601c60e051610100516101205161461d620013ad6000396000611d5801526000611d9a01526000611d7901526000611cae01526000611d0401526000611d2d015261461d6000f3fe608060405234801561001057600080fd5b50600436106101a95760003560e01c80636fcfff45116100f9578063a893861711610097578063d505accf11610071578063d505accf1461052e578063dd62ed3e1461054a578063df0629801461057a578063f1127ed8146105ab576101a9565b8063a8938617146104c6578063a9059cbb146104e2578063c3cda52014610512576101a9565b80638e539e8c116100d35780638e539e8c1461041857806395d89b41146104485780639ab24eb014610466578063a457c2d714610496576101a9565b80636fcfff451461038857806370a08231146103b85780637ecebe00146103e8576101a9565b80633644e515116101665780634b8039f0116101405780634b8039f014610304578063587cde1e146103205780635c19a95c146103505780636604b7221461036c576101a9565b80633644e5151461028657806339509351146102a45780633a46b1a8146102d4576101a9565b806306fdde03146101ae578063095ea7b3146101cc57806318160ddd146101fc57806323b872dd1461021a57806324af4e971461024a578063313ce56714610268575b600080fd5b6101b66105db565b6040516101c391906137eb565b60405180910390f35b6101e660048036038101906101e19190612fd5565b61066d565b6040516101f39190613677565b60405180910390f35b610204610690565b6040516102119190613b28565b60405180910390f35b610234600480360381019061022f9190612ee8565b61069a565b6040516102419190613677565b60405180910390f35b6102526106c9565b60405161025f9190613b95565b60405180910390f35b6102706106d2565b60405161027d9190613bb0565b60405180910390f35b61028e6106db565b60405161029b9190613692565b60405180910390f35b6102be60048036038101906102b99190612fd5565b6106ea565b6040516102cb9190613677565b60405180910390f35b6102ee60048036038101906102e99190612fd5565b610721565b6040516102fb9190613b28565b60405180910390f35b61031e600480360381019061031991906130d6565b6107b5565b005b61033a60048036038101906103359190612e83565b6109a9565b604051610347919061365c565b60405180910390f35b61036a60048036038101906103659190612e83565b610a12565b005b610386600480360381019061038191906130d6565b610a26565b005b6103a2600480360381019061039d9190612e83565b610bda565b6040516103af9190613b95565b60405180910390f35b6103d260048036038101906103cd9190612e83565b610c2e565b6040516103df9190613b28565b60405180910390f35b61040260048036038101906103fd9190612e83565b610c76565b60405161040f9190613b28565b60405180910390f35b610432600480360381019061042d919061315c565b610cc6565b60405161043f9190613b28565b60405180910390f35b610450610d1c565b60405161045d91906137eb565b60405180910390f35b610480600480360381019061047b9190612e83565b610dae565b60405161048d9190613b28565b60405180910390f35b6104b060048036038101906104ab9190612fd5565b610ee5565b6040516104bd9190613677565b60405180910390f35b6104e060048036038101906104db91906130d6565b610f5c565b005b6104fc60048036038101906104f79190612fd5565b611043565b6040516105099190613677565b60405180910390f35b61052c60048036038101906105279190613011565b611066565b005b61054860048036038101906105439190612f37565b61116a565b005b610564600480360381019061055f9190612eac565b6112ac565b6040516105719190613b28565b60405180910390f35b610594600480360381019061058f919061311b565b611333565b6040516105a2929190613b43565b60405180910390f35b6105c560048036038101906105c0919061309a565b61138d565b6040516105d29190613b0d565b60405180910390f35b6060600380546105ea90613ddc565b80601f016020809104026020016040519081016040528092919081815260200182805461061690613ddc565b80156106635780601f1061063857610100808354040283529160200191610663565b820191906000526020600020905b81548152906001019060200180831161064657829003601f168201915b5050505050905090565b6000806106786117ca565b90506106858185856117d2565b600191505092915050565b6000600254905090565b6000806106a56117ca565b90506106b285828561199d565b6106bd858585611a29565b60019150509392505050565b60006005905090565b60006012905090565b60006106e5611caa565b905090565b6000806106f56117ca565b905061071681858561070785896112ac565b6107119190613c48565b6117d2565b600191505092915050565b6000438210610765576040517f08c379a000000000000000000000000000000000000000000000000000000000815260040161075c9061384d565b60405180910390fd5b6107ad600860008573ffffffffffffffffffffffffffffffffffffffff1673ffffffffffffffffffffffffffffffffffffffff16815260200190815260200160002083611dc4565b905092915050565b600073ffffffffffffffffffffffffffffffffffffffff16600a83836040516107df92919061360c565b908152602001604051809103902060020160009054906101000a900473ffffffffffffffffffffffffffffffffffffffff1673ffffffffffffffffffffffffffffffffffffffff1614610867576040517f08c379a000000000000000000000000000000000000000000000000000000000815260040161085e906139ad565b60405180910390fd5b6040518060600160405280428152602001600563ffffffff1667ffffffffffffffff8111156108bf577f4e487b7100000000000000000000000000000000000000000000000000000000600052604160045260246000fd5b6040519080825280602002602001820160405280156108ed5781602001602082028036833780820191505090505b5081526020016108fb6117ca565b73ffffffffffffffffffffffffffffffffffffffff16815250600a838360405161092692919061360c565b908152602001604051809103902060008201518160000155602082015181600101908051906020019061095a929190612c83565b5060408201518160020160006101000a81548173ffffffffffffffffffffffffffffffffffffffff021916908373ffffffffffffffffffffffffffffffffffffffff1602179055509050505050565b6000600760008373ffffffffffffffffffffffffffffffffffffffff1673ffffffffffffffffffffffffffffffffffffffff16815260200190815260200160002060009054906101000a900473ffffffffffffffffffffffffffffffffffffffff169050919050565b610a23610a1d6117ca565b82611f1c565b50565b600073ffffffffffffffffffffffffffffffffffffffff16600a8383604051610a5092919061360c565b908152602001604051809103902060020160009054906101000a900473ffffffffffffffffffffffffffffffffffffffff1673ffffffffffffffffffffffffffffffffffffffff161415610ad9576040517f08c379a0000000000000000000000000000000000000000000000000000000008152600401610ad09061390d565b60405180910390fd5b610b0c600a8383604051610aee92919061360c565b9081526020016040518091039020600101610b076117ca565b612036565b610b4b576040517f08c379a0000000000000000000000000000000000000000000000000000000008152600401610b429061398d565b60405180910390fd5b600a8282604051610b5d92919061360c565b9081526020016040518091039020600101610b766117ca565b9080600181540180825580915050600190039060005260206000200160009091909190916101000a81548173ffffffffffffffffffffffffffffffffffffffff021916908373ffffffffffffffffffffffffffffffffffffffff1602179055505050565b6000610c27600860008473ffffffffffffffffffffffffffffffffffffffff1673ffffffffffffffffffffffffffffffffffffffff16815260200190815260200160002080549050611731565b9050919050565b60008060008373ffffffffffffffffffffffffffffffffffffffff1673ffffffffffffffffffffffffffffffffffffffff168152602001908152602001600020549050919050565b6000610cbf600560008473ffffffffffffffffffffffffffffffffffffffff1673ffffffffffffffffffffffffffffffffffffffff168152602001908152602001600020612108565b9050919050565b6000438210610d0a576040517f08c379a0000000000000000000000000000000000000000000000000000000008152600401610d019061384d565b60405180910390fd5b610d15600983611dc4565b9050919050565b606060048054610d2b90613ddc565b80601f0160208091040260200160405190810160405280929190818152602001828054610d5790613ddc565b8015610da45780601f10610d7957610100808354040283529160200191610da4565b820191906000526020600020905b815481529060010190602001808311610d8757829003601f168201915b5050505050905090565b600080600860008473ffffffffffffffffffffffffffffffffffffffff1673ffffffffffffffffffffffffffffffffffffffff16815260200190815260200160002080549050905060008114610ebc57600860008473ffffffffffffffffffffffffffffffffffffffff1673ffffffffffffffffffffffffffffffffffffffff168152602001908152602001600020600182610e4a9190613ccf565b81548110610e81577f4e487b7100000000000000000000000000000000000000000000000000000000600052603260045260246000fd5b9060005260206000200160000160049054906101000a90047bffffffffffffffffffffffffffffffffffffffffffffffffffffffff16610ebf565b60005b7bffffffffffffffffffffffffffffffffffffffffffffffffffffffff16915050919050565b600080610ef06117ca565b90506000610efe82866112ac565b905083811015610f43576040517f08c379a0000000000000000000000000000000000000000000000000000000008152600401610f3a90613acd565b60405180910390fd5b610f5082868684036117d2565b60019250505092915050565b610f646117ca565b73ffffffffffffffffffffffffffffffffffffffff16600a8383604051610f8c92919061360c565b908152602001604051809103902060020160009054906101000a900473ffffffffffffffffffffffffffffffffffffffff1673ffffffffffffffffffffffffffffffffffffffff1614611014576040517f08c379a000000000000000000000000000000000000000000000000000000000815260040161100b90613a6d565b60405180910390fd5b61103f600a838360405161102992919061360c565b9081526020016040518091039020600101612116565b5050565b60008061104e6117ca565b905061105b818585611a29565b600191505092915050565b834211156110a9576040517f08c379a00000000000000000000000000000000000000000000000000000000081526004016110a09061386d565b60405180910390fd5b600061110b6111037fe48329057bfd03d55e49b547132e39cffd9c1820ad7b9d4c5307691425d15adf8989896040516020016110e8949392919061370e565b604051602081830303815290604052805190602001206121bd565b8585856121d7565b905061111681612202565b8614611157576040517f08c379a000000000000000000000000000000000000000000000000000000000815260040161114e906138ad565b60405180910390fd5b6111618188611f1c565b50505050505050565b834211156111ad576040517f08c379a00000000000000000000000000000000000000000000000000000000081526004016111a49061392d565b60405180910390fd5b60007f6e71edae12b1b97f4d1f60370fef10105fa2faae0126114a169c64845d6126c98888886111dc8c612202565b896040516020016111f2969594939291906136ad565b6040516020818303038152906040528051906020012090506000611215826121bd565b90506000611225828787876121d7565b90508973ffffffffffffffffffffffffffffffffffffffff168173ffffffffffffffffffffffffffffffffffffffff1614611295576040517f08c379a000000000000000000000000000000000000000000000000000000000815260040161128c906139ed565b60405180910390fd5b6112a08a8a8a6117d2565b50505050505050505050565b6000600160008473ffffffffffffffffffffffffffffffffffffffff1673ffffffffffffffffffffffffffffffffffffffff16815260200190815260200160002060008373ffffffffffffffffffffffffffffffffffffffff1673ffffffffffffffffffffffffffffffffffffffff16815260200190815260200160002054905092915050565b600a818051602081018201805184825260208301602085012081835280955050505050506000915090508060000154908060020160009054906101000a900473ffffffffffffffffffffffffffffffffffffffff16905082565b611395612d0d565b600860008473ffffffffffffffffffffffffffffffffffffffff1673ffffffffffffffffffffffffffffffffffffffff1681526020019081526020016000208263ffffffff1681548110611412577f4e487b7100000000000000000000000000000000000000000000000000000000600052603260045260246000fd5b906000526020600020016040518060400160405290816000820160009054906101000a900463ffffffff1663ffffffff1663ffffffff1681526020016000820160049054906101000a90047bffffffffffffffffffffffffffffffffffffffffffffffffffffffff167bffffffffffffffffffffffffffffffffffffffffffffffffffffffff167bffffffffffffffffffffffffffffffffffffffffffffffffffffffff1681525050905092915050565b6114cd8282611550565b6114d5612260565b7bffffffffffffffffffffffffffffffffffffffffffffffffffffffff166114fb610690565b111561153c576040517f08c379a000000000000000000000000000000000000000000000000000000000815260040161153390613a0d565b60405180910390fd5b61154a60096116b083612284565b50505050565b600073ffffffffffffffffffffffffffffffffffffffff168273ffffffffffffffffffffffffffffffffffffffff1614156115c0576040517f08c379a00000000000000000000000000000000000000000000000000000000081526004016115b790613aed565b60405180910390fd5b6115cc6000838361256e565b80600260008282546115de9190613c48565b92505081905550806000808473ffffffffffffffffffffffffffffffffffffffff1673ffffffffffffffffffffffffffffffffffffffff16815260200190815260200160002060008282546116339190613c48565b925050819055508173ffffffffffffffffffffffffffffffffffffffff16600073ffffffffffffffffffffffffffffffffffffffff167fddf252ad1be2c89b69c2b068fc378daa952ba7f163c4a11628f55a4df523b3ef836040516116989190613b28565b60405180910390a36116ac60008383612573565b5050565b600081836116be9190613c48565b905092915050565b60007bffffffffffffffffffffffffffffffffffffffffffffffffffffffff8016821115611729576040517f08c379a000000000000000000000000000000000000000000000000000000000815260040161172090613a2d565b60405180910390fd5b819050919050565b600063ffffffff801682111561177c576040517f08c379a000000000000000000000000000000000000000000000000000000000815260040161177390613a8d565b60405180910390fd5b819050919050565b61178f8383836117af565b6117aa61179b846109a9565b6117a4846109a9565b83612583565b505050565b505050565b600081836117c29190613ccf565b905092915050565b600033905090565b600073ffffffffffffffffffffffffffffffffffffffff168373ffffffffffffffffffffffffffffffffffffffff161415611842576040517f08c379a000000000000000000000000000000000000000000000000000000000815260040161183990613aad565b60405180910390fd5b600073ffffffffffffffffffffffffffffffffffffffff168273ffffffffffffffffffffffffffffffffffffffff1614156118b2576040517f08c379a00000000000000000000000000000000000000000000000000000000081526004016118a9906138cd565b60405180910390fd5b80600160008573ffffffffffffffffffffffffffffffffffffffff1673ffffffffffffffffffffffffffffffffffffffff16815260200190815260200160002060008473ffffffffffffffffffffffffffffffffffffffff1673ffffffffffffffffffffffffffffffffffffffff168152602001908152602001600020819055508173ffffffffffffffffffffffffffffffffffffffff168373ffffffffffffffffffffffffffffffffffffffff167f8c5be1e5ebec7d5bd14f71427d1e84f3dd0314c0f7b2291e5b200ac8c7c3b925836040516119909190613b28565b60405180910390a3505050565b60006119a984846112ac565b90507fffffffffffffffffffffffffffffffffffffffffffffffffffffffffffffffff8114611a235781811015611a15576040517f08c379a0000000000000000000000000000000000000000000000000000000008152600401611a0c906138ed565b60405180910390fd5b611a2284848484036117d2565b5b50505050565b600073ffffffffffffffffffffffffffffffffffffffff168373ffffffffffffffffffffffffffffffffffffffff161415611a99576040517f08c379a0000000000000000000000000000000000000000000000000000000008152600401611a9090613a4d565b60405180910390fd5b600073ffffffffffffffffffffffffffffffffffffffff168273ffffffffffffffffffffffffffffffffffffffff161415611b09576040517f08c379a0000000000000000000000000000000000000000000000000000000008152600401611b009061382d565b60405180910390fd5b611b1483838361256e565b60008060008573ffffffffffffffffffffffffffffffffffffffff1673ffffffffffffffffffffffffffffffffffffffff16815260200190815260200160002054905081811015611b9a576040517f08c379a0000000000000000000000000000000000000000000000000000000008152600401611b919061394d565b60405180910390fd5b8181036000808673ffffffffffffffffffffffffffffffffffffffff1673ffffffffffffffffffffffffffffffffffffffff16815260200190815260200160002081905550816000808573ffffffffffffffffffffffffffffffffffffffff1673ffffffffffffffffffffffffffffffffffffffff1681526020019081526020016000206000828254611c2d9190613c48565b925050819055508273ffffffffffffffffffffffffffffffffffffffff168473ffffffffffffffffffffffffffffffffffffffff167fddf252ad1be2c89b69c2b068fc378daa952ba7f163c4a11628f55a4df523b3ef84604051611c919190613b28565b60405180910390a3611ca4848484612573565b50505050565b60007f000000000000000000000000000000000000000000000000000000000000000073ffffffffffffffffffffffffffffffffffffffff163073ffffffffffffffffffffffffffffffffffffffff16148015611d2657507f000000000000000000000000000000000000000000000000000000000000000046145b15611d53577f00000000000000000000000000000000000000000000000000000000000000009050611dc1565b611dbe7f00000000000000000000000000000000000000000000000000000000000000007f00000000000000000000000000000000000000000000000000000000000000007f000000000000000000000000000000000000000000000000000000000000000061277c565b90505b90565b6000808380549050905060005b81811015611e69576000611de582846127b6565b905084868281548110611e21577f4e487b7100000000000000000000000000000000000000000000000000000000600052603260045260246000fd5b9060005260206000200160000160009054906101000a900463ffffffff1663ffffffff161115611e5357809250611e63565b600181611e609190613c48565b91505b50611dd1565b60008214611ef15784600183611e7f9190613ccf565b81548110611eb6577f4e487b7100000000000000000000000000000000000000000000000000000000600052603260045260246000fd5b9060005260206000200160000160049054906101000a90047bffffffffffffffffffffffffffffffffffffffffffffffffffffffff16611ef4565b60005b7bffffffffffffffffffffffffffffffffffffffffffffffffffffffff169250505092915050565b6000611f27836109a9565b90506000611f3484610c2e565b905082600760008673ffffffffffffffffffffffffffffffffffffffff1673ffffffffffffffffffffffffffffffffffffffff16815260200190815260200160002060006101000a81548173ffffffffffffffffffffffffffffffffffffffff021916908373ffffffffffffffffffffffffffffffffffffffff1602179055508273ffffffffffffffffffffffffffffffffffffffff168273ffffffffffffffffffffffffffffffffffffffff168573ffffffffffffffffffffffffffffffffffffffff167f3134e8a2e6d97e929a7e54011ea5485d7d196dd5f0ba4d4ef95803e8e3fc257f60405160405180910390a4612030828483612583565b50505050565b600080600090505b83805490508110156120fc578273ffffffffffffffffffffffffffffffffffffffff1684828154811061209a577f4e487b7100000000000000000000000000000000000000000000000000000000600052603260045260246000fd5b9060005260206000200160009054906101000a900473ffffffffffffffffffffffffffffffffffffffff1673ffffffffffffffffffffffffffffffffffffffff1614156120eb576000915050612102565b806120f590613e3f565b905061203e565b50600190505b92915050565b600081600001549050919050565b60005b81805490508110156121b9576000828281548110612160577f4e487b7100000000000000000000000000000000000000000000000000000000600052603260045260246000fd5b9060005260206000200160006101000a81548173ffffffffffffffffffffffffffffffffffffffff021916908373ffffffffffffffffffffffffffffffffffffffff160217905550806121b290613e3f565b9050612119565b5050565b60006121d06121ca611caa565b836127dc565b9050919050565b60008060006121e88787878761280f565b915091506121f58161291c565b8192505050949350505050565b600080600560008473ffffffffffffffffffffffffffffffffffffffff1673ffffffffffffffffffffffffffffffffffffffff168152602001908152602001600020905061224f81612108565b915061225a81612c6d565b50919050565b60007bffffffffffffffffffffffffffffffffffffffffffffffffffffffff905090565b6000806000858054905090506000811461231857856001826122a69190613ccf565b815481106122dd577f4e487b7100000000000000000000000000000000000000000000000000000000600052603260045260246000fd5b9060005260206000200160000160049054906101000a90047bffffffffffffffffffffffffffffffffffffffffffffffffffffffff1661231b565b60005b7bffffffffffffffffffffffffffffffffffffffffffffffffffffffff16925061234983858763ffffffff16565b91506000811180156123c2575043866001836123659190613ccf565b8154811061239c577f4e487b7100000000000000000000000000000000000000000000000000000000600052603260045260246000fd5b9060005260206000200160000160009054906101000a900463ffffffff1663ffffffff16145b15612475576123d0826116c6565b866001836123de9190613ccf565b81548110612415577f4e487b7100000000000000000000000000000000000000000000000000000000600052603260045260246000fd5b9060005260206000200160000160046101000a8154817bffffffffffffffffffffffffffffffffffffffffffffffffffffffff02191690837bffffffffffffffffffffffffffffffffffffffffffffffffffffffff160217905550612565565b85604051806040016040528061248a43611731565b63ffffffff16815260200161249e856116c6565b7bffffffffffffffffffffffffffffffffffffffffffffffffffffffff168152509080600181540180825580915050600190039060005260206000200160009091909190915060008201518160000160006101000a81548163ffffffff021916908363ffffffff16021790555060208201518160000160046101000a8154817bffffffffffffffffffffffffffffffffffffffffffffffffffffffff02191690837bffffffffffffffffffffffffffffffffffffffffffffffffffffffff16021790555050505b50935093915050565b505050565b61257e838383611784565b505050565b8173ffffffffffffffffffffffffffffffffffffffff168373ffffffffffffffffffffffffffffffffffffffff16141580156125bf5750600081115b1561277757600073ffffffffffffffffffffffffffffffffffffffff168373ffffffffffffffffffffffffffffffffffffffff161461269d57600080612646600860008773ffffffffffffffffffffffffffffffffffffffff1673ffffffffffffffffffffffffffffffffffffffff1681526020019081526020016000206117b485612284565b915091508473ffffffffffffffffffffffffffffffffffffffff167fdec2bacdd2f05b59de34da9b523dff8be42e5e38e818c82fdb0bae774387a7248383604051612692929190613b6c565b60405180910390a250505b600073ffffffffffffffffffffffffffffffffffffffff168273ffffffffffffffffffffffffffffffffffffffff16146127765760008061271f600860008673ffffffffffffffffffffffffffffffffffffffff1673ffffffffffffffffffffffffffffffffffffffff1681526020019081526020016000206116b085612284565b915091508373ffffffffffffffffffffffffffffffffffffffff167fdec2bacdd2f05b59de34da9b523dff8be42e5e38e818c82fdb0bae774387a724838360405161276b929190613b6c565b60405180910390a250505b5b505050565b60008383834630604051602001612797959493929190613753565b6040516020818303038152906040528051906020012090509392505050565b600060028284186127c79190613c9e565b8284166127d49190613c48565b905092915050565b600082826040516020016127f1929190613625565b60405160208183030381529060405280519060200120905092915050565b6000807f7fffffffffffffffffffffffffffffff5d576e7357a4501ddfe92f46681b20a08360001c111561284a576000600391509150612913565b601b8560ff16141580156128625750601c8560ff1614155b15612874576000600491509150612913565b60006001878787876040516000815260200160405260405161289994939291906137a6565b6020604051602081039080840390855afa1580156128bb573d6000803e3d6000fd5b505050602060405103519050600073ffffffffffffffffffffffffffffffffffffffff168173ffffffffffffffffffffffffffffffffffffffff16141561290a57600060019250925050612913565b80600092509250505b94509492505050565b60006004811115612956577f4e487b7100000000000000000000000000000000000000000000000000000000600052602160045260246000fd5b81600481111561298f577f4e487b7100000000000000000000000000000000000000000000000000000000600052602160045260246000fd5b141561299a57612c6a565b600160048111156129d4577f4e487b7100000000000000000000000000000000000000000000000000000000600052602160045260246000fd5b816004811115612a0d577f4e487b7100000000000000000000000000000000000000000000000000000000600052602160045260246000fd5b1415612a4e576040517f08c379a0000000000000000000000000000000000000000000000000000000008152600401612a459061380d565b60405180910390fd5b60026004811115612a88577f4e487b7100000000000000000000000000000000000000000000000000000000600052602160045260246000fd5b816004811115612ac1577f4e487b7100000000000000000000000000000000000000000000000000000000600052602160045260246000fd5b1415612b02576040517f08c379a0000000000000000000000000000000000000000000000000000000008152600401612af99061388d565b60405180910390fd5b60036004811115612b3c577f4e487b7100000000000000000000000000000000000000000000000000000000600052602160045260246000fd5b816004811115612b75577f4e487b7100000000000000000000000000000000000000000000000000000000600052602160045260246000fd5b1415612bb6576040517f08c379a0000000000000000000000000000000000000000000000000000000008152600401612bad9061396d565b60405180910390fd5b600480811115612bef577f4e487b7100000000000000000000000000000000000000000000000000000000600052602160045260246000fd5b816004811115612c28577f4e487b7100000000000000000000000000000000000000000000000000000000600052602160045260246000fd5b1415612c69576040517f08c379a0000000000000000000000000000000000000000000000000000000008152600401612c60906139cd565b60405180910390fd5b5b50565b6001816000016000828254019250508190555050565b828054828255906000526020600020908101928215612cfc579160200282015b82811115612cfb5782518260006101000a81548173ffffffffffffffffffffffffffffffffffffffff021916908373ffffffffffffffffffffffffffffffffffffffff16021790555091602001919060010190612ca3565b5b509050612d099190612d4b565b5090565b6040518060400160405280600063ffffffff16815260200160007bffffffffffffffffffffffffffffffffffffffffffffffffffffffff1681525090565b5b80821115612d64576000816000905550600101612d4c565b5090565b6000612d7b612d7684613bf0565b613bcb565b905082815260208101848484011115612d9357600080fd5b612d9e848285613d9a565b509392505050565b600081359050612db581614574565b92915050565b600081359050612dca8161458b565b92915050565b60008083601f840112612de257600080fd5b8235905067ffffffffffffffff811115612dfb57600080fd5b602083019150836001820283011115612e1357600080fd5b9250929050565b600082601f830112612e2b57600080fd5b8135612e3b848260208601612d68565b91505092915050565b600081359050612e53816145a2565b92915050565b600081359050612e68816145b9565b92915050565b600081359050612e7d816145d0565b92915050565b600060208284031215612e9557600080fd5b6000612ea384828501612da6565b91505092915050565b60008060408385031215612ebf57600080fd5b6000612ecd85828601612da6565b9250506020612ede85828601612da6565b9150509250929050565b600080600060608486031215612efd57600080fd5b6000612f0b86828701612da6565b9350506020612f1c86828701612da6565b9250506040612f2d86828701612e44565b9150509250925092565b600080600080600080600060e0888a031215612f5257600080fd5b6000612f608a828b01612da6565b9750506020612f718a828b01612da6565b9650506040612f828a828b01612e44565b9550506060612f938a828b01612e44565b9450506080612fa48a828b01612e6e565b93505060a0612fb58a828b01612dbb565b92505060c0612fc68a828b01612dbb565b91505092959891949750929550565b60008060408385031215612fe857600080fd5b6000612ff685828601612da6565b925050602061300785828601612e44565b9150509250929050565b60008060008060008060c0878903121561302a57600080fd5b600061303889828a01612da6565b965050602061304989828a01612e44565b955050604061305a89828a01612e44565b945050606061306b89828a01612e6e565b935050608061307c89828a01612dbb565b92505060a061308d89828a01612dbb565b9150509295509295509295565b600080604083850312156130ad57600080fd5b60006130bb85828601612da6565b92505060206130cc85828601612e59565b9150509250929050565b600080602083850312156130e957600080fd5b600083013567ffffffffffffffff81111561310357600080fd5b61310f85828601612dd0565b92509250509250929050565b60006020828403121561312d57600080fd5b600082013567ffffffffffffffff81111561314757600080fd5b61315384828501612e1a565b91505092915050565b60006020828403121561316e57600080fd5b600061317c84828501612e44565b91505092915050565b61318e81613d03565b82525050565b61319d81613d15565b82525050565b6131ac81613d21565b82525050565b6131c36131be82613d21565b613e88565b82525050565b60006131d58385613c3d565b93506131e2838584613d9a565b82840190509392505050565b60006131f982613c21565b6132038185613c2c565b9350613213818560208601613da9565b61321c81613f4e565b840191505092915050565b6000613234601883613c2c565b915061323f82613f5f565b602082019050919050565b6000613257602383613c2c565b915061326282613f88565b604082019050919050565b600061327a601f83613c2c565b915061328582613fd7565b602082019050919050565b600061329d601d83613c2c565b91506132a882614000565b602082019050919050565b60006132c0601f83613c2c565b91506132cb82614029565b602082019050919050565b60006132e3601983613c2c565b91506132ee82614052565b602082019050919050565b6000613306602283613c2c565b91506133118261407b565b604082019050919050565b6000613329600283613c3d565b9150613334826140ca565b600282019050919050565b600061334c601d83613c2c565b9150613357826140f3565b602082019050919050565b600061336f602083613c2c565b915061337a8261411c565b602082019050919050565b6000613392601d83613c2c565b915061339d82614145565b602082019050919050565b60006133b5602683613c2c565b91506133c08261416e565b604082019050919050565b60006133d8602283613c2c565b91506133e3826141bd565b604082019050919050565b60006133fb602883613c2c565b91506134068261420c565b604082019050919050565b600061341e602583613c2c565b91506134298261425b565b604082019050919050565b6000613441602283613c2c565b915061344c826142aa565b604082019050919050565b6000613464601e83613c2c565b915061346f826142f9565b602082019050919050565b6000613487603083613c2c565b915061349282614322565b604082019050919050565b60006134aa602783613c2c565b91506134b582614371565b604082019050919050565b60006134cd602583613c2c565b91506134d8826143c0565b604082019050919050565b60006134f0602983613c2c565b91506134fb8261440f565b604082019050919050565b6000613513602683613c2c565b915061351e8261445e565b604082019050919050565b6000613536602483613c2c565b9150613541826144ad565b604082019050919050565b6000613559602583613c2c565b9150613564826144fc565b604082019050919050565b600061357c601f83613c2c565b91506135878261454b565b602082019050919050565b6040820160008201516135a860008501826135df565b5060208201516135bb60208501826135c1565b50505050565b6135ca81613d4b565b82525050565b6135d981613d73565b82525050565b6135e881613d7d565b82525050565b6135f781613d7d565b82525050565b61360681613d8d565b82525050565b60006136198284866131c9565b91508190509392505050565b60006136308261331c565b915061363c82856131b2565b60208201915061364c82846131b2565b6020820191508190509392505050565b60006020820190506136716000830184613185565b92915050565b600060208201905061368c6000830184613194565b92915050565b60006020820190506136a760008301846131a3565b92915050565b600060c0820190506136c260008301896131a3565b6136cf6020830188613185565b6136dc6040830187613185565b6136e960608301866135d0565b6136f660808301856135d0565b61370360a08301846135d0565b979650505050505050565b600060808201905061372360008301876131a3565b6137306020830186613185565b61373d60408301856135d0565b61374a60608301846135d0565b95945050505050565b600060a08201905061376860008301886131a3565b61377560208301876131a3565b61378260408301866131a3565b61378f60608301856135d0565b61379c6080830184613185565b9695505050505050565b60006080820190506137bb60008301876131a3565b6137c860208301866135fd565b6137d560408301856131a3565b6137e260608301846131a3565b95945050505050565b6000602082019050818103600083015261380581846131ee565b905092915050565b6000602082019050818103600083015261382681613227565b9050919050565b600060208201905081810360008301526138468161324a565b9050919050565b600060208201905081810360008301526138668161326d565b9050919050565b6000602082019050818103600083015261388681613290565b9050919050565b600060208201905081810360008301526138a6816132b3565b9050919050565b600060208201905081810360008301526138c6816132d6565b9050919050565b600060208201905081810360008301526138e6816132f9565b9050919050565b600060208201905081810360008301526139068161333f565b9050919050565b6000602082019050818103600083015261392681613362565b9050919050565b6000602082019050818103600083015261394681613385565b9050919050565b60006020820190508181036000830152613966816133a8565b9050919050565b60006020820190508181036000830152613986816133cb565b9050919050565b600060208201905081810360008301526139a6816133ee565b9050919050565b600060208201905081810360008301526139c681613411565b9050919050565b600060208201905081810360008301526139e681613434565b9050919050565b60006020820190508181036000830152613a0681613457565b9050919050565b60006020820190508181036000830152613a268161347a565b9050919050565b60006020820190508181036000830152613a468161349d565b9050919050565b60006020820190508181036000830152613a66816134c0565b9050919050565b60006020820190508181036000830152613a86816134e3565b9050919050565b60006020820190508181036000830152613aa681613506565b9050919050565b60006020820190508181036000830152613ac681613529565b9050919050565b60006020820190508181036000830152613ae68161354c565b9050919050565b60006020820190508181036000830152613b068161356f565b9050919050565b6000604082019050613b226000830184613592565b92915050565b6000602082019050613b3d60008301846135d0565b92915050565b6000604082019050613b5860008301856135d0565b613b656020830184613185565b9392505050565b6000604082019050613b8160008301856135d0565b613b8e60208301846135d0565b9392505050565b6000602082019050613baa60008301846135ee565b92915050565b6000602082019050613bc560008301846135fd565b92915050565b6000613bd5613be6565b9050613be18282613e0e565b919050565b6000604051905090565b600067ffffffffffffffff821115613c0b57613c0a613f1f565b5b613c1482613f4e565b9050602081019050919050565b600081519050919050565b600082825260208201905092915050565b600081905092915050565b6000613c5382613d73565b9150613c5e83613d73565b9250827fffffffffffffffffffffffffffffffffffffffffffffffffffffffffffffffff03821115613c9357613c92613e92565b5b828201905092915050565b6000613ca982613d73565b9150613cb483613d73565b925082613cc457613cc3613ec1565b5b828204905092915050565b6000613cda82613d73565b9150613ce583613d73565b925082821015613cf857613cf7613e92565b5b828203905092915050565b6000613d0e82613d2b565b9050919050565b60008115159050919050565b6000819050919050565b600073ffffffffffffffffffffffffffffffffffffffff82169050919050565b60007bffffffffffffffffffffffffffffffffffffffffffffffffffffffff82169050919050565b6000819050919050565b600063ffffffff82169050919050565b600060ff82169050919050565b82818337600083830152505050565b60005b83811015613dc7578082015181840152602081019050613dac565b83811115613dd6576000848401525b50505050565b60006002820490506001821680613df457607f821691505b60208210811415613e0857613e07613ef0565b5b50919050565b613e1782613f4e565b810181811067ffffffffffffffff82111715613e3657613e35613f1f565b5b80604052505050565b6000613e4a82613d73565b91507fffffffffffffffffffffffffffffffffffffffffffffffffffffffffffffffff821415613e7d57613e7c613e92565b5b600182019050919050565b6000819050919050565b7f4e487b7100000000000000000000000000000000000000000000000000000000600052601160045260246000fd5b7f4e487b7100000000000000000000000000000000000000000000000000000000600052601260045260246000fd5b7f4e487b7100000000000000000000000000000000000000000000000000000000600052602260045260246000fd5b7f4e487b7100000000000000000000000000000000000000000000000000000000600052604160045260246000fd5b6000601f19601f8301169050919050565b7f45434453413a20696e76616c6964207369676e61747572650000000000000000600082015250565b7f45524332303a207472616e7366657220746f20746865207a65726f206164647260008201527f6573730000000000000000000000000000000000000000000000000000000000602082015250565b7f4552433230566f7465733a20626c6f636b206e6f7420796574206d696e656400600082015250565b7f4552433230566f7465733a207369676e61747572652065787069726564000000600082015250565b7f45434453413a20696e76616c6964207369676e6174757265206c656e67746800600082015250565b7f4552433230566f7465733a20696e76616c6964206e6f6e636500000000000000600082015250565b7f45524332303a20617070726f766520746f20746865207a65726f20616464726560008201527f7373000000000000000000000000000000000000000000000000000000000000602082015250565b7f1901000000000000000000000000000000000000000000000000000000000000600082015250565b7f45524332303a20696e73756666696369656e7420616c6c6f77616e6365000000600082015250565b7f4e6f206d616e75736372697074206f6620676976656e20494420657869737473600082015250565b7f45524332305065726d69743a206578706972656420646561646c696e65000000600082015250565b7f45524332303a207472616e7366657220616d6f756e742065786365656473206260008201527f616c616e63650000000000000000000000000000000000000000000000000000602082015250565b7f45434453413a20696e76616c6964207369676e6174757265202773272076616c60008201527f7565000000000000000000000000000000000000000000000000000000000000602082015250565b7f52657669657720616c7265616479207375626d6974746564206279207468697360008201527f2061646472657373000000000000000000000000000000000000000000000000602082015250565b7f4d616e75736372697074206f6620676976656e20494420616c7265616479206560008201527f7869737473000000000000000000000000000000000000000000000000000000602082015250565b7f45434453413a20696e76616c6964207369676e6174757265202776272076616c60008201527f7565000000000000000000000000000000000000000000000000000000000000602082015250565b7f45524332305065726d69743a20696e76616c6964207369676e61747572650000600082015250565b7f4552433230566f7465733a20746f74616c20737570706c79207269736b73206f60008201527f766572666c6f77696e6720766f74657300000000000000000000000000000000602082015250565b7f53616665436173743a2076616c756520646f65736e27742066697420696e203260008201527f3234206269747300000000000000000000000000000000000000000000000000602082015250565b7f45524332303a207472616e736665722066726f6d20746865207a65726f20616460008201527f6472657373000000000000000000000000000000000000000000000000000000602082015250565b7f4f6e6c792074686520617574686f722063616e2072657375626d69742061206d60008201527f616e757363726970740000000000000000000000000000000000000000000000602082015250565b7f53616665436173743a2076616c756520646f65736e27742066697420696e203360008201527f3220626974730000000000000000000000000000000000000000000000000000602082015250565b7f45524332303a20617070726f76652066726f6d20746865207a65726f2061646460008201527f7265737300000000000000000000000000000000000000000000000000000000602082015250565b7f45524332303a2064656372656173656420616c6c6f77616e63652062656c6f7760008201527f207a65726f000000000000000000000000000000000000000000000000000000602082015250565b7f45524332303a206d696e7420746f20746865207a65726f206164647265737300600082015250565b61457d81613d03565b811461458857600080fd5b50565b61459481613d21565b811461459f57600080fd5b50565b6145ab81613d73565b81146145b657600080fd5b50565b6145c281613d7d565b81146145cd57600080fd5b50565b6145d981613d8d565b81146145e457600080fd5b5056fea26469706673582212203c2146a5be88e8bf00a857c5f9421e9f3af06c7bc8c36ea1c20b7d73c944249e64736f6c63430008040033",
  "immutableReferences": {
    "8866": [
      {
        "length": 32,
        "start": 7469
      }
    ],
    "8868": [
      {
        "length": 32,
        "start": 7428
      }
    ],
    "8870": [
      {
        "length": 32,
        "start": 7342
      }
    ],
    "8872": [
      {
        "length": 32,
        "start": 7545
      }
    ],
    "8874": [
      {
        "length": 32,
        "start": 7578
      }
    ],
    "8876": [
      {
        "length": 32,
        "start": 7512
      }
    ]
  },
  "source": "// SPDX-License-Identifier: MIT\npragma solidity ^0.8.2;\n\nimport \"@openzeppelin/contracts/token/ERC20/ERC20.sol\";\nimport \"@openzeppelin/contracts/token/ERC20/extensions/draft-ERC20Permit.sol\";\nimport \"@openzeppelin/contracts/token/ERC20/extensions/ERC20Votes.sol\";\n\ncontract DPubToken is ERC20, ERC20Permit, ERC20Votes {\n    struct ManuscriptData {\n        uint256 timestamp;\n        address[] reviews;\n        address author;\n    }\n    mapping(string => ManuscriptData) public submittedManuscripts;\n    uint32 constant minReviews = 5;\n    uint256 submitCost = 100;\n    uint256 resubmitCost = 50;\n\n    constructor() ERC20(\"DPubToken\", \"DPTK\") ERC20Permit(\"DPubToken\") {\n        _mint(msg.sender, 1000000 * 10 ** decimals());\n    }\n\n    // Submits a manuscript to the blockchain by its id and the address of the author.\n    // Allocates the memory for the array of addresses of the reviewers.\n    function submitManuscript(string calldata idManuscript) public {\n        require(\n            submittedManuscripts[idManuscript].author == address(0),\n            \"Manuscript of given ID already exists\");\n        submittedManuscripts[idManuscript] = ManuscriptData(\n            block.timestamp,\n            new address[](minReviews),\n            _msgSender()\n        );\n    }\n    \n    function _resetReviews(address[] storage reviews) internal {\n        for (uint256 i = 0; i < reviews.length; ++i) {\n            reviews[i] = address(0);\n        }\n    }\n\n    // Expects the manuscript to have been updated by the author in another interface.\n    // This function merely resets the state of the manuscript to be reviewed again.\n    function resubmitManuscript(string calldata idManuscript) public {\n        require(\n            submittedManuscripts[idManuscript].author == _msgSender(),\n            \"Only the author can resubmit a manuscript\"\n        );\n        _resetReviews(submittedManuscripts[idManuscript].reviews);\n    }\n\n    function _reviewNotPresent(address[] storage reviews, address reviewer)\n        internal view returns (bool) {\n        for (uint256 i = 0; i < reviews.length; ++i) {\n            if (reviews[i] == reviewer) {\n                return false;\n            }\n        }\n        return true;\n    }\n\n    function submitReview(string calldata idManuscript) public {\n        require(\n            submittedManuscripts[idManuscript].author != address(0),\n            \"No manuscript of given ID exists\"\n        );\n        require(\n            _reviewNotPresent(submittedManuscripts[idManuscript].reviews, _msgSender()),\n            \"Review already submitted by this address\"\n        );\n        submittedManuscripts[idManuscript].reviews.push(_msgSender());\n    }\n\n    function minimumReviews() public pure returns (uint32) {\n        return minReviews;\n    }\n\n    // The following functions are overrides required by Solidity.\n\n    function _afterTokenTransfer(address from, address to, uint256 amount)\n        internal override(ERC20, ERC20Votes)\n    {\n        super._afterTokenTransfer(from, to, amount);\n    }\n\n    function _mint(address to, uint256 amount)\n        internal\n        override(ERC20, ERC20Votes)\n    {\n        super._mint(to, amount);\n    }\n\n    function _burn(address account, uint256 amount)\n        internal\n        override(ERC20, ERC20Votes)\n    {\n        super._burn(account, amount);\n    }\n}",
  "sourcePath": "C:\\Users\\Marcelo\\Repositories\\Dpublish\\contracts\\DPubToken.sol",
  "compiler": {
    "name": "solc",
    "version": "0.8.4+commit.c7e474f2.Emscripten.clang"
  },
  "schemaVersion": "3.4.10",
  "updatedAt": "2022-12-16T02:46:02.228Z",
  "networkType": "ethereum",
  "devdoc": {
    "kind": "dev",
    "methods": {
      "DOMAIN_SEPARATOR()": {
        "details": "See {IERC20Permit-DOMAIN_SEPARATOR}."
      },
      "allowance(address,address)": {
        "details": "See {IERC20-allowance}."
      },
      "approve(address,uint256)": {
        "details": "See {IERC20-approve}. NOTE: If `amount` is the maximum `uint256`, the allowance is not updated on `transferFrom`. This is semantically equivalent to an infinite approval. Requirements: - `spender` cannot be the zero address."
      },
      "balanceOf(address)": {
        "details": "See {IERC20-balanceOf}."
      },
      "checkpoints(address,uint32)": {
        "details": "Get the `pos`-th checkpoint for `account`."
      },
      "decimals()": {
        "details": "Returns the number of decimals used to get its user representation. For example, if `decimals` equals `2`, a balance of `505` tokens should be displayed to a user as `5.05` (`505 / 10 ** 2`). Tokens usually opt for a value of 18, imitating the relationship between Ether and Wei. This is the value {ERC20} uses, unless this function is overridden; NOTE: This information is only used for _display_ purposes: it in no way affects any of the arithmetic of the contract, including {IERC20-balanceOf} and {IERC20-transfer}."
      },
      "decreaseAllowance(address,uint256)": {
        "details": "Atomically decreases the allowance granted to `spender` by the caller. This is an alternative to {approve} that can be used as a mitigation for problems described in {IERC20-approve}. Emits an {Approval} event indicating the updated allowance. Requirements: - `spender` cannot be the zero address. - `spender` must have allowance for the caller of at least `subtractedValue`."
      },
      "delegate(address)": {
        "details": "Delegate votes from the sender to `delegatee`."
      },
      "delegateBySig(address,uint256,uint256,uint8,bytes32,bytes32)": {
        "details": "Delegates votes from signer to `delegatee`"
      },
      "delegates(address)": {
        "details": "Get the address `account` is currently delegating to."
      },
      "getPastTotalSupply(uint256)": {
        "details": "Retrieve the `totalSupply` at the end of `blockNumber`. Note, this value is the sum of all balances. It is but NOT the sum of all the delegated votes! Requirements: - `blockNumber` must have been already mined"
      },
      "getPastVotes(address,uint256)": {
        "details": "Retrieve the number of votes for `account` at the end of `blockNumber`. Requirements: - `blockNumber` must have been already mined"
      },
      "getVotes(address)": {
        "details": "Gets the current votes balance for `account`"
      },
      "increaseAllowance(address,uint256)": {
        "details": "Atomically increases the allowance granted to `spender` by the caller. This is an alternative to {approve} that can be used as a mitigation for problems described in {IERC20-approve}. Emits an {Approval} event indicating the updated allowance. Requirements: - `spender` cannot be the zero address."
      },
      "name()": {
        "details": "Returns the name of the token."
      },
      "nonces(address)": {
        "details": "See {IERC20Permit-nonces}."
      },
      "numCheckpoints(address)": {
        "details": "Get number of checkpoints for `account`."
      },
      "permit(address,address,uint256,uint256,uint8,bytes32,bytes32)": {
        "details": "See {IERC20Permit-permit}."
      },
      "symbol()": {
        "details": "Returns the symbol of the token, usually a shorter version of the name."
      },
      "totalSupply()": {
        "details": "See {IERC20-totalSupply}."
      },
      "transfer(address,uint256)": {
        "details": "See {IERC20-transfer}. Requirements: - `to` cannot be the zero address. - the caller must have a balance of at least `amount`."
      },
      "transferFrom(address,address,uint256)": {
        "details": "See {IERC20-transferFrom}. Emits an {Approval} event indicating the updated allowance. This is not required by the EIP. See the note at the beginning of {ERC20}. NOTE: Does not update the allowance if the current allowance is the maximum `uint256`. Requirements: - `from` and `to` cannot be the zero address. - `from` must have a balance of at least `amount`. - the caller must have allowance for ``from``'s tokens of at least `amount`."
      }
    },
    "version": 1
  },
  "userdoc": {
    "kind": "user",
    "methods": {},
    "version": 1
  }
}