{
  "contractName": "DPubGovernor",
  "abi": [
    {
      "inputs": [
        {
          "internalType": "contract ERC20Votes",
          "name": "_token",
          "type": "address"
        },
        {
          "internalType": "contract TimelockController",
          "name": "_timelock",
          "type": "address"
        }
      ],
      "stateMutability": "nonpayable",
      "type": "constructor"
    },
    {
      "anonymous": false,
      "inputs": [
        {
          "indexed": false,
          "internalType": "uint256",
          "name": "proposalId",
          "type": "uint256"
        }
      ],
      "name": "ProposalCanceled",
      "type": "event"
    },
    {
      "anonymous": false,
      "inputs": [
        {
          "indexed": false,
          "internalType": "uint256",
          "name": "proposalId",
          "type": "uint256"
        },
        {
          "indexed": false,
          "internalType": "address",
          "name": "proposer",
          "type": "address"
        },
        {
          "indexed": false,
          "internalType": "address[]",
          "name": "targets",
          "type": "address[]"
        },
        {
          "indexed": false,
          "internalType": "uint256[]",
          "name": "values",
          "type": "uint256[]"
        },
        {
          "indexed": false,
          "internalType": "string[]",
          "name": "signatures",
          "type": "string[]"
        },
        {
          "indexed": false,
          "internalType": "bytes[]",
          "name": "calldatas",
          "type": "bytes[]"
        },
        {
          "indexed": false,
          "internalType": "uint256",
          "name": "startBlock",
          "type": "uint256"
        },
        {
          "indexed": false,
          "internalType": "uint256",
          "name": "endBlock",
          "type": "uint256"
        },
        {
          "indexed": false,
          "internalType": "string",
          "name": "description",
          "type": "string"
        }
      ],
      "name": "ProposalCreated",
      "type": "event"
    },
    {
      "anonymous": false,
      "inputs": [
        {
          "indexed": false,
          "internalType": "uint256",
          "name": "proposalId",
          "type": "uint256"
        }
      ],
      "name": "ProposalExecuted",
      "type": "event"
    },
    {
      "anonymous": false,
      "inputs": [
        {
          "indexed": false,
          "internalType": "uint256",
          "name": "proposalId",
          "type": "uint256"
        },
        {
          "indexed": false,
          "internalType": "uint256",
          "name": "eta",
          "type": "uint256"
        }
      ],
      "name": "ProposalQueued",
      "type": "event"
    },
    {
      "anonymous": false,
      "inputs": [
        {
          "indexed": false,
          "internalType": "uint256",
          "name": "oldQuorumNumerator",
          "type": "uint256"
        },
        {
          "indexed": false,
          "internalType": "uint256",
          "name": "newQuorumNumerator",
          "type": "uint256"
        }
      ],
      "name": "QuorumNumeratorUpdated",
      "type": "event"
    },
    {
      "anonymous": false,
      "inputs": [
        {
          "indexed": false,
          "internalType": "address",
          "name": "oldTimelock",
          "type": "address"
        },
        {
          "indexed": false,
          "internalType": "address",
          "name": "newTimelock",
          "type": "address"
        }
      ],
      "name": "TimelockChange",
      "type": "event"
    },
    {
      "anonymous": false,
      "inputs": [
        {
          "indexed": true,
          "internalType": "address",
          "name": "voter",
          "type": "address"
        },
        {
          "indexed": false,
          "internalType": "uint256",
          "name": "proposalId",
          "type": "uint256"
        },
        {
          "indexed": false,
          "internalType": "uint8",
          "name": "support",
          "type": "uint8"
        },
        {
          "indexed": false,
          "internalType": "uint256",
          "name": "weight",
          "type": "uint256"
        },
        {
          "indexed": false,
          "internalType": "string",
          "name": "reason",
          "type": "string"
        }
      ],
      "name": "VoteCast",
      "type": "event"
    },
    {
      "inputs": [],
      "name": "BALLOT_TYPEHASH",
      "outputs": [
        {
          "internalType": "bytes32",
          "name": "",
          "type": "bytes32"
        }
      ],
      "stateMutability": "view",
      "type": "function"
    },
    {
      "inputs": [],
      "name": "COUNTING_MODE",
      "outputs": [
        {
          "internalType": "string",
          "name": "",
          "type": "string"
        }
      ],
      "stateMutability": "pure",
      "type": "function"
    },
    {
      "inputs": [
        {
          "internalType": "uint256",
          "name": "proposalId",
          "type": "uint256"
        },
        {
          "internalType": "uint8",
          "name": "support",
          "type": "uint8"
        }
      ],
      "name": "castVote",
      "outputs": [
        {
          "internalType": "uint256",
          "name": "",
          "type": "uint256"
        }
      ],
      "stateMutability": "nonpayable",
      "type": "function"
    },
    {
      "inputs": [
        {
          "internalType": "uint256",
          "name": "proposalId",
          "type": "uint256"
        },
        {
          "internalType": "uint8",
          "name": "support",
          "type": "uint8"
        },
        {
          "internalType": "uint8",
          "name": "v",
          "type": "uint8"
        },
        {
          "internalType": "bytes32",
          "name": "r",
          "type": "bytes32"
        },
        {
          "internalType": "bytes32",
          "name": "s",
          "type": "bytes32"
        }
      ],
      "name": "castVoteBySig",
      "outputs": [
        {
          "internalType": "uint256",
          "name": "",
          "type": "uint256"
        }
      ],
      "stateMutability": "nonpayable",
      "type": "function"
    },
    {
      "inputs": [
        {
          "internalType": "uint256",
          "name": "proposalId",
          "type": "uint256"
        },
        {
          "internalType": "uint8",
          "name": "support",
          "type": "uint8"
        },
        {
          "internalType": "string",
          "name": "reason",
          "type": "string"
        }
      ],
      "name": "castVoteWithReason",
      "outputs": [
        {
          "internalType": "uint256",
          "name": "",
          "type": "uint256"
        }
      ],
      "stateMutability": "nonpayable",
      "type": "function"
    },
    {
      "inputs": [
        {
          "internalType": "address[]",
          "name": "targets",
          "type": "address[]"
        },
        {
          "internalType": "uint256[]",
          "name": "values",
          "type": "uint256[]"
        },
        {
          "internalType": "bytes[]",
          "name": "calldatas",
          "type": "bytes[]"
        },
        {
          "internalType": "bytes32",
          "name": "descriptionHash",
          "type": "bytes32"
        }
      ],
      "name": "execute",
      "outputs": [
        {
          "internalType": "uint256",
          "name": "",
          "type": "uint256"
        }
      ],
      "stateMutability": "payable",
      "type": "function"
    },
    {
      "inputs": [
        {
          "internalType": "uint256",
          "name": "proposalId",
          "type": "uint256"
        },
        {
          "internalType": "address",
          "name": "account",
          "type": "address"
        }
      ],
      "name": "hasVoted",
      "outputs": [
        {
          "internalType": "bool",
          "name": "",
          "type": "bool"
        }
      ],
      "stateMutability": "view",
      "type": "function"
    },
    {
      "inputs": [
        {
          "internalType": "address[]",
          "name": "targets",
          "type": "address[]"
        },
        {
          "internalType": "uint256[]",
          "name": "values",
          "type": "uint256[]"
        },
        {
          "internalType": "bytes[]",
          "name": "calldatas",
          "type": "bytes[]"
        },
        {
          "internalType": "bytes32",
          "name": "descriptionHash",
          "type": "bytes32"
        }
      ],
      "name": "hashProposal",
      "outputs": [
        {
          "internalType": "uint256",
          "name": "",
          "type": "uint256"
        }
      ],
      "stateMutability": "pure",
      "type": "function"
    },
    {
      "inputs": [],
      "name": "name",
      "outputs": [
        {
          "internalType": "string",
          "name": "",
          "type": "string"
        }
      ],
      "stateMutability": "view",
      "type": "function"
    },
    {
      "inputs": [
        {
          "internalType": "uint256",
          "name": "proposalId",
          "type": "uint256"
        }
      ],
      "name": "proposalDeadline",
      "outputs": [
        {
          "internalType": "uint256",
          "name": "",
          "type": "uint256"
        }
      ],
      "stateMutability": "view",
      "type": "function"
    },
    {
      "inputs": [
        {
          "internalType": "uint256",
          "name": "proposalId",
          "type": "uint256"
        }
      ],
      "name": "proposalEta",
      "outputs": [
        {
          "internalType": "uint256",
          "name": "",
          "type": "uint256"
        }
      ],
      "stateMutability": "view",
      "type": "function"
    },
    {
      "inputs": [
        {
          "internalType": "uint256",
          "name": "proposalId",
          "type": "uint256"
        }
      ],
      "name": "proposalSnapshot",
      "outputs": [
        {
          "internalType": "uint256",
          "name": "",
          "type": "uint256"
        }
      ],
      "stateMutability": "view",
      "type": "function"
    },
    {
      "inputs": [
        {
          "internalType": "uint256",
          "name": "proposalId",
          "type": "uint256"
        }
      ],
      "name": "proposalVotes",
      "outputs": [
        {
          "internalType": "uint256",
          "name": "againstVotes",
          "type": "uint256"
        },
        {
          "internalType": "uint256",
          "name": "forVotes",
          "type": "uint256"
        },
        {
          "internalType": "uint256",
          "name": "abstainVotes",
          "type": "uint256"
        }
      ],
      "stateMutability": "view",
      "type": "function"
    },
    {
      "inputs": [
        {
          "internalType": "address[]",
          "name": "targets",
          "type": "address[]"
        },
        {
          "internalType": "uint256[]",
          "name": "values",
          "type": "uint256[]"
        },
        {
          "internalType": "bytes[]",
          "name": "calldatas",
          "type": "bytes[]"
        },
        {
          "internalType": "bytes32",
          "name": "descriptionHash",
          "type": "bytes32"
        }
      ],
      "name": "queue",
      "outputs": [
        {
          "internalType": "uint256",
          "name": "",
          "type": "uint256"
        }
      ],
      "stateMutability": "nonpayable",
      "type": "function"
    },
    {
      "inputs": [],
      "name": "quorumDenominator",
      "outputs": [
        {
          "internalType": "uint256",
          "name": "",
          "type": "uint256"
        }
      ],
      "stateMutability": "view",
      "type": "function"
    },
    {
      "inputs": [],
      "name": "quorumNumerator",
      "outputs": [
        {
          "internalType": "uint256",
          "name": "",
          "type": "uint256"
        }
      ],
      "stateMutability": "view",
      "type": "function"
    },
    {
      "inputs": [],
      "name": "timelock",
      "outputs": [
        {
          "internalType": "address",
          "name": "",
          "type": "address"
        }
      ],
      "stateMutability": "view",
      "type": "function"
    },
    {
      "inputs": [],
      "name": "token",
      "outputs": [
        {
          "internalType": "contract ERC20Votes",
          "name": "",
          "type": "address"
        }
      ],
      "stateMutability": "view",
      "type": "function"
    },
    {
      "inputs": [
        {
          "internalType": "uint256",
          "name": "newQuorumNumerator",
          "type": "uint256"
        }
      ],
      "name": "updateQuorumNumerator",
      "outputs": [],
      "stateMutability": "nonpayable",
      "type": "function"
    },
    {
      "inputs": [
        {
          "internalType": "contract TimelockController",
          "name": "newTimelock",
          "type": "address"
        }
      ],
      "name": "updateTimelock",
      "outputs": [],
      "stateMutability": "nonpayable",
      "type": "function"
    },
    {
      "inputs": [],
      "name": "version",
      "outputs": [
        {
          "internalType": "string",
          "name": "",
          "type": "string"
        }
      ],
      "stateMutability": "view",
      "type": "function"
    },
    {
      "inputs": [],
      "name": "votingDelay",
      "outputs": [
        {
          "internalType": "uint256",
          "name": "",
          "type": "uint256"
        }
      ],
      "stateMutability": "pure",
      "type": "function"
    },
    {
      "inputs": [],
      "name": "votingPeriod",
      "outputs": [
        {
          "internalType": "uint256",
          "name": "",
          "type": "uint256"
        }
      ],
      "stateMutability": "pure",
      "type": "function"
    },
    {
      "inputs": [
        {
          "internalType": "uint256",
          "name": "blockNumber",
          "type": "uint256"
        }
      ],
      "name": "quorum",
      "outputs": [
        {
          "internalType": "uint256",
          "name": "",
          "type": "uint256"
        }
      ],
      "stateMutability": "view",
      "type": "function"
    },
    {
      "inputs": [
        {
          "internalType": "address",
          "name": "account",
          "type": "address"
        },
        {
          "internalType": "uint256",
          "name": "blockNumber",
          "type": "uint256"
        }
      ],
      "name": "getVotes",
      "outputs": [
        {
          "internalType": "uint256",
          "name": "",
          "type": "uint256"
        }
      ],
      "stateMutability": "view",
      "type": "function"
    },
    {
      "inputs": [
        {
          "internalType": "uint256",
          "name": "proposalId",
          "type": "uint256"
        }
      ],
      "name": "state",
      "outputs": [
        {
          "internalType": "enum IGovernor.ProposalState",
          "name": "",
          "type": "uint8"
        }
      ],
      "stateMutability": "view",
      "type": "function"
    },
    {
      "inputs": [
        {
          "internalType": "address[]",
          "name": "targets",
          "type": "address[]"
        },
        {
          "internalType": "uint256[]",
          "name": "values",
          "type": "uint256[]"
        },
        {
          "internalType": "bytes[]",
          "name": "calldatas",
          "type": "bytes[]"
        },
        {
          "internalType": "string",
          "name": "description",
          "type": "string"
        }
      ],
      "name": "propose",
      "outputs": [
        {
          "internalType": "uint256",
          "name": "",
          "type": "uint256"
        }
      ],
      "stateMutability": "nonpayable",
      "type": "function"
    },
    {
      "inputs": [
        {
          "internalType": "bytes4",
          "name": "interfaceId",
          "type": "bytes4"
        }
      ],
      "name": "supportsInterface",
      "outputs": [
        {
          "internalType": "bool",
          "name": "",
          "type": "bool"
        }
      ],
      "stateMutability": "view",
      "type": "function"
    }
  ],
  "bytecode": "0x6101406040523480156200001257600080fd5b506040516200508838038062005088833981810160405281019062000038919062000422565b806004836040518060400160405280600c81526020017f44507562476f7665726e6f72000000000000000000000000000000000000000081525080620000836200017f60201b60201c565b60008280519060200120905060008280519060200120905060007f8b73c3c69bb8fe3d512ecc4cf759cc79239f7b179b0ffacaa9a75d522b39400f90508260c081815250508160e081815250504660a08181525050620000eb818484620001bc60201b60201c565b60808181525050806101008181525050505050505080600090805190602001906200011892919062000344565b50508073ffffffffffffffffffffffffffffffffffffffff166101208173ffffffffffffffffffffffffffffffffffffffff1660601b81525050506200016481620001f860201b60201c565b5062000176816200029a60201b60201c565b50505062000739565b60606040518060400160405280600181526020017f3100000000000000000000000000000000000000000000000000000000000000815250905090565b60008383834630604051602001620001d9959493929190620004ea565b6040516020818303038152906040528051906020012090509392505050565b620002086200033b60201b60201c565b8111156200024d576040517f08c379a0000000000000000000000000000000000000000000000000000000008152600401620002449062000547565b60405180910390fd5b60006003549050816003819055507f0553476bf02ef2726e8ce5ced78d63e26e602e4a2257b1f559418e24b463399781836040516200028e92919062000569565b60405180910390a15050565b7f08f74ea46ef7894f65eabfb5e6e695de773a000b47c529ab559178069b226401600460009054906101000a900473ffffffffffffffffffffffffffffffffffffffff1682604051620002ef929190620004bd565b60405180910390a180600460006101000a81548173ffffffffffffffffffffffffffffffffffffffff021916908373ffffffffffffffffffffffffffffffffffffffff16021790555050565b60006064905090565b82805462000352906200062b565b90600052602060002090601f016020900481019282620003765760008555620003c2565b82601f106200039157805160ff1916838001178555620003c2565b82800160010185558215620003c2579182015b82811115620003c1578251825591602001919060010190620003a4565b5b509050620003d19190620003d5565b5090565b5b80821115620003f0576000816000905550600101620003d6565b5090565b600081519050620004058162000705565b92915050565b6000815190506200041c816200071f565b92915050565b600080604083850312156200043657600080fd5b60006200044685828601620003f4565b925050602062000459858286016200040b565b9150509250929050565b6200046e81620005a7565b82525050565b6200047f81620005cf565b82525050565b60006200049460438362000596565b9150620004a18262000690565b606082019050919050565b620004b78162000621565b82525050565b6000604082019050620004d4600083018562000463565b620004e3602083018462000463565b9392505050565b600060a08201905062000501600083018862000474565b62000510602083018762000474565b6200051f604083018662000474565b6200052e6060830185620004ac565b6200053d608083018462000463565b9695505050505050565b60006020820190508181036000830152620005628162000485565b9050919050565b6000604082019050620005806000830185620004ac565b6200058f6020830184620004ac565b9392505050565b600082825260208201905092915050565b6000620005b48262000601565b9050919050565b6000620005c88262000601565b9050919050565b6000819050919050565b6000620005e682620005a7565b9050919050565b6000620005fa82620005bb565b9050919050565b600073ffffffffffffffffffffffffffffffffffffffff82169050919050565b6000819050919050565b600060028204905060018216806200064457607f821691505b602082108114156200065b576200065a62000661565b5b50919050565b7f4e487b7100000000000000000000000000000000000000000000000000000000600052602260045260246000fd5b7f476f7665726e6f72566f74657351756f72756d4672616374696f6e3a2071756f60008201527f72756d4e756d657261746f72206f7665722071756f72756d44656e6f6d696e6160208201527f746f720000000000000000000000000000000000000000000000000000000000604082015250565b6200071081620005d9565b81146200071c57600080fd5b50565b6200072a81620005ed565b81146200073657600080fd5b50565b60805160a05160c05160e051610100516101205160601c6148ee6200079a6000396000818161131e01528181611b590152611c1e01526000611e7901526000611ebb01526000611e9a01526000611e2601526000611e4e01526148ee6000f3fe6080604052600436106101b75760003560e01c80637b3c71d3116100ec578063c59057e41161008a578063deaaa7cc11610064578063deaaa7cc146106b1578063eb9019d4146106dc578063f8ce560a14610719578063fc0c546a14610756576101b7565b8063c59057e41461061e578063d33219b41461065b578063dd4e2ba514610686576101b7565b8063a7713a70116100c6578063a7713a7014610550578063a890c9101461057b578063ab58fb8e146105a4578063c01f9e37146105e1576101b7565b80637b3c71d3146104ab5780637d5e81e2146104e857806397c3d33414610525576101b7565b80633932abb111610159578063438596321161013357806343859632146103c7578063544ffc9c1461040457806354fd4d5014610443578063567813881461046e576101b7565b80633932abb1146103225780633bccf4fd1461034d5780633e4f49e61461038a576101b7565b806306fdde031161019557806306fdde031461024d578063160cbed7146102785780632656227d146102b55780632d63f693146102e5576101b7565b806301ffc9a7146101bc57806302a251a3146101f957806306f3f9e614610224575b600080fd5b3480156101c857600080fd5b506101e360048036038101906101de9190612f51565b610781565b6040516101f091906138c1565b60405180910390f35b34801561020557600080fd5b5061020e610793565b60405161021b9190613bfe565b60405180910390f35b34801561023057600080fd5b5061024b60048036038101906102469190612fa3565b61079d565b005b34801561025957600080fd5b50610262610825565b60405161026f91906139fc565b60405180910390f35b34801561028457600080fd5b5061029f600480360381019061029a9190612d91565b6108b7565b6040516102ac9190613bfe565b60405180910390f35b6102cf60048036038101906102ca9190612d91565b610bdb565b6040516102dc9190613bfe565b60405180910390f35b3480156102f157600080fd5b5061030c60048036038101906103079190612fa3565b610da6565b6040516103199190613bfe565b60405180910390f35b34801561032e57600080fd5b50610337610e14565b6040516103449190613bfe565b60405180910390f35b34801561035957600080fd5b50610374600480360381019061036f91906130d9565b610e1d565b6040516103819190613bfe565b60405180910390f35b34801561039657600080fd5b506103b160048036038101906103ac9190612fa3565b610ea7565b6040516103be91906139e1565b60405180910390f35b3480156103d357600080fd5b506103ee60048036038101906103e99190612ff5565b610eb9565b6040516103fb91906138c1565b60405180910390f35b34801561041057600080fd5b5061042b60048036038101906104269190612fa3565b610f24565b60405161043a93929190613cf2565b60405180910390f35b34801561044f57600080fd5b50610458610f5c565b60405161046591906139fc565b60405180910390f35b34801561047a57600080fd5b5061049560048036038101906104909190613031565b610f99565b6040516104a29190613bfe565b60405180910390f35b3480156104b757600080fd5b506104d260048036038101906104cd919061306d565b610fca565b6040516104df9190613bfe565b60405180910390f35b3480156104f457600080fd5b5061050f600480360381019061050a9190612e3c565b611032565b60405161051c9190613bfe565b60405180910390f35b34801561053157600080fd5b5061053a61104a565b6040516105479190613bfe565b60405180910390f35b34801561055c57600080fd5b50610565611053565b6040516105729190613bfe565b60405180910390f35b34801561058757600080fd5b506105a2600480360381019061059d9190612f7a565b61105d565b005b3480156105b057600080fd5b506105cb60048036038101906105c69190612fa3565b6110e5565b6040516105d89190613bfe565b60405180910390f35b3480156105ed57600080fd5b5061060860048036038101906106039190612fa3565b6111c1565b6040516106159190613bfe565b60405180910390f35b34801561062a57600080fd5b5061064560048036038101906106409190612d91565b61122f565b6040516106529190613bfe565b60405180910390f35b34801561066757600080fd5b5061067061126b565b60405161067d919061371c565b60405180910390f35b34801561069257600080fd5b5061069b611295565b6040516106a891906139fc565b60405180910390f35b3480156106bd57600080fd5b506106c66112d2565b6040516106d391906138dc565b60405180910390f35b3480156106e857600080fd5b5061070360048036038101906106fe9190612d55565b6112f6565b6040516107109190613bfe565b60405180910390f35b34801561072557600080fd5b50610740600480360381019061073b9190612fa3565b61130a565b60405161074d9190613bfe565b60405180910390f35b34801561076257600080fd5b5061076b61131c565b60405161077891906139c6565b60405180910390f35b600061078c82611340565b9050919050565b600061b2fa905090565b6107a56113ba565b73ffffffffffffffffffffffffffffffffffffffff166107c36113c9565b73ffffffffffffffffffffffffffffffffffffffff1614610819576040517f08c379a000000000000000000000000000000000000000000000000000000000815260040161081090613a3e565b60405180910390fd5b610822816113d1565b50565b6060600080546108349061425b565b80601f01602080910402602001604051908101604052809291908181526020018280546108609061425b565b80156108ad5780601f10610882576101008083540402835291602001916108ad565b820191906000526020600020905b81548152906001019060200180831161089057829003601f168201915b5050505050905090565b6000806108c68686868661122f565b905060046007811115610902577f4e487b7100000000000000000000000000000000000000000000000000000000600052602160045260246000fd5b61090b82610ea7565b6007811115610943577f4e487b7100000000000000000000000000000000000000000000000000000000600052602160045260246000fd5b14610983576040517f08c379a000000000000000000000000000000000000000000000000000000000815260040161097a90613b7e565b60405180910390fd5b6000600460009054906101000a900473ffffffffffffffffffffffffffffffffffffffff1673ffffffffffffffffffffffffffffffffffffffff1663f27a0c926040518163ffffffff1660e01b815260040160206040518083038186803b1580156109ed57600080fd5b505afa158015610a01573d6000803e3d6000fd5b505050506040513d601f19601f82011682018060405250810190610a259190612fcc565b9050600460009054906101000a900473ffffffffffffffffffffffffffffffffffffffff1673ffffffffffffffffffffffffffffffffffffffff1663b1c5f4278888886000896040518663ffffffff1660e01b8152600401610a8b9594939291906137e3565b60206040518083038186803b158015610aa357600080fd5b505afa158015610ab7573d6000803e3d6000fd5b505050506040513d601f19601f82011682018060405250810190610adb9190612f28565b6005600084815260200190815260200160002081905550600460009054906101000a900473ffffffffffffffffffffffffffffffffffffffff1673ffffffffffffffffffffffffffffffffffffffff16638f2a0bb0888888600089876040518763ffffffff1660e01b8152600401610b589695949392919061384b565b600060405180830381600087803b158015610b7257600080fd5b505af1158015610b86573d6000803e3d6000fd5b505050507f9a2e42fd6722813d69113e7d0079d3d940171428df7373df9c7f7617cfda2892828242610bb89190613fb8565b604051610bc6929190613cc9565b60405180910390a18192505050949350505050565b600080610bea8686868661122f565b90506000610bf782610ea7565b905060046007811115610c33577f4e487b7100000000000000000000000000000000000000000000000000000000600052602160045260246000fd5b816007811115610c6c577f4e487b7100000000000000000000000000000000000000000000000000000000600052602160045260246000fd5b1480610ce8575060056007811115610cad577f4e487b7100000000000000000000000000000000000000000000000000000000600052602160045260246000fd5b816007811115610ce6577f4e487b7100000000000000000000000000000000000000000000000000000000600052602160045260246000fd5b145b610d27576040517f08c379a0000000000000000000000000000000000000000000000000000000008152600401610d1e90613b7e565b60405180910390fd5b600180600084815260200190815260200160002060020160006101000a81548160ff0219169083151502179055507f712ae1383f79ac853f8d882153778e0260ef8f03b504e2866e0593e04d2b291f82604051610d849190613bfe565b60405180910390a1610d998288888888611466565b8192505050949350505050565b6000610e03600160008481526020019081526020016000206000016040518060200160405290816000820160009054906101000a900467ffffffffffffffff1667ffffffffffffffff1667ffffffffffffffff168152505061147a565b67ffffffffffffffff169050919050565b60006001905090565b600080610e7e610e767f150214d74d59b7d1e90c73fc22ef3d991dd0a76b046543d4d80ab92d2a50328f8989604051602001610e5b9392919061394a565b60405160208183030381529060405280519060200120611488565b8686866114a2565b9050610e9b878288604051806020016040528060008152506114cd565b91505095945050505050565b6000610eb28261166d565b9050919050565b60006002600084815260200190815260200160002060030160008373ffffffffffffffffffffffffffffffffffffffff1673ffffffffffffffffffffffffffffffffffffffff16815260200190815260200160002060009054906101000a900460ff16905092915050565b600080600080600260008681526020019081526020016000209050806000015481600101548260020154935093509350509193909250565b60606040518060400160405280600181526020017f3100000000000000000000000000000000000000000000000000000000000000815250905090565b600080610fa46113c9565b9050610fc1848285604051806020016040528060008152506114cd565b91505092915050565b600080610fd56113c9565b905061102786828787878080601f016020809104026020016040519081016040528093929190818152602001838380828437600081840152601f19601f820116905080830192505050505050506114cd565b915050949350505050565b6000611040858585856117f0565b9050949350505050565b60006064905090565b6000600354905090565b6110656113ba565b73ffffffffffffffffffffffffffffffffffffffff166110836113c9565b73ffffffffffffffffffffffffffffffffffffffff16146110d9576040517f08c379a00000000000000000000000000000000000000000000000000000000081526004016110d090613a3e565b60405180910390fd5b6110e281611ab6565b50565b600080600460009054906101000a900473ffffffffffffffffffffffffffffffffffffffff1673ffffffffffffffffffffffffffffffffffffffff1663d45c443560056000868152602001908152602001600020546040518263ffffffff1660e01b815260040161115691906138dc565b60206040518083038186803b15801561116e57600080fd5b505afa158015611182573d6000803e3d6000fd5b505050506040513d601f19601f820116820180604052508101906111a69190612fcc565b9050600181146111b657806111b9565b60005b915050919050565b600061121e600160008481526020019081526020016000206001016040518060200160405290816000820160009054906101000a900467ffffffffffffffff1667ffffffffffffffff1667ffffffffffffffff168152505061147a565b67ffffffffffffffff169050919050565b6000848484846040516020016112489493929190613789565b6040516020818303038152906040528051906020012060001c9050949350505050565b6000600460009054906101000a900473ffffffffffffffffffffffffffffffffffffffff16905090565b60606040518060400160405280602081526020017f737570706f72743d627261766f2671756f72756d3d666f722c6162737461696e815250905090565b7f150214d74d59b7d1e90c73fc22ef3d991dd0a76b046543d4d80ab92d2a50328f81565b60006113028383611b55565b905092915050565b600061131582611c0a565b9050919050565b7f000000000000000000000000000000000000000000000000000000000000000081565b60007f6e665ced000000000000000000000000000000000000000000000000000000007bffffffffffffffffffffffffffffffffffffffffffffffffffffffff1916827bffffffffffffffffffffffffffffffffffffffffffffffffffffffff191614806113b357506113b282611ce0565b5b9050919050565b60006113c4611d5a565b905090565b600033905090565b6113d961104a565b81111561141b576040517f08c379a000000000000000000000000000000000000000000000000000000000815260040161141290613a5e565b60405180910390fd5b60006003549050816003819055507f0553476bf02ef2726e8ce5ced78d63e26e602e4a2257b1f559418e24b4633997818360405161145a929190613cc9565b60405180910390a15050565b6114738585858585611d84565b5050505050565b600081600001519050919050565b600061149b611495611e22565b83611ee5565b9050919050565b60008060006114b387878787611f18565b915091506114c081612025565b8192505050949350505050565b6000806001600087815260200190815260200160002090506001600781111561151f577f4e487b7100000000000000000000000000000000000000000000000000000000600052602160045260246000fd5b61152887610ea7565b6007811115611560577f4e487b7100000000000000000000000000000000000000000000000000000000600052602160045260246000fd5b146115a0576040517f08c379a000000000000000000000000000000000000000000000000000000000815260040161159790613afe565b60405180910390fd5b60006115fe866115ef846000016040518060200160405290816000820160009054906101000a900467ffffffffffffffff1667ffffffffffffffff1667ffffffffffffffff168152505061147a565b67ffffffffffffffff166112f6565b905061160c87878784612376565b8573ffffffffffffffffffffffffffffffffffffffff167fb8e138887d0aa13bab447e82de9d5c1777041ecd21ca36ba824ff1e6c07ddda4888784886040516116589493929190613d29565b60405180910390a28092505050949350505050565b600080611679836125ee565b9050600460078111156116b5577f4e487b7100000000000000000000000000000000000000000000000000000000600052602160045260246000fd5b8160078111156116ee577f4e487b7100000000000000000000000000000000000000000000000000000000600052602160045260246000fd5b146116fc57809150506117eb565b6000600560008581526020019081526020016000205490506000801b8114156117295781925050506117eb565b600460009054906101000a900473ffffffffffffffffffffffffffffffffffffffff1673ffffffffffffffffffffffffffffffffffffffff16632ab0f529826040518263ffffffff1660e01b815260040161178491906138dc565b60206040518083038186803b15801561179c57600080fd5b505afa1580156117b0573d6000803e3d6000fd5b505050506040513d601f19601f820116820180604052508101906117d49190612eff565b156117e4576007925050506117eb565b6005925050505b919050565b600080611806868686868051906020012061122f565b9050845186511461184c576040517f08c379a000000000000000000000000000000000000000000000000000000000815260040161184390613a9e565b60405180910390fd5b8351865114611890576040517f08c379a000000000000000000000000000000000000000000000000000000000815260040161188790613a9e565b60405180910390fd5b60008651116118d4576040517f08c379a00000000000000000000000000000000000000000000000000000000081526004016118cb90613b1e565b60405180910390fd5b6000600160008381526020019081526020016000209050611934816000016040518060200160405290816000820160009054906101000a900467ffffffffffffffff1667ffffffffffffffff1667ffffffffffffffff16815250506127b5565b611973576040517f08c379a000000000000000000000000000000000000000000000000000000000815260040161196a90613bde565b60405180910390fd5b6000611985611980610e14565b6127cf565b61198e436127cf565b611998919061400e565b905060006119ac6119a7610793565b6127cf565b826119b7919061400e565b90506119cf828460000161282690919063ffffffff16565b6119e5818460010161282690919063ffffffff16565b7f7d84a6263ae0d98d3329bd7b46bb4e8d6f98cd35a7adb45c274c8b7fd5ebd5e084611a0f6113c9565b8b8b8d5167ffffffffffffffff811115611a52577f4e487b7100000000000000000000000000000000000000000000000000000000600052604160045260246000fd5b604051908082528060200260200182016040528015611a8557816020015b6060815260200190600190039081611a705790505b508c88888e604051611a9f99989796959493929190613c19565b60405180910390a183945050505050949350505050565b7f08f74ea46ef7894f65eabfb5e6e695de773a000b47c529ab559178069b226401600460009054906101000a900473ffffffffffffffffffffffffffffffffffffffff1682604051611b09929190613737565b60405180910390a180600460006101000a81548173ffffffffffffffffffffffffffffffffffffffff021916908373ffffffffffffffffffffffffffffffffffffffff16021790555050565b60007f000000000000000000000000000000000000000000000000000000000000000073ffffffffffffffffffffffffffffffffffffffff16633a46b1a884846040518363ffffffff1660e01b8152600401611bb2929190613760565b60206040518083038186803b158015611bca57600080fd5b505afa158015611bde573d6000803e3d6000fd5b505050506040513d601f19601f82011682018060405250810190611c029190612fcc565b905092915050565b6000611c1461104a565b611c1c611053565b7f000000000000000000000000000000000000000000000000000000000000000073ffffffffffffffffffffffffffffffffffffffff16638e539e8c856040518263ffffffff1660e01b8152600401611c759190613bfe565b60206040518083038186803b158015611c8d57600080fd5b505afa158015611ca1573d6000803e3d6000fd5b505050506040513d601f19601f82011682018060405250810190611cc59190612fcc565b611ccf919061407d565b611cd9919061404c565b9050919050565b60007fbf26d897000000000000000000000000000000000000000000000000000000007bffffffffffffffffffffffffffffffffffffffffffffffffffffffff1916827bffffffffffffffffffffffffffffffffffffffffffffffffffffffff19161480611d535750611d5282612855565b5b9050919050565b6000600460009054906101000a900473ffffffffffffffffffffffffffffffffffffffff16905090565b600460009054906101000a900473ffffffffffffffffffffffffffffffffffffffff1673ffffffffffffffffffffffffffffffffffffffff1663e38335e5348686866000876040518763ffffffff1660e01b8152600401611de99594939291906137e3565b6000604051808303818588803b158015611e0257600080fd5b505af1158015611e16573d6000803e3d6000fd5b50505050505050505050565b60007f0000000000000000000000000000000000000000000000000000000000000000461415611e74577f00000000000000000000000000000000000000000000000000000000000000009050611ee2565b611edf7f00000000000000000000000000000000000000000000000000000000000000007f00000000000000000000000000000000000000000000000000000000000000007f00000000000000000000000000000000000000000000000000000000000000006128bf565b90505b90565b60008282604051602001611efa9291906136e5565b60405160208183030381529060405280519060200120905092915050565b6000807f7fffffffffffffffffffffffffffffff5d576e7357a4501ddfe92f46681b20a08360001c1115611f5357600060039150915061201c565b601b8560ff1614158015611f6b5750601c8560ff1614155b15611f7d57600060049150915061201c565b600060018787878760405160008152602001604052604051611fa29493929190613981565b6020604051602081039080840390855afa158015611fc4573d6000803e3d6000fd5b505050602060405103519050600073ffffffffffffffffffffffffffffffffffffffff168173ffffffffffffffffffffffffffffffffffffffff1614156120135760006001925092505061201c565b80600092509250505b94509492505050565b6000600481111561205f577f4e487b7100000000000000000000000000000000000000000000000000000000600052602160045260246000fd5b816004811115612098577f4e487b7100000000000000000000000000000000000000000000000000000000600052602160045260246000fd5b14156120a357612373565b600160048111156120dd577f4e487b7100000000000000000000000000000000000000000000000000000000600052602160045260246000fd5b816004811115612116577f4e487b7100000000000000000000000000000000000000000000000000000000600052602160045260246000fd5b1415612157576040517f08c379a000000000000000000000000000000000000000000000000000000000815260040161214e90613a1e565b60405180910390fd5b60026004811115612191577f4e487b7100000000000000000000000000000000000000000000000000000000600052602160045260246000fd5b8160048111156121ca577f4e487b7100000000000000000000000000000000000000000000000000000000600052602160045260246000fd5b141561220b576040517f08c379a000000000000000000000000000000000000000000000000000000000815260040161220290613a7e565b60405180910390fd5b60036004811115612245577f4e487b7100000000000000000000000000000000000000000000000000000000600052602160045260246000fd5b81600481111561227e577f4e487b7100000000000000000000000000000000000000000000000000000000600052602160045260246000fd5b14156122bf576040517f08c379a00000000000000000000000000000000000000000000000000000000081526004016122b690613abe565b60405180910390fd5b6004808111156122f8577f4e487b7100000000000000000000000000000000000000000000000000000000600052602160045260246000fd5b816004811115612331577f4e487b7100000000000000000000000000000000000000000000000000000000600052602160045260246000fd5b1415612372576040517f08c379a000000000000000000000000000000000000000000000000000000000815260040161236990613b3e565b60405180910390fd5b5b50565b60006002600086815260200190815260200160002090508060030160008573ffffffffffffffffffffffffffffffffffffffff1673ffffffffffffffffffffffffffffffffffffffff16815260200190815260200160002060009054906101000a900460ff161561241c576040517f08c379a000000000000000000000000000000000000000000000000000000000815260040161241390613ade565b60405180910390fd5b60018160030160008673ffffffffffffffffffffffffffffffffffffffff1673ffffffffffffffffffffffffffffffffffffffff16815260200190815260200160002060006101000a81548160ff021916908315150217905550600060028111156124b0577f4e487b7100000000000000000000000000000000000000000000000000000000600052602160045260246000fd5b60ff168360ff1614156124dd57818160000160008282546124d19190613fb8565b925050819055506125e7565b60016002811115612517577f4e487b7100000000000000000000000000000000000000000000000000000000600052602160045260246000fd5b60ff168360ff16141561254457818160010160008282546125389190613fb8565b925050819055506125e6565b60028081111561257d577f4e487b7100000000000000000000000000000000000000000000000000000000600052602160045260246000fd5b60ff168360ff1614156125aa578181600201600082825461259e9190613fb8565b925050819055506125e5565b6040517f08c379a00000000000000000000000000000000000000000000000000000000081526004016125dc90613bbe565b60405180910390fd5b5b5b5050505050565b60008060016000848152602001908152602001600020604051806080016040529081600082016040518060200160405290816000820160009054906101000a900467ffffffffffffffff1667ffffffffffffffff1667ffffffffffffffff16815250508152602001600182016040518060200160405290816000820160009054906101000a900467ffffffffffffffff1667ffffffffffffffff1667ffffffffffffffff168152505081526020016002820160009054906101000a900460ff161515151581526020016002820160019054906101000a900460ff16151515158152505090508060400151156126e75760079150506127b0565b8060600151156126fb5760029150506127b0565b61270881600001516128f9565b156127175760009150506127b0565b61272481602001516128f9565b156127335760019150506127b0565b6127408160200151612913565b156127755761274e8361293f565b801561275f575061275e83612986565b5b61276a57600361276d565b60045b9150506127b0565b6040517f08c379a00000000000000000000000000000000000000000000000000000000081526004016127a790613b9e565b60405180910390fd5b919050565b600080826000015167ffffffffffffffff16149050919050565b600067ffffffffffffffff801682111561281e576040517f08c379a000000000000000000000000000000000000000000000000000000000815260040161281590613b5e565b60405180910390fd5b819050919050565b808260000160006101000a81548167ffffffffffffffff021916908367ffffffffffffffff1602179055505050565b60007f01ffc9a7000000000000000000000000000000000000000000000000000000007bffffffffffffffffffffffffffffffffffffffffffffffffffffffff1916827bffffffffffffffffffffffffffffffffffffffffffffffffffffffff1916149050919050565b600083838346306040516020016128da9594939291906138f7565b6040516020818303038152906040528051906020012090509392505050565b600043826000015167ffffffffffffffff16119050919050565b600061291e826129b1565b8015612938575043826000015167ffffffffffffffff1611155b9050919050565b6000806002600084815260200190815260200160002090508060020154816001015461296b9190613fb8565b61297c61297785610da6565b61130a565b1115915050919050565b6000806002600084815260200190815260200160002090508060000154816001015411915050919050565b600080826000015167ffffffffffffffff16119050919050565b60006129de6129d984613d9a565b613d75565b905080838252602082019050828560208602820111156129fd57600080fd5b60005b85811015612a2d5781612a138882612b7c565b845260208401935060208301925050600181019050612a00565b5050509392505050565b6000612a4a612a4584613dc6565b613d75565b9050808382526020820190508260005b85811015612a8a5781358501612a708882612c63565b845260208401935060208301925050600181019050612a5a565b5050509392505050565b6000612aa7612aa284613df2565b613d75565b90508083825260208201905082856020860282011115612ac657600080fd5b60005b85811015612af65781612adc8882612d16565b845260208401935060208301925050600181019050612ac9565b5050509392505050565b6000612b13612b0e84613e1e565b613d75565b905082815260208101848484011115612b2b57600080fd5b612b36848285614219565b509392505050565b6000612b51612b4c84613e4f565b613d75565b905082815260208101848484011115612b6957600080fd5b612b74848285614219565b509392505050565b600081359050612b8b81614817565b92915050565b600082601f830112612ba257600080fd5b8135612bb28482602086016129cb565b91505092915050565b600082601f830112612bcc57600080fd5b8135612bdc848260208601612a37565b91505092915050565b600082601f830112612bf657600080fd5b8135612c06848260208601612a94565b91505092915050565b600081519050612c1e8161482e565b92915050565b600081359050612c3381614845565b92915050565b600081519050612c4881614845565b92915050565b600081359050612c5d8161485c565b92915050565b600082601f830112612c7457600080fd5b8135612c84848260208601612b00565b91505092915050565b600081359050612c9c81614873565b92915050565b60008083601f840112612cb457600080fd5b8235905067ffffffffffffffff811115612ccd57600080fd5b602083019150836001820283011115612ce557600080fd5b9250929050565b600082601f830112612cfd57600080fd5b8135612d0d848260208601612b3e565b91505092915050565b600081359050612d258161488a565b92915050565b600081519050612d3a8161488a565b92915050565b600081359050612d4f816148a1565b92915050565b60008060408385031215612d6857600080fd5b6000612d7685828601612b7c565b9250506020612d8785828601612d16565b9150509250929050565b60008060008060808587031215612da757600080fd5b600085013567ffffffffffffffff811115612dc157600080fd5b612dcd87828801612b91565b945050602085013567ffffffffffffffff811115612dea57600080fd5b612df687828801612be5565b935050604085013567ffffffffffffffff811115612e1357600080fd5b612e1f87828801612bbb565b9250506060612e3087828801612c24565b91505092959194509250565b60008060008060808587031215612e5257600080fd5b600085013567ffffffffffffffff811115612e6c57600080fd5b612e7887828801612b91565b945050602085013567ffffffffffffffff811115612e9557600080fd5b612ea187828801612be5565b935050604085013567ffffffffffffffff811115612ebe57600080fd5b612eca87828801612bbb565b925050606085013567ffffffffffffffff811115612ee757600080fd5b612ef387828801612cec565b91505092959194509250565b600060208284031215612f1157600080fd5b6000612f1f84828501612c0f565b91505092915050565b600060208284031215612f3a57600080fd5b6000612f4884828501612c39565b91505092915050565b600060208284031215612f6357600080fd5b6000612f7184828501612c4e565b91505092915050565b600060208284031215612f8c57600080fd5b6000612f9a84828501612c8d565b91505092915050565b600060208284031215612fb557600080fd5b6000612fc384828501612d16565b91505092915050565b600060208284031215612fde57600080fd5b6000612fec84828501612d2b565b91505092915050565b6000806040838503121561300857600080fd5b600061301685828601612d16565b925050602061302785828601612b7c565b9150509250929050565b6000806040838503121561304457600080fd5b600061305285828601612d16565b925050602061306385828601612d40565b9150509250929050565b6000806000806060858703121561308357600080fd5b600061309187828801612d16565b94505060206130a287828801612d40565b935050604085013567ffffffffffffffff8111156130bf57600080fd5b6130cb87828801612ca2565b925092505092959194509250565b600080600080600060a086880312156130f157600080fd5b60006130ff88828901612d16565b955050602061311088828901612d40565b945050604061312188828901612d40565b935050606061313288828901612c24565b925050608061314388828901612c24565b9150509295509295909350565b600061315c83836131a8565b60208301905092915050565b600061317483836133a1565b905092915050565b60006131888383613407565b905092915050565b600061319c83836136a9565b60208301905092915050565b6131b1816140d7565b82525050565b6131c0816140d7565b82525050565b60006131d182613ec0565b6131db8185613f36565b93506131e683613e80565b8060005b838110156132175781516131fe8882613150565b975061320983613f02565b9250506001810190506131ea565b5085935050505092915050565b600061322f82613ecb565b6132398185613f47565b93508360208202850161324b85613e90565b8060005b8581101561328757848403895281516132688582613168565b945061327383613f0f565b925060208a0199505060018101905061324f565b50829750879550505050505092915050565b60006132a482613ed6565b6132ae8185613f58565b9350836020820285016132c085613ea0565b8060005b858110156132fc57848403895281516132dd858261317c565b94506132e883613f1c565b925060208a019950506001810190506132c4565b50829750879550505050505092915050565b600061331982613ee1565b6133238185613f69565b935061332e83613eb0565b8060005b8381101561335f5781516133468882613190565b975061335183613f29565b925050600181019050613332565b5085935050505092915050565b613375816140fb565b82525050565b61338481614107565b82525050565b61339b61339682614107565b6142be565b82525050565b60006133ac82613eec565b6133b68185613f7a565b93506133c6818560208601614228565b6133cf816143b3565b840191505092915050565b6133e3816141b7565b82525050565b6133f2816141db565b82525050565b613401816141ed565b82525050565b600061341282613ef7565b61341c8185613f8b565b935061342c818560208601614228565b613435816143b3565b840191505092915050565b600061344b82613ef7565b6134558185613f9c565b9350613465818560208601614228565b61346e816143b3565b840191505092915050565b6000613486601883613f9c565b9150613491826143d1565b602082019050919050565b60006134a9601883613f9c565b91506134b4826143fa565b602082019050919050565b60006134cc604383613f9c565b91506134d782614423565b606082019050919050565b60006134ef601f83613f9c565b91506134fa82614498565b602082019050919050565b6000613512600283613fad565b915061351d826144c1565b600282019050919050565b6000613535602183613f9c565b9150613540826144ea565b604082019050919050565b6000613558602283613f9c565b915061356382614539565b604082019050919050565b600061357b602783613f9c565b915061358682614588565b604082019050919050565b600061359e602383613f9c565b91506135a9826145d7565b604082019050919050565b60006135c1601883613f9c565b91506135cc82614626565b602082019050919050565b60006135e4602283613f9c565b91506135ef8261464f565b604082019050919050565b6000613607602683613f9c565b91506136128261469e565b604082019050919050565b600061362a602183613f9c565b9150613635826146ed565b604082019050919050565b600061364d601d83613f9c565b91506136588261473c565b602082019050919050565b6000613670603583613f9c565b915061367b82614765565b604082019050919050565b6000613693602183613f9c565b915061369e826147b4565b604082019050919050565b6136b28161418c565b82525050565b6136c18161418c565b82525050565b6136d081614207565b82525050565b6136df816141aa565b82525050565b60006136f082613505565b91506136fc828561338a565b60208201915061370c828461338a565b6020820191508190509392505050565b600060208201905061373160008301846131b7565b92915050565b600060408201905061374c60008301856131b7565b61375960208301846131b7565b9392505050565b600060408201905061377560008301856131b7565b61378260208301846136b8565b9392505050565b600060808201905081810360008301526137a381876131c6565b905081810360208301526137b7818661330e565b905081810360408301526137cb8185613224565b90506137da606083018461337b565b95945050505050565b600060a08201905081810360008301526137fd81886131c6565b90508181036020830152613811818761330e565b905081810360408301526138258186613224565b905061383460608301856133f8565b613841608083018461337b565b9695505050505050565b600060c082019050818103600083015261386581896131c6565b90508181036020830152613879818861330e565b9050818103604083015261388d8187613224565b905061389c60608301866133f8565b6138a9608083018561337b565b6138b660a08301846136b8565b979650505050505050565b60006020820190506138d6600083018461336c565b92915050565b60006020820190506138f1600083018461337b565b92915050565b600060a08201905061390c600083018861337b565b613919602083018761337b565b613926604083018661337b565b61393360608301856136b8565b61394060808301846131b7565b9695505050505050565b600060608201905061395f600083018661337b565b61396c60208301856136b8565b61397960408301846136d6565b949350505050565b6000608082019050613996600083018761337b565b6139a360208301866136d6565b6139b0604083018561337b565b6139bd606083018461337b565b95945050505050565b60006020820190506139db60008301846133da565b92915050565b60006020820190506139f660008301846133e9565b92915050565b60006020820190508181036000830152613a168184613440565b905092915050565b60006020820190508181036000830152613a3781613479565b9050919050565b60006020820190508181036000830152613a578161349c565b9050919050565b60006020820190508181036000830152613a77816134bf565b9050919050565b60006020820190508181036000830152613a97816134e2565b9050919050565b60006020820190508181036000830152613ab781613528565b9050919050565b60006020820190508181036000830152613ad78161354b565b9050919050565b60006020820190508181036000830152613af78161356e565b9050919050565b60006020820190508181036000830152613b1781613591565b9050919050565b60006020820190508181036000830152613b37816135b4565b9050919050565b60006020820190508181036000830152613b57816135d7565b9050919050565b60006020820190508181036000830152613b77816135fa565b9050919050565b60006020820190508181036000830152613b978161361d565b9050919050565b60006020820190508181036000830152613bb781613640565b9050919050565b60006020820190508181036000830152613bd781613663565b9050919050565b60006020820190508181036000830152613bf781613686565b9050919050565b6000602082019050613c1360008301846136b8565b92915050565b600061012082019050613c2f600083018c6136b8565b613c3c602083018b6131b7565b8181036040830152613c4e818a6131c6565b90508181036060830152613c62818961330e565b90508181036080830152613c768188613299565b905081810360a0830152613c8a8187613224565b9050613c9960c08301866136c7565b613ca660e08301856136c7565b818103610100830152613cb98184613440565b90509a9950505050505050505050565b6000604082019050613cde60008301856136b8565b613ceb60208301846136b8565b9392505050565b6000606082019050613d0760008301866136b8565b613d1460208301856136b8565b613d2160408301846136b8565b949350505050565b6000608082019050613d3e60008301876136b8565b613d4b60208301866136d6565b613d5860408301856136b8565b8181036060830152613d6a8184613440565b905095945050505050565b6000613d7f613d90565b9050613d8b828261428d565b919050565b6000604051905090565b600067ffffffffffffffff821115613db557613db4614384565b5b602082029050602081019050919050565b600067ffffffffffffffff821115613de157613de0614384565b5b602082029050602081019050919050565b600067ffffffffffffffff821115613e0d57613e0c614384565b5b602082029050602081019050919050565b600067ffffffffffffffff821115613e3957613e38614384565b5b613e42826143b3565b9050602081019050919050565b600067ffffffffffffffff821115613e6a57613e69614384565b5b613e73826143b3565b9050602081019050919050565b6000819050602082019050919050565b6000819050602082019050919050565b6000819050602082019050919050565b6000819050602082019050919050565b600081519050919050565b600081519050919050565b600081519050919050565b600081519050919050565b600081519050919050565b600081519050919050565b6000602082019050919050565b6000602082019050919050565b6000602082019050919050565b6000602082019050919050565b600082825260208201905092915050565b600082825260208201905092915050565b600082825260208201905092915050565b600082825260208201905092915050565b600082825260208201905092915050565b600082825260208201905092915050565b600082825260208201905092915050565b600081905092915050565b6000613fc38261418c565b9150613fce8361418c565b9250827fffffffffffffffffffffffffffffffffffffffffffffffffffffffffffffffff03821115614003576140026142c8565b5b828201905092915050565b600061401982614196565b915061402483614196565b92508267ffffffffffffffff03821115614041576140406142c8565b5b828201905092915050565b60006140578261418c565b91506140628361418c565b925082614072576140716142f7565b5b828204905092915050565b60006140888261418c565b91506140938361418c565b9250817fffffffffffffffffffffffffffffffffffffffffffffffffffffffffffffffff04831182151516156140cc576140cb6142c8565b5b828202905092915050565b60006140e28261416c565b9050919050565b60006140f48261416c565b9050919050565b60008115159050919050565b6000819050919050565b60007fffffffff0000000000000000000000000000000000000000000000000000000082169050919050565b6000614148826140e9565b9050919050565b600081905061415d82614803565b919050565b6000819050919050565b600073ffffffffffffffffffffffffffffffffffffffff82169050919050565b6000819050919050565b600067ffffffffffffffff82169050919050565b600060ff82169050919050565b60006141c2826141c9565b9050919050565b60006141d48261416c565b9050919050565b60006141e68261414f565b9050919050565b60006142006141fb83614162565b6143c4565b9050919050565b600061421282614196565b9050919050565b82818337600083830152505050565b60005b8381101561424657808201518184015260208101905061422b565b83811115614255576000848401525b50505050565b6000600282049050600182168061427357607f821691505b6020821081141561428757614286614355565b5b50919050565b614296826143b3565b810181811067ffffffffffffffff821117156142b5576142b4614384565b5b80604052505050565b6000819050919050565b7f4e487b7100000000000000000000000000000000000000000000000000000000600052601160045260246000fd5b7f4e487b7100000000000000000000000000000000000000000000000000000000600052601260045260246000fd5b7f4e487b7100000000000000000000000000000000000000000000000000000000600052602160045260246000fd5b7f4e487b7100000000000000000000000000000000000000000000000000000000600052602260045260246000fd5b7f4e487b7100000000000000000000000000000000000000000000000000000000600052604160045260246000fd5b6000601f19601f8301169050919050565b60008160001b9050919050565b7f45434453413a20696e76616c6964207369676e61747572650000000000000000600082015250565b7f476f7665726e6f723a206f6e6c79476f7665726e616e63650000000000000000600082015250565b7f476f7665726e6f72566f74657351756f72756d4672616374696f6e3a2071756f60008201527f72756d4e756d657261746f72206f7665722071756f72756d44656e6f6d696e6160208201527f746f720000000000000000000000000000000000000000000000000000000000604082015250565b7f45434453413a20696e76616c6964207369676e6174757265206c656e67746800600082015250565b7f1901000000000000000000000000000000000000000000000000000000000000600082015250565b7f476f7665726e6f723a20696e76616c69642070726f706f73616c206c656e677460008201527f6800000000000000000000000000000000000000000000000000000000000000602082015250565b7f45434453413a20696e76616c6964207369676e6174757265202773272076616c60008201527f7565000000000000000000000000000000000000000000000000000000000000602082015250565b7f476f7665726e6f72566f74696e6753696d706c653a20766f746520616c72656160008201527f6479206361737400000000000000000000000000000000000000000000000000602082015250565b7f476f7665726e6f723a20766f7465206e6f742063757272656e746c792061637460008201527f6976650000000000000000000000000000000000000000000000000000000000602082015250565b7f476f7665726e6f723a20656d7074792070726f706f73616c0000000000000000600082015250565b7f45434453413a20696e76616c6964207369676e6174757265202776272076616c60008201527f7565000000000000000000000000000000000000000000000000000000000000602082015250565b7f53616665436173743a2076616c756520646f65736e27742066697420696e203660008201527f3420626974730000000000000000000000000000000000000000000000000000602082015250565b7f476f7665726e6f723a2070726f706f73616c206e6f742073756363657373667560008201527f6c00000000000000000000000000000000000000000000000000000000000000602082015250565b7f476f7665726e6f723a20756e6b6e6f776e2070726f706f73616c206964000000600082015250565b7f476f7665726e6f72566f74696e6753696d706c653a20696e76616c696420766160008201527f6c756520666f7220656e756d20566f7465547970650000000000000000000000602082015250565b7f476f7665726e6f723a2070726f706f73616c20616c726561647920657869737460008201527f7300000000000000000000000000000000000000000000000000000000000000602082015250565b6008811061481457614813614326565b5b50565b614820816140d7565b811461482b57600080fd5b50565b614837816140fb565b811461484257600080fd5b50565b61484e81614107565b811461485957600080fd5b50565b61486581614111565b811461487057600080fd5b50565b61487c8161413d565b811461488757600080fd5b50565b6148938161418c565b811461489e57600080fd5b50565b6148aa816141aa565b81146148b557600080fd5b5056fea264697066735822122087f3d5cd0adbfb8ecfa64386035a15cdb3e07f4871a9f7f4485cd9fed3a9036e64736f6c63430008020033",
  "immutableReferences": {
    "2779": [
      {
        "length": 32,
        "start": 4894
      },
      {
        "length": 32,
        "start": 7001
      },
      {
        "length": 32,
        "start": 7198
      }
    ],
    "5634": [
      {
        "length": 32,
        "start": 7758
      }
    ],
    "5636": [
      {
        "length": 32,
        "start": 7718
      }
    ],
    "5638": [
      {
        "length": 32,
        "start": 7834
      }
    ],
    "5640": [
      {
        "length": 32,
        "start": 7867
      }
    ],
    "5642": [
      {
        "length": 32,
        "start": 7801
      }
    ]
  },
  "source": "// SPDX-License-Identifier: MIT\npragma solidity ^0.8.2;\n\nimport \"@openzeppelin/contracts/governance/Governor.sol\";\nimport \"@openzeppelin/contracts/governance/extensions/GovernorCountingSimple.sol\";\nimport \"@openzeppelin/contracts/governance/extensions/GovernorVotes.sol\";\nimport \"@openzeppelin/contracts/governance/extensions/GovernorVotesQuorumFraction.sol\";\nimport \"@openzeppelin/contracts/governance/extensions/GovernorTimelockControl.sol\";\n\n/// @custom:security-contact fccoelho@gmail.com\ncontract DPubGovernor is Governor, GovernorCountingSimple, GovernorVotes, GovernorVotesQuorumFraction, GovernorTimelockControl {\n    constructor(ERC20Votes _token, TimelockController _timelock)\n        Governor(\"DPubGovernor\")\n        GovernorVotes(_token)\n        GovernorVotesQuorumFraction(4)\n        GovernorTimelockControl(_timelock)\n    {}\n\n    function votingDelay() public pure override returns (uint256) {\n        return 1; // 1 block\n    }\n\n    function votingPeriod() public pure override returns (uint256) {\n        return 45818; // 1 week\n    }\n\n    // The following functions are overrides required by Solidity.\n\n    function quorum(uint256 blockNumber)\n        public\n        view\n        override(IGovernor, GovernorVotesQuorumFraction)\n        returns (uint256)\n    {\n        return super.quorum(blockNumber);\n    }\n\n    function getVotes(address account, uint256 blockNumber)\n        public\n        view\n        override(IGovernor, GovernorVotes)\n        returns (uint256)\n    {\n        return super.getVotes(account, blockNumber);\n    }\n\n    function state(uint256 proposalId)\n        public\n        view\n        override(Governor, GovernorTimelockControl)\n        returns (ProposalState)\n    {\n        return super.state(proposalId);\n    }\n\n    function propose(address[] memory targets, uint256[] memory values, bytes[] memory calldatas, string memory description)\n        public\n        override(Governor, IGovernor)\n        returns (uint256)\n    {\n        return super.propose(targets, values, calldatas, description);\n    }\n\n    function _execute(uint256 proposalId, address[] memory targets, uint256[] memory values, bytes[] memory calldatas, bytes32 descriptionHash)\n        internal\n        override(Governor, GovernorTimelockControl)\n    {\n        super._execute(proposalId, targets, values, calldatas, descriptionHash);\n    }\n\n    function _cancel(address[] memory targets, uint256[] memory values, bytes[] memory calldatas, bytes32 descriptionHash)\n        internal\n        override(Governor, GovernorTimelockControl)\n        returns (uint256)\n    {\n        return super._cancel(targets, values, calldatas, descriptionHash);\n    }\n\n    function _executor()\n        internal\n        view\n        override(Governor, GovernorTimelockControl)\n        returns (address)\n    {\n        return super._executor();\n    }\n\n    function supportsInterface(bytes4 interfaceId)\n        public\n        view\n        override(Governor, GovernorTimelockControl)\n        returns (bool)\n    {\n        return super.supportsInterface(interfaceId);\n    }\n}",
  "sourcePath": "/home/fccoelho/Mega/Cursos/Blockchain_EMAp/Dpublish/contracts/DPubGovernor.sol",
  "compiler": {
    "name": "solc",
    "version": "0.8.2+commit.661d1103.Emscripten.clang"
  },
  "schemaVersion": "3.4.3",
  "updatedAt": "2021-10-29T08:57:30.797Z",
  "devdoc": {
    "custom:security-contact": "fccoelho@gmail.com",
    "kind": "dev",
    "methods": {
      "COUNTING_MODE()": {
        "details": "See {IGovernor-COUNTING_MODE}."
      },
      "castVote(uint256,uint8)": {
        "details": "See {IGovernor-castVote}."
      },
      "castVoteBySig(uint256,uint8,uint8,bytes32,bytes32)": {
        "details": "See {IGovernor-castVoteBySig}."
      },
      "castVoteWithReason(uint256,uint8,string)": {
        "details": "See {IGovernor-castVoteWithReason}."
      },
      "execute(address[],uint256[],bytes[],bytes32)": {
        "details": "See {IGovernor-execute}."
      },
      "hasVoted(uint256,address)": {
        "details": "See {IGovernor-hasVoted}."
      },
      "hashProposal(address[],uint256[],bytes[],bytes32)": {
        "details": "See {IGovernor-hashProposal}. The proposal id is produced by hashing the RLC encoded `targets` array, the `values` array, the `calldatas` array and the descriptionHash (bytes32 which itself is the keccak256 hash of the description string). This proposal id can be produced from the proposal data which is part of the {ProposalCreated} event. It can even be computed in advance, before the proposal is submitted. Note that the chainId and the governor address are not part of the proposal id computation. Consequently, the same proposal (with same operation and same description) will have the same id if submitted on multiple governors accross multiple networks. This also means that in order to execute the same operation twice (on the same governor) the proposer will have to change the description in order to avoid proposal id conflicts."
      },
      "name()": {
        "details": "See {IGovernor-name}."
      },
      "proposalDeadline(uint256)": {
        "details": "See {IGovernor-proposalDeadline}."
      },
      "proposalEta(uint256)": {
        "details": "Public accessor to check the eta of a queued proposal"
      },
      "proposalSnapshot(uint256)": {
        "details": "See {IGovernor-proposalSnapshot}."
      },
      "proposalVotes(uint256)": {
        "details": "Accessor to the internal vote counts."
      },
      "queue(address[],uint256[],bytes[],bytes32)": {
        "details": "Function to queue a proposal to the timelock."
      },
      "timelock()": {
        "details": "Public accessor to check the address of the timelock"
      },
      "updateTimelock(address)": {
        "details": "Public endpoint to update the underlying timelock instance. Restricted to the timelock itself, so updates must be proposed, scheduled and executed using the {Governor} workflow."
      },
      "version()": {
        "details": "See {IGovernor-version}."
      },
      "votingDelay()": {
        "details": "delay, in number of block, between the proposal is created and the vote starts. This can be increassed to leave time for users to buy voting power, of delegate it, before the voting of a proposal starts."
      },
      "votingPeriod()": {
        "details": "delay, in number of blocks, between the vote start and vote ends. Note: the {votingDelay} can delay the start of the vote. This must be considered when setting the voting duration compared to the voting delay."
      }
    },
    "version": 1
  },
  "userdoc": {
    "kind": "user",
    "methods": {
      "votingDelay()": {
        "notice": "module:user-config"
      },
      "votingPeriod()": {
        "notice": "module:user-config"
      }
    },
    "version": 1
  }
}