{
  "contractName": "DPublish",
  "abi": [
    {
      "inputs": [],
      "stateMutability": "nonpayable",
      "type": "constructor"
    },
    {
      "inputs": [
        {
          "internalType": "uint256",
          "name": "requested",
          "type": "uint256"
        },
        {
          "internalType": "uint256",
          "name": "avaible",
          "type": "uint256"
        }
      ],
      "name": "NotEnoughFunds",
      "type": "error"
    },
    {
      "anonymous": false,
      "inputs": [
        {
          "indexed": false,
          "internalType": "address",
          "name": "autor",
          "type": "address"
        },
        {
          "indexed": false,
          "internalType": "address",
          "name": "reviwer_1",
          "type": "address"
        },
        {
          "indexed": false,
          "internalType": "address",
          "name": "reviwer_2",
          "type": "address"
        },
        {
          "indexed": false,
          "internalType": "string",
          "name": "idmanuscript",
          "type": "string"
        }
      ],
      "name": "ManuscriptPublished",
      "type": "event"
    },
    {
      "anonymous": false,
      "inputs": [
        {
          "indexed": false,
          "internalType": "address",
          "name": "reviwer",
          "type": "address"
        },
        {
          "indexed": false,
          "internalType": "string",
          "name": "idmanuscript",
          "type": "string"
        },
        {
          "indexed": false,
          "internalType": "uint256",
          "name": "review_number",
          "type": "uint256"
        }
      ],
      "name": "ManuscriptRevised",
      "type": "event"
    },
    {
      "anonymous": false,
      "inputs": [
        {
          "indexed": false,
          "internalType": "address",
          "name": "from",
          "type": "address"
        },
        {
          "indexed": false,
          "internalType": "uint256",
          "name": "amount",
          "type": "uint256"
        }
      ],
      "name": "PaymentReceived",
      "type": "event"
    },
    {
      "inputs": [
        {
          "internalType": "string",
          "name": "",
          "type": "string"
        }
      ],
      "name": "bounties",
      "outputs": [
        {
          "internalType": "uint256",
          "name": "",
          "type": "uint256"
        }
      ],
      "stateMutability": "view",
      "type": "function"
    },
    {
      "inputs": [
        {
          "internalType": "string",
          "name": "",
          "type": "string"
        }
      ],
      "name": "manuscripts_links",
      "outputs": [
        {
          "internalType": "string",
          "name": "",
          "type": "string"
        }
      ],
      "stateMutability": "view",
      "type": "function"
    },
    {
      "inputs": [
        {
          "internalType": "string",
          "name": "",
          "type": "string"
        }
      ],
      "name": "published",
      "outputs": [
        {
          "internalType": "bool",
          "name": "",
          "type": "bool"
        }
      ],
      "stateMutability": "view",
      "type": "function"
    },
    {
      "inputs": [],
      "name": "publishing_fee",
      "outputs": [
        {
          "internalType": "uint256",
          "name": "",
          "type": "uint256"
        }
      ],
      "stateMutability": "view",
      "type": "function"
    },
    {
      "inputs": [
        {
          "internalType": "string",
          "name": "",
          "type": "string"
        }
      ],
      "name": "review1_manuscripts",
      "outputs": [
        {
          "internalType": "address",
          "name": "",
          "type": "address"
        }
      ],
      "stateMutability": "view",
      "type": "function"
    },
    {
      "inputs": [
        {
          "internalType": "string",
          "name": "",
          "type": "string"
        }
      ],
      "name": "review2_manuscripts",
      "outputs": [
        {
          "internalType": "address",
          "name": "",
          "type": "address"
        }
      ],
      "stateMutability": "view",
      "type": "function"
    },
    {
      "inputs": [],
      "name": "review_fee",
      "outputs": [
        {
          "internalType": "uint256",
          "name": "",
          "type": "uint256"
        }
      ],
      "stateMutability": "view",
      "type": "function"
    },
    {
      "inputs": [
        {
          "internalType": "string",
          "name": "",
          "type": "string"
        }
      ],
      "name": "review_qtd",
      "outputs": [
        {
          "internalType": "uint256",
          "name": "",
          "type": "uint256"
        }
      ],
      "stateMutability": "view",
      "type": "function"
    },
    {
      "inputs": [
        {
          "internalType": "address",
          "name": "",
          "type": "address"
        }
      ],
      "name": "reviewers",
      "outputs": [
        {
          "internalType": "bool",
          "name": "",
          "type": "bool"
        }
      ],
      "stateMutability": "view",
      "type": "function"
    },
    {
      "inputs": [
        {
          "internalType": "string",
          "name": "",
          "type": "string"
        }
      ],
      "name": "reviewing",
      "outputs": [
        {
          "internalType": "bool",
          "name": "",
          "type": "bool"
        }
      ],
      "stateMutability": "view",
      "type": "function"
    },
    {
      "inputs": [
        {
          "internalType": "string",
          "name": "",
          "type": "string"
        }
      ],
      "name": "submited_manuscripts",
      "outputs": [
        {
          "internalType": "address",
          "name": "",
          "type": "address"
        }
      ],
      "stateMutability": "view",
      "type": "function"
    },
    {
      "inputs": [
        {
          "internalType": "address",
          "name": "",
          "type": "address"
        }
      ],
      "name": "wallets",
      "outputs": [
        {
          "internalType": "uint256",
          "name": "DPTK",
          "type": "uint256"
        }
      ],
      "stateMutability": "view",
      "type": "function"
    },
    {
      "inputs": [
        {
          "internalType": "string",
          "name": "idmanuscript",
          "type": "string"
        }
      ],
      "name": "generate_link",
      "outputs": [],
      "stateMutability": "nonpayable",
      "type": "function"
    },
    {
      "inputs": [],
      "name": "get_publishing_fee",
      "outputs": [
        {
          "internalType": "uint256",
          "name": "",
          "type": "uint256"
        }
      ],
      "stateMutability": "view",
      "type": "function"
    },
    {
      "inputs": [],
      "name": "get_review_fee",
      "outputs": [
        {
          "internalType": "uint256",
          "name": "",
          "type": "uint256"
        }
      ],
      "stateMutability": "view",
      "type": "function"
    },
    {
      "inputs": [
        {
          "internalType": "string",
          "name": "idmanuscript",
          "type": "string"
        }
      ],
      "name": "publish_manuscript",
      "outputs": [],
      "stateMutability": "nonpayable",
      "type": "function"
    },
    {
      "inputs": [
        {
          "internalType": "string",
          "name": "idmanuscript",
          "type": "string"
        },
        {
          "internalType": "uint256",
          "name": "review_number",
          "type": "uint256"
        }
      ],
      "name": "emits_reviewtoken",
      "outputs": [],
      "stateMutability": "nonpayable",
      "type": "function"
    },
    {
      "inputs": [
        {
          "internalType": "string",
          "name": "idmanuscript",
          "type": "string"
        },
        {
          "internalType": "address",
          "name": "autor",
          "type": "address"
        }
      ],
      "name": "emits_papertoken",
      "outputs": [],
      "stateMutability": "nonpayable",
      "type": "function"
    },
    {
      "inputs": [],
      "name": "pay_reviewers",
      "outputs": [],
      "stateMutability": "nonpayable",
      "type": "function"
    },
    {
      "inputs": [
        {
          "internalType": "string",
          "name": "idmanuscript",
          "type": "string"
        }
      ],
      "name": "submit_manuscript",
      "outputs": [],
      "stateMutability": "payable",
      "type": "function"
    },
    {
      "inputs": [],
      "name": "subscribe_reviewer",
      "outputs": [],
      "stateMutability": "nonpayable",
      "type": "function"
    },
    {
      "inputs": [
        {
          "internalType": "string",
          "name": "idmanuscript",
          "type": "string"
        },
        {
          "internalType": "bool",
          "name": "review_1",
          "type": "bool"
        }
      ],
      "name": "start_review",
      "outputs": [],
      "stateMutability": "nonpayable",
      "type": "function"
    },
    {
      "inputs": [
        {
          "internalType": "string",
          "name": "idmanuscript",
          "type": "string"
        },
        {
          "internalType": "bool",
          "name": "review_1",
          "type": "bool"
        }
      ],
      "name": "finish_review",
      "outputs": [],
      "stateMutability": "nonpayable",
      "type": "function"
    }
  ],
  "bytecode": "0x60806040526103e8600a5560fa600b5534801561001b57600080fd5b5033600960006101000a81548173ffffffffffffffffffffffffffffffffffffffff021916908373ffffffffffffffffffffffffffffffffffffffff16021790555061252d8061006c6000396000f3fe6080604052600436106101405760003560e01c8063a52abdd2116100b6578063cdeca2521161006f578063cdeca252146104a8578063cf8f9085146104c4578063d312aab6146104ed578063d437b69814610504578063f32d791d1461052d578063f7cbb1b21461055657610140565b8063a52abdd214610372578063a64f4aeb146103af578063a7233bd3146103ec578063bfb11e5014610429578063c4ee991c14610454578063cbb5f2d01461047d57610140565b80637372e2fe116101085780637372e2fe1461025057806389b08f11146102675780638cd72d34146102a45780639a6f9d38146102cd5780639a86285f1461030a578063a1338fa31461033557610140565b80633a46b4c4146101455780633cbef3731461018257806356da9096146101bf5780635738555a146101e8578063722a571314610213575b600080fd5b34801561015157600080fd5b5061016c60048036038101906101679190611b48565b610593565b6040516101799190611e47565b60405180910390f35b34801561018e57600080fd5b506101a960048036038101906101a49190611b48565b6105dc565b6040516101b69190612050565b60405180910390f35b3480156101cb57600080fd5b506101e660048036038101906101e19190611b48565b61060a565b005b3480156101f457600080fd5b506101fd61067e565b60405161020a9190612050565b60405180910390f35b34801561021f57600080fd5b5061023a60048036038101906102359190611b48565b610684565b6040516102479190612050565b60405180910390f35b34801561025c57600080fd5b506102656106b2565b005b34801561027357600080fd5b5061028e60048036038101906102899190611b1f565b61070f565b60405161029b9190612050565b60405180910390f35b3480156102b057600080fd5b506102cb60048036038101906102c69190611b48565b61072d565b005b3480156102d957600080fd5b506102f460048036038101906102ef9190611b48565b610767565b6040516103019190611f6e565b60405180910390f35b34801561031657600080fd5b5061031f61081d565b60405161032c9190612050565b60405180910390f35b34801561034157600080fd5b5061035c60048036038101906103579190611b48565b610827565b6040516103699190611e47565b60405180910390f35b34801561037e57600080fd5b5061039960048036038101906103949190611b48565b610870565b6040516103a69190611f53565b60405180910390f35b3480156103bb57600080fd5b506103d660048036038101906103d19190611b48565b6108a6565b6040516103e39190611e47565b60405180910390f35b3480156103f857600080fd5b50610413600480360381019061040e9190611b48565b6108ef565b6040516104209190611f53565b60405180910390f35b34801561043557600080fd5b5061043e610925565b60405161044b9190612050565b60405180910390f35b34801561046057600080fd5b5061047b60048036038101906104769190611bdd565b61092f565b005b34801561048957600080fd5b50610492610dcc565b60405161049f9190612050565b60405180910390f35b6104c260048036038101906104bd9190611b48565b610dd2565b005b3480156104d057600080fd5b506104eb60048036038101906104e69190611bdd565b61101b565b005b3480156104f957600080fd5b506105026114ae565b005b34801561051057600080fd5b5061052b60048036038101906105269190611c31565b611508565b005b34801561053957600080fd5b50610554600480360381019061054f9190611b89565b611782565b005b34801561056257600080fd5b5061057d60048036038101906105789190611b1f565b611989565b60405161058a9190611f53565b60405180910390f35b6003818051602081018201805184825260208301602085012081835280955050505050506000915054906101000a900473ffffffffffffffffffffffffffffffffffffffff1681565b6002818051602081018201805184825260208301602085012081835280955050505050506000915090505481565b6106496040518060400160405280601581526020017f68747470733a2f2f647075626c6973682e6f72672f0000000000000000000000815250826119a9565b6001826040516106599190611e0c565b9081526020016040518091039020908051906020019061067a9291906119d5565b5050565b600b5481565b6006818051602081018201805184825260208301602085012081835280955050505050506000915090505481565b600b54600c60003373ffffffffffffffffffffffffffffffffffffffff1673ffffffffffffffffffffffffffffffffffffffff16815260200190815260200160002060000160008282546107069190612111565b92505081905550565b600c6020528060005260406000206000915090508060000154905081565b600160088260405161073f9190611e0c565b908152602001604051809103902060006101000a81548160ff02191690831515021790555050565b600181805160208101820180518482526020830160208501208183528095505050505050600091509050805461079c90612249565b80601f01602080910402602001604051908101604052809291908181526020018280546107c890612249565b80156108155780601f106107ea57610100808354040283529160200191610815565b820191906000526020600020905b8154815290600101906020018083116107f857829003601f168201915b505050505081565b6000600a54905090565b6004818051602081018201805184825260208301602085012081835280955050505050506000915054906101000a900473ffffffffffffffffffffffffffffffffffffffff1681565b6008818051602081018201805184825260208301602085012081835280955050505050506000915054906101000a900460ff1681565b6000818051602081018201805184825260208301602085012081835280955050505050506000915054906101000a900473ffffffffffffffffffffffffffffffffffffffff1681565b6007818051602081018201805184825260208301602085012081835280955050505050506000915054906101000a900460ff1681565b6000600b54905090565b60016007836040516109419190611e0c565b908152602001604051809103902060006101000a81548160ff02191690831515021790556109a4576040517f08c379a000000000000000000000000000000000000000000000000000000000815260040161099b90612030565b60405180910390fd5b8015610b17573373ffffffffffffffffffffffffffffffffffffffff166003836040516109d19190611e0c565b908152602001604051809103902060009054906101000a900473ffffffffffffffffffffffffffffffffffffffff1673ffffffffffffffffffffffffffffffffffffffff1614610a56576040517f08c379a0000000000000000000000000000000000000000000000000000000008152600401610a4d90611fd0565b60405180910390fd5b6001600683604051610a689190611e0c565b90815260200160405180910390206000828254610a859190612111565b925050819055506000600783604051610a9e9190611e0c565b908152602001604051809103902060006101000a81548160ff021916908315150217905550610ace826001611508565b610ad66106b2565b7f1fb0abc4c62b3a14144422a4374bda4e032b5353d8fc931237f3407e4cb92f5433836001604051610b0a93929190611eae565b60405180910390a1610dc8565b3373ffffffffffffffffffffffffffffffffffffffff16600483604051610b3e9190611e0c565b908152602001604051809103902060009054906101000a900473ffffffffffffffffffffffffffffffffffffffff1673ffffffffffffffffffffffffffffffffffffffff1614610bc3576040517f08c379a0000000000000000000000000000000000000000000000000000000008152600401610bba90611fd0565b60405180910390fd5b6001600683604051610bd59190611e0c565b90815260200160405180910390206000828254610bf29190612111565b925050819055506000600783604051610c0b9190611e0c565b908152602001604051809103902060006101000a81548160ff021916908315150217905550610c398261072d565b610c44826001611508565b610c4c6106b2565b610c9482600084604051610c609190611e0c565b908152602001604051809103902060009054906101000a900473ffffffffffffffffffffffffffffffffffffffff16611782565b7f1fb0abc4c62b3a14144422a4374bda4e032b5353d8fc931237f3407e4cb92f5433836002604051610cc893929190611eec565b60405180910390a17f5745b6265ade898983f45b04ba7143ada49a0e961d7bb59bec36c85d2bb5911e600083604051610d019190611e0c565b908152602001604051809103902060009054906101000a900473ffffffffffffffffffffffffffffffffffffffff16600384604051610d409190611e0c565b908152602001604051809103902060009054906101000a900473ffffffffffffffffffffffffffffffffffffffff16600485604051610d7f9190611e0c565b908152602001604051809103902060009054906101000a900473ffffffffffffffffffffffffffffffffffffffff1685604051610dbf9493929190611e62565b60405180910390a15b5050565b600a5481565b33600082604051610de39190611e0c565b908152602001604051809103902060006101000a81548173ffffffffffffffffffffffffffffffffffffffff021916908373ffffffffffffffffffffffffffffffffffffffff160217905550610e388161060a565b6000600c60003373ffffffffffffffffffffffffffffffffffffffff1673ffffffffffffffffffffffffffffffffffffffff168152602001908152602001600020600001549050600a54811015610eca57600a54816040517f8c905368000000000000000000000000000000000000000000000000000000008152600401610ec192919061206b565b60405180910390fd5b600a54600c60003373ffffffffffffffffffffffffffffffffffffffff1673ffffffffffffffffffffffffffffffffffffffff1681526020019081526020016000206000016000828254610f1e9190612167565b92505081905550600a54600283604051610f389190611e0c565b9081526020016040518091039020819055506000600683604051610f5c9190611e0c565b9081526020016040518091039020819055506000600783604051610f809190611e0c565b908152602001604051809103902060006101000a81548160ff0219169083151502179055506000600883604051610fb79190611e0c565b908152602001604051809103902060006101000a81548160ff0219169083151502179055507f6ef95f06320e7a25a04a175ca677b7052bdd97131872c2192525a629f51be77033600a5460405161100f929190611f2a565b60405180910390a15050565b60011515600560003373ffffffffffffffffffffffffffffffffffffffff1673ffffffffffffffffffffffffffffffffffffffff16815260200190815260200160002060009054906101000a900460ff161515146110ae576040517f08c379a00000000000000000000000000000000000000000000000000000000081526004016110a590611f90565b60405180910390fd5b60006008836040516110c09190611e0c565b908152602001604051809103902060006101000a81548160ff0219169083151502179055611123576040517f08c379a000000000000000000000000000000000000000000000000000000000815260040161111a90611ff0565b60405180910390fd5b801561129557600060068360405161113b9190611e0c565b9081526020016040518091039020541461118a576040517f08c379a000000000000000000000000000000000000000000000000000000000815260040161118190612010565b60405180910390fd5b6000151560078360405161119e9190611e0c565b908152602001604051809103902060009054906101000a900460ff161515146111fc576040517f08c379a00000000000000000000000000000000000000000000000000000000081526004016111f390611fb0565b60405180910390fd5b600160078360405161120e9190611e0c565b908152602001604051809103902060006101000a81548160ff021916908315150217905550336003836040516112449190611e0c565b908152602001604051809103902060006101000a81548173ffffffffffffffffffffffffffffffffffffffff021916908373ffffffffffffffffffffffffffffffffffffffff1602179055506114aa565b60016006836040516112a79190611e0c565b908152602001604051809103902054146112f6576040517f08c379a00000000000000000000000000000000000000000000000000000000081526004016112ed90611fb0565b60405180910390fd5b6000151560078360405161130a9190611e0c565b908152602001604051809103902060009054906101000a900460ff16151514611368576040517f08c379a000000000000000000000000000000000000000000000000000000000815260040161135f90611fb0565b60405180910390fd5b3373ffffffffffffffffffffffffffffffffffffffff1660038360405161138f9190611e0c565b908152602001604051809103902060009054906101000a900473ffffffffffffffffffffffffffffffffffffffff1673ffffffffffffffffffffffffffffffffffffffff161415611415576040517f08c379a000000000000000000000000000000000000000000000000000000000815260040161140c90612010565b60405180910390fd5b60016007836040516114279190611e0c565b908152602001604051809103902060006101000a81548160ff0219169083151502179055503360048360405161145d9190611e0c565b908152602001604051809103902060006101000a81548173ffffffffffffffffffffffffffffffffffffffff021916908373ffffffffffffffffffffffffffffffffffffffff1602179055505b5050565b6001600560003373ffffffffffffffffffffffffffffffffffffffff1673ffffffffffffffffffffffffffffffffffffffff16815260200190815260200160002060006101000a81548160ff021916908315150217905550565b600c60003373ffffffffffffffffffffffffffffffffffffffff1673ffffffffffffffffffffffffffffffffffffffff1681526020019081526020016000206001016040518060a0016040528084815260200160008560405161156b9190611e0c565b908152602001604051809103902060009054906101000a900473ffffffffffffffffffffffffffffffffffffffff1673ffffffffffffffffffffffffffffffffffffffff1681526020013373ffffffffffffffffffffffffffffffffffffffff1681526020018381526020016001856040516115e79190611e0c565b9081526020016040518091039020805461160090612249565b80601f016020809104026020016040519081016040528092919081815260200182805461162c90612249565b80156116795780601f1061164e57610100808354040283529160200191611679565b820191906000526020600020905b81548152906001019060200180831161165c57829003601f168201915b5050505050815250908060018154018082558091505060019003906000526020600020906005020160009091909190915060008201518160000190805190602001906116c69291906119d5565b5060208201518160010160006101000a81548173ffffffffffffffffffffffffffffffffffffffff021916908373ffffffffffffffffffffffffffffffffffffffff16021790555060408201518160020160006101000a81548173ffffffffffffffffffffffffffffffffffffffff021916908373ffffffffffffffffffffffffffffffffffffffff16021790555060608201518160030155608082015181600401908051906020019061177b9291906119d5565b5050505050565b600c60008273ffffffffffffffffffffffffffffffffffffffff1673ffffffffffffffffffffffffffffffffffffffff16815260200190815260200160002060020160405180606001604052808481526020016000856040516117e59190611e0c565b908152602001604051809103902060009054906101000a900473ffffffffffffffffffffffffffffffffffffffff1673ffffffffffffffffffffffffffffffffffffffff16815260200160018560405161183f9190611e0c565b9081526020016040518091039020805461185890612249565b80601f016020809104026020016040519081016040528092919081815260200182805461188490612249565b80156118d15780601f106118a6576101008083540402835291602001916118d1565b820191906000526020600020905b8154815290600101906020018083116118b457829003601f168201915b50505050508152509080600181540180825580915050600190039060005260206000209060030201600090919091909150600082015181600001908051906020019061191e9291906119d5565b5060208201518160010160006101000a81548173ffffffffffffffffffffffffffffffffffffffff021916908373ffffffffffffffffffffffffffffffffffffffff16021790555060408201518160020190805190602001906119829291906119d5565b5050505050565b60056020528060005260406000206000915054906101000a900460ff1681565b606082826040516020016119be929190611e23565b604051602081830303815290604052905092915050565b8280546119e190612249565b90600052602060002090601f016020900481019282611a035760008555611a4a565b82601f10611a1c57805160ff1916838001178555611a4a565b82800160010185558215611a4a579182015b82811115611a49578251825591602001919060010190611a2e565b5b509050611a579190611a5b565b5090565b5b80821115611a74576000816000905550600101611a5c565b5090565b6000611a8b611a86846120b9565b612094565b905082815260208101848484011115611aa357600080fd5b611aae848285612207565b509392505050565b600081359050611ac5816124b2565b92915050565b600081359050611ada816124c9565b92915050565b600082601f830112611af157600080fd5b8135611b01848260208601611a78565b91505092915050565b600081359050611b19816124e0565b92915050565b600060208284031215611b3157600080fd5b6000611b3f84828501611ab6565b91505092915050565b600060208284031215611b5a57600080fd5b600082013567ffffffffffffffff811115611b7457600080fd5b611b8084828501611ae0565b91505092915050565b60008060408385031215611b9c57600080fd5b600083013567ffffffffffffffff811115611bb657600080fd5b611bc285828601611ae0565b9250506020611bd385828601611ab6565b9150509250929050565b60008060408385031215611bf057600080fd5b600083013567ffffffffffffffff811115611c0a57600080fd5b611c1685828601611ae0565b9250506020611c2785828601611acb565b9150509250929050565b60008060408385031215611c4457600080fd5b600083013567ffffffffffffffff811115611c5e57600080fd5b611c6a85828601611ae0565b9250506020611c7b85828601611b0a565b9150509250929050565b611c8e8161219b565b82525050565b611c9d816121ad565b82525050565b611cac816121e3565b82525050565b611cbb816121f5565b82525050565b6000611ccc826120ea565b611cd681856120f5565b9350611ce6818560208601612216565b611cef81612339565b840191505092915050565b6000611d05826120ea565b611d0f8185612106565b9350611d1f818560208601612216565b80840191505092915050565b6000611d38600e836120f5565b9150611d438261234a565b602082019050919050565b6000611d5b6020836120f5565b9150611d6682612373565b602082019050919050565b6000611d7e601d836120f5565b9150611d898261239c565b602082019050919050565b6000611da16022836120f5565b9150611dac826123c5565b604082019050919050565b6000611dc46021836120f5565b9150611dcf82612414565b604082019050919050565b6000611de76024836120f5565b9150611df282612463565b604082019050919050565b611e06816121d9565b82525050565b6000611e188284611cfa565b915081905092915050565b6000611e2f8285611cfa565b9150611e3b8284611cfa565b91508190509392505050565b6000602082019050611e5c6000830184611c85565b92915050565b6000608082019050611e776000830187611c85565b611e846020830186611c85565b611e916040830185611c85565b8181036060830152611ea38184611cc1565b905095945050505050565b6000606082019050611ec36000830186611c85565b8181036020830152611ed58185611cc1565b9050611ee46040830184611ca3565b949350505050565b6000606082019050611f016000830186611c85565b8181036020830152611f138185611cc1565b9050611f226040830184611cb2565b949350505050565b6000604082019050611f3f6000830185611c85565b611f4c6020830184611dfd565b9392505050565b6000602082019050611f686000830184611c94565b92915050565b60006020820190508181036000830152611f888184611cc1565b905092915050565b60006020820190508181036000830152611fa981611d2b565b9050919050565b60006020820190508181036000830152611fc981611d4e565b9050919050565b60006020820190508181036000830152611fe981611d71565b9050919050565b6000602082019050818103600083015261200981611d94565b9050919050565b6000602082019050818103600083015261202981611db7565b9050919050565b6000602082019050818103600083015261204981611dda565b9050919050565b60006020820190506120656000830184611dfd565b92915050565b60006040820190506120806000830185611dfd565b61208d6020830184611dfd565b9392505050565b600061209e6120af565b90506120aa828261227b565b919050565b6000604051905090565b600067ffffffffffffffff8211156120d4576120d361230a565b5b6120dd82612339565b9050602081019050919050565b600081519050919050565b600082825260208201905092915050565b600081905092915050565b600061211c826121d9565b9150612127836121d9565b9250827fffffffffffffffffffffffffffffffffffffffffffffffffffffffffffffffff0382111561215c5761215b6122ac565b5b828201905092915050565b6000612172826121d9565b915061217d836121d9565b9250828210156121905761218f6122ac565b5b828203905092915050565b60006121a6826121b9565b9050919050565b60008115159050919050565b600073ffffffffffffffffffffffffffffffffffffffff82169050919050565b6000819050919050565b60006121ee826121d9565b9050919050565b6000612200826121d9565b9050919050565b82818337600083830152505050565b60005b83811015612234578082015181840152602081019050612219565b83811115612243576000848401525b50505050565b6000600282049050600182168061226157607f821691505b60208210811415612275576122746122db565b5b50919050565b61228482612339565b810181811067ffffffffffffffff821117156122a3576122a261230a565b5b80604052505050565b7f4e487b7100000000000000000000000000000000000000000000000000000000600052601160045260246000fd5b7f4e487b7100000000000000000000000000000000000000000000000000000000600052602260045260246000fd5b7f4e487b7100000000000000000000000000000000000000000000000000000000600052604160045260246000fd5b6000601f19601f8301169050919050565b7f4f6e6c7920526576696577657273000000000000000000000000000000000000600082015250565b7f54686973206d616e75736372697074206973206265696e672072657669736564600082015250565b7f596f752063616e6e6f742066696e697368207468697320726576696577000000600082015250565b7f54686973206d616e7573637269707420686173206265656e207075626c69736860008201527f6564000000000000000000000000000000000000000000000000000000000000602082015250565b7f596f752063616e6e6f74207265766965772074686973206d616e75736372697060008201527f7400000000000000000000000000000000000000000000000000000000000000602082015250565b7f54686973206d616e75736372697074206973206e6f74206265696e672072657660008201527f6973656400000000000000000000000000000000000000000000000000000000602082015250565b6124bb8161219b565b81146124c657600080fd5b50565b6124d2816121ad565b81146124dd57600080fd5b50565b6124e9816121d9565b81146124f457600080fd5b5056fea264697066735822122089e7d3b4a284b488475d06c08b51d1d028bfef63c0e2e7fab096fcb7a823a0bd64736f6c63430008040033",
  "immutableReferences": {},
  "source": "// SPDX-License-Identifier: MIT\npragma solidity ^0.8.2;\n\nimport \"./DPubToken.sol\";\nimport \"./ReviewToken.sol\";\nimport \"./PaperToken.sol\";\n\nimport \"@openzeppelin/contracts/utils/Context.sol\";\n\n\n\ncontract DPublish is Context{\n    mapping(string => address) public submited_manuscripts;\n    mapping(string => string) public manuscripts_links;//links dos artigos\n    mapping(string => uint256) public bounties; //pagamentos por artigos\n    \n    //Processo de Revisao\n    mapping(string => address) public review1_manuscripts;//artigos revisados uma vez\n    mapping(string => address) public review2_manuscripts;//artigso revisados duas vezes\n    mapping(address => bool) public reviewers;// Lista de revisores\n    mapping(string => uint) public review_qtd; // Quantidade de vezes que o manuscrito foi revisado\n    mapping(string => bool) public reviewing; // mostra se o arquivo ta sendo revisado\n    mapping(string => bool) public  published;//arquivos publicados\n\n    address private Editor;//Quem vai iniciar o dpublish\n    uint256 public publishing_fee = 1000; //preco pra publicar\n    uint256 public review_fee = 250;//preco que cada revisor recebe\n\n    //simulador de aperToken\n    struct papertoken{\n        string idmanuscript;\n        address autor;\n        string link;\n    }\n\n    //simulador de ReviewToken \n    struct reviewtoken{\n        string idmanuscript;\n        address autor;\n        address reviewr;\n        uint256 review_number;\n        string link;\n    }\n\n    //Estrutura da carteira\n        struct wallet {\n        uint256 DPTK;//quantidade de DPTK\n        reviewtoken[] RTKs;//lista de RTKs\n        papertoken[] PTKs;//lista de PTKs\n        }\n\n    mapping(address => wallet) public wallets;\n\n\n    //events\n    event PaymentReceived(address from, uint256 amount);// evento quando o pagamento e recebido\n    event ManuscriptRevised(address reviwer, string idmanuscript, uint review_number);//Evento quando um artigo e revisado\n    event ManuscriptPublished(address autor,address reviwer_1,address reviwer_2, string idmanuscript);//Evento quando um artigo e publicado\n    //errors\n    error NotEnoughFunds(uint256 requested, uint256 avaible);\n\n    //DPubToken  private DPubTokens;\n    //ReviewToken private ReviewTokens;\n    //PaperToken private PaperTokens;\n\n\n    constructor(){\n        Editor = msg.sender;\n        //DPubTokens = new DPubToken();\n        //ReviewTokens  = new ReviewToken();\n        //PaperTokens = new PaperToken();\n\n    }\n\n    //Funcao que concatena duas strings\n    //precisa de teste\n    function append(string memory a, string memory b) internal pure returns (string memory ) {\n\n    return string(abi.encodePacked(a, b));\n\n}\n\n    //Gera um link para o artigo mas nao deixa publico\n    function generate_link(string memory idmanuscript)public{\n        //criando um link , precisa de teste\n        manuscripts_links[idmanuscript] = append(\"https://dpublish.org/\", idmanuscript);\n\n\n    }\n\n    //Editor pode mudar o preco do publishing fee\n    function set_publishing_fee(uint256 fee) private{\n        require(msg.sender == Editor);\n        publishing_fee = fee;\n    }\n\n    //Ver o preco do publishing fee\n    function get_publishing_fee() view public returns(uint256) {\n        return publishing_fee ;\n    }\n\n        //Editor pode mudar o preco do review fee\n    function set_review_fee(uint256 fee) private{\n        review_fee = fee;\n    }\n\n    //Ver o preco do review fee\n    function get_review_fee() view public returns(uint256) {\n        return review_fee ;\n    }\n\n    //Publica artigo\n    function publish_manuscript(string memory idmanuscript) public {\n        published[idmanuscript] = true;\n    }\n\n    //Emite ReviewToken\n    function emits_reviewtoken(string memory idmanuscript, uint256 review_number) public{\n        //ReviewTokens.safeMint(reviewer, tokenId);\n        wallets[msg.sender].RTKs.push(reviewtoken(idmanuscript,submited_manuscripts[idmanuscript],msg.sender,review_number,manuscripts_links[idmanuscript]));\n        }\n\n    //Emite PaperToken\n    function emits_papertoken(string memory idmanuscript, address autor) public{\n        //PaperTokens.safeMint(reviewer, tokenId);\n        wallets[autor].PTKs.push(papertoken(idmanuscript,submited_manuscripts[idmanuscript],manuscripts_links[idmanuscript]));\n        }\n\n    //Pagando DPTK  para os revisores\n    function pay_reviewers() public {\n        wallets[msg.sender].DPTK += review_fee;\n\n    }\n    \n    //Envia manuscrito\n    function submit_manuscript(string memory idmanuscript) public payable{\n        submited_manuscripts[idmanuscript] = msg.sender;\n        generate_link(idmanuscript);\n        uint balance = wallets[msg.sender].DPTK;\n        if (balance < publishing_fee)\n            revert NotEnoughFunds(publishing_fee, balance);\n        wallets[msg.sender].DPTK -= publishing_fee;\n        bounties[idmanuscript] = publishing_fee;\n\n        //nao esta sendo revisado\n        review_qtd[idmanuscript] = 0;\n        reviewing[idmanuscript] = false;\n        published[idmanuscript] = false;\n\n        emit PaymentReceived(msg.sender, publishing_fee);\n    }\n\n\n    //revisor se inscreve\n\n    function subscribe_reviewer()public {\n        reviewers[msg.sender] =  true;   \n    }\n\n    //Revisor comeca a revisao, pode ser a primeira ou segunda\n\n    function start_review(string memory idmanuscript, bool review_1) public {\n        //precisa que o msg.sender seja um revisor\n        require(reviewers[msg.sender] == true,\"Only Reviewers\");\n        //O manuscrito no pode ter sido publicado\n        require(published[idmanuscript] = false,\"This manuscript has been published\");\n        //se for a primeira revisao\n        if(review_1){\n            //manuscrito precisa ter 0 revisoes\n            require(review_qtd[idmanuscript] == 0, \"You cannot review this manuscript\");\n            //manuscrito nao pode estar sendo revisado\n            require(reviewing[idmanuscript] == false, \"This manuscript is being revised\");\n            //adiciona que o manuscrito esta sendo revisado\n            reviewing[idmanuscript] = true;\n            //adiciona o endereco do revisor \n            review1_manuscripts[idmanuscript] = msg.sender;\n        }\n        //segunda revisao\n        else{\n            //o manuscrito precisa ter sido revisado 1 vez\n            require(review_qtd[idmanuscript] == 1, \"This manuscript is being revised\");\n            //o manuscrito nao pode estar sendo revisado\n            require(reviewing[idmanuscript] == false, \"This manuscript is being revised\");\n            //o msg.sender nao pode ser o primeiro revisor\n            require(review1_manuscripts[idmanuscript] != msg.sender,\"You cannot review this manuscript\");\n            //adiciona que o manuscrito esta sendo revisado\n            reviewing[idmanuscript] = true;\n            //adiciona o endereco do revisor\n            review2_manuscripts[idmanuscript] = msg.sender;\n\n\n        }\n\n    }\n\n    function finish_review(string memory idmanuscript, bool review_1) public{\n        //O artigo precisa estar sendo revisado\n        require(reviewing[idmanuscript] = true, \"This manuscript is not being revised\");\n\n        //Caso for a primeira reviso\n        if(review_1){\n            //Apenas a pessoa que esta revisando o arquivo pode finalizar\n            require(review1_manuscripts[idmanuscript] == msg.sender,\"You cannot finish this review\");\n            //Incrementa 1 na quantidade de revisoes\n            review_qtd[idmanuscript] += 1;\n            //informa que o arquivo nao esta sendo mais revisado\n            reviewing[idmanuscript] = false;\n            //pay reviewr DPTK and RTK\n            emits_reviewtoken(idmanuscript, 1);\n            pay_reviewers();\n            //emitindo evento\n            emit ManuscriptRevised(msg.sender, idmanuscript, 1);\n        }\n        else{\n            //Apenas a pessoa que esta revisando o arquivo pode finalizar\n            require(review2_manuscripts[idmanuscript] == msg.sender,\"You cannot finish this review\");\n            //Incrementa 1 na quantidade de revisoes\n            review_qtd[idmanuscript] += 1;\n            //informa que o arquivo nao esta sendo mais revisado\n            reviewing[idmanuscript]  =  false;\n            //informa que o artigo foi publicado\n            publish_manuscript(idmanuscript);\n            //pay reviewer DPTK and RTK\n            emits_reviewtoken(idmanuscript, 1);\n            pay_reviewers();\n            //paper token  pro autor\n            emits_papertoken(idmanuscript, submited_manuscripts[idmanuscript]);\n            //emitindo os eventos\n            emit ManuscriptRevised(msg.sender, idmanuscript, 2);\n            emit ManuscriptPublished(submited_manuscripts[idmanuscript], review1_manuscripts[idmanuscript],review2_manuscripts[idmanuscript], idmanuscript);\n\n        }\n\n\n        }\n\n\n\n}",
  "sourcePath": "/home/alcindo/fgv/4p/cripto/Dpublish/contracts/DPublish.sol",
  "compiler": {
    "name": "solc",
    "version": "0.8.4+commit.c7e474f2.Emscripten.clang"
  },
  "schemaVersion": "3.4.3",
  "updatedAt": "2021-12-15T11:39:53.392Z",
  "devdoc": {
    "kind": "dev",
    "methods": {},
    "version": 1
  },
  "userdoc": {
    "kind": "user",
    "methods": {},
    "version": 1
  }
}