{
  "contractName": "DPublish",
  "abi": [
    {
      "inputs": [],
      "stateMutability": "nonpayable",
      "type": "constructor"
    },
    {
      "inputs": [
        {
          "internalType": "uint256",
          "name": "requested",
          "type": "uint256"
        },
        {
          "internalType": "uint256",
          "name": "avaible",
          "type": "uint256"
        }
      ],
      "name": "NotEnoughFunds",
      "type": "error"
    },
    {
      "anonymous": false,
      "inputs": [
        {
          "indexed": false,
          "internalType": "address",
          "name": "reviwer",
          "type": "address"
        },
        {
          "indexed": false,
          "internalType": "string",
          "name": "idmanuscript",
          "type": "string"
        },
        {
          "indexed": false,
          "internalType": "uint256",
          "name": "review_number",
          "type": "uint256"
        }
      ],
      "name": "ManuscriptRevised",
      "type": "event"
    },
    {
      "anonymous": false,
      "inputs": [
        {
          "indexed": false,
          "internalType": "address",
          "name": "from",
          "type": "address"
        },
        {
          "indexed": false,
          "internalType": "uint256",
          "name": "amount",
          "type": "uint256"
        }
      ],
      "name": "PaymentReceived",
      "type": "event"
    },
    {
      "inputs": [
        {
          "internalType": "address",
          "name": "",
          "type": "address"
        }
      ],
      "name": "balances",
      "outputs": [
        {
          "internalType": "uint256",
          "name": "",
          "type": "uint256"
        }
      ],
      "stateMutability": "view",
      "type": "function"
    },
    {
      "inputs": [
        {
          "internalType": "string",
          "name": "",
          "type": "string"
        }
      ],
      "name": "bounties",
      "outputs": [
        {
          "internalType": "uint256",
          "name": "",
          "type": "uint256"
        }
      ],
      "stateMutability": "view",
      "type": "function"
    },
    {
      "inputs": [
        {
          "internalType": "string",
          "name": "",
          "type": "string"
        }
      ],
      "name": "published",
      "outputs": [
        {
          "internalType": "bool",
          "name": "",
          "type": "bool"
        }
      ],
      "stateMutability": "view",
      "type": "function"
    },
    {
      "inputs": [],
      "name": "publishing_fee",
      "outputs": [
        {
          "internalType": "uint256",
          "name": "",
          "type": "uint256"
        }
      ],
      "stateMutability": "view",
      "type": "function"
    },
    {
      "inputs": [
        {
          "internalType": "string",
          "name": "",
          "type": "string"
        }
      ],
      "name": "review1_manuscripts",
      "outputs": [
        {
          "internalType": "address",
          "name": "",
          "type": "address"
        }
      ],
      "stateMutability": "view",
      "type": "function"
    },
    {
      "inputs": [
        {
          "internalType": "string",
          "name": "",
          "type": "string"
        }
      ],
      "name": "review2_manuscripts",
      "outputs": [
        {
          "internalType": "address",
          "name": "",
          "type": "address"
        }
      ],
      "stateMutability": "view",
      "type": "function"
    },
    {
      "inputs": [],
      "name": "review_fee",
      "outputs": [
        {
          "internalType": "uint256",
          "name": "",
          "type": "uint256"
        }
      ],
      "stateMutability": "view",
      "type": "function"
    },
    {
      "inputs": [
        {
          "internalType": "string",
          "name": "",
          "type": "string"
        }
      ],
      "name": "review_qtd",
      "outputs": [
        {
          "internalType": "uint256",
          "name": "",
          "type": "uint256"
        }
      ],
      "stateMutability": "view",
      "type": "function"
    },
    {
      "inputs": [
        {
          "internalType": "address",
          "name": "",
          "type": "address"
        }
      ],
      "name": "reviewers",
      "outputs": [
        {
          "internalType": "bool",
          "name": "",
          "type": "bool"
        }
      ],
      "stateMutability": "view",
      "type": "function"
    },
    {
      "inputs": [
        {
          "internalType": "string",
          "name": "",
          "type": "string"
        }
      ],
      "name": "reviewing",
      "outputs": [
        {
          "internalType": "bool",
          "name": "",
          "type": "bool"
        }
      ],
      "stateMutability": "view",
      "type": "function"
    },
    {
      "inputs": [
        {
          "internalType": "string",
          "name": "",
          "type": "string"
        }
      ],
      "name": "submited_manuscripts",
      "outputs": [
        {
          "internalType": "address",
          "name": "",
          "type": "address"
        }
      ],
      "stateMutability": "view",
      "type": "function"
    },
    {
      "inputs": [],
      "name": "get_publishing_fee",
      "outputs": [
        {
          "internalType": "uint256",
          "name": "",
          "type": "uint256"
        }
      ],
      "stateMutability": "view",
      "type": "function"
    },
    {
      "inputs": [],
      "name": "get_review_fee",
      "outputs": [
        {
          "internalType": "uint256",
          "name": "",
          "type": "uint256"
        }
      ],
      "stateMutability": "view",
      "type": "function"
    },
    {
      "inputs": [
        {
          "internalType": "string",
          "name": "idmanuscript",
          "type": "string"
        }
      ],
      "name": "submit_manuscript",
      "outputs": [],
      "stateMutability": "payable",
      "type": "function"
    },
    {
      "inputs": [
        {
          "internalType": "string",
          "name": "idmanuscript",
          "type": "string"
        }
      ],
      "name": "publish_manuscript",
      "outputs": [],
      "stateMutability": "nonpayable",
      "type": "function"
    },
    {
      "inputs": [
        {
          "internalType": "address",
          "name": "reviewer",
          "type": "address"
        },
        {
          "internalType": "uint256",
          "name": "tokenId",
          "type": "uint256"
        }
      ],
      "name": "emits_reviewtoken",
      "outputs": [],
      "stateMutability": "nonpayable",
      "type": "function"
    },
    {
      "inputs": [
        {
          "internalType": "address",
          "name": "reviewer",
          "type": "address"
        },
        {
          "internalType": "uint256",
          "name": "tokenId",
          "type": "uint256"
        }
      ],
      "name": "emits_papertoken",
      "outputs": [],
      "stateMutability": "nonpayable",
      "type": "function"
    },
    {
      "inputs": [],
      "name": "subscribe_reviewer",
      "outputs": [],
      "stateMutability": "nonpayable",
      "type": "function"
    },
    {
      "inputs": [
        {
          "internalType": "string",
          "name": "idmanuscript",
          "type": "string"
        },
        {
          "internalType": "bool",
          "name": "review_1",
          "type": "bool"
        }
      ],
      "name": "start_review",
      "outputs": [],
      "stateMutability": "nonpayable",
      "type": "function"
    },
    {
      "inputs": [
        {
          "internalType": "string",
          "name": "idmanuscript",
          "type": "string"
        },
        {
          "internalType": "bool",
          "name": "review_1",
          "type": "bool"
        }
      ],
      "name": "finish_review",
      "outputs": [],
      "stateMutability": "nonpayable",
      "type": "function"
    }
  ],
  "bytecode": "0x60806040526103e8600a5560fa600b553480156200001c57600080fd5b5033600960006101000a81548173ffffffffffffffffffffffffffffffffffffffff021916908373ffffffffffffffffffffffffffffffffffffffff1602179055506040516200006c90620001a8565b604051809103906000f08015801562000089573d6000803e3d6000fd5b50600c60006101000a81548173ffffffffffffffffffffffffffffffffffffffff021916908373ffffffffffffffffffffffffffffffffffffffff160217905550604051620000d890620001b6565b604051809103906000f080158015620000f5573d6000803e3d6000fd5b50600d60006101000a81548173ffffffffffffffffffffffffffffffffffffffff021916908373ffffffffffffffffffffffffffffffffffffffff1602179055506040516200014490620001c4565b604051809103906000f08015801562000161573d6000803e3d6000fd5b50600e60006101000a81548173ffffffffffffffffffffffffffffffffffffffff021916908373ffffffffffffffffffffffffffffffffffffffff160217905550620001d2565b614e4a8062001b5a83390190565b61304180620069a483390190565b61304180620099e583390190565b61197880620001e26000396000f3fe60806040526004361061011f5760003560e01c8063a52abdd2116100a0578063cbb5f2d011610064578063cbb5f2d014610431578063cdeca2521461045c578063cf8f908514610478578063d312aab6146104a1578063f7cbb1b2146104b85761011f565b8063a52abdd214610326578063a64f4aeb14610363578063a7233bd3146103a0578063bfb11e50146103dd578063c4ee991c146104085761011f565b8063722a5713116100e7578063722a57131461022f5780638cd72d341461026c5780639a86285f14610295578063a1338fa3146102c0578063a43cf4cb146102fd5761011f565b8063019e64ad1461012457806327e235e31461014d5780633a46b4c41461018a5780633cbef373146101c75780635738555a14610204575b600080fd5b34801561013057600080fd5b5061014b600480360381019061014691906111e9565b6104f5565b005b34801561015957600080fd5b50610174600480360381019061016f91906111c0565b6104f9565b6040516101819190611520565b60405180910390f35b34801561019657600080fd5b506101b160048036038101906101ac9190611225565b610511565b6040516101be9190611401565b60405180910390f35b3480156101d357600080fd5b506101ee60048036038101906101e99190611225565b61055a565b6040516101fb9190611520565b60405180910390f35b34801561021057600080fd5b50610219610588565b6040516102269190611520565b60405180910390f35b34801561023b57600080fd5b5061025660048036038101906102519190611225565b61058e565b6040516102639190611520565b60405180910390f35b34801561027857600080fd5b50610293600480360381019061028e9190611225565b6105bc565b005b3480156102a157600080fd5b506102aa6105f6565b6040516102b79190611520565b60405180910390f35b3480156102cc57600080fd5b506102e760048036038101906102e29190611225565b610600565b6040516102f49190611401565b60405180910390f35b34801561030957600080fd5b50610324600480360381019061031f91906111e9565b610649565b005b34801561033257600080fd5b5061034d60048036038101906103489190611225565b61064d565b60405161035a9190611445565b60405180910390f35b34801561036f57600080fd5b5061038a60048036038101906103859190611225565b610683565b6040516103979190611401565b60405180910390f35b3480156103ac57600080fd5b506103c760048036038101906103c29190611225565b6106cc565b6040516103d49190611445565b60405180910390f35b3480156103e957600080fd5b506103f2610702565b6040516103ff9190611520565b60405180910390f35b34801561041457600080fd5b5061042f600480360381019061042a9190611266565b61070c565b005b34801561043d57600080fd5b506104466109cc565b6040516104539190611520565b60405180910390f35b61047660048036038101906104719190611225565b6109d2565b005b34801561048457600080fd5b5061049f600480360381019061049a9190611266565b610c0c565b005b3480156104ad57600080fd5b506104b661109f565b005b3480156104c457600080fd5b506104df60048036038101906104da91906111c0565b6110f9565b6040516104ec9190611445565b60405180910390f35b5050565b60016020528060005260406000206000915090505481565b6003818051602081018201805184825260208301602085012081835280955050505050506000915054906101000a900473ffffffffffffffffffffffffffffffffffffffff1681565b6002818051602081018201805184825260208301602085012081835280955050505050506000915090505481565b600b5481565b6006818051602081018201805184825260208301602085012081835280955050505050506000915090505481565b60016008826040516105ce91906113ea565b908152602001604051809103902060006101000a81548160ff02191690831515021790555050565b6000600a54905090565b6004818051602081018201805184825260208301602085012081835280955050505050506000915054906101000a900473ffffffffffffffffffffffffffffffffffffffff1681565b5050565b6008818051602081018201805184825260208301602085012081835280955050505050506000915054906101000a900460ff1681565b6000818051602081018201805184825260208301602085012081835280955050505050506000915054906101000a900473ffffffffffffffffffffffffffffffffffffffff1681565b6007818051602081018201805184825260208301602085012081835280955050505050506000915054906101000a900460ff1681565b6000600b54905090565b600160078360405161071e91906113ea565b908152602001604051809103902060006101000a81548160ff0219169083151502179055610781576040517f08c379a000000000000000000000000000000000000000000000000000000000815260040161077890611500565b60405180910390fd5b80156108a5573373ffffffffffffffffffffffffffffffffffffffff166003836040516107ae91906113ea565b908152602001604051809103902060009054906101000a900473ffffffffffffffffffffffffffffffffffffffff1673ffffffffffffffffffffffffffffffffffffffff1614610833576040517f08c379a000000000000000000000000000000000000000000000000000000000815260040161082a906114a0565b60405180910390fd5b600160068360405161084591906113ea565b9081526020016040518091039020600082825461086291906115e1565b92505081905550600060078360405161087b91906113ea565b908152602001604051809103902060006101000a81548160ff0219169083151502179055506109c8565b3373ffffffffffffffffffffffffffffffffffffffff166004836040516108cc91906113ea565b908152602001604051809103902060009054906101000a900473ffffffffffffffffffffffffffffffffffffffff1673ffffffffffffffffffffffffffffffffffffffff1614610951576040517f08c379a0000000000000000000000000000000000000000000000000000000008152600401610948906114a0565b60405180910390fd5b600160068360405161096391906113ea565b9081526020016040518091039020600082825461098091906115e1565b92505081905550610990826105bc565b60016008836040516109a291906113ea565b908152602001604051809103902060006101000a81548160ff0219169083151502179055505b5050565b600a5481565b336000826040516109e391906113ea565b908152602001604051809103902060006101000a81548173ffffffffffffffffffffffffffffffffffffffff021916908373ffffffffffffffffffffffffffffffffffffffff1602179055506000600160003373ffffffffffffffffffffffffffffffffffffffff1673ffffffffffffffffffffffffffffffffffffffff168152602001908152602001600020549050600a54811015610abe57600a54816040517f8c905368000000000000000000000000000000000000000000000000000000008152600401610ab592919061153b565b60405180910390fd5b600a54600160003373ffffffffffffffffffffffffffffffffffffffff1673ffffffffffffffffffffffffffffffffffffffff1681526020019081526020016000206000828254610b0f9190611637565b92505081905550600a54600283604051610b2991906113ea565b9081526020016040518091039020819055506000600683604051610b4d91906113ea565b9081526020016040518091039020819055506000600783604051610b7191906113ea565b908152602001604051809103902060006101000a81548160ff0219169083151502179055506000600883604051610ba891906113ea565b908152602001604051809103902060006101000a81548160ff0219169083151502179055507f6ef95f06320e7a25a04a175ca677b7052bdd97131872c2192525a629f51be77033600a54604051610c0092919061141c565b60405180910390a15050565b60011515600560003373ffffffffffffffffffffffffffffffffffffffff1673ffffffffffffffffffffffffffffffffffffffff16815260200190815260200160002060009054906101000a900460ff16151514610c9f576040517f08c379a0000000000000000000000000000000000000000000000000000000008152600401610c9690611460565b60405180910390fd5b6000600883604051610cb191906113ea565b908152602001604051809103902060006101000a81548160ff0219169083151502179055610d14576040517f08c379a0000000000000000000000000000000000000000000000000000000008152600401610d0b906114c0565b60405180910390fd5b8015610e86576000600683604051610d2c91906113ea565b90815260200160405180910390205414610d7b576040517f08c379a0000000000000000000000000000000000000000000000000000000008152600401610d72906114e0565b60405180910390fd5b60001515600783604051610d8f91906113ea565b908152602001604051809103902060009054906101000a900460ff16151514610ded576040517f08c379a0000000000000000000000000000000000000000000000000000000008152600401610de490611480565b60405180910390fd5b6001600783604051610dff91906113ea565b908152602001604051809103902060006101000a81548160ff02191690831515021790555033600383604051610e3591906113ea565b908152602001604051809103902060006101000a81548173ffffffffffffffffffffffffffffffffffffffff021916908373ffffffffffffffffffffffffffffffffffffffff16021790555061109b565b6001600683604051610e9891906113ea565b90815260200160405180910390205414610ee7576040517f08c379a0000000000000000000000000000000000000000000000000000000008152600401610ede90611480565b60405180910390fd5b60001515600783604051610efb91906113ea565b908152602001604051809103902060009054906101000a900460ff16151514610f59576040517f08c379a0000000000000000000000000000000000000000000000000000000008152600401610f5090611480565b60405180910390fd5b3373ffffffffffffffffffffffffffffffffffffffff16600383604051610f8091906113ea565b908152602001604051809103902060009054906101000a900473ffffffffffffffffffffffffffffffffffffffff1673ffffffffffffffffffffffffffffffffffffffff161415611006576040517f08c379a0000000000000000000000000000000000000000000000000000000008152600401610ffd906114e0565b60405180910390fd5b600160078360405161101891906113ea565b908152602001604051809103902060006101000a81548160ff0219169083151502179055503360048360405161104e91906113ea565b908152602001604051809103902060006101000a81548173ffffffffffffffffffffffffffffffffffffffff021916908373ffffffffffffffffffffffffffffffffffffffff1602179055505b5050565b6001600560003373ffffffffffffffffffffffffffffffffffffffff1673ffffffffffffffffffffffffffffffffffffffff16815260200190815260200160002060006101000a81548160ff021916908315150217905550565b60056020528060005260406000206000915054906101000a900460ff1681565b600061112c61112784611589565b611564565b90508281526020810184848401111561114457600080fd5b61114f8482856116b3565b509392505050565b600081359050611166816118fd565b92915050565b60008135905061117b81611914565b92915050565b600082601f83011261119257600080fd5b81356111a2848260208601611119565b91505092915050565b6000813590506111ba8161192b565b92915050565b6000602082840312156111d257600080fd5b60006111e084828501611157565b91505092915050565b600080604083850312156111fc57600080fd5b600061120a85828601611157565b925050602061121b858286016111ab565b9150509250929050565b60006020828403121561123757600080fd5b600082013567ffffffffffffffff81111561125157600080fd5b61125d84828501611181565b91505092915050565b6000806040838503121561127957600080fd5b600083013567ffffffffffffffff81111561129357600080fd5b61129f85828601611181565b92505060206112b08582860161116c565b9150509250929050565b6112c38161166b565b82525050565b6112d28161167d565b82525050565b60006112e3826115ba565b6112ed81856115d6565b93506112fd8185602086016116c2565b80840191505092915050565b6000611316600e836115c5565b915061132182611795565b602082019050919050565b60006113396020836115c5565b9150611344826117be565b602082019050919050565b600061135c601d836115c5565b9150611367826117e7565b602082019050919050565b600061137f6022836115c5565b915061138a82611810565b604082019050919050565b60006113a26021836115c5565b91506113ad8261185f565b604082019050919050565b60006113c56024836115c5565b91506113d0826118ae565b604082019050919050565b6113e4816116a9565b82525050565b60006113f682846112d8565b915081905092915050565b600060208201905061141660008301846112ba565b92915050565b600060408201905061143160008301856112ba565b61143e60208301846113db565b9392505050565b600060208201905061145a60008301846112c9565b92915050565b6000602082019050818103600083015261147981611309565b9050919050565b600060208201905081810360008301526114998161132c565b9050919050565b600060208201905081810360008301526114b98161134f565b9050919050565b600060208201905081810360008301526114d981611372565b9050919050565b600060208201905081810360008301526114f981611395565b9050919050565b60006020820190508181036000830152611519816113b8565b9050919050565b600060208201905061153560008301846113db565b92915050565b600060408201905061155060008301856113db565b61155d60208301846113db565b9392505050565b600061156e61157f565b905061157a82826116f5565b919050565b6000604051905090565b600067ffffffffffffffff8211156115a4576115a3611755565b5b6115ad82611784565b9050602081019050919050565b600081519050919050565b600082825260208201905092915050565b600081905092915050565b60006115ec826116a9565b91506115f7836116a9565b9250827fffffffffffffffffffffffffffffffffffffffffffffffffffffffffffffffff0382111561162c5761162b611726565b5b828201905092915050565b6000611642826116a9565b915061164d836116a9565b9250828210156116605761165f611726565b5b828203905092915050565b600061167682611689565b9050919050565b60008115159050919050565b600073ffffffffffffffffffffffffffffffffffffffff82169050919050565b6000819050919050565b82818337600083830152505050565b60005b838110156116e05780820151818401526020810190506116c5565b838111156116ef576000848401525b50505050565b6116fe82611784565b810181811067ffffffffffffffff8211171561171d5761171c611755565b5b80604052505050565b7f4e487b7100000000000000000000000000000000000000000000000000000000600052601160045260246000fd5b7f4e487b7100000000000000000000000000000000000000000000000000000000600052604160045260246000fd5b6000601f19601f8301169050919050565b7f4f6e6c7920526576696577657273000000000000000000000000000000000000600082015250565b7f54686973206d616e75736372697074206973206265696e672072657669736564600082015250565b7f596f752063616e6e6f742066696e697368207468697320726576696577000000600082015250565b7f54686973206d616e7573637269707420686173206265656e207075626c69736860008201527f6564000000000000000000000000000000000000000000000000000000000000602082015250565b7f596f752063616e6e6f74207265766965772074686973206d616e75736372697060008201527f7400000000000000000000000000000000000000000000000000000000000000602082015250565b7f54686973206d616e75736372697074206973206e6f74206265696e672072657660008201527f6973656400000000000000000000000000000000000000000000000000000000602082015250565b6119068161166b565b811461191157600080fd5b50565b61191d8161167d565b811461192857600080fd5b50565b611934816116a9565b811461193f57600080fd5b5056fea26469706673582212201f9f106749b28bb251577dce346b826ce61d45b173bcf16d19eaece937f754cc64736f6c634300080400336101606040527f6e71edae12b1b97f4d1f60370fef10105fa2faae0126114a169c64845d6126c9610140908152503480156200003a57600080fd5b506040518060400160405280600981526020017f44507562546f6b656e0000000000000000000000000000000000000000000000815250806040518060400160405280600181526020017f31000000000000000000000000000000000000000000000000000000000000008152506040518060400160405280600981526020017f44507562546f6b656e00000000000000000000000000000000000000000000008152506040518060400160405280600481526020017f4450544b0000000000000000000000000000000000000000000000000000000081525081600390805190602001906200012c92919062000c1c565b5080600490805190602001906200014592919062000c1c565b50505060008280519060200120905060008280519060200120905060007f8b73c3c69bb8fe3d512ecc4cf759cc79239f7b179b0ffacaa9a75d522b39400f90508260e081815250508161010081815250504660a08181525050620001b18184846200024360201b60201c565b608081815250503073ffffffffffffffffffffffffffffffffffffffff1660c08173ffffffffffffffffffffffffffffffffffffffff1660601b815250508061012081815250505050505050506200023d33620002136200027f60201b60201c565b600a62000221919062000f93565b620f4240620002319190620010d0565b6200028860201b60201c565b62001378565b600083838346306040516020016200026095949392919062000d9b565b6040516020818303038152906040528051906020012090509392505050565b60006012905090565b6200029f8282620002a360201b6200106f1760201c565b5050565b620002ba82826200036160201b620010fc1760201c565b620002ca620004da60201b60201c565b7bffffffffffffffffffffffffffffffffffffffffffffffffffffffff16620002f8620004fe60201b60201c565b11156200033c576040517f08c379a0000000000000000000000000000000000000000000000000000000008152600401620003339062000df8565b60405180910390fd5b6200035b60086200050860201b6200125c17836200052060201b60201c565b50505050565b600073ffffffffffffffffffffffffffffffffffffffff168273ffffffffffffffffffffffffffffffffffffffff161415620003d4576040517f08c379a0000000000000000000000000000000000000000000000000000000008152600401620003cb9062000e5e565b60405180910390fd5b620003e8600083836200083d60201b60201c565b8060026000828254620003fc919062000edb565b92505081905550806000808473ffffffffffffffffffffffffffffffffffffffff1673ffffffffffffffffffffffffffffffffffffffff168152602001908152602001600020600082825462000453919062000edb565b925050819055508173ffffffffffffffffffffffffffffffffffffffff16600073ffffffffffffffffffffffffffffffffffffffff167fddf252ad1be2c89b69c2b068fc378daa952ba7f163c4a11628f55a4df523b3ef83604051620004ba919062000e80565b60405180910390a3620004d6600083836200084260201b60201c565b5050565b60007bffffffffffffffffffffffffffffffffffffffffffffffffffffffff905090565b6000600254905090565b6000818362000518919062000edb565b905092915050565b60008060008580549050905060008114620005b9578560018262000545919062001131565b815481106200057d577f4e487b7100000000000000000000000000000000000000000000000000000000600052603260045260246000fd5b9060005260206000200160000160049054906101000a90047bffffffffffffffffffffffffffffffffffffffffffffffffffffffff16620005bc565b60005b7bffffffffffffffffffffffffffffffffffffffffffffffffffffffff169250620005e883858760201c565b9150600081118015620006655750438660018362000607919062001131565b815481106200063f577f4e487b7100000000000000000000000000000000000000000000000000000000600052603260045260246000fd5b9060005260206000200160000160009054906101000a900463ffffffff1663ffffffff16145b156200072a5762000681826200085f60201b620012721760201c565b8660018362000691919062001131565b81548110620006c9577f4e487b7100000000000000000000000000000000000000000000000000000000600052603260045260246000fd5b9060005260206000200160000160046101000a8154817bffffffffffffffffffffffffffffffffffffffffffffffffffffffff02191690837bffffffffffffffffffffffffffffffffffffffffffffffffffffffff16021790555062000834565b8560405180604001604052806200074c43620008cd60201b620012dd1760201c565b63ffffffff1681526020016200076d856200085f60201b620012721760201c565b7bffffffffffffffffffffffffffffffffffffffffffffffffffffffff168152509080600181540180825580915050600190039060005260206000200160009091909190915060008201518160000160006101000a81548163ffffffff021916908363ffffffff16021790555060208201518160000160046101000a8154817bffffffffffffffffffffffffffffffffffffffffffffffffffffffff02191690837bffffffffffffffffffffffffffffffffffffffffffffffffffffffff16021790555050505b50935093915050565b505050565b6200085a8383836200092360201b620013301760201c565b505050565b60007bffffffffffffffffffffffffffffffffffffffffffffffffffffffff8016821115620008c5576040517f08c379a0000000000000000000000000000000000000000000000000000000008152600401620008bc9062000e1a565b60405180910390fd5b819050919050565b600063ffffffff80168211156200091b576040517f08c379a0000000000000000000000000000000000000000000000000000000008152600401620009129062000e3c565b60405180910390fd5b819050919050565b6200093b8383836200097360201b6200135b1760201c565b6200096e62000950846200097860201b60201c565b62000961846200097860201b60201c565b83620009e160201b60201c565b505050565b505050565b6000600660008373ffffffffffffffffffffffffffffffffffffffff1673ffffffffffffffffffffffffffffffffffffffff16815260200190815260200160002060009054906101000a900473ffffffffffffffffffffffffffffffffffffffff169050919050565b8173ffffffffffffffffffffffffffffffffffffffff168373ffffffffffffffffffffffffffffffffffffffff161415801562000a1e5750600081115b1562000bff57600073ffffffffffffffffffffffffffffffffffffffff168373ffffffffffffffffffffffffffffffffffffffff161462000b115760008062000ab8600760008773ffffffffffffffffffffffffffffffffffffffff1673ffffffffffffffffffffffffffffffffffffffff16815260200190815260200160002062000c0460201b6200136017856200052060201b60201c565b915091508473ffffffffffffffffffffffffffffffffffffffff167fdec2bacdd2f05b59de34da9b523dff8be42e5e38e818c82fdb0bae774387a724838360405162000b0692919062000e9d565b60405180910390a250505b600073ffffffffffffffffffffffffffffffffffffffff168273ffffffffffffffffffffffffffffffffffffffff161462000bfe5760008062000ba5600760008673ffffffffffffffffffffffffffffffffffffffff1673ffffffffffffffffffffffffffffffffffffffff1681526020019081526020016000206200050860201b6200125c17856200052060201b60201c565b915091508373ffffffffffffffffffffffffffffffffffffffff167fdec2bacdd2f05b59de34da9b523dff8be42e5e38e818c82fdb0bae774387a724838360405162000bf392919062000e9d565b60405180910390a250505b5b505050565b6000818362000c14919062001131565b905092915050565b82805462000c2a90620011c1565b90600052602060002090601f01602090048101928262000c4e576000855562000c9a565b82601f1062000c6957805160ff191683800117855562000c9a565b8280016001018555821562000c9a579182015b8281111562000c9957825182559160200191906001019062000c7c565b5b50905062000ca9919062000cad565b5090565b5b8082111562000cc857600081600090555060010162000cae565b5090565b62000cd7816200116c565b82525050565b62000ce88162001180565b82525050565b600062000cfd60308362000eca565b915062000d0a8262001262565b604082019050919050565b600062000d2460278362000eca565b915062000d3182620012b1565b604082019050919050565b600062000d4b60268362000eca565b915062000d588262001300565b604082019050919050565b600062000d72601f8362000eca565b915062000d7f826200134f565b602082019050919050565b62000d9581620011aa565b82525050565b600060a08201905062000db2600083018862000cdd565b62000dc1602083018762000cdd565b62000dd0604083018662000cdd565b62000ddf606083018562000d8a565b62000dee608083018462000ccc565b9695505050505050565b6000602082019050818103600083015262000e138162000cee565b9050919050565b6000602082019050818103600083015262000e358162000d15565b9050919050565b6000602082019050818103600083015262000e578162000d3c565b9050919050565b6000602082019050818103600083015262000e798162000d63565b9050919050565b600060208201905062000e97600083018462000d8a565b92915050565b600060408201905062000eb4600083018562000d8a565b62000ec3602083018462000d8a565b9392505050565b600082825260208201905092915050565b600062000ee882620011aa565b915062000ef583620011aa565b9250827fffffffffffffffffffffffffffffffffffffffffffffffffffffffffffffffff0382111562000f2d5762000f2c620011f7565b5b828201905092915050565b6000808291508390505b600185111562000f8a5780860481111562000f625762000f61620011f7565b5b600185161562000f725780820291505b808102905062000f828562001255565b945062000f42565b94509492505050565b600062000fa082620011aa565b915062000fad83620011b4565b925062000fdc7fffffffffffffffffffffffffffffffffffffffffffffffffffffffffffffffff848462000fe4565b905092915050565b60008262000ff65760019050620010c9565b81620010065760009050620010c9565b81600181146200101f57600281146200102a5762001060565b6001915050620010c9565b60ff8411156200103f576200103e620011f7565b5b8360020a915084821115620010595762001058620011f7565b5b50620010c9565b5060208310610133831016604e8410600b84101617156200109a5782820a905083811115620010945762001093620011f7565b5b620010c9565b620010a9848484600162000f38565b92509050818404811115620010c357620010c2620011f7565b5b81810290505b9392505050565b6000620010dd82620011aa565b9150620010ea83620011aa565b9250817fffffffffffffffffffffffffffffffffffffffffffffffffffffffffffffffff0483118215151615620011265762001125620011f7565b5b828202905092915050565b60006200113e82620011aa565b91506200114b83620011aa565b925082821015620011615762001160620011f7565b5b828203905092915050565b600062001179826200118a565b9050919050565b6000819050919050565b600073ffffffffffffffffffffffffffffffffffffffff82169050919050565b6000819050919050565b600060ff82169050919050565b60006002820490506001821680620011da57607f821691505b60208210811415620011f157620011f062001226565b5b50919050565b7f4e487b7100000000000000000000000000000000000000000000000000000000600052601160045260246000fd5b7f4e487b7100000000000000000000000000000000000000000000000000000000600052602260045260246000fd5b60008160011c9050919050565b7f4552433230566f7465733a20746f74616c20737570706c79207269736b73206f60008201527f766572666c6f77696e6720766f74657300000000000000000000000000000000602082015250565b7f53616665436173743a2076616c756520646f65736e27742066697420696e203260008201527f3234206269747300000000000000000000000000000000000000000000000000602082015250565b7f53616665436173743a2076616c756520646f65736e27742066697420696e203360008201527f3220626974730000000000000000000000000000000000000000000000000000602082015250565b7f45524332303a206d696e7420746f20746865207a65726f206164647265737300600082015250565b60805160a05160c05160601c60e051610100516101205161014051613a74620013d66000396000610db701526000611878015260006118ba01526000611899015260006117ce015260006118240152600061184d0152613a746000f3fe608060405234801561001057600080fd5b50600436106101425760003560e01c806370a08231116100b8578063a457c2d71161007c578063a457c2d7146103d9578063a9059cbb14610409578063c3cda52014610439578063d505accf14610455578063dd62ed3e14610471578063f1127ed8146104a157610142565b806370a08231146102fb5780637ecebe001461032b5780638e539e8c1461035b57806395d89b411461038b5780639ab24eb0146103a957610142565b80633644e5151161010a5780633644e51514610201578063395093511461021f5780633a46b1a81461024f578063587cde1e1461027f5780635c19a95c146102af5780636fcfff45146102cb57610142565b806306fdde0314610147578063095ea7b31461016557806318160ddd1461019557806323b872dd146101b3578063313ce567146101e3575b600080fd5b61014f6104d1565b60405161015c9190612ee9565b60405180910390f35b61017f600480360381019061017a9190612823565b610563565b60405161018c9190612d75565b60405180910390f35b61019d610581565b6040516101aa91906131a6565b60405180910390f35b6101cd60048036038101906101c89190612736565b61058b565b6040516101da9190612d75565b60405180910390f35b6101eb610683565b6040516101f89190613205565b60405180910390f35b61020961068c565b6040516102169190612d90565b60405180910390f35b61023960048036038101906102349190612823565b61069b565b6040516102469190612d75565b60405180910390f35b61026960048036038101906102649190612823565b610747565b60405161027691906131a6565b60405180910390f35b610299600480360381019061029491906126d1565b6107db565b6040516102a69190612d5a565b60405180910390f35b6102c960048036038101906102c491906126d1565b610844565b005b6102e560048036038101906102e091906126d1565b610858565b6040516102f291906131ea565b60405180910390f35b610315600480360381019061031091906126d1565b6108ac565b60405161032291906131a6565b60405180910390f35b610345600480360381019061034091906126d1565b6108f4565b60405161035291906131a6565b60405180910390f35b61037560048036038101906103709190612924565b610944565b60405161038291906131a6565b60405180910390f35b61039361099a565b6040516103a09190612ee9565b60405180910390f35b6103c360048036038101906103be91906126d1565b610a2c565b6040516103d091906131a6565b60405180910390f35b6103f360048036038101906103ee9190612823565b610b63565b6040516104009190612d75565b60405180910390f35b610423600480360381019061041e9190612823565b610c4e565b6040516104309190612d75565b60405180910390f35b610453600480360381019061044e919061285f565b610c6c565b005b61046f600480360381019061046a9190612785565b610d70565b005b61048b600480360381019061048691906126fa565b610eb2565b60405161049891906131a6565b60405180910390f35b6104bb60048036038101906104b691906128e8565b610f39565b6040516104c8919061318b565b60405180910390f35b6060600380546104e0906133cc565b80601f016020809104026020016040519081016040528092919081815260200182805461050c906133cc565b80156105595780601f1061052e57610100808354040283529160200191610559565b820191906000526020600020905b81548152906001019060200180831161053c57829003601f168201915b5050505050905090565b6000610577610570611376565b848461137e565b6001905092915050565b6000600254905090565b6000610598848484611549565b6000600160008673ffffffffffffffffffffffffffffffffffffffff1673ffffffffffffffffffffffffffffffffffffffff16815260200190815260200160002060006105e3611376565b73ffffffffffffffffffffffffffffffffffffffff1673ffffffffffffffffffffffffffffffffffffffff16815260200190815260200160002054905082811015610663576040517f08c379a000000000000000000000000000000000000000000000000000000000815260040161065a9061308b565b60405180910390fd5b6106778561066f611376565b85840361137e565b60019150509392505050565b60006012905090565b60006106966117ca565b905090565b600061073d6106a8611376565b8484600160006106b6611376565b73ffffffffffffffffffffffffffffffffffffffff1673ffffffffffffffffffffffffffffffffffffffff16815260200190815260200160002060008873ffffffffffffffffffffffffffffffffffffffff1673ffffffffffffffffffffffffffffffffffffffff168152602001908152602001600020546107389190613247565b61137e565b6001905092915050565b600043821061078b576040517f08c379a000000000000000000000000000000000000000000000000000000000815260040161078290612f4b565b60405180910390fd5b6107d3600760008573ffffffffffffffffffffffffffffffffffffffff1673ffffffffffffffffffffffffffffffffffffffff168152602001908152602001600020836118e4565b905092915050565b6000600660008373ffffffffffffffffffffffffffffffffffffffff1673ffffffffffffffffffffffffffffffffffffffff16815260200190815260200160002060009054906101000a900473ffffffffffffffffffffffffffffffffffffffff169050919050565b61085561084f611376565b82611a3c565b50565b60006108a5600760008473ffffffffffffffffffffffffffffffffffffffff1673ffffffffffffffffffffffffffffffffffffffff168152602001908152602001600020805490506112dd565b9050919050565b60008060008373ffffffffffffffffffffffffffffffffffffffff1673ffffffffffffffffffffffffffffffffffffffff168152602001908152602001600020549050919050565b600061093d600560008473ffffffffffffffffffffffffffffffffffffffff1673ffffffffffffffffffffffffffffffffffffffff168152602001908152602001600020611b56565b9050919050565b6000438210610988576040517f08c379a000000000000000000000000000000000000000000000000000000000815260040161097f90612f4b565b60405180910390fd5b6109936008836118e4565b9050919050565b6060600480546109a9906133cc565b80601f01602080910402602001604051908101604052809291908181526020018280546109d5906133cc565b8015610a225780601f106109f757610100808354040283529160200191610a22565b820191906000526020600020905b815481529060010190602001808311610a0557829003601f168201915b5050505050905090565b600080600760008473ffffffffffffffffffffffffffffffffffffffff1673ffffffffffffffffffffffffffffffffffffffff16815260200190815260200160002080549050905060008114610b3a57600760008473ffffffffffffffffffffffffffffffffffffffff1673ffffffffffffffffffffffffffffffffffffffff168152602001908152602001600020600182610ac891906132ce565b81548110610aff577f4e487b7100000000000000000000000000000000000000000000000000000000600052603260045260246000fd5b9060005260206000200160000160049054906101000a90047bffffffffffffffffffffffffffffffffffffffffffffffffffffffff16610b3d565b60005b7bffffffffffffffffffffffffffffffffffffffffffffffffffffffff16915050919050565b60008060016000610b72611376565b73ffffffffffffffffffffffffffffffffffffffff1673ffffffffffffffffffffffffffffffffffffffff16815260200190815260200160002060008573ffffffffffffffffffffffffffffffffffffffff1673ffffffffffffffffffffffffffffffffffffffff16815260200190815260200160002054905082811015610c2f576040517f08c379a0000000000000000000000000000000000000000000000000000000008152600401610c269061314b565b60405180910390fd5b610c43610c3a611376565b8585840361137e565b600191505092915050565b6000610c62610c5b611376565b8484611549565b6001905092915050565b83421115610caf576040517f08c379a0000000000000000000000000000000000000000000000000000000008152600401610ca690612f6b565b60405180910390fd5b6000610d11610d097fe48329057bfd03d55e49b547132e39cffd9c1820ad7b9d4c5307691425d15adf898989604051602001610cee9493929190612e0c565b60405160208183030381529060405280519060200120611b64565b858585611b7e565b9050610d1c81611ba9565b8614610d5d576040517f08c379a0000000000000000000000000000000000000000000000000000000008152600401610d5490612fab565b60405180910390fd5b610d678188611a3c565b50505050505050565b83421115610db3576040517f08c379a0000000000000000000000000000000000000000000000000000000008152600401610daa90612feb565b60405180910390fd5b60007f0000000000000000000000000000000000000000000000000000000000000000888888610de28c611ba9565b89604051602001610df896959493929190612dab565b6040516020818303038152906040528051906020012090506000610e1b82611b64565b90506000610e2b82878787611b7e565b90508973ffffffffffffffffffffffffffffffffffffffff168173ffffffffffffffffffffffffffffffffffffffff1614610e9b576040517f08c379a0000000000000000000000000000000000000000000000000000000008152600401610e929061306b565b60405180910390fd5b610ea68a8a8a61137e565b50505050505050505050565b6000600160008473ffffffffffffffffffffffffffffffffffffffff1673ffffffffffffffffffffffffffffffffffffffff16815260200190815260200160002060008373ffffffffffffffffffffffffffffffffffffffff1673ffffffffffffffffffffffffffffffffffffffff16815260200190815260200160002054905092915050565b610f4161262a565b600760008473ffffffffffffffffffffffffffffffffffffffff1673ffffffffffffffffffffffffffffffffffffffff1681526020019081526020016000208263ffffffff1681548110610fbe577f4e487b7100000000000000000000000000000000000000000000000000000000600052603260045260246000fd5b906000526020600020016040518060400160405290816000820160009054906101000a900463ffffffff1663ffffffff1663ffffffff1681526020016000820160049054906101000a90047bffffffffffffffffffffffffffffffffffffffffffffffffffffffff167bffffffffffffffffffffffffffffffffffffffffffffffffffffffff167bffffffffffffffffffffffffffffffffffffffffffffffffffffffff1681525050905092915050565b61107982826110fc565b611081611c07565b7bffffffffffffffffffffffffffffffffffffffffffffffffffffffff166110a7610581565b11156110e8576040517f08c379a00000000000000000000000000000000000000000000000000000000081526004016110df906130ab565b60405180910390fd5b6110f6600861125c83611c2b565b50505050565b600073ffffffffffffffffffffffffffffffffffffffff168273ffffffffffffffffffffffffffffffffffffffff16141561116c576040517f08c379a00000000000000000000000000000000000000000000000000000000081526004016111639061316b565b60405180910390fd5b61117860008383611f15565b806002600082825461118a9190613247565b92505081905550806000808473ffffffffffffffffffffffffffffffffffffffff1673ffffffffffffffffffffffffffffffffffffffff16815260200190815260200160002060008282546111df9190613247565b925050819055508173ffffffffffffffffffffffffffffffffffffffff16600073ffffffffffffffffffffffffffffffffffffffff167fddf252ad1be2c89b69c2b068fc378daa952ba7f163c4a11628f55a4df523b3ef8360405161124491906131a6565b60405180910390a361125860008383611f1a565b5050565b6000818361126a9190613247565b905092915050565b60007bffffffffffffffffffffffffffffffffffffffffffffffffffffffff80168211156112d5576040517f08c379a00000000000000000000000000000000000000000000000000000000081526004016112cc906130cb565b60405180910390fd5b819050919050565b600063ffffffff8016821115611328576040517f08c379a000000000000000000000000000000000000000000000000000000000815260040161131f9061310b565b60405180910390fd5b819050919050565b61133b83838361135b565b611356611347846107db565b611350846107db565b83611f2a565b505050565b505050565b6000818361136e91906132ce565b905092915050565b600033905090565b600073ffffffffffffffffffffffffffffffffffffffff168373ffffffffffffffffffffffffffffffffffffffff1614156113ee576040517f08c379a00000000000000000000000000000000000000000000000000000000081526004016113e59061312b565b60405180910390fd5b600073ffffffffffffffffffffffffffffffffffffffff168273ffffffffffffffffffffffffffffffffffffffff16141561145e576040517f08c379a000000000000000000000000000000000000000000000000000000000815260040161145590612fcb565b60405180910390fd5b80600160008573ffffffffffffffffffffffffffffffffffffffff1673ffffffffffffffffffffffffffffffffffffffff16815260200190815260200160002060008473ffffffffffffffffffffffffffffffffffffffff1673ffffffffffffffffffffffffffffffffffffffff168152602001908152602001600020819055508173ffffffffffffffffffffffffffffffffffffffff168373ffffffffffffffffffffffffffffffffffffffff167f8c5be1e5ebec7d5bd14f71427d1e84f3dd0314c0f7b2291e5b200ac8c7c3b9258360405161153c91906131a6565b60405180910390a3505050565b600073ffffffffffffffffffffffffffffffffffffffff168373ffffffffffffffffffffffffffffffffffffffff1614156115b9576040517f08c379a00000000000000000000000000000000000000000000000000000000081526004016115b0906130eb565b60405180910390fd5b600073ffffffffffffffffffffffffffffffffffffffff168273ffffffffffffffffffffffffffffffffffffffff161415611629576040517f08c379a000000000000000000000000000000000000000000000000000000000815260040161162090612f2b565b60405180910390fd5b611634838383611f15565b60008060008573ffffffffffffffffffffffffffffffffffffffff1673ffffffffffffffffffffffffffffffffffffffff168152602001908152602001600020549050818110156116ba576040517f08c379a00000000000000000000000000000000000000000000000000000000081526004016116b19061300b565b60405180910390fd5b8181036000808673ffffffffffffffffffffffffffffffffffffffff1673ffffffffffffffffffffffffffffffffffffffff16815260200190815260200160002081905550816000808573ffffffffffffffffffffffffffffffffffffffff1673ffffffffffffffffffffffffffffffffffffffff168152602001908152602001600020600082825461174d9190613247565b925050819055508273ffffffffffffffffffffffffffffffffffffffff168473ffffffffffffffffffffffffffffffffffffffff167fddf252ad1be2c89b69c2b068fc378daa952ba7f163c4a11628f55a4df523b3ef846040516117b191906131a6565b60405180910390a36117c4848484611f1a565b50505050565b60007f000000000000000000000000000000000000000000000000000000000000000073ffffffffffffffffffffffffffffffffffffffff163073ffffffffffffffffffffffffffffffffffffffff1614801561184657507f000000000000000000000000000000000000000000000000000000000000000046145b15611873577f000000000000000000000000000000000000000000000000000000000000000090506118e1565b6118de7f00000000000000000000000000000000000000000000000000000000000000007f00000000000000000000000000000000000000000000000000000000000000007f0000000000000000000000000000000000000000000000000000000000000000612123565b90505b90565b6000808380549050905060005b81811015611989576000611905828461215d565b905084868281548110611941577f4e487b7100000000000000000000000000000000000000000000000000000000600052603260045260246000fd5b9060005260206000200160000160009054906101000a900463ffffffff1663ffffffff16111561197357809250611983565b6001816119809190613247565b91505b506118f1565b60008214611a11578460018361199f91906132ce565b815481106119d6577f4e487b7100000000000000000000000000000000000000000000000000000000600052603260045260246000fd5b9060005260206000200160000160049054906101000a90047bffffffffffffffffffffffffffffffffffffffffffffffffffffffff16611a14565b60005b7bffffffffffffffffffffffffffffffffffffffffffffffffffffffff169250505092915050565b6000611a47836107db565b90506000611a54846108ac565b905082600660008673ffffffffffffffffffffffffffffffffffffffff1673ffffffffffffffffffffffffffffffffffffffff16815260200190815260200160002060006101000a81548173ffffffffffffffffffffffffffffffffffffffff021916908373ffffffffffffffffffffffffffffffffffffffff1602179055508273ffffffffffffffffffffffffffffffffffffffff168273ffffffffffffffffffffffffffffffffffffffff168573ffffffffffffffffffffffffffffffffffffffff167f3134e8a2e6d97e929a7e54011ea5485d7d196dd5f0ba4d4ef95803e8e3fc257f60405160405180910390a4611b50828483611f2a565b50505050565b600081600001549050919050565b6000611b77611b716117ca565b83612183565b9050919050565b6000806000611b8f878787876121b6565b91509150611b9c816122c3565b8192505050949350505050565b600080600560008473ffffffffffffffffffffffffffffffffffffffff1673ffffffffffffffffffffffffffffffffffffffff1681526020019081526020016000209050611bf681611b56565b9150611c0181612614565b50919050565b60007bffffffffffffffffffffffffffffffffffffffffffffffffffffffff905090565b60008060008580549050905060008114611cbf5785600182611c4d91906132ce565b81548110611c84577f4e487b7100000000000000000000000000000000000000000000000000000000600052603260045260246000fd5b9060005260206000200160000160049054906101000a90047bffffffffffffffffffffffffffffffffffffffffffffffffffffffff16611cc2565b60005b7bffffffffffffffffffffffffffffffffffffffffffffffffffffffff169250611cf083858763ffffffff16565b9150600081118015611d6957504386600183611d0c91906132ce565b81548110611d43577f4e487b7100000000000000000000000000000000000000000000000000000000600052603260045260246000fd5b9060005260206000200160000160009054906101000a900463ffffffff1663ffffffff16145b15611e1c57611d7782611272565b86600183611d8591906132ce565b81548110611dbc577f4e487b7100000000000000000000000000000000000000000000000000000000600052603260045260246000fd5b9060005260206000200160000160046101000a8154817bffffffffffffffffffffffffffffffffffffffffffffffffffffffff02191690837bffffffffffffffffffffffffffffffffffffffffffffffffffffffff160217905550611f0c565b856040518060400160405280611e31436112dd565b63ffffffff168152602001611e4585611272565b7bffffffffffffffffffffffffffffffffffffffffffffffffffffffff168152509080600181540180825580915050600190039060005260206000200160009091909190915060008201518160000160006101000a81548163ffffffff021916908363ffffffff16021790555060208201518160000160046101000a8154817bffffffffffffffffffffffffffffffffffffffffffffffffffffffff02191690837bffffffffffffffffffffffffffffffffffffffffffffffffffffffff16021790555050505b50935093915050565b505050565b611f25838383611330565b505050565b8173ffffffffffffffffffffffffffffffffffffffff168373ffffffffffffffffffffffffffffffffffffffff1614158015611f665750600081115b1561211e57600073ffffffffffffffffffffffffffffffffffffffff168373ffffffffffffffffffffffffffffffffffffffff161461204457600080611fed600760008773ffffffffffffffffffffffffffffffffffffffff1673ffffffffffffffffffffffffffffffffffffffff16815260200190815260200160002061136085611c2b565b915091508473ffffffffffffffffffffffffffffffffffffffff167fdec2bacdd2f05b59de34da9b523dff8be42e5e38e818c82fdb0bae774387a72483836040516120399291906131c1565b60405180910390a250505b600073ffffffffffffffffffffffffffffffffffffffff168273ffffffffffffffffffffffffffffffffffffffff161461211d576000806120c6600760008673ffffffffffffffffffffffffffffffffffffffff1673ffffffffffffffffffffffffffffffffffffffff16815260200190815260200160002061125c85611c2b565b915091508373ffffffffffffffffffffffffffffffffffffffff167fdec2bacdd2f05b59de34da9b523dff8be42e5e38e818c82fdb0bae774387a72483836040516121129291906131c1565b60405180910390a250505b5b505050565b6000838383463060405160200161213e959493929190612e51565b6040516020818303038152906040528051906020012090509392505050565b6000600282841861216e919061329d565b82841661217b9190613247565b905092915050565b60008282604051602001612198929190612d23565b60405160208183030381529060405280519060200120905092915050565b6000807f7fffffffffffffffffffffffffffffff5d576e7357a4501ddfe92f46681b20a08360001c11156121f15760006003915091506122ba565b601b8560ff16141580156122095750601c8560ff1614155b1561221b5760006004915091506122ba565b6000600187878787604051600081526020016040526040516122409493929190612ea4565b6020604051602081039080840390855afa158015612262573d6000803e3d6000fd5b505050602060405103519050600073ffffffffffffffffffffffffffffffffffffffff168173ffffffffffffffffffffffffffffffffffffffff1614156122b1576000600192509250506122ba565b80600092509250505b94509492505050565b600060048111156122fd577f4e487b7100000000000000000000000000000000000000000000000000000000600052602160045260246000fd5b816004811115612336577f4e487b7100000000000000000000000000000000000000000000000000000000600052602160045260246000fd5b141561234157612611565b6001600481111561237b577f4e487b7100000000000000000000000000000000000000000000000000000000600052602160045260246000fd5b8160048111156123b4577f4e487b7100000000000000000000000000000000000000000000000000000000600052602160045260246000fd5b14156123f5576040517f08c379a00000000000000000000000000000000000000000000000000000000081526004016123ec90612f0b565b60405180910390fd5b6002600481111561242f577f4e487b7100000000000000000000000000000000000000000000000000000000600052602160045260246000fd5b816004811115612468577f4e487b7100000000000000000000000000000000000000000000000000000000600052602160045260246000fd5b14156124a9576040517f08c379a00000000000000000000000000000000000000000000000000000000081526004016124a090612f8b565b60405180910390fd5b600360048111156124e3577f4e487b7100000000000000000000000000000000000000000000000000000000600052602160045260246000fd5b81600481111561251c577f4e487b7100000000000000000000000000000000000000000000000000000000600052602160045260246000fd5b141561255d576040517f08c379a00000000000000000000000000000000000000000000000000000000081526004016125549061302b565b60405180910390fd5b600480811115612596577f4e487b7100000000000000000000000000000000000000000000000000000000600052602160045260246000fd5b8160048111156125cf577f4e487b7100000000000000000000000000000000000000000000000000000000600052602160045260246000fd5b1415612610576040517f08c379a00000000000000000000000000000000000000000000000000000000081526004016126079061304b565b60405180910390fd5b5b50565b6001816000016000828254019250508190555050565b6040518060400160405280600063ffffffff16815260200160007bffffffffffffffffffffffffffffffffffffffffffffffffffffffff1681525090565b600081359050612677816139cb565b92915050565b60008135905061268c816139e2565b92915050565b6000813590506126a1816139f9565b92915050565b6000813590506126b681613a10565b92915050565b6000813590506126cb81613a27565b92915050565b6000602082840312156126e357600080fd5b60006126f184828501612668565b91505092915050565b6000806040838503121561270d57600080fd5b600061271b85828601612668565b925050602061272c85828601612668565b9150509250929050565b60008060006060848603121561274b57600080fd5b600061275986828701612668565b935050602061276a86828701612668565b925050604061277b86828701612692565b9150509250925092565b600080600080600080600060e0888a0312156127a057600080fd5b60006127ae8a828b01612668565b97505060206127bf8a828b01612668565b96505060406127d08a828b01612692565b95505060606127e18a828b01612692565b94505060806127f28a828b016126bc565b93505060a06128038a828b0161267d565b92505060c06128148a828b0161267d565b91505092959891949750929550565b6000806040838503121561283657600080fd5b600061284485828601612668565b925050602061285585828601612692565b9150509250929050565b60008060008060008060c0878903121561287857600080fd5b600061288689828a01612668565b965050602061289789828a01612692565b95505060406128a889828a01612692565b94505060606128b989828a016126bc565b93505060806128ca89828a0161267d565b92505060a06128db89828a0161267d565b9150509295509295509295565b600080604083850312156128fb57600080fd5b600061290985828601612668565b925050602061291a858286016126a7565b9150509250929050565b60006020828403121561293657600080fd5b600061294484828501612692565b91505092915050565b61295681613302565b82525050565b61296581613314565b82525050565b61297481613320565b82525050565b61298b61298682613320565b6133fe565b82525050565b600061299c82613220565b6129a6818561322b565b93506129b6818560208601613399565b6129bf81613495565b840191505092915050565b60006129d760188361322b565b91506129e2826134a6565b602082019050919050565b60006129fa60238361322b565b9150612a05826134cf565b604082019050919050565b6000612a1d601f8361322b565b9150612a288261351e565b602082019050919050565b6000612a40601d8361322b565b9150612a4b82613547565b602082019050919050565b6000612a63601f8361322b565b9150612a6e82613570565b602082019050919050565b6000612a8660198361322b565b9150612a9182613599565b602082019050919050565b6000612aa960228361322b565b9150612ab4826135c2565b604082019050919050565b6000612acc60028361323c565b9150612ad782613611565b600282019050919050565b6000612aef601d8361322b565b9150612afa8261363a565b602082019050919050565b6000612b1260268361322b565b9150612b1d82613663565b604082019050919050565b6000612b3560228361322b565b9150612b40826136b2565b604082019050919050565b6000612b5860228361322b565b9150612b6382613701565b604082019050919050565b6000612b7b601e8361322b565b9150612b8682613750565b602082019050919050565b6000612b9e60288361322b565b9150612ba982613779565b604082019050919050565b6000612bc160308361322b565b9150612bcc826137c8565b604082019050919050565b6000612be460278361322b565b9150612bef82613817565b604082019050919050565b6000612c0760258361322b565b9150612c1282613866565b604082019050919050565b6000612c2a60268361322b565b9150612c35826138b5565b604082019050919050565b6000612c4d60248361322b565b9150612c5882613904565b604082019050919050565b6000612c7060258361322b565b9150612c7b82613953565b604082019050919050565b6000612c93601f8361322b565b9150612c9e826139a2565b602082019050919050565b604082016000820151612cbf6000850182612cf6565b506020820151612cd26020850182612cd8565b50505050565b612ce18161334a565b82525050565b612cf081613372565b82525050565b612cff8161337c565b82525050565b612d0e8161337c565b82525050565b612d1d8161338c565b82525050565b6000612d2e82612abf565b9150612d3a828561297a565b602082019150612d4a828461297a565b6020820191508190509392505050565b6000602082019050612d6f600083018461294d565b92915050565b6000602082019050612d8a600083018461295c565b92915050565b6000602082019050612da5600083018461296b565b92915050565b600060c082019050612dc0600083018961296b565b612dcd602083018861294d565b612dda604083018761294d565b612de76060830186612ce7565b612df46080830185612ce7565b612e0160a0830184612ce7565b979650505050505050565b6000608082019050612e21600083018761296b565b612e2e602083018661294d565b612e3b6040830185612ce7565b612e486060830184612ce7565b95945050505050565b600060a082019050612e66600083018861296b565b612e73602083018761296b565b612e80604083018661296b565b612e8d6060830185612ce7565b612e9a608083018461294d565b9695505050505050565b6000608082019050612eb9600083018761296b565b612ec66020830186612d14565b612ed3604083018561296b565b612ee0606083018461296b565b95945050505050565b60006020820190508181036000830152612f038184612991565b905092915050565b60006020820190508181036000830152612f24816129ca565b9050919050565b60006020820190508181036000830152612f44816129ed565b9050919050565b60006020820190508181036000830152612f6481612a10565b9050919050565b60006020820190508181036000830152612f8481612a33565b9050919050565b60006020820190508181036000830152612fa481612a56565b9050919050565b60006020820190508181036000830152612fc481612a79565b9050919050565b60006020820190508181036000830152612fe481612a9c565b9050919050565b6000602082019050818103600083015261300481612ae2565b9050919050565b6000602082019050818103600083015261302481612b05565b9050919050565b6000602082019050818103600083015261304481612b28565b9050919050565b6000602082019050818103600083015261306481612b4b565b9050919050565b6000602082019050818103600083015261308481612b6e565b9050919050565b600060208201905081810360008301526130a481612b91565b9050919050565b600060208201905081810360008301526130c481612bb4565b9050919050565b600060208201905081810360008301526130e481612bd7565b9050919050565b6000602082019050818103600083015261310481612bfa565b9050919050565b6000602082019050818103600083015261312481612c1d565b9050919050565b6000602082019050818103600083015261314481612c40565b9050919050565b6000602082019050818103600083015261316481612c63565b9050919050565b6000602082019050818103600083015261318481612c86565b9050919050565b60006040820190506131a06000830184612ca9565b92915050565b60006020820190506131bb6000830184612ce7565b92915050565b60006040820190506131d66000830185612ce7565b6131e36020830184612ce7565b9392505050565b60006020820190506131ff6000830184612d05565b92915050565b600060208201905061321a6000830184612d14565b92915050565b600081519050919050565b600082825260208201905092915050565b600081905092915050565b600061325282613372565b915061325d83613372565b9250827fffffffffffffffffffffffffffffffffffffffffffffffffffffffffffffffff0382111561329257613291613408565b5b828201905092915050565b60006132a882613372565b91506132b383613372565b9250826132c3576132c2613437565b5b828204905092915050565b60006132d982613372565b91506132e483613372565b9250828210156132f7576132f6613408565b5b828203905092915050565b600061330d8261332a565b9050919050565b60008115159050919050565b6000819050919050565b600073ffffffffffffffffffffffffffffffffffffffff82169050919050565b60007bffffffffffffffffffffffffffffffffffffffffffffffffffffffff82169050919050565b6000819050919050565b600063ffffffff82169050919050565b600060ff82169050919050565b60005b838110156133b757808201518184015260208101905061339c565b838111156133c6576000848401525b50505050565b600060028204905060018216806133e457607f821691505b602082108114156133f8576133f7613466565b5b50919050565b6000819050919050565b7f4e487b7100000000000000000000000000000000000000000000000000000000600052601160045260246000fd5b7f4e487b7100000000000000000000000000000000000000000000000000000000600052601260045260246000fd5b7f4e487b7100000000000000000000000000000000000000000000000000000000600052602260045260246000fd5b6000601f19601f8301169050919050565b7f45434453413a20696e76616c6964207369676e61747572650000000000000000600082015250565b7f45524332303a207472616e7366657220746f20746865207a65726f206164647260008201527f6573730000000000000000000000000000000000000000000000000000000000602082015250565b7f4552433230566f7465733a20626c6f636b206e6f7420796574206d696e656400600082015250565b7f4552433230566f7465733a207369676e61747572652065787069726564000000600082015250565b7f45434453413a20696e76616c6964207369676e6174757265206c656e67746800600082015250565b7f4552433230566f7465733a20696e76616c6964206e6f6e636500000000000000600082015250565b7f45524332303a20617070726f766520746f20746865207a65726f20616464726560008201527f7373000000000000000000000000000000000000000000000000000000000000602082015250565b7f1901000000000000000000000000000000000000000000000000000000000000600082015250565b7f45524332305065726d69743a206578706972656420646561646c696e65000000600082015250565b7f45524332303a207472616e7366657220616d6f756e742065786365656473206260008201527f616c616e63650000000000000000000000000000000000000000000000000000602082015250565b7f45434453413a20696e76616c6964207369676e6174757265202773272076616c60008201527f7565000000000000000000000000000000000000000000000000000000000000602082015250565b7f45434453413a20696e76616c6964207369676e6174757265202776272076616c60008201527f7565000000000000000000000000000000000000000000000000000000000000602082015250565b7f45524332305065726d69743a20696e76616c6964207369676e61747572650000600082015250565b7f45524332303a207472616e7366657220616d6f756e742065786365656473206160008201527f6c6c6f77616e6365000000000000000000000000000000000000000000000000602082015250565b7f4552433230566f7465733a20746f74616c20737570706c79207269736b73206f60008201527f766572666c6f77696e6720766f74657300000000000000000000000000000000602082015250565b7f53616665436173743a2076616c756520646f65736e27742066697420696e203260008201527f3234206269747300000000000000000000000000000000000000000000000000602082015250565b7f45524332303a207472616e736665722066726f6d20746865207a65726f20616460008201527f6472657373000000000000000000000000000000000000000000000000000000602082015250565b7f53616665436173743a2076616c756520646f65736e27742066697420696e203360008201527f3220626974730000000000000000000000000000000000000000000000000000602082015250565b7f45524332303a20617070726f76652066726f6d20746865207a65726f2061646460008201527f7265737300000000000000000000000000000000000000000000000000000000602082015250565b7f45524332303a2064656372656173656420616c6c6f77616e63652062656c6f7760008201527f207a65726f000000000000000000000000000000000000000000000000000000602082015250565b7f45524332303a206d696e7420746f20746865207a65726f206164647265737300600082015250565b6139d481613302565b81146139df57600080fd5b50565b6139eb81613320565b81146139f657600080fd5b50565b613a0281613372565b8114613a0d57600080fd5b50565b613a198161337c565b8114613a2457600080fd5b50565b613a308161338c565b8114613a3b57600080fd5b5056fea2646970667358221220e176f0fd3a84663f6e25c0a4969adb0d5b36efc3a88f3de1648ad86978f04ed864736f6c6343000804003360806040523480156200001157600080fd5b506040518060400160405280600b81526020017f526576696577546f6b656e0000000000000000000000000000000000000000008152506040518060400160405280600381526020017f52544b0000000000000000000000000000000000000000000000000000000000815250816000908051906020019062000096929190620001a6565b508060019080519060200190620000af929190620001a6565b505050620000d2620000c6620000d860201b60201c565b620000e060201b60201c565b620002bb565b600033905090565b6000600760009054906101000a900473ffffffffffffffffffffffffffffffffffffffff16905081600760006101000a81548173ffffffffffffffffffffffffffffffffffffffff021916908373ffffffffffffffffffffffffffffffffffffffff1602179055508173ffffffffffffffffffffffffffffffffffffffff168173ffffffffffffffffffffffffffffffffffffffff167f8be0079c531659141344cd1fd0a4f28419497f9722a3daafe3b4186f6b6457e060405160405180910390a35050565b828054620001b49062000256565b90600052602060002090601f016020900481019282620001d8576000855562000224565b82601f10620001f357805160ff191683800117855562000224565b8280016001018555821562000224579182015b828111156200022357825182559160200191906001019062000206565b5b50905062000233919062000237565b5090565b5b808211156200025257600081600090555060010162000238565b5090565b600060028204905060018216806200026f57607f821691505b602082108114156200028657620002856200028c565b5b50919050565b7f4e487b7100000000000000000000000000000000000000000000000000000000600052602260045260246000fd5b612d7680620002cb6000396000f3fe608060405234801561001057600080fd5b506004361061010b5760003560e01c8063715018a6116100a2578063a22cb46511610071578063a22cb465146102a4578063b88d4fde146102c0578063c87b56dd146102dc578063e985e9c51461030c578063f2fde38b1461033c5761010b565b8063715018a6146102425780638da5cb5b1461024c57806395d89b411461026a578063a1448194146102885761010b565b806323b872dd116100de57806323b872dd146101aa57806342842e0e146101c65780636352211e146101e257806370a08231146102125761010b565b806301ffc9a71461011057806306fdde0314610140578063081812fc1461015e578063095ea7b31461018e575b600080fd5b61012a60048036038101906101259190611de8565b610358565b6040516101379190612211565b60405180910390f35b61014861043a565b604051610155919061222c565b60405180910390f35b61017860048036038101906101739190611e3a565b6104cc565b60405161018591906121aa565b60405180910390f35b6101a860048036038101906101a39190611dac565b610551565b005b6101c460048036038101906101bf9190611ca6565b610669565b005b6101e060048036038101906101db9190611ca6565b6106c9565b005b6101fc60048036038101906101f79190611e3a565b6106e9565b60405161020991906121aa565b60405180910390f35b61022c60048036038101906102279190611c41565b61079b565b604051610239919061246e565b60405180910390f35b61024a610853565b005b6102546108db565b60405161026191906121aa565b60405180910390f35b610272610905565b60405161027f919061222c565b60405180910390f35b6102a2600480360381019061029d9190611dac565b610997565b005b6102be60048036038101906102b99190611d70565b610a21565b005b6102da60048036038101906102d59190611cf5565b610a37565b005b6102f660048036038101906102f19190611e3a565b610a99565b604051610303919061222c565b60405180910390f35b61032660048036038101906103219190611c6a565b610aab565b6040516103339190612211565b60405180910390f35b61035660048036038101906103519190611c41565b610b3f565b005b60007f80ac58cd000000000000000000000000000000000000000000000000000000007bffffffffffffffffffffffffffffffffffffffffffffffffffffffff1916827bffffffffffffffffffffffffffffffffffffffffffffffffffffffff1916148061042357507f5b5e139f000000000000000000000000000000000000000000000000000000007bffffffffffffffffffffffffffffffffffffffffffffffffffffffff1916827bffffffffffffffffffffffffffffffffffffffffffffffffffffffff1916145b80610433575061043282610c37565b5b9050919050565b60606000805461044990612693565b80601f016020809104026020016040519081016040528092919081815260200182805461047590612693565b80156104c25780601f10610497576101008083540402835291602001916104c2565b820191906000526020600020905b8154815290600101906020018083116104a557829003601f168201915b5050505050905090565b60006104d782610ca1565b610516576040517f08c379a000000000000000000000000000000000000000000000000000000000815260040161050d906123ae565b60405180910390fd5b6004600083815260200190815260200160002060009054906101000a900473ffffffffffffffffffffffffffffffffffffffff169050919050565b600061055c826106e9565b90508073ffffffffffffffffffffffffffffffffffffffff168373ffffffffffffffffffffffffffffffffffffffff1614156105cd576040517f08c379a00000000000000000000000000000000000000000000000000000000081526004016105c49061242e565b60405180910390fd5b8073ffffffffffffffffffffffffffffffffffffffff166105ec610d0d565b73ffffffffffffffffffffffffffffffffffffffff16148061061b575061061a81610615610d0d565b610aab565b5b61065a576040517f08c379a00000000000000000000000000000000000000000000000000000000081526004016106519061230e565b60405180910390fd5b6106648383610d15565b505050565b61067a610674610d0d565b82610dce565b6106b9576040517f08c379a00000000000000000000000000000000000000000000000000000000081526004016106b09061244e565b60405180910390fd5b6106c4838383610eac565b505050565b6106e483838360405180602001604052806000815250610a37565b505050565b6000806002600084815260200190815260200160002060009054906101000a900473ffffffffffffffffffffffffffffffffffffffff169050600073ffffffffffffffffffffffffffffffffffffffff168173ffffffffffffffffffffffffffffffffffffffff161415610792576040517f08c379a00000000000000000000000000000000000000000000000000000000081526004016107899061234e565b60405180910390fd5b80915050919050565b60008073ffffffffffffffffffffffffffffffffffffffff168273ffffffffffffffffffffffffffffffffffffffff16141561080c576040517f08c379a00000000000000000000000000000000000000000000000000000000081526004016108039061232e565b60405180910390fd5b600360008373ffffffffffffffffffffffffffffffffffffffff1673ffffffffffffffffffffffffffffffffffffffff168152602001908152602001600020549050919050565b61085b610d0d565b73ffffffffffffffffffffffffffffffffffffffff166108796108db565b73ffffffffffffffffffffffffffffffffffffffff16146108cf576040517f08c379a00000000000000000000000000000000000000000000000000000000081526004016108c6906123ce565b60405180910390fd5b6108d96000611108565b565b6000600760009054906101000a900473ffffffffffffffffffffffffffffffffffffffff16905090565b60606001805461091490612693565b80601f016020809104026020016040519081016040528092919081815260200182805461094090612693565b801561098d5780601f106109625761010080835404028352916020019161098d565b820191906000526020600020905b81548152906001019060200180831161097057829003601f168201915b5050505050905090565b61099f610d0d565b73ffffffffffffffffffffffffffffffffffffffff166109bd6108db565b73ffffffffffffffffffffffffffffffffffffffff1614610a13576040517f08c379a0000000000000000000000000000000000000000000000000000000008152600401610a0a906123ce565b60405180910390fd5b610a1d82826111ce565b5050565b610a33610a2c610d0d565b83836111ec565b5050565b610a48610a42610d0d565b83610dce565b610a87576040517f08c379a0000000000000000000000000000000000000000000000000000000008152600401610a7e9061244e565b60405180910390fd5b610a9384848484611359565b50505050565b6060610aa4826113b5565b9050919050565b6000600560008473ffffffffffffffffffffffffffffffffffffffff1673ffffffffffffffffffffffffffffffffffffffff16815260200190815260200160002060008373ffffffffffffffffffffffffffffffffffffffff1673ffffffffffffffffffffffffffffffffffffffff16815260200190815260200160002060009054906101000a900460ff16905092915050565b610b47610d0d565b73ffffffffffffffffffffffffffffffffffffffff16610b656108db565b73ffffffffffffffffffffffffffffffffffffffff1614610bbb576040517f08c379a0000000000000000000000000000000000000000000000000000000008152600401610bb2906123ce565b60405180910390fd5b600073ffffffffffffffffffffffffffffffffffffffff168173ffffffffffffffffffffffffffffffffffffffff161415610c2b576040517f08c379a0000000000000000000000000000000000000000000000000000000008152600401610c229061226e565b60405180910390fd5b610c3481611108565b50565b60007f01ffc9a7000000000000000000000000000000000000000000000000000000007bffffffffffffffffffffffffffffffffffffffffffffffffffffffff1916827bffffffffffffffffffffffffffffffffffffffffffffffffffffffff1916149050919050565b60008073ffffffffffffffffffffffffffffffffffffffff166002600084815260200190815260200160002060009054906101000a900473ffffffffffffffffffffffffffffffffffffffff1673ffffffffffffffffffffffffffffffffffffffff1614159050919050565b600033905090565b816004600083815260200190815260200160002060006101000a81548173ffffffffffffffffffffffffffffffffffffffff021916908373ffffffffffffffffffffffffffffffffffffffff160217905550808273ffffffffffffffffffffffffffffffffffffffff16610d88836106e9565b73ffffffffffffffffffffffffffffffffffffffff167f8c5be1e5ebec7d5bd14f71427d1e84f3dd0314c0f7b2291e5b200ac8c7c3b92560405160405180910390a45050565b6000610dd982610ca1565b610e18576040517f08c379a0000000000000000000000000000000000000000000000000000000008152600401610e0f906122ee565b60405180910390fd5b6000610e23836106e9565b90508073ffffffffffffffffffffffffffffffffffffffff168473ffffffffffffffffffffffffffffffffffffffff161480610e9257508373ffffffffffffffffffffffffffffffffffffffff16610e7a846104cc565b73ffffffffffffffffffffffffffffffffffffffff16145b80610ea35750610ea28185610aab565b5b91505092915050565b8273ffffffffffffffffffffffffffffffffffffffff16610ecc826106e9565b73ffffffffffffffffffffffffffffffffffffffff1614610f22576040517f08c379a0000000000000000000000000000000000000000000000000000000008152600401610f19906123ee565b60405180910390fd5b600073ffffffffffffffffffffffffffffffffffffffff168273ffffffffffffffffffffffffffffffffffffffff161415610f92576040517f08c379a0000000000000000000000000000000000000000000000000000000008152600401610f89906122ae565b60405180910390fd5b610f9d838383611507565b610fa8600082610d15565b6001600360008573ffffffffffffffffffffffffffffffffffffffff1673ffffffffffffffffffffffffffffffffffffffff1681526020019081526020016000206000828254610ff891906125a9565b925050819055506001600360008473ffffffffffffffffffffffffffffffffffffffff1673ffffffffffffffffffffffffffffffffffffffff168152602001908152602001600020600082825461104f9190612522565b92505081905550816002600083815260200190815260200160002060006101000a81548173ffffffffffffffffffffffffffffffffffffffff021916908373ffffffffffffffffffffffffffffffffffffffff160217905550808273ffffffffffffffffffffffffffffffffffffffff168473ffffffffffffffffffffffffffffffffffffffff167fddf252ad1be2c89b69c2b068fc378daa952ba7f163c4a11628f55a4df523b3ef60405160405180910390a4505050565b6000600760009054906101000a900473ffffffffffffffffffffffffffffffffffffffff16905081600760006101000a81548173ffffffffffffffffffffffffffffffffffffffff021916908373ffffffffffffffffffffffffffffffffffffffff1602179055508173ffffffffffffffffffffffffffffffffffffffff168173ffffffffffffffffffffffffffffffffffffffff167f8be0079c531659141344cd1fd0a4f28419497f9722a3daafe3b4186f6b6457e060405160405180910390a35050565b6111e882826040518060200160405280600081525061150c565b5050565b8173ffffffffffffffffffffffffffffffffffffffff168373ffffffffffffffffffffffffffffffffffffffff16141561125b576040517f08c379a0000000000000000000000000000000000000000000000000000000008152600401611252906122ce565b60405180910390fd5b80600560008573ffffffffffffffffffffffffffffffffffffffff1673ffffffffffffffffffffffffffffffffffffffff16815260200190815260200160002060008473ffffffffffffffffffffffffffffffffffffffff1673ffffffffffffffffffffffffffffffffffffffff16815260200190815260200160002060006101000a81548160ff0219169083151502179055508173ffffffffffffffffffffffffffffffffffffffff168373ffffffffffffffffffffffffffffffffffffffff167f17307eab39ab6107e8899845ad3d59bd9653f200f220920489ca2b5937696c318360405161134c9190612211565b60405180910390a3505050565b611364848484610eac565b61137084848484611567565b6113af576040517f08c379a00000000000000000000000000000000000000000000000000000000081526004016113a69061224e565b60405180910390fd5b50505050565b60606113c082610ca1565b6113ff576040517f08c379a00000000000000000000000000000000000000000000000000000000081526004016113f69061238e565b60405180910390fd5b600060066000848152602001908152602001600020805461141f90612693565b80601f016020809104026020016040519081016040528092919081815260200182805461144b90612693565b80156114985780601f1061146d57610100808354040283529160200191611498565b820191906000526020600020905b81548152906001019060200180831161147b57829003601f168201915b5050505050905060006114a96116fe565b90506000815114156114bf578192505050611502565b6000825111156114f45780826040516020016114dc929190612186565b60405160208183030381529060405292505050611502565b6114fd8461173b565b925050505b919050565b505050565b61151683836117e2565b6115236000848484611567565b611562576040517f08c379a00000000000000000000000000000000000000000000000000000000081526004016115599061224e565b60405180910390fd5b505050565b60006115888473ffffffffffffffffffffffffffffffffffffffff166119b0565b156116f1578373ffffffffffffffffffffffffffffffffffffffff1663150b7a026115b1610d0d565b8786866040518563ffffffff1660e01b81526004016115d394939291906121c5565b602060405180830381600087803b1580156115ed57600080fd5b505af192505050801561161e57506040513d601f19601f8201168201806040525081019061161b9190611e11565b60015b6116a1573d806000811461164e576040519150601f19603f3d011682016040523d82523d6000602084013e611653565b606091505b50600081511415611699576040517f08c379a00000000000000000000000000000000000000000000000000000000081526004016116909061224e565b60405180910390fd5b805181602001fd5b63150b7a0260e01b7bffffffffffffffffffffffffffffffffffffffffffffffffffffffff1916817bffffffffffffffffffffffffffffffffffffffffffffffffffffffff1916149150506116f6565b600190505b949350505050565b60606040518060400160405280601481526020017f68747470733a2f2f647075626c6973682e6f7267000000000000000000000000815250905090565b606061174682610ca1565b611785576040517f08c379a000000000000000000000000000000000000000000000000000000000815260040161177c9061240e565b60405180910390fd5b600061178f6116fe565b905060008151116117af57604051806020016040528060008152506117da565b806117b9846119c3565b6040516020016117ca929190612186565b6040516020818303038152906040525b915050919050565b600073ffffffffffffffffffffffffffffffffffffffff168273ffffffffffffffffffffffffffffffffffffffff161415611852576040517f08c379a00000000000000000000000000000000000000000000000000000000081526004016118499061236e565b60405180910390fd5b61185b81610ca1565b1561189b576040517f08c379a00000000000000000000000000000000000000000000000000000000081526004016118929061228e565b60405180910390fd5b6118a760008383611507565b6001600360008473ffffffffffffffffffffffffffffffffffffffff1673ffffffffffffffffffffffffffffffffffffffff16815260200190815260200160002060008282546118f79190612522565b92505081905550816002600083815260200190815260200160002060006101000a81548173ffffffffffffffffffffffffffffffffffffffff021916908373ffffffffffffffffffffffffffffffffffffffff160217905550808273ffffffffffffffffffffffffffffffffffffffff16600073ffffffffffffffffffffffffffffffffffffffff167fddf252ad1be2c89b69c2b068fc378daa952ba7f163c4a11628f55a4df523b3ef60405160405180910390a45050565b600080823b905060008111915050919050565b60606000821415611a0b576040518060400160405280600181526020017f30000000000000000000000000000000000000000000000000000000000000008152509050611b6b565b600082905060005b60008214611a3d578080611a26906126f6565b915050600a82611a369190612578565b9150611a13565b60008167ffffffffffffffff811115611a7f577f4e487b7100000000000000000000000000000000000000000000000000000000600052604160045260246000fd5b6040519080825280601f01601f191660200182016040528015611ab15781602001600182028036833780820191505090505b5090505b60008514611b6457600182611aca91906125a9565b9150600a85611ad9919061273f565b6030611ae59190612522565b60f81b818381518110611b21577f4e487b7100000000000000000000000000000000000000000000000000000000600052603260045260246000fd5b60200101907effffffffffffffffffffffffffffffffffffffffffffffffffffffffffffff1916908160001a905350600a85611b5d9190612578565b9450611ab5565b8093505050505b919050565b6000611b83611b7e846124ae565b612489565b905082815260208101848484011115611b9b57600080fd5b611ba6848285612651565b509392505050565b600081359050611bbd81612ce4565b92915050565b600081359050611bd281612cfb565b92915050565b600081359050611be781612d12565b92915050565b600081519050611bfc81612d12565b92915050565b600082601f830112611c1357600080fd5b8135611c23848260208601611b70565b91505092915050565b600081359050611c3b81612d29565b92915050565b600060208284031215611c5357600080fd5b6000611c6184828501611bae565b91505092915050565b60008060408385031215611c7d57600080fd5b6000611c8b85828601611bae565b9250506020611c9c85828601611bae565b9150509250929050565b600080600060608486031215611cbb57600080fd5b6000611cc986828701611bae565b9350506020611cda86828701611bae565b9250506040611ceb86828701611c2c565b9150509250925092565b60008060008060808587031215611d0b57600080fd5b6000611d1987828801611bae565b9450506020611d2a87828801611bae565b9350506040611d3b87828801611c2c565b925050606085013567ffffffffffffffff811115611d5857600080fd5b611d6487828801611c02565b91505092959194509250565b60008060408385031215611d8357600080fd5b6000611d9185828601611bae565b9250506020611da285828601611bc3565b9150509250929050565b60008060408385031215611dbf57600080fd5b6000611dcd85828601611bae565b9250506020611dde85828601611c2c565b9150509250929050565b600060208284031215611dfa57600080fd5b6000611e0884828501611bd8565b91505092915050565b600060208284031215611e2357600080fd5b6000611e3184828501611bed565b91505092915050565b600060208284031215611e4c57600080fd5b6000611e5a84828501611c2c565b91505092915050565b611e6c816125dd565b82525050565b611e7b816125ef565b82525050565b6000611e8c826124df565b611e9681856124f5565b9350611ea6818560208601612660565b611eaf8161282c565b840191505092915050565b6000611ec5826124ea565b611ecf8185612506565b9350611edf818560208601612660565b611ee88161282c565b840191505092915050565b6000611efe826124ea565b611f088185612517565b9350611f18818560208601612660565b80840191505092915050565b6000611f31603283612506565b9150611f3c8261283d565b604082019050919050565b6000611f54602683612506565b9150611f5f8261288c565b604082019050919050565b6000611f77601c83612506565b9150611f82826128db565b602082019050919050565b6000611f9a602483612506565b9150611fa582612904565b604082019050919050565b6000611fbd601983612506565b9150611fc882612953565b602082019050919050565b6000611fe0602c83612506565b9150611feb8261297c565b604082019050919050565b6000612003603883612506565b915061200e826129cb565b604082019050919050565b6000612026602a83612506565b915061203182612a1a565b604082019050919050565b6000612049602983612506565b915061205482612a69565b604082019050919050565b600061206c602083612506565b915061207782612ab8565b602082019050919050565b600061208f603183612506565b915061209a82612ae1565b604082019050919050565b60006120b2602c83612506565b91506120bd82612b30565b604082019050919050565b60006120d5602083612506565b91506120e082612b7f565b602082019050919050565b60006120f8602983612506565b915061210382612ba8565b604082019050919050565b600061211b602f83612506565b915061212682612bf7565b604082019050919050565b600061213e602183612506565b915061214982612c46565b604082019050919050565b6000612161603183612506565b915061216c82612c95565b604082019050919050565b61218081612647565b82525050565b60006121928285611ef3565b915061219e8284611ef3565b91508190509392505050565b60006020820190506121bf6000830184611e63565b92915050565b60006080820190506121da6000830187611e63565b6121e76020830186611e63565b6121f46040830185612177565b81810360608301526122068184611e81565b905095945050505050565b60006020820190506122266000830184611e72565b92915050565b600060208201905081810360008301526122468184611eba565b905092915050565b6000602082019050818103600083015261226781611f24565b9050919050565b6000602082019050818103600083015261228781611f47565b9050919050565b600060208201905081810360008301526122a781611f6a565b9050919050565b600060208201905081810360008301526122c781611f8d565b9050919050565b600060208201905081810360008301526122e781611fb0565b9050919050565b6000602082019050818103600083015261230781611fd3565b9050919050565b6000602082019050818103600083015261232781611ff6565b9050919050565b6000602082019050818103600083015261234781612019565b9050919050565b600060208201905081810360008301526123678161203c565b9050919050565b600060208201905081810360008301526123878161205f565b9050919050565b600060208201905081810360008301526123a781612082565b9050919050565b600060208201905081810360008301526123c7816120a5565b9050919050565b600060208201905081810360008301526123e7816120c8565b9050919050565b60006020820190508181036000830152612407816120eb565b9050919050565b600060208201905081810360008301526124278161210e565b9050919050565b6000602082019050818103600083015261244781612131565b9050919050565b6000602082019050818103600083015261246781612154565b9050919050565b60006020820190506124836000830184612177565b92915050565b60006124936124a4565b905061249f82826126c5565b919050565b6000604051905090565b600067ffffffffffffffff8211156124c9576124c86127fd565b5b6124d28261282c565b9050602081019050919050565b600081519050919050565b600081519050919050565b600082825260208201905092915050565b600082825260208201905092915050565b600081905092915050565b600061252d82612647565b915061253883612647565b9250827fffffffffffffffffffffffffffffffffffffffffffffffffffffffffffffffff0382111561256d5761256c612770565b5b828201905092915050565b600061258382612647565b915061258e83612647565b92508261259e5761259d61279f565b5b828204905092915050565b60006125b482612647565b91506125bf83612647565b9250828210156125d2576125d1612770565b5b828203905092915050565b60006125e882612627565b9050919050565b60008115159050919050565b60007fffffffff0000000000000000000000000000000000000000000000000000000082169050919050565b600073ffffffffffffffffffffffffffffffffffffffff82169050919050565b6000819050919050565b82818337600083830152505050565b60005b8381101561267e578082015181840152602081019050612663565b8381111561268d576000848401525b50505050565b600060028204905060018216806126ab57607f821691505b602082108114156126bf576126be6127ce565b5b50919050565b6126ce8261282c565b810181811067ffffffffffffffff821117156126ed576126ec6127fd565b5b80604052505050565b600061270182612647565b91507fffffffffffffffffffffffffffffffffffffffffffffffffffffffffffffffff82141561273457612733612770565b5b600182019050919050565b600061274a82612647565b915061275583612647565b9250826127655761276461279f565b5b828206905092915050565b7f4e487b7100000000000000000000000000000000000000000000000000000000600052601160045260246000fd5b7f4e487b7100000000000000000000000000000000000000000000000000000000600052601260045260246000fd5b7f4e487b7100000000000000000000000000000000000000000000000000000000600052602260045260246000fd5b7f4e487b7100000000000000000000000000000000000000000000000000000000600052604160045260246000fd5b6000601f19601f8301169050919050565b7f4552433732313a207472616e7366657220746f206e6f6e20455243373231526560008201527f63656976657220696d706c656d656e7465720000000000000000000000000000602082015250565b7f4f776e61626c653a206e6577206f776e657220697320746865207a65726f206160008201527f6464726573730000000000000000000000000000000000000000000000000000602082015250565b7f4552433732313a20746f6b656e20616c7265616479206d696e74656400000000600082015250565b7f4552433732313a207472616e7366657220746f20746865207a65726f2061646460008201527f7265737300000000000000000000000000000000000000000000000000000000602082015250565b7f4552433732313a20617070726f766520746f2063616c6c657200000000000000600082015250565b7f4552433732313a206f70657261746f7220717565727920666f72206e6f6e657860008201527f697374656e7420746f6b656e0000000000000000000000000000000000000000602082015250565b7f4552433732313a20617070726f76652063616c6c6572206973206e6f74206f7760008201527f6e6572206e6f7220617070726f76656420666f7220616c6c0000000000000000602082015250565b7f4552433732313a2062616c616e636520717565727920666f7220746865207a6560008201527f726f206164647265737300000000000000000000000000000000000000000000602082015250565b7f4552433732313a206f776e657220717565727920666f72206e6f6e657869737460008201527f656e7420746f6b656e0000000000000000000000000000000000000000000000602082015250565b7f4552433732313a206d696e7420746f20746865207a65726f2061646472657373600082015250565b7f45524337323155524953746f726167653a2055524920717565727920666f722060008201527f6e6f6e6578697374656e7420746f6b656e000000000000000000000000000000602082015250565b7f4552433732313a20617070726f76656420717565727920666f72206e6f6e657860008201527f697374656e7420746f6b656e0000000000000000000000000000000000000000602082015250565b7f4f776e61626c653a2063616c6c6572206973206e6f7420746865206f776e6572600082015250565b7f4552433732313a207472616e73666572206f6620746f6b656e2074686174206960008201527f73206e6f74206f776e0000000000000000000000000000000000000000000000602082015250565b7f4552433732314d657461646174613a2055524920717565727920666f72206e6f60008201527f6e6578697374656e7420746f6b656e0000000000000000000000000000000000602082015250565b7f4552433732313a20617070726f76616c20746f2063757272656e74206f776e6560008201527f7200000000000000000000000000000000000000000000000000000000000000602082015250565b7f4552433732313a207472616e736665722063616c6c6572206973206e6f74206f60008201527f776e6572206e6f7220617070726f766564000000000000000000000000000000602082015250565b612ced816125dd565b8114612cf857600080fd5b50565b612d04816125ef565b8114612d0f57600080fd5b50565b612d1b816125fb565b8114612d2657600080fd5b50565b612d3281612647565b8114612d3d57600080fd5b5056fea26469706673582212203a75bad051d5a7d1229415592e1d0ab3d1e2be038f3004aaea791599f7f1032164736f6c6343000804003360806040523480156200001157600080fd5b506040518060400160405280600a81526020017f5061706572546f6b656e000000000000000000000000000000000000000000008152506040518060400160405280600381526020017f50544b0000000000000000000000000000000000000000000000000000000000815250816000908051906020019062000096929190620001a6565b508060019080519060200190620000af929190620001a6565b505050620000d2620000c6620000d860201b60201c565b620000e060201b60201c565b620002bb565b600033905090565b6000600760009054906101000a900473ffffffffffffffffffffffffffffffffffffffff16905081600760006101000a81548173ffffffffffffffffffffffffffffffffffffffff021916908373ffffffffffffffffffffffffffffffffffffffff1602179055508173ffffffffffffffffffffffffffffffffffffffff168173ffffffffffffffffffffffffffffffffffffffff167f8be0079c531659141344cd1fd0a4f28419497f9722a3daafe3b4186f6b6457e060405160405180910390a35050565b828054620001b49062000256565b90600052602060002090601f016020900481019282620001d8576000855562000224565b82601f10620001f357805160ff191683800117855562000224565b8280016001018555821562000224579182015b828111156200022357825182559160200191906001019062000206565b5b50905062000233919062000237565b5090565b5b808211156200025257600081600090555060010162000238565b5090565b600060028204905060018216806200026f57607f821691505b602082108114156200028657620002856200028c565b5b50919050565b7f4e487b7100000000000000000000000000000000000000000000000000000000600052602260045260246000fd5b612d7680620002cb6000396000f3fe608060405234801561001057600080fd5b506004361061010b5760003560e01c8063715018a6116100a2578063a22cb46511610071578063a22cb465146102a4578063b88d4fde146102c0578063c87b56dd146102dc578063e985e9c51461030c578063f2fde38b1461033c5761010b565b8063715018a6146102425780638da5cb5b1461024c57806395d89b411461026a578063a1448194146102885761010b565b806323b872dd116100de57806323b872dd146101aa57806342842e0e146101c65780636352211e146101e257806370a08231146102125761010b565b806301ffc9a71461011057806306fdde0314610140578063081812fc1461015e578063095ea7b31461018e575b600080fd5b61012a60048036038101906101259190611de8565b610358565b6040516101379190612211565b60405180910390f35b61014861043a565b604051610155919061222c565b60405180910390f35b61017860048036038101906101739190611e3a565b6104cc565b60405161018591906121aa565b60405180910390f35b6101a860048036038101906101a39190611dac565b610551565b005b6101c460048036038101906101bf9190611ca6565b610669565b005b6101e060048036038101906101db9190611ca6565b6106c9565b005b6101fc60048036038101906101f79190611e3a565b6106e9565b60405161020991906121aa565b60405180910390f35b61022c60048036038101906102279190611c41565b61079b565b604051610239919061246e565b60405180910390f35b61024a610853565b005b6102546108db565b60405161026191906121aa565b60405180910390f35b610272610905565b60405161027f919061222c565b60405180910390f35b6102a2600480360381019061029d9190611dac565b610997565b005b6102be60048036038101906102b99190611d70565b610a21565b005b6102da60048036038101906102d59190611cf5565b610a37565b005b6102f660048036038101906102f19190611e3a565b610a99565b604051610303919061222c565b60405180910390f35b61032660048036038101906103219190611c6a565b610aab565b6040516103339190612211565b60405180910390f35b61035660048036038101906103519190611c41565b610b3f565b005b60007f80ac58cd000000000000000000000000000000000000000000000000000000007bffffffffffffffffffffffffffffffffffffffffffffffffffffffff1916827bffffffffffffffffffffffffffffffffffffffffffffffffffffffff1916148061042357507f5b5e139f000000000000000000000000000000000000000000000000000000007bffffffffffffffffffffffffffffffffffffffffffffffffffffffff1916827bffffffffffffffffffffffffffffffffffffffffffffffffffffffff1916145b80610433575061043282610c37565b5b9050919050565b60606000805461044990612693565b80601f016020809104026020016040519081016040528092919081815260200182805461047590612693565b80156104c25780601f10610497576101008083540402835291602001916104c2565b820191906000526020600020905b8154815290600101906020018083116104a557829003601f168201915b5050505050905090565b60006104d782610ca1565b610516576040517f08c379a000000000000000000000000000000000000000000000000000000000815260040161050d906123ae565b60405180910390fd5b6004600083815260200190815260200160002060009054906101000a900473ffffffffffffffffffffffffffffffffffffffff169050919050565b600061055c826106e9565b90508073ffffffffffffffffffffffffffffffffffffffff168373ffffffffffffffffffffffffffffffffffffffff1614156105cd576040517f08c379a00000000000000000000000000000000000000000000000000000000081526004016105c49061242e565b60405180910390fd5b8073ffffffffffffffffffffffffffffffffffffffff166105ec610d0d565b73ffffffffffffffffffffffffffffffffffffffff16148061061b575061061a81610615610d0d565b610aab565b5b61065a576040517f08c379a00000000000000000000000000000000000000000000000000000000081526004016106519061230e565b60405180910390fd5b6106648383610d15565b505050565b61067a610674610d0d565b82610dce565b6106b9576040517f08c379a00000000000000000000000000000000000000000000000000000000081526004016106b09061244e565b60405180910390fd5b6106c4838383610eac565b505050565b6106e483838360405180602001604052806000815250610a37565b505050565b6000806002600084815260200190815260200160002060009054906101000a900473ffffffffffffffffffffffffffffffffffffffff169050600073ffffffffffffffffffffffffffffffffffffffff168173ffffffffffffffffffffffffffffffffffffffff161415610792576040517f08c379a00000000000000000000000000000000000000000000000000000000081526004016107899061234e565b60405180910390fd5b80915050919050565b60008073ffffffffffffffffffffffffffffffffffffffff168273ffffffffffffffffffffffffffffffffffffffff16141561080c576040517f08c379a00000000000000000000000000000000000000000000000000000000081526004016108039061232e565b60405180910390fd5b600360008373ffffffffffffffffffffffffffffffffffffffff1673ffffffffffffffffffffffffffffffffffffffff168152602001908152602001600020549050919050565b61085b610d0d565b73ffffffffffffffffffffffffffffffffffffffff166108796108db565b73ffffffffffffffffffffffffffffffffffffffff16146108cf576040517f08c379a00000000000000000000000000000000000000000000000000000000081526004016108c6906123ce565b60405180910390fd5b6108d96000611108565b565b6000600760009054906101000a900473ffffffffffffffffffffffffffffffffffffffff16905090565b60606001805461091490612693565b80601f016020809104026020016040519081016040528092919081815260200182805461094090612693565b801561098d5780601f106109625761010080835404028352916020019161098d565b820191906000526020600020905b81548152906001019060200180831161097057829003601f168201915b5050505050905090565b61099f610d0d565b73ffffffffffffffffffffffffffffffffffffffff166109bd6108db565b73ffffffffffffffffffffffffffffffffffffffff1614610a13576040517f08c379a0000000000000000000000000000000000000000000000000000000008152600401610a0a906123ce565b60405180910390fd5b610a1d82826111ce565b5050565b610a33610a2c610d0d565b83836111ec565b5050565b610a48610a42610d0d565b83610dce565b610a87576040517f08c379a0000000000000000000000000000000000000000000000000000000008152600401610a7e9061244e565b60405180910390fd5b610a9384848484611359565b50505050565b6060610aa4826113b5565b9050919050565b6000600560008473ffffffffffffffffffffffffffffffffffffffff1673ffffffffffffffffffffffffffffffffffffffff16815260200190815260200160002060008373ffffffffffffffffffffffffffffffffffffffff1673ffffffffffffffffffffffffffffffffffffffff16815260200190815260200160002060009054906101000a900460ff16905092915050565b610b47610d0d565b73ffffffffffffffffffffffffffffffffffffffff16610b656108db565b73ffffffffffffffffffffffffffffffffffffffff1614610bbb576040517f08c379a0000000000000000000000000000000000000000000000000000000008152600401610bb2906123ce565b60405180910390fd5b600073ffffffffffffffffffffffffffffffffffffffff168173ffffffffffffffffffffffffffffffffffffffff161415610c2b576040517f08c379a0000000000000000000000000000000000000000000000000000000008152600401610c229061226e565b60405180910390fd5b610c3481611108565b50565b60007f01ffc9a7000000000000000000000000000000000000000000000000000000007bffffffffffffffffffffffffffffffffffffffffffffffffffffffff1916827bffffffffffffffffffffffffffffffffffffffffffffffffffffffff1916149050919050565b60008073ffffffffffffffffffffffffffffffffffffffff166002600084815260200190815260200160002060009054906101000a900473ffffffffffffffffffffffffffffffffffffffff1673ffffffffffffffffffffffffffffffffffffffff1614159050919050565b600033905090565b816004600083815260200190815260200160002060006101000a81548173ffffffffffffffffffffffffffffffffffffffff021916908373ffffffffffffffffffffffffffffffffffffffff160217905550808273ffffffffffffffffffffffffffffffffffffffff16610d88836106e9565b73ffffffffffffffffffffffffffffffffffffffff167f8c5be1e5ebec7d5bd14f71427d1e84f3dd0314c0f7b2291e5b200ac8c7c3b92560405160405180910390a45050565b6000610dd982610ca1565b610e18576040517f08c379a0000000000000000000000000000000000000000000000000000000008152600401610e0f906122ee565b60405180910390fd5b6000610e23836106e9565b90508073ffffffffffffffffffffffffffffffffffffffff168473ffffffffffffffffffffffffffffffffffffffff161480610e9257508373ffffffffffffffffffffffffffffffffffffffff16610e7a846104cc565b73ffffffffffffffffffffffffffffffffffffffff16145b80610ea35750610ea28185610aab565b5b91505092915050565b8273ffffffffffffffffffffffffffffffffffffffff16610ecc826106e9565b73ffffffffffffffffffffffffffffffffffffffff1614610f22576040517f08c379a0000000000000000000000000000000000000000000000000000000008152600401610f19906123ee565b60405180910390fd5b600073ffffffffffffffffffffffffffffffffffffffff168273ffffffffffffffffffffffffffffffffffffffff161415610f92576040517f08c379a0000000000000000000000000000000000000000000000000000000008152600401610f89906122ae565b60405180910390fd5b610f9d838383611507565b610fa8600082610d15565b6001600360008573ffffffffffffffffffffffffffffffffffffffff1673ffffffffffffffffffffffffffffffffffffffff1681526020019081526020016000206000828254610ff891906125a9565b925050819055506001600360008473ffffffffffffffffffffffffffffffffffffffff1673ffffffffffffffffffffffffffffffffffffffff168152602001908152602001600020600082825461104f9190612522565b92505081905550816002600083815260200190815260200160002060006101000a81548173ffffffffffffffffffffffffffffffffffffffff021916908373ffffffffffffffffffffffffffffffffffffffff160217905550808273ffffffffffffffffffffffffffffffffffffffff168473ffffffffffffffffffffffffffffffffffffffff167fddf252ad1be2c89b69c2b068fc378daa952ba7f163c4a11628f55a4df523b3ef60405160405180910390a4505050565b6000600760009054906101000a900473ffffffffffffffffffffffffffffffffffffffff16905081600760006101000a81548173ffffffffffffffffffffffffffffffffffffffff021916908373ffffffffffffffffffffffffffffffffffffffff1602179055508173ffffffffffffffffffffffffffffffffffffffff168173ffffffffffffffffffffffffffffffffffffffff167f8be0079c531659141344cd1fd0a4f28419497f9722a3daafe3b4186f6b6457e060405160405180910390a35050565b6111e882826040518060200160405280600081525061150c565b5050565b8173ffffffffffffffffffffffffffffffffffffffff168373ffffffffffffffffffffffffffffffffffffffff16141561125b576040517f08c379a0000000000000000000000000000000000000000000000000000000008152600401611252906122ce565b60405180910390fd5b80600560008573ffffffffffffffffffffffffffffffffffffffff1673ffffffffffffffffffffffffffffffffffffffff16815260200190815260200160002060008473ffffffffffffffffffffffffffffffffffffffff1673ffffffffffffffffffffffffffffffffffffffff16815260200190815260200160002060006101000a81548160ff0219169083151502179055508173ffffffffffffffffffffffffffffffffffffffff168373ffffffffffffffffffffffffffffffffffffffff167f17307eab39ab6107e8899845ad3d59bd9653f200f220920489ca2b5937696c318360405161134c9190612211565b60405180910390a3505050565b611364848484610eac565b61137084848484611567565b6113af576040517f08c379a00000000000000000000000000000000000000000000000000000000081526004016113a69061224e565b60405180910390fd5b50505050565b60606113c082610ca1565b6113ff576040517f08c379a00000000000000000000000000000000000000000000000000000000081526004016113f69061238e565b60405180910390fd5b600060066000848152602001908152602001600020805461141f90612693565b80601f016020809104026020016040519081016040528092919081815260200182805461144b90612693565b80156114985780601f1061146d57610100808354040283529160200191611498565b820191906000526020600020905b81548152906001019060200180831161147b57829003601f168201915b5050505050905060006114a96116fe565b90506000815114156114bf578192505050611502565b6000825111156114f45780826040516020016114dc929190612186565b60405160208183030381529060405292505050611502565b6114fd8461173b565b925050505b919050565b505050565b61151683836117e2565b6115236000848484611567565b611562576040517f08c379a00000000000000000000000000000000000000000000000000000000081526004016115599061224e565b60405180910390fd5b505050565b60006115888473ffffffffffffffffffffffffffffffffffffffff166119b0565b156116f1578373ffffffffffffffffffffffffffffffffffffffff1663150b7a026115b1610d0d565b8786866040518563ffffffff1660e01b81526004016115d394939291906121c5565b602060405180830381600087803b1580156115ed57600080fd5b505af192505050801561161e57506040513d601f19601f8201168201806040525081019061161b9190611e11565b60015b6116a1573d806000811461164e576040519150601f19603f3d011682016040523d82523d6000602084013e611653565b606091505b50600081511415611699576040517f08c379a00000000000000000000000000000000000000000000000000000000081526004016116909061224e565b60405180910390fd5b805181602001fd5b63150b7a0260e01b7bffffffffffffffffffffffffffffffffffffffffffffffffffffffff1916817bffffffffffffffffffffffffffffffffffffffffffffffffffffffff1916149150506116f6565b600190505b949350505050565b60606040518060400160405280601481526020017f68747470733a2f2f647075626c6973682e6f7267000000000000000000000000815250905090565b606061174682610ca1565b611785576040517f08c379a000000000000000000000000000000000000000000000000000000000815260040161177c9061240e565b60405180910390fd5b600061178f6116fe565b905060008151116117af57604051806020016040528060008152506117da565b806117b9846119c3565b6040516020016117ca929190612186565b6040516020818303038152906040525b915050919050565b600073ffffffffffffffffffffffffffffffffffffffff168273ffffffffffffffffffffffffffffffffffffffff161415611852576040517f08c379a00000000000000000000000000000000000000000000000000000000081526004016118499061236e565b60405180910390fd5b61185b81610ca1565b1561189b576040517f08c379a00000000000000000000000000000000000000000000000000000000081526004016118929061228e565b60405180910390fd5b6118a760008383611507565b6001600360008473ffffffffffffffffffffffffffffffffffffffff1673ffffffffffffffffffffffffffffffffffffffff16815260200190815260200160002060008282546118f79190612522565b92505081905550816002600083815260200190815260200160002060006101000a81548173ffffffffffffffffffffffffffffffffffffffff021916908373ffffffffffffffffffffffffffffffffffffffff160217905550808273ffffffffffffffffffffffffffffffffffffffff16600073ffffffffffffffffffffffffffffffffffffffff167fddf252ad1be2c89b69c2b068fc378daa952ba7f163c4a11628f55a4df523b3ef60405160405180910390a45050565b600080823b905060008111915050919050565b60606000821415611a0b576040518060400160405280600181526020017f30000000000000000000000000000000000000000000000000000000000000008152509050611b6b565b600082905060005b60008214611a3d578080611a26906126f6565b915050600a82611a369190612578565b9150611a13565b60008167ffffffffffffffff811115611a7f577f4e487b7100000000000000000000000000000000000000000000000000000000600052604160045260246000fd5b6040519080825280601f01601f191660200182016040528015611ab15781602001600182028036833780820191505090505b5090505b60008514611b6457600182611aca91906125a9565b9150600a85611ad9919061273f565b6030611ae59190612522565b60f81b818381518110611b21577f4e487b7100000000000000000000000000000000000000000000000000000000600052603260045260246000fd5b60200101907effffffffffffffffffffffffffffffffffffffffffffffffffffffffffffff1916908160001a905350600a85611b5d9190612578565b9450611ab5565b8093505050505b919050565b6000611b83611b7e846124ae565b612489565b905082815260208101848484011115611b9b57600080fd5b611ba6848285612651565b509392505050565b600081359050611bbd81612ce4565b92915050565b600081359050611bd281612cfb565b92915050565b600081359050611be781612d12565b92915050565b600081519050611bfc81612d12565b92915050565b600082601f830112611c1357600080fd5b8135611c23848260208601611b70565b91505092915050565b600081359050611c3b81612d29565b92915050565b600060208284031215611c5357600080fd5b6000611c6184828501611bae565b91505092915050565b60008060408385031215611c7d57600080fd5b6000611c8b85828601611bae565b9250506020611c9c85828601611bae565b9150509250929050565b600080600060608486031215611cbb57600080fd5b6000611cc986828701611bae565b9350506020611cda86828701611bae565b9250506040611ceb86828701611c2c565b9150509250925092565b60008060008060808587031215611d0b57600080fd5b6000611d1987828801611bae565b9450506020611d2a87828801611bae565b9350506040611d3b87828801611c2c565b925050606085013567ffffffffffffffff811115611d5857600080fd5b611d6487828801611c02565b91505092959194509250565b60008060408385031215611d8357600080fd5b6000611d9185828601611bae565b9250506020611da285828601611bc3565b9150509250929050565b60008060408385031215611dbf57600080fd5b6000611dcd85828601611bae565b9250506020611dde85828601611c2c565b9150509250929050565b600060208284031215611dfa57600080fd5b6000611e0884828501611bd8565b91505092915050565b600060208284031215611e2357600080fd5b6000611e3184828501611bed565b91505092915050565b600060208284031215611e4c57600080fd5b6000611e5a84828501611c2c565b91505092915050565b611e6c816125dd565b82525050565b611e7b816125ef565b82525050565b6000611e8c826124df565b611e9681856124f5565b9350611ea6818560208601612660565b611eaf8161282c565b840191505092915050565b6000611ec5826124ea565b611ecf8185612506565b9350611edf818560208601612660565b611ee88161282c565b840191505092915050565b6000611efe826124ea565b611f088185612517565b9350611f18818560208601612660565b80840191505092915050565b6000611f31603283612506565b9150611f3c8261283d565b604082019050919050565b6000611f54602683612506565b9150611f5f8261288c565b604082019050919050565b6000611f77601c83612506565b9150611f82826128db565b602082019050919050565b6000611f9a602483612506565b9150611fa582612904565b604082019050919050565b6000611fbd601983612506565b9150611fc882612953565b602082019050919050565b6000611fe0602c83612506565b9150611feb8261297c565b604082019050919050565b6000612003603883612506565b915061200e826129cb565b604082019050919050565b6000612026602a83612506565b915061203182612a1a565b604082019050919050565b6000612049602983612506565b915061205482612a69565b604082019050919050565b600061206c602083612506565b915061207782612ab8565b602082019050919050565b600061208f603183612506565b915061209a82612ae1565b604082019050919050565b60006120b2602c83612506565b91506120bd82612b30565b604082019050919050565b60006120d5602083612506565b91506120e082612b7f565b602082019050919050565b60006120f8602983612506565b915061210382612ba8565b604082019050919050565b600061211b602f83612506565b915061212682612bf7565b604082019050919050565b600061213e602183612506565b915061214982612c46565b604082019050919050565b6000612161603183612506565b915061216c82612c95565b604082019050919050565b61218081612647565b82525050565b60006121928285611ef3565b915061219e8284611ef3565b91508190509392505050565b60006020820190506121bf6000830184611e63565b92915050565b60006080820190506121da6000830187611e63565b6121e76020830186611e63565b6121f46040830185612177565b81810360608301526122068184611e81565b905095945050505050565b60006020820190506122266000830184611e72565b92915050565b600060208201905081810360008301526122468184611eba565b905092915050565b6000602082019050818103600083015261226781611f24565b9050919050565b6000602082019050818103600083015261228781611f47565b9050919050565b600060208201905081810360008301526122a781611f6a565b9050919050565b600060208201905081810360008301526122c781611f8d565b9050919050565b600060208201905081810360008301526122e781611fb0565b9050919050565b6000602082019050818103600083015261230781611fd3565b9050919050565b6000602082019050818103600083015261232781611ff6565b9050919050565b6000602082019050818103600083015261234781612019565b9050919050565b600060208201905081810360008301526123678161203c565b9050919050565b600060208201905081810360008301526123878161205f565b9050919050565b600060208201905081810360008301526123a781612082565b9050919050565b600060208201905081810360008301526123c7816120a5565b9050919050565b600060208201905081810360008301526123e7816120c8565b9050919050565b60006020820190508181036000830152612407816120eb565b9050919050565b600060208201905081810360008301526124278161210e565b9050919050565b6000602082019050818103600083015261244781612131565b9050919050565b6000602082019050818103600083015261246781612154565b9050919050565b60006020820190506124836000830184612177565b92915050565b60006124936124a4565b905061249f82826126c5565b919050565b6000604051905090565b600067ffffffffffffffff8211156124c9576124c86127fd565b5b6124d28261282c565b9050602081019050919050565b600081519050919050565b600081519050919050565b600082825260208201905092915050565b600082825260208201905092915050565b600081905092915050565b600061252d82612647565b915061253883612647565b9250827fffffffffffffffffffffffffffffffffffffffffffffffffffffffffffffffff0382111561256d5761256c612770565b5b828201905092915050565b600061258382612647565b915061258e83612647565b92508261259e5761259d61279f565b5b828204905092915050565b60006125b482612647565b91506125bf83612647565b9250828210156125d2576125d1612770565b5b828203905092915050565b60006125e882612627565b9050919050565b60008115159050919050565b60007fffffffff0000000000000000000000000000000000000000000000000000000082169050919050565b600073ffffffffffffffffffffffffffffffffffffffff82169050919050565b6000819050919050565b82818337600083830152505050565b60005b8381101561267e578082015181840152602081019050612663565b8381111561268d576000848401525b50505050565b600060028204905060018216806126ab57607f821691505b602082108114156126bf576126be6127ce565b5b50919050565b6126ce8261282c565b810181811067ffffffffffffffff821117156126ed576126ec6127fd565b5b80604052505050565b600061270182612647565b91507fffffffffffffffffffffffffffffffffffffffffffffffffffffffffffffffff82141561273457612733612770565b5b600182019050919050565b600061274a82612647565b915061275583612647565b9250826127655761276461279f565b5b828206905092915050565b7f4e487b7100000000000000000000000000000000000000000000000000000000600052601160045260246000fd5b7f4e487b7100000000000000000000000000000000000000000000000000000000600052601260045260246000fd5b7f4e487b7100000000000000000000000000000000000000000000000000000000600052602260045260246000fd5b7f4e487b7100000000000000000000000000000000000000000000000000000000600052604160045260246000fd5b6000601f19601f8301169050919050565b7f4552433732313a207472616e7366657220746f206e6f6e20455243373231526560008201527f63656976657220696d706c656d656e7465720000000000000000000000000000602082015250565b7f4f776e61626c653a206e6577206f776e657220697320746865207a65726f206160008201527f6464726573730000000000000000000000000000000000000000000000000000602082015250565b7f4552433732313a20746f6b656e20616c7265616479206d696e74656400000000600082015250565b7f4552433732313a207472616e7366657220746f20746865207a65726f2061646460008201527f7265737300000000000000000000000000000000000000000000000000000000602082015250565b7f4552433732313a20617070726f766520746f2063616c6c657200000000000000600082015250565b7f4552433732313a206f70657261746f7220717565727920666f72206e6f6e657860008201527f697374656e7420746f6b656e0000000000000000000000000000000000000000602082015250565b7f4552433732313a20617070726f76652063616c6c6572206973206e6f74206f7760008201527f6e6572206e6f7220617070726f76656420666f7220616c6c0000000000000000602082015250565b7f4552433732313a2062616c616e636520717565727920666f7220746865207a6560008201527f726f206164647265737300000000000000000000000000000000000000000000602082015250565b7f4552433732313a206f776e657220717565727920666f72206e6f6e657869737460008201527f656e7420746f6b656e0000000000000000000000000000000000000000000000602082015250565b7f4552433732313a206d696e7420746f20746865207a65726f2061646472657373600082015250565b7f45524337323155524953746f726167653a2055524920717565727920666f722060008201527f6e6f6e6578697374656e7420746f6b656e000000000000000000000000000000602082015250565b7f4552433732313a20617070726f76656420717565727920666f72206e6f6e657860008201527f697374656e7420746f6b656e0000000000000000000000000000000000000000602082015250565b7f4f776e61626c653a2063616c6c6572206973206e6f7420746865206f776e6572600082015250565b7f4552433732313a207472616e73666572206f6620746f6b656e2074686174206960008201527f73206e6f74206f776e0000000000000000000000000000000000000000000000602082015250565b7f4552433732314d657461646174613a2055524920717565727920666f72206e6f60008201527f6e6578697374656e7420746f6b656e0000000000000000000000000000000000602082015250565b7f4552433732313a20617070726f76616c20746f2063757272656e74206f776e6560008201527f7200000000000000000000000000000000000000000000000000000000000000602082015250565b7f4552433732313a207472616e736665722063616c6c6572206973206e6f74206f60008201527f776e6572206e6f7220617070726f766564000000000000000000000000000000602082015250565b612ced816125dd565b8114612cf857600080fd5b50565b612d04816125ef565b8114612d0f57600080fd5b50565b612d1b816125fb565b8114612d2657600080fd5b50565b612d3281612647565b8114612d3d57600080fd5b5056fea2646970667358221220293b004cd8d48ee731a19a7d0474c08eb15350cda766a8688d632b72b587647364736f6c63430008040033",
  "immutableReferences": {},
  "source": "// SPDX-License-Identifier: MIT\npragma solidity ^0.8.2;\n\nimport \"./DPubToken.sol\";\nimport \"./ReviewToken.sol\";\nimport \"./PaperToken.sol\";\n\nimport \"@openzeppelin/contracts/utils/Context.sol\";\n\n\n\ncontract DPublish is Context{\n    mapping(string => address) public submited_manuscripts;\n    mapping(address => uint256) public balances; ///Quantiedade de DPTK por usuario\n    mapping(string => uint256) public bounties; //pagamentos para revisores\n    \n    //Processo de Revisao\n    mapping(string => address) public review1_manuscripts;//artigos revisados uma vez\n    mapping(string => address) public review2_manuscripts;//artigso revisados duas vezes\n    mapping(address => bool) public reviewers;// Lista de revisores\n    mapping(string => uint) public review_qtd; // Quantidade de vezes que o manuscrito foi revisado\n    mapping(string => bool) public reviewing; // mostra se o arquivo ta sendo revisado\n    mapping(string => bool) public  published;//arquivos publicados\n\n    address private Editor;//Quem vai iniciar o dpublish\n    uint256 public publishing_fee = 1000; //preco pra publicar\n    uint256 public review_fee = 250;//preco que cada revisor recebe\n\n    //events\n    event PaymentReceived(address from, uint256 amount);\n    event ManuscriptRevised(address reviwer, string idmanuscript, uint review_number);\n    //errors\n    error NotEnoughFunds(uint256 requested, uint256 avaible);\n\n    DPubToken  private DPubTokens;\n    ReviewToken private ReviewTokens;\n    PaperToken private PaperTokens;\n\n\n    constructor(){\n        Editor = msg.sender;\n        DPubTokens = new DPubToken();\n        ReviewTokens  = new ReviewToken();\n        PaperTokens = new PaperToken();\n\n    }\n\n    //Editor pode mudar o preco do publishing fee\n    function set_publishing_fee(uint256 fee) private{\n        require(msg.sender == Editor);\n        publishing_fee = fee;\n    }\n\n    //Ver o preco do publishing fee\n    function get_publishing_fee() view public returns(uint256) {\n        return publishing_fee ;\n    }\n\n        //Editor pode mudar o preco do review fee\n    function set_review_fee(uint256 fee) private{\n        review_fee = fee;\n    }\n\n    //Ver o preco do review fee\n    function get_review_fee() view public returns(uint256) {\n        return review_fee ;\n    }\n\n\n\n\n    //Envia manuscrito\n    function submit_manuscript(string memory idmanuscript) public payable{\n        submited_manuscripts[idmanuscript] = msg.sender;\n        uint balance = balances[msg.sender];\n        if (balance < publishing_fee)\n            revert NotEnoughFunds(publishing_fee, balance);\n        balances[msg.sender] -= publishing_fee;\n        bounties[idmanuscript] = publishing_fee;\n\n        //nao esta sendo revisado\n        review_qtd[idmanuscript] = 0;\n        reviewing[idmanuscript] = false;\n        published[idmanuscript] = false;\n\n        emit PaymentReceived(msg.sender, publishing_fee);\n    }\n\n    \n\n\n    //Publica artigo\n    function publish_manuscript(string memory idmanuscript) public {\n        published[idmanuscript] = true;\n    }\n\n    //Emite ReviewToken\n    function emits_reviewtoken(address reviewer, uint256 tokenId) public{\n        //ReviewTokens.safeMint(reviewer, tokenId);\n\n        }\n    //Emite PaperToken\n    function emits_papertoken(address reviewer, uint256 tokenId) public{\n        //PaperTokens.safeMint(reviewer, tokenId);\n        }\n\n\n\n    //revisor se inscreve\n\n    function subscribe_reviewer()public {\n        reviewers[msg.sender] =  true;   \n    }\n\n    //Revisor comeca a revisao, pode ser a primeira ou segunda\n\n    function start_review(string memory idmanuscript, bool review_1) public {\n        //precisa que o msg.sender seja um revisor\n        require(reviewers[msg.sender] == true,\"Only Reviewers\");\n        //O manuscrito no pode ter sido publicado\n        require(published[idmanuscript] = false,\"This manuscript has been published\");\n        //se for a primeira revisao\n        if(review_1){\n            //manuscrito precisa ter 0 revisoes\n            require(review_qtd[idmanuscript] == 0, \"You cannot review this manuscript\");\n            //manuscrito nao pode estar sendo revisado\n            require(reviewing[idmanuscript] == false, \"This manuscript is being revised\");\n            //adiciona que o manuscrito esta sendo revisado\n            reviewing[idmanuscript] = true;\n            //adiciona o endereco do revisor \n            review1_manuscripts[idmanuscript] = msg.sender;\n        }\n        //segunda revisao\n        else{\n            //o manuscrito precisa ter sido revisado 1 vez\n            require(review_qtd[idmanuscript] == 1, \"This manuscript is being revised\");\n            //o manuscrito nao pode estar sendo revisado\n            require(reviewing[idmanuscript] == false, \"This manuscript is being revised\");\n            //o msg.sender nao pode ser o primeiro revisor\n            require(review1_manuscripts[idmanuscript] != msg.sender,\"You cannot review this manuscript\");\n            //adiciona que o manuscrito esta sendo revisado\n            reviewing[idmanuscript] = true;\n            //adiciona o endereco do revisor\n            review2_manuscripts[idmanuscript] = msg.sender;\n\n\n        }\n\n    }\n\n    function finish_review(string memory idmanuscript, bool review_1) public{\n        //O artigo precisa estar sendo revisado\n        require(reviewing[idmanuscript] = true, \"This manuscript is not being revised\");\n\n        //Caso for a primeira reviso\n        if(review_1){\n            //Apenas a pessoa que esta revisando o arquivo pode finalizar\n            require(review1_manuscripts[idmanuscript] == msg.sender,\"You cannot finish this review\");\n            //Incrementa 1 na quantidade de revisoes\n            review_qtd[idmanuscript] += 1;\n            //informa que o arquivo nao esta sendo mais revisado\n            reviewing[idmanuscript] = false;\n            //pay reviewr DPTK and RTK\n        }\n        else{\n            //Apenas a pessoa que esta revisando o arquivo pode finalizar\n            require(review2_manuscripts[idmanuscript] == msg.sender,\"You cannot finish this review\");\n            //Incrementa 1 na quantidade de revisoes\n            review_qtd[idmanuscript] += 1;\n            //informa que o arquivo nao esta sendo mais revisado\n            publish_manuscript(idmanuscript);\n            //informa que o artigo foi publicado\n            published[idmanuscript] = true;\n            \n            //FALTA: pay reviewer DPTK and RTK\n            //FALTA: paper token  pro autor\n\n        }\n\n\n        }\n\n\n\n}",
  "sourcePath": "/home/alcindo/fgv/4p/cripto/Dpublish/contracts/DPublish.sol",
  "compiler": {
    "name": "solc",
    "version": "0.8.4+commit.c7e474f2.Emscripten.clang"
  },
  "schemaVersion": "3.4.3",
  "updatedAt": "2021-12-15T09:01:59.548Z",
  "devdoc": {
    "kind": "dev",
    "methods": {},
    "version": 1
  },
  "userdoc": {
    "kind": "user",
    "methods": {
      "bounties(string)": {
        "notice": "Quantiedade de DPTK por usuario"
      }
    },
    "version": 1
  }
}