{
  "contractName": "DPubGovernor",
  "abi": [
    {
      "inputs": [
        {
          "internalType": "contract ERC20Votes",
          "name": "_token",
          "type": "address"
        },
        {
          "internalType": "contract TimelockController",
          "name": "_timelock",
          "type": "address"
        }
      ],
      "stateMutability": "nonpayable",
      "type": "constructor"
    },
    {
      "inputs": [],
      "name": "Empty",
      "type": "error"
    },
    {
      "anonymous": false,
      "inputs": [
        {
          "indexed": false,
          "internalType": "uint256",
          "name": "proposalId",
          "type": "uint256"
        }
      ],
      "name": "ProposalCanceled",
      "type": "event"
    },
    {
      "anonymous": false,
      "inputs": [
        {
          "indexed": false,
          "internalType": "uint256",
          "name": "proposalId",
          "type": "uint256"
        },
        {
          "indexed": false,
          "internalType": "address",
          "name": "proposer",
          "type": "address"
        },
        {
          "indexed": false,
          "internalType": "address[]",
          "name": "targets",
          "type": "address[]"
        },
        {
          "indexed": false,
          "internalType": "uint256[]",
          "name": "values",
          "type": "uint256[]"
        },
        {
          "indexed": false,
          "internalType": "string[]",
          "name": "signatures",
          "type": "string[]"
        },
        {
          "indexed": false,
          "internalType": "bytes[]",
          "name": "calldatas",
          "type": "bytes[]"
        },
        {
          "indexed": false,
          "internalType": "uint256",
          "name": "startBlock",
          "type": "uint256"
        },
        {
          "indexed": false,
          "internalType": "uint256",
          "name": "endBlock",
          "type": "uint256"
        },
        {
          "indexed": false,
          "internalType": "string",
          "name": "description",
          "type": "string"
        }
      ],
      "name": "ProposalCreated",
      "type": "event"
    },
    {
      "anonymous": false,
      "inputs": [
        {
          "indexed": false,
          "internalType": "uint256",
          "name": "proposalId",
          "type": "uint256"
        }
      ],
      "name": "ProposalExecuted",
      "type": "event"
    },
    {
      "anonymous": false,
      "inputs": [
        {
          "indexed": false,
          "internalType": "uint256",
          "name": "proposalId",
          "type": "uint256"
        },
        {
          "indexed": false,
          "internalType": "uint256",
          "name": "eta",
          "type": "uint256"
        }
      ],
      "name": "ProposalQueued",
      "type": "event"
    },
    {
      "anonymous": false,
      "inputs": [
        {
          "indexed": false,
          "internalType": "uint256",
          "name": "oldQuorumNumerator",
          "type": "uint256"
        },
        {
          "indexed": false,
          "internalType": "uint256",
          "name": "newQuorumNumerator",
          "type": "uint256"
        }
      ],
      "name": "QuorumNumeratorUpdated",
      "type": "event"
    },
    {
      "anonymous": false,
      "inputs": [
        {
          "indexed": false,
          "internalType": "address",
          "name": "oldTimelock",
          "type": "address"
        },
        {
          "indexed": false,
          "internalType": "address",
          "name": "newTimelock",
          "type": "address"
        }
      ],
      "name": "TimelockChange",
      "type": "event"
    },
    {
      "anonymous": false,
      "inputs": [
        {
          "indexed": true,
          "internalType": "address",
          "name": "voter",
          "type": "address"
        },
        {
          "indexed": false,
          "internalType": "uint256",
          "name": "proposalId",
          "type": "uint256"
        },
        {
          "indexed": false,
          "internalType": "uint8",
          "name": "support",
          "type": "uint8"
        },
        {
          "indexed": false,
          "internalType": "uint256",
          "name": "weight",
          "type": "uint256"
        },
        {
          "indexed": false,
          "internalType": "string",
          "name": "reason",
          "type": "string"
        }
      ],
      "name": "VoteCast",
      "type": "event"
    },
    {
      "anonymous": false,
      "inputs": [
        {
          "indexed": true,
          "internalType": "address",
          "name": "voter",
          "type": "address"
        },
        {
          "indexed": false,
          "internalType": "uint256",
          "name": "proposalId",
          "type": "uint256"
        },
        {
          "indexed": false,
          "internalType": "uint8",
          "name": "support",
          "type": "uint8"
        },
        {
          "indexed": false,
          "internalType": "uint256",
          "name": "weight",
          "type": "uint256"
        },
        {
          "indexed": false,
          "internalType": "string",
          "name": "reason",
          "type": "string"
        },
        {
          "indexed": false,
          "internalType": "bytes",
          "name": "params",
          "type": "bytes"
        }
      ],
      "name": "VoteCastWithParams",
      "type": "event"
    },
    {
      "inputs": [],
      "name": "BALLOT_TYPEHASH",
      "outputs": [
        {
          "internalType": "bytes32",
          "name": "",
          "type": "bytes32"
        }
      ],
      "stateMutability": "view",
      "type": "function"
    },
    {
      "inputs": [],
      "name": "COUNTING_MODE",
      "outputs": [
        {
          "internalType": "string",
          "name": "",
          "type": "string"
        }
      ],
      "stateMutability": "pure",
      "type": "function"
    },
    {
      "inputs": [],
      "name": "EXTENDED_BALLOT_TYPEHASH",
      "outputs": [
        {
          "internalType": "bytes32",
          "name": "",
          "type": "bytes32"
        }
      ],
      "stateMutability": "view",
      "type": "function"
    },
    {
      "inputs": [
        {
          "internalType": "uint256",
          "name": "proposalId",
          "type": "uint256"
        }
      ],
      "name": "cancel",
      "outputs": [],
      "stateMutability": "nonpayable",
      "type": "function"
    },
    {
      "inputs": [
        {
          "internalType": "uint256",
          "name": "proposalId",
          "type": "uint256"
        },
        {
          "internalType": "uint8",
          "name": "support",
          "type": "uint8"
        }
      ],
      "name": "castVote",
      "outputs": [
        {
          "internalType": "uint256",
          "name": "",
          "type": "uint256"
        }
      ],
      "stateMutability": "nonpayable",
      "type": "function"
    },
    {
      "inputs": [
        {
          "internalType": "uint256",
          "name": "proposalId",
          "type": "uint256"
        },
        {
          "internalType": "uint8",
          "name": "support",
          "type": "uint8"
        },
        {
          "internalType": "uint8",
          "name": "v",
          "type": "uint8"
        },
        {
          "internalType": "bytes32",
          "name": "r",
          "type": "bytes32"
        },
        {
          "internalType": "bytes32",
          "name": "s",
          "type": "bytes32"
        }
      ],
      "name": "castVoteBySig",
      "outputs": [
        {
          "internalType": "uint256",
          "name": "",
          "type": "uint256"
        }
      ],
      "stateMutability": "nonpayable",
      "type": "function"
    },
    {
      "inputs": [
        {
          "internalType": "uint256",
          "name": "proposalId",
          "type": "uint256"
        },
        {
          "internalType": "uint8",
          "name": "support",
          "type": "uint8"
        },
        {
          "internalType": "string",
          "name": "reason",
          "type": "string"
        }
      ],
      "name": "castVoteWithReason",
      "outputs": [
        {
          "internalType": "uint256",
          "name": "",
          "type": "uint256"
        }
      ],
      "stateMutability": "nonpayable",
      "type": "function"
    },
    {
      "inputs": [
        {
          "internalType": "uint256",
          "name": "proposalId",
          "type": "uint256"
        },
        {
          "internalType": "uint8",
          "name": "support",
          "type": "uint8"
        },
        {
          "internalType": "string",
          "name": "reason",
          "type": "string"
        },
        {
          "internalType": "bytes",
          "name": "params",
          "type": "bytes"
        }
      ],
      "name": "castVoteWithReasonAndParams",
      "outputs": [
        {
          "internalType": "uint256",
          "name": "",
          "type": "uint256"
        }
      ],
      "stateMutability": "nonpayable",
      "type": "function"
    },
    {
      "inputs": [
        {
          "internalType": "uint256",
          "name": "proposalId",
          "type": "uint256"
        },
        {
          "internalType": "uint8",
          "name": "support",
          "type": "uint8"
        },
        {
          "internalType": "string",
          "name": "reason",
          "type": "string"
        },
        {
          "internalType": "bytes",
          "name": "params",
          "type": "bytes"
        },
        {
          "internalType": "uint8",
          "name": "v",
          "type": "uint8"
        },
        {
          "internalType": "bytes32",
          "name": "r",
          "type": "bytes32"
        },
        {
          "internalType": "bytes32",
          "name": "s",
          "type": "bytes32"
        }
      ],
      "name": "castVoteWithReasonAndParamsBySig",
      "outputs": [
        {
          "internalType": "uint256",
          "name": "",
          "type": "uint256"
        }
      ],
      "stateMutability": "nonpayable",
      "type": "function"
    },
    {
      "inputs": [
        {
          "internalType": "address[]",
          "name": "targets",
          "type": "address[]"
        },
        {
          "internalType": "uint256[]",
          "name": "values",
          "type": "uint256[]"
        },
        {
          "internalType": "bytes[]",
          "name": "calldatas",
          "type": "bytes[]"
        },
        {
          "internalType": "bytes32",
          "name": "descriptionHash",
          "type": "bytes32"
        }
      ],
      "name": "execute",
      "outputs": [
        {
          "internalType": "uint256",
          "name": "",
          "type": "uint256"
        }
      ],
      "stateMutability": "payable",
      "type": "function"
    },
    {
      "inputs": [
        {
          "internalType": "uint256",
          "name": "proposalId",
          "type": "uint256"
        }
      ],
      "name": "execute",
      "outputs": [],
      "stateMutability": "payable",
      "type": "function"
    },
    {
      "inputs": [
        {
          "internalType": "uint256",
          "name": "proposalId",
          "type": "uint256"
        }
      ],
      "name": "getActions",
      "outputs": [
        {
          "internalType": "address[]",
          "name": "targets",
          "type": "address[]"
        },
        {
          "internalType": "uint256[]",
          "name": "values",
          "type": "uint256[]"
        },
        {
          "internalType": "string[]",
          "name": "signatures",
          "type": "string[]"
        },
        {
          "internalType": "bytes[]",
          "name": "calldatas",
          "type": "bytes[]"
        }
      ],
      "stateMutability": "view",
      "type": "function"
    },
    {
      "inputs": [
        {
          "internalType": "uint256",
          "name": "proposalId",
          "type": "uint256"
        },
        {
          "internalType": "address",
          "name": "voter",
          "type": "address"
        }
      ],
      "name": "getReceipt",
      "outputs": [
        {
          "components": [
            {
              "internalType": "bool",
              "name": "hasVoted",
              "type": "bool"
            },
            {
              "internalType": "uint8",
              "name": "support",
              "type": "uint8"
            },
            {
              "internalType": "uint96",
              "name": "votes",
              "type": "uint96"
            }
          ],
          "internalType": "struct IGovernorCompatibilityBravo.Receipt",
          "name": "",
          "type": "tuple"
        }
      ],
      "stateMutability": "view",
      "type": "function"
    },
    {
      "inputs": [
        {
          "internalType": "address",
          "name": "account",
          "type": "address"
        },
        {
          "internalType": "uint256",
          "name": "blockNumber",
          "type": "uint256"
        },
        {
          "internalType": "bytes",
          "name": "params",
          "type": "bytes"
        }
      ],
      "name": "getVotesWithParams",
      "outputs": [
        {
          "internalType": "uint256",
          "name": "",
          "type": "uint256"
        }
      ],
      "stateMutability": "view",
      "type": "function"
    },
    {
      "inputs": [
        {
          "internalType": "uint256",
          "name": "proposalId",
          "type": "uint256"
        },
        {
          "internalType": "address",
          "name": "account",
          "type": "address"
        }
      ],
      "name": "hasVoted",
      "outputs": [
        {
          "internalType": "bool",
          "name": "",
          "type": "bool"
        }
      ],
      "stateMutability": "view",
      "type": "function"
    },
    {
      "inputs": [
        {
          "internalType": "address[]",
          "name": "targets",
          "type": "address[]"
        },
        {
          "internalType": "uint256[]",
          "name": "values",
          "type": "uint256[]"
        },
        {
          "internalType": "bytes[]",
          "name": "calldatas",
          "type": "bytes[]"
        },
        {
          "internalType": "bytes32",
          "name": "descriptionHash",
          "type": "bytes32"
        }
      ],
      "name": "hashProposal",
      "outputs": [
        {
          "internalType": "uint256",
          "name": "",
          "type": "uint256"
        }
      ],
      "stateMutability": "pure",
      "type": "function"
    },
    {
      "inputs": [],
      "name": "name",
      "outputs": [
        {
          "internalType": "string",
          "name": "",
          "type": "string"
        }
      ],
      "stateMutability": "view",
      "type": "function"
    },
    {
      "inputs": [
        {
          "internalType": "address",
          "name": "",
          "type": "address"
        },
        {
          "internalType": "address",
          "name": "",
          "type": "address"
        },
        {
          "internalType": "uint256[]",
          "name": "",
          "type": "uint256[]"
        },
        {
          "internalType": "uint256[]",
          "name": "",
          "type": "uint256[]"
        },
        {
          "internalType": "bytes",
          "name": "",
          "type": "bytes"
        }
      ],
      "name": "onERC1155BatchReceived",
      "outputs": [
        {
          "internalType": "bytes4",
          "name": "",
          "type": "bytes4"
        }
      ],
      "stateMutability": "nonpayable",
      "type": "function"
    },
    {
      "inputs": [
        {
          "internalType": "address",
          "name": "",
          "type": "address"
        },
        {
          "internalType": "address",
          "name": "",
          "type": "address"
        },
        {
          "internalType": "uint256",
          "name": "",
          "type": "uint256"
        },
        {
          "internalType": "uint256",
          "name": "",
          "type": "uint256"
        },
        {
          "internalType": "bytes",
          "name": "",
          "type": "bytes"
        }
      ],
      "name": "onERC1155Received",
      "outputs": [
        {
          "internalType": "bytes4",
          "name": "",
          "type": "bytes4"
        }
      ],
      "stateMutability": "nonpayable",
      "type": "function"
    },
    {
      "inputs": [
        {
          "internalType": "address",
          "name": "",
          "type": "address"
        },
        {
          "internalType": "address",
          "name": "",
          "type": "address"
        },
        {
          "internalType": "uint256",
          "name": "",
          "type": "uint256"
        },
        {
          "internalType": "bytes",
          "name": "",
          "type": "bytes"
        }
      ],
      "name": "onERC721Received",
      "outputs": [
        {
          "internalType": "bytes4",
          "name": "",
          "type": "bytes4"
        }
      ],
      "stateMutability": "nonpayable",
      "type": "function"
    },
    {
      "inputs": [
        {
          "internalType": "uint256",
          "name": "proposalId",
          "type": "uint256"
        }
      ],
      "name": "proposalDeadline",
      "outputs": [
        {
          "internalType": "uint256",
          "name": "",
          "type": "uint256"
        }
      ],
      "stateMutability": "view",
      "type": "function"
    },
    {
      "inputs": [
        {
          "internalType": "uint256",
          "name": "proposalId",
          "type": "uint256"
        }
      ],
      "name": "proposalEta",
      "outputs": [
        {
          "internalType": "uint256",
          "name": "",
          "type": "uint256"
        }
      ],
      "stateMutability": "view",
      "type": "function"
    },
    {
      "inputs": [
        {
          "internalType": "uint256",
          "name": "proposalId",
          "type": "uint256"
        }
      ],
      "name": "proposalSnapshot",
      "outputs": [
        {
          "internalType": "uint256",
          "name": "",
          "type": "uint256"
        }
      ],
      "stateMutability": "view",
      "type": "function"
    },
    {
      "inputs": [
        {
          "internalType": "uint256",
          "name": "proposalId",
          "type": "uint256"
        }
      ],
      "name": "proposals",
      "outputs": [
        {
          "internalType": "uint256",
          "name": "id",
          "type": "uint256"
        },
        {
          "internalType": "address",
          "name": "proposer",
          "type": "address"
        },
        {
          "internalType": "uint256",
          "name": "eta",
          "type": "uint256"
        },
        {
          "internalType": "uint256",
          "name": "startBlock",
          "type": "uint256"
        },
        {
          "internalType": "uint256",
          "name": "endBlock",
          "type": "uint256"
        },
        {
          "internalType": "uint256",
          "name": "forVotes",
          "type": "uint256"
        },
        {
          "internalType": "uint256",
          "name": "againstVotes",
          "type": "uint256"
        },
        {
          "internalType": "uint256",
          "name": "abstainVotes",
          "type": "uint256"
        },
        {
          "internalType": "bool",
          "name": "canceled",
          "type": "bool"
        },
        {
          "internalType": "bool",
          "name": "executed",
          "type": "bool"
        }
      ],
      "stateMutability": "view",
      "type": "function"
    },
    {
      "inputs": [
        {
          "internalType": "address[]",
          "name": "targets",
          "type": "address[]"
        },
        {
          "internalType": "uint256[]",
          "name": "values",
          "type": "uint256[]"
        },
        {
          "internalType": "bytes[]",
          "name": "calldatas",
          "type": "bytes[]"
        },
        {
          "internalType": "bytes32",
          "name": "descriptionHash",
          "type": "bytes32"
        }
      ],
      "name": "queue",
      "outputs": [
        {
          "internalType": "uint256",
          "name": "",
          "type": "uint256"
        }
      ],
      "stateMutability": "nonpayable",
      "type": "function"
    },
    {
      "inputs": [
        {
          "internalType": "uint256",
          "name": "proposalId",
          "type": "uint256"
        }
      ],
      "name": "queue",
      "outputs": [],
      "stateMutability": "nonpayable",
      "type": "function"
    },
    {
      "inputs": [],
      "name": "quorumDenominator",
      "outputs": [
        {
          "internalType": "uint256",
          "name": "",
          "type": "uint256"
        }
      ],
      "stateMutability": "view",
      "type": "function"
    },
    {
      "inputs": [
        {
          "internalType": "uint256",
          "name": "blockNumber",
          "type": "uint256"
        }
      ],
      "name": "quorumNumerator",
      "outputs": [
        {
          "internalType": "uint256",
          "name": "",
          "type": "uint256"
        }
      ],
      "stateMutability": "view",
      "type": "function"
    },
    {
      "inputs": [],
      "name": "quorumNumerator",
      "outputs": [
        {
          "internalType": "uint256",
          "name": "",
          "type": "uint256"
        }
      ],
      "stateMutability": "view",
      "type": "function"
    },
    {
      "inputs": [],
      "name": "quorumVotes",
      "outputs": [
        {
          "internalType": "uint256",
          "name": "",
          "type": "uint256"
        }
      ],
      "stateMutability": "view",
      "type": "function"
    },
    {
      "inputs": [
        {
          "internalType": "address",
          "name": "target",
          "type": "address"
        },
        {
          "internalType": "uint256",
          "name": "value",
          "type": "uint256"
        },
        {
          "internalType": "bytes",
          "name": "data",
          "type": "bytes"
        }
      ],
      "name": "relay",
      "outputs": [],
      "stateMutability": "nonpayable",
      "type": "function"
    },
    {
      "inputs": [],
      "name": "timelock",
      "outputs": [
        {
          "internalType": "address",
          "name": "",
          "type": "address"
        }
      ],
      "stateMutability": "view",
      "type": "function"
    },
    {
      "inputs": [],
      "name": "token",
      "outputs": [
        {
          "internalType": "contract IVotes",
          "name": "",
          "type": "address"
        }
      ],
      "stateMutability": "view",
      "type": "function"
    },
    {
      "inputs": [
        {
          "internalType": "uint256",
          "name": "newQuorumNumerator",
          "type": "uint256"
        }
      ],
      "name": "updateQuorumNumerator",
      "outputs": [],
      "stateMutability": "nonpayable",
      "type": "function"
    },
    {
      "inputs": [
        {
          "internalType": "contract TimelockController",
          "name": "newTimelock",
          "type": "address"
        }
      ],
      "name": "updateTimelock",
      "outputs": [],
      "stateMutability": "nonpayable",
      "type": "function"
    },
    {
      "inputs": [],
      "name": "version",
      "outputs": [
        {
          "internalType": "string",
          "name": "",
          "type": "string"
        }
      ],
      "stateMutability": "view",
      "type": "function"
    },
    {
      "stateMutability": "payable",
      "type": "receive"
    },
    {
      "inputs": [],
      "name": "votingDelay",
      "outputs": [
        {
          "internalType": "uint256",
          "name": "",
          "type": "uint256"
        }
      ],
      "stateMutability": "pure",
      "type": "function"
    },
    {
      "inputs": [],
      "name": "votingPeriod",
      "outputs": [
        {
          "internalType": "uint256",
          "name": "",
          "type": "uint256"
        }
      ],
      "stateMutability": "pure",
      "type": "function"
    },
    {
      "inputs": [],
      "name": "proposalThreshold",
      "outputs": [
        {
          "internalType": "uint256",
          "name": "",
          "type": "uint256"
        }
      ],
      "stateMutability": "pure",
      "type": "function"
    },
    {
      "inputs": [
        {
          "internalType": "uint256",
          "name": "blockNumber",
          "type": "uint256"
        }
      ],
      "name": "quorum",
      "outputs": [
        {
          "internalType": "uint256",
          "name": "",
          "type": "uint256"
        }
      ],
      "stateMutability": "view",
      "type": "function"
    },
    {
      "inputs": [
        {
          "internalType": "address",
          "name": "account",
          "type": "address"
        },
        {
          "internalType": "uint256",
          "name": "blockNumber",
          "type": "uint256"
        }
      ],
      "name": "getVotes",
      "outputs": [
        {
          "internalType": "uint256",
          "name": "",
          "type": "uint256"
        }
      ],
      "stateMutability": "view",
      "type": "function"
    },
    {
      "inputs": [
        {
          "internalType": "uint256",
          "name": "proposalId",
          "type": "uint256"
        }
      ],
      "name": "state",
      "outputs": [
        {
          "internalType": "enum IGovernor.ProposalState",
          "name": "",
          "type": "uint8"
        }
      ],
      "stateMutability": "view",
      "type": "function"
    },
    {
      "inputs": [
        {
          "internalType": "address[]",
          "name": "targets",
          "type": "address[]"
        },
        {
          "internalType": "uint256[]",
          "name": "values",
          "type": "uint256[]"
        },
        {
          "internalType": "bytes[]",
          "name": "calldatas",
          "type": "bytes[]"
        },
        {
          "internalType": "string",
          "name": "description",
          "type": "string"
        }
      ],
      "name": "propose",
      "outputs": [
        {
          "internalType": "uint256",
          "name": "",
          "type": "uint256"
        }
      ],
      "stateMutability": "nonpayable",
      "type": "function"
    },
    {
      "inputs": [
        {
          "internalType": "address[]",
          "name": "targets",
          "type": "address[]"
        },
        {
          "internalType": "uint256[]",
          "name": "values",
          "type": "uint256[]"
        },
        {
          "internalType": "string[]",
          "name": "signatures",
          "type": "string[]"
        },
        {
          "internalType": "bytes[]",
          "name": "calldatas",
          "type": "bytes[]"
        },
        {
          "internalType": "string",
          "name": "description",
          "type": "string"
        }
      ],
      "name": "propose",
      "outputs": [
        {
          "internalType": "uint256",
          "name": "",
          "type": "uint256"
        }
      ],
      "stateMutability": "nonpayable",
      "type": "function"
    },
    {
      "inputs": [
        {
          "internalType": "bytes4",
          "name": "interfaceId",
          "type": "bytes4"
        }
      ],
      "name": "supportsInterface",
      "outputs": [
        {
          "internalType": "bool",
          "name": "",
          "type": "bool"
        }
      ],
      "stateMutability": "view",
      "type": "function"
    }
  ],
  "bytecode": "0x6101606040523480156200001257600080fd5b50604051620098e3380380620098e38339818101604052810190620000389190620009df565b806004836040518060400160405280600c81526020017f44507562476f7665726e6f7200000000000000000000000000000000000000008152508062000083620001b760201b60201c565b60008280519060200120905060008280519060200120905060007f8b73c3c69bb8fe3d512ecc4cf759cc79239f7b179b0ffacaa9a75d522b39400f90508260e081815250508161010081815250504660a08181525050620000ec818484620001f460201b60201c565b608081815250503073ffffffffffffffffffffffffffffffffffffffff1660c08173ffffffffffffffffffffffffffffffffffffffff1660601b81525050806101208181525050505050505080600090805190602001906200015092919062000901565b50508073ffffffffffffffffffffffffffffffffffffffff166101408173ffffffffffffffffffffffffffffffffffffffff1660601b81525050506200019c816200023060201b60201c565b50620001ae816200040f60201b60201c565b50505062000e90565b60606040518060400160405280600181526020017f3100000000000000000000000000000000000000000000000000000000000000815250905090565b600083838346306040516020016200021195949392919062000af5565b6040516020818303038152906040528051906020012090509392505050565b62000240620004b060201b60201c565b81111562000285576040517f08c379a00000000000000000000000000000000000000000000000000000000081526004016200027c9062000b52565b60405180910390fd5b600062000297620004b960201b60201c565b905060008114158015620002b357506000600660000180549050145b15620003b35760066000016040518060400160405280600063ffffffff168152602001620002ec84620004f160201b62002bcc1760201c565b7bffffffffffffffffffffffffffffffffffffffffffffffffffffffff168152509080600181540180825580915050600190039060005260206000200160009091909190915060008201518160000160006101000a81548163ffffffff021916908363ffffffff16021790555060208201518160000160046101000a8154817bffffffffffffffffffffffffffffffffffffffffffffffffffffffff02191690837bffffffffffffffffffffffffffffffffffffffffffffffffffffffff16021790555050505b620003ce8260066200055f60201b62002c371790919060201c565b50507f0553476bf02ef2726e8ce5ced78d63e26e602e4a2257b1f559418e24b463399781836040516200040392919062000bb8565b60405180910390a15050565b7f08f74ea46ef7894f65eabfb5e6e695de773a000b47c529ab559178069b226401600760009054906101000a900473ffffffffffffffffffffffffffffffffffffffff16826040516200046492919062000ac8565b60405180910390a180600760006101000a81548173ffffffffffffffffffffffffffffffffffffffff021916908373ffffffffffffffffffffffffffffffffffffffff16021790555050565b60006064905090565b60008060066000018054905014620004e857620004e26006620007e560201b62002e851760201c565b620004ec565b6005545b905090565b60007bffffffffffffffffffffffffffffffffffffffffffffffffffffffff801682111562000557576040517f08c379a00000000000000000000000000000000000000000000000000000000081526004016200054e9062000b74565b60405180910390fd5b819050919050565b60008060008460000180549050905060006200058186620007e560201b60201c565b90506000821180156200060157504386600001600184620005a3919062000bf6565b81548110620005db577f4e487b7100000000000000000000000000000000000000000000000000000000600052603260045260246000fd5b9060005260206000200160000160009054906101000a900463ffffffff1663ffffffff16145b15620006c9576200061d85620004f160201b62002bcc1760201c565b8660000160018462000630919062000bf6565b8154811062000668577f4e487b7100000000000000000000000000000000000000000000000000000000600052603260045260246000fd5b9060005260206000200160000160046101000a8154817bffffffffffffffffffffffffffffffffffffffffffffffffffffffff02191690837bffffffffffffffffffffffffffffffffffffffffffffffffffffffff160217905550620007d6565b856000016040518060400160405280620006ee43620008ab60201b62002f461760201c565b63ffffffff1681526020016200070f88620004f160201b62002bcc1760201c565b7bffffffffffffffffffffffffffffffffffffffffffffffffffffffff168152509080600181540180825580915050600190039060005260206000200160009091909190915060008201518160000160006101000a81548163ffffffff021916908363ffffffff16021790555060208201518160000160046101000a8154817bffffffffffffffffffffffffffffffffffffffffffffffffffffffff02191690837bffffffffffffffffffffffffffffffffffffffffffffffffffffffff16021790555050505b80859350935050509250929050565b60008082600001805490509050600081146200088257826000016001826200080e919062000bf6565b8154811062000846577f4e487b7100000000000000000000000000000000000000000000000000000000600052603260045260246000fd5b9060005260206000200160000160049054906101000a90047bffffffffffffffffffffffffffffffffffffffffffffffffffffffff1662000885565b60005b7bffffffffffffffffffffffffffffffffffffffffffffffffffffffff16915050919050565b600063ffffffff8016821115620008f9576040517f08c379a0000000000000000000000000000000000000000000000000000000008152600401620008f09062000b96565b60405180910390fd5b819050919050565b8280546200090f9062000cb5565b90600052602060002090601f0160209004810192826200093357600085556200097f565b82601f106200094e57805160ff19168380011785556200097f565b828001600101855582156200097f579182015b828111156200097e57825182559160200191906001019062000961565b5b5090506200098e919062000992565b5090565b5b80821115620009ad57600081600090555060010162000993565b5090565b600081519050620009c28162000e5c565b92915050565b600081519050620009d98162000e76565b92915050565b60008060408385031215620009f357600080fd5b600062000a0385828601620009b1565b925050602062000a1685828601620009c8565b9150509250929050565b62000a2b8162000c31565b82525050565b62000a3c8162000c59565b82525050565b600062000a5160438362000be5565b915062000a5e8262000d49565b606082019050919050565b600062000a7860278362000be5565b915062000a858262000dbe565b604082019050919050565b600062000a9f60268362000be5565b915062000aac8262000e0d565b604082019050919050565b62000ac28162000cab565b82525050565b600060408201905062000adf600083018562000a20565b62000aee602083018462000a20565b9392505050565b600060a08201905062000b0c600083018862000a31565b62000b1b602083018762000a31565b62000b2a604083018662000a31565b62000b39606083018562000ab7565b62000b48608083018462000a20565b9695505050505050565b6000602082019050818103600083015262000b6d8162000a42565b9050919050565b6000602082019050818103600083015262000b8f8162000a69565b9050919050565b6000602082019050818103600083015262000bb18162000a90565b9050919050565b600060408201905062000bcf600083018562000ab7565b62000bde602083018462000ab7565b9392505050565b600082825260208201905092915050565b600062000c038262000cab565b915062000c108362000cab565b92508282101562000c265762000c2562000ceb565b5b828203905092915050565b600062000c3e8262000c8b565b9050919050565b600062000c528262000c8b565b9050919050565b6000819050919050565b600062000c708262000c31565b9050919050565b600062000c848262000c45565b9050919050565b600073ffffffffffffffffffffffffffffffffffffffff82169050919050565b6000819050919050565b6000600282049050600182168062000cce57607f821691505b6020821081141562000ce55762000ce462000d1a565b5b50919050565b7f4e487b7100000000000000000000000000000000000000000000000000000000600052601160045260246000fd5b7f4e487b7100000000000000000000000000000000000000000000000000000000600052602260045260246000fd5b7f476f7665726e6f72566f74657351756f72756d4672616374696f6e3a2071756f60008201527f72756d4e756d657261746f72206f7665722071756f72756d44656e6f6d696e6160208201527f746f720000000000000000000000000000000000000000000000000000000000604082015250565b7f53616665436173743a2076616c756520646f65736e27742066697420696e203260008201527f3234206269747300000000000000000000000000000000000000000000000000602082015250565b7f53616665436173743a2076616c756520646f65736e27742066697420696e203360008201527f3220626974730000000000000000000000000000000000000000000000000000602082015250565b62000e678162000c63565b811462000e7357600080fd5b50565b62000e818162000c77565b811462000e8d57600080fd5b50565b60805160a05160c05160601c60e05161010051610120516101405160601c6189e462000eff600039600081816128f501528181613dbc0152614074015260006143490152600061438b0152600061436a0152600061429f015260006142f50152600061431e01526189e46000f3fe6080604052600436106102765760003560e01c80637b3c71d31161014f578063c59057e4116100c1578063e23a9a521161007a578063e23a9a5214610acf578063eb9019d414610b0c578063f23a6e6114610b49578063f8ce560a14610b86578063fc0c546a14610bc3578063fe0d94c114610bee576102bc565b8063c59057e4146109ab578063d33219b4146109e8578063da95691a14610a13578063dd4e2ba514610a50578063ddf0b00914610a7b578063deaaa7cc14610aa4576102bc565b8063a890c91011610113578063a890c91014610877578063ab58fb8e146108a0578063b58131b0146108dd578063bc197c8114610908578063c01f9e3714610945578063c28bc2fa14610982576102bc565b80637b3c71d31461076a5780637d5e81e2146107a757806397c3d334146107e45780639a802a6d1461080f578063a7713a701461084c576102bc565b80632fe3e261116101e857806340e58ee5116101ac57806340e58ee514610622578063438596321461064b57806354fd4d501461068857806356781388146106b35780635f398a14146106f057806360c4247f1461072d576102bc565b80632fe3e26114610512578063328dd9821461053d5780633932abb11461057d5780633bccf4fd146105a85780633e4f49e6146105e5576102bc565b806306fdde031161023a57806306fdde03146103d5578063150b7a0214610400578063160cbed71461043d57806324bc1a641461047a5780632656227d146104a55780632d63f693146104d5576102bc565b8063013cf08b146102c157806301ffc9a71461030757806302a251a314610344578063034201811461036f57806306f3f9e6146103ac576102bc565b366102bc573073ffffffffffffffffffffffffffffffffffffffff1661029a610c0a565b73ffffffffffffffffffffffffffffffffffffffff16146102ba57600080fd5b005b600080fd5b3480156102cd57600080fd5b506102e860048036038101906102e39190616643565b610c19565b6040516102fe9a99989796959493929190617994565b60405180910390f35b34801561031357600080fd5b5061032e600480360381019061032991906165f1565b610da6565b60405161033b91906173e3565b60405180910390f35b34801561035057600080fd5b50610359610db8565b60405161036691906178c9565b60405180910390f35b34801561037b57600080fd5b5061039660048036038101906103919190616811565b610dc2565b6040516103a391906178c9565b60405180910390f35b3480156103b857600080fd5b506103d360048036038101906103ce9190616643565b610ea7565b005b3480156103e157600080fd5b506103ea610fa3565b6040516103f7919061758c565b60405180910390f35b34801561040c57600080fd5b5061042760048036038101906104229190616129565b611035565b604051610434919061753b565b60405180910390f35b34801561044957600080fd5b50610464600480360381019061045f9190616342565b611049565b60405161047191906178c9565b60405180910390f35b34801561048657600080fd5b5061048f61136d565b60405161049c91906178c9565b60405180910390f35b6104bf60048036038101906104ba9190616342565b611389565b6040516104cc91906178c9565b60405180910390f35b3480156104e157600080fd5b506104fc60048036038101906104f79190616643565b61156e565b60405161050991906178c9565b60405180910390f35b34801561051e57600080fd5b506105276115dc565b60405161053491906173fe565b60405180910390f35b34801561054957600080fd5b50610564600480360381019061055f9190616643565b611600565b6040516105749493929190617382565b60405180910390f35b34801561058957600080fd5b506105926118bd565b60405161059f91906178c9565b60405180910390f35b3480156105b457600080fd5b506105cf60048036038101906105ca91906168e3565b6118c6565b6040516105dc91906178c9565b60405180910390f35b3480156105f157600080fd5b5061060c60048036038101906106079190616643565b611950565b6040516106199190617571565b60405180910390f35b34801561062e57600080fd5b5061064960048036038101906106449190616643565b611962565b005b34801561065757600080fd5b50610672600480360381019061066d9190616695565b611cfa565b60405161067f91906173e3565b60405180910390f35b34801561069457600080fd5b5061069d611d68565b6040516106aa919061758c565b60405180910390f35b3480156106bf57600080fd5b506106da60048036038101906106d591906166d1565b611da5565b6040516106e791906178c9565b60405180910390f35b3480156106fc57600080fd5b5061071760048036038101906107129190616779565b611dd6565b60405161072491906178c9565b60405180910390f35b34801561073957600080fd5b50610754600480360381019061074f9190616643565b611e40565b60405161076191906178c9565b60405180910390f35b34801561077657600080fd5b50610791600480360381019061078c919061670d565b611fb3565b60405161079e91906178c9565b60405180910390f35b3480156107b357600080fd5b506107ce60048036038101906107c991906163ed565b61201b565b6040516107db91906178c9565b60405180910390f35b3480156107f057600080fd5b506107f9612033565b60405161080691906178c9565b60405180910390f35b34801561081b57600080fd5b50610836600480360381019061083191906162db565b61203c565b60405161084391906178c9565b60405180910390f35b34801561085857600080fd5b50610861612052565b60405161086e91906178c9565b60405180910390f35b34801561088357600080fd5b5061089e6004803603810190610899919061661a565b61207b565b005b3480156108ac57600080fd5b506108c760048036038101906108c29190616643565b612177565b6040516108d491906178c9565b60405180910390f35b3480156108e957600080fd5b506108f2612253565b6040516108ff91906178c9565b60405180910390f35b34801561091457600080fd5b5061092f600480360381019061092a919061606a565b612258565b60405161093c919061753b565b60405180910390f35b34801561095157600080fd5b5061096c60048036038101906109679190616643565b61226d565b60405161097991906178c9565b60405180910390f35b34801561098e57600080fd5b506109a960048036038101906109a4919061626f565b6122db565b005b3480156109b757600080fd5b506109d260048036038101906109cd9190616342565b612421565b6040516109df91906178c9565b60405180910390f35b3480156109f457600080fd5b506109fd61245d565b604051610a0a91906171dd565b60405180910390f35b348015610a1f57600080fd5b50610a3a6004803603810190610a3591906164b0565b612487565b604051610a4791906178c9565b60405180910390f35b348015610a5c57600080fd5b50610a656124be565b604051610a72919061758c565b60405180910390f35b348015610a8757600080fd5b50610aa26004803603810190610a9d9190616643565b6124fb565b005b348015610ab057600080fd5b50610ab96127b0565b604051610ac691906173fe565b60405180910390f35b348015610adb57600080fd5b50610af66004803603810190610af19190616695565b6127d4565b604051610b0391906178ae565b60405180910390f35b348015610b1857600080fd5b50610b336004803603810190610b2e9190616233565b6128b8565b604051610b4091906178c9565b60405180910390f35b348015610b5557600080fd5b50610b706004803603810190610b6b91906161a4565b6128cc565b604051610b7d919061753b565b60405180910390f35b348015610b9257600080fd5b50610bad6004803603810190610ba89190616643565b6128e1565b604051610bba91906178c9565b60405180910390f35b348015610bcf57600080fd5b50610bd86128f3565b604051610be59190617556565b60405180910390f35b610c086004803603810190610c039190616643565b612917565b005b6000610c14612f99565b905090565b6000806000806000806000806000808a9950610c348b612177565b9750610c3f8b61156e565b9650610c4a8b61226d565b95506000600460008d815260200190815260200160002090508060000160009054906101000a900473ffffffffffffffffffffffffffffffffffffffff1699508060050154955080600601549450806007015493506000610caa8d611950565b905060026007811115610ce6577f4e487b7100000000000000000000000000000000000000000000000000000000600052602160045260246000fd5b816007811115610d1f577f4e487b7100000000000000000000000000000000000000000000000000000000600052602160045260246000fd5b149350600780811115610d5b577f4e487b7100000000000000000000000000000000000000000000000000000000600052602160045260246000fd5b816007811115610d94577f4e487b7100000000000000000000000000000000000000000000000000000000600052602160045260246000fd5b14925050509193959799509193959799565b6000610db182612fc3565b9050919050565b600061b2fa905090565b600080610e45610e3d7fb3b3f3b703cd84ce352197dcff232b1b5d3cfb2025ce47cf04742d0651f1af888c8c8c8c604051610dfe929190617176565b60405180910390208b80519060200120604051602001610e229594939291906174a3565b6040516020818303038152906040528051906020012061303d565b868686613057565b9050610e988a828b8b8b8080601f016020809104026020016040519081016040528093929190818152602001838380828437600081840152601f19601f820116905080830192505050505050508a613082565b91505098975050505050505050565b610eaf610c0a565b73ffffffffffffffffffffffffffffffffffffffff16610ecd61328b565b73ffffffffffffffffffffffffffffffffffffffff1614610f23576040517f08c379a0000000000000000000000000000000000000000000000000000000008152600401610f1a906175ce565b60405180910390fd5b3073ffffffffffffffffffffffffffffffffffffffff16610f42610c0a565b73ffffffffffffffffffffffffffffffffffffffff1614610f97576000610f67613293565b604051610f75929190617176565b604051809103902090505b80610f8b60026132a0565b14610f9557610f80565b505b610fa08161337c565b50565b606060008054610fb290618080565b80601f0160208091040260200160405190810160405280929190818152602001828054610fde90618080565b801561102b5780601f106110005761010080835404028352916020019161102b565b820191906000526020600020905b81548152906001019060200180831161100e57829003601f168201915b5050505050905090565b600063150b7a0260e01b9050949350505050565b60008061105886868686612421565b905060046007811115611094577f4e487b7100000000000000000000000000000000000000000000000000000000600052602160045260246000fd5b61109d82611950565b60078111156110d5577f4e487b7100000000000000000000000000000000000000000000000000000000600052602160045260246000fd5b14611115576040517f08c379a000000000000000000000000000000000000000000000000000000000815260040161110c9061778e565b60405180910390fd5b6000600760009054906101000a900473ffffffffffffffffffffffffffffffffffffffff1673ffffffffffffffffffffffffffffffffffffffff1663f27a0c926040518163ffffffff1660e01b815260040160206040518083038186803b15801561117f57600080fd5b505afa158015611193573d6000803e3d6000fd5b505050506040513d601f19601f820116820180604052508101906111b7919061666c565b9050600760009054906101000a900473ffffffffffffffffffffffffffffffffffffffff1673ffffffffffffffffffffffffffffffffffffffff1663b1c5f4278888886000896040518663ffffffff1660e01b815260040161121d9594939291906172a4565b60206040518083038186803b15801561123557600080fd5b505afa158015611249573d6000803e3d6000fd5b505050506040513d601f19601f8201168201806040525081019061126d91906165c8565b6008600084815260200190815260200160002081905550600760009054906101000a900473ffffffffffffffffffffffffffffffffffffffff1673ffffffffffffffffffffffffffffffffffffffff16638f2a0bb0888888600089876040518763ffffffff1660e01b81526004016112ea9695949392919061730c565b600060405180830381600087803b15801561130457600080fd5b505af1158015611318573d6000803e3d6000fd5b505050507f9a2e42fd6722813d69113e7d0079d3d940171428df7373df9c7f7617cfda289282824261134a9190617d91565b604051611358929190617a30565b60405180910390a18192505050949350505050565b600061138460014361137f9190617eb0565b6128e1565b905090565b60008061139886868686612421565b905060006113a582611950565b9050600460078111156113e1577f4e487b7100000000000000000000000000000000000000000000000000000000600052602160045260246000fd5b81600781111561141a577f4e487b7100000000000000000000000000000000000000000000000000000000600052602160045260246000fd5b148061149657506005600781111561145b577f4e487b7100000000000000000000000000000000000000000000000000000000600052602160045260246000fd5b816007811115611494577f4e487b7100000000000000000000000000000000000000000000000000000000600052602160045260246000fd5b145b6114d5576040517f08c379a00000000000000000000000000000000000000000000000000000000081526004016114cc9061778e565b60405180910390fd5b600180600084815260200190815260200160002060020160006101000a81548160ff0219169083151502179055507f712ae1383f79ac853f8d882153778e0260ef8f03b504e2866e0593e04d2b291f8260405161153291906178c9565b60405180910390a16115478288888888613530565b6115548288888888613660565b6115618288888888613674565b8192505050949350505050565b60006115cb600160008481526020019081526020016000206000016040518060200160405290816000820160009054906101000a900467ffffffffffffffff1667ffffffffffffffff1667ffffffffffffffff16815250506136cf565b67ffffffffffffffff169050919050565b7fb3b3f3b703cd84ce352197dcff232b1b5d3cfb2025ce47cf04742d0651f1af8881565b606080606080600060046000878152602001908152602001600020905080600101816002018260030183600401838054806020026020016040519081016040528092919081815260200182805480156116ae57602002820191906000526020600020905b8160009054906101000a900473ffffffffffffffffffffffffffffffffffffffff1673ffffffffffffffffffffffffffffffffffffffff1681526020019060010190808311611664575b505050505093508280548060200260200160405190810160405280929190818152602001828054801561170057602002820191906000526020600020905b8154815260200190600101908083116116ec575b5050505050925081805480602002602001604051908101604052809291908181526020016000905b828210156117d457838290600052602060002001805461174790618080565b80601f016020809104026020016040519081016040528092919081815260200182805461177390618080565b80156117c05780601f10611795576101008083540402835291602001916117c0565b820191906000526020600020905b8154815290600101906020018083116117a357829003601f168201915b505050505081526020019060010190611728565b50505050915080805480602002602001604051908101604052809291908181526020016000905b828210156118a757838290600052602060002001805461181a90618080565b80601f016020809104026020016040519081016040528092919081815260200182805461184690618080565b80156118935780601f1061186857610100808354040283529160200191611893565b820191906000526020600020905b81548152906001019060200180831161187657829003601f168201915b5050505050815260200190600101906117fb565b5050505090509450945094509450509193509193565b60006001905090565b60008061192761191f7f150214d74d59b7d1e90c73fc22ef3d991dd0a76b046543d4d80ab92d2a50328f89896040516020016119049392919061746c565b6040516020818303038152906040528051906020012061303d565b868686613057565b9050611944878288604051806020016040528060008152506136dd565b91505095945050505050565b600061195b826136fd565b9050919050565b60006004600083815260200190815260200160002090508060000160009054906101000a900473ffffffffffffffffffffffffffffffffffffffff1673ffffffffffffffffffffffffffffffffffffffff166119bc61328b565b73ffffffffffffffffffffffffffffffffffffffff161480611a1d57506119e1612253565b611a1b8260000160009054906101000a900473ffffffffffffffffffffffffffffffffffffffff16600143611a169190617eb0565b6128b8565b105b611a5c576040517f08c379a0000000000000000000000000000000000000000000000000000000008152600401611a539061784e565b60405180910390fd5b611cf581600101805480602002602001604051908101604052809291908181526020018280548015611ae357602002820191906000526020600020905b8160009054906101000a900473ffffffffffffffffffffffffffffffffffffffff1673ffffffffffffffffffffffffffffffffffffffff1681526020019060010190808311611a99575b505050505082600201805480602002602001604051908101604052809291908181526020018280548015611b3657602002820191906000526020600020905b815481526020019060010190808311611b22575b5050505050611ceb84600301805480602002602001604051908101604052809291908181526020016000905b82821015611c0e578382906000526020600020018054611b8190618080565b80601f0160208091040260200160405190810160405280929190818152602001828054611bad90618080565b8015611bfa5780601f10611bcf57610100808354040283529160200191611bfa565b820191906000526020600020905b815481529060010190602001808311611bdd57829003601f168201915b505050505081526020019060010190611b62565b5050505085600401805480602002602001604051908101604052809291908181526020016000905b82821015611ce2578382906000526020600020018054611c5590618080565b80601f0160208091040260200160405190810160405280929190818152602001828054611c8190618080565b8015611cce5780601f10611ca357610100808354040283529160200191611cce565b820191906000526020600020905b815481529060010190602001808311611cb157829003601f168201915b505050505081526020019060010190611c36565b5050505061393b565b8460090154613b5b565b505050565b60006004600084815260200190815260200160002060080160008373ffffffffffffffffffffffffffffffffffffffff1673ffffffffffffffffffffffffffffffffffffffff16815260200190815260200160002060000160009054906101000a900460ff16905092915050565b60606040518060400160405280600181526020017f3100000000000000000000000000000000000000000000000000000000000000815250905090565b600080611db061328b565b9050611dcd848285604051806020016040528060008152506136dd565b91505092915050565b600080611de161328b565b9050611e3487828888888080601f016020809104026020016040519081016040528093929190818152602001838380828437600081840152601f19601f8201169050808301925050505050505087613082565b91505095945050505050565b60008060066000018054905090506000811415611e6257600554915050611fae565b60006006600001600183611e769190617eb0565b81548110611ead577f4e487b7100000000000000000000000000000000000000000000000000000000600052603260045260246000fd5b906000526020600020016040518060400160405290816000820160009054906101000a900463ffffffff1663ffffffff1663ffffffff1681526020016000820160049054906101000a90047bffffffffffffffffffffffffffffffffffffffffffffffffffffffff167bffffffffffffffffffffffffffffffffffffffffffffffffffffffff167bffffffffffffffffffffffffffffffffffffffffffffffffffffffff1681525050905083816000015163ffffffff1611611f955780602001517bffffffffffffffffffffffffffffffffffffffffffffffffffffffff1692505050611fae565b611fa9846006613b7390919063ffffffff16565b925050505b919050565b600080611fbe61328b565b905061201086828787878080601f016020809104026020016040519081016040528093929190818152602001838380828437600081840152601f19601f820116905080830192505050505050506136dd565b915050949350505050565b600061202985858585613d17565b9050949350505050565b60006064905090565b6000612049848484613db8565b90509392505050565b600080600660000180549050146120725761206d6006612e85565b612076565b6005545b905090565b612083610c0a565b73ffffffffffffffffffffffffffffffffffffffff166120a161328b565b73ffffffffffffffffffffffffffffffffffffffff16146120f7576040517f08c379a00000000000000000000000000000000000000000000000000000000081526004016120ee906175ce565b60405180910390fd5b3073ffffffffffffffffffffffffffffffffffffffff16612116610c0a565b73ffffffffffffffffffffffffffffffffffffffff161461216b57600061213b613293565b604051612149929190617176565b604051809103902090505b8061215f60026132a0565b1461216957612154565b505b61217481613e6e565b50565b600080600760009054906101000a900473ffffffffffffffffffffffffffffffffffffffff1673ffffffffffffffffffffffffffffffffffffffff1663d45c443560086000868152602001908152602001600020546040518263ffffffff1660e01b81526004016121e891906173fe565b60206040518083038186803b15801561220057600080fd5b505afa158015612214573d6000803e3d6000fd5b505050506040513d601f19601f82011682018060405250810190612238919061666c565b905060018114612248578061224b565b60005b915050919050565b600090565b600063bc197c8160e01b905095945050505050565b60006122ca600160008481526020019081526020016000206001016040518060200160405290816000820160009054906101000a900467ffffffffffffffff1667ffffffffffffffff1667ffffffffffffffff16815250506136cf565b67ffffffffffffffff169050919050565b6122e3610c0a565b73ffffffffffffffffffffffffffffffffffffffff1661230161328b565b73ffffffffffffffffffffffffffffffffffffffff1614612357576040517f08c379a000000000000000000000000000000000000000000000000000000000815260040161234e906175ce565b60405180910390fd5b3073ffffffffffffffffffffffffffffffffffffffff16612376610c0a565b73ffffffffffffffffffffffffffffffffffffffff16146123cb57600061239b613293565b6040516123a9929190617176565b604051809103902090505b806123bf60026132a0565b146123c9576123b4565b505b61241a8483838080601f016020809104026020016040519081016040528093929190818152602001838380828437600081840152601f19601f8201169050808301925050505050505085613f0d565b5050505050565b60008484848460405160200161243a949392919061724a565b6040516020818303038152906040528051906020012060001c9050949350505050565b6000600760009054906101000a900473ffffffffffffffffffffffffffffffffffffffff16905090565b600061249e61249461328b565b8787878787613f3c565b6124b386866124ad878761393b565b8561201b565b905095945050505050565b60606040518060400160405280601a81526020017f737570706f72743d627261766f2671756f72756d3d627261766f000000000000815250905090565b60006004600083815260200190815260200160002090506127ab8160010180548060200260200160405190810160405280929190818152602001828054801561259957602002820191906000526020600020905b8160009054906101000a900473ffffffffffffffffffffffffffffffffffffffff1673ffffffffffffffffffffffffffffffffffffffff168152602001906001019080831161254f575b5050505050826002018054806020026020016040519081016040528092919081815260200182805480156125ec57602002820191906000526020600020905b8154815260200190600101908083116125d8575b50505050506127a184600301805480602002602001604051908101604052809291908181526020016000905b828210156126c457838290600052602060002001805461263790618080565b80601f016020809104026020016040519081016040528092919081815260200182805461266390618080565b80156126b05780601f10612685576101008083540402835291602001916126b0565b820191906000526020600020905b81548152906001019060200180831161269357829003601f168201915b505050505081526020019060010190612618565b5050505085600401805480602002602001604051908101604052809291908181526020016000905b8282101561279857838290600052602060002001805461270b90618080565b80601f016020809104026020016040519081016040528092919081815260200182805461273790618080565b80156127845780601f1061275957610100808354040283529160200191612784565b820191906000526020600020905b81548152906001019060200180831161276757829003601f168201915b5050505050815260200190600101906126ec565b5050505061393b565b8460090154611049565b505050565b7f150214d74d59b7d1e90c73fc22ef3d991dd0a76b046543d4d80ab92d2a50328f81565b6127dc615801565b6004600084815260200190815260200160002060080160008373ffffffffffffffffffffffffffffffffffffffff1673ffffffffffffffffffffffffffffffffffffffff1681526020019081526020016000206040518060600160405290816000820160009054906101000a900460ff161515151581526020016000820160019054906101000a900460ff1660ff1660ff1681526020016000820160029054906101000a90046bffffffffffffffffffffffff166bffffffffffffffffffffffff166bffffffffffffffffffffffff1681525050905092915050565b60006128c48383614043565b905092915050565b600063f23a6e6160e01b905095945050505050565b60006128ec8261405f565b9050919050565b7f000000000000000000000000000000000000000000000000000000000000000081565b6000600460008381526020019081526020016000209050612bc7816001018054806020026020016040519081016040528092919081815260200182805480156129b557602002820191906000526020600020905b8160009054906101000a900473ffffffffffffffffffffffffffffffffffffffff1673ffffffffffffffffffffffffffffffffffffffff168152602001906001019080831161296b575b505050505082600201805480602002602001604051908101604052809291908181526020018280548015612a0857602002820191906000526020600020905b8154815260200190600101908083116129f4575b5050505050612bbd84600301805480602002602001604051908101604052809291908181526020016000905b82821015612ae0578382906000526020600020018054612a5390618080565b80601f0160208091040260200160405190810160405280929190818152602001828054612a7f90618080565b8015612acc5780601f10612aa157610100808354040283529160200191612acc565b820191906000526020600020905b815481529060010190602001808311612aaf57829003601f168201915b505050505081526020019060010190612a34565b5050505085600401805480602002602001604051908101604052809291908181526020016000905b82821015612bb4578382906000526020600020018054612b2790618080565b80601f0160208091040260200160405190810160405280929190818152602001828054612b5390618080565b8015612ba05780601f10612b7557610100808354040283529160200191612ba0565b820191906000526020600020905b815481529060010190602001808311612b8357829003601f168201915b505050505081526020019060010190612b08565b5050505061393b565b8460090154611389565b505050565b60007bffffffffffffffffffffffffffffffffffffffffffffffffffffffff8016821115612c2f576040517f08c379a0000000000000000000000000000000000000000000000000000000008152600401612c269061774e565b60405180910390fd5b819050919050565b6000806000846000018054905090506000612c5186612e85565b9050600082118015612ccd57504386600001600184612c709190617eb0565b81548110612ca7577f4e487b7100000000000000000000000000000000000000000000000000000000600052603260045260246000fd5b9060005260206000200160000160009054906101000a900463ffffffff1663ffffffff16145b15612d8357612cdb85612bcc565b86600001600184612cec9190617eb0565b81548110612d23577f4e487b7100000000000000000000000000000000000000000000000000000000600052603260045260246000fd5b9060005260206000200160000160046101000a8154817bffffffffffffffffffffffffffffffffffffffffffffffffffffffff02191690837bffffffffffffffffffffffffffffffffffffffffffffffffffffffff160217905550612e76565b856000016040518060400160405280612d9b43612f46565b63ffffffff168152602001612daf88612bcc565b7bffffffffffffffffffffffffffffffffffffffffffffffffffffffff168152509080600181540180825580915050600190039060005260206000200160009091909190915060008201518160000160006101000a81548163ffffffff021916908363ffffffff16021790555060208201518160000160046101000a8154817bffffffffffffffffffffffffffffffffffffffffffffffffffffffff02191690837bffffffffffffffffffffffffffffffffffffffffffffffffffffffff16021790555050505b80859350935050509250929050565b6000808260000180549050905060008114612f1d5782600001600182612eab9190617eb0565b81548110612ee2577f4e487b7100000000000000000000000000000000000000000000000000000000600052603260045260246000fd5b9060005260206000200160000160049054906101000a90047bffffffffffffffffffffffffffffffffffffffffffffffffffffffff16612f20565b60005b7bffffffffffffffffffffffffffffffffffffffffffffffffffffffff16915050919050565b600063ffffffff8016821115612f91576040517f08c379a0000000000000000000000000000000000000000000000000000000008152600401612f889061780e565b60405180910390fd5b819050919050565b6000600760009054906101000a900473ffffffffffffffffffffffffffffffffffffffff16905090565b60007f6e665ced000000000000000000000000000000000000000000000000000000007bffffffffffffffffffffffffffffffffffffffffffffffffffffffff1916827bffffffffffffffffffffffffffffffffffffffffffffffffffffffff19161480613036575061303582614136565b5b9050919050565b600061305061304a61429b565b836143b5565b9050919050565b6000806000613068878787876143e8565b91509150613075816144f5565b8192505050949350505050565b600080600160008881526020019081526020016000209050600160078111156130d4577f4e487b7100000000000000000000000000000000000000000000000000000000600052602160045260246000fd5b6130dd88611950565b6007811115613115577f4e487b7100000000000000000000000000000000000000000000000000000000600052602160045260246000fd5b14613155576040517f08c379a000000000000000000000000000000000000000000000000000000000815260040161314c906176ae565b60405180910390fd5b60006131b4876131a4846000016040518060200160405290816000820160009054906101000a900467ffffffffffffffff1667ffffffffffffffff1667ffffffffffffffff16815250506136cf565b67ffffffffffffffff1686613db8565b90506131c38888888488614846565b600084511415613226578673ffffffffffffffffffffffffffffffffffffffff167fb8e138887d0aa13bab447e82de9d5c1777041ecd21ca36ba824ff1e6c07ddda4898884896040516132199493929190617a59565b60405180910390a261327d565b8673ffffffffffffffffffffffffffffffffffffffff167fe2babfbac5889a709b63bb7f598b324e08bc5a4fb9ec647fb3cbc9ec07eb87128988848989604051613274959493929190617aa5565b60405180910390a25b809250505095945050505050565b600033905090565b3660008036915091509091565b60006132ab82614ae3565b156132e2576040517f3db2a12a00000000000000000000000000000000000000000000000000000000815260040160405180910390fd5b60008260000160009054906101000a9004600f0b905082600101600082600f0b600f0b815260200190815260200160002054915082600101600082600f0b600f0b815260200190815260200160002060009055600181018360000160006101000a8154816fffffffffffffffffffffffffffffffff0219169083600f0b6fffffffffffffffffffffffffffffffff16021790555050919050565b613384612033565b8111156133c6576040517f08c379a00000000000000000000000000000000000000000000000000000000081526004016133bd906175ee565b60405180910390fd5b60006133d0612052565b9050600081141580156133eb57506000600660000180549050145b156134dd5760066000016040518060400160405280600063ffffffff16815260200161341684612bcc565b7bffffffffffffffffffffffffffffffffffffffffffffffffffffffff168152509080600181540180825580915050600190039060005260206000200160009091909190915060008201518160000160006101000a81548163ffffffff021916908363ffffffff16021790555060208201518160000160046101000a8154817bffffffffffffffffffffffffffffffffffffffffffffffffffffffff02191690837bffffffffffffffffffffffffffffffffffffffffffffffffffffffff16021790555050505b6134f1826006612c3790919063ffffffff16565b50507f0553476bf02ef2726e8ce5ced78d63e26e602e4a2257b1f559418e24b46339978183604051613524929190617a30565b60405180910390a15050565b3073ffffffffffffffffffffffffffffffffffffffff1661354f610c0a565b73ffffffffffffffffffffffffffffffffffffffff16146136595760005b8451811015613657573073ffffffffffffffffffffffffffffffffffffffff168582815181106135c6577f4e487b7100000000000000000000000000000000000000000000000000000000600052603260045260246000fd5b602002602001015173ffffffffffffffffffffffffffffffffffffffff16141561364657613645838281518110613626577f4e487b7100000000000000000000000000000000000000000000000000000000600052603260045260246000fd5b6020026020010151805190602001206002614b1890919063ffffffff16565b5b80613650906180e3565b905061356d565b505b5050505050565b61366d8585858585614b94565b5050505050565b3073ffffffffffffffffffffffffffffffffffffffff16613693610c0a565b73ffffffffffffffffffffffffffffffffffffffff16146136c8576136b86002614ae3565b6136c7576136c66002614c32565b5b5b5050505050565b600081600001519050919050565b60006136f3858585856136ee614cb3565b613082565b9050949350505050565b60008061370983614cca565b905060046007811115613745577f4e487b7100000000000000000000000000000000000000000000000000000000600052602160045260246000fd5b81600781111561377e577f4e487b7100000000000000000000000000000000000000000000000000000000600052602160045260246000fd5b1461378c5780915050613936565b6000600860008581526020019081526020016000205490506000801b8114156137b9578192505050613936565b600760009054906101000a900473ffffffffffffffffffffffffffffffffffffffff1673ffffffffffffffffffffffffffffffffffffffff16632ab0f529826040518263ffffffff1660e01b815260040161381491906173fe565b60206040518083038186803b15801561382c57600080fd5b505afa158015613840573d6000803e3d6000fd5b505050506040513d601f19601f82011682018060405250810190613864919061659f565b1561387457600792505050613936565b600760009054906101000a900473ffffffffffffffffffffffffffffffffffffffff1673ffffffffffffffffffffffffffffffffffffffff1663584b153e826040518263ffffffff1660e01b81526004016138cf91906173fe565b60206040518083038186803b1580156138e757600080fd5b505afa1580156138fb573d6000803e3d6000fd5b505050506040513d601f19601f8201168201806040525081019061391f919061659f565b1561392f57600592505050613936565b6002925050505b919050565b60606000825167ffffffffffffffff811115613980577f4e487b7100000000000000000000000000000000000000000000000000000000600052604160045260246000fd5b6040519080825280602002602001820160405280156139b357816020015b606081526020019060019003908161399e5790505b50905060005b8451811015613b505760008582815181106139fd577f4e487b7100000000000000000000000000000000000000000000000000000000600052603260045260246000fd5b60200260200101515114613ab957848181518110613a44577f4e487b7100000000000000000000000000000000000000000000000000000000600052603260045260246000fd5b602002602001015180519060200120848281518110613a8c577f4e487b7100000000000000000000000000000000000000000000000000000000600052603260045260246000fd5b6020026020010151604051602001613aa592919061714e565b604051602081830303815290604052613afb565b838181518110613af2577f4e487b7100000000000000000000000000000000000000000000000000000000600052603260045260246000fd5b60200260200101515b828281518110613b34577f4e487b7100000000000000000000000000000000000000000000000000000000600052603260045260246000fd5b602002602001018190525080613b49906180e3565b90506139b9565b508091505092915050565b6000613b6985858585614ddf565b9050949350505050565b6000438210613bb7576040517f08c379a0000000000000000000000000000000000000000000000000000000008152600401613bae906176ce565b60405180910390fd5b60008360000180549050905060005b81811015613c61576000613bda8284614ed1565b905084866000018281548110613c19577f4e487b7100000000000000000000000000000000000000000000000000000000600052603260045260246000fd5b9060005260206000200160000160009054906101000a900463ffffffff1663ffffffff161115613c4b57809250613c5b565b600181613c589190617d91565b91505b50613bc6565b60008214613cec5784600001600183613c7a9190617eb0565b81548110613cb1577f4e487b7100000000000000000000000000000000000000000000000000000000600052603260045260246000fd5b9060005260206000200160000160049054906101000a90047bffffffffffffffffffffffffffffffffffffffffffffffffffffffff16613cef565b60005b7bffffffffffffffffffffffffffffffffffffffffffffffffffffffff169250505092915050565b6000613da2613d2461328b565b8686865167ffffffffffffffff811115613d67577f4e487b7100000000000000000000000000000000000000000000000000000000600052604160045260246000fd5b604051908082528060200260200182016040528015613d9a57816020015b6060815260200190600190039081613d855790505b508787613f3c565b613dae85858585614ef7565b9050949350505050565b60007f000000000000000000000000000000000000000000000000000000000000000073ffffffffffffffffffffffffffffffffffffffff16633a46b1a885856040518363ffffffff1660e01b8152600401613e15929190617221565b60206040518083038186803b158015613e2d57600080fd5b505afa158015613e41573d6000803e3d6000fd5b505050506040513d601f19601f82011682018060405250810190613e65919061666c565b90509392505050565b7f08f74ea46ef7894f65eabfb5e6e695de773a000b47c529ab559178069b226401600760009054906101000a900473ffffffffffffffffffffffffffffffffffffffff1682604051613ec19291906171f8565b60405180910390a180600760006101000a81548173ffffffffffffffffffffffffffffffffffffffff021916908373ffffffffffffffffffffffffffffffffffffffff16021790555050565b6060613f3384848460405180606001604052806029815260200161898660299139615224565b90509392505050565b6000818051906020012090506000613f5f8787613f59888861393b565b85612421565b905060006004600083815260200190815260200160002090506000801b8160090154141561403857888160000160006101000a81548173ffffffffffffffffffffffffffffffffffffffff021916908373ffffffffffffffffffffffffffffffffffffffff16021790555087816001019080519060200190613fe2929190615835565b5086816002019080519060200190613ffb9291906158bf565b508581600301908051906020019061401492919061590c565b508481600401908051906020019061402d92919061596c565b508281600901819055505b505050505050505050565b60006140578383614052614cb3565b613db8565b905092915050565b6000614069612033565b61407283611e40565b7f000000000000000000000000000000000000000000000000000000000000000073ffffffffffffffffffffffffffffffffffffffff16638e539e8c856040518263ffffffff1660e01b81526004016140cb91906178c9565b60206040518083038186803b1580156140e357600080fd5b505afa1580156140f7573d6000803e3d6000fd5b505050506040513d601f19601f8201168201806040525081019061411b919061666c565b6141259190617e56565b61412f9190617e25565b9050919050565b6000639a802a6d60e01b630342018160e01b635f398a1460e01b7f79dd796f000000000000000000000000000000000000000000000000000000001818187bffffffffffffffffffffffffffffffffffffffffffffffffffffffff1916827bffffffffffffffffffffffffffffffffffffffffffffffffffffffff1916148061421c57507f79dd796f000000000000000000000000000000000000000000000000000000007bffffffffffffffffffffffffffffffffffffffffffffffffffffffff1916827bffffffffffffffffffffffffffffffffffffffffffffffffffffffff1916145b8061428457507f4e2312e0000000000000000000000000000000000000000000000000000000007bffffffffffffffffffffffffffffffffffffffffffffffffffffffff1916827bffffffffffffffffffffffffffffffffffffffffffffffffffffffff1916145b80614294575061429382615338565b5b9050919050565b60007f000000000000000000000000000000000000000000000000000000000000000073ffffffffffffffffffffffffffffffffffffffff163073ffffffffffffffffffffffffffffffffffffffff1614801561431757507f000000000000000000000000000000000000000000000000000000000000000046145b15614344577f000000000000000000000000000000000000000000000000000000000000000090506143b2565b6143af7f00000000000000000000000000000000000000000000000000000000000000007f00000000000000000000000000000000000000000000000000000000000000007f00000000000000000000000000000000000000000000000000000000000000006153a2565b90505b90565b600082826040516020016143ca9291906171a6565b60405160208183030381529060405280519060200120905092915050565b6000807f7fffffffffffffffffffffffffffffff5d576e7357a4501ddfe92f46681b20a08360001c11156144235760006003915091506144ec565b601b8560ff161415801561443b5750601c8560ff1614155b1561444d5760006004915091506144ec565b60006001878787876040516000815260200160405260405161447294939291906174f6565b6020604051602081039080840390855afa158015614494573d6000803e3d6000fd5b505050602060405103519050600073ffffffffffffffffffffffffffffffffffffffff168173ffffffffffffffffffffffffffffffffffffffff1614156144e3576000600192509250506144ec565b80600092509250505b94509492505050565b6000600481111561452f577f4e487b7100000000000000000000000000000000000000000000000000000000600052602160045260246000fd5b816004811115614568577f4e487b7100000000000000000000000000000000000000000000000000000000600052602160045260246000fd5b141561457357614843565b600160048111156145ad577f4e487b7100000000000000000000000000000000000000000000000000000000600052602160045260246000fd5b8160048111156145e6577f4e487b7100000000000000000000000000000000000000000000000000000000600052602160045260246000fd5b1415614627576040517f08c379a000000000000000000000000000000000000000000000000000000000815260040161461e906175ae565b60405180910390fd5b60026004811115614661577f4e487b7100000000000000000000000000000000000000000000000000000000600052602160045260246000fd5b81600481111561469a577f4e487b7100000000000000000000000000000000000000000000000000000000600052602160045260246000fd5b14156146db576040517f08c379a00000000000000000000000000000000000000000000000000000000081526004016146d29061762e565b60405180910390fd5b60036004811115614715577f4e487b7100000000000000000000000000000000000000000000000000000000600052602160045260246000fd5b81600481111561474e577f4e487b7100000000000000000000000000000000000000000000000000000000600052602160045260246000fd5b141561478f576040517f08c379a00000000000000000000000000000000000000000000000000000000081526004016147869061766e565b60405180910390fd5b6004808111156147c8577f4e487b7100000000000000000000000000000000000000000000000000000000600052602160045260246000fd5b816004811115614801577f4e487b7100000000000000000000000000000000000000000000000000000000600052602160045260246000fd5b1415614842576040517f08c379a00000000000000000000000000000000000000000000000000000000081526004016148399061770e565b60405180910390fd5b5b50565b600060046000878152602001908152602001600020905060008160080160008773ffffffffffffffffffffffffffffffffffffffff1673ffffffffffffffffffffffffffffffffffffffff16815260200190815260200160002090508060000160009054906101000a900460ff16156148f4576040517f08c379a00000000000000000000000000000000000000000000000000000000081526004016148eb9061786e565b60405180910390fd5b60018160000160006101000a81548160ff021916908315150217905550848160000160016101000a81548160ff021916908360ff160217905550614937846153dc565b8160000160026101000a8154816bffffffffffffffffffffffff02191690836bffffffffffffffffffffffff160217905550600060028111156149a3577f4e487b7100000000000000000000000000000000000000000000000000000000600052602160045260246000fd5b60ff168560ff1614156149d057838260060160008282546149c49190617d91565b92505081905550614ada565b60016002811115614a0a577f4e487b7100000000000000000000000000000000000000000000000000000000600052602160045260246000fd5b60ff168560ff161415614a375783826005016000828254614a2b9190617d91565b92505081905550614ad9565b600280811115614a70577f4e487b7100000000000000000000000000000000000000000000000000000000600052602160045260246000fd5b60ff168560ff161415614a9d5783826007016000828254614a919190617d91565b92505081905550614ad8565b6040517f08c379a0000000000000000000000000000000000000000000000000000000008152600401614acf906177ae565b60405180910390fd5b5b5b50505050505050565b60008160000160009054906101000a9004600f0b600f0b8260000160109054906101000a9004600f0b600f0b13159050919050565b60008260000160109054906101000a9004600f0b90508183600101600083600f0b600f0b815260200190815260200160002081905550600181018360000160106101000a8154816fffffffffffffffffffffffffffffffff0219169083600f0b6fffffffffffffffffffffffffffffffff160217905550505050565b600760009054906101000a900473ffffffffffffffffffffffffffffffffffffffff1673ffffffffffffffffffffffffffffffffffffffff1663e38335e5348686866000876040518763ffffffff1660e01b8152600401614bf99594939291906172a4565b6000604051808303818588803b158015614c1257600080fd5b505af1158015614c26573d6000803e3d6000fd5b50505050505050505050565b60008160000160006101000a8154816fffffffffffffffffffffffffffffffff0219169083600f0b6fffffffffffffffffffffffffffffffff16021790555060008160000160106101000a8154816fffffffffffffffffffffffffffffffff0219169083600f0b6fffffffffffffffffffffffffffffffff16021790555050565b606060405180602001604052806000815250905090565b6000806001600084815260200190815260200160002090508060020160009054906101000a900460ff1615614d03576007915050614dda565b8060020160019054906101000a900460ff1615614d24576002915050614dda565b6000614d2f8461156e565b90506000811415614d75576040517f08c379a0000000000000000000000000000000000000000000000000000000008152600401614d6c906177ce565b60405180910390fd5b438110614d8757600092505050614dda565b6000614d928561226d565b9050438110614da75760019350505050614dda565b614db085615437565b8015614dc15750614dc08561546f565b5b15614dd25760049350505050614dda565b600393505050505b919050565b600080614dee8686868661549a565b90506000801b600860008381526020019081526020016000205414614ec557600760009054906101000a900473ffffffffffffffffffffffffffffffffffffffff1673ffffffffffffffffffffffffffffffffffffffff1663c4d252f560086000848152602001908152602001600020546040518263ffffffff1660e01b8152600401614e7b91906173fe565b600060405180830381600087803b158015614e9557600080fd5b505af1158015614ea9573d6000803e3d6000fd5b5050505060086000828152602001908152602001600020600090555b80915050949350505050565b60006002828418614ee29190617e25565b828416614eef9190617d91565b905092915050565b6000614f01612253565b614f1e614f0c61328b565b600143614f199190617eb0565b6128b8565b1015614f5f576040517f08c379a0000000000000000000000000000000000000000000000000000000008152600401614f569061788e565b60405180910390fd5b6000614f748686868680519060200120612421565b90508451865114614fba576040517f08c379a0000000000000000000000000000000000000000000000000000000008152600401614fb19061764e565b60405180910390fd5b8351865114614ffe576040517f08c379a0000000000000000000000000000000000000000000000000000000008152600401614ff59061764e565b60405180910390fd5b6000865111615042576040517f08c379a0000000000000000000000000000000000000000000000000000000008152600401615039906176ee565b60405180910390fd5b60006001600083815260200190815260200160002090506150a2816000016040518060200160405290816000820160009054906101000a900467ffffffffffffffff1667ffffffffffffffff1667ffffffffffffffff16815250506156d7565b6150e1576040517f08c379a00000000000000000000000000000000000000000000000000000000081526004016150d8906177ee565b60405180910390fd5b60006150f36150ee6118bd565b6156f1565b6150fc436156f1565b6151069190617de7565b9050600061511a615115610db8565b6156f1565b826151259190617de7565b905061513d828460000161574890919063ffffffff16565b615153818460010161574890919063ffffffff16565b7f7d84a6263ae0d98d3329bd7b46bb4e8d6f98cd35a7adb45c274c8b7fd5ebd5e08461517d61328b565b8b8b8d5167ffffffffffffffff8111156151c0577f4e487b7100000000000000000000000000000000000000000000000000000000600052604160045260246000fd5b6040519080825280602002602001820160405280156151f357816020015b60608152602001906001900390816151de5790505b508c88888e60405161520d999897969594939291906178e4565b60405180910390a183945050505050949350505050565b606082471015615269576040517f08c379a00000000000000000000000000000000000000000000000000000000081526004016152609061768e565b60405180910390fd5b61527285615777565b6152b1576040517f08c379a00000000000000000000000000000000000000000000000000000000081526004016152a89061782e565b60405180910390fd5b6000808673ffffffffffffffffffffffffffffffffffffffff1685876040516152da919061718f565b60006040518083038185875af1925050503d8060008114615317576040519150601f19603f3d011682016040523d82523d6000602084013e61531c565b606091505b509150915061532c82828661579a565b92505050949350505050565b60007f01ffc9a7000000000000000000000000000000000000000000000000000000007bffffffffffffffffffffffffffffffffffffffffffffffffffffffff1916827bffffffffffffffffffffffffffffffffffffffffffffffffffffffff1916149050919050565b600083838346306040516020016153bd959493929190617419565b6040516020818303038152906040528051906020012090509392505050565b60006bffffffffffffffffffffffff801682111561542f576040517f08c379a00000000000000000000000000000000000000000000000000000000081526004016154269061760e565b60405180910390fd5b819050919050565b60008060046000848152602001908152602001600020905080600501546154656154608561156e565b6128e1565b1115915050919050565b6000806004600084815260200190815260200160002090508060060154816005015411915050919050565b6000806154a986868686612421565b905060006154b682611950565b9050600260078111156154f2577f4e487b7100000000000000000000000000000000000000000000000000000000600052602160045260246000fd5b81600781111561552b577f4e487b7100000000000000000000000000000000000000000000000000000000600052602160045260246000fd5b141580156155aa57506006600781111561556e577f4e487b7100000000000000000000000000000000000000000000000000000000600052602160045260246000fd5b8160078111156155a7577f4e487b7100000000000000000000000000000000000000000000000000000000600052602160045260246000fd5b14155b801561562657506007808111156155ea577f4e487b7100000000000000000000000000000000000000000000000000000000600052602160045260246000fd5b816007811115615623577f4e487b7100000000000000000000000000000000000000000000000000000000600052602160045260246000fd5b14155b615665576040517f08c379a000000000000000000000000000000000000000000000000000000000815260040161565c9061776e565b60405180910390fd5b600180600084815260200190815260200160002060020160016101000a81548160ff0219169083151502179055507f789cf55be980739dad1d0699b93b58e806b51c9d96619bfa8fe0a28abaa7b30c826040516156c291906178c9565b60405180910390a18192505050949350505050565b600080826000015167ffffffffffffffff16149050919050565b600067ffffffffffffffff8016821115615740576040517f08c379a00000000000000000000000000000000000000000000000000000000081526004016157379061772e565b60405180910390fd5b819050919050565b808260000160006101000a81548167ffffffffffffffff021916908367ffffffffffffffff1602179055505050565b6000808273ffffffffffffffffffffffffffffffffffffffff163b119050919050565b606083156157aa578290506157fa565b6000835111156157bd5782518084602001fd5b816040517f08c379a00000000000000000000000000000000000000000000000000000000081526004016157f1919061758c565b60405180910390fd5b9392505050565b6040518060600160405280600015158152602001600060ff16815260200160006bffffffffffffffffffffffff1681525090565b8280548282559060005260206000209081019282156158ae579160200282015b828111156158ad5782518260006101000a81548173ffffffffffffffffffffffffffffffffffffffff021916908373ffffffffffffffffffffffffffffffffffffffff16021790555091602001919060010190615855565b5b5090506158bb91906159cc565b5090565b8280548282559060005260206000209081019282156158fb579160200282015b828111156158fa5782518255916020019190600101906158df565b5b50905061590891906159cc565b5090565b82805482825590600052602060002090810192821561595b579160200282015b8281111561595a57825182908051906020019061594a9291906159e9565b509160200191906001019061592c565b5b5090506159689190615a6f565b5090565b8280548282559060005260206000209081019282156159bb579160200282015b828111156159ba5782518290805190602001906159aa929190615a93565b509160200191906001019061598c565b5b5090506159c89190615b19565b5090565b5b808211156159e55760008160009055506001016159cd565b5090565b8280546159f590618080565b90600052602060002090601f016020900481019282615a175760008555615a5e565b82601f10615a3057805160ff1916838001178555615a5e565b82800160010185558215615a5e579182015b82811115615a5d578251825591602001919060010190615a42565b5b509050615a6b91906159cc565b5090565b5b80821115615a8f5760008181615a869190615b3d565b50600101615a70565b5090565b828054615a9f90618080565b90600052602060002090601f016020900481019282615ac15760008555615b08565b82601f10615ada57805160ff1916838001178555615b08565b82800160010185558215615b08579182015b82811115615b07578251825591602001919060010190615aec565b5b509050615b1591906159cc565b5090565b5b80821115615b395760008181615b309190615b7d565b50600101615b1a565b5090565b508054615b4990618080565b6000825580601f10615b5b5750615b7a565b601f016020900490600052602060002090810190615b7991906159cc565b5b50565b508054615b8990618080565b6000825580601f10615b9b5750615bba565b601f016020900490600052602060002090810190615bb991906159cc565b5b50565b6000615bd0615bcb84617b2b565b617b06565b90508083825260208201905082856020860282011115615bef57600080fd5b60005b85811015615c1f5781615c058882615e1d565b845260208401935060208301925050600181019050615bf2565b5050509392505050565b6000615c3c615c3784617b57565b617b06565b90508083825260208201905082856020860282011115615c5b57600080fd5b60005b85811015615ca557813567ffffffffffffffff811115615c7d57600080fd5b808601615c8a8982615f78565b85526020850194506020840193505050600181019050615c5e565b5050509392505050565b6000615cc2615cbd84617b83565b617b06565b90508083825260208201905082856020860282011115615ce157600080fd5b60005b85811015615d2b57813567ffffffffffffffff811115615d0357600080fd5b808601615d108982616001565b85526020850194506020840193505050600181019050615ce4565b5050509392505050565b6000615d48615d4384617baf565b617b06565b90508083825260208201905082856020860282011115615d6757600080fd5b60005b85811015615d975781615d7d888261602b565b845260208401935060208301925050600181019050615d6a565b5050509392505050565b6000615db4615daf84617bdb565b617b06565b905082815260208101848484011115615dcc57600080fd5b615dd784828561803e565b509392505050565b6000615df2615ded84617c0c565b617b06565b905082815260208101848484011115615e0a57600080fd5b615e1584828561803e565b509392505050565b600081359050615e2c816188e4565b92915050565b600082601f830112615e4357600080fd5b8135615e53848260208601615bbd565b91505092915050565b600082601f830112615e6d57600080fd5b8135615e7d848260208601615c29565b91505092915050565b600082601f830112615e9757600080fd5b8135615ea7848260208601615caf565b91505092915050565b600082601f830112615ec157600080fd5b8135615ed1848260208601615d35565b91505092915050565b600081519050615ee9816188fb565b92915050565b600081359050615efe81618912565b92915050565b600081519050615f1381618912565b92915050565b600081359050615f2881618929565b92915050565b60008083601f840112615f4057600080fd5b8235905067ffffffffffffffff811115615f5957600080fd5b602083019150836001820283011115615f7157600080fd5b9250929050565b600082601f830112615f8957600080fd5b8135615f99848260208601615da1565b91505092915050565b600081359050615fb181618940565b92915050565b60008083601f840112615fc957600080fd5b8235905067ffffffffffffffff811115615fe257600080fd5b602083019150836001820283011115615ffa57600080fd5b9250929050565b600082601f83011261601257600080fd5b8135616022848260208601615ddf565b91505092915050565b60008135905061603a81618957565b92915050565b60008151905061604f81618957565b92915050565b6000813590506160648161896e565b92915050565b600080600080600060a0868803121561608257600080fd5b600061609088828901615e1d565b95505060206160a188828901615e1d565b945050604086013567ffffffffffffffff8111156160be57600080fd5b6160ca88828901615eb0565b935050606086013567ffffffffffffffff8111156160e757600080fd5b6160f388828901615eb0565b925050608086013567ffffffffffffffff81111561611057600080fd5b61611c88828901615f78565b9150509295509295909350565b6000806000806080858703121561613f57600080fd5b600061614d87828801615e1d565b945050602061615e87828801615e1d565b935050604061616f8782880161602b565b925050606085013567ffffffffffffffff81111561618c57600080fd5b61619887828801615f78565b91505092959194509250565b600080600080600060a086880312156161bc57600080fd5b60006161ca88828901615e1d565b95505060206161db88828901615e1d565b94505060406161ec8882890161602b565b93505060606161fd8882890161602b565b925050608086013567ffffffffffffffff81111561621a57600080fd5b61622688828901615f78565b9150509295509295909350565b6000806040838503121561624657600080fd5b600061625485828601615e1d565b92505060206162658582860161602b565b9150509250929050565b6000806000806060858703121561628557600080fd5b600061629387828801615e1d565b94505060206162a48782880161602b565b935050604085013567ffffffffffffffff8111156162c157600080fd5b6162cd87828801615f2e565b925092505092959194509250565b6000806000606084860312156162f057600080fd5b60006162fe86828701615e1d565b935050602061630f8682870161602b565b925050604084013567ffffffffffffffff81111561632c57600080fd5b61633886828701615f78565b9150509250925092565b6000806000806080858703121561635857600080fd5b600085013567ffffffffffffffff81111561637257600080fd5b61637e87828801615e32565b945050602085013567ffffffffffffffff81111561639b57600080fd5b6163a787828801615eb0565b935050604085013567ffffffffffffffff8111156163c457600080fd5b6163d087828801615e5c565b92505060606163e187828801615eef565b91505092959194509250565b6000806000806080858703121561640357600080fd5b600085013567ffffffffffffffff81111561641d57600080fd5b61642987828801615e32565b945050602085013567ffffffffffffffff81111561644657600080fd5b61645287828801615eb0565b935050604085013567ffffffffffffffff81111561646f57600080fd5b61647b87828801615e5c565b925050606085013567ffffffffffffffff81111561649857600080fd5b6164a487828801616001565b91505092959194509250565b600080600080600060a086880312156164c857600080fd5b600086013567ffffffffffffffff8111156164e257600080fd5b6164ee88828901615e32565b955050602086013567ffffffffffffffff81111561650b57600080fd5b61651788828901615eb0565b945050604086013567ffffffffffffffff81111561653457600080fd5b61654088828901615e86565b935050606086013567ffffffffffffffff81111561655d57600080fd5b61656988828901615e5c565b925050608086013567ffffffffffffffff81111561658657600080fd5b61659288828901616001565b9150509295509295909350565b6000602082840312156165b157600080fd5b60006165bf84828501615eda565b91505092915050565b6000602082840312156165da57600080fd5b60006165e884828501615f04565b91505092915050565b60006020828403121561660357600080fd5b600061661184828501615f19565b91505092915050565b60006020828403121561662c57600080fd5b600061663a84828501615fa2565b91505092915050565b60006020828403121561665557600080fd5b60006166638482850161602b565b91505092915050565b60006020828403121561667e57600080fd5b600061668c84828501616040565b91505092915050565b600080604083850312156166a857600080fd5b60006166b68582860161602b565b92505060206166c785828601615e1d565b9150509250929050565b600080604083850312156166e457600080fd5b60006166f28582860161602b565b925050602061670385828601616055565b9150509250929050565b6000806000806060858703121561672357600080fd5b60006167318782880161602b565b945050602061674287828801616055565b935050604085013567ffffffffffffffff81111561675f57600080fd5b61676b87828801615fb7565b925092505092959194509250565b60008060008060006080868803121561679157600080fd5b600061679f8882890161602b565b95505060206167b088828901616055565b945050604086013567ffffffffffffffff8111156167cd57600080fd5b6167d988828901615fb7565b9350935050606086013567ffffffffffffffff8111156167f857600080fd5b61680488828901615f78565b9150509295509295909350565b60008060008060008060008060e0898b03121561682d57600080fd5b600061683b8b828c0161602b565b985050602061684c8b828c01616055565b975050604089013567ffffffffffffffff81111561686957600080fd5b6168758b828c01615fb7565b9650965050606089013567ffffffffffffffff81111561689457600080fd5b6168a08b828c01615f78565b94505060806168b18b828c01616055565b93505060a06168c28b828c01615eef565b92505060c06168d38b828c01615eef565b9150509295985092959890939650565b600080600080600060a086880312156168fb57600080fd5b60006169098882890161602b565b955050602061691a88828901616055565b945050604061692b88828901616055565b935050606061693c88828901615eef565b925050608061694d88828901615eef565b9150509295509295909350565b600061696683836169b2565b60208301905092915050565b600061697e8383616c05565b905092915050565b60006169928383616cd5565b905092915050565b60006169a683836170f4565b60208301905092915050565b6169bb81617ee4565b82525050565b6169ca81617ee4565b82525050565b60006169db82617c7d565b6169e58185617cf3565b93506169f083617c3d565b8060005b83811015616a21578151616a08888261695a565b9750616a1383617cbf565b9250506001810190506169f4565b5085935050505092915050565b6000616a3982617c88565b616a438185617d04565b935083602082028501616a5585617c4d565b8060005b85811015616a915784840389528151616a728582616972565b9450616a7d83617ccc565b925060208a01995050600181019050616a59565b50829750879550505050505092915050565b6000616aae82617c93565b616ab88185617d15565b935083602082028501616aca85617c5d565b8060005b85811015616b065784840389528151616ae78582616986565b9450616af283617cd9565b925060208a01995050600181019050616ace565b50829750879550505050505092915050565b6000616b2382617c9e565b616b2d8185617d26565b9350616b3883617c6d565b8060005b83811015616b69578151616b50888261699a565b9750616b5b83617ce6565b925050600181019050616b3c565b5085935050505092915050565b616b7f81617f08565b82525050565b616b8e81617f08565b82525050565b616b9d81617f14565b82525050565b616bb4616baf82617f14565b61812c565b82525050565b616bc381617f1e565b82525050565b616bda616bd582617f1e565b618136565b82525050565b6000616bec8385617d59565b9350616bf983858461803e565b82840190509392505050565b6000616c1082617ca9565b616c1a8185617d37565b9350616c2a81856020860161804d565b616c338161822b565b840191505092915050565b6000616c4982617ca9565b616c538185617d48565b9350616c6381856020860161804d565b616c6c8161822b565b840191505092915050565b6000616c8282617ca9565b616c8c8185617d59565b9350616c9c81856020860161804d565b80840191505092915050565b616cb181617fdc565b82525050565b616cc081618000565b82525050565b616ccf81618012565b82525050565b6000616ce082617cb4565b616cea8185617d64565b9350616cfa81856020860161804d565b616d038161822b565b840191505092915050565b6000616d1982617cb4565b616d238185617d75565b9350616d3381856020860161804d565b616d3c8161822b565b840191505092915050565b6000616d54601883617d75565b9150616d5f82618249565b602082019050919050565b6000616d77601883617d75565b9150616d8282618272565b602082019050919050565b6000616d9a604383617d75565b9150616da58261829b565b606082019050919050565b6000616dbd602683617d75565b9150616dc882618310565b604082019050919050565b6000616de0601f83617d75565b9150616deb8261835f565b602082019050919050565b6000616e03600283617d86565b9150616e0e82618388565b600282019050919050565b6000616e26602183617d75565b9150616e31826183b1565b604082019050919050565b6000616e49602283617d75565b9150616e5482618400565b604082019050919050565b6000616e6c602683617d75565b9150616e778261844f565b604082019050919050565b6000616e8f602383617d75565b9150616e9a8261849e565b604082019050919050565b6000616eb2602083617d75565b9150616ebd826184ed565b602082019050919050565b6000616ed5601883617d75565b9150616ee082618516565b602082019050919050565b6000616ef8602283617d75565b9150616f038261853f565b604082019050919050565b6000616f1b602683617d75565b9150616f268261858e565b604082019050919050565b6000616f3e602783617d75565b9150616f49826185dd565b604082019050919050565b6000616f61601d83617d75565b9150616f6c8261862c565b602082019050919050565b6000616f84602183617d75565b9150616f8f82618655565b604082019050919050565b6000616fa7602d83617d75565b9150616fb2826186a4565b604082019050919050565b6000616fca601d83617d75565b9150616fd5826186f3565b602082019050919050565b6000616fed602183617d75565b9150616ff88261871c565b604082019050919050565b6000617010602683617d75565b915061701b8261876b565b604082019050919050565b6000617033601d83617d75565b915061703e826187ba565b602082019050919050565b6000617056602783617d75565b9150617061826187e3565b604082019050919050565b6000617079602d83617d75565b915061708482618832565b604082019050919050565b600061709c603183617d75565b91506170a782618881565b604082019050919050565b6060820160008201516170c86000850182616b76565b5060208201516170db6020850182617121565b5060408201516170ee604085018261713f565b50505050565b6170fd81617f99565b82525050565b61710c81617f99565b82525050565b61711b8161802c565b82525050565b61712a81617fb7565b82525050565b61713981617fb7565b82525050565b61714881617fc4565b82525050565b600061715a8285616bc9565b60048201915061716a8284616c77565b91508190509392505050565b6000617183828486616be0565b91508190509392505050565b600061719b8284616c77565b915081905092915050565b60006171b182616df6565b91506171bd8285616ba3565b6020820191506171cd8284616ba3565b6020820191508190509392505050565b60006020820190506171f260008301846169c1565b92915050565b600060408201905061720d60008301856169c1565b61721a60208301846169c1565b9392505050565b600060408201905061723660008301856169c1565b6172436020830184617103565b9392505050565b6000608082019050818103600083015261726481876169d0565b905081810360208301526172788186616b18565b9050818103604083015261728c8185616a2e565b905061729b6060830184616b94565b95945050505050565b600060a08201905081810360008301526172be81886169d0565b905081810360208301526172d28187616b18565b905081810360408301526172e68186616a2e565b90506172f56060830185616cc6565b6173026080830184616b94565b9695505050505050565b600060c082019050818103600083015261732681896169d0565b9050818103602083015261733a8188616b18565b9050818103604083015261734e8187616a2e565b905061735d6060830186616cc6565b61736a6080830185616b94565b61737760a0830184617103565b979650505050505050565b6000608082019050818103600083015261739c81876169d0565b905081810360208301526173b08186616b18565b905081810360408301526173c48185616aa3565b905081810360608301526173d88184616a2e565b905095945050505050565b60006020820190506173f86000830184616b85565b92915050565b60006020820190506174136000830184616b94565b92915050565b600060a08201905061742e6000830188616b94565b61743b6020830187616b94565b6174486040830186616b94565b6174556060830185617103565b61746260808301846169c1565b9695505050505050565b60006060820190506174816000830186616b94565b61748e6020830185617103565b61749b6040830184617130565b949350505050565b600060a0820190506174b86000830188616b94565b6174c56020830187617103565b6174d26040830186617130565b6174df6060830185616b94565b6174ec6080830184616b94565b9695505050505050565b600060808201905061750b6000830187616b94565b6175186020830186617130565b6175256040830185616b94565b6175326060830184616b94565b95945050505050565b60006020820190506175506000830184616bba565b92915050565b600060208201905061756b6000830184616ca8565b92915050565b60006020820190506175866000830184616cb7565b92915050565b600060208201905081810360008301526175a68184616d0e565b905092915050565b600060208201905081810360008301526175c781616d47565b9050919050565b600060208201905081810360008301526175e781616d6a565b9050919050565b6000602082019050818103600083015261760781616d8d565b9050919050565b6000602082019050818103600083015261762781616db0565b9050919050565b6000602082019050818103600083015261764781616dd3565b9050919050565b6000602082019050818103600083015261766781616e19565b9050919050565b6000602082019050818103600083015261768781616e3c565b9050919050565b600060208201905081810360008301526176a781616e5f565b9050919050565b600060208201905081810360008301526176c781616e82565b9050919050565b600060208201905081810360008301526176e781616ea5565b9050919050565b6000602082019050818103600083015261770781616ec8565b9050919050565b6000602082019050818103600083015261772781616eeb565b9050919050565b6000602082019050818103600083015261774781616f0e565b9050919050565b6000602082019050818103600083015261776781616f31565b9050919050565b6000602082019050818103600083015261778781616f54565b9050919050565b600060208201905081810360008301526177a781616f77565b9050919050565b600060208201905081810360008301526177c781616f9a565b9050919050565b600060208201905081810360008301526177e781616fbd565b9050919050565b6000602082019050818103600083015261780781616fe0565b9050919050565b6000602082019050818103600083015261782781617003565b9050919050565b6000602082019050818103600083015261784781617026565b9050919050565b6000602082019050818103600083015261786781617049565b9050919050565b600060208201905081810360008301526178878161706c565b9050919050565b600060208201905081810360008301526178a78161708f565b9050919050565b60006060820190506178c360008301846170b2565b92915050565b60006020820190506178de6000830184617103565b92915050565b6000610120820190506178fa600083018c617103565b617907602083018b6169c1565b8181036040830152617919818a6169d0565b9050818103606083015261792d8189616b18565b905081810360808301526179418188616aa3565b905081810360a08301526179558187616a2e565b905061796460c0830186617112565b61797160e0830185617112565b8181036101008301526179848184616d0e565b90509a9950505050505050505050565b6000610140820190506179aa600083018d617103565b6179b7602083018c6169c1565b6179c4604083018b617103565b6179d1606083018a617103565b6179de6080830189617103565b6179eb60a0830188617103565b6179f860c0830187617103565b617a0560e0830186617103565b617a13610100830185616b85565b617a21610120830184616b85565b9b9a5050505050505050505050565b6000604082019050617a456000830185617103565b617a526020830184617103565b9392505050565b6000608082019050617a6e6000830187617103565b617a7b6020830186617130565b617a886040830185617103565b8181036060830152617a9a8184616d0e565b905095945050505050565b600060a082019050617aba6000830188617103565b617ac76020830187617130565b617ad46040830186617103565b8181036060830152617ae68185616d0e565b90508181036080830152617afa8184616c3e565b90509695505050505050565b6000617b10617b21565b9050617b1c82826180b2565b919050565b6000604051905090565b600067ffffffffffffffff821115617b4657617b456181fc565b5b602082029050602081019050919050565b600067ffffffffffffffff821115617b7257617b716181fc565b5b602082029050602081019050919050565b600067ffffffffffffffff821115617b9e57617b9d6181fc565b5b602082029050602081019050919050565b600067ffffffffffffffff821115617bca57617bc96181fc565b5b602082029050602081019050919050565b600067ffffffffffffffff821115617bf657617bf56181fc565b5b617bff8261822b565b9050602081019050919050565b600067ffffffffffffffff821115617c2757617c266181fc565b5b617c308261822b565b9050602081019050919050565b6000819050602082019050919050565b6000819050602082019050919050565b6000819050602082019050919050565b6000819050602082019050919050565b600081519050919050565b600081519050919050565b600081519050919050565b600081519050919050565b600081519050919050565b600081519050919050565b6000602082019050919050565b6000602082019050919050565b6000602082019050919050565b6000602082019050919050565b600082825260208201905092915050565b600082825260208201905092915050565b600082825260208201905092915050565b600082825260208201905092915050565b600082825260208201905092915050565b600082825260208201905092915050565b600081905092915050565b600082825260208201905092915050565b600082825260208201905092915050565b600081905092915050565b6000617d9c82617f99565b9150617da783617f99565b9250827fffffffffffffffffffffffffffffffffffffffffffffffffffffffffffffffff03821115617ddc57617ddb618140565b5b828201905092915050565b6000617df282617fa3565b9150617dfd83617fa3565b92508267ffffffffffffffff03821115617e1a57617e19618140565b5b828201905092915050565b6000617e3082617f99565b9150617e3b83617f99565b925082617e4b57617e4a61816f565b5b828204905092915050565b6000617e6182617f99565b9150617e6c83617f99565b9250817fffffffffffffffffffffffffffffffffffffffffffffffffffffffffffffffff0483118215151615617ea557617ea4618140565b5b828202905092915050565b6000617ebb82617f99565b9150617ec683617f99565b925082821015617ed957617ed8618140565b5b828203905092915050565b6000617eef82617f79565b9050919050565b6000617f0182617f79565b9050919050565b60008115159050919050565b6000819050919050565b60007fffffffff0000000000000000000000000000000000000000000000000000000082169050919050565b6000617f5582617ef6565b9050919050565b6000819050617f6a826188d0565b919050565b6000819050919050565b600073ffffffffffffffffffffffffffffffffffffffff82169050919050565b6000819050919050565b600067ffffffffffffffff82169050919050565b600060ff82169050919050565b60006bffffffffffffffffffffffff82169050919050565b6000617fe782617fee565b9050919050565b6000617ff982617f79565b9050919050565b600061800b82617f5c565b9050919050565b600061802561802083617f6f565b61823c565b9050919050565b600061803782617fa3565b9050919050565b82818337600083830152505050565b60005b8381101561806b578082015181840152602081019050618050565b8381111561807a576000848401525b50505050565b6000600282049050600182168061809857607f821691505b602082108114156180ac576180ab6181cd565b5b50919050565b6180bb8261822b565b810181811067ffffffffffffffff821117156180da576180d96181fc565b5b80604052505050565b60006180ee82617f99565b91507fffffffffffffffffffffffffffffffffffffffffffffffffffffffffffffffff82141561812157618120618140565b5b600182019050919050565b6000819050919050565b6000819050919050565b7f4e487b7100000000000000000000000000000000000000000000000000000000600052601160045260246000fd5b7f4e487b7100000000000000000000000000000000000000000000000000000000600052601260045260246000fd5b7f4e487b7100000000000000000000000000000000000000000000000000000000600052602160045260246000fd5b7f4e487b7100000000000000000000000000000000000000000000000000000000600052602260045260246000fd5b7f4e487b7100000000000000000000000000000000000000000000000000000000600052604160045260246000fd5b6000601f19601f8301169050919050565b60008160001b9050919050565b7f45434453413a20696e76616c6964207369676e61747572650000000000000000600082015250565b7f476f7665726e6f723a206f6e6c79476f7665726e616e63650000000000000000600082015250565b7f476f7665726e6f72566f74657351756f72756d4672616374696f6e3a2071756f60008201527f72756d4e756d657261746f72206f7665722071756f72756d44656e6f6d696e6160208201527f746f720000000000000000000000000000000000000000000000000000000000604082015250565b7f53616665436173743a2076616c756520646f65736e27742066697420696e203960008201527f3620626974730000000000000000000000000000000000000000000000000000602082015250565b7f45434453413a20696e76616c6964207369676e6174757265206c656e67746800600082015250565b7f1901000000000000000000000000000000000000000000000000000000000000600082015250565b7f476f7665726e6f723a20696e76616c69642070726f706f73616c206c656e677460008201527f6800000000000000000000000000000000000000000000000000000000000000602082015250565b7f45434453413a20696e76616c6964207369676e6174757265202773272076616c60008201527f7565000000000000000000000000000000000000000000000000000000000000602082015250565b7f416464726573733a20696e73756666696369656e742062616c616e636520666f60008201527f722063616c6c0000000000000000000000000000000000000000000000000000602082015250565b7f476f7665726e6f723a20766f7465206e6f742063757272656e746c792061637460008201527f6976650000000000000000000000000000000000000000000000000000000000602082015250565b7f436865636b706f696e74733a20626c6f636b206e6f7420796574206d696e6564600082015250565b7f476f7665726e6f723a20656d7074792070726f706f73616c0000000000000000600082015250565b7f45434453413a20696e76616c6964207369676e6174757265202776272076616c60008201527f7565000000000000000000000000000000000000000000000000000000000000602082015250565b7f53616665436173743a2076616c756520646f65736e27742066697420696e203660008201527f3420626974730000000000000000000000000000000000000000000000000000602082015250565b7f53616665436173743a2076616c756520646f65736e27742066697420696e203260008201527f3234206269747300000000000000000000000000000000000000000000000000602082015250565b7f476f7665726e6f723a2070726f706f73616c206e6f7420616374697665000000600082015250565b7f476f7665726e6f723a2070726f706f73616c206e6f742073756363657373667560008201527f6c00000000000000000000000000000000000000000000000000000000000000602082015250565b7f476f7665726e6f72436f6d7061746962696c697479427261766f3a20696e766160008201527f6c696420766f7465207479706500000000000000000000000000000000000000602082015250565b7f476f7665726e6f723a20756e6b6e6f776e2070726f706f73616c206964000000600082015250565b7f476f7665726e6f723a2070726f706f73616c20616c726561647920657869737460008201527f7300000000000000000000000000000000000000000000000000000000000000602082015250565b7f53616665436173743a2076616c756520646f65736e27742066697420696e203360008201527f3220626974730000000000000000000000000000000000000000000000000000602082015250565b7f416464726573733a2063616c6c20746f206e6f6e2d636f6e7472616374000000600082015250565b7f476f7665726e6f72427261766f3a2070726f706f7365722061626f766520746860008201527f726573686f6c6400000000000000000000000000000000000000000000000000602082015250565b7f476f7665726e6f72436f6d7061746962696c697479427261766f3a20766f746560008201527f20616c7265616479206361737400000000000000000000000000000000000000602082015250565b7f476f7665726e6f723a2070726f706f73657220766f7465732062656c6f77207060008201527f726f706f73616c207468726573686f6c64000000000000000000000000000000602082015250565b600881106188e1576188e061819e565b5b50565b6188ed81617ee4565b81146188f857600080fd5b50565b61890481617f08565b811461890f57600080fd5b50565b61891b81617f14565b811461892657600080fd5b50565b61893281617f1e565b811461893d57600080fd5b50565b61894981617f4a565b811461895457600080fd5b50565b61896081617f99565b811461896b57600080fd5b50565b61897781617fb7565b811461898257600080fd5b5056fe416464726573733a206c6f772d6c6576656c2063616c6c20776974682076616c7565206661696c6564a2646970667358221220a6efbcb1f6da6ba0b8640d5070908b31dec4a15ef913c746f82a4740a5cc2a0664736f6c63430008040033",
  "immutableReferences": {
    "4325": [
      {
        "length": 32,
        "start": 10485
      },
      {
        "length": 32,
        "start": 15804
      },
      {
        "length": 32,
        "start": 16500
      }
    ],
    "8866": [
      {
        "length": 32,
        "start": 17182
      }
    ],
    "8868": [
      {
        "length": 32,
        "start": 17141
      }
    ],
    "8870": [
      {
        "length": 32,
        "start": 17055
      }
    ],
    "8872": [
      {
        "length": 32,
        "start": 17258
      }
    ],
    "8874": [
      {
        "length": 32,
        "start": 17291
      }
    ],
    "8876": [
      {
        "length": 32,
        "start": 17225
      }
    ]
  },
  "source": "// SPDX-License-Identifier: MIT\npragma solidity ^0.8.2;\n\nimport \"@openzeppelin/contracts/governance/Governor.sol\";\nimport \"@openzeppelin/contracts/governance/compatibility/GovernorCompatibilityBravo.sol\";\nimport \"@openzeppelin/contracts/governance/extensions/GovernorVotes.sol\";\nimport \"@openzeppelin/contracts/governance/extensions/GovernorVotesQuorumFraction.sol\";\nimport \"@openzeppelin/contracts/governance/extensions/GovernorTimelockControl.sol\";\nimport \"@openzeppelin/contracts/token/ERC20/extensions/ERC20Votes.sol\";\n\n/// @custom:security-contact fccoelho@gmail.com\ncontract DPubGovernor is Governor, GovernorCompatibilityBravo, GovernorVotes, GovernorVotesQuorumFraction, GovernorTimelockControl {\n    constructor(ERC20Votes _token, TimelockController _timelock)\n        Governor(\"DPubGovernor\")\n        GovernorVotes(_token)\n        GovernorVotesQuorumFraction(4)\n        GovernorTimelockControl(_timelock)\n    {}\n\n    function votingDelay() public pure override returns (uint256) {\n        return 1; // 1 block\n    }\n\n    function votingPeriod() public pure override returns (uint256) {\n        return 45818; // 1 week\n    }\n\n    function proposalThreshold() public pure override returns (uint256) {\n        return 0e18;\n    }\n\n    // The following functions are overrides required by Solidity.\n\n    function quorum(uint256 blockNumber)\n        public\n        view\n        override(IGovernor, GovernorVotesQuorumFraction)\n        returns (uint256)\n    {\n        return super.quorum(blockNumber);\n    }\n\n    function getVotes(address account, uint256 blockNumber)\n        public\n        view\n        override(Governor, IGovernor)\n        returns (uint256)\n    {\n        return super.getVotes(account, blockNumber);\n    }\n\n    function state(uint256 proposalId)\n        public\n        view\n        override(Governor, IGovernor, GovernorTimelockControl)\n        returns (ProposalState)\n    {\n        return super.state(proposalId);\n    }\n\n    function propose(address[] memory targets, uint256[] memory values, bytes[] memory calldatas, string memory description)\n        public\n        override(Governor, GovernorCompatibilityBravo, IGovernor)\n        returns (uint256)\n    {\n        return super.propose(targets, values, calldatas, description);\n    }\n\n    function _execute(uint256 proposalId, address[] memory targets, uint256[] memory values, bytes[] memory calldatas, bytes32 descriptionHash)\n        internal\n        override(Governor, GovernorTimelockControl)\n    {\n        super._execute(proposalId, targets, values, calldatas, descriptionHash);\n    }\n\n    function _cancel(address[] memory targets, uint256[] memory values, bytes[] memory calldatas, bytes32 descriptionHash)\n        internal\n        override(Governor, GovernorTimelockControl)\n        returns (uint256)\n    {\n        return super._cancel(targets, values, calldatas, descriptionHash);\n    }\n\n    function _executor()\n        internal\n        view\n        override(Governor, GovernorTimelockControl)\n        returns (address)\n    {\n        return super._executor();\n    }\n\n    function supportsInterface(bytes4 interfaceId)\n        public\n        view\n        override(Governor, IERC165, GovernorTimelockControl)\n        returns (bool)\n    {\n        return super.supportsInterface(interfaceId);\n    }\n}",
  "sourcePath": "C:\\Users\\Marcelo\\Repositories\\Dpublish\\contracts\\DPubGovernor.sol",
  "compiler": {
    "name": "solc",
    "version": "0.8.4+commit.c7e474f2.Emscripten.clang"
  },
  "schemaVersion": "3.4.10",
  "updatedAt": "2022-12-16T02:45:59.583Z",
  "networkType": "ethereum",
  "devdoc": {
    "custom:security-contact": "fccoelho@gmail.com",
    "errors": {
      "Empty()": [
        {
          "details": "An operation (e.g. {front}) couldn't be completed due to the queue being empty."
        }
      ]
    },
    "kind": "dev",
    "methods": {
      "COUNTING_MODE()": {
        "details": "A description of the possible `support` values for {castVote} and the way these votes are counted, meant to be consumed by UIs to show correct vote options and interpret the results. The string is a URL-encoded sequence of key-value pairs that each describe one aspect, for example `support=bravo&quorum=for,abstain`. There are 2 standard keys: `support` and `quorum`. - `support=bravo` refers to the vote options 0 = Against, 1 = For, 2 = Abstain, as in `GovernorBravo`. - `quorum=bravo` means that only For votes are counted towards quorum. - `quorum=for,abstain` means that both For and Abstain votes are counted towards quorum. If a counting module makes use of encoded `params`, it should  include this under a `params` key with a unique name that describes the behavior. For example: - `params=fractional` might refer to a scheme where votes are divided fractionally between for/against/abstain. - `params=erc721` might refer to a scheme where specific NFTs are delegated to vote. NOTE: The string can be decoded by the standard https://developer.mozilla.org/en-US/docs/Web/API/URLSearchParams[`URLSearchParams`] JavaScript class."
      },
      "cancel(uint256)": {
        "details": "Cancels a proposal only if sender is the proposer, or proposer delegates dropped below proposal threshold."
      },
      "castVote(uint256,uint8)": {
        "details": "See {IGovernor-castVote}."
      },
      "castVoteBySig(uint256,uint8,uint8,bytes32,bytes32)": {
        "details": "See {IGovernor-castVoteBySig}."
      },
      "castVoteWithReason(uint256,uint8,string)": {
        "details": "See {IGovernor-castVoteWithReason}."
      },
      "castVoteWithReasonAndParams(uint256,uint8,string,bytes)": {
        "details": "See {IGovernor-castVoteWithReasonAndParams}."
      },
      "castVoteWithReasonAndParamsBySig(uint256,uint8,string,bytes,uint8,bytes32,bytes32)": {
        "details": "See {IGovernor-castVoteWithReasonAndParamsBySig}."
      },
      "execute(address[],uint256[],bytes[],bytes32)": {
        "details": "See {IGovernor-execute}."
      },
      "execute(uint256)": {
        "details": "See {IGovernorCompatibilityBravo-execute}."
      },
      "getActions(uint256)": {
        "details": "See {IGovernorCompatibilityBravo-getActions}."
      },
      "getReceipt(uint256,address)": {
        "details": "See {IGovernorCompatibilityBravo-getReceipt}."
      },
      "getVotesWithParams(address,uint256,bytes)": {
        "details": "See {IGovernor-getVotesWithParams}."
      },
      "hasVoted(uint256,address)": {
        "details": "See {IGovernor-hasVoted}."
      },
      "hashProposal(address[],uint256[],bytes[],bytes32)": {
        "details": "See {IGovernor-hashProposal}. The proposal id is produced by hashing the ABI encoded `targets` array, the `values` array, the `calldatas` array and the descriptionHash (bytes32 which itself is the keccak256 hash of the description string). This proposal id can be produced from the proposal data which is part of the {ProposalCreated} event. It can even be computed in advance, before the proposal is submitted. Note that the chainId and the governor address are not part of the proposal id computation. Consequently, the same proposal (with same operation and same description) will have the same id if submitted on multiple governors across multiple networks. This also means that in order to execute the same operation twice (on the same governor) the proposer will have to change the description in order to avoid proposal id conflicts."
      },
      "name()": {
        "details": "See {IGovernor-name}."
      },
      "onERC1155BatchReceived(address,address,uint256[],uint256[],bytes)": {
        "details": "See {IERC1155Receiver-onERC1155BatchReceived}."
      },
      "onERC1155Received(address,address,uint256,uint256,bytes)": {
        "details": "See {IERC1155Receiver-onERC1155Received}."
      },
      "onERC721Received(address,address,uint256,bytes)": {
        "details": "See {IERC721Receiver-onERC721Received}."
      },
      "proposalDeadline(uint256)": {
        "details": "See {IGovernor-proposalDeadline}."
      },
      "proposalEta(uint256)": {
        "details": "Public accessor to check the eta of a queued proposal"
      },
      "proposalSnapshot(uint256)": {
        "details": "See {IGovernor-proposalSnapshot}."
      },
      "proposalThreshold()": {
        "details": "Part of the Governor Bravo's interface: _\"The number of votes required in order for a voter to become a proposer\"_."
      },
      "proposals(uint256)": {
        "details": "See {IGovernorCompatibilityBravo-proposals}."
      },
      "propose(address[],uint256[],string[],bytes[],string)": {
        "details": "See {IGovernorCompatibilityBravo-propose}."
      },
      "queue(address[],uint256[],bytes[],bytes32)": {
        "details": "Function to queue a proposal to the timelock."
      },
      "queue(uint256)": {
        "details": "See {IGovernorCompatibilityBravo-queue}."
      },
      "quorumDenominator()": {
        "details": "Returns the quorum denominator. Defaults to 100, but may be overridden."
      },
      "quorumNumerator()": {
        "details": "Returns the current quorum numerator. See {quorumDenominator}."
      },
      "quorumNumerator(uint256)": {
        "details": "Returns the quorum numerator at a specific block number. See {quorumDenominator}."
      },
      "quorumVotes()": {
        "details": "See {IGovernorCompatibilityBravo-quorumVotes}."
      },
      "relay(address,uint256,bytes)": {
        "details": "Relays a transaction or function call to an arbitrary target. In cases where the governance executor is some contract other than the governor itself, like when using a timelock, this function can be invoked in a governance proposal to recover tokens or Ether that was sent to the governor contract by mistake. Note that if the executor is simply the governor itself, use of `relay` is redundant."
      },
      "timelock()": {
        "details": "Public accessor to check the address of the timelock"
      },
      "updateQuorumNumerator(uint256)": {
        "details": "Changes the quorum numerator. Emits a {QuorumNumeratorUpdated} event. Requirements: - Must be called through a governance proposal. - New numerator must be smaller or equal to the denominator."
      },
      "updateTimelock(address)": {
        "details": "Public endpoint to update the underlying timelock instance. Restricted to the timelock itself, so updates must be proposed, scheduled, and executed through governance proposals. CAUTION: It is not recommended to change the timelock while there are other queued governance proposals."
      },
      "version()": {
        "details": "See {IGovernor-version}."
      },
      "votingDelay()": {
        "details": "Delay, in number of block, between the proposal is created and the vote starts. This can be increassed to leave time for users to buy voting power, or delegate it, before the voting of a proposal starts."
      },
      "votingPeriod()": {
        "details": "Delay, in number of blocks, between the vote start and vote ends. NOTE: The {votingDelay} can delay the start of the vote. This must be considered when setting the voting duration compared to the voting delay."
      }
    },
    "version": 1
  },
  "userdoc": {
    "kind": "user",
    "methods": {
      "COUNTING_MODE()": {
        "notice": "module:voting"
      },
      "votingDelay()": {
        "notice": "module:user-config"
      },
      "votingPeriod()": {
        "notice": "module:user-config"
      }
    },
    "version": 1
  }
}