{
  "abi": [
    {
      "inputs": [
        {
          "internalType": "string",
          "name": "idmanuscript",
          "type": "string"
        }
      ],
      "name": "get_submitted_manuscript",
      "outputs": [
        {
          "internalType": "address",
          "name": "",
          "type": "address"
        }
      ],
      "stateMutability": "view",
      "type": "function"
    },
    {
      "inputs": [
        {
          "internalType": "string",
          "name": "idmanuscript",
          "type": "string"
        },
        {
          "internalType": "address",
          "name": "submit_to",
          "type": "address"
        }
      ],
      "name": "submit_manuscript",
      "outputs": [],
      "stateMutability": "payable",
      "type": "function"
    },
    {
      "inputs": [
        {
          "internalType": "string",
          "name": "",
          "type": "string"
        }
      ],
      "name": "submitted_manuscripts",
      "outputs": [
        {
          "internalType": "address",
          "name": "",
          "type": "address"
        }
      ],
      "stateMutability": "view",
      "type": "function"
    }
  ],
  "bytecode": "608060405234801561001057600080fd5b506102ee806100206000396000f3fe6080604052600436106100345760003560e01c806325c6b87914610039578063694549f614610075578063f46f4fe51461008a575b600080fd5b34801561004557600080fd5b506100596100543660046101e2565b6100cb565b6040516001600160a01b03909116815260200160405180910390f35b61008861008336600461021f565b6100fb565b005b34801561009657600080fd5b506100596100a53660046101e2565b80516020818301810180516000825292820191909301209152546001600160a01b031681565b600080826040516100dc919061027d565b908152604051908190036020019020546001600160a01b031692915050565b8060008360405161010c919061027d565b90815260405190819003602001902080546001600160a01b03929092166001600160a01b03199092169190911790555050565b634e487b7160e01b600052604160045260246000fd5b600082601f83011261016657600080fd5b813567ffffffffffffffff808211156101815761018161013f565b604051601f8301601f19908116603f011681019082821181831017156101a9576101a961013f565b816040528381528660208588010111156101c257600080fd5b836020870160208301376000602085830101528094505050505092915050565b6000602082840312156101f457600080fd5b813567ffffffffffffffff81111561020b57600080fd5b61021784828501610155565b949350505050565b6000806040838503121561023257600080fd5b823567ffffffffffffffff81111561024957600080fd5b61025585828601610155565b92505060208301356001600160a01b038116811461027257600080fd5b809150509250929050565b6000825160005b8181101561029e5760208186018101518583015201610284565b818111156102ad576000828501525b50919091019291505056fea2646970667358221220ce2f1e53a0c6f4edf423d4457c6aef76fde5aa62785de241477a72c0fb554e6764736f6c634300080a0033",
  "bytecodeSha1": "60af79487fadca8b6303d9ade697dc07d7a218dd",
  "compiler": {
    "evm_version": "istanbul",
    "optimizer": {
      "enabled": true,
      "runs": 200
    },
    "version": "0.8.10+commit.fc410830"
  },
  "contractName": "DPublish",
  "language": "Solidity",
  "natspec": {
    "kind": "dev",
    "methods": {
      "submit_manuscript(string,address)": {
        "notice": "Submit manuscript"
      }
    },
    "version": 1
  },
  "opcodes": "PUSH1 0x80 PUSH1 0x40 MSTORE PUSH1 0x4 CALLDATASIZE LT PUSH2 0x34 JUMPI PUSH1 0x0 CALLDATALOAD PUSH1 0xE0 SHR DUP1 PUSH4 0x25C6B879 EQ PUSH2 0x39 JUMPI DUP1 PUSH4 0x694549F6 EQ PUSH2 0x75 JUMPI DUP1 PUSH4 0xF46F4FE5 EQ PUSH2 0x8A JUMPI JUMPDEST PUSH1 0x0 DUP1 REVERT JUMPDEST CALLVALUE DUP1 ISZERO PUSH2 0x45 JUMPI PUSH1 0x0 DUP1 REVERT JUMPDEST POP PUSH2 0x59 PUSH2 0x54 CALLDATASIZE PUSH1 0x4 PUSH2 0x1E2 JUMP JUMPDEST PUSH2 0xCB JUMP JUMPDEST PUSH1 0x40 MLOAD PUSH1 0x1 PUSH1 0x1 PUSH1 0xA0 SHL SUB SWAP1 SWAP2 AND DUP2 MSTORE PUSH1 0x20 ADD PUSH1 0x40 MLOAD DUP1 SWAP2 SUB SWAP1 RETURN JUMPDEST PUSH2 0x88 PUSH2 0x83 CALLDATASIZE PUSH1 0x4 PUSH2 0x21F JUMP JUMPDEST PUSH2 0xFB JUMP JUMPDEST STOP JUMPDEST CALLVALUE DUP1 ISZERO PUSH2 0x96 JUMPI PUSH1 0x0 DUP1 REVERT JUMPDEST POP PUSH2 0x59 PUSH2 0xA5 CALLDATASIZE PUSH1 0x4 PUSH2 0x1E2 JUMP JUMPDEST DUP1 MLOAD PUSH1 0x20 DUP2 DUP4 ADD DUP2 ADD DUP1 MLOAD PUSH1 0x0 DUP3 MSTORE SWAP3 DUP3 ADD SWAP2 SWAP1 SWAP4 ADD KECCAK256 SWAP2 MSTORE SLOAD PUSH1 0x1 PUSH1 0x1 PUSH1 0xA0 SHL SUB AND DUP2 JUMP JUMPDEST PUSH1 0x0 DUP1 DUP3 PUSH1 0x40 MLOAD PUSH2 0xDC SWAP2 SWAP1 PUSH2 0x27D JUMP JUMPDEST SWAP1 DUP2 MSTORE PUSH1 0x40 MLOAD SWAP1 DUP2 SWAP1 SUB PUSH1 0x20 ADD SWAP1 KECCAK256 SLOAD PUSH1 0x1 PUSH1 0x1 PUSH1 0xA0 SHL SUB AND SWAP3 SWAP2 POP POP JUMP JUMPDEST DUP1 PUSH1 0x0 DUP4 PUSH1 0x40 MLOAD PUSH2 0x10C SWAP2 SWAP1 PUSH2 0x27D JUMP JUMPDEST SWAP1 DUP2 MSTORE PUSH1 0x40 MLOAD SWAP1 DUP2 SWAP1 SUB PUSH1 0x20 ADD SWAP1 KECCAK256 DUP1 SLOAD PUSH1 0x1 PUSH1 0x1 PUSH1 0xA0 SHL SUB SWAP3 SWAP1 SWAP3 AND PUSH1 0x1 PUSH1 0x1 PUSH1 0xA0 SHL SUB NOT SWAP1 SWAP3 AND SWAP2 SWAP1 SWAP2 OR SWAP1 SSTORE POP POP JUMP JUMPDEST PUSH4 0x4E487B71 PUSH1 0xE0 SHL PUSH1 0x0 MSTORE PUSH1 0x41 PUSH1 0x4 MSTORE PUSH1 0x24 PUSH1 0x0 REVERT JUMPDEST PUSH1 0x0 DUP3 PUSH1 0x1F DUP4 ADD SLT PUSH2 0x166 JUMPI PUSH1 0x0 DUP1 REVERT JUMPDEST DUP2 CALLDATALOAD PUSH8 0xFFFFFFFFFFFFFFFF DUP1 DUP3 GT ISZERO PUSH2 0x181 JUMPI PUSH2 0x181 PUSH2 0x13F JUMP JUMPDEST PUSH1 0x40 MLOAD PUSH1 0x1F DUP4 ADD PUSH1 0x1F NOT SWAP1 DUP2 AND PUSH1 0x3F ADD AND DUP2 ADD SWAP1 DUP3 DUP3 GT DUP2 DUP4 LT OR ISZERO PUSH2 0x1A9 JUMPI PUSH2 0x1A9 PUSH2 0x13F JUMP JUMPDEST DUP2 PUSH1 0x40 MSTORE DUP4 DUP2 MSTORE DUP7 PUSH1 0x20 DUP6 DUP9 ADD ADD GT ISZERO PUSH2 0x1C2 JUMPI PUSH1 0x0 DUP1 REVERT JUMPDEST DUP4 PUSH1 0x20 DUP8 ADD PUSH1 0x20 DUP4 ADD CALLDATACOPY PUSH1 0x0 PUSH1 0x20 DUP6 DUP4 ADD ADD MSTORE DUP1 SWAP5 POP POP POP POP POP SWAP3 SWAP2 POP POP JUMP JUMPDEST PUSH1 0x0 PUSH1 0x20 DUP3 DUP5 SUB SLT ISZERO PUSH2 0x1F4 JUMPI PUSH1 0x0 DUP1 REVERT JUMPDEST DUP2 CALLDATALOAD PUSH8 0xFFFFFFFFFFFFFFFF DUP2 GT ISZERO PUSH2 0x20B JUMPI PUSH1 0x0 DUP1 REVERT JUMPDEST PUSH2 0x217 DUP5 DUP3 DUP6 ADD PUSH2 0x155 JUMP JUMPDEST SWAP5 SWAP4 POP POP POP POP JUMP JUMPDEST PUSH1 0x0 DUP1 PUSH1 0x40 DUP4 DUP6 SUB SLT ISZERO PUSH2 0x232 JUMPI PUSH1 0x0 DUP1 REVERT JUMPDEST DUP3 CALLDATALOAD PUSH8 0xFFFFFFFFFFFFFFFF DUP2 GT ISZERO PUSH2 0x249 JUMPI PUSH1 0x0 DUP1 REVERT JUMPDEST PUSH2 0x255 DUP6 DUP3 DUP7 ADD PUSH2 0x155 JUMP JUMPDEST SWAP3 POP POP PUSH1 0x20 DUP4 ADD CALLDATALOAD PUSH1 0x1 PUSH1 0x1 PUSH1 0xA0 SHL SUB DUP2 AND DUP2 EQ PUSH2 0x272 JUMPI PUSH1 0x0 DUP1 REVERT JUMPDEST DUP1 SWAP2 POP POP SWAP3 POP SWAP3 SWAP1 POP JUMP JUMPDEST PUSH1 0x0 DUP3 MLOAD PUSH1 0x0 JUMPDEST DUP2 DUP2 LT ISZERO PUSH2 0x29E JUMPI PUSH1 0x20 DUP2 DUP7 ADD DUP2 ADD MLOAD DUP6 DUP4 ADD MSTORE ADD PUSH2 0x284 JUMP JUMPDEST DUP2 DUP2 GT ISZERO PUSH2 0x2AD JUMPI PUSH1 0x0 DUP3 DUP6 ADD MSTORE JUMPDEST POP SWAP2 SWAP1 SWAP2 ADD SWAP3 SWAP2 POP POP JUMP INVALID LOG2 PUSH5 0x6970667358 0x22 SLT KECCAK256 0xCE 0x2F 0x1E MSTORE8 LOG0 0xC6 DELEGATECALL 0xED DELEGATECALL 0x23 0xD4 GASLIMIT PUSH29 0x6AEF76FDE5AA62785DE241477A72C0FB554E6764736F6C634300080A00 CALLER ",
  "sha1": "54c15a510c7e04ecf8129cbfd51f3e4ed162497a",
  "source": "// SPDX-License-Identifier: MIT\npragma solidity ^0.8.2;\n\ncontract DPublish {\n    mapping(string => address) public submitted_manuscripts;\n\n    /**\n    * Submit manuscript\n     */\n    function submit_manuscript(string memory idmanuscript, address submit_to) public payable{\n        submitted_manuscripts[idmanuscript] = submit_to; \n    }\n\n    function get_submitted_manuscript(string memory idmanuscript) public view returns (address){\n\t    return submitted_manuscripts[idmanuscript]; \n    } \n\n\n}\n",
  "sourcePath": "contracts/DPublish.sol",
  "type": "contract"
}