{
  "contractName": "DPublish",
  "abi": [
    {
      "inputs": [
        {
          "internalType": "uint256",
          "name": "requested",
          "type": "uint256"
        },
        {
          "internalType": "uint256",
          "name": "available",
          "type": "uint256"
        },
        {
          "internalType": "address",
          "name": "where",
          "type": "address"
        }
      ],
      "name": "NotEnoughFunds",
      "type": "error"
    },
    {
      "anonymous": false,
      "inputs": [
        {
          "indexed": false,
          "internalType": "address",
          "name": "from",
          "type": "address"
        },
        {
          "indexed": false,
          "internalType": "uint256",
          "name": "amount",
          "type": "uint256"
        }
      ],
      "name": "PaymentReceived",
      "type": "event"
    },
    {
      "inputs": [
        {
          "internalType": "address",
          "name": "",
          "type": "address"
        }
      ],
      "name": "balances",
      "outputs": [
        {
          "internalType": "uint256",
          "name": "",
          "type": "uint256"
        }
      ],
      "stateMutability": "view",
      "type": "function"
    },
    {
      "inputs": [],
      "name": "desired_number_of_reviews",
      "outputs": [
        {
          "internalType": "uint16",
          "name": "",
          "type": "uint16"
        }
      ],
      "stateMutability": "view",
      "type": "function"
    },
    {
      "inputs": [],
      "name": "publishing_fee",
      "outputs": [
        {
          "internalType": "uint256",
          "name": "",
          "type": "uint256"
        }
      ],
      "stateMutability": "view",
      "type": "function"
    },
    {
      "inputs": [
        {
          "internalType": "string",
          "name": "url",
          "type": "string"
        }
      ],
      "name": "submit_manuscript",
      "outputs": [],
      "stateMutability": "payable",
      "type": "function"
    },
    {
      "inputs": [
        {
          "internalType": "address",
          "name": "papertoken",
          "type": "address"
        }
      ],
      "name": "get_paper_under_review",
      "outputs": [
        {
          "components": [
            {
              "internalType": "address",
              "name": "author",
              "type": "address"
            },
            {
              "internalType": "address[]",
              "name": "reviews",
              "type": "address[]"
            },
            {
              "internalType": "string",
              "name": "url",
              "type": "string"
            },
            {
              "internalType": "uint256",
              "name": "value",
              "type": "uint256"
            }
          ],
          "internalType": "struct DPublish.Paper",
          "name": "",
          "type": "tuple"
        }
      ],
      "stateMutability": "view",
      "type": "function"
    },
    {
      "inputs": [
        {
          "internalType": "address",
          "name": "papertoken",
          "type": "address"
        }
      ],
      "name": "get_accepted_paper",
      "outputs": [
        {
          "components": [
            {
              "internalType": "address",
              "name": "author",
              "type": "address"
            },
            {
              "internalType": "address[]",
              "name": "reviews",
              "type": "address[]"
            },
            {
              "internalType": "string",
              "name": "url",
              "type": "string"
            },
            {
              "internalType": "uint256",
              "name": "value",
              "type": "uint256"
            }
          ],
          "internalType": "struct DPublish.Paper",
          "name": "",
          "type": "tuple"
        }
      ],
      "stateMutability": "view",
      "type": "function"
    },
    {
      "inputs": [
        {
          "internalType": "address",
          "name": "papertoken",
          "type": "address"
        }
      ],
      "name": "get_rejected_paper",
      "outputs": [
        {
          "components": [
            {
              "internalType": "address",
              "name": "author",
              "type": "address"
            },
            {
              "internalType": "address[]",
              "name": "reviews",
              "type": "address[]"
            },
            {
              "internalType": "string",
              "name": "url",
              "type": "string"
            },
            {
              "internalType": "uint256",
              "name": "value",
              "type": "uint256"
            }
          ],
          "internalType": "struct DPublish.Paper",
          "name": "",
          "type": "tuple"
        }
      ],
      "stateMutability": "view",
      "type": "function"
    },
    {
      "inputs": [
        {
          "internalType": "address",
          "name": "papertoken",
          "type": "address"
        },
        {
          "internalType": "string",
          "name": "review",
          "type": "string"
        },
        {
          "internalType": "uint8",
          "name": "rating",
          "type": "uint8"
        }
      ],
      "name": "review_paper",
      "outputs": [],
      "stateMutability": "payable",
      "type": "function"
    },
    {
      "inputs": [
        {
          "internalType": "address",
          "name": "papertoken",
          "type": "address"
        },
        {
          "internalType": "bool",
          "name": "accept",
          "type": "bool"
        }
      ],
      "name": "accept_or_reject_paper",
      "outputs": [],
      "stateMutability": "payable",
      "type": "function"
    }
  ],
  "bytecode": "0x608060405234801561001057600080fd5b50617b00806100206000396000f3fe608060405260043610620000925760003560e01c806396869d2d116200006157806396869d2d1462000193578063a6c89a1814620001b3578063c5f37f2814620001d3578063cbb5f2d01462000217578063cdeca25214620002475762000092565b80630f0433f3146200009757806327e235e314620000c75780633404f0bb146200010b5780637ef25c2e146200014f575b600080fd5b348015620000a457600080fd5b50620000af62000267565b604051620000be91906200161c565b60405180910390f35b348015620000d457600080fd5b50620000f36004803603810190620000ed91906200131e565b6200027b565b60405162000102919062001639565b60405180910390f35b3480156200011857600080fd5b506200013760048036038101906200013191906200131e565b62000293565b604051620001469190620015f8565b60405180910390f35b3480156200015c57600080fd5b506200017b60048036038101906200017591906200131e565b62000478565b6040516200018a9190620015f8565b60405180910390f35b620001b16004803603810190620001ab91906200134a565b6200065d565b005b620001d16004803603810190620001cb91906200138b565b62000911565b005b348015620001e057600080fd5b50620001ff6004803603810190620001f991906200131e565b62000b60565b6040516200020e9190620015f8565b60405180910390f35b3480156200022457600080fd5b506200022f62000d45565b6040516200023e919062001639565b60405180910390f35b6200026560048036038101906200025f9190620013fa565b62000d4b565b005b600260009054906101000a900461ffff1681565b60036020528060005260406000206000915090505481565b6200029d62001065565b600460008373ffffffffffffffffffffffffffffffffffffffff1673ffffffffffffffffffffffffffffffffffffffff1681526020019081526020016000206040518060800160405290816000820160009054906101000a900473ffffffffffffffffffffffffffffffffffffffff1673ffffffffffffffffffffffffffffffffffffffff1673ffffffffffffffffffffffffffffffffffffffff16815260200160018201805480602002602001604051908101604052809291908181526020018280548015620003c457602002820191906000526020600020905b8160009054906101000a900473ffffffffffffffffffffffffffffffffffffffff1673ffffffffffffffffffffffffffffffffffffffff168152602001906001019080831162000379575b50505050508152602001600282018054620003df90620018c1565b80601f01602080910402602001604051908101604052809291908181526020018280546200040d90620018c1565b80156200045e5780601f1062000432576101008083540402835291602001916200045e565b820191906000526020600020905b8154815290600101906020018083116200044057829003601f168201915b505050505081526020016003820154815250509050919050565b6200048262001065565b600560008373ffffffffffffffffffffffffffffffffffffffff1673ffffffffffffffffffffffffffffffffffffffff1681526020019081526020016000206040518060800160405290816000820160009054906101000a900473ffffffffffffffffffffffffffffffffffffffff1673ffffffffffffffffffffffffffffffffffffffff1673ffffffffffffffffffffffffffffffffffffffff16815260200160018201805480602002602001604051908101604052809291908181526020018280548015620005a957602002820191906000526020600020905b8160009054906101000a900473ffffffffffffffffffffffffffffffffffffffff1673ffffffffffffffffffffffffffffffffffffffff16815260200190600101908083116200055e575b50505050508152602001600282018054620005c490620018c1565b80601f0160208091040260200160405190810160405280929190818152602001828054620005f290620018c1565b8015620006435780601f10620006175761010080835404028352916020019162000643565b820191906000526020600020905b8154815290600101906020018083116200062557829003601f168201915b505050505081526020016003820154815250509050919050565b60008054906101000a900473ffffffffffffffffffffffffffffffffffffffff1673ffffffffffffffffffffffffffffffffffffffff163373ffffffffffffffffffffffffffffffffffffffff1614620006b657600080fd5b6000620006c38362000293565b90508115620007a45780600560008573ffffffffffffffffffffffffffffffffffffffff1673ffffffffffffffffffffffffffffffffffffffff16815260200190815260200160002060008201518160000160006101000a81548173ffffffffffffffffffffffffffffffffffffffff021916908373ffffffffffffffffffffffffffffffffffffffff160217905550602082015181600101908051906020019062000771929190620010a3565b5060408201518160020190805190602001906200079092919062001132565b506060820151816003015590505062000877565b80600660008573ffffffffffffffffffffffffffffffffffffffff1673ffffffffffffffffffffffffffffffffffffffff16815260200190815260200160002060008201518160000160006101000a81548173ffffffffffffffffffffffffffffffffffffffff021916908373ffffffffffffffffffffffffffffffffffffffff160217905550602082015181600101908051906020019062000849929190620010a3565b5060408201518160020190805190602001906200086892919062001132565b50606082015181600301559050505b600460008473ffffffffffffffffffffffffffffffffffffffff1673ffffffffffffffffffffffffffffffffffffffff168152602001908152602001600020600080820160006101000a81549073ffffffffffffffffffffffffffffffffffffffff0219169055600182016000620008f09190620011c3565b600282016000620009029190620011e6565b60038201600090555050505050565b60003390506000620009238562000293565b9050806000015173ffffffffffffffffffffffffffffffffffffffff168273ffffffffffffffffffffffffffffffffffffffff1614156200096357600080fd5b6000600260009054906101000a900461ffff1661ffff16600154620009899190620017a4565b90508082606001511015620009df57808260600151876040517ff53970b3000000000000000000000000000000000000000000000000000000008152600401620009d69392919062001656565b60405180910390fd5b8082606001818151620009f39190620017dc565b9150818152505080600360008573ffffffffffffffffffffffffffffffffffffffff1673ffffffffffffffffffffffffffffffffffffffff168152602001908152602001600020600082825462000a4b919062001747565b92505081905550600060405162000a62906200122c565b604051809103906000f08015801562000a7f573d6000803e3d6000fd5b50905060405180604001604052808781526020018660ff16815250600760008373ffffffffffffffffffffffffffffffffffffffff1673ffffffffffffffffffffffffffffffffffffffff168152602001908152602001600020600082015181600001908051906020019062000af792919062001132565b5060208201518160010160006101000a81548160ff021916908360ff1602179055509050507f6ef95f06320e7a25a04a175ca677b7052bdd97131872c2192525a629f51be770878360405162000b4f929190620015cb565b60405180910390a150505050505050565b62000b6a62001065565b600660008373ffffffffffffffffffffffffffffffffffffffff1673ffffffffffffffffffffffffffffffffffffffff1681526020019081526020016000206040518060800160405290816000820160009054906101000a900473ffffffffffffffffffffffffffffffffffffffff1673ffffffffffffffffffffffffffffffffffffffff1673ffffffffffffffffffffffffffffffffffffffff1681526020016001820180548060200260200160405190810160405280929190818152602001828054801562000c9157602002820191906000526020600020905b8160009054906101000a900473ffffffffffffffffffffffffffffffffffffffff1673ffffffffffffffffffffffffffffffffffffffff168152602001906001019080831162000c46575b5050505050815260200160028201805462000cac90620018c1565b80601f016020809104026020016040519081016040528092919081815260200182805462000cda90620018c1565b801562000d2b5780601f1062000cff5761010080835404028352916020019162000d2b565b820191906000526020600020905b81548152906001019060200180831162000d0d57829003601f168201915b505050505081526020016003820154815250509050919050565b60015481565b6000339050600154600360008373ffffffffffffffffffffffffffffffffffffffff1673ffffffffffffffffffffffffffffffffffffffff16815260200190815260200160002054101562000e1e57600154600360008373ffffffffffffffffffffffffffffffffffffffff1673ffffffffffffffffffffffffffffffffffffffff16815260200190815260200160002054826040517ff53970b300000000000000000000000000000000000000000000000000000000815260040162000e159392919062001656565b60405180910390fd5b600154600360008373ffffffffffffffffffffffffffffffffffffffff1673ffffffffffffffffffffffffffffffffffffffff168152602001908152602001600020600082825462000e719190620017dc565b92505081905550600060405162000e88906200123a565b604051809103906000f08015801562000ea5573d6000803e3d6000fd5b50905060405180608001604052808373ffffffffffffffffffffffffffffffffffffffff168152602001600067ffffffffffffffff81111562000f11577f4e487b7100000000000000000000000000000000000000000000000000000000600052604160045260246000fd5b60405190808252806020026020018201604052801562000f405781602001602082028036833780820191505090505b508152602001848152602001600154815250600460008373ffffffffffffffffffffffffffffffffffffffff1673ffffffffffffffffffffffffffffffffffffffff16815260200190815260200160002060008201518160000160006101000a81548173ffffffffffffffffffffffffffffffffffffffff021916908373ffffffffffffffffffffffffffffffffffffffff160217905550602082015181600101908051906020019062000ff6929190620010a3565b5060408201518160020190805190602001906200101592919062001132565b50606082015181600301559050507f6ef95f06320e7a25a04a175ca677b7052bdd97131872c2192525a629f51be7708260015460405162001058929190620015cb565b60405180910390a1505050565b6040518060800160405280600073ffffffffffffffffffffffffffffffffffffffff1681526020016060815260200160608152602001600081525090565b8280548282559060005260206000209081019282156200111f579160200282015b828111156200111e5782518260006101000a81548173ffffffffffffffffffffffffffffffffffffffff021916908373ffffffffffffffffffffffffffffffffffffffff16021790555091602001919060010190620010c4565b5b5090506200112e919062001248565b5090565b8280546200114090620018c1565b90600052602060002090601f016020900481019282620011645760008555620011b0565b82601f106200117f57805160ff1916838001178555620011b0565b82800160010185558215620011b0579182015b82811115620011af57825182559160200191906001019062001192565b5b509050620011bf919062001248565b5090565b5080546000825590600052602060002090810190620011e3919062001248565b50565b508054620011f490620018c1565b6000825580601f1062001208575062001229565b601f01602090049060005260206000209081019062001228919062001248565b5b50565b6130418062001a4983390190565b6130418062004a8a83390190565b5b808211156200126357600081600090555060010162001249565b5090565b60006200127e6200127884620016bc565b62001693565b9050828152602081018484840111156200129757600080fd5b620012a48482856200187c565b509392505050565b600081359050620012bd81620019fa565b92915050565b600081359050620012d48162001a14565b92915050565b600082601f830112620012ec57600080fd5b8135620012fe84826020860162001267565b91505092915050565b600081359050620013188162001a2e565b92915050565b6000602082840312156200133157600080fd5b60006200134184828501620012ac565b91505092915050565b600080604083850312156200135e57600080fd5b60006200136e85828601620012ac565b92505060206200138185828601620012c3565b9150509250929050565b600080600060608486031215620013a157600080fd5b6000620013b186828701620012ac565b935050602084013567ffffffffffffffff811115620013cf57600080fd5b620013dd86828701620012da565b9250506040620013f08682870162001307565b9150509250925092565b6000602082840312156200140d57600080fd5b600082013567ffffffffffffffff8111156200142857600080fd5b6200143684828501620012da565b91505092915050565b60006200144d838362001459565b60208301905092915050565b620014648162001817565b82525050565b620014758162001817565b82525050565b6000620014888262001702565b62001494818562001725565b9350620014a183620016f2565b8060005b83811015620014d8578151620014bc88826200143f565b9750620014c98362001718565b925050600181019050620014a5565b5085935050505092915050565b6000620014f2826200170d565b620014fe818562001736565b9350620015108185602086016200188b565b6200151b81620019e9565b840191505092915050565b600060808301600083015162001540600086018262001459565b50602083015184820360208601526200155a82826200147b565b91505060408301518482036040860152620015768282620014e5565b91505060608301516200158d6060860182620015a9565b508091505092915050565b620015a38162001837565b82525050565b620015b48162001865565b82525050565b620015c58162001865565b82525050565b6000604082019050620015e260008301856200146a565b620015f16020830184620015ba565b9392505050565b6000602082019050818103600083015262001614818462001526565b905092915050565b600060208201905062001633600083018462001598565b92915050565b6000602082019050620016506000830184620015ba565b92915050565b60006060820190506200166d6000830186620015ba565b6200167c6020830185620015ba565b6200168b60408301846200146a565b949350505050565b60006200169f620016b2565b9050620016ad8282620018f7565b919050565b6000604051905090565b600067ffffffffffffffff821115620016da57620016d9620019ba565b5b620016e582620019e9565b9050602081019050919050565b6000819050602082019050919050565b600081519050919050565b600081519050919050565b6000602082019050919050565b600082825260208201905092915050565b600082825260208201905092915050565b6000620017548262001865565b9150620017618362001865565b9250827fffffffffffffffffffffffffffffffffffffffffffffffffffffffffffffffff038211156200179957620017986200192d565b5b828201905092915050565b6000620017b18262001865565b9150620017be8362001865565b925082620017d157620017d06200195c565b5b828204905092915050565b6000620017e98262001865565b9150620017f68362001865565b9250828210156200180c576200180b6200192d565b5b828203905092915050565b6000620018248262001845565b9050919050565b60008115159050919050565b600061ffff82169050919050565b600073ffffffffffffffffffffffffffffffffffffffff82169050919050565b6000819050919050565b600060ff82169050919050565b82818337600083830152505050565b60005b83811015620018ab5780820151818401526020810190506200188e565b83811115620018bb576000848401525b50505050565b60006002820490506001821680620018da57607f821691505b60208210811415620018f157620018f06200198b565b5b50919050565b6200190282620019e9565b810181811067ffffffffffffffff82111715620019245762001923620019ba565b5b80604052505050565b7f4e487b7100000000000000000000000000000000000000000000000000000000600052601160045260246000fd5b7f4e487b7100000000000000000000000000000000000000000000000000000000600052601260045260246000fd5b7f4e487b7100000000000000000000000000000000000000000000000000000000600052602260045260246000fd5b7f4e487b7100000000000000000000000000000000000000000000000000000000600052604160045260246000fd5b6000601f19601f8301169050919050565b62001a058162001817565b811462001a1157600080fd5b50565b62001a1f816200182b565b811462001a2b57600080fd5b50565b62001a39816200186f565b811462001a4557600080fd5b5056fe60806040523480156200001157600080fd5b506040518060400160405280600b81526020017f526576696577546f6b656e0000000000000000000000000000000000000000008152506040518060400160405280600381526020017f52544b0000000000000000000000000000000000000000000000000000000000815250816000908051906020019062000096929190620001a6565b508060019080519060200190620000af929190620001a6565b505050620000d2620000c6620000d860201b60201c565b620000e060201b60201c565b620002bb565b600033905090565b6000600760009054906101000a900473ffffffffffffffffffffffffffffffffffffffff16905081600760006101000a81548173ffffffffffffffffffffffffffffffffffffffff021916908373ffffffffffffffffffffffffffffffffffffffff1602179055508173ffffffffffffffffffffffffffffffffffffffff168173ffffffffffffffffffffffffffffffffffffffff167f8be0079c531659141344cd1fd0a4f28419497f9722a3daafe3b4186f6b6457e060405160405180910390a35050565b828054620001b49062000256565b90600052602060002090601f016020900481019282620001d8576000855562000224565b82601f10620001f357805160ff191683800117855562000224565b8280016001018555821562000224579182015b828111156200022357825182559160200191906001019062000206565b5b50905062000233919062000237565b5090565b5b808211156200025257600081600090555060010162000238565b5090565b600060028204905060018216806200026f57607f821691505b602082108114156200028657620002856200028c565b5b50919050565b7f4e487b7100000000000000000000000000000000000000000000000000000000600052602260045260246000fd5b612d7680620002cb6000396000f3fe608060405234801561001057600080fd5b506004361061010b5760003560e01c8063715018a6116100a2578063a22cb46511610071578063a22cb465146102a4578063b88d4fde146102c0578063c87b56dd146102dc578063e985e9c51461030c578063f2fde38b1461033c5761010b565b8063715018a6146102425780638da5cb5b1461024c57806395d89b411461026a578063a1448194146102885761010b565b806323b872dd116100de57806323b872dd146101aa57806342842e0e146101c65780636352211e146101e257806370a08231146102125761010b565b806301ffc9a71461011057806306fdde0314610140578063081812fc1461015e578063095ea7b31461018e575b600080fd5b61012a60048036038101906101259190611de8565b610358565b6040516101379190612211565b60405180910390f35b61014861043a565b604051610155919061222c565b60405180910390f35b61017860048036038101906101739190611e3a565b6104cc565b60405161018591906121aa565b60405180910390f35b6101a860048036038101906101a39190611dac565b610551565b005b6101c460048036038101906101bf9190611ca6565b610669565b005b6101e060048036038101906101db9190611ca6565b6106c9565b005b6101fc60048036038101906101f79190611e3a565b6106e9565b60405161020991906121aa565b60405180910390f35b61022c60048036038101906102279190611c41565b61079b565b604051610239919061246e565b60405180910390f35b61024a610853565b005b6102546108db565b60405161026191906121aa565b60405180910390f35b610272610905565b60405161027f919061222c565b60405180910390f35b6102a2600480360381019061029d9190611dac565b610997565b005b6102be60048036038101906102b99190611d70565b610a21565b005b6102da60048036038101906102d59190611cf5565b610a37565b005b6102f660048036038101906102f19190611e3a565b610a99565b604051610303919061222c565b60405180910390f35b61032660048036038101906103219190611c6a565b610aab565b6040516103339190612211565b60405180910390f35b61035660048036038101906103519190611c41565b610b3f565b005b60007f80ac58cd000000000000000000000000000000000000000000000000000000007bffffffffffffffffffffffffffffffffffffffffffffffffffffffff1916827bffffffffffffffffffffffffffffffffffffffffffffffffffffffff1916148061042357507f5b5e139f000000000000000000000000000000000000000000000000000000007bffffffffffffffffffffffffffffffffffffffffffffffffffffffff1916827bffffffffffffffffffffffffffffffffffffffffffffffffffffffff1916145b80610433575061043282610c37565b5b9050919050565b60606000805461044990612693565b80601f016020809104026020016040519081016040528092919081815260200182805461047590612693565b80156104c25780601f10610497576101008083540402835291602001916104c2565b820191906000526020600020905b8154815290600101906020018083116104a557829003601f168201915b5050505050905090565b60006104d782610ca1565b610516576040517f08c379a000000000000000000000000000000000000000000000000000000000815260040161050d906123ae565b60405180910390fd5b6004600083815260200190815260200160002060009054906101000a900473ffffffffffffffffffffffffffffffffffffffff169050919050565b600061055c826106e9565b90508073ffffffffffffffffffffffffffffffffffffffff168373ffffffffffffffffffffffffffffffffffffffff1614156105cd576040517f08c379a00000000000000000000000000000000000000000000000000000000081526004016105c49061242e565b60405180910390fd5b8073ffffffffffffffffffffffffffffffffffffffff166105ec610d0d565b73ffffffffffffffffffffffffffffffffffffffff16148061061b575061061a81610615610d0d565b610aab565b5b61065a576040517f08c379a00000000000000000000000000000000000000000000000000000000081526004016106519061230e565b60405180910390fd5b6106648383610d15565b505050565b61067a610674610d0d565b82610dce565b6106b9576040517f08c379a00000000000000000000000000000000000000000000000000000000081526004016106b09061244e565b60405180910390fd5b6106c4838383610eac565b505050565b6106e483838360405180602001604052806000815250610a37565b505050565b6000806002600084815260200190815260200160002060009054906101000a900473ffffffffffffffffffffffffffffffffffffffff169050600073ffffffffffffffffffffffffffffffffffffffff168173ffffffffffffffffffffffffffffffffffffffff161415610792576040517f08c379a00000000000000000000000000000000000000000000000000000000081526004016107899061234e565b60405180910390fd5b80915050919050565b60008073ffffffffffffffffffffffffffffffffffffffff168273ffffffffffffffffffffffffffffffffffffffff16141561080c576040517f08c379a00000000000000000000000000000000000000000000000000000000081526004016108039061232e565b60405180910390fd5b600360008373ffffffffffffffffffffffffffffffffffffffff1673ffffffffffffffffffffffffffffffffffffffff168152602001908152602001600020549050919050565b61085b610d0d565b73ffffffffffffffffffffffffffffffffffffffff166108796108db565b73ffffffffffffffffffffffffffffffffffffffff16146108cf576040517f08c379a00000000000000000000000000000000000000000000000000000000081526004016108c6906123ce565b60405180910390fd5b6108d96000611108565b565b6000600760009054906101000a900473ffffffffffffffffffffffffffffffffffffffff16905090565b60606001805461091490612693565b80601f016020809104026020016040519081016040528092919081815260200182805461094090612693565b801561098d5780601f106109625761010080835404028352916020019161098d565b820191906000526020600020905b81548152906001019060200180831161097057829003601f168201915b5050505050905090565b61099f610d0d565b73ffffffffffffffffffffffffffffffffffffffff166109bd6108db565b73ffffffffffffffffffffffffffffffffffffffff1614610a13576040517f08c379a0000000000000000000000000000000000000000000000000000000008152600401610a0a906123ce565b60405180910390fd5b610a1d82826111ce565b5050565b610a33610a2c610d0d565b83836111ec565b5050565b610a48610a42610d0d565b83610dce565b610a87576040517f08c379a0000000000000000000000000000000000000000000000000000000008152600401610a7e9061244e565b60405180910390fd5b610a9384848484611359565b50505050565b6060610aa4826113b5565b9050919050565b6000600560008473ffffffffffffffffffffffffffffffffffffffff1673ffffffffffffffffffffffffffffffffffffffff16815260200190815260200160002060008373ffffffffffffffffffffffffffffffffffffffff1673ffffffffffffffffffffffffffffffffffffffff16815260200190815260200160002060009054906101000a900460ff16905092915050565b610b47610d0d565b73ffffffffffffffffffffffffffffffffffffffff16610b656108db565b73ffffffffffffffffffffffffffffffffffffffff1614610bbb576040517f08c379a0000000000000000000000000000000000000000000000000000000008152600401610bb2906123ce565b60405180910390fd5b600073ffffffffffffffffffffffffffffffffffffffff168173ffffffffffffffffffffffffffffffffffffffff161415610c2b576040517f08c379a0000000000000000000000000000000000000000000000000000000008152600401610c229061226e565b60405180910390fd5b610c3481611108565b50565b60007f01ffc9a7000000000000000000000000000000000000000000000000000000007bffffffffffffffffffffffffffffffffffffffffffffffffffffffff1916827bffffffffffffffffffffffffffffffffffffffffffffffffffffffff1916149050919050565b60008073ffffffffffffffffffffffffffffffffffffffff166002600084815260200190815260200160002060009054906101000a900473ffffffffffffffffffffffffffffffffffffffff1673ffffffffffffffffffffffffffffffffffffffff1614159050919050565b600033905090565b816004600083815260200190815260200160002060006101000a81548173ffffffffffffffffffffffffffffffffffffffff021916908373ffffffffffffffffffffffffffffffffffffffff160217905550808273ffffffffffffffffffffffffffffffffffffffff16610d88836106e9565b73ffffffffffffffffffffffffffffffffffffffff167f8c5be1e5ebec7d5bd14f71427d1e84f3dd0314c0f7b2291e5b200ac8c7c3b92560405160405180910390a45050565b6000610dd982610ca1565b610e18576040517f08c379a0000000000000000000000000000000000000000000000000000000008152600401610e0f906122ee565b60405180910390fd5b6000610e23836106e9565b90508073ffffffffffffffffffffffffffffffffffffffff168473ffffffffffffffffffffffffffffffffffffffff161480610e9257508373ffffffffffffffffffffffffffffffffffffffff16610e7a846104cc565b73ffffffffffffffffffffffffffffffffffffffff16145b80610ea35750610ea28185610aab565b5b91505092915050565b8273ffffffffffffffffffffffffffffffffffffffff16610ecc826106e9565b73ffffffffffffffffffffffffffffffffffffffff1614610f22576040517f08c379a0000000000000000000000000000000000000000000000000000000008152600401610f19906123ee565b60405180910390fd5b600073ffffffffffffffffffffffffffffffffffffffff168273ffffffffffffffffffffffffffffffffffffffff161415610f92576040517f08c379a0000000000000000000000000000000000000000000000000000000008152600401610f89906122ae565b60405180910390fd5b610f9d838383611507565b610fa8600082610d15565b6001600360008573ffffffffffffffffffffffffffffffffffffffff1673ffffffffffffffffffffffffffffffffffffffff1681526020019081526020016000206000828254610ff891906125a9565b925050819055506001600360008473ffffffffffffffffffffffffffffffffffffffff1673ffffffffffffffffffffffffffffffffffffffff168152602001908152602001600020600082825461104f9190612522565b92505081905550816002600083815260200190815260200160002060006101000a81548173ffffffffffffffffffffffffffffffffffffffff021916908373ffffffffffffffffffffffffffffffffffffffff160217905550808273ffffffffffffffffffffffffffffffffffffffff168473ffffffffffffffffffffffffffffffffffffffff167fddf252ad1be2c89b69c2b068fc378daa952ba7f163c4a11628f55a4df523b3ef60405160405180910390a4505050565b6000600760009054906101000a900473ffffffffffffffffffffffffffffffffffffffff16905081600760006101000a81548173ffffffffffffffffffffffffffffffffffffffff021916908373ffffffffffffffffffffffffffffffffffffffff1602179055508173ffffffffffffffffffffffffffffffffffffffff168173ffffffffffffffffffffffffffffffffffffffff167f8be0079c531659141344cd1fd0a4f28419497f9722a3daafe3b4186f6b6457e060405160405180910390a35050565b6111e882826040518060200160405280600081525061150c565b5050565b8173ffffffffffffffffffffffffffffffffffffffff168373ffffffffffffffffffffffffffffffffffffffff16141561125b576040517f08c379a0000000000000000000000000000000000000000000000000000000008152600401611252906122ce565b60405180910390fd5b80600560008573ffffffffffffffffffffffffffffffffffffffff1673ffffffffffffffffffffffffffffffffffffffff16815260200190815260200160002060008473ffffffffffffffffffffffffffffffffffffffff1673ffffffffffffffffffffffffffffffffffffffff16815260200190815260200160002060006101000a81548160ff0219169083151502179055508173ffffffffffffffffffffffffffffffffffffffff168373ffffffffffffffffffffffffffffffffffffffff167f17307eab39ab6107e8899845ad3d59bd9653f200f220920489ca2b5937696c318360405161134c9190612211565b60405180910390a3505050565b611364848484610eac565b61137084848484611567565b6113af576040517f08c379a00000000000000000000000000000000000000000000000000000000081526004016113a69061224e565b60405180910390fd5b50505050565b60606113c082610ca1565b6113ff576040517f08c379a00000000000000000000000000000000000000000000000000000000081526004016113f69061238e565b60405180910390fd5b600060066000848152602001908152602001600020805461141f90612693565b80601f016020809104026020016040519081016040528092919081815260200182805461144b90612693565b80156114985780601f1061146d57610100808354040283529160200191611498565b820191906000526020600020905b81548152906001019060200180831161147b57829003601f168201915b5050505050905060006114a96116fe565b90506000815114156114bf578192505050611502565b6000825111156114f45780826040516020016114dc929190612186565b60405160208183030381529060405292505050611502565b6114fd8461173b565b925050505b919050565b505050565b61151683836117e2565b6115236000848484611567565b611562576040517f08c379a00000000000000000000000000000000000000000000000000000000081526004016115599061224e565b60405180910390fd5b505050565b60006115888473ffffffffffffffffffffffffffffffffffffffff166119b0565b156116f1578373ffffffffffffffffffffffffffffffffffffffff1663150b7a026115b1610d0d565b8786866040518563ffffffff1660e01b81526004016115d394939291906121c5565b602060405180830381600087803b1580156115ed57600080fd5b505af192505050801561161e57506040513d601f19601f8201168201806040525081019061161b9190611e11565b60015b6116a1573d806000811461164e576040519150601f19603f3d011682016040523d82523d6000602084013e611653565b606091505b50600081511415611699576040517f08c379a00000000000000000000000000000000000000000000000000000000081526004016116909061224e565b60405180910390fd5b805181602001fd5b63150b7a0260e01b7bffffffffffffffffffffffffffffffffffffffffffffffffffffffff1916817bffffffffffffffffffffffffffffffffffffffffffffffffffffffff1916149150506116f6565b600190505b949350505050565b60606040518060400160405280601481526020017f68747470733a2f2f647075626c6973682e6f7267000000000000000000000000815250905090565b606061174682610ca1565b611785576040517f08c379a000000000000000000000000000000000000000000000000000000000815260040161177c9061240e565b60405180910390fd5b600061178f6116fe565b905060008151116117af57604051806020016040528060008152506117da565b806117b9846119c3565b6040516020016117ca929190612186565b6040516020818303038152906040525b915050919050565b600073ffffffffffffffffffffffffffffffffffffffff168273ffffffffffffffffffffffffffffffffffffffff161415611852576040517f08c379a00000000000000000000000000000000000000000000000000000000081526004016118499061236e565b60405180910390fd5b61185b81610ca1565b1561189b576040517f08c379a00000000000000000000000000000000000000000000000000000000081526004016118929061228e565b60405180910390fd5b6118a760008383611507565b6001600360008473ffffffffffffffffffffffffffffffffffffffff1673ffffffffffffffffffffffffffffffffffffffff16815260200190815260200160002060008282546118f79190612522565b92505081905550816002600083815260200190815260200160002060006101000a81548173ffffffffffffffffffffffffffffffffffffffff021916908373ffffffffffffffffffffffffffffffffffffffff160217905550808273ffffffffffffffffffffffffffffffffffffffff16600073ffffffffffffffffffffffffffffffffffffffff167fddf252ad1be2c89b69c2b068fc378daa952ba7f163c4a11628f55a4df523b3ef60405160405180910390a45050565b600080823b905060008111915050919050565b60606000821415611a0b576040518060400160405280600181526020017f30000000000000000000000000000000000000000000000000000000000000008152509050611b6b565b600082905060005b60008214611a3d578080611a26906126f6565b915050600a82611a369190612578565b9150611a13565b60008167ffffffffffffffff811115611a7f577f4e487b7100000000000000000000000000000000000000000000000000000000600052604160045260246000fd5b6040519080825280601f01601f191660200182016040528015611ab15781602001600182028036833780820191505090505b5090505b60008514611b6457600182611aca91906125a9565b9150600a85611ad9919061273f565b6030611ae59190612522565b60f81b818381518110611b21577f4e487b7100000000000000000000000000000000000000000000000000000000600052603260045260246000fd5b60200101907effffffffffffffffffffffffffffffffffffffffffffffffffffffffffffff1916908160001a905350600a85611b5d9190612578565b9450611ab5565b8093505050505b919050565b6000611b83611b7e846124ae565b612489565b905082815260208101848484011115611b9b57600080fd5b611ba6848285612651565b509392505050565b600081359050611bbd81612ce4565b92915050565b600081359050611bd281612cfb565b92915050565b600081359050611be781612d12565b92915050565b600081519050611bfc81612d12565b92915050565b600082601f830112611c1357600080fd5b8135611c23848260208601611b70565b91505092915050565b600081359050611c3b81612d29565b92915050565b600060208284031215611c5357600080fd5b6000611c6184828501611bae565b91505092915050565b60008060408385031215611c7d57600080fd5b6000611c8b85828601611bae565b9250506020611c9c85828601611bae565b9150509250929050565b600080600060608486031215611cbb57600080fd5b6000611cc986828701611bae565b9350506020611cda86828701611bae565b9250506040611ceb86828701611c2c565b9150509250925092565b60008060008060808587031215611d0b57600080fd5b6000611d1987828801611bae565b9450506020611d2a87828801611bae565b9350506040611d3b87828801611c2c565b925050606085013567ffffffffffffffff811115611d5857600080fd5b611d6487828801611c02565b91505092959194509250565b60008060408385031215611d8357600080fd5b6000611d9185828601611bae565b9250506020611da285828601611bc3565b9150509250929050565b60008060408385031215611dbf57600080fd5b6000611dcd85828601611bae565b9250506020611dde85828601611c2c565b9150509250929050565b600060208284031215611dfa57600080fd5b6000611e0884828501611bd8565b91505092915050565b600060208284031215611e2357600080fd5b6000611e3184828501611bed565b91505092915050565b600060208284031215611e4c57600080fd5b6000611e5a84828501611c2c565b91505092915050565b611e6c816125dd565b82525050565b611e7b816125ef565b82525050565b6000611e8c826124df565b611e9681856124f5565b9350611ea6818560208601612660565b611eaf8161282c565b840191505092915050565b6000611ec5826124ea565b611ecf8185612506565b9350611edf818560208601612660565b611ee88161282c565b840191505092915050565b6000611efe826124ea565b611f088185612517565b9350611f18818560208601612660565b80840191505092915050565b6000611f31603283612506565b9150611f3c8261283d565b604082019050919050565b6000611f54602683612506565b9150611f5f8261288c565b604082019050919050565b6000611f77601c83612506565b9150611f82826128db565b602082019050919050565b6000611f9a602483612506565b9150611fa582612904565b604082019050919050565b6000611fbd601983612506565b9150611fc882612953565b602082019050919050565b6000611fe0602c83612506565b9150611feb8261297c565b604082019050919050565b6000612003603883612506565b915061200e826129cb565b604082019050919050565b6000612026602a83612506565b915061203182612a1a565b604082019050919050565b6000612049602983612506565b915061205482612a69565b604082019050919050565b600061206c602083612506565b915061207782612ab8565b602082019050919050565b600061208f603183612506565b915061209a82612ae1565b604082019050919050565b60006120b2602c83612506565b91506120bd82612b30565b604082019050919050565b60006120d5602083612506565b91506120e082612b7f565b602082019050919050565b60006120f8602983612506565b915061210382612ba8565b604082019050919050565b600061211b602f83612506565b915061212682612bf7565b604082019050919050565b600061213e602183612506565b915061214982612c46565b604082019050919050565b6000612161603183612506565b915061216c82612c95565b604082019050919050565b61218081612647565b82525050565b60006121928285611ef3565b915061219e8284611ef3565b91508190509392505050565b60006020820190506121bf6000830184611e63565b92915050565b60006080820190506121da6000830187611e63565b6121e76020830186611e63565b6121f46040830185612177565b81810360608301526122068184611e81565b905095945050505050565b60006020820190506122266000830184611e72565b92915050565b600060208201905081810360008301526122468184611eba565b905092915050565b6000602082019050818103600083015261226781611f24565b9050919050565b6000602082019050818103600083015261228781611f47565b9050919050565b600060208201905081810360008301526122a781611f6a565b9050919050565b600060208201905081810360008301526122c781611f8d565b9050919050565b600060208201905081810360008301526122e781611fb0565b9050919050565b6000602082019050818103600083015261230781611fd3565b9050919050565b6000602082019050818103600083015261232781611ff6565b9050919050565b6000602082019050818103600083015261234781612019565b9050919050565b600060208201905081810360008301526123678161203c565b9050919050565b600060208201905081810360008301526123878161205f565b9050919050565b600060208201905081810360008301526123a781612082565b9050919050565b600060208201905081810360008301526123c7816120a5565b9050919050565b600060208201905081810360008301526123e7816120c8565b9050919050565b60006020820190508181036000830152612407816120eb565b9050919050565b600060208201905081810360008301526124278161210e565b9050919050565b6000602082019050818103600083015261244781612131565b9050919050565b6000602082019050818103600083015261246781612154565b9050919050565b60006020820190506124836000830184612177565b92915050565b60006124936124a4565b905061249f82826126c5565b919050565b6000604051905090565b600067ffffffffffffffff8211156124c9576124c86127fd565b5b6124d28261282c565b9050602081019050919050565b600081519050919050565b600081519050919050565b600082825260208201905092915050565b600082825260208201905092915050565b600081905092915050565b600061252d82612647565b915061253883612647565b9250827fffffffffffffffffffffffffffffffffffffffffffffffffffffffffffffffff0382111561256d5761256c612770565b5b828201905092915050565b600061258382612647565b915061258e83612647565b92508261259e5761259d61279f565b5b828204905092915050565b60006125b482612647565b91506125bf83612647565b9250828210156125d2576125d1612770565b5b828203905092915050565b60006125e882612627565b9050919050565b60008115159050919050565b60007fffffffff0000000000000000000000000000000000000000000000000000000082169050919050565b600073ffffffffffffffffffffffffffffffffffffffff82169050919050565b6000819050919050565b82818337600083830152505050565b60005b8381101561267e578082015181840152602081019050612663565b8381111561268d576000848401525b50505050565b600060028204905060018216806126ab57607f821691505b602082108114156126bf576126be6127ce565b5b50919050565b6126ce8261282c565b810181811067ffffffffffffffff821117156126ed576126ec6127fd565b5b80604052505050565b600061270182612647565b91507fffffffffffffffffffffffffffffffffffffffffffffffffffffffffffffffff82141561273457612733612770565b5b600182019050919050565b600061274a82612647565b915061275583612647565b9250826127655761276461279f565b5b828206905092915050565b7f4e487b7100000000000000000000000000000000000000000000000000000000600052601160045260246000fd5b7f4e487b7100000000000000000000000000000000000000000000000000000000600052601260045260246000fd5b7f4e487b7100000000000000000000000000000000000000000000000000000000600052602260045260246000fd5b7f4e487b7100000000000000000000000000000000000000000000000000000000600052604160045260246000fd5b6000601f19601f8301169050919050565b7f4552433732313a207472616e7366657220746f206e6f6e20455243373231526560008201527f63656976657220696d706c656d656e7465720000000000000000000000000000602082015250565b7f4f776e61626c653a206e6577206f776e657220697320746865207a65726f206160008201527f6464726573730000000000000000000000000000000000000000000000000000602082015250565b7f4552433732313a20746f6b656e20616c7265616479206d696e74656400000000600082015250565b7f4552433732313a207472616e7366657220746f20746865207a65726f2061646460008201527f7265737300000000000000000000000000000000000000000000000000000000602082015250565b7f4552433732313a20617070726f766520746f2063616c6c657200000000000000600082015250565b7f4552433732313a206f70657261746f7220717565727920666f72206e6f6e657860008201527f697374656e7420746f6b656e0000000000000000000000000000000000000000602082015250565b7f4552433732313a20617070726f76652063616c6c6572206973206e6f74206f7760008201527f6e6572206e6f7220617070726f76656420666f7220616c6c0000000000000000602082015250565b7f4552433732313a2062616c616e636520717565727920666f7220746865207a6560008201527f726f206164647265737300000000000000000000000000000000000000000000602082015250565b7f4552433732313a206f776e657220717565727920666f72206e6f6e657869737460008201527f656e7420746f6b656e0000000000000000000000000000000000000000000000602082015250565b7f4552433732313a206d696e7420746f20746865207a65726f2061646472657373600082015250565b7f45524337323155524953746f726167653a2055524920717565727920666f722060008201527f6e6f6e6578697374656e7420746f6b656e000000000000000000000000000000602082015250565b7f4552433732313a20617070726f76656420717565727920666f72206e6f6e657860008201527f697374656e7420746f6b656e0000000000000000000000000000000000000000602082015250565b7f4f776e61626c653a2063616c6c6572206973206e6f7420746865206f776e6572600082015250565b7f4552433732313a207472616e73666572206f6620746f6b656e2074686174206960008201527f73206e6f74206f776e0000000000000000000000000000000000000000000000602082015250565b7f4552433732314d657461646174613a2055524920717565727920666f72206e6f60008201527f6e6578697374656e7420746f6b656e0000000000000000000000000000000000602082015250565b7f4552433732313a20617070726f76616c20746f2063757272656e74206f776e6560008201527f7200000000000000000000000000000000000000000000000000000000000000602082015250565b7f4552433732313a207472616e736665722063616c6c6572206973206e6f74206f60008201527f776e6572206e6f7220617070726f766564000000000000000000000000000000602082015250565b612ced816125dd565b8114612cf857600080fd5b50565b612d04816125ef565b8114612d0f57600080fd5b50565b612d1b816125fb565b8114612d2657600080fd5b50565b612d3281612647565b8114612d3d57600080fd5b5056fea2646970667358221220089cdab7dfc41d5dc333aebf19434358ee6f2196011d01af689bdfcd277367a464736f6c6343000804003360806040523480156200001157600080fd5b506040518060400160405280600a81526020017f5061706572546f6b656e000000000000000000000000000000000000000000008152506040518060400160405280600381526020017f50544b0000000000000000000000000000000000000000000000000000000000815250816000908051906020019062000096929190620001a6565b508060019080519060200190620000af929190620001a6565b505050620000d2620000c6620000d860201b60201c565b620000e060201b60201c565b620002bb565b600033905090565b6000600760009054906101000a900473ffffffffffffffffffffffffffffffffffffffff16905081600760006101000a81548173ffffffffffffffffffffffffffffffffffffffff021916908373ffffffffffffffffffffffffffffffffffffffff1602179055508173ffffffffffffffffffffffffffffffffffffffff168173ffffffffffffffffffffffffffffffffffffffff167f8be0079c531659141344cd1fd0a4f28419497f9722a3daafe3b4186f6b6457e060405160405180910390a35050565b828054620001b49062000256565b90600052602060002090601f016020900481019282620001d8576000855562000224565b82601f10620001f357805160ff191683800117855562000224565b8280016001018555821562000224579182015b828111156200022357825182559160200191906001019062000206565b5b50905062000233919062000237565b5090565b5b808211156200025257600081600090555060010162000238565b5090565b600060028204905060018216806200026f57607f821691505b602082108114156200028657620002856200028c565b5b50919050565b7f4e487b7100000000000000000000000000000000000000000000000000000000600052602260045260246000fd5b612d7680620002cb6000396000f3fe608060405234801561001057600080fd5b506004361061010b5760003560e01c8063715018a6116100a2578063a22cb46511610071578063a22cb465146102a4578063b88d4fde146102c0578063c87b56dd146102dc578063e985e9c51461030c578063f2fde38b1461033c5761010b565b8063715018a6146102425780638da5cb5b1461024c57806395d89b411461026a578063a1448194146102885761010b565b806323b872dd116100de57806323b872dd146101aa57806342842e0e146101c65780636352211e146101e257806370a08231146102125761010b565b806301ffc9a71461011057806306fdde0314610140578063081812fc1461015e578063095ea7b31461018e575b600080fd5b61012a60048036038101906101259190611de8565b610358565b6040516101379190612211565b60405180910390f35b61014861043a565b604051610155919061222c565b60405180910390f35b61017860048036038101906101739190611e3a565b6104cc565b60405161018591906121aa565b60405180910390f35b6101a860048036038101906101a39190611dac565b610551565b005b6101c460048036038101906101bf9190611ca6565b610669565b005b6101e060048036038101906101db9190611ca6565b6106c9565b005b6101fc60048036038101906101f79190611e3a565b6106e9565b60405161020991906121aa565b60405180910390f35b61022c60048036038101906102279190611c41565b61079b565b604051610239919061246e565b60405180910390f35b61024a610853565b005b6102546108db565b60405161026191906121aa565b60405180910390f35b610272610905565b60405161027f919061222c565b60405180910390f35b6102a2600480360381019061029d9190611dac565b610997565b005b6102be60048036038101906102b99190611d70565b610a21565b005b6102da60048036038101906102d59190611cf5565b610a37565b005b6102f660048036038101906102f19190611e3a565b610a99565b604051610303919061222c565b60405180910390f35b61032660048036038101906103219190611c6a565b610aab565b6040516103339190612211565b60405180910390f35b61035660048036038101906103519190611c41565b610b3f565b005b60007f80ac58cd000000000000000000000000000000000000000000000000000000007bffffffffffffffffffffffffffffffffffffffffffffffffffffffff1916827bffffffffffffffffffffffffffffffffffffffffffffffffffffffff1916148061042357507f5b5e139f000000000000000000000000000000000000000000000000000000007bffffffffffffffffffffffffffffffffffffffffffffffffffffffff1916827bffffffffffffffffffffffffffffffffffffffffffffffffffffffff1916145b80610433575061043282610c37565b5b9050919050565b60606000805461044990612693565b80601f016020809104026020016040519081016040528092919081815260200182805461047590612693565b80156104c25780601f10610497576101008083540402835291602001916104c2565b820191906000526020600020905b8154815290600101906020018083116104a557829003601f168201915b5050505050905090565b60006104d782610ca1565b610516576040517f08c379a000000000000000000000000000000000000000000000000000000000815260040161050d906123ae565b60405180910390fd5b6004600083815260200190815260200160002060009054906101000a900473ffffffffffffffffffffffffffffffffffffffff169050919050565b600061055c826106e9565b90508073ffffffffffffffffffffffffffffffffffffffff168373ffffffffffffffffffffffffffffffffffffffff1614156105cd576040517f08c379a00000000000000000000000000000000000000000000000000000000081526004016105c49061242e565b60405180910390fd5b8073ffffffffffffffffffffffffffffffffffffffff166105ec610d0d565b73ffffffffffffffffffffffffffffffffffffffff16148061061b575061061a81610615610d0d565b610aab565b5b61065a576040517f08c379a00000000000000000000000000000000000000000000000000000000081526004016106519061230e565b60405180910390fd5b6106648383610d15565b505050565b61067a610674610d0d565b82610dce565b6106b9576040517f08c379a00000000000000000000000000000000000000000000000000000000081526004016106b09061244e565b60405180910390fd5b6106c4838383610eac565b505050565b6106e483838360405180602001604052806000815250610a37565b505050565b6000806002600084815260200190815260200160002060009054906101000a900473ffffffffffffffffffffffffffffffffffffffff169050600073ffffffffffffffffffffffffffffffffffffffff168173ffffffffffffffffffffffffffffffffffffffff161415610792576040517f08c379a00000000000000000000000000000000000000000000000000000000081526004016107899061234e565b60405180910390fd5b80915050919050565b60008073ffffffffffffffffffffffffffffffffffffffff168273ffffffffffffffffffffffffffffffffffffffff16141561080c576040517f08c379a00000000000000000000000000000000000000000000000000000000081526004016108039061232e565b60405180910390fd5b600360008373ffffffffffffffffffffffffffffffffffffffff1673ffffffffffffffffffffffffffffffffffffffff168152602001908152602001600020549050919050565b61085b610d0d565b73ffffffffffffffffffffffffffffffffffffffff166108796108db565b73ffffffffffffffffffffffffffffffffffffffff16146108cf576040517f08c379a00000000000000000000000000000000000000000000000000000000081526004016108c6906123ce565b60405180910390fd5b6108d96000611108565b565b6000600760009054906101000a900473ffffffffffffffffffffffffffffffffffffffff16905090565b60606001805461091490612693565b80601f016020809104026020016040519081016040528092919081815260200182805461094090612693565b801561098d5780601f106109625761010080835404028352916020019161098d565b820191906000526020600020905b81548152906001019060200180831161097057829003601f168201915b5050505050905090565b61099f610d0d565b73ffffffffffffffffffffffffffffffffffffffff166109bd6108db565b73ffffffffffffffffffffffffffffffffffffffff1614610a13576040517f08c379a0000000000000000000000000000000000000000000000000000000008152600401610a0a906123ce565b60405180910390fd5b610a1d82826111ce565b5050565b610a33610a2c610d0d565b83836111ec565b5050565b610a48610a42610d0d565b83610dce565b610a87576040517f08c379a0000000000000000000000000000000000000000000000000000000008152600401610a7e9061244e565b60405180910390fd5b610a9384848484611359565b50505050565b6060610aa4826113b5565b9050919050565b6000600560008473ffffffffffffffffffffffffffffffffffffffff1673ffffffffffffffffffffffffffffffffffffffff16815260200190815260200160002060008373ffffffffffffffffffffffffffffffffffffffff1673ffffffffffffffffffffffffffffffffffffffff16815260200190815260200160002060009054906101000a900460ff16905092915050565b610b47610d0d565b73ffffffffffffffffffffffffffffffffffffffff16610b656108db565b73ffffffffffffffffffffffffffffffffffffffff1614610bbb576040517f08c379a0000000000000000000000000000000000000000000000000000000008152600401610bb2906123ce565b60405180910390fd5b600073ffffffffffffffffffffffffffffffffffffffff168173ffffffffffffffffffffffffffffffffffffffff161415610c2b576040517f08c379a0000000000000000000000000000000000000000000000000000000008152600401610c229061226e565b60405180910390fd5b610c3481611108565b50565b60007f01ffc9a7000000000000000000000000000000000000000000000000000000007bffffffffffffffffffffffffffffffffffffffffffffffffffffffff1916827bffffffffffffffffffffffffffffffffffffffffffffffffffffffff1916149050919050565b60008073ffffffffffffffffffffffffffffffffffffffff166002600084815260200190815260200160002060009054906101000a900473ffffffffffffffffffffffffffffffffffffffff1673ffffffffffffffffffffffffffffffffffffffff1614159050919050565b600033905090565b816004600083815260200190815260200160002060006101000a81548173ffffffffffffffffffffffffffffffffffffffff021916908373ffffffffffffffffffffffffffffffffffffffff160217905550808273ffffffffffffffffffffffffffffffffffffffff16610d88836106e9565b73ffffffffffffffffffffffffffffffffffffffff167f8c5be1e5ebec7d5bd14f71427d1e84f3dd0314c0f7b2291e5b200ac8c7c3b92560405160405180910390a45050565b6000610dd982610ca1565b610e18576040517f08c379a0000000000000000000000000000000000000000000000000000000008152600401610e0f906122ee565b60405180910390fd5b6000610e23836106e9565b90508073ffffffffffffffffffffffffffffffffffffffff168473ffffffffffffffffffffffffffffffffffffffff161480610e9257508373ffffffffffffffffffffffffffffffffffffffff16610e7a846104cc565b73ffffffffffffffffffffffffffffffffffffffff16145b80610ea35750610ea28185610aab565b5b91505092915050565b8273ffffffffffffffffffffffffffffffffffffffff16610ecc826106e9565b73ffffffffffffffffffffffffffffffffffffffff1614610f22576040517f08c379a0000000000000000000000000000000000000000000000000000000008152600401610f19906123ee565b60405180910390fd5b600073ffffffffffffffffffffffffffffffffffffffff168273ffffffffffffffffffffffffffffffffffffffff161415610f92576040517f08c379a0000000000000000000000000000000000000000000000000000000008152600401610f89906122ae565b60405180910390fd5b610f9d838383611507565b610fa8600082610d15565b6001600360008573ffffffffffffffffffffffffffffffffffffffff1673ffffffffffffffffffffffffffffffffffffffff1681526020019081526020016000206000828254610ff891906125a9565b925050819055506001600360008473ffffffffffffffffffffffffffffffffffffffff1673ffffffffffffffffffffffffffffffffffffffff168152602001908152602001600020600082825461104f9190612522565b92505081905550816002600083815260200190815260200160002060006101000a81548173ffffffffffffffffffffffffffffffffffffffff021916908373ffffffffffffffffffffffffffffffffffffffff160217905550808273ffffffffffffffffffffffffffffffffffffffff168473ffffffffffffffffffffffffffffffffffffffff167fddf252ad1be2c89b69c2b068fc378daa952ba7f163c4a11628f55a4df523b3ef60405160405180910390a4505050565b6000600760009054906101000a900473ffffffffffffffffffffffffffffffffffffffff16905081600760006101000a81548173ffffffffffffffffffffffffffffffffffffffff021916908373ffffffffffffffffffffffffffffffffffffffff1602179055508173ffffffffffffffffffffffffffffffffffffffff168173ffffffffffffffffffffffffffffffffffffffff167f8be0079c531659141344cd1fd0a4f28419497f9722a3daafe3b4186f6b6457e060405160405180910390a35050565b6111e882826040518060200160405280600081525061150c565b5050565b8173ffffffffffffffffffffffffffffffffffffffff168373ffffffffffffffffffffffffffffffffffffffff16141561125b576040517f08c379a0000000000000000000000000000000000000000000000000000000008152600401611252906122ce565b60405180910390fd5b80600560008573ffffffffffffffffffffffffffffffffffffffff1673ffffffffffffffffffffffffffffffffffffffff16815260200190815260200160002060008473ffffffffffffffffffffffffffffffffffffffff1673ffffffffffffffffffffffffffffffffffffffff16815260200190815260200160002060006101000a81548160ff0219169083151502179055508173ffffffffffffffffffffffffffffffffffffffff168373ffffffffffffffffffffffffffffffffffffffff167f17307eab39ab6107e8899845ad3d59bd9653f200f220920489ca2b5937696c318360405161134c9190612211565b60405180910390a3505050565b611364848484610eac565b61137084848484611567565b6113af576040517f08c379a00000000000000000000000000000000000000000000000000000000081526004016113a69061224e565b60405180910390fd5b50505050565b60606113c082610ca1565b6113ff576040517f08c379a00000000000000000000000000000000000000000000000000000000081526004016113f69061238e565b60405180910390fd5b600060066000848152602001908152602001600020805461141f90612693565b80601f016020809104026020016040519081016040528092919081815260200182805461144b90612693565b80156114985780601f1061146d57610100808354040283529160200191611498565b820191906000526020600020905b81548152906001019060200180831161147b57829003601f168201915b5050505050905060006114a96116fe565b90506000815114156114bf578192505050611502565b6000825111156114f45780826040516020016114dc929190612186565b60405160208183030381529060405292505050611502565b6114fd8461173b565b925050505b919050565b505050565b61151683836117e2565b6115236000848484611567565b611562576040517f08c379a00000000000000000000000000000000000000000000000000000000081526004016115599061224e565b60405180910390fd5b505050565b60006115888473ffffffffffffffffffffffffffffffffffffffff166119b0565b156116f1578373ffffffffffffffffffffffffffffffffffffffff1663150b7a026115b1610d0d565b8786866040518563ffffffff1660e01b81526004016115d394939291906121c5565b602060405180830381600087803b1580156115ed57600080fd5b505af192505050801561161e57506040513d601f19601f8201168201806040525081019061161b9190611e11565b60015b6116a1573d806000811461164e576040519150601f19603f3d011682016040523d82523d6000602084013e611653565b606091505b50600081511415611699576040517f08c379a00000000000000000000000000000000000000000000000000000000081526004016116909061224e565b60405180910390fd5b805181602001fd5b63150b7a0260e01b7bffffffffffffffffffffffffffffffffffffffffffffffffffffffff1916817bffffffffffffffffffffffffffffffffffffffffffffffffffffffff1916149150506116f6565b600190505b949350505050565b60606040518060400160405280601481526020017f68747470733a2f2f647075626c6973682e6f7267000000000000000000000000815250905090565b606061174682610ca1565b611785576040517f08c379a000000000000000000000000000000000000000000000000000000000815260040161177c9061240e565b60405180910390fd5b600061178f6116fe565b905060008151116117af57604051806020016040528060008152506117da565b806117b9846119c3565b6040516020016117ca929190612186565b6040516020818303038152906040525b915050919050565b600073ffffffffffffffffffffffffffffffffffffffff168273ffffffffffffffffffffffffffffffffffffffff161415611852576040517f08c379a00000000000000000000000000000000000000000000000000000000081526004016118499061236e565b60405180910390fd5b61185b81610ca1565b1561189b576040517f08c379a00000000000000000000000000000000000000000000000000000000081526004016118929061228e565b60405180910390fd5b6118a760008383611507565b6001600360008473ffffffffffffffffffffffffffffffffffffffff1673ffffffffffffffffffffffffffffffffffffffff16815260200190815260200160002060008282546118f79190612522565b92505081905550816002600083815260200190815260200160002060006101000a81548173ffffffffffffffffffffffffffffffffffffffff021916908373ffffffffffffffffffffffffffffffffffffffff160217905550808273ffffffffffffffffffffffffffffffffffffffff16600073ffffffffffffffffffffffffffffffffffffffff167fddf252ad1be2c89b69c2b068fc378daa952ba7f163c4a11628f55a4df523b3ef60405160405180910390a45050565b600080823b905060008111915050919050565b60606000821415611a0b576040518060400160405280600181526020017f30000000000000000000000000000000000000000000000000000000000000008152509050611b6b565b600082905060005b60008214611a3d578080611a26906126f6565b915050600a82611a369190612578565b9150611a13565b60008167ffffffffffffffff811115611a7f577f4e487b7100000000000000000000000000000000000000000000000000000000600052604160045260246000fd5b6040519080825280601f01601f191660200182016040528015611ab15781602001600182028036833780820191505090505b5090505b60008514611b6457600182611aca91906125a9565b9150600a85611ad9919061273f565b6030611ae59190612522565b60f81b818381518110611b21577f4e487b7100000000000000000000000000000000000000000000000000000000600052603260045260246000fd5b60200101907effffffffffffffffffffffffffffffffffffffffffffffffffffffffffffff1916908160001a905350600a85611b5d9190612578565b9450611ab5565b8093505050505b919050565b6000611b83611b7e846124ae565b612489565b905082815260208101848484011115611b9b57600080fd5b611ba6848285612651565b509392505050565b600081359050611bbd81612ce4565b92915050565b600081359050611bd281612cfb565b92915050565b600081359050611be781612d12565b92915050565b600081519050611bfc81612d12565b92915050565b600082601f830112611c1357600080fd5b8135611c23848260208601611b70565b91505092915050565b600081359050611c3b81612d29565b92915050565b600060208284031215611c5357600080fd5b6000611c6184828501611bae565b91505092915050565b60008060408385031215611c7d57600080fd5b6000611c8b85828601611bae565b9250506020611c9c85828601611bae565b9150509250929050565b600080600060608486031215611cbb57600080fd5b6000611cc986828701611bae565b9350506020611cda86828701611bae565b9250506040611ceb86828701611c2c565b9150509250925092565b60008060008060808587031215611d0b57600080fd5b6000611d1987828801611bae565b9450506020611d2a87828801611bae565b9350506040611d3b87828801611c2c565b925050606085013567ffffffffffffffff811115611d5857600080fd5b611d6487828801611c02565b91505092959194509250565b60008060408385031215611d8357600080fd5b6000611d9185828601611bae565b9250506020611da285828601611bc3565b9150509250929050565b60008060408385031215611dbf57600080fd5b6000611dcd85828601611bae565b9250506020611dde85828601611c2c565b9150509250929050565b600060208284031215611dfa57600080fd5b6000611e0884828501611bd8565b91505092915050565b600060208284031215611e2357600080fd5b6000611e3184828501611bed565b91505092915050565b600060208284031215611e4c57600080fd5b6000611e5a84828501611c2c565b91505092915050565b611e6c816125dd565b82525050565b611e7b816125ef565b82525050565b6000611e8c826124df565b611e9681856124f5565b9350611ea6818560208601612660565b611eaf8161282c565b840191505092915050565b6000611ec5826124ea565b611ecf8185612506565b9350611edf818560208601612660565b611ee88161282c565b840191505092915050565b6000611efe826124ea565b611f088185612517565b9350611f18818560208601612660565b80840191505092915050565b6000611f31603283612506565b9150611f3c8261283d565b604082019050919050565b6000611f54602683612506565b9150611f5f8261288c565b604082019050919050565b6000611f77601c83612506565b9150611f82826128db565b602082019050919050565b6000611f9a602483612506565b9150611fa582612904565b604082019050919050565b6000611fbd601983612506565b9150611fc882612953565b602082019050919050565b6000611fe0602c83612506565b9150611feb8261297c565b604082019050919050565b6000612003603883612506565b915061200e826129cb565b604082019050919050565b6000612026602a83612506565b915061203182612a1a565b604082019050919050565b6000612049602983612506565b915061205482612a69565b604082019050919050565b600061206c602083612506565b915061207782612ab8565b602082019050919050565b600061208f603183612506565b915061209a82612ae1565b604082019050919050565b60006120b2602c83612506565b91506120bd82612b30565b604082019050919050565b60006120d5602083612506565b91506120e082612b7f565b602082019050919050565b60006120f8602983612506565b915061210382612ba8565b604082019050919050565b600061211b602f83612506565b915061212682612bf7565b604082019050919050565b600061213e602183612506565b915061214982612c46565b604082019050919050565b6000612161603183612506565b915061216c82612c95565b604082019050919050565b61218081612647565b82525050565b60006121928285611ef3565b915061219e8284611ef3565b91508190509392505050565b60006020820190506121bf6000830184611e63565b92915050565b60006080820190506121da6000830187611e63565b6121e76020830186611e63565b6121f46040830185612177565b81810360608301526122068184611e81565b905095945050505050565b60006020820190506122266000830184611e72565b92915050565b600060208201905081810360008301526122468184611eba565b905092915050565b6000602082019050818103600083015261226781611f24565b9050919050565b6000602082019050818103600083015261228781611f47565b9050919050565b600060208201905081810360008301526122a781611f6a565b9050919050565b600060208201905081810360008301526122c781611f8d565b9050919050565b600060208201905081810360008301526122e781611fb0565b9050919050565b6000602082019050818103600083015261230781611fd3565b9050919050565b6000602082019050818103600083015261232781611ff6565b9050919050565b6000602082019050818103600083015261234781612019565b9050919050565b600060208201905081810360008301526123678161203c565b9050919050565b600060208201905081810360008301526123878161205f565b9050919050565b600060208201905081810360008301526123a781612082565b9050919050565b600060208201905081810360008301526123c7816120a5565b9050919050565b600060208201905081810360008301526123e7816120c8565b9050919050565b60006020820190508181036000830152612407816120eb565b9050919050565b600060208201905081810360008301526124278161210e565b9050919050565b6000602082019050818103600083015261244781612131565b9050919050565b6000602082019050818103600083015261246781612154565b9050919050565b60006020820190506124836000830184612177565b92915050565b60006124936124a4565b905061249f82826126c5565b919050565b6000604051905090565b600067ffffffffffffffff8211156124c9576124c86127fd565b5b6124d28261282c565b9050602081019050919050565b600081519050919050565b600081519050919050565b600082825260208201905092915050565b600082825260208201905092915050565b600081905092915050565b600061252d82612647565b915061253883612647565b9250827fffffffffffffffffffffffffffffffffffffffffffffffffffffffffffffffff0382111561256d5761256c612770565b5b828201905092915050565b600061258382612647565b915061258e83612647565b92508261259e5761259d61279f565b5b828204905092915050565b60006125b482612647565b91506125bf83612647565b9250828210156125d2576125d1612770565b5b828203905092915050565b60006125e882612627565b9050919050565b60008115159050919050565b60007fffffffff0000000000000000000000000000000000000000000000000000000082169050919050565b600073ffffffffffffffffffffffffffffffffffffffff82169050919050565b6000819050919050565b82818337600083830152505050565b60005b8381101561267e578082015181840152602081019050612663565b8381111561268d576000848401525b50505050565b600060028204905060018216806126ab57607f821691505b602082108114156126bf576126be6127ce565b5b50919050565b6126ce8261282c565b810181811067ffffffffffffffff821117156126ed576126ec6127fd565b5b80604052505050565b600061270182612647565b91507fffffffffffffffffffffffffffffffffffffffffffffffffffffffffffffffff82141561273457612733612770565b5b600182019050919050565b600061274a82612647565b915061275583612647565b9250826127655761276461279f565b5b828206905092915050565b7f4e487b7100000000000000000000000000000000000000000000000000000000600052601160045260246000fd5b7f4e487b7100000000000000000000000000000000000000000000000000000000600052601260045260246000fd5b7f4e487b7100000000000000000000000000000000000000000000000000000000600052602260045260246000fd5b7f4e487b7100000000000000000000000000000000000000000000000000000000600052604160045260246000fd5b6000601f19601f8301169050919050565b7f4552433732313a207472616e7366657220746f206e6f6e20455243373231526560008201527f63656976657220696d706c656d656e7465720000000000000000000000000000602082015250565b7f4f776e61626c653a206e6577206f776e657220697320746865207a65726f206160008201527f6464726573730000000000000000000000000000000000000000000000000000602082015250565b7f4552433732313a20746f6b656e20616c7265616479206d696e74656400000000600082015250565b7f4552433732313a207472616e7366657220746f20746865207a65726f2061646460008201527f7265737300000000000000000000000000000000000000000000000000000000602082015250565b7f4552433732313a20617070726f766520746f2063616c6c657200000000000000600082015250565b7f4552433732313a206f70657261746f7220717565727920666f72206e6f6e657860008201527f697374656e7420746f6b656e0000000000000000000000000000000000000000602082015250565b7f4552433732313a20617070726f76652063616c6c6572206973206e6f74206f7760008201527f6e6572206e6f7220617070726f76656420666f7220616c6c0000000000000000602082015250565b7f4552433732313a2062616c616e636520717565727920666f7220746865207a6560008201527f726f206164647265737300000000000000000000000000000000000000000000602082015250565b7f4552433732313a206f776e657220717565727920666f72206e6f6e657869737460008201527f656e7420746f6b656e0000000000000000000000000000000000000000000000602082015250565b7f4552433732313a206d696e7420746f20746865207a65726f2061646472657373600082015250565b7f45524337323155524953746f726167653a2055524920717565727920666f722060008201527f6e6f6e6578697374656e7420746f6b656e000000000000000000000000000000602082015250565b7f4552433732313a20617070726f76656420717565727920666f72206e6f6e657860008201527f697374656e7420746f6b656e0000000000000000000000000000000000000000602082015250565b7f4f776e61626c653a2063616c6c6572206973206e6f7420746865206f776e6572600082015250565b7f4552433732313a207472616e73666572206f6620746f6b656e2074686174206960008201527f73206e6f74206f776e0000000000000000000000000000000000000000000000602082015250565b7f4552433732314d657461646174613a2055524920717565727920666f72206e6f60008201527f6e6578697374656e7420746f6b656e0000000000000000000000000000000000602082015250565b7f4552433732313a20617070726f76616c20746f2063757272656e74206f776e6560008201527f7200000000000000000000000000000000000000000000000000000000000000602082015250565b7f4552433732313a207472616e736665722063616c6c6572206973206e6f74206f60008201527f776e6572206e6f7220617070726f766564000000000000000000000000000000602082015250565b612ced816125dd565b8114612cf857600080fd5b50565b612d04816125ef565b8114612d0f57600080fd5b50565b612d1b816125fb565b8114612d2657600080fd5b50565b612d3281612647565b8114612d3d57600080fd5b5056fea2646970667358221220b0384ba02315a157ac5d6c1af96c99eed65940bf4746ba94154496b48e8a628064736f6c63430008040033a2646970667358221220bae8600d28c064681869d20ad965a1a7dcf88fee1af2cbf5b3836f315060fb2c64736f6c63430008040033",
  "immutableReferences": {},
  "source": "// SPDX-License-Identifier: MIT\npragma solidity ^0.8.4;\n\nimport \"@openzeppelin/contracts/utils/Context.sol\";\n\nimport \"./ReviewToken.sol\";\nimport \"./PaperToken.sol\";\n\ncontract DPublish is Context {\n    address private Editor; // editor's address\n    uint256 public publishing_fee; // publishing fee\n    uint16 public desired_number_of_reviews; // desired number of reviews per paper\n\n    /**\n     * Represents a paper.\n     */\n    struct Paper {\n        address author; // corresponding author address\n        address[] reviews; // corresponding `ReviewToken`s\n\n        string url; // URL to the paper\n\n        uint256 value; // value available for this paper\n    }\n    /**\n     * Represents a review.\n     */\n    struct Review {\n        string message; // review\n        uint8 rating; // rating (adapted from NeurIPS scale):\n        // 0 = Trivial or wrong or known. I'm surprised anybody wrote such a paper.\n        // 1 = A strong rejection. I'm suprised it was submitted here.\n        // 2 = A clear rejection.\n        // 3 = An OK paper, but not good enough. A rejection.\n        // 4 = Marginally below the acceptance threshold.\n        // 5 = Marginally above the acceptance threshold.\n        // 6 = Good paper. Accept.\n        // 7 = Top 50% of accepted papers, a very good paper, a clear accept.\n        // 8 = Top 15% of accepted papers, an excellent paper, a strong accept.\n        // 9 = Top 5% of accepted papers, a seminal paper for the ages.\n    }\n\n    /**\n     * Balances of each member of our network.\n     */\n    mapping(address => uint256) public balances;\n    /**\n     * Papers under review. Maps `PaperToken`s to `Paper` structs.\n     */\n    mapping(address => Paper) private papers_under_review;\n    /**\n     * Accepted papers. Maps `PaperToken`s to `Paper` structs.\n     */\n    mapping(address => Paper) private accepted_papers;\n    /**\n     * Rejected papers. Maps `PaperToken`s to `Paper` structs.\n     */\n    mapping(address => Paper) private rejected_papers;\n    /**\n     * Reviews. Maps `ReviewToken`s to `Review` structs.\n     */\n    mapping(address => Review) private reviews;\n\n    event PaymentReceived(address from, uint256 amount);\n\n    error NotEnoughFunds(uint256 requested, uint256 available, address where);\n\n    /**\n     * Submit a manuscript\n     */\n    function submit_manuscript(string memory url) public payable {\n        address author = msg.sender;\n\n        // Submitting a paper has a corresponding fee.\n        // Let's pay it; and, if not possible, revert with an error.\n        if (balances[author] < publishing_fee)\n            revert NotEnoughFunds(publishing_fee, balances[author], author);\n        balances[author] -= publishing_fee;\n\n        // Create a new paper under review\n        address papertoken = address(new PaperToken());\n        papers_under_review[papertoken] = Paper(\n            author, // NOTE: does this break anonimity? Not necessarily\n            new address[](0),\n            url,\n            publishing_fee\n        );\n\n        // Finally, emit an event.\n        emit PaymentReceived(author, publishing_fee);\n    }\n\n    /**\n     * Get a paper under review\n     */\n    function get_paper_under_review(address papertoken) public view returns(Paper memory) {\n        return papers_under_review[papertoken];\n    }\n\n    /**\n     * Get an accepted paper\n     */\n    function get_accepted_paper(address papertoken) public view returns(Paper memory) {\n        return accepted_papers[papertoken];\n    }\n\n    /**\n     * Get a rejected paper\n     */\n    function get_rejected_paper(address papertoken) public view returns(Paper memory) {\n        return rejected_papers[papertoken];\n    }\n\n    /**\n     * Review a paper\n     */\n    function review_paper(address papertoken, string memory review, uint8 rating) public payable {\n        // NOTE: we don't check if the same reviewer is reviewing the same paper twice.\n        address reviewer = msg.sender;\n\n        Paper memory paper = get_paper_under_review(papertoken);\n        require(reviewer != paper.author);\n\n        // Reviewing a paper has a corresponding bounty.\n        // Let's pay it; and, if not possible, revert with an error.\n        uint256 review_bounty = publishing_fee / desired_number_of_reviews;\n        if (paper.value < review_bounty)\n            revert NotEnoughFunds(review_bounty, paper.value, papertoken);\n        paper.value -= review_bounty;\n        balances[reviewer] += review_bounty;\n\n        // Let's save this review.\n        address reviewtoken = address(new ReviewToken());\n        reviews[reviewtoken] = Review(review, rating);\n\n        emit PaymentReceived(papertoken, review_bounty);\n    }\n\n    /**\n     * Accept or reject a paper\n     */\n    function accept_or_reject_paper(address papertoken, bool accept) public payable {\n        require(msg.sender == Editor);\n\n        // Get the paper.\n        Paper memory paper = get_paper_under_review(papertoken);\n\n        // Add the paper to either the `accepted_papers` or `rejected_papers` mappings.\n        if (accept)\n            accepted_papers[papertoken] = paper;\n        else\n            rejected_papers[papertoken] = paper;\n        // Remove it from the `papers_under_review` mapping.\n        delete papers_under_review[papertoken];\n    }\n}\n",
  "sourcePath": "/home/daniel/emap/crypto/Dpublish/contracts/DPublish.sol",
  "compiler": {
    "name": "solc",
    "version": "0.8.4+commit.c7e474f2.Emscripten.clang"
  },
  "schemaVersion": "3.4.3",
  "updatedAt": "2021-12-16T01:36:36.922Z",
  "devdoc": {
    "kind": "dev",
    "methods": {},
    "version": 1
  },
  "userdoc": {
    "kind": "user",
    "methods": {
      "accept_or_reject_paper(address,bool)": {
        "notice": "Accept or reject a paper"
      },
      "balances(address)": {
        "notice": "Balances of each member of our network."
      },
      "get_accepted_paper(address)": {
        "notice": "Get an accepted paper"
      },
      "get_paper_under_review(address)": {
        "notice": "Get a paper under review"
      },
      "get_rejected_paper(address)": {
        "notice": "Get a rejected paper"
      },
      "review_paper(address,string,uint8)": {
        "notice": "Review a paper"
      },
      "submit_manuscript(string)": {
        "notice": "Submit a manuscript"
      }
    },
    "version": 1
  }
}