{
  "contractName": "DPubGovernor",
  "abi": [
    {
      "inputs": [
        {
          "internalType": "contract ERC20Votes",
          "name": "_token",
          "type": "address"
        },
        {
          "internalType": "contract TimelockController",
          "name": "_timelock",
          "type": "address"
        }
      ],
      "stateMutability": "nonpayable",
      "type": "constructor"
    },
    {
      "anonymous": false,
      "inputs": [
        {
          "indexed": false,
          "internalType": "uint256",
          "name": "proposalId",
          "type": "uint256"
        }
      ],
      "name": "ProposalCanceled",
      "type": "event"
    },
    {
      "anonymous": false,
      "inputs": [
        {
          "indexed": false,
          "internalType": "uint256",
          "name": "proposalId",
          "type": "uint256"
        },
        {
          "indexed": false,
          "internalType": "address",
          "name": "proposer",
          "type": "address"
        },
        {
          "indexed": false,
          "internalType": "address[]",
          "name": "targets",
          "type": "address[]"
        },
        {
          "indexed": false,
          "internalType": "uint256[]",
          "name": "values",
          "type": "uint256[]"
        },
        {
          "indexed": false,
          "internalType": "string[]",
          "name": "signatures",
          "type": "string[]"
        },
        {
          "indexed": false,
          "internalType": "bytes[]",
          "name": "calldatas",
          "type": "bytes[]"
        },
        {
          "indexed": false,
          "internalType": "uint256",
          "name": "startBlock",
          "type": "uint256"
        },
        {
          "indexed": false,
          "internalType": "uint256",
          "name": "endBlock",
          "type": "uint256"
        },
        {
          "indexed": false,
          "internalType": "string",
          "name": "description",
          "type": "string"
        }
      ],
      "name": "ProposalCreated",
      "type": "event"
    },
    {
      "anonymous": false,
      "inputs": [
        {
          "indexed": false,
          "internalType": "uint256",
          "name": "proposalId",
          "type": "uint256"
        }
      ],
      "name": "ProposalExecuted",
      "type": "event"
    },
    {
      "anonymous": false,
      "inputs": [
        {
          "indexed": false,
          "internalType": "uint256",
          "name": "proposalId",
          "type": "uint256"
        },
        {
          "indexed": false,
          "internalType": "uint256",
          "name": "eta",
          "type": "uint256"
        }
      ],
      "name": "ProposalQueued",
      "type": "event"
    },
    {
      "anonymous": false,
      "inputs": [
        {
          "indexed": false,
          "internalType": "uint256",
          "name": "oldQuorumNumerator",
          "type": "uint256"
        },
        {
          "indexed": false,
          "internalType": "uint256",
          "name": "newQuorumNumerator",
          "type": "uint256"
        }
      ],
      "name": "QuorumNumeratorUpdated",
      "type": "event"
    },
    {
      "anonymous": false,
      "inputs": [
        {
          "indexed": false,
          "internalType": "address",
          "name": "oldTimelock",
          "type": "address"
        },
        {
          "indexed": false,
          "internalType": "address",
          "name": "newTimelock",
          "type": "address"
        }
      ],
      "name": "TimelockChange",
      "type": "event"
    },
    {
      "anonymous": false,
      "inputs": [
        {
          "indexed": true,
          "internalType": "address",
          "name": "voter",
          "type": "address"
        },
        {
          "indexed": false,
          "internalType": "uint256",
          "name": "proposalId",
          "type": "uint256"
        },
        {
          "indexed": false,
          "internalType": "uint8",
          "name": "support",
          "type": "uint8"
        },
        {
          "indexed": false,
          "internalType": "uint256",
          "name": "weight",
          "type": "uint256"
        },
        {
          "indexed": false,
          "internalType": "string",
          "name": "reason",
          "type": "string"
        }
      ],
      "name": "VoteCast",
      "type": "event"
    },
    {
      "inputs": [],
      "name": "BALLOT_TYPEHASH",
      "outputs": [
        {
          "internalType": "bytes32",
          "name": "",
          "type": "bytes32"
        }
      ],
      "stateMutability": "view",
      "type": "function"
    },
    {
      "inputs": [],
      "name": "COUNTING_MODE",
      "outputs": [
        {
          "internalType": "string",
          "name": "",
          "type": "string"
        }
      ],
      "stateMutability": "pure",
      "type": "function"
    },
    {
      "inputs": [
        {
          "internalType": "uint256",
          "name": "proposalId",
          "type": "uint256"
        }
      ],
      "name": "cancel",
      "outputs": [],
      "stateMutability": "nonpayable",
      "type": "function"
    },
    {
      "inputs": [
        {
          "internalType": "uint256",
          "name": "proposalId",
          "type": "uint256"
        },
        {
          "internalType": "uint8",
          "name": "support",
          "type": "uint8"
        }
      ],
      "name": "castVote",
      "outputs": [
        {
          "internalType": "uint256",
          "name": "",
          "type": "uint256"
        }
      ],
      "stateMutability": "nonpayable",
      "type": "function"
    },
    {
      "inputs": [
        {
          "internalType": "uint256",
          "name": "proposalId",
          "type": "uint256"
        },
        {
          "internalType": "uint8",
          "name": "support",
          "type": "uint8"
        },
        {
          "internalType": "uint8",
          "name": "v",
          "type": "uint8"
        },
        {
          "internalType": "bytes32",
          "name": "r",
          "type": "bytes32"
        },
        {
          "internalType": "bytes32",
          "name": "s",
          "type": "bytes32"
        }
      ],
      "name": "castVoteBySig",
      "outputs": [
        {
          "internalType": "uint256",
          "name": "",
          "type": "uint256"
        }
      ],
      "stateMutability": "nonpayable",
      "type": "function"
    },
    {
      "inputs": [
        {
          "internalType": "uint256",
          "name": "proposalId",
          "type": "uint256"
        },
        {
          "internalType": "uint8",
          "name": "support",
          "type": "uint8"
        },
        {
          "internalType": "string",
          "name": "reason",
          "type": "string"
        }
      ],
      "name": "castVoteWithReason",
      "outputs": [
        {
          "internalType": "uint256",
          "name": "",
          "type": "uint256"
        }
      ],
      "stateMutability": "nonpayable",
      "type": "function"
    },
    {
      "inputs": [
        {
          "internalType": "address[]",
          "name": "targets",
          "type": "address[]"
        },
        {
          "internalType": "uint256[]",
          "name": "values",
          "type": "uint256[]"
        },
        {
          "internalType": "bytes[]",
          "name": "calldatas",
          "type": "bytes[]"
        },
        {
          "internalType": "bytes32",
          "name": "descriptionHash",
          "type": "bytes32"
        }
      ],
      "name": "execute",
      "outputs": [
        {
          "internalType": "uint256",
          "name": "",
          "type": "uint256"
        }
      ],
      "stateMutability": "payable",
      "type": "function"
    },
    {
      "inputs": [
        {
          "internalType": "uint256",
          "name": "proposalId",
          "type": "uint256"
        }
      ],
      "name": "execute",
      "outputs": [],
      "stateMutability": "payable",
      "type": "function"
    },
    {
      "inputs": [
        {
          "internalType": "uint256",
          "name": "proposalId",
          "type": "uint256"
        }
      ],
      "name": "getActions",
      "outputs": [
        {
          "internalType": "address[]",
          "name": "targets",
          "type": "address[]"
        },
        {
          "internalType": "uint256[]",
          "name": "values",
          "type": "uint256[]"
        },
        {
          "internalType": "string[]",
          "name": "signatures",
          "type": "string[]"
        },
        {
          "internalType": "bytes[]",
          "name": "calldatas",
          "type": "bytes[]"
        }
      ],
      "stateMutability": "view",
      "type": "function"
    },
    {
      "inputs": [
        {
          "internalType": "uint256",
          "name": "proposalId",
          "type": "uint256"
        },
        {
          "internalType": "address",
          "name": "voter",
          "type": "address"
        }
      ],
      "name": "getReceipt",
      "outputs": [
        {
          "components": [
            {
              "internalType": "bool",
              "name": "hasVoted",
              "type": "bool"
            },
            {
              "internalType": "uint8",
              "name": "support",
              "type": "uint8"
            },
            {
              "internalType": "uint96",
              "name": "votes",
              "type": "uint96"
            }
          ],
          "internalType": "struct IGovernorCompatibilityBravo.Receipt",
          "name": "",
          "type": "tuple"
        }
      ],
      "stateMutability": "view",
      "type": "function"
    },
    {
      "inputs": [
        {
          "internalType": "uint256",
          "name": "proposalId",
          "type": "uint256"
        },
        {
          "internalType": "address",
          "name": "account",
          "type": "address"
        }
      ],
      "name": "hasVoted",
      "outputs": [
        {
          "internalType": "bool",
          "name": "",
          "type": "bool"
        }
      ],
      "stateMutability": "view",
      "type": "function"
    },
    {
      "inputs": [
        {
          "internalType": "address[]",
          "name": "targets",
          "type": "address[]"
        },
        {
          "internalType": "uint256[]",
          "name": "values",
          "type": "uint256[]"
        },
        {
          "internalType": "bytes[]",
          "name": "calldatas",
          "type": "bytes[]"
        },
        {
          "internalType": "bytes32",
          "name": "descriptionHash",
          "type": "bytes32"
        }
      ],
      "name": "hashProposal",
      "outputs": [
        {
          "internalType": "uint256",
          "name": "",
          "type": "uint256"
        }
      ],
      "stateMutability": "pure",
      "type": "function"
    },
    {
      "inputs": [],
      "name": "name",
      "outputs": [
        {
          "internalType": "string",
          "name": "",
          "type": "string"
        }
      ],
      "stateMutability": "view",
      "type": "function"
    },
    {
      "inputs": [
        {
          "internalType": "uint256",
          "name": "proposalId",
          "type": "uint256"
        }
      ],
      "name": "proposalDeadline",
      "outputs": [
        {
          "internalType": "uint256",
          "name": "",
          "type": "uint256"
        }
      ],
      "stateMutability": "view",
      "type": "function"
    },
    {
      "inputs": [
        {
          "internalType": "uint256",
          "name": "proposalId",
          "type": "uint256"
        }
      ],
      "name": "proposalEta",
      "outputs": [
        {
          "internalType": "uint256",
          "name": "",
          "type": "uint256"
        }
      ],
      "stateMutability": "view",
      "type": "function"
    },
    {
      "inputs": [
        {
          "internalType": "uint256",
          "name": "proposalId",
          "type": "uint256"
        }
      ],
      "name": "proposalSnapshot",
      "outputs": [
        {
          "internalType": "uint256",
          "name": "",
          "type": "uint256"
        }
      ],
      "stateMutability": "view",
      "type": "function"
    },
    {
      "inputs": [
        {
          "internalType": "uint256",
          "name": "proposalId",
          "type": "uint256"
        }
      ],
      "name": "proposals",
      "outputs": [
        {
          "internalType": "uint256",
          "name": "id",
          "type": "uint256"
        },
        {
          "internalType": "address",
          "name": "proposer",
          "type": "address"
        },
        {
          "internalType": "uint256",
          "name": "eta",
          "type": "uint256"
        },
        {
          "internalType": "uint256",
          "name": "startBlock",
          "type": "uint256"
        },
        {
          "internalType": "uint256",
          "name": "endBlock",
          "type": "uint256"
        },
        {
          "internalType": "uint256",
          "name": "forVotes",
          "type": "uint256"
        },
        {
          "internalType": "uint256",
          "name": "againstVotes",
          "type": "uint256"
        },
        {
          "internalType": "uint256",
          "name": "abstainVotes",
          "type": "uint256"
        },
        {
          "internalType": "bool",
          "name": "canceled",
          "type": "bool"
        },
        {
          "internalType": "bool",
          "name": "executed",
          "type": "bool"
        }
      ],
      "stateMutability": "view",
      "type": "function"
    },
    {
      "inputs": [
        {
          "internalType": "address[]",
          "name": "targets",
          "type": "address[]"
        },
        {
          "internalType": "uint256[]",
          "name": "values",
          "type": "uint256[]"
        },
        {
          "internalType": "bytes[]",
          "name": "calldatas",
          "type": "bytes[]"
        },
        {
          "internalType": "bytes32",
          "name": "descriptionHash",
          "type": "bytes32"
        }
      ],
      "name": "queue",
      "outputs": [
        {
          "internalType": "uint256",
          "name": "",
          "type": "uint256"
        }
      ],
      "stateMutability": "nonpayable",
      "type": "function"
    },
    {
      "inputs": [
        {
          "internalType": "uint256",
          "name": "proposalId",
          "type": "uint256"
        }
      ],
      "name": "queue",
      "outputs": [],
      "stateMutability": "nonpayable",
      "type": "function"
    },
    {
      "inputs": [],
      "name": "quorumDenominator",
      "outputs": [
        {
          "internalType": "uint256",
          "name": "",
          "type": "uint256"
        }
      ],
      "stateMutability": "view",
      "type": "function"
    },
    {
      "inputs": [],
      "name": "quorumNumerator",
      "outputs": [
        {
          "internalType": "uint256",
          "name": "",
          "type": "uint256"
        }
      ],
      "stateMutability": "view",
      "type": "function"
    },
    {
      "inputs": [],
      "name": "quorumVotes",
      "outputs": [
        {
          "internalType": "uint256",
          "name": "",
          "type": "uint256"
        }
      ],
      "stateMutability": "view",
      "type": "function"
    },
    {
      "inputs": [],
      "name": "timelock",
      "outputs": [
        {
          "internalType": "address",
          "name": "",
          "type": "address"
        }
      ],
      "stateMutability": "view",
      "type": "function"
    },
    {
      "inputs": [],
      "name": "token",
      "outputs": [
        {
          "internalType": "contract ERC20Votes",
          "name": "",
          "type": "address"
        }
      ],
      "stateMutability": "view",
      "type": "function"
    },
    {
      "inputs": [
        {
          "internalType": "uint256",
          "name": "newQuorumNumerator",
          "type": "uint256"
        }
      ],
      "name": "updateQuorumNumerator",
      "outputs": [],
      "stateMutability": "nonpayable",
      "type": "function"
    },
    {
      "inputs": [
        {
          "internalType": "contract TimelockController",
          "name": "newTimelock",
          "type": "address"
        }
      ],
      "name": "updateTimelock",
      "outputs": [],
      "stateMutability": "nonpayable",
      "type": "function"
    },
    {
      "inputs": [],
      "name": "version",
      "outputs": [
        {
          "internalType": "string",
          "name": "",
          "type": "string"
        }
      ],
      "stateMutability": "view",
      "type": "function"
    },
    {
      "inputs": [],
      "name": "votingDelay",
      "outputs": [
        {
          "internalType": "uint256",
          "name": "",
          "type": "uint256"
        }
      ],
      "stateMutability": "pure",
      "type": "function"
    },
    {
      "inputs": [],
      "name": "votingPeriod",
      "outputs": [
        {
          "internalType": "uint256",
          "name": "",
          "type": "uint256"
        }
      ],
      "stateMutability": "pure",
      "type": "function"
    },
    {
      "inputs": [],
      "name": "proposalThreshold",
      "outputs": [
        {
          "internalType": "uint256",
          "name": "",
          "type": "uint256"
        }
      ],
      "stateMutability": "pure",
      "type": "function"
    },
    {
      "inputs": [
        {
          "internalType": "uint256",
          "name": "blockNumber",
          "type": "uint256"
        }
      ],
      "name": "quorum",
      "outputs": [
        {
          "internalType": "uint256",
          "name": "",
          "type": "uint256"
        }
      ],
      "stateMutability": "view",
      "type": "function"
    },
    {
      "inputs": [
        {
          "internalType": "address",
          "name": "account",
          "type": "address"
        },
        {
          "internalType": "uint256",
          "name": "blockNumber",
          "type": "uint256"
        }
      ],
      "name": "getVotes",
      "outputs": [
        {
          "internalType": "uint256",
          "name": "",
          "type": "uint256"
        }
      ],
      "stateMutability": "view",
      "type": "function"
    },
    {
      "inputs": [
        {
          "internalType": "uint256",
          "name": "proposalId",
          "type": "uint256"
        }
      ],
      "name": "state",
      "outputs": [
        {
          "internalType": "enum IGovernor.ProposalState",
          "name": "",
          "type": "uint8"
        }
      ],
      "stateMutability": "view",
      "type": "function"
    },
    {
      "inputs": [
        {
          "internalType": "address[]",
          "name": "targets",
          "type": "address[]"
        },
        {
          "internalType": "uint256[]",
          "name": "values",
          "type": "uint256[]"
        },
        {
          "internalType": "bytes[]",
          "name": "calldatas",
          "type": "bytes[]"
        },
        {
          "internalType": "string",
          "name": "description",
          "type": "string"
        }
      ],
      "name": "propose",
      "outputs": [
        {
          "internalType": "uint256",
          "name": "",
          "type": "uint256"
        }
      ],
      "stateMutability": "nonpayable",
      "type": "function"
    },
    {
      "inputs": [
        {
          "internalType": "address[]",
          "name": "targets",
          "type": "address[]"
        },
        {
          "internalType": "uint256[]",
          "name": "values",
          "type": "uint256[]"
        },
        {
          "internalType": "string[]",
          "name": "signatures",
          "type": "string[]"
        },
        {
          "internalType": "bytes[]",
          "name": "calldatas",
          "type": "bytes[]"
        },
        {
          "internalType": "string",
          "name": "description",
          "type": "string"
        }
      ],
      "name": "propose",
      "outputs": [
        {
          "internalType": "uint256",
          "name": "",
          "type": "uint256"
        }
      ],
      "stateMutability": "nonpayable",
      "type": "function"
    },
    {
      "inputs": [
        {
          "internalType": "bytes4",
          "name": "interfaceId",
          "type": "bytes4"
        }
      ],
      "name": "supportsInterface",
      "outputs": [
        {
          "internalType": "bool",
          "name": "",
          "type": "bool"
        }
      ],
      "stateMutability": "view",
      "type": "function"
    }
  ],
  "bytecode": "0x6101406040523480156200001257600080fd5b506040516200734738038062007347833981810160405281019062000038919062000422565b806004836040518060400160405280600c81526020017f44507562476f7665726e6f72000000000000000000000000000000000000000081525080620000836200017f60201b60201c565b60008280519060200120905060008280519060200120905060007f8b73c3c69bb8fe3d512ecc4cf759cc79239f7b179b0ffacaa9a75d522b39400f90508260c081815250508160e081815250504660a08181525050620000eb818484620001bc60201b60201c565b60808181525050806101008181525050505050505080600090805190602001906200011892919062000344565b50508073ffffffffffffffffffffffffffffffffffffffff166101208173ffffffffffffffffffffffffffffffffffffffff1660601b81525050506200016481620001f860201b60201c565b5062000176816200029a60201b60201c565b50505062000739565b60606040518060400160405280600181526020017f3100000000000000000000000000000000000000000000000000000000000000815250905090565b60008383834630604051602001620001d9959493929190620004ea565b6040516020818303038152906040528051906020012090509392505050565b620002086200033b60201b60201c565b8111156200024d576040517f08c379a0000000000000000000000000000000000000000000000000000000008152600401620002449062000547565b60405180910390fd5b60006003549050816003819055507f0553476bf02ef2726e8ce5ced78d63e26e602e4a2257b1f559418e24b463399781836040516200028e92919062000569565b60405180910390a15050565b7f08f74ea46ef7894f65eabfb5e6e695de773a000b47c529ab559178069b226401600460009054906101000a900473ffffffffffffffffffffffffffffffffffffffff1682604051620002ef929190620004bd565b60405180910390a180600460006101000a81548173ffffffffffffffffffffffffffffffffffffffff021916908373ffffffffffffffffffffffffffffffffffffffff16021790555050565b60006064905090565b82805462000352906200062b565b90600052602060002090601f016020900481019282620003765760008555620003c2565b82601f106200039157805160ff1916838001178555620003c2565b82800160010185558215620003c2579182015b82811115620003c1578251825591602001919060010190620003a4565b5b509050620003d19190620003d5565b5090565b5b80821115620003f0576000816000905550600101620003d6565b5090565b600081519050620004058162000705565b92915050565b6000815190506200041c816200071f565b92915050565b600080604083850312156200043657600080fd5b60006200044685828601620003f4565b925050602062000459858286016200040b565b9150509250929050565b6200046e81620005a7565b82525050565b6200047f81620005cf565b82525050565b60006200049460438362000596565b9150620004a18262000690565b606082019050919050565b620004b78162000621565b82525050565b6000604082019050620004d4600083018562000463565b620004e3602083018462000463565b9392505050565b600060a08201905062000501600083018862000474565b62000510602083018762000474565b6200051f604083018662000474565b6200052e6060830185620004ac565b6200053d608083018462000463565b9695505050505050565b60006020820190508181036000830152620005628162000485565b9050919050565b6000604082019050620005806000830185620004ac565b6200058f6020830184620004ac565b9392505050565b600082825260208201905092915050565b6000620005b48262000601565b9050919050565b6000620005c88262000601565b9050919050565b6000819050919050565b6000620005e682620005a7565b9050919050565b6000620005fa82620005bb565b9050919050565b600073ffffffffffffffffffffffffffffffffffffffff82169050919050565b6000819050919050565b600060028204905060018216806200064457607f821691505b602082108114156200065b576200065a62000661565b5b50919050565b7f4e487b7100000000000000000000000000000000000000000000000000000000600052602260045260246000fd5b7f476f7665726e6f72566f74657351756f72756d4672616374696f6e3a2071756f60008201527f72756d4e756d657261746f72206f7665722071756f72756d44656e6f6d696e6160208201527f746f720000000000000000000000000000000000000000000000000000000000604082015250565b6200071081620005d9565b81146200071c57600080fd5b50565b6200072a81620005ed565b81146200073657600080fd5b50565b60805160a05160c05160e051610100516101205160601c616bad6200079a6000396000818161209901528181612cfe0152612dc30152600061301e015260006130600152600061303f01526000612fcb01526000612ff30152616bad6000f3fe60806040526004361061020f5760003560e01c80637d5e81e211610118578063da95691a116100a0578063e23a9a521161006f578063e23a9a5214610860578063eb9019d41461089d578063f8ce560a146108da578063fc0c546a14610917578063fe0d94c1146109425761020f565b8063da95691a146107a4578063dd4e2ba5146107e1578063ddf0b0091461080c578063deaaa7cc146108355761020f565b8063ab58fb8e116100e7578063ab58fb8e14610697578063b58131b0146106d4578063c01f9e37146106ff578063c59057e41461073c578063d33219b4146107795761020f565b80637d5e81e2146105db57806397c3d33414610618578063a7713a7014610643578063a890c9101461066e5761020f565b8063328dd9821161019b57806340e58ee51161016a57806340e58ee5146104d057806343859632146104f957806354fd4d501461053657806356781388146105615780637b3c71d31461059e5761020f565b8063328dd982146103eb5780633932abb11461042b5780633bccf4fd146104565780633e4f49e6146104935761020f565b806306fdde03116101e257806306fdde03146102eb578063160cbed71461031657806324bc1a64146103535780632656227d1461037e5780632d63f693146103ae5761020f565b8063013cf08b1461021457806301ffc9a71461025a57806302a251a31461029757806306f3f9e6146102c2575b600080fd5b34801561022057600080fd5b5061023b60048036038101906102369190614d55565b61095e565b6040516102519a99989796959493929190615d15565b60405180910390f35b34801561026657600080fd5b50610281600480360381019061027c9190614d03565b610aeb565b60405161028e9190615850565b60405180910390f35b3480156102a357600080fd5b506102ac610afd565b6040516102b99190615c4a565b60405180910390f35b3480156102ce57600080fd5b506102e960048036038101906102e49190614d55565b610b07565b005b3480156102f757600080fd5b50610300610b8f565b60405161030d91906159ad565b60405180910390f35b34801561032257600080fd5b5061033d60048036038101906103389190614a54565b610c21565b60405161034a9190615c4a565b60405180910390f35b34801561035f57600080fd5b50610368610f45565b6040516103759190615c4a565b60405180910390f35b61039860048036038101906103939190614a54565b610f61565b6040516103a59190615c4a565b60405180910390f35b3480156103ba57600080fd5b506103d560048036038101906103d09190614d55565b61112c565b6040516103e29190615c4a565b60405180910390f35b3480156103f757600080fd5b50610412600480360381019061040d9190614d55565b61119a565b60405161042294939291906157ef565b60405180910390f35b34801561043757600080fd5b50610440611457565b60405161044d9190615c4a565b60405180910390f35b34801561046257600080fd5b5061047d60048036038101906104789190614e8b565b611460565b60405161048a9190615c4a565b60405180910390f35b34801561049f57600080fd5b506104ba60048036038101906104b59190614d55565b6114ea565b6040516104c79190615992565b60405180910390f35b3480156104dc57600080fd5b506104f760048036038101906104f29190614d55565b6114fc565b005b34801561050557600080fd5b50610520600480360381019061051b9190614da7565b611894565b60405161052d9190615850565b60405180910390f35b34801561054257600080fd5b5061054b611902565b60405161055891906159ad565b60405180910390f35b34801561056d57600080fd5b5061058860048036038101906105839190614de3565b61193f565b6040516105959190615c4a565b60405180910390f35b3480156105aa57600080fd5b506105c560048036038101906105c09190614e1f565b611970565b6040516105d29190615c4a565b60405180910390f35b3480156105e757600080fd5b5061060260048036038101906105fd9190614aff565b6119d8565b60405161060f9190615c4a565b60405180910390f35b34801561062457600080fd5b5061062d6119f0565b60405161063a9190615c4a565b60405180910390f35b34801561064f57600080fd5b506106586119f9565b6040516106659190615c4a565b60405180910390f35b34801561067a57600080fd5b5061069560048036038101906106909190614d2c565b611a03565b005b3480156106a357600080fd5b506106be60048036038101906106b99190614d55565b611a8b565b6040516106cb9190615c4a565b60405180910390f35b3480156106e057600080fd5b506106e9611b67565b6040516106f69190615c4a565b60405180910390f35b34801561070b57600080fd5b5061072660048036038101906107219190614d55565b611b6c565b6040516107339190615c4a565b60405180910390f35b34801561074857600080fd5b50610763600480360381019061075e9190614a54565b611bda565b6040516107709190615c4a565b60405180910390f35b34801561078557600080fd5b5061078e611c16565b60405161079b919061564a565b60405180910390f35b3480156107b057600080fd5b506107cb60048036038101906107c69190614bc2565b611c40565b6040516107d89190615c4a565b60405180910390f35b3480156107ed57600080fd5b506107f6611c77565b60405161080391906159ad565b60405180910390f35b34801561081857600080fd5b50610833600480360381019061082e9190614d55565b611cb4565b005b34801561084157600080fd5b5061084a611f69565b604051610857919061586b565b60405180910390f35b34801561086c57600080fd5b5061088760048036038101906108829190614da7565b611f8d565b6040516108949190615c2f565b60405180910390f35b3480156108a957600080fd5b506108c460048036038101906108bf9190614a18565b612071565b6040516108d19190615c4a565b60405180910390f35b3480156108e657600080fd5b5061090160048036038101906108fc9190614d55565b612085565b60405161090e9190615c4a565b60405180910390f35b34801561092357600080fd5b5061092c612097565b6040516109399190615977565b60405180910390f35b61095c60048036038101906109579190614d55565b6120bb565b005b6000806000806000806000806000808a99506109798b611a8b565b97506109848b61112c565b965061098f8b611b6c565b95506000600260008d815260200190815260200160002090508060000160009054906101000a900473ffffffffffffffffffffffffffffffffffffffff16995080600501549550806006015494508060070154935060006109ef8d6114ea565b905060026007811115610a2b577f4e487b7100000000000000000000000000000000000000000000000000000000600052602160045260246000fd5b816007811115610a64577f4e487b7100000000000000000000000000000000000000000000000000000000600052602160045260246000fd5b149350600780811115610aa0577f4e487b7100000000000000000000000000000000000000000000000000000000600052602160045260246000fd5b816007811115610ad9577f4e487b7100000000000000000000000000000000000000000000000000000000600052602160045260246000fd5b14925050509193959799509193959799565b6000610af682612370565b9050919050565b600061b2fa905090565b610b0f6123ea565b73ffffffffffffffffffffffffffffffffffffffff16610b2d6123f9565b73ffffffffffffffffffffffffffffffffffffffff1614610b83576040517f08c379a0000000000000000000000000000000000000000000000000000000008152600401610b7a906159ef565b60405180910390fd5b610b8c81612401565b50565b606060008054610b9e90616395565b80601f0160208091040260200160405190810160405280929190818152602001828054610bca90616395565b8015610c175780601f10610bec57610100808354040283529160200191610c17565b820191906000526020600020905b815481529060010190602001808311610bfa57829003601f168201915b5050505050905090565b600080610c3086868686611bda565b905060046007811115610c6c577f4e487b7100000000000000000000000000000000000000000000000000000000600052602160045260246000fd5b610c75826114ea565b6007811115610cad577f4e487b7100000000000000000000000000000000000000000000000000000000600052602160045260246000fd5b14610ced576040517f08c379a0000000000000000000000000000000000000000000000000000000008152600401610ce490615b6f565b60405180910390fd5b6000600460009054906101000a900473ffffffffffffffffffffffffffffffffffffffff1673ffffffffffffffffffffffffffffffffffffffff1663f27a0c926040518163ffffffff1660e01b815260040160206040518083038186803b158015610d5757600080fd5b505afa158015610d6b573d6000803e3d6000fd5b505050506040513d601f19601f82011682018060405250810190610d8f9190614d7e565b9050600460009054906101000a900473ffffffffffffffffffffffffffffffffffffffff1673ffffffffffffffffffffffffffffffffffffffff1663b1c5f4278888886000896040518663ffffffff1660e01b8152600401610df5959493929190615711565b60206040518083038186803b158015610e0d57600080fd5b505afa158015610e21573d6000803e3d6000fd5b505050506040513d601f19601f82011682018060405250810190610e459190614cda565b6005600084815260200190815260200160002081905550600460009054906101000a900473ffffffffffffffffffffffffffffffffffffffff1673ffffffffffffffffffffffffffffffffffffffff16638f2a0bb0888888600089876040518763ffffffff1660e01b8152600401610ec296959493929190615779565b600060405180830381600087803b158015610edc57600080fd5b505af1158015610ef0573d6000803e3d6000fd5b505050507f9a2e42fd6722813d69113e7d0079d3d940171428df7373df9c7f7617cfda2892828242610f2291906160a6565b604051610f30929190615db1565b60405180910390a18192505050949350505050565b6000610f5c600143610f5791906161c5565b612085565b905090565b600080610f7086868686611bda565b90506000610f7d826114ea565b905060046007811115610fb9577f4e487b7100000000000000000000000000000000000000000000000000000000600052602160045260246000fd5b816007811115610ff2577f4e487b7100000000000000000000000000000000000000000000000000000000600052602160045260246000fd5b148061106e575060056007811115611033577f4e487b7100000000000000000000000000000000000000000000000000000000600052602160045260246000fd5b81600781111561106c577f4e487b7100000000000000000000000000000000000000000000000000000000600052602160045260246000fd5b145b6110ad576040517f08c379a00000000000000000000000000000000000000000000000000000000081526004016110a490615b6f565b60405180910390fd5b600180600084815260200190815260200160002060020160006101000a81548160ff0219169083151502179055507f712ae1383f79ac853f8d882153778e0260ef8f03b504e2866e0593e04d2b291f8260405161110a9190615c4a565b60405180910390a161111f8288888888612496565b8192505050949350505050565b6000611189600160008481526020019081526020016000206000016040518060200160405290816000820160009054906101000a900467ffffffffffffffff1667ffffffffffffffff1667ffffffffffffffff16815250506124aa565b67ffffffffffffffff169050919050565b6060806060806000600260008781526020019081526020016000209050806001018160020182600301836004018380548060200260200160405190810160405280929190818152602001828054801561124857602002820191906000526020600020905b8160009054906101000a900473ffffffffffffffffffffffffffffffffffffffff1673ffffffffffffffffffffffffffffffffffffffff16815260200190600101908083116111fe575b505050505093508280548060200260200160405190810160405280929190818152602001828054801561129a57602002820191906000526020600020905b815481526020019060010190808311611286575b5050505050925081805480602002602001604051908101604052809291908181526020016000905b8282101561136e5783829060005260206000200180546112e190616395565b80601f016020809104026020016040519081016040528092919081815260200182805461130d90616395565b801561135a5780601f1061132f5761010080835404028352916020019161135a565b820191906000526020600020905b81548152906001019060200180831161133d57829003601f168201915b5050505050815260200190600101906112c2565b50505050915080805480602002602001604051908101604052809291908181526020016000905b828210156114415783829060005260206000200180546113b490616395565b80601f01602080910402602001604051908101604052809291908181526020018280546113e090616395565b801561142d5780601f106114025761010080835404028352916020019161142d565b820191906000526020600020905b81548152906001019060200180831161141057829003601f168201915b505050505081526020019060010190611395565b5050505090509450945094509450509193509193565b60006001905090565b6000806114c16114b97f150214d74d59b7d1e90c73fc22ef3d991dd0a76b046543d4d80ab92d2a50328f898960405160200161149e939291906158d9565b604051602081830303815290604052805190602001206124b8565b8686866124d2565b90506114de878288604051806020016040528060008152506124fd565b91505095945050505050565b60006114f58261269d565b9050919050565b60006002600083815260200190815260200160002090508060000160009054906101000a900473ffffffffffffffffffffffffffffffffffffffff1673ffffffffffffffffffffffffffffffffffffffff166115566123f9565b73ffffffffffffffffffffffffffffffffffffffff1614806115b7575061157b611b67565b6115b58260000160009054906101000a900473ffffffffffffffffffffffffffffffffffffffff166001436115b091906161c5565b612071565b105b6115f6576040517f08c379a00000000000000000000000000000000000000000000000000000000081526004016115ed90615bef565b60405180910390fd5b61188f8160010180548060200260200160405190810160405280929190818152602001828054801561167d57602002820191906000526020600020905b8160009054906101000a900473ffffffffffffffffffffffffffffffffffffffff1673ffffffffffffffffffffffffffffffffffffffff1681526020019060010190808311611633575b5050505050826002018054806020026020016040519081016040528092919081815260200182805480156116d057602002820191906000526020600020905b8154815260200190600101908083116116bc575b505050505061188584600301805480602002602001604051908101604052809291908181526020016000905b828210156117a857838290600052602060002001805461171b90616395565b80601f016020809104026020016040519081016040528092919081815260200182805461174790616395565b80156117945780601f1061176957610100808354040283529160200191611794565b820191906000526020600020905b81548152906001019060200180831161177757829003601f168201915b5050505050815260200190600101906116fc565b5050505085600401805480602002602001604051908101604052809291908181526020016000905b8282101561187c5783829060005260206000200180546117ef90616395565b80601f016020809104026020016040519081016040528092919081815260200182805461181b90616395565b80156118685780601f1061183d57610100808354040283529160200191611868565b820191906000526020600020905b81548152906001019060200180831161184b57829003601f168201915b5050505050815260200190600101906117d0565b50505050612820565b8460090154612a9b565b505050565b60006002600084815260200190815260200160002060080160008373ffffffffffffffffffffffffffffffffffffffff1673ffffffffffffffffffffffffffffffffffffffff16815260200190815260200160002060000160009054906101000a900460ff16905092915050565b60606040518060400160405280600181526020017f3100000000000000000000000000000000000000000000000000000000000000815250905090565b60008061194a6123f9565b9050611967848285604051806020016040528060008152506124fd565b91505092915050565b60008061197b6123f9565b90506119cd86828787878080601f016020809104026020016040519081016040528093929190818152602001838380828437600081840152601f19601f820116905080830192505050505050506124fd565b915050949350505050565b60006119e685858585612ab3565b9050949350505050565b60006064905090565b6000600354905090565b611a0b6123ea565b73ffffffffffffffffffffffffffffffffffffffff16611a296123f9565b73ffffffffffffffffffffffffffffffffffffffff1614611a7f576040517f08c379a0000000000000000000000000000000000000000000000000000000008152600401611a76906159ef565b60405180910390fd5b611a8881612b54565b50565b600080600460009054906101000a900473ffffffffffffffffffffffffffffffffffffffff1673ffffffffffffffffffffffffffffffffffffffff1663d45c443560056000868152602001908152602001600020546040518263ffffffff1660e01b8152600401611afc919061586b565b60206040518083038186803b158015611b1457600080fd5b505afa158015611b28573d6000803e3d6000fd5b505050506040513d601f19601f82011682018060405250810190611b4c9190614d7e565b905060018114611b5c5780611b5f565b60005b915050919050565b600090565b6000611bc9600160008481526020019081526020016000206001016040518060200160405290816000820160009054906101000a900467ffffffffffffffff1667ffffffffffffffff1667ffffffffffffffff16815250506124aa565b67ffffffffffffffff169050919050565b600084848484604051602001611bf394939291906156b7565b6040516020818303038152906040528051906020012060001c9050949350505050565b6000600460009054906101000a900473ffffffffffffffffffffffffffffffffffffffff16905090565b6000611c57611c4d6123f9565b8787878787612bf3565b611c6c8686611c668787612820565b856119d8565b905095945050505050565b60606040518060400160405280601a81526020017f737570706f72743d627261766f2671756f72756d3d627261766f000000000000815250905090565b6000600260008381526020019081526020016000209050611f6481600101805480602002602001604051908101604052809291908181526020018280548015611d5257602002820191906000526020600020905b8160009054906101000a900473ffffffffffffffffffffffffffffffffffffffff1673ffffffffffffffffffffffffffffffffffffffff1681526020019060010190808311611d08575b505050505082600201805480602002602001604051908101604052809291908181526020018280548015611da557602002820191906000526020600020905b815481526020019060010190808311611d91575b5050505050611f5a84600301805480602002602001604051908101604052809291908181526020016000905b82821015611e7d578382906000526020600020018054611df090616395565b80601f0160208091040260200160405190810160405280929190818152602001828054611e1c90616395565b8015611e695780601f10611e3e57610100808354040283529160200191611e69565b820191906000526020600020905b815481529060010190602001808311611e4c57829003601f168201915b505050505081526020019060010190611dd1565b5050505085600401805480602002602001604051908101604052809291908181526020016000905b82821015611f51578382906000526020600020018054611ec490616395565b80601f0160208091040260200160405190810160405280929190818152602001828054611ef090616395565b8015611f3d5780601f10611f1257610100808354040283529160200191611f3d565b820191906000526020600020905b815481529060010190602001808311611f2057829003601f168201915b505050505081526020019060010190611ea5565b50505050612820565b8460090154610c21565b505050565b7f150214d74d59b7d1e90c73fc22ef3d991dd0a76b046543d4d80ab92d2a50328f81565b611f9561424b565b6002600084815260200190815260200160002060080160008373ffffffffffffffffffffffffffffffffffffffff1673ffffffffffffffffffffffffffffffffffffffff1681526020019081526020016000206040518060600160405290816000820160009054906101000a900460ff161515151581526020016000820160019054906101000a900460ff1660ff1660ff1681526020016000820160029054906101000a90046bffffffffffffffffffffffff166bffffffffffffffffffffffff166bffffffffffffffffffffffff1681525050905092915050565b600061207d8383612cfa565b905092915050565b600061209082612daf565b9050919050565b7f000000000000000000000000000000000000000000000000000000000000000081565b600060026000838152602001908152602001600020905061236b8160010180548060200260200160405190810160405280929190818152602001828054801561215957602002820191906000526020600020905b8160009054906101000a900473ffffffffffffffffffffffffffffffffffffffff1673ffffffffffffffffffffffffffffffffffffffff168152602001906001019080831161210f575b5050505050826002018054806020026020016040519081016040528092919081815260200182805480156121ac57602002820191906000526020600020905b815481526020019060010190808311612198575b505050505061236184600301805480602002602001604051908101604052809291908181526020016000905b828210156122845783829060005260206000200180546121f790616395565b80601f016020809104026020016040519081016040528092919081815260200182805461222390616395565b80156122705780601f1061224557610100808354040283529160200191612270565b820191906000526020600020905b81548152906001019060200180831161225357829003601f168201915b5050505050815260200190600101906121d8565b5050505085600401805480602002602001604051908101604052809291908181526020016000905b828210156123585783829060005260206000200180546122cb90616395565b80601f01602080910402602001604051908101604052809291908181526020018280546122f790616395565b80156123445780601f1061231957610100808354040283529160200191612344565b820191906000526020600020905b81548152906001019060200180831161232757829003601f168201915b5050505050815260200190600101906122ac565b50505050612820565b8460090154610f61565b505050565b60007f6e665ced000000000000000000000000000000000000000000000000000000007bffffffffffffffffffffffffffffffffffffffffffffffffffffffff1916827bffffffffffffffffffffffffffffffffffffffffffffffffffffffff191614806123e357506123e282612e85565b5b9050919050565b60006123f4612eff565b905090565b600033905090565b6124096119f0565b81111561244b576040517f08c379a000000000000000000000000000000000000000000000000000000000815260040161244290615a0f565b60405180910390fd5b60006003549050816003819055507f0553476bf02ef2726e8ce5ced78d63e26e602e4a2257b1f559418e24b4633997818360405161248a929190615db1565b60405180910390a15050565b6124a38585858585612f29565b5050505050565b600081600001519050919050565b60006124cb6124c5612fc7565b8361308a565b9050919050565b60008060006124e3878787876130bd565b915091506124f0816131ca565b8192505050949350505050565b6000806001600087815260200190815260200160002090506001600781111561254f577f4e487b7100000000000000000000000000000000000000000000000000000000600052602160045260246000fd5b612558876114ea565b6007811115612590577f4e487b7100000000000000000000000000000000000000000000000000000000600052602160045260246000fd5b146125d0576040517f08c379a00000000000000000000000000000000000000000000000000000000081526004016125c790615acf565b60405180910390fd5b600061262e8661261f846000016040518060200160405290816000820160009054906101000a900467ffffffffffffffff1667ffffffffffffffff1667ffffffffffffffff16815250506124aa565b67ffffffffffffffff16612071565b905061263c8787878461351b565b8573ffffffffffffffffffffffffffffffffffffffff167fb8e138887d0aa13bab447e82de9d5c1777041ecd21ca36ba824ff1e6c07ddda4888784886040516126889493929190615dda565b60405180910390a28092505050949350505050565b6000806126a9836137b7565b9050600460078111156126e5577f4e487b7100000000000000000000000000000000000000000000000000000000600052602160045260246000fd5b81600781111561271e577f4e487b7100000000000000000000000000000000000000000000000000000000600052602160045260246000fd5b1461272c578091505061281b565b6000600560008581526020019081526020016000205490506000801b81141561275957819250505061281b565b600460009054906101000a900473ffffffffffffffffffffffffffffffffffffffff1673ffffffffffffffffffffffffffffffffffffffff16632ab0f529826040518263ffffffff1660e01b81526004016127b4919061586b565b60206040518083038186803b1580156127cc57600080fd5b505afa1580156127e0573d6000803e3d6000fd5b505050506040513d601f19601f820116820180604052508101906128049190614cb1565b156128145760079250505061281b565b6005925050505b919050565b60606000825167ffffffffffffffff811115612865577f4e487b7100000000000000000000000000000000000000000000000000000000600052604160045260246000fd5b60405190808252806020026020018201604052801561289857816020015b60608152602001906001900390816128835790505b50905060005b8451811015612a905760008582815181106128e2577f4e487b7100000000000000000000000000000000000000000000000000000000600052603260045260246000fd5b602002602001015151146129f957848181518110612929577f4e487b7100000000000000000000000000000000000000000000000000000000600052603260045260246000fd5b602002602001015184828151811061296a577f4e487b7100000000000000000000000000000000000000000000000000000000600052603260045260246000fd5b60200260200101516040516024016129829190615955565b6040516020818303038152906040529060405161299f91906155fc565b60405180910390207bffffffffffffffffffffffffffffffffffffffffffffffffffffffff19166020820180517bffffffffffffffffffffffffffffffffffffffffffffffffffffffff8381831617835250505050612a3b565b838181518110612a32577f4e487b7100000000000000000000000000000000000000000000000000000000600052603260045260246000fd5b60200260200101515b828281518110612a74577f4e487b7100000000000000000000000000000000000000000000000000000000600052603260045260246000fd5b602002602001018190525080612a89906163f8565b905061289e565b508091505092915050565b6000612aa98585858561397e565b9050949350505050565b6000612b3e612ac06123f9565b8686865167ffffffffffffffff811115612b03577f4e487b7100000000000000000000000000000000000000000000000000000000600052604160045260246000fd5b604051908082528060200260200182016040528015612b3657816020015b6060815260200190600190039081612b215790505b508787612bf3565b612b4a85858585613a70565b9050949350505050565b7f08f74ea46ef7894f65eabfb5e6e695de773a000b47c529ab559178069b226401600460009054906101000a900473ffffffffffffffffffffffffffffffffffffffff1682604051612ba7929190615665565b60405180910390a180600460006101000a81548173ffffffffffffffffffffffffffffffffffffffff021916908373ffffffffffffffffffffffffffffffffffffffff16021790555050565b6000818051906020012090506000612c168787612c108888612820565b85611bda565b905060006002600083815260200190815260200160002090506000801b81600901541415612cef57888160000160006101000a81548173ffffffffffffffffffffffffffffffffffffffff021916908373ffffffffffffffffffffffffffffffffffffffff16021790555087816001019080519060200190612c9992919061427f565b5086816002019080519060200190612cb2929190614309565b5085816003019080519060200190612ccb929190614356565b5084816004019080519060200190612ce49291906143b6565b508281600901819055505b505050505050505050565b60007f000000000000000000000000000000000000000000000000000000000000000073ffffffffffffffffffffffffffffffffffffffff16633a46b1a884846040518363ffffffff1660e01b8152600401612d5792919061568e565b60206040518083038186803b158015612d6f57600080fd5b505afa158015612d83573d6000803e3d6000fd5b505050506040513d601f19601f82011682018060405250810190612da79190614d7e565b905092915050565b6000612db96119f0565b612dc16119f9565b7f000000000000000000000000000000000000000000000000000000000000000073ffffffffffffffffffffffffffffffffffffffff16638e539e8c856040518263ffffffff1660e01b8152600401612e1a9190615c4a565b60206040518083038186803b158015612e3257600080fd5b505afa158015612e46573d6000803e3d6000fd5b505050506040513d601f19601f82011682018060405250810190612e6a9190614d7e565b612e74919061616b565b612e7e919061613a565b9050919050565b60007fbf26d897000000000000000000000000000000000000000000000000000000007bffffffffffffffffffffffffffffffffffffffffffffffffffffffff1916827bffffffffffffffffffffffffffffffffffffffffffffffffffffffff19161480612ef85750612ef782613ae7565b5b9050919050565b6000600460009054906101000a900473ffffffffffffffffffffffffffffffffffffffff16905090565b600460009054906101000a900473ffffffffffffffffffffffffffffffffffffffff1673ffffffffffffffffffffffffffffffffffffffff1663e38335e5348686866000876040518763ffffffff1660e01b8152600401612f8e959493929190615711565b6000604051808303818588803b158015612fa757600080fd5b505af1158015612fbb573d6000803e3d6000fd5b50505050505050505050565b60007f0000000000000000000000000000000000000000000000000000000000000000461415613019577f00000000000000000000000000000000000000000000000000000000000000009050613087565b6130847f00000000000000000000000000000000000000000000000000000000000000007f00000000000000000000000000000000000000000000000000000000000000007f0000000000000000000000000000000000000000000000000000000000000000613b51565b90505b90565b6000828260405160200161309f929190615613565b60405160208183030381529060405280519060200120905092915050565b6000807f7fffffffffffffffffffffffffffffff5d576e7357a4501ddfe92f46681b20a08360001c11156130f85760006003915091506131c1565b601b8560ff16141580156131105750601c8560ff1614155b156131225760006004915091506131c1565b6000600187878787604051600081526020016040526040516131479493929190615910565b6020604051602081039080840390855afa158015613169573d6000803e3d6000fd5b505050602060405103519050600073ffffffffffffffffffffffffffffffffffffffff168173ffffffffffffffffffffffffffffffffffffffff1614156131b8576000600192509250506131c1565b80600092509250505b94509492505050565b60006004811115613204577f4e487b7100000000000000000000000000000000000000000000000000000000600052602160045260246000fd5b81600481111561323d577f4e487b7100000000000000000000000000000000000000000000000000000000600052602160045260246000fd5b141561324857613518565b60016004811115613282577f4e487b7100000000000000000000000000000000000000000000000000000000600052602160045260246000fd5b8160048111156132bb577f4e487b7100000000000000000000000000000000000000000000000000000000600052602160045260246000fd5b14156132fc576040517f08c379a00000000000000000000000000000000000000000000000000000000081526004016132f3906159cf565b60405180910390fd5b60026004811115613336577f4e487b7100000000000000000000000000000000000000000000000000000000600052602160045260246000fd5b81600481111561336f577f4e487b7100000000000000000000000000000000000000000000000000000000600052602160045260246000fd5b14156133b0576040517f08c379a00000000000000000000000000000000000000000000000000000000081526004016133a790615a6f565b60405180910390fd5b600360048111156133ea577f4e487b7100000000000000000000000000000000000000000000000000000000600052602160045260246000fd5b816004811115613423577f4e487b7100000000000000000000000000000000000000000000000000000000600052602160045260246000fd5b1415613464576040517f08c379a000000000000000000000000000000000000000000000000000000000815260040161345b90615aaf565b60405180910390fd5b60048081111561349d577f4e487b7100000000000000000000000000000000000000000000000000000000600052602160045260246000fd5b8160048111156134d6577f4e487b7100000000000000000000000000000000000000000000000000000000600052602160045260246000fd5b1415613517576040517f08c379a000000000000000000000000000000000000000000000000000000000815260040161350e90615b0f565b60405180910390fd5b5b50565b600060026000868152602001908152602001600020905060008160080160008673ffffffffffffffffffffffffffffffffffffffff1673ffffffffffffffffffffffffffffffffffffffff16815260200190815260200160002090508060000160009054906101000a900460ff16156135c9576040517f08c379a00000000000000000000000000000000000000000000000000000000081526004016135c090615c0f565b60405180910390fd5b60018160000160006101000a81548160ff021916908315150217905550838160000160016101000a81548160ff021916908360ff16021790555061360c83613b8b565b8160000160026101000a8154816bffffffffffffffffffffffff02191690836bffffffffffffffffffffffff16021790555060006002811115613678577f4e487b7100000000000000000000000000000000000000000000000000000000600052602160045260246000fd5b60ff168460ff1614156136a5578282600601600082825461369991906160a6565b925050819055506137af565b600160028111156136df577f4e487b7100000000000000000000000000000000000000000000000000000000600052602160045260246000fd5b60ff168460ff16141561370c578282600501600082825461370091906160a6565b925050819055506137ae565b600280811115613745577f4e487b7100000000000000000000000000000000000000000000000000000000600052602160045260246000fd5b60ff168460ff161415613772578282600701600082825461376691906160a6565b925050819055506137ad565b6040517f08c379a00000000000000000000000000000000000000000000000000000000081526004016137a490615b8f565b60405180910390fd5b5b5b505050505050565b60008060016000848152602001908152602001600020604051806080016040529081600082016040518060200160405290816000820160009054906101000a900467ffffffffffffffff1667ffffffffffffffff1667ffffffffffffffff16815250508152602001600182016040518060200160405290816000820160009054906101000a900467ffffffffffffffff1667ffffffffffffffff1667ffffffffffffffff168152505081526020016002820160009054906101000a900460ff161515151581526020016002820160019054906101000a900460ff16151515158152505090508060400151156138b0576007915050613979565b8060600151156138c4576002915050613979565b6138d18160000151613be6565b156138e0576000915050613979565b6138ed8160200151613be6565b156138fc576001915050613979565b6139098160200151613c00565b1561393e5761391783613c2c565b8015613928575061392783613c63565b5b613933576003613936565b60045b915050613979565b6040517f08c379a000000000000000000000000000000000000000000000000000000000815260040161397090615baf565b60405180910390fd5b919050565b60008061398d86868686613c8e565b90506000801b600560008381526020019081526020016000205414613a6457600460009054906101000a900473ffffffffffffffffffffffffffffffffffffffff1673ffffffffffffffffffffffffffffffffffffffff1663c4d252f560056000848152602001908152602001600020546040518263ffffffff1660e01b8152600401613a1a919061586b565b600060405180830381600087803b158015613a3457600080fd5b505af1158015613a48573d6000803e3d6000fd5b5050505060056000828152602001908152602001600020600090555b80915050949350505050565b6000613a7a611b67565b613a9033600143613a8b91906161c5565b612071565b1015613ad1576040517f08c379a0000000000000000000000000000000000000000000000000000000008152600401613ac890615a4f565b60405180910390fd5b613add85858585613ecb565b9050949350505050565b60007f01ffc9a7000000000000000000000000000000000000000000000000000000007bffffffffffffffffffffffffffffffffffffffffffffffffffffffff1916827bffffffffffffffffffffffffffffffffffffffffffffffffffffffff1916149050919050565b60008383834630604051602001613b6c959493929190615886565b6040516020818303038152906040528051906020012090509392505050565b60006bffffffffffffffffffffffff8016821115613bde576040517f08c379a0000000000000000000000000000000000000000000000000000000008152600401613bd590615a2f565b60405180910390fd5b819050919050565b600043826000015167ffffffffffffffff16119050919050565b6000613c0b82614191565b8015613c25575043826000015167ffffffffffffffff1611155b9050919050565b6000806002600084815260200190815260200160002090508060050154613c5a613c558561112c565b612085565b10915050919050565b6000806002600084815260200190815260200160002090508060060154816005015411915050919050565b600080613c9d86868686611bda565b90506000613caa826114ea565b905060026007811115613ce6577f4e487b7100000000000000000000000000000000000000000000000000000000600052602160045260246000fd5b816007811115613d1f577f4e487b7100000000000000000000000000000000000000000000000000000000600052602160045260246000fd5b14158015613d9e575060066007811115613d62577f4e487b7100000000000000000000000000000000000000000000000000000000600052602160045260246000fd5b816007811115613d9b577f4e487b7100000000000000000000000000000000000000000000000000000000600052602160045260246000fd5b14155b8015613e1a5750600780811115613dde577f4e487b7100000000000000000000000000000000000000000000000000000000600052602160045260246000fd5b816007811115613e17577f4e487b7100000000000000000000000000000000000000000000000000000000600052602160045260246000fd5b14155b613e59576040517f08c379a0000000000000000000000000000000000000000000000000000000008152600401613e5090615b4f565b60405180910390fd5b600180600084815260200190815260200160002060020160016101000a81548160ff0219169083151502179055507f789cf55be980739dad1d0699b93b58e806b51c9d96619bfa8fe0a28abaa7b30c82604051613eb69190615c4a565b60405180910390a18192505050949350505050565b600080613ee18686868680519060200120611bda565b90508451865114613f27576040517f08c379a0000000000000000000000000000000000000000000000000000000008152600401613f1e90615a8f565b60405180910390fd5b8351865114613f6b576040517f08c379a0000000000000000000000000000000000000000000000000000000008152600401613f6290615a8f565b60405180910390fd5b6000865111613faf576040517f08c379a0000000000000000000000000000000000000000000000000000000008152600401613fa690615aef565b60405180910390fd5b600060016000838152602001908152602001600020905061400f816000016040518060200160405290816000820160009054906101000a900467ffffffffffffffff1667ffffffffffffffff1667ffffffffffffffff16815250506141ab565b61404e576040517f08c379a000000000000000000000000000000000000000000000000000000000815260040161404590615bcf565b60405180910390fd5b600061406061405b611457565b6141c5565b614069436141c5565b61407391906160fc565b90506000614087614082610afd565b6141c5565b8261409291906160fc565b90506140aa828460000161421c90919063ffffffff16565b6140c0818460010161421c90919063ffffffff16565b7f7d84a6263ae0d98d3329bd7b46bb4e8d6f98cd35a7adb45c274c8b7fd5ebd5e0846140ea6123f9565b8b8b8d5167ffffffffffffffff81111561412d577f4e487b7100000000000000000000000000000000000000000000000000000000600052604160045260246000fd5b60405190808252806020026020018201604052801561416057816020015b606081526020019060019003908161414b5790505b508c88888e60405161417a99989796959493929190615c65565b60405180910390a183945050505050949350505050565b600080826000015167ffffffffffffffff16119050919050565b600080826000015167ffffffffffffffff16149050919050565b600067ffffffffffffffff8016821115614214576040517f08c379a000000000000000000000000000000000000000000000000000000000815260040161420b90615b2f565b60405180910390fd5b819050919050565b808260000160006101000a81548167ffffffffffffffff021916908367ffffffffffffffff1602179055505050565b6040518060600160405280600015158152602001600060ff16815260200160006bffffffffffffffffffffffff1681525090565b8280548282559060005260206000209081019282156142f8579160200282015b828111156142f75782518260006101000a81548173ffffffffffffffffffffffffffffffffffffffff021916908373ffffffffffffffffffffffffffffffffffffffff1602179055509160200191906001019061429f565b5b5090506143059190614416565b5090565b828054828255906000526020600020908101928215614345579160200282015b82811115614344578251825591602001919060010190614329565b5b5090506143529190614416565b5090565b8280548282559060005260206000209081019282156143a5579160200282015b828111156143a4578251829080519060200190614394929190614433565b5091602001919060010190614376565b5b5090506143b291906144b9565b5090565b828054828255906000526020600020908101928215614405579160200282015b828111156144045782518290805190602001906143f49291906144dd565b50916020019190600101906143d6565b5b5090506144129190614563565b5090565b5b8082111561442f576000816000905550600101614417565b5090565b82805461443f90616395565b90600052602060002090601f01602090048101928261446157600085556144a8565b82601f1061447a57805160ff19168380011785556144a8565b828001600101855582156144a8579182015b828111156144a757825182559160200191906001019061448c565b5b5090506144b59190614416565b5090565b5b808211156144d957600081816144d09190614587565b506001016144ba565b5090565b8280546144e990616395565b90600052602060002090601f01602090048101928261450b5760008555614552565b82601f1061452457805160ff1916838001178555614552565b82800160010185558215614552579182015b82811115614551578251825591602001919060010190614536565b5b50905061455f9190614416565b5090565b5b80821115614583576000818161457a91906145c7565b50600101614564565b5090565b50805461459390616395565b6000825580601f106145a557506145c4565b601f0160209004906000526020600020908101906145c39190614416565b5b50565b5080546145d390616395565b6000825580601f106145e55750614604565b601f0160209004906000526020600020908101906146039190614416565b5b50565b600061461a61461584615e4b565b615e26565b9050808382526020820190508285602086028201111561463957600080fd5b60005b85811015614669578161464f8882614815565b84526020840193506020830192505060018101905061463c565b5050509392505050565b600061468661468184615e77565b615e26565b9050808382526020820190508260005b858110156146c657813585016146ac8882614926565b845260208401935060208301925050600181019050614696565b5050509392505050565b60006146e36146de84615ea3565b615e26565b9050808382526020820190508260005b85811015614723578135850161470988826149af565b8452602084019350602083019250506001810190506146f3565b5050509392505050565b600061474061473b84615ecf565b615e26565b9050808382526020820190508285602086028201111561475f57600080fd5b60005b8581101561478f578161477588826149d9565b845260208401935060208301925050600181019050614762565b5050509392505050565b60006147ac6147a784615efb565b615e26565b9050828152602081018484840111156147c457600080fd5b6147cf848285616353565b509392505050565b60006147ea6147e584615f2c565b615e26565b90508281526020810184848401111561480257600080fd5b61480d848285616353565b509392505050565b60008135905061482481616ad6565b92915050565b600082601f83011261483b57600080fd5b813561484b848260208601614607565b91505092915050565b600082601f83011261486557600080fd5b8135614875848260208601614673565b91505092915050565b600082601f83011261488f57600080fd5b813561489f8482602086016146d0565b91505092915050565b600082601f8301126148b957600080fd5b81356148c984826020860161472d565b91505092915050565b6000815190506148e181616aed565b92915050565b6000813590506148f681616b04565b92915050565b60008151905061490b81616b04565b92915050565b60008135905061492081616b1b565b92915050565b600082601f83011261493757600080fd5b8135614947848260208601614799565b91505092915050565b60008135905061495f81616b32565b92915050565b60008083601f84011261497757600080fd5b8235905067ffffffffffffffff81111561499057600080fd5b6020830191508360018202830111156149a857600080fd5b9250929050565b600082601f8301126149c057600080fd5b81356149d08482602086016147d7565b91505092915050565b6000813590506149e881616b49565b92915050565b6000815190506149fd81616b49565b92915050565b600081359050614a1281616b60565b92915050565b60008060408385031215614a2b57600080fd5b6000614a3985828601614815565b9250506020614a4a858286016149d9565b9150509250929050565b60008060008060808587031215614a6a57600080fd5b600085013567ffffffffffffffff811115614a8457600080fd5b614a908782880161482a565b945050602085013567ffffffffffffffff811115614aad57600080fd5b614ab9878288016148a8565b935050604085013567ffffffffffffffff811115614ad657600080fd5b614ae287828801614854565b9250506060614af3878288016148e7565b91505092959194509250565b60008060008060808587031215614b1557600080fd5b600085013567ffffffffffffffff811115614b2f57600080fd5b614b3b8782880161482a565b945050602085013567ffffffffffffffff811115614b5857600080fd5b614b64878288016148a8565b935050604085013567ffffffffffffffff811115614b8157600080fd5b614b8d87828801614854565b925050606085013567ffffffffffffffff811115614baa57600080fd5b614bb6878288016149af565b91505092959194509250565b600080600080600060a08688031215614bda57600080fd5b600086013567ffffffffffffffff811115614bf457600080fd5b614c008882890161482a565b955050602086013567ffffffffffffffff811115614c1d57600080fd5b614c29888289016148a8565b945050604086013567ffffffffffffffff811115614c4657600080fd5b614c528882890161487e565b935050606086013567ffffffffffffffff811115614c6f57600080fd5b614c7b88828901614854565b925050608086013567ffffffffffffffff811115614c9857600080fd5b614ca4888289016149af565b9150509295509295909350565b600060208284031215614cc357600080fd5b6000614cd1848285016148d2565b91505092915050565b600060208284031215614cec57600080fd5b6000614cfa848285016148fc565b91505092915050565b600060208284031215614d1557600080fd5b6000614d2384828501614911565b91505092915050565b600060208284031215614d3e57600080fd5b6000614d4c84828501614950565b91505092915050565b600060208284031215614d6757600080fd5b6000614d75848285016149d9565b91505092915050565b600060208284031215614d9057600080fd5b6000614d9e848285016149ee565b91505092915050565b60008060408385031215614dba57600080fd5b6000614dc8858286016149d9565b9250506020614dd985828601614815565b9150509250929050565b60008060408385031215614df657600080fd5b6000614e04858286016149d9565b9250506020614e1585828601614a03565b9150509250929050565b60008060008060608587031215614e3557600080fd5b6000614e43878288016149d9565b9450506020614e5487828801614a03565b935050604085013567ffffffffffffffff811115614e7157600080fd5b614e7d87828801614965565b925092505092959194509250565b600080600080600060a08688031215614ea357600080fd5b6000614eb1888289016149d9565b9550506020614ec288828901614a03565b9450506040614ed388828901614a03565b9350506060614ee4888289016148e7565b9250506080614ef5888289016148e7565b9150509295509295909350565b6000614f0e8383614f5a565b60208301905092915050565b6000614f268383615162565b905092915050565b6000614f3a8383615201565b905092915050565b6000614f4e83836155a2565b60208301905092915050565b614f63816161f9565b82525050565b614f72816161f9565b82525050565b6000614f8382615f9d565b614f8d8185616013565b9350614f9883615f5d565b8060005b83811015614fc9578151614fb08882614f02565b9750614fbb83615fdf565b925050600181019050614f9c565b5085935050505092915050565b6000614fe182615fa8565b614feb8185616024565b935083602082028501614ffd85615f6d565b8060005b85811015615039578484038952815161501a8582614f1a565b945061502583615fec565b925060208a01995050600181019050615001565b50829750879550505050505092915050565b600061505682615fb3565b6150608185616035565b93508360208202850161507285615f7d565b8060005b858110156150ae578484038952815161508f8582614f2e565b945061509a83615ff9565b925060208a01995050600181019050615076565b50829750879550505050505092915050565b60006150cb82615fbe565b6150d58185616046565b93506150e083615f8d565b8060005b838110156151115781516150f88882614f42565b975061510383616006565b9250506001810190506150e4565b5085935050505092915050565b6151278161621d565b82525050565b6151368161621d565b82525050565b61514581616229565b82525050565b61515c61515782616229565b616441565b82525050565b600061516d82615fc9565b6151778185616057565b9350615187818560208601616362565b61519081616536565b840191505092915050565b60006151a682615fc9565b6151b08185616068565b93506151c0818560208601616362565b6151c981616536565b840191505092915050565b6151dd816162f1565b82525050565b6151ec81616315565b82525050565b6151fb81616327565b82525050565b600061520c82615fd4565b6152168185616079565b9350615226818560208601616362565b61522f81616536565b840191505092915050565b600061524582615fd4565b61524f818561608a565b935061525f818560208601616362565b61526881616536565b840191505092915050565b600061527e82615fd4565b615288818561609b565b9350615298818560208601616362565b80840191505092915050565b60006152b160188361608a565b91506152bc82616554565b602082019050919050565b60006152d460188361608a565b91506152df8261657d565b602082019050919050565b60006152f760438361608a565b9150615302826165a6565b606082019050919050565b600061531a60268361608a565b91506153258261661b565b604082019050919050565b600061533d60438361608a565b91506153488261666a565b606082019050919050565b6000615360601f8361608a565b915061536b826166df565b602082019050919050565b600061538360028361609b565b915061538e82616708565b600282019050919050565b60006153a660218361608a565b91506153b182616731565b604082019050919050565b60006153c960228361608a565b91506153d482616780565b604082019050919050565b60006153ec60238361608a565b91506153f7826167cf565b604082019050919050565b600061540f60188361608a565b915061541a8261681e565b602082019050919050565b600061543260228361608a565b915061543d82616847565b604082019050919050565b600061545560268361608a565b915061546082616896565b604082019050919050565b6000615478601d8361608a565b9150615483826168e5565b602082019050919050565b600061549b60218361608a565b91506154a68261690e565b604082019050919050565b60006154be602d8361608a565b91506154c98261695d565b604082019050919050565b60006154e1601d8361608a565b91506154ec826169ac565b602082019050919050565b600061550460218361608a565b915061550f826169d5565b604082019050919050565b600061552760278361608a565b915061553282616a24565b604082019050919050565b600061554a602d8361608a565b915061555582616a73565b604082019050919050565b606082016000820151615576600085018261511e565b50602082015161558960208501826155cf565b50604082015161559c60408501826155ed565b50505050565b6155ab816162ae565b82525050565b6155ba816162ae565b82525050565b6155c981616341565b82525050565b6155d8816162cc565b82525050565b6155e7816162cc565b82525050565b6155f6816162d9565b82525050565b60006156088284615273565b915081905092915050565b600061561e82615376565b915061562a828561514b565b60208201915061563a828461514b565b6020820191508190509392505050565b600060208201905061565f6000830184614f69565b92915050565b600060408201905061567a6000830185614f69565b6156876020830184614f69565b9392505050565b60006040820190506156a36000830185614f69565b6156b060208301846155b1565b9392505050565b600060808201905081810360008301526156d18187614f78565b905081810360208301526156e581866150c0565b905081810360408301526156f98185614fd6565b9050615708606083018461513c565b95945050505050565b600060a082019050818103600083015261572b8188614f78565b9050818103602083015261573f81876150c0565b905081810360408301526157538186614fd6565b905061576260608301856151f2565b61576f608083018461513c565b9695505050505050565b600060c08201905081810360008301526157938189614f78565b905081810360208301526157a781886150c0565b905081810360408301526157bb8187614fd6565b90506157ca60608301866151f2565b6157d7608083018561513c565b6157e460a08301846155b1565b979650505050505050565b600060808201905081810360008301526158098187614f78565b9050818103602083015261581d81866150c0565b90508181036040830152615831818561504b565b905081810360608301526158458184614fd6565b905095945050505050565b6000602082019050615865600083018461512d565b92915050565b6000602082019050615880600083018461513c565b92915050565b600060a08201905061589b600083018861513c565b6158a8602083018761513c565b6158b5604083018661513c565b6158c260608301856155b1565b6158cf6080830184614f69565b9695505050505050565b60006060820190506158ee600083018661513c565b6158fb60208301856155b1565b61590860408301846155de565b949350505050565b6000608082019050615925600083018761513c565b61593260208301866155de565b61593f604083018561513c565b61594c606083018461513c565b95945050505050565b6000602082019050818103600083015261596f818461519b565b905092915050565b600060208201905061598c60008301846151d4565b92915050565b60006020820190506159a760008301846151e3565b92915050565b600060208201905081810360008301526159c7818461523a565b905092915050565b600060208201905081810360008301526159e8816152a4565b9050919050565b60006020820190508181036000830152615a08816152c7565b9050919050565b60006020820190508181036000830152615a28816152ea565b9050919050565b60006020820190508181036000830152615a488161530d565b9050919050565b60006020820190508181036000830152615a6881615330565b9050919050565b60006020820190508181036000830152615a8881615353565b9050919050565b60006020820190508181036000830152615aa881615399565b9050919050565b60006020820190508181036000830152615ac8816153bc565b9050919050565b60006020820190508181036000830152615ae8816153df565b9050919050565b60006020820190508181036000830152615b0881615402565b9050919050565b60006020820190508181036000830152615b2881615425565b9050919050565b60006020820190508181036000830152615b4881615448565b9050919050565b60006020820190508181036000830152615b688161546b565b9050919050565b60006020820190508181036000830152615b888161548e565b9050919050565b60006020820190508181036000830152615ba8816154b1565b9050919050565b60006020820190508181036000830152615bc8816154d4565b9050919050565b60006020820190508181036000830152615be8816154f7565b9050919050565b60006020820190508181036000830152615c088161551a565b9050919050565b60006020820190508181036000830152615c288161553d565b9050919050565b6000606082019050615c446000830184615560565b92915050565b6000602082019050615c5f60008301846155b1565b92915050565b600061012082019050615c7b600083018c6155b1565b615c88602083018b614f69565b8181036040830152615c9a818a614f78565b90508181036060830152615cae81896150c0565b90508181036080830152615cc2818861504b565b905081810360a0830152615cd68187614fd6565b9050615ce560c08301866155c0565b615cf260e08301856155c0565b818103610100830152615d05818461523a565b90509a9950505050505050505050565b600061014082019050615d2b600083018d6155b1565b615d38602083018c614f69565b615d45604083018b6155b1565b615d52606083018a6155b1565b615d5f60808301896155b1565b615d6c60a08301886155b1565b615d7960c08301876155b1565b615d8660e08301866155b1565b615d9461010083018561512d565b615da261012083018461512d565b9b9a5050505050505050505050565b6000604082019050615dc660008301856155b1565b615dd360208301846155b1565b9392505050565b6000608082019050615def60008301876155b1565b615dfc60208301866155de565b615e0960408301856155b1565b8181036060830152615e1b818461523a565b905095945050505050565b6000615e30615e41565b9050615e3c82826163c7565b919050565b6000604051905090565b600067ffffffffffffffff821115615e6657615e65616507565b5b602082029050602081019050919050565b600067ffffffffffffffff821115615e9257615e91616507565b5b602082029050602081019050919050565b600067ffffffffffffffff821115615ebe57615ebd616507565b5b602082029050602081019050919050565b600067ffffffffffffffff821115615eea57615ee9616507565b5b602082029050602081019050919050565b600067ffffffffffffffff821115615f1657615f15616507565b5b615f1f82616536565b9050602081019050919050565b600067ffffffffffffffff821115615f4757615f46616507565b5b615f5082616536565b9050602081019050919050565b6000819050602082019050919050565b6000819050602082019050919050565b6000819050602082019050919050565b6000819050602082019050919050565b600081519050919050565b600081519050919050565b600081519050919050565b600081519050919050565b600081519050919050565b600081519050919050565b6000602082019050919050565b6000602082019050919050565b6000602082019050919050565b6000602082019050919050565b600082825260208201905092915050565b600082825260208201905092915050565b600082825260208201905092915050565b600082825260208201905092915050565b600082825260208201905092915050565b600082825260208201905092915050565b600082825260208201905092915050565b600082825260208201905092915050565b600081905092915050565b60006160b1826162ae565b91506160bc836162ae565b9250827fffffffffffffffffffffffffffffffffffffffffffffffffffffffffffffffff038211156160f1576160f061644b565b5b828201905092915050565b6000616107826162b8565b9150616112836162b8565b92508267ffffffffffffffff0382111561612f5761612e61644b565b5b828201905092915050565b6000616145826162ae565b9150616150836162ae565b9250826161605761615f61647a565b5b828204905092915050565b6000616176826162ae565b9150616181836162ae565b9250817fffffffffffffffffffffffffffffffffffffffffffffffffffffffffffffffff04831182151516156161ba576161b961644b565b5b828202905092915050565b60006161d0826162ae565b91506161db836162ae565b9250828210156161ee576161ed61644b565b5b828203905092915050565b60006162048261628e565b9050919050565b60006162168261628e565b9050919050565b60008115159050919050565b6000819050919050565b60007fffffffff0000000000000000000000000000000000000000000000000000000082169050919050565b600061626a8261620b565b9050919050565b600081905061627f82616ac2565b919050565b6000819050919050565b600073ffffffffffffffffffffffffffffffffffffffff82169050919050565b6000819050919050565b600067ffffffffffffffff82169050919050565b600060ff82169050919050565b60006bffffffffffffffffffffffff82169050919050565b60006162fc82616303565b9050919050565b600061630e8261628e565b9050919050565b600061632082616271565b9050919050565b600061633a61633583616284565b616547565b9050919050565b600061634c826162b8565b9050919050565b82818337600083830152505050565b60005b83811015616380578082015181840152602081019050616365565b8381111561638f576000848401525b50505050565b600060028204905060018216806163ad57607f821691505b602082108114156163c1576163c06164d8565b5b50919050565b6163d082616536565b810181811067ffffffffffffffff821117156163ef576163ee616507565b5b80604052505050565b6000616403826162ae565b91507fffffffffffffffffffffffffffffffffffffffffffffffffffffffffffffffff8214156164365761643561644b565b5b600182019050919050565b6000819050919050565b7f4e487b7100000000000000000000000000000000000000000000000000000000600052601160045260246000fd5b7f4e487b7100000000000000000000000000000000000000000000000000000000600052601260045260246000fd5b7f4e487b7100000000000000000000000000000000000000000000000000000000600052602160045260246000fd5b7f4e487b7100000000000000000000000000000000000000000000000000000000600052602260045260246000fd5b7f4e487b7100000000000000000000000000000000000000000000000000000000600052604160045260246000fd5b6000601f19601f8301169050919050565b60008160001b9050919050565b7f45434453413a20696e76616c6964207369676e61747572650000000000000000600082015250565b7f476f7665726e6f723a206f6e6c79476f7665726e616e63650000000000000000600082015250565b7f476f7665726e6f72566f74657351756f72756d4672616374696f6e3a2071756f60008201527f72756d4e756d657261746f72206f7665722071756f72756d44656e6f6d696e6160208201527f746f720000000000000000000000000000000000000000000000000000000000604082015250565b7f53616665436173743a2076616c756520646f65736e27742066697420696e203960008201527f3620626974730000000000000000000000000000000000000000000000000000602082015250565b7f476f7665726e6f72436f6d7061746962696c697479427261766f3a2070726f7060008201527f6f73657220766f7465732062656c6f772070726f706f73616c2074687265736860208201527f6f6c640000000000000000000000000000000000000000000000000000000000604082015250565b7f45434453413a20696e76616c6964207369676e6174757265206c656e67746800600082015250565b7f1901000000000000000000000000000000000000000000000000000000000000600082015250565b7f476f7665726e6f723a20696e76616c69642070726f706f73616c206c656e677460008201527f6800000000000000000000000000000000000000000000000000000000000000602082015250565b7f45434453413a20696e76616c6964207369676e6174757265202773272076616c60008201527f7565000000000000000000000000000000000000000000000000000000000000602082015250565b7f476f7665726e6f723a20766f7465206e6f742063757272656e746c792061637460008201527f6976650000000000000000000000000000000000000000000000000000000000602082015250565b7f476f7665726e6f723a20656d7074792070726f706f73616c0000000000000000600082015250565b7f45434453413a20696e76616c6964207369676e6174757265202776272076616c60008201527f7565000000000000000000000000000000000000000000000000000000000000602082015250565b7f53616665436173743a2076616c756520646f65736e27742066697420696e203660008201527f3420626974730000000000000000000000000000000000000000000000000000602082015250565b7f476f7665726e6f723a2070726f706f73616c206e6f7420616374697665000000600082015250565b7f476f7665726e6f723a2070726f706f73616c206e6f742073756363657373667560008201527f6c00000000000000000000000000000000000000000000000000000000000000602082015250565b7f476f7665726e6f72436f6d7061746962696c697479427261766f3a20696e766160008201527f6c696420766f7465207479706500000000000000000000000000000000000000602082015250565b7f476f7665726e6f723a20756e6b6e6f776e2070726f706f73616c206964000000600082015250565b7f476f7665726e6f723a2070726f706f73616c20616c726561647920657869737460008201527f7300000000000000000000000000000000000000000000000000000000000000602082015250565b7f476f7665726e6f72427261766f3a2070726f706f7365722061626f766520746860008201527f726573686f6c6400000000000000000000000000000000000000000000000000602082015250565b7f476f7665726e6f72436f6d7061746962696c697479427261766f3a20766f746560008201527f20616c7265616479206361737400000000000000000000000000000000000000602082015250565b60088110616ad357616ad26164a9565b5b50565b616adf816161f9565b8114616aea57600080fd5b50565b616af68161621d565b8114616b0157600080fd5b50565b616b0d81616229565b8114616b1857600080fd5b50565b616b2481616233565b8114616b2f57600080fd5b50565b616b3b8161625f565b8114616b4657600080fd5b50565b616b52816162ae565b8114616b5d57600080fd5b50565b616b69816162cc565b8114616b7457600080fd5b5056fea2646970667358221220e13b4ed4bd8c7ee2e5cfb66feb1373a7000e803e50f87a547995958d95fcafbd64736f6c63430008020033",
  "immutableReferences": {
    "3657": [
      {
        "length": 32,
        "start": 8345
      },
      {
        "length": 32,
        "start": 11518
      },
      {
        "length": 32,
        "start": 11715
      }
    ],
    "7617": [
      {
        "length": 32,
        "start": 12275
      }
    ],
    "7619": [
      {
        "length": 32,
        "start": 12235
      }
    ],
    "7621": [
      {
        "length": 32,
        "start": 12351
      }
    ],
    "7623": [
      {
        "length": 32,
        "start": 12384
      }
    ],
    "7625": [
      {
        "length": 32,
        "start": 12318
      }
    ]
  },
  "source": "// SPDX-License-Identifier: MIT\r\npragma solidity ^0.8.2;\r\n\r\nimport \"@openzeppelin/contracts/governance/Governor.sol\";\r\nimport \"@openzeppelin/contracts/governance/compatibility/GovernorCompatibilityBravo.sol\";\r\nimport \"@openzeppelin/contracts/governance/extensions/GovernorVotes.sol\";\r\nimport \"@openzeppelin/contracts/governance/extensions/GovernorVotesQuorumFraction.sol\";\r\nimport \"@openzeppelin/contracts/governance/extensions/GovernorTimelockControl.sol\";\r\n\r\n/// @custom:security-contact fccoelho@gmail.com\r\ncontract DPubGovernor is Governor, GovernorCompatibilityBravo, GovernorVotes, GovernorVotesQuorumFraction, GovernorTimelockControl {\r\n    constructor(ERC20Votes _token, TimelockController _timelock)\r\n        Governor(\"DPubGovernor\")\r\n        GovernorVotes(_token)\r\n        GovernorVotesQuorumFraction(4)\r\n        GovernorTimelockControl(_timelock)\r\n    {}\r\n\r\n    function votingDelay() public pure override returns (uint256) {\r\n        return 1; // 1 block\r\n    }\r\n\r\n    function votingPeriod() public pure override returns (uint256) {\r\n        return 45818; // 1 week\r\n    }\r\n\r\n    function proposalThreshold() public pure override returns (uint256) {\r\n        return 0e18;\r\n    }\r\n\r\n    // The following functions are overrides required by Solidity.\r\n\r\n    function quorum(uint256 blockNumber)\r\n        public\r\n        view\r\n        override(IGovernor, GovernorVotesQuorumFraction)\r\n        returns (uint256)\r\n    {\r\n        return super.quorum(blockNumber);\r\n    }\r\n\r\n    function getVotes(address account, uint256 blockNumber)\r\n        public\r\n        view\r\n        override(IGovernor, GovernorVotes)\r\n        returns (uint256)\r\n    {\r\n        return super.getVotes(account, blockNumber);\r\n    }\r\n\r\n    function state(uint256 proposalId)\r\n        public\r\n        view\r\n        override(Governor, IGovernor, GovernorTimelockControl)\r\n        returns (ProposalState)\r\n    {\r\n        return super.state(proposalId);\r\n    }\r\n\r\n    function propose(address[] memory targets, uint256[] memory values, bytes[] memory calldatas, string memory description)\r\n        public\r\n        override(Governor, GovernorCompatibilityBravo, IGovernor)\r\n        returns (uint256)\r\n    {\r\n        return super.propose(targets, values, calldatas, description);\r\n    }\r\n\r\n    function _execute(uint256 proposalId, address[] memory targets, uint256[] memory values, bytes[] memory calldatas, bytes32 descriptionHash)\r\n        internal\r\n        override(Governor, GovernorTimelockControl)\r\n    {\r\n        super._execute(proposalId, targets, values, calldatas, descriptionHash);\r\n    }\r\n\r\n    function _cancel(address[] memory targets, uint256[] memory values, bytes[] memory calldatas, bytes32 descriptionHash)\r\n        internal\r\n        override(Governor, GovernorTimelockControl)\r\n        returns (uint256)\r\n    {\r\n        return super._cancel(targets, values, calldatas, descriptionHash);\r\n    }\r\n\r\n    function _executor()\r\n        internal\r\n        view\r\n        override(Governor, GovernorTimelockControl)\r\n        returns (address)\r\n    {\r\n        return super._executor();\r\n    }\r\n\r\n    function supportsInterface(bytes4 interfaceId)\r\n        public\r\n        view\r\n        override(Governor, IERC165, GovernorTimelockControl)\r\n        returns (bool)\r\n    {\r\n        return super.supportsInterface(interfaceId);\r\n    }\r\n}",
  "sourcePath": "/mnt/c/Users/emanu/Documents/GitHub/Dpublish/contracts/DPubGovernor.sol",
  "compiler": {
    "name": "solc",
    "version": "0.8.2+commit.661d1103.Emscripten.clang"
  },
  "schemaVersion": "3.4.3",
  "updatedAt": "2021-11-20T14:07:40.736Z",
  "devdoc": {
    "custom:security-contact": "fccoelho@gmail.com",
    "kind": "dev",
    "methods": {
      "COUNTING_MODE()": {
        "details": "A description of the possible `support` values for {castVote} and the way these votes are counted, meant to be consumed by UIs to show correct vote options and interpret the results. The string is a URL-encoded sequence of key-value pairs that each describe one aspect, for example `support=bravo&quorum=for,abstain`. There are 2 standard keys: `support` and `quorum`. - `support=bravo` refers to the vote options 0 = For, 1 = Against, 2 = Abstain, as in `GovernorBravo`. - `quorum=bravo` means that only For votes are counted towards quorum. - `quorum=for,abstain` means that both For and Abstain votes are counted towards quorum. NOTE: The string can be decoded by the standard https://developer.mozilla.org/en-US/docs/Web/API/URLSearchParams[`URLSearchParams`] JavaScript class."
      },
      "cancel(uint256)": {
        "details": "Cancels a proposal only if sender is the proposer, or proposer delegates dropped below proposal threshold."
      },
      "castVote(uint256,uint8)": {
        "details": "See {IGovernor-castVote}."
      },
      "castVoteBySig(uint256,uint8,uint8,bytes32,bytes32)": {
        "details": "See {IGovernor-castVoteBySig}."
      },
      "castVoteWithReason(uint256,uint8,string)": {
        "details": "See {IGovernor-castVoteWithReason}."
      },
      "execute(address[],uint256[],bytes[],bytes32)": {
        "details": "See {IGovernor-execute}."
      },
      "execute(uint256)": {
        "details": "See {IGovernorCompatibilityBravo-execute}."
      },
      "getActions(uint256)": {
        "details": "See {IGovernorCompatibilityBravo-getActions}."
      },
      "getReceipt(uint256,address)": {
        "details": "See {IGovernorCompatibilityBravo-getReceipt}."
      },
      "hasVoted(uint256,address)": {
        "details": "See {IGovernor-hasVoted}."
      },
      "hashProposal(address[],uint256[],bytes[],bytes32)": {
        "details": "See {IGovernor-hashProposal}. The proposal id is produced by hashing the RLC encoded `targets` array, the `values` array, the `calldatas` array and the descriptionHash (bytes32 which itself is the keccak256 hash of the description string). This proposal id can be produced from the proposal data which is part of the {ProposalCreated} event. It can even be computed in advance, before the proposal is submitted. Note that the chainId and the governor address are not part of the proposal id computation. Consequently, the same proposal (with same operation and same description) will have the same id if submitted on multiple governors accross multiple networks. This also means that in order to execute the same operation twice (on the same governor) the proposer will have to change the description in order to avoid proposal id conflicts."
      },
      "name()": {
        "details": "See {IGovernor-name}."
      },
      "proposalDeadline(uint256)": {
        "details": "See {IGovernor-proposalDeadline}."
      },
      "proposalEta(uint256)": {
        "details": "Public accessor to check the eta of a queued proposal"
      },
      "proposalSnapshot(uint256)": {
        "details": "See {IGovernor-proposalSnapshot}."
      },
      "proposalThreshold()": {
        "details": "Part of the Governor Bravo's interface: _\"The number of votes required in order for a voter to become a proposer\"_."
      },
      "proposals(uint256)": {
        "details": "See {IGovernorCompatibilityBravo-proposals}."
      },
      "propose(address[],uint256[],string[],bytes[],string)": {
        "details": "See {IGovernorCompatibilityBravo-propose}."
      },
      "queue(address[],uint256[],bytes[],bytes32)": {
        "details": "Function to queue a proposal to the timelock."
      },
      "queue(uint256)": {
        "details": "See {IGovernorCompatibilityBravo-queue}."
      },
      "quorumVotes()": {
        "details": "See {IGovernorCompatibilityBravo-quorumVotes}."
      },
      "timelock()": {
        "details": "Public accessor to check the address of the timelock"
      },
      "updateTimelock(address)": {
        "details": "Public endpoint to update the underlying timelock instance. Restricted to the timelock itself, so updates must be proposed, scheduled and executed using the {Governor} workflow."
      },
      "version()": {
        "details": "See {IGovernor-version}."
      },
      "votingDelay()": {
        "details": "delay, in number of block, between the proposal is created and the vote starts. This can be increassed to leave time for users to buy voting power, of delegate it, before the voting of a proposal starts."
      },
      "votingPeriod()": {
        "details": "delay, in number of blocks, between the vote start and vote ends. Note: the {votingDelay} can delay the start of the vote. This must be considered when setting the voting duration compared to the voting delay."
      }
    },
    "version": 1
  },
  "userdoc": {
    "kind": "user",
    "methods": {
      "COUNTING_MODE()": {
        "notice": "module:voting"
      },
      "votingDelay()": {
        "notice": "module:user-config"
      },
      "votingPeriod()": {
        "notice": "module:user-config"
      }
    },
    "version": 1
  }
}