{
  "contractName": "DPubGovernor",
  "abi": [
    {
      "inputs": [
        {
          "internalType": "contract ERC20Votes",
          "name": "_token",
          "type": "address"
        },
        {
          "internalType": "contract TimelockController",
          "name": "_timelock",
          "type": "address"
        }
      ],
      "stateMutability": "nonpayable",
      "type": "constructor"
    },
    {
      "anonymous": false,
      "inputs": [
        {
          "indexed": false,
          "internalType": "uint256",
          "name": "proposalId",
          "type": "uint256"
        }
      ],
      "name": "ProposalCanceled",
      "type": "event"
    },
    {
      "anonymous": false,
      "inputs": [
        {
          "indexed": false,
          "internalType": "uint256",
          "name": "proposalId",
          "type": "uint256"
        },
        {
          "indexed": false,
          "internalType": "address",
          "name": "proposer",
          "type": "address"
        },
        {
          "indexed": false,
          "internalType": "address[]",
          "name": "targets",
          "type": "address[]"
        },
        {
          "indexed": false,
          "internalType": "uint256[]",
          "name": "values",
          "type": "uint256[]"
        },
        {
          "indexed": false,
          "internalType": "string[]",
          "name": "signatures",
          "type": "string[]"
        },
        {
          "indexed": false,
          "internalType": "bytes[]",
          "name": "calldatas",
          "type": "bytes[]"
        },
        {
          "indexed": false,
          "internalType": "uint256",
          "name": "startBlock",
          "type": "uint256"
        },
        {
          "indexed": false,
          "internalType": "uint256",
          "name": "endBlock",
          "type": "uint256"
        },
        {
          "indexed": false,
          "internalType": "string",
          "name": "description",
          "type": "string"
        }
      ],
      "name": "ProposalCreated",
      "type": "event"
    },
    {
      "anonymous": false,
      "inputs": [
        {
          "indexed": false,
          "internalType": "uint256",
          "name": "proposalId",
          "type": "uint256"
        }
      ],
      "name": "ProposalExecuted",
      "type": "event"
    },
    {
      "anonymous": false,
      "inputs": [
        {
          "indexed": false,
          "internalType": "uint256",
          "name": "proposalId",
          "type": "uint256"
        },
        {
          "indexed": false,
          "internalType": "uint256",
          "name": "eta",
          "type": "uint256"
        }
      ],
      "name": "ProposalQueued",
      "type": "event"
    },
    {
      "anonymous": false,
      "inputs": [
        {
          "indexed": false,
          "internalType": "uint256",
          "name": "oldQuorumNumerator",
          "type": "uint256"
        },
        {
          "indexed": false,
          "internalType": "uint256",
          "name": "newQuorumNumerator",
          "type": "uint256"
        }
      ],
      "name": "QuorumNumeratorUpdated",
      "type": "event"
    },
    {
      "anonymous": false,
      "inputs": [
        {
          "indexed": false,
          "internalType": "address",
          "name": "oldTimelock",
          "type": "address"
        },
        {
          "indexed": false,
          "internalType": "address",
          "name": "newTimelock",
          "type": "address"
        }
      ],
      "name": "TimelockChange",
      "type": "event"
    },
    {
      "anonymous": false,
      "inputs": [
        {
          "indexed": true,
          "internalType": "address",
          "name": "voter",
          "type": "address"
        },
        {
          "indexed": false,
          "internalType": "uint256",
          "name": "proposalId",
          "type": "uint256"
        },
        {
          "indexed": false,
          "internalType": "uint8",
          "name": "support",
          "type": "uint8"
        },
        {
          "indexed": false,
          "internalType": "uint256",
          "name": "weight",
          "type": "uint256"
        },
        {
          "indexed": false,
          "internalType": "string",
          "name": "reason",
          "type": "string"
        }
      ],
      "name": "VoteCast",
      "type": "event"
    },
    {
      "inputs": [],
      "name": "BALLOT_TYPEHASH",
      "outputs": [
        {
          "internalType": "bytes32",
          "name": "",
          "type": "bytes32"
        }
      ],
      "stateMutability": "view",
      "type": "function"
    },
    {
      "inputs": [],
      "name": "COUNTING_MODE",
      "outputs": [
        {
          "internalType": "string",
          "name": "",
          "type": "string"
        }
      ],
      "stateMutability": "pure",
      "type": "function"
    },
    {
      "inputs": [
        {
          "internalType": "uint256",
          "name": "proposalId",
          "type": "uint256"
        }
      ],
      "name": "cancel",
      "outputs": [],
      "stateMutability": "nonpayable",
      "type": "function"
    },
    {
      "inputs": [
        {
          "internalType": "uint256",
          "name": "proposalId",
          "type": "uint256"
        },
        {
          "internalType": "uint8",
          "name": "support",
          "type": "uint8"
        }
      ],
      "name": "castVote",
      "outputs": [
        {
          "internalType": "uint256",
          "name": "",
          "type": "uint256"
        }
      ],
      "stateMutability": "nonpayable",
      "type": "function"
    },
    {
      "inputs": [
        {
          "internalType": "uint256",
          "name": "proposalId",
          "type": "uint256"
        },
        {
          "internalType": "uint8",
          "name": "support",
          "type": "uint8"
        },
        {
          "internalType": "uint8",
          "name": "v",
          "type": "uint8"
        },
        {
          "internalType": "bytes32",
          "name": "r",
          "type": "bytes32"
        },
        {
          "internalType": "bytes32",
          "name": "s",
          "type": "bytes32"
        }
      ],
      "name": "castVoteBySig",
      "outputs": [
        {
          "internalType": "uint256",
          "name": "",
          "type": "uint256"
        }
      ],
      "stateMutability": "nonpayable",
      "type": "function"
    },
    {
      "inputs": [
        {
          "internalType": "uint256",
          "name": "proposalId",
          "type": "uint256"
        },
        {
          "internalType": "uint8",
          "name": "support",
          "type": "uint8"
        },
        {
          "internalType": "string",
          "name": "reason",
          "type": "string"
        }
      ],
      "name": "castVoteWithReason",
      "outputs": [
        {
          "internalType": "uint256",
          "name": "",
          "type": "uint256"
        }
      ],
      "stateMutability": "nonpayable",
      "type": "function"
    },
    {
      "inputs": [
        {
          "internalType": "address[]",
          "name": "targets",
          "type": "address[]"
        },
        {
          "internalType": "uint256[]",
          "name": "values",
          "type": "uint256[]"
        },
        {
          "internalType": "bytes[]",
          "name": "calldatas",
          "type": "bytes[]"
        },
        {
          "internalType": "bytes32",
          "name": "descriptionHash",
          "type": "bytes32"
        }
      ],
      "name": "execute",
      "outputs": [
        {
          "internalType": "uint256",
          "name": "",
          "type": "uint256"
        }
      ],
      "stateMutability": "payable",
      "type": "function"
    },
    {
      "inputs": [
        {
          "internalType": "uint256",
          "name": "proposalId",
          "type": "uint256"
        }
      ],
      "name": "execute",
      "outputs": [],
      "stateMutability": "payable",
      "type": "function"
    },
    {
      "inputs": [
        {
          "internalType": "uint256",
          "name": "proposalId",
          "type": "uint256"
        }
      ],
      "name": "getActions",
      "outputs": [
        {
          "internalType": "address[]",
          "name": "targets",
          "type": "address[]"
        },
        {
          "internalType": "uint256[]",
          "name": "values",
          "type": "uint256[]"
        },
        {
          "internalType": "string[]",
          "name": "signatures",
          "type": "string[]"
        },
        {
          "internalType": "bytes[]",
          "name": "calldatas",
          "type": "bytes[]"
        }
      ],
      "stateMutability": "view",
      "type": "function"
    },
    {
      "inputs": [
        {
          "internalType": "uint256",
          "name": "proposalId",
          "type": "uint256"
        },
        {
          "internalType": "address",
          "name": "voter",
          "type": "address"
        }
      ],
      "name": "getReceipt",
      "outputs": [
        {
          "components": [
            {
              "internalType": "bool",
              "name": "hasVoted",
              "type": "bool"
            },
            {
              "internalType": "uint8",
              "name": "support",
              "type": "uint8"
            },
            {
              "internalType": "uint96",
              "name": "votes",
              "type": "uint96"
            }
          ],
          "internalType": "struct IGovernorCompatibilityBravo.Receipt",
          "name": "",
          "type": "tuple"
        }
      ],
      "stateMutability": "view",
      "type": "function"
    },
    {
      "inputs": [
        {
          "internalType": "uint256",
          "name": "proposalId",
          "type": "uint256"
        },
        {
          "internalType": "address",
          "name": "account",
          "type": "address"
        }
      ],
      "name": "hasVoted",
      "outputs": [
        {
          "internalType": "bool",
          "name": "",
          "type": "bool"
        }
      ],
      "stateMutability": "view",
      "type": "function"
    },
    {
      "inputs": [
        {
          "internalType": "address[]",
          "name": "targets",
          "type": "address[]"
        },
        {
          "internalType": "uint256[]",
          "name": "values",
          "type": "uint256[]"
        },
        {
          "internalType": "bytes[]",
          "name": "calldatas",
          "type": "bytes[]"
        },
        {
          "internalType": "bytes32",
          "name": "descriptionHash",
          "type": "bytes32"
        }
      ],
      "name": "hashProposal",
      "outputs": [
        {
          "internalType": "uint256",
          "name": "",
          "type": "uint256"
        }
      ],
      "stateMutability": "pure",
      "type": "function"
    },
    {
      "inputs": [],
      "name": "name",
      "outputs": [
        {
          "internalType": "string",
          "name": "",
          "type": "string"
        }
      ],
      "stateMutability": "view",
      "type": "function"
    },
    {
      "inputs": [
        {
          "internalType": "uint256",
          "name": "proposalId",
          "type": "uint256"
        }
      ],
      "name": "proposalDeadline",
      "outputs": [
        {
          "internalType": "uint256",
          "name": "",
          "type": "uint256"
        }
      ],
      "stateMutability": "view",
      "type": "function"
    },
    {
      "inputs": [
        {
          "internalType": "uint256",
          "name": "proposalId",
          "type": "uint256"
        }
      ],
      "name": "proposalEta",
      "outputs": [
        {
          "internalType": "uint256",
          "name": "",
          "type": "uint256"
        }
      ],
      "stateMutability": "view",
      "type": "function"
    },
    {
      "inputs": [
        {
          "internalType": "uint256",
          "name": "proposalId",
          "type": "uint256"
        }
      ],
      "name": "proposalSnapshot",
      "outputs": [
        {
          "internalType": "uint256",
          "name": "",
          "type": "uint256"
        }
      ],
      "stateMutability": "view",
      "type": "function"
    },
    {
      "inputs": [
        {
          "internalType": "uint256",
          "name": "proposalId",
          "type": "uint256"
        }
      ],
      "name": "proposals",
      "outputs": [
        {
          "internalType": "uint256",
          "name": "id",
          "type": "uint256"
        },
        {
          "internalType": "address",
          "name": "proposer",
          "type": "address"
        },
        {
          "internalType": "uint256",
          "name": "eta",
          "type": "uint256"
        },
        {
          "internalType": "uint256",
          "name": "startBlock",
          "type": "uint256"
        },
        {
          "internalType": "uint256",
          "name": "endBlock",
          "type": "uint256"
        },
        {
          "internalType": "uint256",
          "name": "forVotes",
          "type": "uint256"
        },
        {
          "internalType": "uint256",
          "name": "againstVotes",
          "type": "uint256"
        },
        {
          "internalType": "uint256",
          "name": "abstainVotes",
          "type": "uint256"
        },
        {
          "internalType": "bool",
          "name": "canceled",
          "type": "bool"
        },
        {
          "internalType": "bool",
          "name": "executed",
          "type": "bool"
        }
      ],
      "stateMutability": "view",
      "type": "function"
    },
    {
      "inputs": [
        {
          "internalType": "address[]",
          "name": "targets",
          "type": "address[]"
        },
        {
          "internalType": "uint256[]",
          "name": "values",
          "type": "uint256[]"
        },
        {
          "internalType": "bytes[]",
          "name": "calldatas",
          "type": "bytes[]"
        },
        {
          "internalType": "bytes32",
          "name": "descriptionHash",
          "type": "bytes32"
        }
      ],
      "name": "queue",
      "outputs": [
        {
          "internalType": "uint256",
          "name": "",
          "type": "uint256"
        }
      ],
      "stateMutability": "nonpayable",
      "type": "function"
    },
    {
      "inputs": [
        {
          "internalType": "uint256",
          "name": "proposalId",
          "type": "uint256"
        }
      ],
      "name": "queue",
      "outputs": [],
      "stateMutability": "nonpayable",
      "type": "function"
    },
    {
      "inputs": [],
      "name": "quorumDenominator",
      "outputs": [
        {
          "internalType": "uint256",
          "name": "",
          "type": "uint256"
        }
      ],
      "stateMutability": "view",
      "type": "function"
    },
    {
      "inputs": [],
      "name": "quorumNumerator",
      "outputs": [
        {
          "internalType": "uint256",
          "name": "",
          "type": "uint256"
        }
      ],
      "stateMutability": "view",
      "type": "function"
    },
    {
      "inputs": [],
      "name": "quorumVotes",
      "outputs": [
        {
          "internalType": "uint256",
          "name": "",
          "type": "uint256"
        }
      ],
      "stateMutability": "view",
      "type": "function"
    },
    {
      "inputs": [],
      "name": "timelock",
      "outputs": [
        {
          "internalType": "address",
          "name": "",
          "type": "address"
        }
      ],
      "stateMutability": "view",
      "type": "function"
    },
    {
      "inputs": [],
      "name": "token",
      "outputs": [
        {
          "internalType": "contract ERC20Votes",
          "name": "",
          "type": "address"
        }
      ],
      "stateMutability": "view",
      "type": "function"
    },
    {
      "inputs": [
        {
          "internalType": "uint256",
          "name": "newQuorumNumerator",
          "type": "uint256"
        }
      ],
      "name": "updateQuorumNumerator",
      "outputs": [],
      "stateMutability": "nonpayable",
      "type": "function"
    },
    {
      "inputs": [
        {
          "internalType": "contract TimelockController",
          "name": "newTimelock",
          "type": "address"
        }
      ],
      "name": "updateTimelock",
      "outputs": [],
      "stateMutability": "nonpayable",
      "type": "function"
    },
    {
      "inputs": [],
      "name": "version",
      "outputs": [
        {
          "internalType": "string",
          "name": "",
          "type": "string"
        }
      ],
      "stateMutability": "view",
      "type": "function"
    },
    {
      "stateMutability": "payable",
      "type": "receive"
    },
    {
      "inputs": [],
      "name": "votingDelay",
      "outputs": [
        {
          "internalType": "uint256",
          "name": "",
          "type": "uint256"
        }
      ],
      "stateMutability": "pure",
      "type": "function"
    },
    {
      "inputs": [],
      "name": "votingPeriod",
      "outputs": [
        {
          "internalType": "uint256",
          "name": "",
          "type": "uint256"
        }
      ],
      "stateMutability": "pure",
      "type": "function"
    },
    {
      "inputs": [],
      "name": "proposalThreshold",
      "outputs": [
        {
          "internalType": "uint256",
          "name": "",
          "type": "uint256"
        }
      ],
      "stateMutability": "pure",
      "type": "function"
    },
    {
      "inputs": [
        {
          "internalType": "uint256",
          "name": "blockNumber",
          "type": "uint256"
        }
      ],
      "name": "quorum",
      "outputs": [
        {
          "internalType": "uint256",
          "name": "",
          "type": "uint256"
        }
      ],
      "stateMutability": "view",
      "type": "function"
    },
    {
      "inputs": [
        {
          "internalType": "address",
          "name": "account",
          "type": "address"
        },
        {
          "internalType": "uint256",
          "name": "blockNumber",
          "type": "uint256"
        }
      ],
      "name": "getVotes",
      "outputs": [
        {
          "internalType": "uint256",
          "name": "",
          "type": "uint256"
        }
      ],
      "stateMutability": "view",
      "type": "function"
    },
    {
      "inputs": [
        {
          "internalType": "uint256",
          "name": "proposalId",
          "type": "uint256"
        }
      ],
      "name": "state",
      "outputs": [
        {
          "internalType": "enum IGovernor.ProposalState",
          "name": "",
          "type": "uint8"
        }
      ],
      "stateMutability": "view",
      "type": "function"
    },
    {
      "inputs": [
        {
          "internalType": "address[]",
          "name": "targets",
          "type": "address[]"
        },
        {
          "internalType": "uint256[]",
          "name": "values",
          "type": "uint256[]"
        },
        {
          "internalType": "bytes[]",
          "name": "calldatas",
          "type": "bytes[]"
        },
        {
          "internalType": "string",
          "name": "description",
          "type": "string"
        }
      ],
      "name": "propose",
      "outputs": [
        {
          "internalType": "uint256",
          "name": "",
          "type": "uint256"
        }
      ],
      "stateMutability": "nonpayable",
      "type": "function"
    },
    {
      "inputs": [
        {
          "internalType": "address[]",
          "name": "targets",
          "type": "address[]"
        },
        {
          "internalType": "uint256[]",
          "name": "values",
          "type": "uint256[]"
        },
        {
          "internalType": "string[]",
          "name": "signatures",
          "type": "string[]"
        },
        {
          "internalType": "bytes[]",
          "name": "calldatas",
          "type": "bytes[]"
        },
        {
          "internalType": "string",
          "name": "description",
          "type": "string"
        }
      ],
      "name": "propose",
      "outputs": [
        {
          "internalType": "uint256",
          "name": "",
          "type": "uint256"
        }
      ],
      "stateMutability": "nonpayable",
      "type": "function"
    },
    {
      "inputs": [
        {
          "internalType": "bytes4",
          "name": "interfaceId",
          "type": "bytes4"
        }
      ],
      "name": "supportsInterface",
      "outputs": [
        {
          "internalType": "bool",
          "name": "",
          "type": "bool"
        }
      ],
      "stateMutability": "view",
      "type": "function"
    }
  ],
  "bytecode": "0x6101606040523480156200001257600080fd5b5060405162006f1a38038062006f1a8339818101604052810190620000389190620004fd565b806004836040518060400160405280600c81526020017f44507562476f7665726e6f7200000000000000000000000000000000000000008152508062000083620001b160201b60201c565b60008280519060200120905060008280519060200120905060007f8b73c3c69bb8fe3d512ecc4cf759cc79239f7b179b0ffacaa9a75d522b39400f90508260e081815250508161010081815250504660a08181525050620000ec818484620001ee60201b60201c565b608081815250503073ffffffffffffffffffffffffffffffffffffffff1660c08173ffffffffffffffffffffffffffffffffffffffff1681525050806101208181525050505050505080600090805190602001906200014d92919062000376565b50508073ffffffffffffffffffffffffffffffffffffffff166101408173ffffffffffffffffffffffffffffffffffffffff16815250505062000196816200022a60201b60201c565b50620001a881620002cc60201b60201c565b50505062000776565b60606040518060400160405280600181526020017f3100000000000000000000000000000000000000000000000000000000000000815250905090565b600083838346306040516020016200020b9594939291906200058b565b6040516020818303038152906040528051906020012090509392505050565b6200023a6200036d60201b60201c565b8111156200027f576040517f08c379a0000000000000000000000000000000000000000000000000000000008152600401620002769062000695565b60405180910390fd5b60006003549050816003819055507f0553476bf02ef2726e8ce5ced78d63e26e602e4a2257b1f559418e24b46339978183604051620002c0929190620006b7565b60405180910390a15050565b7f08f74ea46ef7894f65eabfb5e6e695de773a000b47c529ab559178069b226401600460009054906101000a900473ffffffffffffffffffffffffffffffffffffffff168260405162000321929190620006e4565b60405180910390a180600460006101000a81548173ffffffffffffffffffffffffffffffffffffffff021916908373ffffffffffffffffffffffffffffffffffffffff16021790555050565b60006064905090565b828054620003849062000740565b90600052602060002090601f016020900481019282620003a85760008555620003f4565b82601f10620003c357805160ff1916838001178555620003f4565b82800160010185558215620003f4579182015b82811115620003f3578251825591602001919060010190620003d6565b5b50905062000403919062000407565b5090565b5b808211156200042257600081600090555060010162000408565b5090565b600080fd5b600073ffffffffffffffffffffffffffffffffffffffff82169050919050565b600062000458826200042b565b9050919050565b60006200046c826200044b565b9050919050565b6200047e816200045f565b81146200048a57600080fd5b50565b6000815190506200049e8162000473565b92915050565b6000620004b1826200042b565b9050919050565b6000620004c582620004a4565b9050919050565b620004d781620004b8565b8114620004e357600080fd5b50565b600081519050620004f781620004cc565b92915050565b6000806040838503121562000517576200051662000426565b5b600062000527858286016200048d565b92505060206200053a85828601620004e6565b9150509250929050565b6000819050919050565b620005598162000544565b82525050565b6000819050919050565b62000574816200055f565b82525050565b62000585816200044b565b82525050565b600060a082019050620005a260008301886200054e565b620005b160208301876200054e565b620005c060408301866200054e565b620005cf606083018562000569565b620005de60808301846200057a565b9695505050505050565b600082825260208201905092915050565b7f476f7665726e6f72566f74657351756f72756d4672616374696f6e3a2071756f60008201527f72756d4e756d657261746f72206f7665722071756f72756d44656e6f6d696e6160208201527f746f720000000000000000000000000000000000000000000000000000000000604082015250565b60006200067d604383620005e8565b91506200068a82620005f9565b606082019050919050565b60006020820190508181036000830152620006b0816200066e565b9050919050565b6000604082019050620006ce600083018562000569565b620006dd602083018462000569565b9392505050565b6000604082019050620006fb60008301856200057a565b6200070a60208301846200057a565b9392505050565b7f4e487b7100000000000000000000000000000000000000000000000000000000600052602260045260246000fd5b600060028204905060018216806200075957607f821691505b6020821081141562000770576200076f62000711565b5b50919050565b60805160a05160c05160e05161010051610120516101405161673b620007df60003960008181611f4901528181612a180152612ace01526000612d4701526000612d8901526000612d6801526000612c9d01526000612cf301526000612d1c015261673b6000f3fe6080604052600436106102135760003560e01c80637d5e81e211610118578063da95691a116100a0578063e23a9a521161006f578063e23a9a52146108aa578063eb9019d4146108e7578063f8ce560a14610924578063fc0c546a14610961578063fe0d94c11461098c57610259565b8063da95691a146107ee578063dd4e2ba51461082b578063ddf0b00914610856578063deaaa7cc1461087f57610259565b8063ab58fb8e116100e7578063ab58fb8e146106e1578063b58131b01461071e578063c01f9e3714610749578063c59057e414610786578063d33219b4146107c357610259565b80637d5e81e21461062557806397c3d33414610662578063a7713a701461068d578063a890c910146106b857610259565b8063328dd9821161019b57806340e58ee51161016a57806340e58ee51461051a578063438596321461054357806354fd4d501461058057806356781388146105ab5780637b3c71d3146105e857610259565b8063328dd982146104355780633932abb1146104755780633bccf4fd146104a05780633e4f49e6146104dd57610259565b806306fdde03116101e257806306fdde0314610335578063160cbed71461036057806324bc1a641461039d5780632656227d146103c85780632d63f693146103f857610259565b8063013cf08b1461025e57806301ffc9a7146102a457806302a251a3146102e157806306f3f9e61461030c57610259565b36610259573073ffffffffffffffffffffffffffffffffffffffff166102376109a8565b73ffffffffffffffffffffffffffffffffffffffff161461025757600080fd5b005b600080fd5b34801561026a57600080fd5b5061028560048036038101906102809190614068565b6109b7565b60405161029b9a99989796959493929190614100565b60405180910390f35b3480156102b057600080fd5b506102cb60048036038101906102c691906141f4565b610aac565b6040516102d89190614221565b60405180910390f35b3480156102ed57600080fd5b506102f6610abe565b604051610303919061423c565b60405180910390f35b34801561031857600080fd5b50610333600480360381019061032e9190614068565b610ac8565b005b34801561034157600080fd5b5061034a610b50565b60405161035791906142f0565b60405180910390f35b34801561036c57600080fd5b5061038760048036038101906103829190614715565b610be2565b604051610394919061423c565b60405180910390f35b3480156103a957600080fd5b506103b2610e9c565b6040516103bf919061423c565b60405180910390f35b6103e260048036038101906103dd9190614715565b610eb8565b6040516103ef919061423c565b60405180910390f35b34801561040457600080fd5b5061041f600480360381019061041a9190614068565b610feb565b60405161042c919061423c565b60405180910390f35b34801561044157600080fd5b5061045c60048036038101906104579190614068565b611059565b60405161046c9493929190614b6f565b60405180910390f35b34801561048157600080fd5b5061048a611316565b604051610497919061423c565b60405180910390f35b3480156104ac57600080fd5b506104c760048036038101906104c29190614c09565b61131f565b6040516104d4919061423c565b60405180910390f35b3480156104e957600080fd5b5061050460048036038101906104ff9190614068565b6113a9565b6040516105119190614cfb565b60405180910390f35b34801561052657600080fd5b50610541600480360381019061053c9190614068565b6113bb565b005b34801561054f57600080fd5b5061056a60048036038101906105659190614d16565b611753565b6040516105779190614221565b60405180910390f35b34801561058c57600080fd5b506105956117c1565b6040516105a291906142f0565b60405180910390f35b3480156105b757600080fd5b506105d260048036038101906105cd9190614d56565b6117fe565b6040516105df919061423c565b60405180910390f35b3480156105f457600080fd5b5061060f600480360381019061060a9190614df1565b61182f565b60405161061c919061423c565b60405180910390f35b34801561063157600080fd5b5061064c60048036038101906106479190614f06565b611897565b604051610659919061423c565b60405180910390f35b34801561066e57600080fd5b506106776118af565b604051610684919061423c565b60405180910390f35b34801561069957600080fd5b506106a26118b8565b6040516106af919061423c565b60405180910390f35b3480156106c457600080fd5b506106df60048036038101906106da919061502d565b6118c2565b005b3480156106ed57600080fd5b5061070860048036038101906107039190614068565b61194a565b604051610715919061423c565b60405180910390f35b34801561072a57600080fd5b50610733611a17565b604051610740919061423c565b60405180910390f35b34801561075557600080fd5b50610770600480360381019061076b9190614068565b611a1c565b60405161077d919061423c565b60405180910390f35b34801561079257600080fd5b506107ad60048036038101906107a89190614715565b611a8a565b6040516107ba919061423c565b60405180910390f35b3480156107cf57600080fd5b506107d8611ac6565b6040516107e5919061505a565b60405180910390f35b3480156107fa57600080fd5b5061081560048036038101906108109190615156565b611af0565b604051610822919061423c565b60405180910390f35b34801561083757600080fd5b50610840611b27565b60405161084d91906142f0565b60405180910390f35b34801561086257600080fd5b5061087d60048036038101906108789190614068565b611b64565b005b34801561088b57600080fd5b50610894611e19565b6040516108a1919061526c565b60405180910390f35b3480156108b657600080fd5b506108d160048036038101906108cc9190614d16565b611e3d565b6040516108de919061530e565b60405180910390f35b3480156108f357600080fd5b5061090e60048036038101906109099190615329565b611f21565b60405161091b919061423c565b60405180910390f35b34801561093057600080fd5b5061094b60048036038101906109469190614068565b611f35565b604051610958919061423c565b60405180910390f35b34801561096d57600080fd5b50610976611f47565b60405161098391906153c8565b60405180910390f35b6109a660048036038101906109a19190614068565b611f6b565b005b60006109b2612220565b905090565b6000806000806000806000806000808a99506109d28b61194a565b97506109dd8b610feb565b96506109e88b611a1c565b95506000600260008d815260200190815260200160002090508060000160009054906101000a900473ffffffffffffffffffffffffffffffffffffffff1699508060050154955080600601549450806007015493506000610a488d6113a9565b905060026007811115610a5e57610a5d614c84565b5b816007811115610a7157610a70614c84565b5b149350600780811115610a8757610a86614c84565b5b816007811115610a9a57610a99614c84565b5b14925050509193959799509193959799565b6000610ab78261224a565b9050919050565b600061b2fa905090565b610ad06109a8565b73ffffffffffffffffffffffffffffffffffffffff16610aee6122c4565b73ffffffffffffffffffffffffffffffffffffffff1614610b44576040517f08c379a0000000000000000000000000000000000000000000000000000000008152600401610b3b9061542f565b60405180910390fd5b610b4d816122cc565b50565b606060008054610b5f9061547e565b80601f0160208091040260200160405190810160405280929190818152602001828054610b8b9061547e565b8015610bd85780601f10610bad57610100808354040283529160200191610bd8565b820191906000526020600020905b815481529060010190602001808311610bbb57829003601f168201915b5050505050905090565b600080610bf186868686611a8a565b905060046007811115610c0757610c06614c84565b5b610c10826113a9565b6007811115610c2257610c21614c84565b5b14610c62576040517f08c379a0000000000000000000000000000000000000000000000000000000008152600401610c5990615522565b60405180910390fd5b6000600460009054906101000a900473ffffffffffffffffffffffffffffffffffffffff1673ffffffffffffffffffffffffffffffffffffffff1663f27a0c926040518163ffffffff1660e01b8152600401602060405180830381865afa158015610cd1573d6000803e3d6000fd5b505050506040513d601f19601f82011682018060405250810190610cf59190615557565b9050600460009054906101000a900473ffffffffffffffffffffffffffffffffffffffff1673ffffffffffffffffffffffffffffffffffffffff1663b1c5f4278888886000896040518663ffffffff1660e01b8152600401610d5b9594939291906155cc565b602060405180830381865afa158015610d78573d6000803e3d6000fd5b505050506040513d601f19601f82011682018060405250810190610d9c9190615649565b6005600084815260200190815260200160002081905550600460009054906101000a900473ffffffffffffffffffffffffffffffffffffffff1673ffffffffffffffffffffffffffffffffffffffff16638f2a0bb0888888600089876040518763ffffffff1660e01b8152600401610e1996959493929190615676565b600060405180830381600087803b158015610e3357600080fd5b505af1158015610e47573d6000803e3d6000fd5b505050507f9a2e42fd6722813d69113e7d0079d3d940171428df7373df9c7f7617cfda2892828242610e79919061571b565b604051610e87929190615771565b60405180910390a18192505050949350505050565b6000610eb3600143610eae919061579a565b611f35565b905090565b600080610ec786868686611a8a565b90506000610ed4826113a9565b905060046007811115610eea57610ee9614c84565b5b816007811115610efd57610efc614c84565b5b1480610f2d575060056007811115610f1857610f17614c84565b5b816007811115610f2b57610f2a614c84565b5b145b610f6c576040517f08c379a0000000000000000000000000000000000000000000000000000000008152600401610f6390615522565b60405180910390fd5b600180600084815260200190815260200160002060020160006101000a81548160ff0219169083151502179055507f712ae1383f79ac853f8d882153778e0260ef8f03b504e2866e0593e04d2b291f82604051610fc9919061423c565b60405180910390a1610fde8288888888612361565b8192505050949350505050565b6000611048600160008481526020019081526020016000206000016040518060200160405290816000820160009054906101000a900467ffffffffffffffff1667ffffffffffffffff1667ffffffffffffffff1681525050612375565b67ffffffffffffffff169050919050565b6060806060806000600260008781526020019081526020016000209050806001018160020182600301836004018380548060200260200160405190810160405280929190818152602001828054801561110757602002820191906000526020600020905b8160009054906101000a900473ffffffffffffffffffffffffffffffffffffffff1673ffffffffffffffffffffffffffffffffffffffff16815260200190600101908083116110bd575b505050505093508280548060200260200160405190810160405280929190818152602001828054801561115957602002820191906000526020600020905b815481526020019060010190808311611145575b5050505050925081805480602002602001604051908101604052809291908181526020016000905b8282101561122d5783829060005260206000200180546111a09061547e565b80601f01602080910402602001604051908101604052809291908181526020018280546111cc9061547e565b80156112195780601f106111ee57610100808354040283529160200191611219565b820191906000526020600020905b8154815290600101906020018083116111fc57829003601f168201915b505050505081526020019060010190611181565b50505050915080805480602002602001604051908101604052809291908181526020016000905b828210156113005783829060005260206000200180546112739061547e565b80601f016020809104026020016040519081016040528092919081815260200182805461129f9061547e565b80156112ec5780601f106112c1576101008083540402835291602001916112ec565b820191906000526020600020905b8154815290600101906020018083116112cf57829003601f168201915b505050505081526020019060010190611254565b5050505090509450945094509450509193509193565b60006001905090565b6000806113806113787f150214d74d59b7d1e90c73fc22ef3d991dd0a76b046543d4d80ab92d2a50328f898960405160200161135d939291906157dd565b60405160208183030381529060405280519060200120612383565b86868661239d565b905061139d878288604051806020016040528060008152506123c8565b91505095945050505050565b60006113b48261251c565b9050919050565b60006002600083815260200190815260200160002090508060000160009054906101000a900473ffffffffffffffffffffffffffffffffffffffff1673ffffffffffffffffffffffffffffffffffffffff166114156122c4565b73ffffffffffffffffffffffffffffffffffffffff161480611476575061143a611a17565b6114748260000160009054906101000a900473ffffffffffffffffffffffffffffffffffffffff1660014361146f919061579a565b611f21565b105b6114b5576040517f08c379a00000000000000000000000000000000000000000000000000000000081526004016114ac90615886565b60405180910390fd5b61174e8160010180548060200260200160405190810160405280929190818152602001828054801561153c57602002820191906000526020600020905b8160009054906101000a900473ffffffffffffffffffffffffffffffffffffffff1673ffffffffffffffffffffffffffffffffffffffff16815260200190600101908083116114f2575b50505050508260020180548060200260200160405190810160405280929190818152602001828054801561158f57602002820191906000526020600020905b81548152602001906001019080831161157b575b505050505061174484600301805480602002602001604051908101604052809291908181526020016000905b828210156116675783829060005260206000200180546115da9061547e565b80601f01602080910402602001604051908101604052809291908181526020018280546116069061547e565b80156116535780601f1061162857610100808354040283529160200191611653565b820191906000526020600020905b81548152906001019060200180831161163657829003601f168201915b5050505050815260200190600101906115bb565b5050505085600401805480602002602001604051908101604052809291908181526020016000905b8282101561173b5783829060005260206000200180546116ae9061547e565b80601f01602080910402602001604051908101604052809291908181526020018280546116da9061547e565b80156117275780601f106116fc57610100808354040283529160200191611727565b820191906000526020600020905b81548152906001019060200180831161170a57829003601f168201915b50505050508152602001906001019061168f565b50505050612644565b84600901546127db565b505050565b60006002600084815260200190815260200160002060080160008373ffffffffffffffffffffffffffffffffffffffff1673ffffffffffffffffffffffffffffffffffffffff16815260200190815260200160002060000160009054906101000a900460ff16905092915050565b60606040518060400160405280600181526020017f3100000000000000000000000000000000000000000000000000000000000000815250905090565b6000806118096122c4565b9050611826848285604051806020016040528060008152506123c8565b91505092915050565b60008061183a6122c4565b905061188c86828787878080601f016020809104026020016040519081016040528093929190818152602001838380828437600081840152601f19601f820116905080830192505050505050506123c8565b915050949350505050565b60006118a5858585856127f3565b9050949350505050565b60006064905090565b6000600354905090565b6118ca6109a8565b73ffffffffffffffffffffffffffffffffffffffff166118e86122c4565b73ffffffffffffffffffffffffffffffffffffffff161461193e576040517f08c379a00000000000000000000000000000000000000000000000000000000081526004016119359061542f565b60405180910390fd5b6119478161286e565b50565b600080600460009054906101000a900473ffffffffffffffffffffffffffffffffffffffff1673ffffffffffffffffffffffffffffffffffffffff1663d45c443560056000868152602001908152602001600020546040518263ffffffff1660e01b81526004016119bb919061526c565b602060405180830381865afa1580156119d8573d6000803e3d6000fd5b505050506040513d601f19601f820116820180604052508101906119fc9190615557565b905060018114611a0c5780611a0f565b60005b915050919050565b600090565b6000611a79600160008481526020019081526020016000206001016040518060200160405290816000820160009054906101000a900467ffffffffffffffff1667ffffffffffffffff1667ffffffffffffffff1681525050612375565b67ffffffffffffffff169050919050565b600084848484604051602001611aa394939291906158a6565b6040516020818303038152906040528051906020012060001c9050949350505050565b6000600460009054906101000a900473ffffffffffffffffffffffffffffffffffffffff16905090565b6000611b07611afd6122c4565b878787878761290d565b611b1c8686611b168787612644565b85611897565b905095945050505050565b60606040518060400160405280601a81526020017f737570706f72743d627261766f2671756f72756d3d627261766f000000000000815250905090565b6000600260008381526020019081526020016000209050611e1481600101805480602002602001604051908101604052809291908181526020018280548015611c0257602002820191906000526020600020905b8160009054906101000a900473ffffffffffffffffffffffffffffffffffffffff1673ffffffffffffffffffffffffffffffffffffffff1681526020019060010190808311611bb8575b505050505082600201805480602002602001604051908101604052809291908181526020018280548015611c5557602002820191906000526020600020905b815481526020019060010190808311611c41575b5050505050611e0a84600301805480602002602001604051908101604052809291908181526020016000905b82821015611d2d578382906000526020600020018054611ca09061547e565b80601f0160208091040260200160405190810160405280929190818152602001828054611ccc9061547e565b8015611d195780601f10611cee57610100808354040283529160200191611d19565b820191906000526020600020905b815481529060010190602001808311611cfc57829003601f168201915b505050505081526020019060010190611c81565b5050505085600401805480602002602001604051908101604052809291908181526020016000905b82821015611e01578382906000526020600020018054611d749061547e565b80601f0160208091040260200160405190810160405280929190818152602001828054611da09061547e565b8015611ded5780601f10611dc257610100808354040283529160200191611ded565b820191906000526020600020905b815481529060010190602001808311611dd057829003601f168201915b505050505081526020019060010190611d55565b50505050612644565b8460090154610be2565b505050565b7f150214d74d59b7d1e90c73fc22ef3d991dd0a76b046543d4d80ab92d2a50328f81565b611e45613c62565b6002600084815260200190815260200160002060080160008373ffffffffffffffffffffffffffffffffffffffff1673ffffffffffffffffffffffffffffffffffffffff1681526020019081526020016000206040518060600160405290816000820160009054906101000a900460ff161515151581526020016000820160019054906101000a900460ff1660ff1660ff1681526020016000820160029054906101000a90046bffffffffffffffffffffffff166bffffffffffffffffffffffff166bffffffffffffffffffffffff1681525050905092915050565b6000611f2d8383612a14565b905092915050565b6000611f4082612aba565b9050919050565b7f000000000000000000000000000000000000000000000000000000000000000081565b600060026000838152602001908152602001600020905061221b8160010180548060200260200160405190810160405280929190818152602001828054801561200957602002820191906000526020600020905b8160009054906101000a900473ffffffffffffffffffffffffffffffffffffffff1673ffffffffffffffffffffffffffffffffffffffff1681526020019060010190808311611fbf575b50505050508260020180548060200260200160405190810160405280929190818152602001828054801561205c57602002820191906000526020600020905b815481526020019060010190808311612048575b505050505061221184600301805480602002602001604051908101604052809291908181526020016000905b828210156121345783829060005260206000200180546120a79061547e565b80601f01602080910402602001604051908101604052809291908181526020018280546120d39061547e565b80156121205780601f106120f557610100808354040283529160200191612120565b820191906000526020600020905b81548152906001019060200180831161210357829003601f168201915b505050505081526020019060010190612088565b5050505085600401805480602002602001604051908101604052809291908181526020016000905b8282101561220857838290600052602060002001805461217b9061547e565b80601f01602080910402602001604051908101604052809291908181526020018280546121a79061547e565b80156121f45780601f106121c9576101008083540402835291602001916121f4565b820191906000526020600020905b8154815290600101906020018083116121d757829003601f168201915b50505050508152602001906001019061215c565b50505050612644565b8460090154610eb8565b505050565b6000600460009054906101000a900473ffffffffffffffffffffffffffffffffffffffff16905090565b60007f6e665ced000000000000000000000000000000000000000000000000000000007bffffffffffffffffffffffffffffffffffffffffffffffffffffffff1916827bffffffffffffffffffffffffffffffffffffffffffffffffffffffff191614806122bd57506122bc82612b81565b5b9050919050565b600033905090565b6122d46118af565b811115612316576040517f08c379a000000000000000000000000000000000000000000000000000000000815260040161230d90615998565b60405180910390fd5b60006003549050816003819055507f0553476bf02ef2726e8ce5ced78d63e26e602e4a2257b1f559418e24b46339978183604051612355929190615771565b60405180910390a15050565b61236e8585858585612bfb565b5050505050565b600081600001519050919050565b6000612396612390612c99565b83612db3565b9050919050565b60008060006123ae87878787612de6565b915091506123bb81612ef3565b8192505050949350505050565b600080600160008781526020019081526020016000209050600160078111156123f4576123f3614c84565b5b6123fd876113a9565b600781111561240f5761240e614c84565b5b1461244f576040517f08c379a000000000000000000000000000000000000000000000000000000000815260040161244690615a2a565b60405180910390fd5b60006124ad8661249e846000016040518060200160405290816000820160009054906101000a900467ffffffffffffffff1667ffffffffffffffff1667ffffffffffffffff1681525050612375565b67ffffffffffffffff16611f21565b90506124bb878787846130c8565b8573ffffffffffffffffffffffffffffffffffffffff167fb8e138887d0aa13bab447e82de9d5c1777041ecd21ca36ba824ff1e6c07ddda4888784886040516125079493929190615a4a565b60405180910390a28092505050949350505050565b600080612528836132f2565b90506004600781111561253e5761253d614c84565b5b81600781111561255157612550614c84565b5b1461255f578091505061263f565b6000600560008581526020019081526020016000205490506000801b81141561258c57819250505061263f565b600460009054906101000a900473ffffffffffffffffffffffffffffffffffffffff1673ffffffffffffffffffffffffffffffffffffffff16632ab0f529826040518263ffffffff1660e01b81526004016125e7919061526c565b602060405180830381865afa158015612604573d6000803e3d6000fd5b505050506040513d601f19601f820116820180604052508101906126289190615ac2565b156126385760079250505061263f565b6005925050505b919050565b60606000825167ffffffffffffffff81111561266357612662614317565b5b60405190808252806020026020018201604052801561269657816020015b60608152602001906001900390816126815790505b50905060005b84518110156127d05760008582815181106126ba576126b9615aef565b5b60200260200101515114612785578481815181106126db576126da615aef565b5b60200260200101518482815181106126f6576126f5615aef565b5b602002602001015160405160240161270e9190615b68565b6040516020818303038152906040529060405161272b9190615bc6565b60405180910390207bffffffffffffffffffffffffffffffffffffffffffffffffffffffff19166020820180517bffffffffffffffffffffffffffffffffffffffffffffffffffffffff83818316178352505050506127a1565b83818151811061279857612797615aef565b5b60200260200101515b8282815181106127b4576127b3615aef565b5b6020026020010181905250806127c990615bdd565b905061269c565b508091505092915050565b60006127e9858585856134cf565b9050949350505050565b60006128586128006122c4565b8686865167ffffffffffffffff81111561281d5761281c614317565b5b60405190808252806020026020018201604052801561285057816020015b606081526020019060019003908161283b5790505b50878761290d565b612864858585856135c1565b9050949350505050565b7f08f74ea46ef7894f65eabfb5e6e695de773a000b47c529ab559178069b226401600460009054906101000a900473ffffffffffffffffffffffffffffffffffffffff16826040516128c1929190615c26565b60405180910390a180600460006101000a81548173ffffffffffffffffffffffffffffffffffffffff021916908373ffffffffffffffffffffffffffffffffffffffff16021790555050565b6000818051906020012090506000612930878761292a8888612644565b85611a8a565b905060006002600083815260200190815260200160002090506000801b81600901541415612a0957888160000160006101000a81548173ffffffffffffffffffffffffffffffffffffffff021916908373ffffffffffffffffffffffffffffffffffffffff160217905550878160010190805190602001906129b3929190613c96565b50868160020190805190602001906129cc929190613d20565b50858160030190805190602001906129e5929190613d6d565b50848160040190805190602001906129fe929190613dcd565b508281600901819055505b505050505050505050565b60007f000000000000000000000000000000000000000000000000000000000000000073ffffffffffffffffffffffffffffffffffffffff16633a46b1a884846040518363ffffffff1660e01b8152600401612a71929190615c4f565b602060405180830381865afa158015612a8e573d6000803e3d6000fd5b505050506040513d601f19601f82011682018060405250810190612ab29190615557565b905092915050565b6000612ac46118af565b612acc6118b8565b7f000000000000000000000000000000000000000000000000000000000000000073ffffffffffffffffffffffffffffffffffffffff16638e539e8c856040518263ffffffff1660e01b8152600401612b25919061423c565b602060405180830381865afa158015612b42573d6000803e3d6000fd5b505050506040513d601f19601f82011682018060405250810190612b669190615557565b612b709190615c78565b612b7a9190615d01565b9050919050565b60007fbf26d897000000000000000000000000000000000000000000000000000000007bffffffffffffffffffffffffffffffffffffffffffffffffffffffff1916827bffffffffffffffffffffffffffffffffffffffffffffffffffffffff19161480612bf45750612bf3826138c1565b5b9050919050565b600460009054906101000a900473ffffffffffffffffffffffffffffffffffffffff1673ffffffffffffffffffffffffffffffffffffffff1663e38335e5348686866000876040518763ffffffff1660e01b8152600401612c609594939291906155cc565b6000604051808303818588803b158015612c7957600080fd5b505af1158015612c8d573d6000803e3d6000fd5b50505050505050505050565b60007f000000000000000000000000000000000000000000000000000000000000000073ffffffffffffffffffffffffffffffffffffffff163073ffffffffffffffffffffffffffffffffffffffff16148015612d1557507f000000000000000000000000000000000000000000000000000000000000000046145b15612d42577f00000000000000000000000000000000000000000000000000000000000000009050612db0565b612dad7f00000000000000000000000000000000000000000000000000000000000000007f00000000000000000000000000000000000000000000000000000000000000007f000000000000000000000000000000000000000000000000000000000000000061392b565b90505b90565b60008282604051602001612dc8929190615d9f565b60405160208183030381529060405280519060200120905092915050565b6000807f7fffffffffffffffffffffffffffffff5d576e7357a4501ddfe92f46681b20a08360001c1115612e21576000600391509150612eea565b601b8560ff1614158015612e395750601c8560ff1614155b15612e4b576000600491509150612eea565b600060018787878760405160008152602001604052604051612e709493929190615dd6565b6020604051602081039080840390855afa158015612e92573d6000803e3d6000fd5b505050602060405103519050600073ffffffffffffffffffffffffffffffffffffffff168173ffffffffffffffffffffffffffffffffffffffff161415612ee157600060019250925050612eea565b80600092509250505b94509492505050565b60006004811115612f0757612f06614c84565b5b816004811115612f1a57612f19614c84565b5b1415612f25576130c5565b60016004811115612f3957612f38614c84565b5b816004811115612f4c57612f4b614c84565b5b1415612f8d576040517f08c379a0000000000000000000000000000000000000000000000000000000008152600401612f8490615e67565b60405180910390fd5b60026004811115612fa157612fa0614c84565b5b816004811115612fb457612fb3614c84565b5b1415612ff5576040517f08c379a0000000000000000000000000000000000000000000000000000000008152600401612fec90615ed3565b60405180910390fd5b6003600481111561300957613008614c84565b5b81600481111561301c5761301b614c84565b5b141561305d576040517f08c379a000000000000000000000000000000000000000000000000000000000815260040161305490615f65565b60405180910390fd5b6004808111156130705761306f614c84565b5b81600481111561308357613082614c84565b5b14156130c4576040517f08c379a00000000000000000000000000000000000000000000000000000000081526004016130bb90615ff7565b60405180910390fd5b5b50565b600060026000868152602001908152602001600020905060008160080160008673ffffffffffffffffffffffffffffffffffffffff1673ffffffffffffffffffffffffffffffffffffffff16815260200190815260200160002090508060000160009054906101000a900460ff1615613176576040517f08c379a000000000000000000000000000000000000000000000000000000000815260040161316d90616089565b60405180910390fd5b60018160000160006101000a81548160ff021916908315150217905550838160000160016101000a81548160ff021916908360ff1602179055506131b983613965565b8160000160026101000a8154816bffffffffffffffffffffffff02191690836bffffffffffffffffffffffff160217905550600060028111156131ff576131fe614c84565b5b60ff168460ff16141561322c5782826006016000828254613220919061571b565b925050819055506132ea565b600160028111156132405761323f614c84565b5b60ff168460ff16141561326d5782826005016000828254613261919061571b565b925050819055506132e9565b6002808111156132805761327f614c84565b5b60ff168460ff1614156132ad57828260070160008282546132a1919061571b565b925050819055506132e8565b6040517f08c379a00000000000000000000000000000000000000000000000000000000081526004016132df9061611b565b60405180910390fd5b5b5b505050505050565b60008060016000848152602001908152602001600020604051806080016040529081600082016040518060200160405290816000820160009054906101000a900467ffffffffffffffff1667ffffffffffffffff1667ffffffffffffffff16815250508152602001600182016040518060200160405290816000820160009054906101000a900467ffffffffffffffff1667ffffffffffffffff1667ffffffffffffffff168152505081526020016002820160009054906101000a900460ff161515151581526020016002820160019054906101000a900460ff16151515158152505090508060400151156133eb5760079150506134ca565b8060600151156133ff5760029150506134ca565b4361340d8260000151612375565b67ffffffffffffffff16106134265760009150506134ca565b436134348260200151612375565b67ffffffffffffffff161061344d5760019150506134ca565b61345a81602001516139c0565b1561348f57613468836139ec565b8015613479575061347883613a24565b5b613484576003613487565b60045b9150506134ca565b6040517f08c379a00000000000000000000000000000000000000000000000000000000081526004016134c190616187565b60405180910390fd5b919050565b6000806134de86868686613a4f565b90506000801b6005600083815260200190815260200160002054146135b557600460009054906101000a900473ffffffffffffffffffffffffffffffffffffffff1673ffffffffffffffffffffffffffffffffffffffff1663c4d252f560056000848152602001908152602001600020546040518263ffffffff1660e01b815260040161356b919061526c565b600060405180830381600087803b15801561358557600080fd5b505af1158015613599573d6000803e3d6000fd5b5050505060056000828152602001908152602001600020600090555b80915050949350505050565b60006135cb611a17565b6135e1336001436135dc919061579a565b611f21565b1015613622576040517f08c379a00000000000000000000000000000000000000000000000000000000081526004016136199061623f565b60405180910390fd5b60006136378686868680519060200120611a8a565b9050845186511461367d576040517f08c379a0000000000000000000000000000000000000000000000000000000008152600401613674906162d1565b60405180910390fd5b83518651146136c1576040517f08c379a00000000000000000000000000000000000000000000000000000000081526004016136b8906162d1565b60405180910390fd5b6000865111613705576040517f08c379a00000000000000000000000000000000000000000000000000000000081526004016136fc9061633d565b60405180910390fd5b6000600160008381526020019081526020016000209050613765816000016040518060200160405290816000820160009054906101000a900467ffffffffffffffff1667ffffffffffffffff1667ffffffffffffffff1681525050613ba8565b6137a4576040517f08c379a000000000000000000000000000000000000000000000000000000000815260040161379b906163cf565b60405180910390fd5b60006137b66137b1611316565b613bc2565b6137bf43613bc2565b6137c99190616403565b905060006137dd6137d8610abe565b613bc2565b826137e89190616403565b90506138008284600001613c1990919063ffffffff16565b6138168184600101613c1990919063ffffffff16565b7f7d84a6263ae0d98d3329bd7b46bb4e8d6f98cd35a7adb45c274c8b7fd5ebd5e0846138406122c4565b8b8b8d5167ffffffffffffffff81111561385d5761385c614317565b5b60405190808252806020026020018201604052801561389057816020015b606081526020019060019003908161387b5790505b508c88888e6040516138aa99989796959493929190616472565b60405180910390a183945050505050949350505050565b60007f01ffc9a7000000000000000000000000000000000000000000000000000000007bffffffffffffffffffffffffffffffffffffffffffffffffffffffff1916827bffffffffffffffffffffffffffffffffffffffffffffffffffffffff1916149050919050565b60008383834630604051602001613946959493929190616522565b6040516020818303038152906040528051906020012090509392505050565b60006bffffffffffffffffffffffff80168211156139b8576040517f08c379a00000000000000000000000000000000000000000000000000000000081526004016139af906165e7565b60405180910390fd5b819050919050565b60006139cb82613c48565b80156139e5575043826000015167ffffffffffffffff1611155b9050919050565b6000806002600084815260200190815260200160002090508060050154613a1a613a1585610feb565b611f35565b1115915050919050565b6000806002600084815260200190815260200160002090508060060154816005015411915050919050565b600080613a5e86868686611a8a565b90506000613a6b826113a9565b905060026007811115613a8157613a80614c84565b5b816007811115613a9457613a93614c84565b5b14158015613ac7575060066007811115613ab157613ab0614c84565b5b816007811115613ac457613ac3614c84565b5b14155b8015613af75750600780811115613ae157613ae0614c84565b5b816007811115613af457613af3614c84565b5b14155b613b36576040517f08c379a0000000000000000000000000000000000000000000000000000000008152600401613b2d90616653565b60405180910390fd5b600180600084815260200190815260200160002060020160016101000a81548160ff0219169083151502179055507f789cf55be980739dad1d0699b93b58e806b51c9d96619bfa8fe0a28abaa7b30c82604051613b93919061423c565b60405180910390a18192505050949350505050565b600080826000015167ffffffffffffffff16149050919050565b600067ffffffffffffffff8016821115613c11576040517f08c379a0000000000000000000000000000000000000000000000000000000008152600401613c08906166e5565b60405180910390fd5b819050919050565b808260000160006101000a81548167ffffffffffffffff021916908367ffffffffffffffff1602179055505050565b600080826000015167ffffffffffffffff16119050919050565b6040518060600160405280600015158152602001600060ff16815260200160006bffffffffffffffffffffffff1681525090565b828054828255906000526020600020908101928215613d0f579160200282015b82811115613d0e5782518260006101000a81548173ffffffffffffffffffffffffffffffffffffffff021916908373ffffffffffffffffffffffffffffffffffffffff16021790555091602001919060010190613cb6565b5b509050613d1c9190613e2d565b5090565b828054828255906000526020600020908101928215613d5c579160200282015b82811115613d5b578251825591602001919060010190613d40565b5b509050613d699190613e2d565b5090565b828054828255906000526020600020908101928215613dbc579160200282015b82811115613dbb578251829080519060200190613dab929190613e4a565b5091602001919060010190613d8d565b5b509050613dc99190613ed0565b5090565b828054828255906000526020600020908101928215613e1c579160200282015b82811115613e1b578251829080519060200190613e0b929190613ef4565b5091602001919060010190613ded565b5b509050613e299190613f7a565b5090565b5b80821115613e46576000816000905550600101613e2e565b5090565b828054613e569061547e565b90600052602060002090601f016020900481019282613e785760008555613ebf565b82601f10613e9157805160ff1916838001178555613ebf565b82800160010185558215613ebf579182015b82811115613ebe578251825591602001919060010190613ea3565b5b509050613ecc9190613e2d565b5090565b5b80821115613ef05760008181613ee79190613f9e565b50600101613ed1565b5090565b828054613f009061547e565b90600052602060002090601f016020900481019282613f225760008555613f69565b82601f10613f3b57805160ff1916838001178555613f69565b82800160010185558215613f69579182015b82811115613f68578251825591602001919060010190613f4d565b5b509050613f769190613e2d565b5090565b5b80821115613f9a5760008181613f919190613fde565b50600101613f7b565b5090565b508054613faa9061547e565b6000825580601f10613fbc5750613fdb565b601f016020900490600052602060002090810190613fda9190613e2d565b5b50565b508054613fea9061547e565b6000825580601f10613ffc575061401b565b601f01602090049060005260206000209081019061401a9190613e2d565b5b50565b6000604051905090565b600080fd5b600080fd5b6000819050919050565b61404581614032565b811461405057600080fd5b50565b6000813590506140628161403c565b92915050565b60006020828403121561407e5761407d614028565b5b600061408c84828501614053565b91505092915050565b61409e81614032565b82525050565b600073ffffffffffffffffffffffffffffffffffffffff82169050919050565b60006140cf826140a4565b9050919050565b6140df816140c4565b82525050565b60008115159050919050565b6140fa816140e5565b82525050565b600061014082019050614116600083018d614095565b614123602083018c6140d6565b614130604083018b614095565b61413d606083018a614095565b61414a6080830189614095565b61415760a0830188614095565b61416460c0830187614095565b61417160e0830186614095565b61417f6101008301856140f1565b61418d6101208301846140f1565b9b9a5050505050505050505050565b60007fffffffff0000000000000000000000000000000000000000000000000000000082169050919050565b6141d18161419c565b81146141dc57600080fd5b50565b6000813590506141ee816141c8565b92915050565b60006020828403121561420a57614209614028565b5b6000614218848285016141df565b91505092915050565b600060208201905061423660008301846140f1565b92915050565b60006020820190506142516000830184614095565b92915050565b600081519050919050565b600082825260208201905092915050565b60005b83811015614291578082015181840152602081019050614276565b838111156142a0576000848401525b50505050565b6000601f19601f8301169050919050565b60006142c282614257565b6142cc8185614262565b93506142dc818560208601614273565b6142e5816142a6565b840191505092915050565b6000602082019050818103600083015261430a81846142b7565b905092915050565b600080fd5b7f4e487b7100000000000000000000000000000000000000000000000000000000600052604160045260246000fd5b61434f826142a6565b810181811067ffffffffffffffff8211171561436e5761436d614317565b5b80604052505050565b600061438161401e565b905061438d8282614346565b919050565b600067ffffffffffffffff8211156143ad576143ac614317565b5b602082029050602081019050919050565b600080fd5b6143cc816140c4565b81146143d757600080fd5b50565b6000813590506143e9816143c3565b92915050565b60006144026143fd84614392565b614377565b90508083825260208201905060208402830185811115614425576144246143be565b5b835b8181101561444e578061443a88826143da565b845260208401935050602081019050614427565b5050509392505050565b600082601f83011261446d5761446c614312565b5b813561447d8482602086016143ef565b91505092915050565b600067ffffffffffffffff8211156144a1576144a0614317565b5b602082029050602081019050919050565b60006144c56144c084614486565b614377565b905080838252602082019050602084028301858111156144e8576144e76143be565b5b835b8181101561451157806144fd8882614053565b8452602084019350506020810190506144ea565b5050509392505050565b600082601f8301126145305761452f614312565b5b81356145408482602086016144b2565b91505092915050565b600067ffffffffffffffff82111561456457614563614317565b5b602082029050602081019050919050565b600080fd5b600067ffffffffffffffff82111561459557614594614317565b5b61459e826142a6565b9050602081019050919050565b82818337600083830152505050565b60006145cd6145c88461457a565b614377565b9050828152602081018484840111156145e9576145e8614575565b5b6145f48482856145ab565b509392505050565b600082601f83011261461157614610614312565b5b81356146218482602086016145ba565b91505092915050565b600061463d61463884614549565b614377565b905080838252602082019050602084028301858111156146605761465f6143be565b5b835b818110156146a757803567ffffffffffffffff81111561468557614684614312565b5b80860161469289826145fc565b85526020850194505050602081019050614662565b5050509392505050565b600082601f8301126146c6576146c5614312565b5b81356146d684826020860161462a565b91505092915050565b6000819050919050565b6146f2816146df565b81146146fd57600080fd5b50565b60008135905061470f816146e9565b92915050565b6000806000806080858703121561472f5761472e614028565b5b600085013567ffffffffffffffff81111561474d5761474c61402d565b5b61475987828801614458565b945050602085013567ffffffffffffffff81111561477a5761477961402d565b5b6147868782880161451b565b935050604085013567ffffffffffffffff8111156147a7576147a661402d565b5b6147b3878288016146b1565b92505060606147c487828801614700565b91505092959194509250565b600081519050919050565b600082825260208201905092915050565b6000819050602082019050919050565b614805816140c4565b82525050565b600061481783836147fc565b60208301905092915050565b6000602082019050919050565b600061483b826147d0565b61484581856147db565b9350614850836147ec565b8060005b83811015614881578151614868888261480b565b975061487383614823565b925050600181019050614854565b5085935050505092915050565b600081519050919050565b600082825260208201905092915050565b6000819050602082019050919050565b6148c381614032565b82525050565b60006148d583836148ba565b60208301905092915050565b6000602082019050919050565b60006148f98261488e565b6149038185614899565b935061490e836148aa565b8060005b8381101561493f57815161492688826148c9565b9750614931836148e1565b925050600181019050614912565b5085935050505092915050565b600081519050919050565b600082825260208201905092915050565b6000819050602082019050919050565b600082825260208201905092915050565b600061499482614257565b61499e8185614978565b93506149ae818560208601614273565b6149b7816142a6565b840191505092915050565b60006149ce8383614989565b905092915050565b6000602082019050919050565b60006149ee8261494c565b6149f88185614957565b935083602082028501614a0a85614968565b8060005b85811015614a465784840389528151614a2785826149c2565b9450614a32836149d6565b925060208a01995050600181019050614a0e565b50829750879550505050505092915050565b600081519050919050565b600082825260208201905092915050565b6000819050602082019050919050565b600081519050919050565b600082825260208201905092915050565b6000614aab82614a84565b614ab58185614a8f565b9350614ac5818560208601614273565b614ace816142a6565b840191505092915050565b6000614ae58383614aa0565b905092915050565b6000602082019050919050565b6000614b0582614a58565b614b0f8185614a63565b935083602082028501614b2185614a74565b8060005b85811015614b5d5784840389528151614b3e8582614ad9565b9450614b4983614aed565b925060208a01995050600181019050614b25565b50829750879550505050505092915050565b60006080820190508181036000830152614b898187614830565b90508181036020830152614b9d81866148ee565b90508181036040830152614bb181856149e3565b90508181036060830152614bc58184614afa565b905095945050505050565b600060ff82169050919050565b614be681614bd0565b8114614bf157600080fd5b50565b600081359050614c0381614bdd565b92915050565b600080600080600060a08688031215614c2557614c24614028565b5b6000614c3388828901614053565b9550506020614c4488828901614bf4565b9450506040614c5588828901614bf4565b9350506060614c6688828901614700565b9250506080614c7788828901614700565b9150509295509295909350565b7f4e487b7100000000000000000000000000000000000000000000000000000000600052602160045260246000fd5b60088110614cc457614cc3614c84565b5b50565b6000819050614cd582614cb3565b919050565b6000614ce582614cc7565b9050919050565b614cf581614cda565b82525050565b6000602082019050614d106000830184614cec565b92915050565b60008060408385031215614d2d57614d2c614028565b5b6000614d3b85828601614053565b9250506020614d4c858286016143da565b9150509250929050565b60008060408385031215614d6d57614d6c614028565b5b6000614d7b85828601614053565b9250506020614d8c85828601614bf4565b9150509250929050565b600080fd5b60008083601f840112614db157614db0614312565b5b8235905067ffffffffffffffff811115614dce57614dcd614d96565b5b602083019150836001820283011115614dea57614de96143be565b5b9250929050565b60008060008060608587031215614e0b57614e0a614028565b5b6000614e1987828801614053565b9450506020614e2a87828801614bf4565b935050604085013567ffffffffffffffff811115614e4b57614e4a61402d565b5b614e5787828801614d9b565b925092505092959194509250565b600067ffffffffffffffff821115614e8057614e7f614317565b5b614e89826142a6565b9050602081019050919050565b6000614ea9614ea484614e65565b614377565b905082815260208101848484011115614ec557614ec4614575565b5b614ed08482856145ab565b509392505050565b600082601f830112614eed57614eec614312565b5b8135614efd848260208601614e96565b91505092915050565b60008060008060808587031215614f2057614f1f614028565b5b600085013567ffffffffffffffff811115614f3e57614f3d61402d565b5b614f4a87828801614458565b945050602085013567ffffffffffffffff811115614f6b57614f6a61402d565b5b614f778782880161451b565b935050604085013567ffffffffffffffff811115614f9857614f9761402d565b5b614fa4878288016146b1565b925050606085013567ffffffffffffffff811115614fc557614fc461402d565b5b614fd187828801614ed8565b91505092959194509250565b6000614fe8826140a4565b9050919050565b6000614ffa82614fdd565b9050919050565b61500a81614fef565b811461501557600080fd5b50565b60008135905061502781615001565b92915050565b60006020828403121561504357615042614028565b5b600061505184828501615018565b91505092915050565b600060208201905061506f60008301846140d6565b92915050565b600067ffffffffffffffff8211156150905761508f614317565b5b602082029050602081019050919050565b60006150b46150af84615075565b614377565b905080838252602082019050602084028301858111156150d7576150d66143be565b5b835b8181101561511e57803567ffffffffffffffff8111156150fc576150fb614312565b5b8086016151098982614ed8565b855260208501945050506020810190506150d9565b5050509392505050565b600082601f83011261513d5761513c614312565b5b813561514d8482602086016150a1565b91505092915050565b600080600080600060a0868803121561517257615171614028565b5b600086013567ffffffffffffffff8111156151905761518f61402d565b5b61519c88828901614458565b955050602086013567ffffffffffffffff8111156151bd576151bc61402d565b5b6151c98882890161451b565b945050604086013567ffffffffffffffff8111156151ea576151e961402d565b5b6151f688828901615128565b935050606086013567ffffffffffffffff8111156152175761521661402d565b5b615223888289016146b1565b925050608086013567ffffffffffffffff8111156152445761524361402d565b5b61525088828901614ed8565b9150509295509295909350565b615266816146df565b82525050565b6000602082019050615281600083018461525d565b92915050565b615290816140e5565b82525050565b61529f81614bd0565b82525050565b60006bffffffffffffffffffffffff82169050919050565b6152c6816152a5565b82525050565b6060820160008201516152e26000850182615287565b5060208201516152f56020850182615296565b50604082015161530860408501826152bd565b50505050565b600060608201905061532360008301846152cc565b92915050565b600080604083850312156153405761533f614028565b5b600061534e858286016143da565b925050602061535f85828601614053565b9150509250929050565b6000819050919050565b600061538e615389615384846140a4565b615369565b6140a4565b9050919050565b60006153a082615373565b9050919050565b60006153b282615395565b9050919050565b6153c2816153a7565b82525050565b60006020820190506153dd60008301846153b9565b92915050565b7f476f7665726e6f723a206f6e6c79476f7665726e616e63650000000000000000600082015250565b6000615419601883614262565b9150615424826153e3565b602082019050919050565b600060208201905081810360008301526154488161540c565b9050919050565b7f4e487b7100000000000000000000000000000000000000000000000000000000600052602260045260246000fd5b6000600282049050600182168061549657607f821691505b602082108114156154aa576154a961544f565b5b50919050565b7f476f7665726e6f723a2070726f706f73616c206e6f742073756363657373667560008201527f6c00000000000000000000000000000000000000000000000000000000000000602082015250565b600061550c602183614262565b9150615517826154b0565b604082019050919050565b6000602082019050818103600083015261553b816154ff565b9050919050565b6000815190506155518161403c565b92915050565b60006020828403121561556d5761556c614028565b5b600061557b84828501615542565b91505092915050565b6000819050919050565b60008160001b9050919050565b60006155b66155b16155ac84615584565b61558e565b6146df565b9050919050565b6155c68161559b565b82525050565b600060a08201905081810360008301526155e68188614830565b905081810360208301526155fa81876148ee565b9050818103604083015261560e8186614afa565b905061561d60608301856155bd565b61562a608083018461525d565b9695505050505050565b600081519050615643816146e9565b92915050565b60006020828403121561565f5761565e614028565b5b600061566d84828501615634565b91505092915050565b600060c08201905081810360008301526156908189614830565b905081810360208301526156a481886148ee565b905081810360408301526156b88187614afa565b90506156c760608301866155bd565b6156d4608083018561525d565b6156e160a0830184614095565b979650505050505050565b7f4e487b7100000000000000000000000000000000000000000000000000000000600052601160045260246000fd5b600061572682614032565b915061573183614032565b9250827fffffffffffffffffffffffffffffffffffffffffffffffffffffffffffffffff03821115615766576157656156ec565b5b828201905092915050565b60006040820190506157866000830185614095565b6157936020830184614095565b9392505050565b60006157a582614032565b91506157b083614032565b9250828210156157c3576157c26156ec565b5b828203905092915050565b6157d781614bd0565b82525050565b60006060820190506157f2600083018661525d565b6157ff6020830185614095565b61580c60408301846157ce565b949350505050565b7f476f7665726e6f72427261766f3a2070726f706f7365722061626f766520746860008201527f726573686f6c6400000000000000000000000000000000000000000000000000602082015250565b6000615870602783614262565b915061587b82615814565b604082019050919050565b6000602082019050818103600083015261589f81615863565b9050919050565b600060808201905081810360008301526158c08187614830565b905081810360208301526158d481866148ee565b905081810360408301526158e88185614afa565b90506158f7606083018461525d565b95945050505050565b7f476f7665726e6f72566f74657351756f72756d4672616374696f6e3a2071756f60008201527f72756d4e756d657261746f72206f7665722071756f72756d44656e6f6d696e6160208201527f746f720000000000000000000000000000000000000000000000000000000000604082015250565b6000615982604383614262565b915061598d82615900565b606082019050919050565b600060208201905081810360008301526159b181615975565b9050919050565b7f476f7665726e6f723a20766f7465206e6f742063757272656e746c792061637460008201527f6976650000000000000000000000000000000000000000000000000000000000602082015250565b6000615a14602383614262565b9150615a1f826159b8565b604082019050919050565b60006020820190508181036000830152615a4381615a07565b9050919050565b6000608082019050615a5f6000830187614095565b615a6c60208301866157ce565b615a796040830185614095565b8181036060830152615a8b81846142b7565b905095945050505050565b615a9f816140e5565b8114615aaa57600080fd5b50565b600081519050615abc81615a96565b92915050565b600060208284031215615ad857615ad7614028565b5b6000615ae684828501615aad565b91505092915050565b7f4e487b7100000000000000000000000000000000000000000000000000000000600052603260045260246000fd5b600082825260208201905092915050565b6000615b3a82614a84565b615b448185615b1e565b9350615b54818560208601614273565b615b5d816142a6565b840191505092915050565b60006020820190508181036000830152615b828184615b2f565b905092915050565b600081905092915050565b6000615ba082614257565b615baa8185615b8a565b9350615bba818560208601614273565b80840191505092915050565b6000615bd28284615b95565b915081905092915050565b6000615be882614032565b91507fffffffffffffffffffffffffffffffffffffffffffffffffffffffffffffffff821415615c1b57615c1a6156ec565b5b600182019050919050565b6000604082019050615c3b60008301856140d6565b615c4860208301846140d6565b9392505050565b6000604082019050615c6460008301856140d6565b615c716020830184614095565b9392505050565b6000615c8382614032565b9150615c8e83614032565b9250817fffffffffffffffffffffffffffffffffffffffffffffffffffffffffffffffff0483118215151615615cc757615cc66156ec565b5b828202905092915050565b7f4e487b7100000000000000000000000000000000000000000000000000000000600052601260045260246000fd5b6000615d0c82614032565b9150615d1783614032565b925082615d2757615d26615cd2565b5b828204905092915050565b7f1901000000000000000000000000000000000000000000000000000000000000600082015250565b6000615d68600283615b8a565b9150615d7382615d32565b600282019050919050565b6000819050919050565b615d99615d94826146df565b615d7e565b82525050565b6000615daa82615d5b565b9150615db68285615d88565b602082019150615dc68284615d88565b6020820191508190509392505050565b6000608082019050615deb600083018761525d565b615df860208301866157ce565b615e05604083018561525d565b615e12606083018461525d565b95945050505050565b7f45434453413a20696e76616c6964207369676e61747572650000000000000000600082015250565b6000615e51601883614262565b9150615e5c82615e1b565b602082019050919050565b60006020820190508181036000830152615e8081615e44565b9050919050565b7f45434453413a20696e76616c6964207369676e6174757265206c656e67746800600082015250565b6000615ebd601f83614262565b9150615ec882615e87565b602082019050919050565b60006020820190508181036000830152615eec81615eb0565b9050919050565b7f45434453413a20696e76616c6964207369676e6174757265202773272076616c60008201527f7565000000000000000000000000000000000000000000000000000000000000602082015250565b6000615f4f602283614262565b9150615f5a82615ef3565b604082019050919050565b60006020820190508181036000830152615f7e81615f42565b9050919050565b7f45434453413a20696e76616c6964207369676e6174757265202776272076616c60008201527f7565000000000000000000000000000000000000000000000000000000000000602082015250565b6000615fe1602283614262565b9150615fec82615f85565b604082019050919050565b6000602082019050818103600083015261601081615fd4565b9050919050565b7f476f7665726e6f72436f6d7061746962696c697479427261766f3a20766f746560008201527f20616c7265616479206361737400000000000000000000000000000000000000602082015250565b6000616073602d83614262565b915061607e82616017565b604082019050919050565b600060208201905081810360008301526160a281616066565b9050919050565b7f476f7665726e6f72436f6d7061746962696c697479427261766f3a20696e766160008201527f6c696420766f7465207479706500000000000000000000000000000000000000602082015250565b6000616105602d83614262565b9150616110826160a9565b604082019050919050565b60006020820190508181036000830152616134816160f8565b9050919050565b7f476f7665726e6f723a20756e6b6e6f776e2070726f706f73616c206964000000600082015250565b6000616171601d83614262565b915061617c8261613b565b602082019050919050565b600060208201905081810360008301526161a081616164565b9050919050565b7f476f7665726e6f72436f6d7061746962696c697479427261766f3a2070726f7060008201527f6f73657220766f7465732062656c6f772070726f706f73616c2074687265736860208201527f6f6c640000000000000000000000000000000000000000000000000000000000604082015250565b6000616229604383614262565b9150616234826161a7565b606082019050919050565b600060208201905081810360008301526162588161621c565b9050919050565b7f476f7665726e6f723a20696e76616c69642070726f706f73616c206c656e677460008201527f6800000000000000000000000000000000000000000000000000000000000000602082015250565b60006162bb602183614262565b91506162c68261625f565b604082019050919050565b600060208201905081810360008301526162ea816162ae565b9050919050565b7f476f7665726e6f723a20656d7074792070726f706f73616c0000000000000000600082015250565b6000616327601883614262565b9150616332826162f1565b602082019050919050565b600060208201905081810360008301526163568161631a565b9050919050565b7f476f7665726e6f723a2070726f706f73616c20616c726561647920657869737460008201527f7300000000000000000000000000000000000000000000000000000000000000602082015250565b60006163b9602183614262565b91506163c48261635d565b604082019050919050565b600060208201905081810360008301526163e8816163ac565b9050919050565b600067ffffffffffffffff82169050919050565b600061640e826163ef565b9150616419836163ef565b92508267ffffffffffffffff03821115616436576164356156ec565b5b828201905092915050565b600061645c616457616452846163ef565b615369565b614032565b9050919050565b61646c81616441565b82525050565b600061012082019050616488600083018c614095565b616495602083018b6140d6565b81810360408301526164a7818a614830565b905081810360608301526164bb81896148ee565b905081810360808301526164cf81886149e3565b905081810360a08301526164e38187614afa565b90506164f260c0830186616463565b6164ff60e0830185616463565b81810361010083015261651281846142b7565b90509a9950505050505050505050565b600060a082019050616537600083018861525d565b616544602083018761525d565b616551604083018661525d565b61655e6060830185614095565b61656b60808301846140d6565b9695505050505050565b7f53616665436173743a2076616c756520646f65736e27742066697420696e203960008201527f3620626974730000000000000000000000000000000000000000000000000000602082015250565b60006165d1602683614262565b91506165dc82616575565b604082019050919050565b60006020820190508181036000830152616600816165c4565b9050919050565b7f476f7665726e6f723a2070726f706f73616c206e6f7420616374697665000000600082015250565b600061663d601d83614262565b915061664882616607565b602082019050919050565b6000602082019050818103600083015261666c81616630565b9050919050565b7f53616665436173743a2076616c756520646f65736e27742066697420696e203660008201527f3420626974730000000000000000000000000000000000000000000000000000602082015250565b60006166cf602683614262565b91506166da82616673565b604082019050919050565b600060208201905081810360008301526166fe816166c2565b905091905056fea2646970667358221220f4f5465c5fd9eae70e634ff58c44b52baba0002cac13cd3204434156a257d07e64736f6c634300080a0033",
  "immutableReferences": {
    "3631": [
      {
        "length": 32,
        "start": 8009
      },
      {
        "length": 32,
        "start": 10776
      },
      {
        "length": 32,
        "start": 10958
      }
    ],
    "7629": [
      {
        "length": 32,
        "start": 11548
      }
    ],
    "7631": [
      {
        "length": 32,
        "start": 11507
      }
    ],
    "7633": [
      {
        "length": 32,
        "start": 11421
      }
    ],
    "7635": [
      {
        "length": 32,
        "start": 11624
      }
    ],
    "7637": [
      {
        "length": 32,
        "start": 11657
      }
    ],
    "7639": [
      {
        "length": 32,
        "start": 11591
      }
    ]
  },
  "source": "// SPDX-License-Identifier: MIT\npragma solidity ^0.8.2;\n\nimport \"@openzeppelin/contracts/governance/Governor.sol\";\nimport \"@openzeppelin/contracts/governance/compatibility/GovernorCompatibilityBravo.sol\";\nimport \"@openzeppelin/contracts/governance/extensions/GovernorVotes.sol\";\nimport \"@openzeppelin/contracts/governance/extensions/GovernorVotesQuorumFraction.sol\";\nimport \"@openzeppelin/contracts/governance/extensions/GovernorTimelockControl.sol\";\n\n/// @custom:security-contact fccoelho@gmail.com\ncontract DPubGovernor is Governor, GovernorCompatibilityBravo, GovernorVotes, GovernorVotesQuorumFraction, GovernorTimelockControl {\n    constructor(ERC20Votes _token, TimelockController _timelock)\n        Governor(\"DPubGovernor\")\n        GovernorVotes(_token)\n        GovernorVotesQuorumFraction(4)\n        GovernorTimelockControl(_timelock)\n    {}\n\n    function votingDelay() public pure override returns (uint256) {\n        return 1; // 1 block\n    }\n\n    function votingPeriod() public pure override returns (uint256) {\n        return 45818; // 1 week\n    }\n\n    function proposalThreshold() public pure override returns (uint256) {\n        return 0e18;\n    }\n\n    // The following functions are overrides required by Solidity.\n\n    function quorum(uint256 blockNumber)\n        public\n        view\n        override(IGovernor, GovernorVotesQuorumFraction)\n        returns (uint256)\n    {\n        return super.quorum(blockNumber);\n    }\n\n    function getVotes(address account, uint256 blockNumber)\n        public\n        view\n        override(IGovernor, GovernorVotes)\n        returns (uint256)\n    {\n        return super.getVotes(account, blockNumber);\n    }\n\n    function state(uint256 proposalId)\n        public\n        view\n        override(Governor, IGovernor, GovernorTimelockControl)\n        returns (ProposalState)\n    {\n        return super.state(proposalId);\n    }\n\n    function propose(address[] memory targets, uint256[] memory values, bytes[] memory calldatas, string memory description)\n        public\n        override(Governor, GovernorCompatibilityBravo, IGovernor)\n        returns (uint256)\n    {\n        return super.propose(targets, values, calldatas, description);\n    }\n\n    function _execute(uint256 proposalId, address[] memory targets, uint256[] memory values, bytes[] memory calldatas, bytes32 descriptionHash)\n        internal\n        override(Governor, GovernorTimelockControl)\n    {\n        super._execute(proposalId, targets, values, calldatas, descriptionHash);\n    }\n\n    function _cancel(address[] memory targets, uint256[] memory values, bytes[] memory calldatas, bytes32 descriptionHash)\n        internal\n        override(Governor, GovernorTimelockControl)\n        returns (uint256)\n    {\n        return super._cancel(targets, values, calldatas, descriptionHash);\n    }\n\n    function _executor()\n        internal\n        view\n        override(Governor, GovernorTimelockControl)\n        returns (address)\n    {\n        return super._executor();\n    }\n\n    function supportsInterface(bytes4 interfaceId)\n        public\n        view\n        override(Governor, IERC165, GovernorTimelockControl)\n        returns (bool)\n    {\n        return super.supportsInterface(interfaceId);\n    }\n}",
  "sourcePath": "/media/ary/HD/ary/Documents/4P/CRYPTO/A2/Dpublish/contracts/DPubGovernor.sol",
  "compiler": {
    "name": "solc",
    "version": "0.8.10+commit.fc410830.Emscripten.clang"
  },
  "schemaVersion": "3.4.3",
  "updatedAt": "2021-12-15T00:13:10.166Z",
  "devdoc": {
    "custom:security-contact": "fccoelho@gmail.com",
    "kind": "dev",
    "methods": {
      "COUNTING_MODE()": {
        "details": "A description of the possible `support` values for {castVote} and the way these votes are counted, meant to be consumed by UIs to show correct vote options and interpret the results. The string is a URL-encoded sequence of key-value pairs that each describe one aspect, for example `support=bravo&quorum=for,abstain`. There are 2 standard keys: `support` and `quorum`. - `support=bravo` refers to the vote options 0 = Against, 1 = For, 2 = Abstain, as in `GovernorBravo`. - `quorum=bravo` means that only For votes are counted towards quorum. - `quorum=for,abstain` means that both For and Abstain votes are counted towards quorum. NOTE: The string can be decoded by the standard https://developer.mozilla.org/en-US/docs/Web/API/URLSearchParams[`URLSearchParams`] JavaScript class."
      },
      "cancel(uint256)": {
        "details": "Cancels a proposal only if sender is the proposer, or proposer delegates dropped below proposal threshold."
      },
      "castVote(uint256,uint8)": {
        "details": "See {IGovernor-castVote}."
      },
      "castVoteBySig(uint256,uint8,uint8,bytes32,bytes32)": {
        "details": "See {IGovernor-castVoteBySig}."
      },
      "castVoteWithReason(uint256,uint8,string)": {
        "details": "See {IGovernor-castVoteWithReason}."
      },
      "execute(address[],uint256[],bytes[],bytes32)": {
        "details": "See {IGovernor-execute}."
      },
      "execute(uint256)": {
        "details": "See {IGovernorCompatibilityBravo-execute}."
      },
      "getActions(uint256)": {
        "details": "See {IGovernorCompatibilityBravo-getActions}."
      },
      "getReceipt(uint256,address)": {
        "details": "See {IGovernorCompatibilityBravo-getReceipt}."
      },
      "hasVoted(uint256,address)": {
        "details": "See {IGovernor-hasVoted}."
      },
      "hashProposal(address[],uint256[],bytes[],bytes32)": {
        "details": "See {IGovernor-hashProposal}. The proposal id is produced by hashing the RLC encoded `targets` array, the `values` array, the `calldatas` array and the descriptionHash (bytes32 which itself is the keccak256 hash of the description string). This proposal id can be produced from the proposal data which is part of the {ProposalCreated} event. It can even be computed in advance, before the proposal is submitted. Note that the chainId and the governor address are not part of the proposal id computation. Consequently, the same proposal (with same operation and same description) will have the same id if submitted on multiple governors accross multiple networks. This also means that in order to execute the same operation twice (on the same governor) the proposer will have to change the description in order to avoid proposal id conflicts."
      },
      "name()": {
        "details": "See {IGovernor-name}."
      },
      "proposalDeadline(uint256)": {
        "details": "See {IGovernor-proposalDeadline}."
      },
      "proposalEta(uint256)": {
        "details": "Public accessor to check the eta of a queued proposal"
      },
      "proposalSnapshot(uint256)": {
        "details": "See {IGovernor-proposalSnapshot}."
      },
      "proposalThreshold()": {
        "details": "Part of the Governor Bravo's interface: _\"The number of votes required in order for a voter to become a proposer\"_."
      },
      "proposals(uint256)": {
        "details": "See {IGovernorCompatibilityBravo-proposals}."
      },
      "propose(address[],uint256[],string[],bytes[],string)": {
        "details": "See {IGovernorCompatibilityBravo-propose}."
      },
      "queue(address[],uint256[],bytes[],bytes32)": {
        "details": "Function to queue a proposal to the timelock."
      },
      "queue(uint256)": {
        "details": "See {IGovernorCompatibilityBravo-queue}."
      },
      "quorumVotes()": {
        "details": "See {IGovernorCompatibilityBravo-quorumVotes}."
      },
      "timelock()": {
        "details": "Public accessor to check the address of the timelock"
      },
      "updateTimelock(address)": {
        "details": "Public endpoint to update the underlying timelock instance. Restricted to the timelock itself, so updates must be proposed, scheduled and executed using the {Governor} workflow."
      },
      "version()": {
        "details": "See {IGovernor-version}."
      },
      "votingDelay()": {
        "details": "Delay, in number of block, between the proposal is created and the vote starts. This can be increassed to leave time for users to buy voting power, of delegate it, before the voting of a proposal starts."
      },
      "votingPeriod()": {
        "details": "Delay, in number of blocks, between the vote start and vote ends. NOTE: The {votingDelay} can delay the start of the vote. This must be considered when setting the voting duration compared to the voting delay."
      }
    },
    "version": 1
  },
  "userdoc": {
    "kind": "user",
    "methods": {
      "COUNTING_MODE()": {
        "notice": "module:voting"
      },
      "votingDelay()": {
        "notice": "module:user-config"
      },
      "votingPeriod()": {
        "notice": "module:user-config"
      }
    },
    "version": 1
  }
}