{
  "contractName": "DPublish",
  "abi": [
    {
      "inputs": [],
      "stateMutability": "nonpayable",
      "type": "constructor"
    },
    {
      "inputs": [
        {
          "internalType": "uint256",
          "name": "requested",
          "type": "uint256"
        },
        {
          "internalType": "uint256",
          "name": "avaible",
          "type": "uint256"
        }
      ],
      "name": "NotEnoughFunds",
      "type": "error"
    },
    {
      "anonymous": false,
      "inputs": [
        {
          "indexed": false,
          "internalType": "address",
          "name": "from",
          "type": "address"
        },
        {
          "indexed": false,
          "internalType": "uint256",
          "name": "amount",
          "type": "uint256"
        }
      ],
      "name": "PaymentReceived",
      "type": "event"
    },
    {
      "inputs": [
        {
          "internalType": "address",
          "name": "",
          "type": "address"
        }
      ],
      "name": "balances",
      "outputs": [
        {
          "internalType": "uint256",
          "name": "",
          "type": "uint256"
        }
      ],
      "stateMutability": "view",
      "type": "function"
    },
    {
      "inputs": [
        {
          "internalType": "string",
          "name": "",
          "type": "string"
        }
      ],
      "name": "bounties",
      "outputs": [
        {
          "internalType": "uint256",
          "name": "",
          "type": "uint256"
        }
      ],
      "stateMutability": "view",
      "type": "function"
    },
    {
      "inputs": [],
      "name": "publishing_fee",
      "outputs": [
        {
          "internalType": "uint256",
          "name": "",
          "type": "uint256"
        }
      ],
      "stateMutability": "view",
      "type": "function"
    },
    {
      "inputs": [
        {
          "internalType": "string",
          "name": "",
          "type": "string"
        }
      ],
      "name": "review1_manuscripts",
      "outputs": [
        {
          "internalType": "address",
          "name": "",
          "type": "address"
        }
      ],
      "stateMutability": "view",
      "type": "function"
    },
    {
      "inputs": [
        {
          "internalType": "string",
          "name": "",
          "type": "string"
        }
      ],
      "name": "review2_manuscripts",
      "outputs": [
        {
          "internalType": "address",
          "name": "",
          "type": "address"
        }
      ],
      "stateMutability": "view",
      "type": "function"
    },
    {
      "inputs": [
        {
          "internalType": "string",
          "name": "",
          "type": "string"
        }
      ],
      "name": "review_qtd",
      "outputs": [
        {
          "internalType": "uint256",
          "name": "",
          "type": "uint256"
        }
      ],
      "stateMutability": "view",
      "type": "function"
    },
    {
      "inputs": [
        {
          "internalType": "address",
          "name": "",
          "type": "address"
        }
      ],
      "name": "reviewers",
      "outputs": [
        {
          "internalType": "bool",
          "name": "",
          "type": "bool"
        }
      ],
      "stateMutability": "view",
      "type": "function"
    },
    {
      "inputs": [
        {
          "internalType": "string",
          "name": "",
          "type": "string"
        }
      ],
      "name": "reviewing",
      "outputs": [
        {
          "internalType": "bool",
          "name": "",
          "type": "bool"
        }
      ],
      "stateMutability": "view",
      "type": "function"
    },
    {
      "inputs": [
        {
          "internalType": "string",
          "name": "",
          "type": "string"
        }
      ],
      "name": "submited_manuscripts",
      "outputs": [
        {
          "internalType": "address",
          "name": "",
          "type": "address"
        }
      ],
      "stateMutability": "view",
      "type": "function"
    },
    {
      "inputs": [
        {
          "internalType": "string",
          "name": "idmanuscript",
          "type": "string"
        }
      ],
      "name": "submit_manuscript",
      "outputs": [],
      "stateMutability": "payable",
      "type": "function"
    },
    {
      "inputs": [
        {
          "internalType": "uint256",
          "name": "fee",
          "type": "uint256"
        }
      ],
      "name": "set_fee",
      "outputs": [],
      "stateMutability": "payable",
      "type": "function"
    },
    {
      "inputs": [],
      "name": "subscribe_riviewer",
      "outputs": [],
      "stateMutability": "nonpayable",
      "type": "function"
    },
    {
      "inputs": [
        {
          "internalType": "string",
          "name": "idmanuscript",
          "type": "string"
        },
        {
          "internalType": "bool",
          "name": "review_1",
          "type": "bool"
        }
      ],
      "name": "start_review",
      "outputs": [],
      "stateMutability": "nonpayable",
      "type": "function"
    }
  ],
  "bytecode": "0x608060405234801561001057600080fd5b5033600860006101000a81548173ffffffffffffffffffffffffffffffffffffffff021916908373ffffffffffffffffffffffffffffffffffffffff160217905550611242806100616000396000f3fe6080604052600436106100c25760003560e01c8063a64f4aeb1161007f578063cdeca25211610059578063cdeca252146102b9578063cf8f9085146102d5578063e0645cc1146102fe578063f7cbb1b214610315576100c2565b8063a64f4aeb14610214578063a7233bd314610251578063cbb5f2d01461028e576100c2565b80631aa02d59146100c757806327e235e3146100e35780633a46b4c4146101205780633cbef3731461015d578063722a57131461019a578063a1338fa3146101d7575b600080fd5b6100e160048036038101906100dc9190610d41565b610352565b005b3480156100ef57600080fd5b5061010a60048036038101906101059190610c83565b6103b6565b6040516101179190610f07565b60405180910390f35b34801561012c57600080fd5b5061014760048036038101906101429190610cac565b6103ce565b6040516101549190610e48565b60405180910390f35b34801561016957600080fd5b50610184600480360381019061017f9190610cac565b610417565b6040516101919190610f07565b60405180910390f35b3480156101a657600080fd5b506101c160048036038101906101bc9190610cac565b610445565b6040516101ce9190610f07565b60405180910390f35b3480156101e357600080fd5b506101fe60048036038101906101f99190610cac565b610473565b60405161020b9190610e48565b60405180910390f35b34801561022057600080fd5b5061023b60048036038101906102369190610cac565b6104bc565b6040516102489190610e48565b60405180910390f35b34801561025d57600080fd5b5061027860048036038101906102739190610cac565b610505565b6040516102859190610e8c565b60405180910390f35b34801561029a57600080fd5b506102a361053b565b6040516102b09190610f07565b60405180910390f35b6102d360048036038101906102ce9190610cac565b610541565b005b3480156102e157600080fd5b506102fc60048036038101906102f79190610ced565b610744565b005b34801561030a57600080fd5b50610313610b62565b005b34801561032157600080fd5b5061033c60048036038101906103379190610c83565b610bbc565b6040516103499190610e8c565b60405180910390f35b600860009054906101000a900473ffffffffffffffffffffffffffffffffffffffff1673ffffffffffffffffffffffffffffffffffffffff163373ffffffffffffffffffffffffffffffffffffffff16146103ac57600080fd5b8060098190555050565b60016020528060005260406000206000915090505481565b6003818051602081018201805184825260208301602085012081835280955050505050506000915054906101000a900473ffffffffffffffffffffffffffffffffffffffff1681565b6002818051602081018201805184825260208301602085012081835280955050505050506000915090505481565b6006818051602081018201805184825260208301602085012081835280955050505050506000915090505481565b6004818051602081018201805184825260208301602085012081835280955050505050506000915054906101000a900473ffffffffffffffffffffffffffffffffffffffff1681565b6000818051602081018201805184825260208301602085012081835280955050505050506000915054906101000a900473ffffffffffffffffffffffffffffffffffffffff1681565b6007818051602081018201805184825260208301602085012081835280955050505050506000915054906101000a900460ff1681565b60095481565b336000826040516105529190610e31565b908152602001604051809103902060006101000a81548173ffffffffffffffffffffffffffffffffffffffff021916908373ffffffffffffffffffffffffffffffffffffffff1602179055506000600160003373ffffffffffffffffffffffffffffffffffffffff1673ffffffffffffffffffffffffffffffffffffffff16815260200190815260200160002054905060095481101561062d57600954816040517f8c905368000000000000000000000000000000000000000000000000000000008152600401610624929190610f22565b60405180910390fd5b600954600160003373ffffffffffffffffffffffffffffffffffffffff1673ffffffffffffffffffffffffffffffffffffffff168152602001908152602001600020600082825461067e9190610fc8565b925050819055506009546002836040516106989190610e31565b90815260200160405180910390208190555060006006836040516106bc9190610e31565b90815260200160405180910390208190555060006007836040516106e09190610e31565b908152602001604051809103902060006101000a81548160ff0219169083151502179055507f6ef95f06320e7a25a04a175ca677b7052bdd97131872c2192525a629f51be77033600954604051610738929190610e63565b60405180910390a15050565b60011515600560003373ffffffffffffffffffffffffffffffffffffffff1673ffffffffffffffffffffffffffffffffffffffff16815260200190815260200160002060009054906101000a900460ff161515146107d7576040517f08c379a00000000000000000000000000000000000000000000000000000000081526004016107ce90610ea7565b60405180910390fd5b80156109495760006006836040516107ef9190610e31565b9081526020016040518091039020541461083e576040517f08c379a000000000000000000000000000000000000000000000000000000000815260040161083590610ee7565b60405180910390fd5b600015156007836040516108529190610e31565b908152602001604051809103902060009054906101000a900460ff161515146108b0576040517f08c379a00000000000000000000000000000000000000000000000000000000081526004016108a790610ec7565b60405180910390fd5b60016007836040516108c29190610e31565b908152602001604051809103902060006101000a81548160ff021916908315150217905550336003836040516108f89190610e31565b908152602001604051809103902060006101000a81548173ffffffffffffffffffffffffffffffffffffffff021916908373ffffffffffffffffffffffffffffffffffffffff160217905550610b5e565b600160068360405161095b9190610e31565b908152602001604051809103902054146109aa576040517f08c379a00000000000000000000000000000000000000000000000000000000081526004016109a190610ec7565b60405180910390fd5b600015156007836040516109be9190610e31565b908152602001604051809103902060009054906101000a900460ff16151514610a1c576040517f08c379a0000000000000000000000000000000000000000000000000000000008152600401610a1390610ec7565b60405180910390fd5b3373ffffffffffffffffffffffffffffffffffffffff16600383604051610a439190610e31565b908152602001604051809103902060009054906101000a900473ffffffffffffffffffffffffffffffffffffffff1673ffffffffffffffffffffffffffffffffffffffff161415610ac9576040517f08c379a0000000000000000000000000000000000000000000000000000000008152600401610ac090610ee7565b60405180910390fd5b6001600783604051610adb9190610e31565b908152602001604051809103902060006101000a81548160ff02191690831515021790555033600483604051610b119190610e31565b908152602001604051809103902060006101000a81548173ffffffffffffffffffffffffffffffffffffffff021916908373ffffffffffffffffffffffffffffffffffffffff1602179055505b5050565b6001600560003373ffffffffffffffffffffffffffffffffffffffff1673ffffffffffffffffffffffffffffffffffffffff16815260200190815260200160002060006101000a81548160ff021916908315150217905550565b60056020528060005260406000206000915054906101000a900460ff1681565b6000610bef610bea84610f70565b610f4b565b905082815260208101848484011115610c0757600080fd5b610c12848285611044565b509392505050565b600081359050610c29816111c7565b92915050565b600081359050610c3e816111de565b92915050565b600082601f830112610c5557600080fd5b8135610c65848260208601610bdc565b91505092915050565b600081359050610c7d816111f5565b92915050565b600060208284031215610c9557600080fd5b6000610ca384828501610c1a565b91505092915050565b600060208284031215610cbe57600080fd5b600082013567ffffffffffffffff811115610cd857600080fd5b610ce484828501610c44565b91505092915050565b60008060408385031215610d0057600080fd5b600083013567ffffffffffffffff811115610d1a57600080fd5b610d2685828601610c44565b9250506020610d3785828601610c2f565b9150509250929050565b600060208284031215610d5357600080fd5b6000610d6184828501610c6e565b91505092915050565b610d7381610ffc565b82525050565b610d828161100e565b82525050565b6000610d9382610fa1565b610d9d8185610fbd565b9350610dad818560208601611053565b80840191505092915050565b6000610dc6600e83610fac565b9150610dd182611126565b602082019050919050565b6000610de9602083610fac565b9150610df48261114f565b602082019050919050565b6000610e0c602183610fac565b9150610e1782611178565b604082019050919050565b610e2b8161103a565b82525050565b6000610e3d8284610d88565b915081905092915050565b6000602082019050610e5d6000830184610d6a565b92915050565b6000604082019050610e786000830185610d6a565b610e856020830184610e22565b9392505050565b6000602082019050610ea16000830184610d79565b92915050565b60006020820190508181036000830152610ec081610db9565b9050919050565b60006020820190508181036000830152610ee081610ddc565b9050919050565b60006020820190508181036000830152610f0081610dff565b9050919050565b6000602082019050610f1c6000830184610e22565b92915050565b6000604082019050610f376000830185610e22565b610f446020830184610e22565b9392505050565b6000610f55610f66565b9050610f618282611086565b919050565b6000604051905090565b600067ffffffffffffffff821115610f8b57610f8a6110e6565b5b610f9482611115565b9050602081019050919050565b600081519050919050565b600082825260208201905092915050565b600081905092915050565b6000610fd38261103a565b9150610fde8361103a565b925082821015610ff157610ff06110b7565b5b828203905092915050565b60006110078261101a565b9050919050565b60008115159050919050565b600073ffffffffffffffffffffffffffffffffffffffff82169050919050565b6000819050919050565b82818337600083830152505050565b60005b83811015611071578082015181840152602081019050611056565b83811115611080576000848401525b50505050565b61108f82611115565b810181811067ffffffffffffffff821117156110ae576110ad6110e6565b5b80604052505050565b7f4e487b7100000000000000000000000000000000000000000000000000000000600052601160045260246000fd5b7f4e487b7100000000000000000000000000000000000000000000000000000000600052604160045260246000fd5b6000601f19601f8301169050919050565b7f4f6e6c7920526576696577657273000000000000000000000000000000000000600082015250565b7f54686973206d616e75736372697074206973206265696e672072657669736564600082015250565b7f596f752063616e6e6f74207265766965772074686973206d616e75736372697060008201527f7400000000000000000000000000000000000000000000000000000000000000602082015250565b6111d081610ffc565b81146111db57600080fd5b50565b6111e78161100e565b81146111f257600080fd5b50565b6111fe8161103a565b811461120957600080fd5b5056fea26469706673582212205752edbeebb439dd1e47950ed3870ec2fae42179c40f1d53c8acea0038feba8e64736f6c63430008040033",
  "immutableReferences": {},
  "source": "// SPDX-License-Identifier: MIT\npragma solidity ^0.8.2;\n\nimport \"./DPubToken.sol\";\nimport \"./ReviewToken.sol\";\nimport \"./PaperToken.sol\";\n\nimport \"@openzeppelin/contracts/utils/Context.sol\";\n\n\n\ncontract DPublish is Context{\n    mapping(string => address) public submited_manuscripts;\n    mapping(address => uint256) public balances; ///Quantiedade de DPTK por usuario\n    mapping(string => uint256) public bounties; //pagamentos para revisores\n    \n    //Processo de Revisao\n    mapping(string => address) public review1_manuscripts;//artigos revisados uma vez\n    mapping(string => address) public review2_manuscripts;//artigso revisados duas vezes\n    mapping(address => bool) public reviewers;// Lista de revisores\n    mapping(string => uint) public review_qtd; // Quantidade de vezes que o manuscrito foi revisado\n    mapping(string => bool) public reviewing; // mostra se o arquivo ta sendo revisado\n\n    address private Editor;//Quem vai iniciar o dpublish\n    uint256 public publishing_fee; //preco pra publicar\n\n    //events\n    event PaymentReceived(address from, uint256 amount);\n    //errors\n    error NotEnoughFunds(uint256 requested, uint256 avaible);\n\n    constructor(){\n        Editor = msg.sender;\n    }\n\n    //Envia manuscrito\n    function submit_manuscript(string memory idmanuscript) public payable{\n        submited_manuscripts[idmanuscript] = msg.sender;\n        uint balance = balances[msg.sender];\n        if (balance < publishing_fee)\n            revert NotEnoughFunds(publishing_fee, balance);\n        balances[msg.sender] -= publishing_fee;\n        bounties[idmanuscript] = publishing_fee;\n\n        //nao esta sendo revisado\n        review_qtd[idmanuscript] = 0;\n        reviewing[idmanuscript] = false;\n\n        emit PaymentReceived(msg.sender, publishing_fee);\n    }\n\n    //Editor pode mudar o preco do fee\n    function set_fee(uint256 fee) public payable{\n        require(msg.sender == Editor);\n        publishing_fee = fee;\n    }\n\n\n    //revisor se inscreve\n\n    function subscribe_riviewer()public {\n        reviewers[msg.sender] =  true;   \n    }\n\n    //revisao numero\n\n    function start_review(string memory idmanuscript, bool review_1) public {\n        //precisa que o msg.sender seja um revisor\n        require(reviewers[msg.sender] == true,\"Only Reviewers\");\n        //se for a primeira revisao\n        if(review_1){\n            //manuscrito precisa ter 0 revisoes\n            require(review_qtd[idmanuscript] == 0, \"You cannot review this manuscript\");\n            //manuscrito nao pode estar sendo revisado\n            require(reviewing[idmanuscript] == false, \"This manuscript is being revised\");\n            //adiciona que o manuscrito esta sendo revisado\n            reviewing[idmanuscript] = true;\n            //adiciona o endereco do revisor \n            review1_manuscripts[idmanuscript] = msg.sender;\n        }\n        //segunda revisao\n        else{\n            //o manuscrito precisa ter sido revisado 1 vez\n            require(review_qtd[idmanuscript] == 1, \"This manuscript is being revised\");\n            //o manuscrito nao pode estar sendo revisado\n            require(reviewing[idmanuscript] == false, \"This manuscript is being revised\");\n            //o msg.sender nao pode ser o primeiro revisor\n            require(review1_manuscripts[idmanuscript] != msg.sender,\"You cannot review this manuscript\");\n            //adiciona que o manuscrito esta sendo revisado\n            reviewing[idmanuscript] = true;\n            //adiciona o endereco do revisor\n            review2_manuscripts[idmanuscript] = msg.sender;\n\n\n        }\n\n\n    }\n\n\n\n\n\n\n\n\n\n}",
  "sourcePath": "/home/alcindo/fgv/4p/cripto/Dpublish/contracts/DPublish.sol",
  "compiler": {
    "name": "solc",
    "version": "0.8.4+commit.c7e474f2.Emscripten.clang"
  },
  "schemaVersion": "3.4.3",
  "updatedAt": "2021-12-14T19:27:21.239Z",
  "devdoc": {
    "kind": "dev",
    "methods": {},
    "version": 1
  },
  "userdoc": {
    "kind": "user",
    "methods": {
      "bounties(string)": {
        "notice": "Quantiedade de DPTK por usuario"
      }
    },
    "version": 1
  }
}