{
  "contractName": "DPublish",
  "abi": [
    {
      "inputs": [],
      "stateMutability": "nonpayable",
      "type": "constructor"
    },
    {
      "anonymous": false,
      "inputs": [
        {
          "indexed": false,
          "internalType": "address",
          "name": "from",
          "type": "address"
        },
        {
          "indexed": false,
          "internalType": "uint256",
          "name": "amount",
          "type": "uint256"
        }
      ],
      "name": "PaymentReceived",
      "type": "event"
    },
    {
      "inputs": [],
      "name": "actual_fee",
      "outputs": [
        {
          "internalType": "uint256",
          "name": "",
          "type": "uint256"
        }
      ],
      "stateMutability": "view",
      "type": "function",
      "constant": true
    },
    {
      "inputs": [
        {
          "internalType": "address",
          "name": "",
          "type": "address"
        }
      ],
      "name": "review_completed",
      "outputs": [
        {
          "internalType": "string",
          "name": "",
          "type": "string"
        }
      ],
      "stateMutability": "view",
      "type": "function",
      "constant": true
    },
    {
      "inputs": [
        {
          "internalType": "string",
          "name": "",
          "type": "string"
        }
      ],
      "name": "submitted_manuscripts",
      "outputs": [
        {
          "internalType": "address",
          "name": "",
          "type": "address"
        }
      ],
      "stateMutability": "view",
      "type": "function",
      "constant": true
    },
    {
      "inputs": [
        {
          "internalType": "address",
          "name": "",
          "type": "address"
        }
      ],
      "name": "wallet_amount",
      "outputs": [
        {
          "internalType": "uint256",
          "name": "",
          "type": "uint256"
        }
      ],
      "stateMutability": "view",
      "type": "function",
      "constant": true
    },
    {
      "inputs": [
        {
          "internalType": "string",
          "name": "idmanuscript",
          "type": "string"
        }
      ],
      "name": "submit_manuscript",
      "outputs": [],
      "stateMutability": "payable",
      "type": "function",
      "payable": true
    },
    {
      "inputs": [
        {
          "internalType": "address",
          "name": "account",
          "type": "address"
        }
      ],
      "name": "authorize_payment",
      "outputs": [
        {
          "internalType": "bool",
          "name": "",
          "type": "bool"
        }
      ],
      "stateMutability": "view",
      "type": "function",
      "constant": true
    },
    {
      "inputs": [
        {
          "internalType": "address",
          "name": "account",
          "type": "address"
        }
      ],
      "name": "get_balance",
      "outputs": [
        {
          "internalType": "uint256",
          "name": "",
          "type": "uint256"
        }
      ],
      "stateMutability": "view",
      "type": "function",
      "constant": true
    },
    {
      "inputs": [
        {
          "internalType": "uint256",
          "name": "amount",
          "type": "uint256"
        }
      ],
      "name": "set_fee",
      "outputs": [],
      "stateMutability": "payable",
      "type": "function",
      "payable": true
    },
    {
      "inputs": [
        {
          "internalType": "address",
          "name": "account",
          "type": "address"
        },
        {
          "internalType": "uint256",
          "name": "amount",
          "type": "uint256"
        }
      ],
      "name": "set_balance",
      "outputs": [],
      "stateMutability": "nonpayable",
      "type": "function"
    },
    {
      "inputs": [
        {
          "internalType": "string",
          "name": "article_link",
          "type": "string"
        }
      ],
      "name": "review_article",
      "outputs": [],
      "stateMutability": "nonpayable",
      "type": "function"
    }
  ],
  "bytecode": "0x608060405261271060055534801561001657600080fd5b5033600360006101000a81548173ffffffffffffffffffffffffffffffffffffffff021916908373ffffffffffffffffffffffffffffffffffffffff160217905550610f93806100676000396000f3fe6080604052600436106100915760003560e01c8063bb22cae511610059578063bb22cae51461016c578063cdeca252146101a9578063e1938f14146101c5578063f46f4fe514610202578063f52fc3ca1461023f57610091565b80630776e4fa1461009657806315338db3146100bf5780631aa02d59146100ea5780631e279a37146101065780632da2e06e14610143575b600080fd5b3480156100a257600080fd5b506100bd60048036038101906100b89190610943565b61027c565b005b3480156100cb57600080fd5b506100d461031e565b6040516100e19190610be1565b60405180910390f35b61010460048036038101906100ff91906109c0565b610324565b005b34801561011257600080fd5b5061012d6004803603810190610128919061091a565b610402565b60405161013a9190610be1565b60405180910390f35b34801561014f57600080fd5b5061016a6004803603810190610165919061097f565b6104b9565b005b34801561017857600080fd5b50610193600480360381019061018e919061091a565b610519565b6040516101a09190610b44565b60405180910390f35b6101c360048036038101906101be919061097f565b610575565b005b3480156101d157600080fd5b506101ec60048036038101906101e7919061091a565b61062e565b6040516101f99190610b5f565b60405180910390f35b34801561020e57600080fd5b506102296004803603810190610224919061097f565b6106ce565b6040516102369190610b00565b60405180910390f35b34801561024b57600080fd5b506102666004803603810190610261919061091a565b610717565b6040516102739190610be1565b60405180910390f35b600360009054906101000a900473ffffffffffffffffffffffffffffffffffffffff1673ffffffffffffffffffffffffffffffffffffffff163373ffffffffffffffffffffffffffffffffffffffff16146102d657600080fd5b80600160008473ffffffffffffffffffffffffffffffffffffffff1673ffffffffffffffffffffffffffffffffffffffff168152602001908152602001600020819055505050565b60045481565b600360009054906101000a900473ffffffffffffffffffffffffffffffffffffffff1673ffffffffffffffffffffffffffffffffffffffff163373ffffffffffffffffffffffffffffffffffffffff16146103b4576040517f08c379a00000000000000000000000000000000000000000000000000000000081526004016103ab90610ba1565b60405180910390fd5b60055481116103f8576040517f08c379a00000000000000000000000000000000000000000000000000000000081526004016103ef90610b81565b60405180910390fd5b8060048190555050565b60008173ffffffffffffffffffffffffffffffffffffffff163373ffffffffffffffffffffffffffffffffffffffff1614610472576040517f08c379a000000000000000000000000000000000000000000000000000000000815260040161046990610ba1565b60405180910390fd5b600160008373ffffffffffffffffffffffffffffffffffffffff1673ffffffffffffffffffffffffffffffffffffffff168152602001908152602001600020549050919050565b80600260003373ffffffffffffffffffffffffffffffffffffffff1673ffffffffffffffffffffffffffffffffffffffff168152602001908152602001600020908051906020019061050c9291906107e5565b506105163361072f565b50565b60008061052583610402565b9050600454811061056b576040517f08c379a000000000000000000000000000000000000000000000000000000000815260040161056290610bc1565b60405180910390fd5b6001915050919050565b336000826040516105869190610ae9565b908152602001604051809103902060006101000a81548173ffffffffffffffffffffffffffffffffffffffff021916908373ffffffffffffffffffffffffffffffffffffffff16021790555060006105dd33610519565b905080156105ef576105ee3361078a565b5b7f6ef95f06320e7a25a04a175ca677b7052bdd97131872c2192525a629f51be77033600454604051610622929190610b1b565b60405180910390a15050565b6002602052806000526040600020600091509050805461064d90610d8d565b80601f016020809104026020016040519081016040528092919081815260200182805461067990610d8d565b80156106c65780601f1061069b576101008083540402835291602001916106c6565b820191906000526020600020905b8154815290600101906020018083116106a957829003601f168201915b505050505081565b6000818051602081018201805184825260208301602085012081835280955050505050506000915054906101000a900473ffffffffffffffffffffffffffffffffffffffff1681565b60016020528060005260406000206000915090505481565b600454600160008373ffffffffffffffffffffffffffffffffffffffff1673ffffffffffffffffffffffffffffffffffffffff16815260200190815260200160002060008282546107809190610c79565b9250508190555050565b600454600160008373ffffffffffffffffffffffffffffffffffffffff1673ffffffffffffffffffffffffffffffffffffffff16815260200190815260200160002060008282546107db9190610ccf565b9250508190555050565b8280546107f190610d8d565b90600052602060002090601f016020900481019282610813576000855561085a565b82601f1061082c57805160ff191683800117855561085a565b8280016001018555821561085a579182015b8281111561085957825182559160200191906001019061083e565b5b509050610867919061086b565b5090565b5b8082111561088457600081600090555060010161086c565b5090565b600061089b61089684610c21565b610bfc565b9050828152602081018484840111156108b357600080fd5b6108be848285610d4b565b509392505050565b6000813590506108d581610f2f565b92915050565b600082601f8301126108ec57600080fd5b81356108fc848260208601610888565b91505092915050565b60008135905061091481610f46565b92915050565b60006020828403121561092c57600080fd5b600061093a848285016108c6565b91505092915050565b6000806040838503121561095657600080fd5b6000610964858286016108c6565b925050602061097585828601610905565b9150509250929050565b60006020828403121561099157600080fd5b600082013567ffffffffffffffff8111156109ab57600080fd5b6109b7848285016108db565b91505092915050565b6000602082840312156109d257600080fd5b60006109e084828501610905565b91505092915050565b6109f281610d03565b82525050565b610a0181610d15565b82525050565b6000610a1282610c52565b610a1c8185610c5d565b9350610a2c818560208601610d5a565b610a3581610e7d565b840191505092915050565b6000610a4b82610c52565b610a558185610c6e565b9350610a65818560208601610d5a565b80840191505092915050565b6000610a7e601783610c5d565b9150610a8982610e8e565b602082019050919050565b6000610aa1602283610c5d565b9150610aac82610eb7565b604082019050919050565b6000610ac4601183610c5d565b9150610acf82610f06565b602082019050919050565b610ae381610d41565b82525050565b6000610af58284610a40565b915081905092915050565b6000602082019050610b1560008301846109e9565b92915050565b6000604082019050610b3060008301856109e9565b610b3d6020830184610ada565b9392505050565b6000602082019050610b5960008301846109f8565b92915050565b60006020820190508181036000830152610b798184610a07565b905092915050565b60006020820190508181036000830152610b9a81610a71565b9050919050565b60006020820190508181036000830152610bba81610a94565b9050919050565b60006020820190508181036000830152610bda81610ab7565b9050919050565b6000602082019050610bf66000830184610ada565b92915050565b6000610c06610c17565b9050610c128282610dbf565b919050565b6000604051905090565b600067ffffffffffffffff821115610c3c57610c3b610e4e565b5b610c4582610e7d565b9050602081019050919050565b600081519050919050565b600082825260208201905092915050565b600081905092915050565b6000610c8482610d41565b9150610c8f83610d41565b9250827fffffffffffffffffffffffffffffffffffffffffffffffffffffffffffffffff03821115610cc457610cc3610df0565b5b828201905092915050565b6000610cda82610d41565b9150610ce583610d41565b925082821015610cf857610cf7610df0565b5b828203905092915050565b6000610d0e82610d21565b9050919050565b60008115159050919050565b600073ffffffffffffffffffffffffffffffffffffffff82169050919050565b6000819050919050565b82818337600083830152505050565b60005b83811015610d78578082015181840152602081019050610d5d565b83811115610d87576000848401525b50505050565b60006002820490506001821680610da557607f821691505b60208210811415610db957610db8610e1f565b5b50919050565b610dc882610e7d565b810181811067ffffffffffffffff82111715610de757610de6610e4e565b5b80604052505050565b7f4e487b7100000000000000000000000000000000000000000000000000000000600052601160045260246000fd5b7f4e487b7100000000000000000000000000000000000000000000000000000000600052602260045260246000fd5b7f4e487b7100000000000000000000000000000000000000000000000000000000600052604160045260246000fd5b6000601f19601f8301169050919050565b7f596f757220666565206d75737420626520686967686572000000000000000000600082015250565b7f596f7520646f6e27742068617665207065726d697373696f6e20666f7220746860008201527f6174000000000000000000000000000000000000000000000000000000000000602082015250565b7f4e6f7420656e6f75676820746f6b656e73000000000000000000000000000000600082015250565b610f3881610d03565b8114610f4357600080fd5b50565b610f4f81610d41565b8114610f5a57600080fd5b5056fea26469706673582212205591e295b43d71a1db5855b5763c85fcd6dc15954d9c4686f1181e20e8d6a05c64736f6c63430008040033",
  "immutableReferences": {},
  "source": "// SPDX-License-Identifier: MIT\npragma solidity ^0.8.4;\n\ncontract DPublish {\n\n    mapping(string => address) public submitted_manuscripts;\n    mapping(address => uint256) public wallet_amount; // armazena o total da carteira\n    mapping (address => string) public review_completed; // armazena os links dos artigos revisados\n    \n    address private reviewr; // endereo do revisor\n    uint256 public actual_fee; // taxa pela revisao\n    uint256 min_fee = 10000; // taxa mnima\n    // no futuro, este valor dever ser mutvel por um usuio com permisso (comit)\n    \n    event PaymentReceived(address from, uint256 amount);\n\n    constructor(){\n        // o autor do contrato  o revisor\n        reviewr = msg.sender;\n    }\n\n    function submit_manuscript(string memory idmanuscript) public payable{\n        \n        submitted_manuscripts[idmanuscript] = msg.sender;\n\n        // verifica possibilidade de pagamento\n        bool payment_authorize = authorize_payment(msg.sender); \n\n        if (payment_authorize)\n    \n        // realizando pagamento da reviso:\n        make_payment(msg.sender);\n        \n        emit PaymentReceived(msg.sender, actual_fee);\n    }\n\n    function authorize_payment(address account) public view returns (bool){\n        // authorize payment\n        uint256 account_amount = get_balance(account);\n        require(account_amount < actual_fee, \"Not enough tokens\");\n        return true;\n    }\n\n    function get_balance(address account) public view returns (uint) {\n        // get account balance\n        require(msg.sender == account , \"You don't have permission for that\");\n        return wallet_amount[account];\n    }\n\n\n    function set_fee(uint256 amount) public payable{\n        // set revieww fee \n        require(msg.sender == reviewr, \"You don't have permission for that\");\n        require(amount > min_fee, \"Your fee must be higher\");\n        actual_fee = amount;\n    }\n\n    function set_balance(address account, uint256 amount) public{\n        // set wallet balance for account\n        require(msg.sender == reviewr);\n        wallet_amount[account] = amount;\n    }\n\n    function review_article(string memory article_link) public{\n        // publica o link do artigo revisado e recebe o pagamento\n        review_completed[msg.sender] = article_link;\n        receive_payment(msg.sender);\n    }\n\n    function receive_payment(address reviewer) private{\n        wallet_amount[reviewer] += actual_fee;\n    }\n\n    function make_payment(address author) private{\n        wallet_amount[author] -= actual_fee;\n    }\n\n\n}",
  "sourcePath": "/home/fccoelho/Mega/Cursos/Blockchain_EMAp/Dpublish/contracts/DPublish.sol",
  "compiler": {
    "name": "solc",
    "version": "0.8.4+commit.c7e474f2.Emscripten.clang"
  },
  "schemaVersion": "3.4.3",
  "updatedAt": "2021-12-15T10:11:36.752Z",
  "networkType": "ethereum",
  "devdoc": {
    "kind": "dev",
    "methods": {},
    "version": 1
  },
  "userdoc": {
    "kind": "user",
    "methods": {},
    "version": 1
  }
}