{
  "abi": [
    {
      "inputs": [
        {
          "internalType": "string",
          "name": "idmanuscript",
          "type": "string"
        }
      ],
      "name": "submit_manuscript",
      "outputs": [],
      "stateMutability": "view",
      "type": "function"
    },
    {
      "inputs": [
        {
          "internalType": "string",
          "name": "",
          "type": "string"
        }
      ],
      "name": "submitted_manuscripts",
      "outputs": [
        {
          "internalType": "address",
          "name": "",
          "type": "address"
        }
      ],
      "stateMutability": "view",
      "type": "function"
    }
  ],
  "bytecode": "608060405234801561001057600080fd5b506101ec806100206000396000f3fe608060405234801561001057600080fd5b50600436106100365760003560e01c8063cdeca2521461003b578063f46f4fe514610050575b600080fd5b61004e6100493660046100ca565b6100a0565b005b61008461005e3660046100ca565b80516020818301810180516000825292820191909301209152546001600160a01b031681565b6040516001600160a01b03909116815260200160405180910390f35b6000816040516100b0919061017b565b5250565b634e487b7160e01b600052604160045260246000fd5b6000602082840312156100dc57600080fd5b813567ffffffffffffffff808211156100f457600080fd5b818401915084601f83011261010857600080fd5b81358181111561011a5761011a6100b4565b604051601f8201601f19908116603f01168101908382118183101715610142576101426100b4565b8160405282815287602084870101111561015b57600080fd5b826020860160208301376000928101602001929092525095945050505050565b6000825160005b8181101561019c5760208186018101518583015201610182565b818111156101ab576000828501525b50919091019291505056fea2646970667358221220b79a6a5731930d2a5fae39e60927f2ad30b5b28e5511e7978b33b454cc5a90c364736f6c634300080a0033",
  "bytecodeSha1": "c899d54a05115f2bb4fb531bab6d032937875c88",
  "compiler": {
    "evm_version": "istanbul",
    "optimizer": {
      "enabled": true,
      "runs": 200
    },
    "version": "0.8.10+commit.fc410830"
  },
  "contractName": "DPublish",
  "language": "Solidity",
  "natspec": {
    "kind": "dev",
    "methods": {
      "submit_manuscript(string)": {
        "notice": "Submit manuscript"
      }
    },
    "version": 1
  },
  "opcodes": "PUSH1 0x80 PUSH1 0x40 MSTORE CALLVALUE DUP1 ISZERO PUSH2 0x10 JUMPI PUSH1 0x0 DUP1 REVERT JUMPDEST POP PUSH1 0x4 CALLDATASIZE LT PUSH2 0x36 JUMPI PUSH1 0x0 CALLDATALOAD PUSH1 0xE0 SHR DUP1 PUSH4 0xCDECA252 EQ PUSH2 0x3B JUMPI DUP1 PUSH4 0xF46F4FE5 EQ PUSH2 0x50 JUMPI JUMPDEST PUSH1 0x0 DUP1 REVERT JUMPDEST PUSH2 0x4E PUSH2 0x49 CALLDATASIZE PUSH1 0x4 PUSH2 0xCA JUMP JUMPDEST PUSH2 0xA0 JUMP JUMPDEST STOP JUMPDEST PUSH2 0x84 PUSH2 0x5E CALLDATASIZE PUSH1 0x4 PUSH2 0xCA JUMP JUMPDEST DUP1 MLOAD PUSH1 0x20 DUP2 DUP4 ADD DUP2 ADD DUP1 MLOAD PUSH1 0x0 DUP3 MSTORE SWAP3 DUP3 ADD SWAP2 SWAP1 SWAP4 ADD KECCAK256 SWAP2 MSTORE SLOAD PUSH1 0x1 PUSH1 0x1 PUSH1 0xA0 SHL SUB AND DUP2 JUMP JUMPDEST PUSH1 0x40 MLOAD PUSH1 0x1 PUSH1 0x1 PUSH1 0xA0 SHL SUB SWAP1 SWAP2 AND DUP2 MSTORE PUSH1 0x20 ADD PUSH1 0x40 MLOAD DUP1 SWAP2 SUB SWAP1 RETURN JUMPDEST PUSH1 0x0 DUP2 PUSH1 0x40 MLOAD PUSH2 0xB0 SWAP2 SWAP1 PUSH2 0x17B JUMP JUMPDEST MSTORE POP JUMP JUMPDEST PUSH4 0x4E487B71 PUSH1 0xE0 SHL PUSH1 0x0 MSTORE PUSH1 0x41 PUSH1 0x4 MSTORE PUSH1 0x24 PUSH1 0x0 REVERT JUMPDEST PUSH1 0x0 PUSH1 0x20 DUP3 DUP5 SUB SLT ISZERO PUSH2 0xDC JUMPI PUSH1 0x0 DUP1 REVERT JUMPDEST DUP2 CALLDATALOAD PUSH8 0xFFFFFFFFFFFFFFFF DUP1 DUP3 GT ISZERO PUSH2 0xF4 JUMPI PUSH1 0x0 DUP1 REVERT JUMPDEST DUP2 DUP5 ADD SWAP2 POP DUP5 PUSH1 0x1F DUP4 ADD SLT PUSH2 0x108 JUMPI PUSH1 0x0 DUP1 REVERT JUMPDEST DUP2 CALLDATALOAD DUP2 DUP2 GT ISZERO PUSH2 0x11A JUMPI PUSH2 0x11A PUSH2 0xB4 JUMP JUMPDEST PUSH1 0x40 MLOAD PUSH1 0x1F DUP3 ADD PUSH1 0x1F NOT SWAP1 DUP2 AND PUSH1 0x3F ADD AND DUP2 ADD SWAP1 DUP4 DUP3 GT DUP2 DUP4 LT OR ISZERO PUSH2 0x142 JUMPI PUSH2 0x142 PUSH2 0xB4 JUMP JUMPDEST DUP2 PUSH1 0x40 MSTORE DUP3 DUP2 MSTORE DUP8 PUSH1 0x20 DUP5 DUP8 ADD ADD GT ISZERO PUSH2 0x15B JUMPI PUSH1 0x0 DUP1 REVERT JUMPDEST DUP3 PUSH1 0x20 DUP7 ADD PUSH1 0x20 DUP4 ADD CALLDATACOPY PUSH1 0x0 SWAP3 DUP2 ADD PUSH1 0x20 ADD SWAP3 SWAP1 SWAP3 MSTORE POP SWAP6 SWAP5 POP POP POP POP POP JUMP JUMPDEST PUSH1 0x0 DUP3 MLOAD PUSH1 0x0 JUMPDEST DUP2 DUP2 LT ISZERO PUSH2 0x19C JUMPI PUSH1 0x20 DUP2 DUP7 ADD DUP2 ADD MLOAD DUP6 DUP4 ADD MSTORE ADD PUSH2 0x182 JUMP JUMPDEST DUP2 DUP2 GT ISZERO PUSH2 0x1AB JUMPI PUSH1 0x0 DUP3 DUP6 ADD MSTORE JUMPDEST POP SWAP2 SWAP1 SWAP2 ADD SWAP3 SWAP2 POP POP JUMP INVALID LOG2 PUSH5 0x6970667358 0x22 SLT KECCAK256 0xB7 SWAP11 PUSH11 0x5731930D2A5FAE39E60927 CALLCODE 0xAD ADDRESS 0xB5 0xB2 DUP15 SSTORE GT 0xE7 SWAP8 DUP12 CALLER 0xB4 SLOAD 0xCC GAS SWAP1 0xC3 PUSH5 0x736F6C6343 STOP ADDMOD EXP STOP CALLER ",
  "sha1": "a19bbad6ce95400e677d15110aebc8d8f6367b67",
  "source": "// SPDX-License-Identifier: MIT\npragma solidity ^0.8.2;\n\ncontract DPublish {\n    mapping(string => address) public submitted_manuscripts;\n\n    /**\n    * Submit manuscript\n     */\n    function submit_manuscript(string memory idmanuscript) public view{\n        submitted_manuscripts[idmanuscript]; \n    }\n\n\n}\n",
  "sourcePath": "contracts/DPublish.sol",
  "type": "contract"
}