{
  "contractName": "DPublish",
  "abi": [
    {
      "inputs": [],
      "stateMutability": "nonpayable",
      "type": "constructor"
    },
    {
      "inputs": [
        {
          "internalType": "uint256",
          "name": "pedido",
          "type": "uint256"
        },
        {
          "internalType": "uint256",
          "name": "disponivel",
          "type": "uint256"
        }
      ],
      "name": "SemFundos",
      "type": "error"
    },
    {
      "anonymous": false,
      "inputs": [
        {
          "indexed": false,
          "internalType": "address",
          "name": "origem",
          "type": "address"
        },
        {
          "indexed": false,
          "internalType": "uint256",
          "name": "quantidade",
          "type": "uint256"
        }
      ],
      "name": "receberPagamentos",
      "type": "event"
    },
    {
      "inputs": [
        {
          "internalType": "address",
          "name": "",
          "type": "address"
        }
      ],
      "name": "balancos",
      "outputs": [
        {
          "internalType": "uint256",
          "name": "",
          "type": "uint256"
        }
      ],
      "stateMutability": "view",
      "type": "function"
    },
    {
      "inputs": [
        {
          "internalType": "string",
          "name": "",
          "type": "string"
        }
      ],
      "name": "recebido",
      "outputs": [
        {
          "internalType": "uint256",
          "name": "",
          "type": "uint256"
        }
      ],
      "stateMutability": "view",
      "type": "function"
    },
    {
      "inputs": [
        {
          "internalType": "address",
          "name": "",
          "type": "address"
        }
      ],
      "name": "revisado",
      "outputs": [
        {
          "internalType": "bool",
          "name": "",
          "type": "bool"
        }
      ],
      "stateMutability": "view",
      "type": "function"
    },
    {
      "inputs": [],
      "name": "revisar_pagamento",
      "outputs": [
        {
          "internalType": "uint16",
          "name": "",
          "type": "uint16"
        }
      ],
      "stateMutability": "view",
      "type": "function"
    },
    {
      "inputs": [
        {
          "internalType": "address",
          "name": "",
          "type": "address"
        }
      ],
      "name": "revisoes",
      "outputs": [
        {
          "internalType": "string",
          "name": "",
          "type": "string"
        }
      ],
      "stateMutability": "view",
      "type": "function"
    },
    {
      "inputs": [
        {
          "internalType": "string",
          "name": "",
          "type": "string"
        }
      ],
      "name": "submitted_manuscripts",
      "outputs": [
        {
          "internalType": "address",
          "name": "",
          "type": "address"
        }
      ],
      "stateMutability": "view",
      "type": "function"
    },
    {
      "inputs": [],
      "name": "taxa_post",
      "outputs": [
        {
          "internalType": "uint256",
          "name": "",
          "type": "uint256"
        }
      ],
      "stateMutability": "view",
      "type": "function"
    },
    {
      "inputs": [],
      "name": "tempo_rev",
      "outputs": [
        {
          "internalType": "uint16",
          "name": "",
          "type": "uint16"
        }
      ],
      "stateMutability": "view",
      "type": "function"
    },
    {
      "inputs": [
        {
          "internalType": "string",
          "name": "idmanuscript",
          "type": "string"
        }
      ],
      "name": "submit_manuscripts",
      "outputs": [],
      "stateMutability": "payable",
      "type": "function"
    },
    {
      "inputs": [
        {
          "internalType": "uint256",
          "name": "taxa_",
          "type": "uint256"
        }
      ],
      "name": "taxa",
      "outputs": [],
      "stateMutability": "payable",
      "type": "function"
    },
    {
      "inputs": [
        {
          "internalType": "address",
          "name": "usuario",
          "type": "address"
        },
        {
          "internalType": "uint256",
          "name": "valor",
          "type": "uint256"
        }
      ],
      "name": "def_balanco",
      "outputs": [],
      "stateMutability": "nonpayable",
      "type": "function"
    },
    {
      "inputs": [
        {
          "internalType": "address",
          "name": "usuario",
          "type": "address"
        }
      ],
      "name": "para_revisar",
      "outputs": [],
      "stateMutability": "nonpayable",
      "type": "function"
    },
    {
      "inputs": [
        {
          "internalType": "string",
          "name": "valor_pago",
          "type": "string"
        }
      ],
      "name": "enviar_revisao",
      "outputs": [],
      "stateMutability": "nonpayable",
      "type": "function"
    },
    {
      "inputs": [
        {
          "internalType": "address",
          "name": "revisor",
          "type": "address"
        }
      ],
      "name": "revisar",
      "outputs": [],
      "stateMutability": "view",
      "type": "function"
    }
  ],
  "bytecode": "0x60806040526000601260006101000a81548161ffff021916908361ffff16021790555034801561002e57600080fd5b5033600560006101000a81548173ffffffffffffffffffffffffffffffffffffffff021916908373ffffffffffffffffffffffffffffffffffffffff1602179055506114018061007f6000396000f3fe6080604052600436106100dd5760003560e01c8063abe8c24a1161007f578063bc44252211610059578063bc442522146102b6578063ce45e846146102e1578063d31f4a591461030a578063f46f4fe514610333576100dd565b8063abe8c24a14610213578063b666328c14610250578063b9ccce3014610279576100dd565b80632612e46a116100bb5780632612e46a146101435780636502563b146101805780636eb40f70146101ab578063ab469b5d146101d6576100dd565b806310f8d177146100e257806317e7b6311461010b5780631e7e8dec14610127575b600080fd5b3480156100ee57600080fd5b5061010960048036038101906101049190610e13565b610370565b005b61012560048036038101906101209190610e92565b6104cd565b005b610141600480360381019061013c9190610e13565b610531565b005b34801561014f57600080fd5b5061016a60048036038101906101659190610f1d565b61075e565b6040516101779190610fd2565b60405180910390f35b34801561018c57600080fd5b506101956107fe565b6040516101a29190611011565b60405180910390f35b3480156101b757600080fd5b506101c0610812565b6040516101cd919061103b565b60405180910390f35b3480156101e257600080fd5b506101fd60048036038101906101f89190610e13565b610818565b60405161020a919061103b565b60405180910390f35b34801561021f57600080fd5b5061023a60048036038101906102359190610f1d565b610846565b6040516102479190611071565b60405180910390f35b34801561025c57600080fd5b5061027760048036038101906102729190610f1d565b610866565b005b34801561028557600080fd5b506102a0600480360381019061029b9190610f1d565b610a4f565b6040516102ad919061103b565b60405180910390f35b3480156102c257600080fd5b506102cb610a67565b6040516102d89190611011565b60405180910390f35b3480156102ed57600080fd5b506103086004803603810190610303919061108c565b610a7b565b005b34801561031657600080fd5b50610331600480360381019061032c9190610f1d565b610b1d565b005b34801561033f57600080fd5b5061035a60048036038101906103559190610e13565b610b60565b60405161036791906110db565b60405180910390f35b60011515600460003373ffffffffffffffffffffffffffffffffffffffff1673ffffffffffffffffffffffffffffffffffffffff16815260200190815260200160002060009054906101000a900460ff16151514610403576040517f08c379a00000000000000000000000000000000000000000000000000000000081526004016103fa90611142565b60405180910390fd5b80600360003373ffffffffffffffffffffffffffffffffffffffff1673ffffffffffffffffffffffffffffffffffffffff1681526020019081526020016000209080519060200190610456929190610c16565b50600760029054906101000a900461ffff1661ffff16600160003373ffffffffffffffffffffffffffffffffffffffff1673ffffffffffffffffffffffffffffffffffffffff16815260200190815260200160002060008282546104ba9190611191565b925050819055506104ca33610ba9565b50565b600560009054906101000a900473ffffffffffffffffffffffffffffffffffffffff1673ffffffffffffffffffffffffffffffffffffffff163373ffffffffffffffffffffffffffffffffffffffff161461052757600080fd5b8060068190555050565b600560009054906101000a900473ffffffffffffffffffffffffffffffffffffffff166000826040516105649190611201565b908152602001604051809103902060006101000a81548173ffffffffffffffffffffffffffffffffffffffff021916908373ffffffffffffffffffffffffffffffffffffffff160217905550600060016000600560009054906101000a900473ffffffffffffffffffffffffffffffffffffffff1673ffffffffffffffffffffffffffffffffffffffff1673ffffffffffffffffffffffffffffffffffffffff16815260200190815260200160002054905060065481101561066157600654816040517f2e792335000000000000000000000000000000000000000000000000000000008152600401610658929190611218565b60405180910390fd5b60065460016000600560009054906101000a900473ffffffffffffffffffffffffffffffffffffffff1673ffffffffffffffffffffffffffffffffffffffff1673ffffffffffffffffffffffffffffffffffffffff168152602001908152602001600020546106d09190611191565b60016000600560009054906101000a900473ffffffffffffffffffffffffffffffffffffffff1673ffffffffffffffffffffffffffffffffffffffff1673ffffffffffffffffffffffffffffffffffffffff168152602001908152602001600020819055506006546002836040516107489190611201565b9081526020016040518091039020819055505050565b6003602052806000526040600020600091509050805461077d90611270565b80601f01602080910402602001604051908101604052809291908181526020018280546107a990611270565b80156107f65780601f106107cb576101008083540402835291602001916107f6565b820191906000526020600020905b8154815290600101906020018083116107d957829003601f168201915b505050505081565b600760029054906101000a900461ffff1681565b60065481565b6002818051602081018201805184825260208301602085012081835280955050505050506000915090505481565b60046020528060005260406000206000915054906101000a900460ff1681565b600a601260009054906101000a900461ffff1661ffff1611156108be576040517f08c379a00000000000000000000000000000000000000000000000000000000081526004016108b5906112ee565b60405180910390fd5b60011515600460003373ffffffffffffffffffffffffffffffffffffffff1673ffffffffffffffffffffffffffffffffffffffff16815260200190815260200160002060009054906101000a900460ff1615151415610952576040517f08c379a000000000000000000000000000000000000000000000000000000000815260040161094990611142565b60405180910390fd5b806008601260009054906101000a900461ffff1661ffff16600a811061097b5761097a61130e565b5b0160006101000a81548173ffffffffffffffffffffffffffffffffffffffff021916908373ffffffffffffffffffffffffffffffffffffffff1602179055506001601260008282829054906101000a900461ffff166109da919061133d565b92506101000a81548161ffff021916908361ffff1602179055506001600460008373ffffffffffffffffffffffffffffffffffffffff1673ffffffffffffffffffffffffffffffffffffffff16815260200190815260200160002060006101000a81548160ff02191690831515021790555050565b60016020528060005260406000206000915090505481565b600760009054906101000a900461ffff1681565b600560009054906101000a900473ffffffffffffffffffffffffffffffffffffffff1673ffffffffffffffffffffffffffffffffffffffff163373ffffffffffffffffffffffffffffffffffffffff1614610ad557600080fd5b80600160008473ffffffffffffffffffffffffffffffffffffffff1673ffffffffffffffffffffffffffffffffffffffff168152602001908152602001600020819055505050565b600360008273ffffffffffffffffffffffffffffffffffffffff1673ffffffffffffffffffffffffffffffffffffffff1681526020019081526020016000205050565b6000818051602081018201805184825260208301602085012081835280955050505050506000915054906101000a900473ffffffffffffffffffffffffffffffffffffffff1681565b600760029054906101000a900461ffff1661ffff16600160008373ffffffffffffffffffffffffffffffffffffffff1673ffffffffffffffffffffffffffffffffffffffff1681526020019081526020016000206000828254610c0c9190611375565b9250508190555050565b828054610c2290611270565b90600052602060002090601f016020900481019282610c445760008555610c8b565b82601f10610c5d57805160ff1916838001178555610c8b565b82800160010185558215610c8b579182015b82811115610c8a578251825591602001919060010190610c6f565b5b509050610c989190610c9c565b5090565b5b80821115610cb5576000816000905550600101610c9d565b5090565b6000604051905090565b600080fd5b600080fd5b600080fd5b600080fd5b6000601f19601f8301169050919050565b7f4e487b7100000000000000000000000000000000000000000000000000000000600052604160045260246000fd5b610d2082610cd7565b810181811067ffffffffffffffff82111715610d3f57610d3e610ce8565b5b80604052505050565b6000610d52610cb9565b9050610d5e8282610d17565b919050565b600067ffffffffffffffff821115610d7e57610d7d610ce8565b5b610d8782610cd7565b9050602081019050919050565b82818337600083830152505050565b6000610db6610db184610d63565b610d48565b905082815260208101848484011115610dd257610dd1610cd2565b5b610ddd848285610d94565b509392505050565b600082601f830112610dfa57610df9610ccd565b5b8135610e0a848260208601610da3565b91505092915050565b600060208284031215610e2957610e28610cc3565b5b600082013567ffffffffffffffff811115610e4757610e46610cc8565b5b610e5384828501610de5565b91505092915050565b6000819050919050565b610e6f81610e5c565b8114610e7a57600080fd5b50565b600081359050610e8c81610e66565b92915050565b600060208284031215610ea857610ea7610cc3565b5b6000610eb684828501610e7d565b91505092915050565b600073ffffffffffffffffffffffffffffffffffffffff82169050919050565b6000610eea82610ebf565b9050919050565b610efa81610edf565b8114610f0557600080fd5b50565b600081359050610f1781610ef1565b92915050565b600060208284031215610f3357610f32610cc3565b5b6000610f4184828501610f08565b91505092915050565b600081519050919050565b600082825260208201905092915050565b60005b83811015610f84578082015181840152602081019050610f69565b83811115610f93576000848401525b50505050565b6000610fa482610f4a565b610fae8185610f55565b9350610fbe818560208601610f66565b610fc781610cd7565b840191505092915050565b60006020820190508181036000830152610fec8184610f99565b905092915050565b600061ffff82169050919050565b61100b81610ff4565b82525050565b60006020820190506110266000830184611002565b92915050565b61103581610e5c565b82525050565b6000602082019050611050600083018461102c565b92915050565b60008115159050919050565b61106b81611056565b82525050565b60006020820190506110866000830184611062565b92915050565b600080604083850312156110a3576110a2610cc3565b5b60006110b185828601610f08565b92505060206110c285828601610e7d565b9150509250929050565b6110d581610edf565b82525050565b60006020820190506110f060008301846110cc565b92915050565b7f52657669736f72206e616f206361646173747261646f00000000000000000000600082015250565b600061112c601683610f55565b9150611137826110f6565b602082019050919050565b6000602082019050818103600083015261115b8161111f565b9050919050565b7f4e487b7100000000000000000000000000000000000000000000000000000000600052601160045260246000fd5b600061119c82610e5c565b91506111a783610e5c565b9250828210156111ba576111b9611162565b5b828203905092915050565b600081905092915050565b60006111db82610f4a565b6111e581856111c5565b93506111f5818560208601610f66565b80840191505092915050565b600061120d82846111d0565b915081905092915050565b600060408201905061122d600083018561102c565b61123a602083018461102c565b9392505050565b7f4e487b7100000000000000000000000000000000000000000000000000000000600052602260045260246000fd5b6000600282049050600182168061128857607f821691505b6020821081141561129c5761129b611241565b5b50919050565b7f416c63616e636f75206f206c696d697465000000000000000000000000000000600082015250565b60006112d8601183610f55565b91506112e3826112a2565b602082019050919050565b60006020820190508181036000830152611307816112cb565b9050919050565b7f4e487b7100000000000000000000000000000000000000000000000000000000600052603260045260246000fd5b600061134882610ff4565b915061135383610ff4565b92508261ffff0382111561136a57611369611162565b5b828201905092915050565b600061138082610e5c565b915061138b83610e5c565b9250827fffffffffffffffffffffffffffffffffffffffffffffffffffffffffffffffff038211156113c0576113bf611162565b5b82820190509291505056fea2646970667358221220f7e3656bec0c9d7972a5630d2225e0ffe57ba1a54f95e0fd3d1d6e3e76e9543b64736f6c634300080a0033",
  "immutableReferences": {},
  "source": "// SPDX-License-Identifier: MIT\npragma solidity ^0.8.2;\n\nimport \"@openzeppelin/contracts/utils/Context.sol\";\nimport \"@openzeppelin/contracts/utils/Address.sol\";\n\ncontract DPublish {\n    mapping(string => address) public submitted_manuscripts;\n    mapping(address => uint256) public balancos; \n    mapping(string => uint256) public recebido; \n    mapping(address => string) public revisoes;\n    mapping(address => bool) public revisado;\n\n    address private instance;\n    uint256 public taxa_post;\n    uint16 public tempo_rev;\n    uint16 public revisar_pagamento;\n\n    address[10] revisores;\n    uint16 contador = 0;\n\n    event receberPagamentos(address origem, uint256 quantidade);\n    error SemFundos(uint256 pedido, uint256 disponivel);\n\n    constructor(){\n        instance = msg.sender;\n    } \n\n    function submit_manuscripts(string memory idmanuscript) public payable{\n        submitted_manuscripts[idmanuscript] = instance;\n        uint balanco = balancos[instance];\n        if (balanco < taxa_post)\n            revert SemFundos(taxa_post, balanco);\n        balancos[instance] = balancos[instance] - taxa_post;\n        recebido[idmanuscript] = taxa_post;\n    }\n    function taxa(uint256 taxa_) public payable{\n        require(\n            msg.sender == instance);\n        taxa_post = taxa_;\n    }\n    function def_balanco(address usuario, uint256 valor) public{\n        require(\n            msg.sender == instance);\n        balancos[usuario] = valor;\n    }\n    function para_revisar(address usuario) public{\n        require(\n            contador <= 10, \"Alcancou o limite\"); \n        require(\n            !(revisado[msg.sender] == true), \"Revisor nao cadastrado\");\n        revisores[contador] = usuario; \n        contador += 1 ;\n        revisado[usuario] = true;\n    }\n    function enviar_revisao(string memory valor_pago) public{\n        require(revisado[msg.sender] == true, \"Revisor nao cadastrado\");\n        revisoes[msg.sender] = valor_pago;\n        balancos[msg.sender] -= revisar_pagamento;\n        pagar_revisao(msg.sender);\n\n    }\n    function pagar_revisao(address revisor) private{\n        balancos[revisor] += revisar_pagamento;\n    }\n    function revisar(address revisor) public view{\n        revisoes[revisor];\n    }\n\n}",
  "sourcePath": "/media/ary/HD/ary/Documents/4P/CRYPTO/A2/Dpublish/contracts/DPublish.sol",
  "compiler": {
    "name": "solc",
    "version": "0.8.10+commit.fc410830.Emscripten.clang"
  },
  "schemaVersion": "3.4.3",
  "updatedAt": "2021-12-15T22:15:16.618Z",
  "devdoc": {
    "kind": "dev",
    "methods": {},
    "version": 1
  },
  "userdoc": {
    "kind": "user",
    "methods": {},
    "version": 1
  }
}