{
  "contractName": "DPublish",
  "abi": [
    {
      "inputs": [],
      "stateMutability": "nonpayable",
      "type": "constructor"
    },
    {
      "inputs": [
        {
          "internalType": "uint256",
          "name": "requested",
          "type": "uint256"
        },
        {
          "internalType": "uint256",
          "name": "available",
          "type": "uint256"
        }
      ],
      "name": "MissingFunds",
      "type": "error"
    },
    {
      "anonymous": false,
      "inputs": [
        {
          "indexed": false,
          "internalType": "address",
          "name": "from",
          "type": "address"
        },
        {
          "indexed": false,
          "internalType": "uint256",
          "name": "amount",
          "type": "uint256"
        }
      ],
      "name": "PaymentReceived",
      "type": "event"
    },
    {
      "inputs": [
        {
          "internalType": "address",
          "name": "",
          "type": "address"
        }
      ],
      "name": "is_reviewer",
      "outputs": [
        {
          "internalType": "bool",
          "name": "",
          "type": "bool"
        }
      ],
      "stateMutability": "view",
      "type": "function"
    },
    {
      "inputs": [
        {
          "internalType": "string",
          "name": "",
          "type": "string"
        }
      ],
      "name": "payments",
      "outputs": [
        {
          "internalType": "uint256",
          "name": "",
          "type": "uint256"
        }
      ],
      "stateMutability": "view",
      "type": "function"
    },
    {
      "inputs": [],
      "name": "price",
      "outputs": [
        {
          "internalType": "uint256",
          "name": "",
          "type": "uint256"
        }
      ],
      "stateMutability": "view",
      "type": "function"
    },
    {
      "inputs": [],
      "name": "review_payment",
      "outputs": [
        {
          "internalType": "uint16",
          "name": "",
          "type": "uint16"
        }
      ],
      "stateMutability": "view",
      "type": "function"
    },
    {
      "inputs": [
        {
          "internalType": "address",
          "name": "",
          "type": "address"
        }
      ],
      "name": "reviewed_links",
      "outputs": [
        {
          "internalType": "string",
          "name": "",
          "type": "string"
        }
      ],
      "stateMutability": "view",
      "type": "function"
    },
    {
      "inputs": [
        {
          "internalType": "string",
          "name": "",
          "type": "string"
        }
      ],
      "name": "submitted_manuscripts",
      "outputs": [
        {
          "internalType": "address",
          "name": "",
          "type": "address"
        }
      ],
      "stateMutability": "view",
      "type": "function"
    },
    {
      "inputs": [
        {
          "internalType": "address",
          "name": "",
          "type": "address"
        }
      ],
      "name": "wallet_funds",
      "outputs": [
        {
          "internalType": "uint256",
          "name": "",
          "type": "uint256"
        }
      ],
      "stateMutability": "view",
      "type": "function"
    },
    {
      "inputs": [
        {
          "internalType": "string",
          "name": "idmanuscript",
          "type": "string"
        }
      ],
      "name": "submit_manuscript",
      "outputs": [],
      "stateMutability": "payable",
      "type": "function"
    },
    {
      "inputs": [
        {
          "internalType": "address",
          "name": "user",
          "type": "address"
        },
        {
          "internalType": "uint256",
          "name": "value",
          "type": "uint256"
        }
      ],
      "name": "set_balance",
      "outputs": [],
      "stateMutability": "nonpayable",
      "type": "function"
    },
    {
      "inputs": [
        {
          "internalType": "uint256",
          "name": "n_fee",
          "type": "uint256"
        }
      ],
      "name": "set_price",
      "outputs": [],
      "stateMutability": "payable",
      "type": "function"
    },
    {
      "inputs": [
        {
          "internalType": "address",
          "name": "user",
          "type": "address"
        }
      ],
      "name": "subscribe_to_review",
      "outputs": [],
      "stateMutability": "nonpayable",
      "type": "function"
    },
    {
      "inputs": [
        {
          "internalType": "string",
          "name": "linkIPFS",
          "type": "string"
        }
      ],
      "name": "sent_review",
      "outputs": [],
      "stateMutability": "nonpayable",
      "type": "function"
    }
  ],
  "bytecode": "0x60806040526000601260006101000a81548161ffff021916908361ffff16021790555034801561002e57600080fd5b5033600560006101000a81548173ffffffffffffffffffffffffffffffffffffffff021916908373ffffffffffffffffffffffffffffffffffffffff1602179055506112478061007f6000396000f3fe6080604052600436106100a75760003560e01c8063a035b1fe11610064578063a035b1fe146101bd578063cd4e2201146101e8578063cdeca25214610225578063f46f4fe514610241578063f7147dc91461027e578063f9468713146102a9576100a7565b80630776e4fa146100ac5780631956c483146100d557806328bf794d146100fe5780636b8368551461011a5780636f7fd04b146101435780637e44361c14610180575b600080fd5b3480156100b857600080fd5b506100d360048036038101906100ce9190610bca565b6102e6565b005b3480156100e157600080fd5b506100fc60048036038101906100f79190610ba1565b610388565b005b61011860048036038101906101139190610c47565b610597565b005b34801561012657600080fd5b50610141600480360381019061013c9190610c06565b6105fb565b005b34801561014f57600080fd5b5061016a60048036038101906101659190610ba1565b6106ee565b6040516101779190610dd2565b60405180910390f35b34801561018c57600080fd5b506101a760048036038101906101a29190610ba1565b61078e565b6040516101b49190610db7565b60405180910390f35b3480156101c957600080fd5b506101d26107ae565b6040516101df9190610e4f565b60405180910390f35b3480156101f457600080fd5b5061020f600480360381019061020a9190610ba1565b6107b4565b60405161021c9190610e4f565b60405180910390f35b61023f600480360381019061023a9190610c06565b6107cc565b005b34801561024d57600080fd5b5061026860048036038101906102639190610c06565b610974565b6040516102759190610d73565b60405180910390f35b34801561028a57600080fd5b506102936109bd565b6040516102a09190610e34565b60405180910390f35b3480156102b557600080fd5b506102d060048036038101906102cb9190610c06565b6109d1565b6040516102dd9190610e4f565b60405180910390f35b600560009054906101000a900473ffffffffffffffffffffffffffffffffffffffff1673ffffffffffffffffffffffffffffffffffffffff163373ffffffffffffffffffffffffffffffffffffffff161461034057600080fd5b80600260008473ffffffffffffffffffffffffffffffffffffffff1673ffffffffffffffffffffffffffffffffffffffff168152602001908152602001600020819055505050565b600a601260009054906101000a900461ffff1661ffff1611156103e0576040517f08c379a00000000000000000000000000000000000000000000000000000000081526004016103d790610df4565b60405180910390fd5b60011515600460003373ffffffffffffffffffffffffffffffffffffffff1673ffffffffffffffffffffffffffffffffffffffff16815260200190815260200160002060009054906101000a900460ff1615151415610474576040517f08c379a000000000000000000000000000000000000000000000000000000000815260040161046b90610e14565b60405180910390fd5b806008601260009054906101000a900461ffff1661ffff16600a81106104c3577f4e487b7100000000000000000000000000000000000000000000000000000000600052603260045260246000fd5b0160006101000a81548173ffffffffffffffffffffffffffffffffffffffff021916908373ffffffffffffffffffffffffffffffffffffffff1602179055506001601260008282829054906101000a900461ffff166105229190610f10565b92506101000a81548161ffff021916908361ffff1602179055506001600460008373ffffffffffffffffffffffffffffffffffffffff1673ffffffffffffffffffffffffffffffffffffffff16815260200190815260200160002060006101000a81548160ff02191690831515021790555050565b600560009054906101000a900473ffffffffffffffffffffffffffffffffffffffff1673ffffffffffffffffffffffffffffffffffffffff163373ffffffffffffffffffffffffffffffffffffffff16146105f157600080fd5b8060068190555050565b60011515600460003373ffffffffffffffffffffffffffffffffffffffff1673ffffffffffffffffffffffffffffffffffffffff16815260200190815260200160002060009054906101000a900460ff1615151461068e576040517f08c379a000000000000000000000000000000000000000000000000000000000815260040161068590610e14565b60405180910390fd5b80600360003373ffffffffffffffffffffffffffffffffffffffff1673ffffffffffffffffffffffffffffffffffffffff16815260200190815260200160002090805190602001906106e1929190610a6c565b506106eb336109ff565b50565b6003602052806000526040600020600091509050805461070d9061106a565b80601f01602080910402602001604051908101604052809291908181526020018280546107399061106a565b80156107865780601f1061075b57610100808354040283529160200191610786565b820191906000526020600020905b81548152906001019060200180831161076957829003601f168201915b505050505081565b60046020528060005260406000206000915054906101000a900460ff1681565b60065481565b60026020528060005260406000206000915090505481565b336000826040516107dd9190610d5c565b908152602001604051809103902060006101000a81548173ffffffffffffffffffffffffffffffffffffffff021916908373ffffffffffffffffffffffffffffffffffffffff1602179055506000600260003373ffffffffffffffffffffffffffffffffffffffff1673ffffffffffffffffffffffffffffffffffffffff1681526020019081526020016000205490508060065411156108b857600654816040517f667b14a10000000000000000000000000000000000000000000000000000000081526004016108af929190610e6a565b60405180910390fd5b600654600260003373ffffffffffffffffffffffffffffffffffffffff1673ffffffffffffffffffffffffffffffffffffffff16815260200190815260200160002060008282546109099190610f9e565b925050819055506006546001836040516109239190610d5c565b9081526020016040518091039020819055507f6ef95f06320e7a25a04a175ca677b7052bdd97131872c2192525a629f51be77033600654604051610968929190610d8e565b60405180910390a15050565b6000818051602081018201805184825260208301602085012081835280955050505050506000915054906101000a900473ffffffffffffffffffffffffffffffffffffffff1681565b600760009054906101000a900461ffff1681565b6001818051602081018201805184825260208301602085012081835280955050505050506000915090505481565b600760009054906101000a900461ffff1661ffff16600260008373ffffffffffffffffffffffffffffffffffffffff1673ffffffffffffffffffffffffffffffffffffffff1681526020019081526020016000206000828254610a629190610f48565b9250508190555050565b828054610a789061106a565b90600052602060002090601f016020900481019282610a9a5760008555610ae1565b82601f10610ab357805160ff1916838001178555610ae1565b82800160010185558215610ae1579182015b82811115610ae0578251825591602001919060010190610ac5565b5b509050610aee9190610af2565b5090565b5b80821115610b0b576000816000905550600101610af3565b5090565b6000610b22610b1d84610eb8565b610e93565b905082815260208101848484011115610b3a57600080fd5b610b45848285611028565b509392505050565b600081359050610b5c816111e3565b92915050565b600082601f830112610b7357600080fd5b8135610b83848260208601610b0f565b91505092915050565b600081359050610b9b816111fa565b92915050565b600060208284031215610bb357600080fd5b6000610bc184828501610b4d565b91505092915050565b60008060408385031215610bdd57600080fd5b6000610beb85828601610b4d565b9250506020610bfc85828601610b8c565b9150509250929050565b600060208284031215610c1857600080fd5b600082013567ffffffffffffffff811115610c3257600080fd5b610c3e84828501610b62565b91505092915050565b600060208284031215610c5957600080fd5b6000610c6784828501610b8c565b91505092915050565b610c7981610fd2565b82525050565b610c8881610fe4565b82525050565b6000610c9982610ee9565b610ca38185610ef4565b9350610cb3818560208601611037565b610cbc8161115a565b840191505092915050565b6000610cd282610ee9565b610cdc8185610f05565b9350610cec818560208601611037565b80840191505092915050565b6000610d05601583610ef4565b9150610d108261116b565b602082019050919050565b6000610d28602183610ef4565b9150610d3382611194565b604082019050919050565b610d4781610ff0565b82525050565b610d568161101e565b82525050565b6000610d688284610cc7565b915081905092915050565b6000602082019050610d886000830184610c70565b92915050565b6000604082019050610da36000830185610c70565b610db06020830184610d4d565b9392505050565b6000602082019050610dcc6000830184610c7f565b92915050565b60006020820190508181036000830152610dec8184610c8e565b905092915050565b60006020820190508181036000830152610e0d81610cf8565b9050919050565b60006020820190508181036000830152610e2d81610d1b565b9050919050565b6000602082019050610e496000830184610d3e565b92915050565b6000602082019050610e646000830184610d4d565b92915050565b6000604082019050610e7f6000830185610d4d565b610e8c6020830184610d4d565b9392505050565b6000610e9d610eae565b9050610ea9828261109c565b919050565b6000604051905090565b600067ffffffffffffffff821115610ed357610ed261112b565b5b610edc8261115a565b9050602081019050919050565b600081519050919050565b600082825260208201905092915050565b600081905092915050565b6000610f1b82610ff0565b9150610f2683610ff0565b92508261ffff03821115610f3d57610f3c6110cd565b5b828201905092915050565b6000610f538261101e565b9150610f5e8361101e565b9250827fffffffffffffffffffffffffffffffffffffffffffffffffffffffffffffffff03821115610f9357610f926110cd565b5b828201905092915050565b6000610fa98261101e565b9150610fb48361101e565b925082821015610fc757610fc66110cd565b5b828203905092915050565b6000610fdd82610ffe565b9050919050565b60008115159050919050565b600061ffff82169050919050565b600073ffffffffffffffffffffffffffffffffffffffff82169050919050565b6000819050919050565b82818337600083830152505050565b60005b8381101561105557808201518184015260208101905061103a565b83811115611064576000848401525b50505050565b6000600282049050600182168061108257607f821691505b60208210811415611096576110956110fc565b5b50919050565b6110a58261115a565b810181811067ffffffffffffffff821117156110c4576110c361112b565b5b80604052505050565b7f4e487b7100000000000000000000000000000000000000000000000000000000600052601160045260246000fd5b7f4e487b7100000000000000000000000000000000000000000000000000000000600052602260045260246000fd5b7f4e487b7100000000000000000000000000000000000000000000000000000000600052604160045260246000fd5b6000601f19601f8301169050919050565b7f4e616f20706f6465206d61697320726576697361720000000000000000000000600082015250565b7f5072656369736120736520696e7363726576657220636f6d6f2072657669736f60008201527f7200000000000000000000000000000000000000000000000000000000000000602082015250565b6111ec81610fd2565b81146111f757600080fd5b50565b6112038161101e565b811461120e57600080fd5b5056fea26469706673582212204ee96d25344e4a70d3ce4c7c464e71bab9773ffc4528a407c7a41f39df45317364736f6c63430008040033",
  "immutableReferences": {},
  "source": "// SPDX-License-Identifier: MIT\npragma solidity ^0.8.4;\n\n\nimport \"@openzeppelin/contracts/utils/Context.sol\";\nimport \"@openzeppelin/contracts/utils/Address.sol\";\n\ncontract DPublish {\n    mapping(string => address) public submitted_manuscripts;\n    mapping(string => uint256) public payments; //Pagamentos feitos aos revisores\n    mapping(address => uint256) public wallet_funds; //Total de tokens possudos pelos usurios\n    mapping (address => string) public reviewed_links;\n    mapping(address => bool) public is_reviewer;\n    \n    address private Editor; // Editor address\n    uint256 public price; // Preo para publicao\n    uint16 public review_payment; // Pagamento para o revisor\n    \n    address[10] reviewers;\n    uint16 count_review = 0;\n    \n    //events\n    event PaymentReceived(address from, uint256 amount);\n\n    //errors\n    error MissingFunds(uint256 requested, uint256 available);\n\n    constructor(){\n        Editor = msg.sender;\n    }\n\n\n    function submit_manuscript(string memory idmanuscript) public payable{\n        submitted_manuscripts[idmanuscript] = msg.sender; // Usurio que publicou\n\n        uint funds = wallet_funds[msg.sender];\n        if (price > funds)// Verificando se o usurio possui saldo suficiente\n            revert MissingFunds(price, funds);\n        \n        wallet_funds[msg.sender] -= price;// Pagamento feito\n        payments[idmanuscript] = price;// Armazena pagamento\n        \n        emit PaymentReceived(msg.sender, price);\n    }\n\n    function set_balance(address user, uint256 value) public{\n        require(msg.sender == Editor);\n        wallet_funds[user] = value; //Atribuindo valor a uma determinada wallet\n    }\n\n    function set_price(uint256 n_fee) public payable{\n        require(msg.sender == Editor);// Preo determinado pelo Editor\n        price = n_fee;\n    }\n\n\n    function subscribe_to_review(address user) public{\n        require(count_review <= 10, \"Nao pode mais revisar\");\n        require(!(is_reviewer[msg.sender]==true), \"Precisa se inscrever como revisor\");\n        reviewers[count_review] = user;\n        count_review += 1 ;\n        is_reviewer[user] = true;\n    }\n\n\n    function sent_review(string memory linkIPFS) public{\n        require(is_reviewer[msg.sender]==true, \"Precisa se inscrever como revisor\");\n        reviewed_links[msg.sender] = linkIPFS;\n        pay_review(msg.sender);\n\n    }\n\n    function pay_review(address reviewer) private{\n        wallet_funds[reviewer] += review_payment;\n    }\n\n\n}\n",
  "sourcePath": "/home/fccoelho/Mega/Cursos/Blockchain_EMAp/Dpublish/contracts/git .sol",
  "compiler": {
    "name": "solc",
    "version": "0.8.4+commit.c7e474f2.Emscripten.clang"
  },
  "schemaVersion": "3.4.3",
  "updatedAt": "2021-12-16T18:43:40.100Z",
  "devdoc": {
    "kind": "dev",
    "methods": {},
    "version": 1
  },
  "userdoc": {
    "kind": "user",
    "methods": {},
    "version": 1
  }
}