{
  "contractName": "DPublish",
  "abi": [
    {
      "inputs": [],
      "stateMutability": "nonpayable",
      "type": "constructor"
    },
    {
      "inputs": [
        {
          "internalType": "uint256",
          "name": "requested",
          "type": "uint256"
        },
        {
          "internalType": "uint256",
          "name": "avaible",
          "type": "uint256"
        }
      ],
      "name": "NotEnoughFunds",
      "type": "error"
    },
    {
      "anonymous": false,
      "inputs": [
        {
          "indexed": false,
          "internalType": "address",
          "name": "autor",
          "type": "address"
        },
        {
          "indexed": false,
          "internalType": "address",
          "name": "reviwer_1",
          "type": "address"
        },
        {
          "indexed": false,
          "internalType": "address",
          "name": "reviwer_2",
          "type": "address"
        },
        {
          "indexed": false,
          "internalType": "string",
          "name": "idmanuscript",
          "type": "string"
        }
      ],
      "name": "ManuscriptPublished",
      "type": "event"
    },
    {
      "anonymous": false,
      "inputs": [
        {
          "indexed": false,
          "internalType": "address",
          "name": "reviwer",
          "type": "address"
        },
        {
          "indexed": false,
          "internalType": "string",
          "name": "idmanuscript",
          "type": "string"
        },
        {
          "indexed": false,
          "internalType": "uint256",
          "name": "review_number",
          "type": "uint256"
        }
      ],
      "name": "ManuscriptRevised",
      "type": "event"
    },
    {
      "anonymous": false,
      "inputs": [
        {
          "indexed": false,
          "internalType": "address",
          "name": "from",
          "type": "address"
        },
        {
          "indexed": false,
          "internalType": "uint256",
          "name": "amount",
          "type": "uint256"
        }
      ],
      "name": "PaymentReceived",
      "type": "event"
    },
    {
      "inputs": [],
      "name": "WeiDPTK",
      "outputs": [
        {
          "internalType": "uint256",
          "name": "",
          "type": "uint256"
        }
      ],
      "stateMutability": "view",
      "type": "function"
    },
    {
      "inputs": [
        {
          "internalType": "string",
          "name": "",
          "type": "string"
        }
      ],
      "name": "bounties",
      "outputs": [
        {
          "internalType": "uint256",
          "name": "",
          "type": "uint256"
        }
      ],
      "stateMutability": "view",
      "type": "function"
    },
    {
      "inputs": [
        {
          "internalType": "string",
          "name": "",
          "type": "string"
        }
      ],
      "name": "manuscripts_links",
      "outputs": [
        {
          "internalType": "string",
          "name": "",
          "type": "string"
        }
      ],
      "stateMutability": "view",
      "type": "function"
    },
    {
      "inputs": [
        {
          "internalType": "string",
          "name": "",
          "type": "string"
        }
      ],
      "name": "published",
      "outputs": [
        {
          "internalType": "bool",
          "name": "",
          "type": "bool"
        }
      ],
      "stateMutability": "view",
      "type": "function"
    },
    {
      "inputs": [],
      "name": "publishing_fee",
      "outputs": [
        {
          "internalType": "uint256",
          "name": "",
          "type": "uint256"
        }
      ],
      "stateMutability": "view",
      "type": "function"
    },
    {
      "inputs": [
        {
          "internalType": "string",
          "name": "",
          "type": "string"
        }
      ],
      "name": "review1_manuscripts",
      "outputs": [
        {
          "internalType": "address",
          "name": "",
          "type": "address"
        }
      ],
      "stateMutability": "view",
      "type": "function"
    },
    {
      "inputs": [
        {
          "internalType": "string",
          "name": "",
          "type": "string"
        }
      ],
      "name": "review2_manuscripts",
      "outputs": [
        {
          "internalType": "address",
          "name": "",
          "type": "address"
        }
      ],
      "stateMutability": "view",
      "type": "function"
    },
    {
      "inputs": [],
      "name": "review_fee",
      "outputs": [
        {
          "internalType": "uint256",
          "name": "",
          "type": "uint256"
        }
      ],
      "stateMutability": "view",
      "type": "function"
    },
    {
      "inputs": [
        {
          "internalType": "string",
          "name": "",
          "type": "string"
        }
      ],
      "name": "review_qtd",
      "outputs": [
        {
          "internalType": "uint256",
          "name": "",
          "type": "uint256"
        }
      ],
      "stateMutability": "view",
      "type": "function"
    },
    {
      "inputs": [
        {
          "internalType": "address",
          "name": "",
          "type": "address"
        }
      ],
      "name": "reviewers",
      "outputs": [
        {
          "internalType": "bool",
          "name": "",
          "type": "bool"
        }
      ],
      "stateMutability": "view",
      "type": "function"
    },
    {
      "inputs": [
        {
          "internalType": "string",
          "name": "",
          "type": "string"
        }
      ],
      "name": "reviewing",
      "outputs": [
        {
          "internalType": "bool",
          "name": "",
          "type": "bool"
        }
      ],
      "stateMutability": "view",
      "type": "function"
    },
    {
      "inputs": [
        {
          "internalType": "string",
          "name": "",
          "type": "string"
        }
      ],
      "name": "submited_manuscripts",
      "outputs": [
        {
          "internalType": "address",
          "name": "",
          "type": "address"
        }
      ],
      "stateMutability": "view",
      "type": "function"
    },
    {
      "inputs": [
        {
          "internalType": "address",
          "name": "",
          "type": "address"
        }
      ],
      "name": "wallet_dptk",
      "outputs": [
        {
          "internalType": "uint256",
          "name": "",
          "type": "uint256"
        }
      ],
      "stateMutability": "view",
      "type": "function"
    },
    {
      "inputs": [
        {
          "internalType": "address",
          "name": "",
          "type": "address"
        },
        {
          "internalType": "uint256",
          "name": "",
          "type": "uint256"
        }
      ],
      "name": "wallet_ptk",
      "outputs": [
        {
          "internalType": "string",
          "name": "idmanuscript",
          "type": "string"
        },
        {
          "internalType": "address",
          "name": "autor",
          "type": "address"
        },
        {
          "internalType": "string",
          "name": "link",
          "type": "string"
        }
      ],
      "stateMutability": "view",
      "type": "function"
    },
    {
      "inputs": [
        {
          "internalType": "address",
          "name": "",
          "type": "address"
        },
        {
          "internalType": "uint256",
          "name": "",
          "type": "uint256"
        }
      ],
      "name": "wallet_rtk",
      "outputs": [
        {
          "internalType": "string",
          "name": "idmanuscript",
          "type": "string"
        },
        {
          "internalType": "address",
          "name": "autor",
          "type": "address"
        },
        {
          "internalType": "address",
          "name": "reviewer",
          "type": "address"
        },
        {
          "internalType": "uint256",
          "name": "review_number",
          "type": "uint256"
        },
        {
          "internalType": "string",
          "name": "link",
          "type": "string"
        }
      ],
      "stateMutability": "view",
      "type": "function"
    },
    {
      "inputs": [
        {
          "internalType": "string",
          "name": "idmanuscript",
          "type": "string"
        }
      ],
      "name": "generate_link",
      "outputs": [],
      "stateMutability": "nonpayable",
      "type": "function"
    },
    {
      "inputs": [
        {
          "internalType": "address",
          "name": "owner_wallet",
          "type": "address"
        }
      ],
      "name": "create_wallet",
      "outputs": [],
      "stateMutability": "nonpayable",
      "type": "function"
    },
    {
      "inputs": [],
      "name": "get_publishing_fee",
      "outputs": [
        {
          "internalType": "uint256",
          "name": "",
          "type": "uint256"
        }
      ],
      "stateMutability": "view",
      "type": "function"
    },
    {
      "inputs": [],
      "name": "get_review_fee",
      "outputs": [
        {
          "internalType": "uint256",
          "name": "",
          "type": "uint256"
        }
      ],
      "stateMutability": "view",
      "type": "function"
    },
    {
      "inputs": [
        {
          "internalType": "uint256",
          "name": "qtd_DPTK",
          "type": "uint256"
        }
      ],
      "name": "buy_DPTK",
      "outputs": [],
      "stateMutability": "payable",
      "type": "function"
    },
    {
      "inputs": [
        {
          "internalType": "string",
          "name": "idmanuscript",
          "type": "string"
        }
      ],
      "name": "submit_manuscript",
      "outputs": [],
      "stateMutability": "payable",
      "type": "function"
    },
    {
      "inputs": [],
      "name": "subscribe_reviewer",
      "outputs": [],
      "stateMutability": "nonpayable",
      "type": "function"
    },
    {
      "inputs": [
        {
          "internalType": "string",
          "name": "idmanuscript",
          "type": "string"
        },
        {
          "internalType": "bool",
          "name": "review_1",
          "type": "bool"
        }
      ],
      "name": "start_review",
      "outputs": [],
      "stateMutability": "nonpayable",
      "type": "function"
    },
    {
      "inputs": [
        {
          "internalType": "string",
          "name": "idmanuscript",
          "type": "string"
        },
        {
          "internalType": "bool",
          "name": "review_1",
          "type": "bool"
        }
      ],
      "name": "finish_review",
      "outputs": [],
      "stateMutability": "nonpayable",
      "type": "function"
    }
  ],
  "bytecode": "0x60806040526103e8600a556103e8600b5560fa600c5534801561002157600080fd5b5033600960006101000a81548173ffffffffffffffffffffffffffffffffffffffff021916908373ffffffffffffffffffffffffffffffffffffffff160217905550633b9aca00600d6000600960009054906101000a900473ffffffffffffffffffffffffffffffffffffffff1673ffffffffffffffffffffffffffffffffffffffff1673ffffffffffffffffffffffffffffffffffffffff16815260200190815260200160002081905550612ef4806100dc6000396000f3fe60806040526004361061014b5760003560e01c8063a64f4aeb116100b6578063cf8f90851161006f578063cf8f9085146104ee578063cfc253e514610517578063d312aab614610540578063dad5f95414610557578063eec8a17314610582578063f7cbb1b2146105bf5761014b565b8063a64f4aeb146103d9578063a7233bd314610416578063bfb11e5014610453578063c4ee991c1461047e578063cbb5f2d0146104a7578063cdeca252146104d25761014b565b80636edfe8e7116101085780636edfe8e714610279578063722a5713146102ba5780639a6f9d38146102f75780639a86285f14610334578063a1338fa31461035f578063a52abdd21461039c5761014b565b80633a46b4c4146101505780633cbef3731461018d5780634a50c23e146101ca57806356da9096146102095780635738555a14610232578063617c0e2e1461025d575b600080fd5b34801561015c57600080fd5b506101776004803603810190610172919061236d565b6105fc565b6040516101849190612633565b60405180910390f35b34801561019957600080fd5b506101b460048036038101906101af919061236d565b610645565b6040516101c19190612922565b60405180910390f35b3480156101d657600080fd5b506101f160048036038101906101ec9190612331565b610673565b604051610200939291906127dd565b60405180910390f35b34801561021557600080fd5b50610230600480360381019061022b919061236d565b6107ea565b005b34801561023e57600080fd5b5061024761085e565b6040516102549190612922565b60405180910390f35b61027760048036038101906102729190612402565b610864565b005b34801561028557600080fd5b506102a0600480360381019061029b9190612331565b610996565b6040516102b195949392919061277c565b60405180910390f35b3480156102c657600080fd5b506102e160048036038101906102dc919061236d565b610b39565b6040516102ee9190612922565b60405180910390f35b34801561030357600080fd5b5061031e6004803603810190610319919061236d565b610b67565b60405161032b919061275a565b60405180910390f35b34801561034057600080fd5b50610349610c1d565b6040516103569190612922565b60405180910390f35b34801561036b57600080fd5b506103866004803603810190610381919061236d565b610c27565b6040516103939190612633565b60405180910390f35b3480156103a857600080fd5b506103c360048036038101906103be919061236d565b610c70565b6040516103d0919061273f565b60405180910390f35b3480156103e557600080fd5b5061040060048036038101906103fb919061236d565b610ca6565b60405161040d9190612633565b60405180910390f35b34801561042257600080fd5b5061043d6004803603810190610438919061236d565b610cef565b60405161044a919061273f565b60405180910390f35b34801561045f57600080fd5b50610468610d25565b6040516104759190612922565b60405180910390f35b34801561048a57600080fd5b506104a560048036038101906104a091906123ae565b610d2f565b005b3480156104b357600080fd5b506104bc6111d0565b6040516104c99190612922565b60405180910390f35b6104ec60048036038101906104e7919061236d565b6111d6565b005b3480156104fa57600080fd5b50610515600480360381019061051091906123ae565b611419565b005b34801561052357600080fd5b5061053e60048036038101906105399190612308565b6118ac565b005b34801561054c57600080fd5b506105556119d7565b005b34801561056357600080fd5b5061056c611a48565b6040516105799190612922565b60405180910390f35b34801561058e57600080fd5b506105a960048036038101906105a49190612308565b611a4e565b6040516105b69190612922565b60405180910390f35b3480156105cb57600080fd5b506105e660048036038101906105e19190612308565b611a66565b6040516105f3919061273f565b60405180910390f35b6003818051602081018201805184825260208301602085012081835280955050505050506000915054906101000a900473ffffffffffffffffffffffffffffffffffffffff1681565b6002818051602081018201805184825260208301602085012081835280955050505050506000915090505481565b600f602052816000526040600020818154811061068f57600080fd5b9060005260206000209060030201600091509150508060000180546106b390612b75565b80601f01602080910402602001604051908101604052809291908181526020018280546106df90612b75565b801561072c5780601f106107015761010080835404028352916020019161072c565b820191906000526020600020905b81548152906001019060200180831161070f57829003601f168201915b5050505050908060010160009054906101000a900473ffffffffffffffffffffffffffffffffffffffff169080600201805461076790612b75565b80601f016020809104026020016040519081016040528092919081815260200182805461079390612b75565b80156107e05780601f106107b5576101008083540402835291602001916107e0565b820191906000526020600020905b8154815290600101906020018083116107c357829003601f168201915b5050505050905083565b6108296040518060400160405280601581526020017f68747470733a2f2f647075626c6973682e6f72672f000000000000000000000081525082611a86565b60018260405161083991906125f8565b9081526020016040518091039020908051906020019061085a9291906121be565b5050565b600c5481565b80600a546108729190612a39565b3373ffffffffffffffffffffffffffffffffffffffff163110156108cb576040517f08c379a00000000000000000000000000000000000000000000000000000000081526004016108c2906128a2565b60405180910390fd5b6108d433611ab2565b61093c576108e1336118ac565b80600d60003373ffffffffffffffffffffffffffffffffffffffff1673ffffffffffffffffffffffffffffffffffffffff168152602001908152602001600020600082825461093091906129e3565b92505081905550610993565b80600d60003373ffffffffffffffffffffffffffffffffffffffff1673ffffffffffffffffffffffffffffffffffffffff168152602001908152602001600020600082825461098b91906129e3565b925050819055505b50565b601060205281600052604060002081815481106109b257600080fd5b9060005260206000209060050201600091509150508060000180546109d690612b75565b80601f0160208091040260200160405190810160405280929190818152602001828054610a0290612b75565b8015610a4f5780601f10610a2457610100808354040283529160200191610a4f565b820191906000526020600020905b815481529060010190602001808311610a3257829003601f168201915b5050505050908060010160009054906101000a900473ffffffffffffffffffffffffffffffffffffffff16908060020160009054906101000a900473ffffffffffffffffffffffffffffffffffffffff1690806003015490806004018054610ab690612b75565b80601f0160208091040260200160405190810160405280929190818152602001828054610ae290612b75565b8015610b2f5780601f10610b0457610100808354040283529160200191610b2f565b820191906000526020600020905b815481529060010190602001808311610b1257829003601f168201915b5050505050905085565b6006818051602081018201805184825260208301602085012081835280955050505050506000915090505481565b6001818051602081018201805184825260208301602085012081835280955050505050506000915090508054610b9c90612b75565b80601f0160208091040260200160405190810160405280929190818152602001828054610bc890612b75565b8015610c155780601f10610bea57610100808354040283529160200191610c15565b820191906000526020600020905b815481529060010190602001808311610bf857829003601f168201915b505050505081565b6000600b54905090565b6004818051602081018201805184825260208301602085012081835280955050505050506000915054906101000a900473ffffffffffffffffffffffffffffffffffffffff1681565b6008818051602081018201805184825260208301602085012081835280955050505050506000915054906101000a900460ff1681565b6000818051602081018201805184825260208301602085012081835280955050505050506000915054906101000a900473ffffffffffffffffffffffffffffffffffffffff1681565b6007818051602081018201805184825260208301602085012081835280955050505050506000915054906101000a900460ff1681565b6000600c54905090565b6001600783604051610d4191906125f8565b908152602001604051809103902060006101000a81548160ff0219169083151502179055610da4576040517f08c379a0000000000000000000000000000000000000000000000000000000008152600401610d9b90612902565b60405180910390fd5b8015610f19573373ffffffffffffffffffffffffffffffffffffffff16600383604051610dd191906125f8565b908152602001604051809103902060009054906101000a900473ffffffffffffffffffffffffffffffffffffffff1673ffffffffffffffffffffffffffffffffffffffff1614610e56576040517f08c379a0000000000000000000000000000000000000000000000000000000008152600401610e4d90612862565b60405180910390fd5b6001600683604051610e6891906125f8565b90815260200160405180910390206000828254610e8591906129e3565b925050819055506000600783604051610e9e91906125f8565b908152602001604051809103902060006101000a81548160ff021916908315150217905550610ecf82336001611b87565b610ed833611e92565b7f1fb0abc4c62b3a14144422a4374bda4e032b5353d8fc931237f3407e4cb92f5433836001604051610f0c9392919061269a565b60405180910390a16111cc565b3373ffffffffffffffffffffffffffffffffffffffff16600483604051610f4091906125f8565b908152602001604051809103902060009054906101000a900473ffffffffffffffffffffffffffffffffffffffff1673ffffffffffffffffffffffffffffffffffffffff1614610fc5576040517f08c379a0000000000000000000000000000000000000000000000000000000008152600401610fbc90612862565b60405180910390fd5b6001600683604051610fd791906125f8565b90815260200160405180910390206000828254610ff491906129e3565b92505081905550600060078360405161100d91906125f8565b908152602001604051809103902060006101000a81548160ff02191690831515021790555061103b82611f80565b61104782336001611b87565b61105033611e92565b6110988260008460405161106491906125f8565b908152602001604051809103902060009054906101000a900473ffffffffffffffffffffffffffffffffffffffff16611fba565b7f1fb0abc4c62b3a14144422a4374bda4e032b5353d8fc931237f3407e4cb92f54338360026040516110cc939291906126d8565b60405180910390a17f5745b6265ade898983f45b04ba7143ada49a0e961d7bb59bec36c85d2bb5911e60008360405161110591906125f8565b908152602001604051809103902060009054906101000a900473ffffffffffffffffffffffffffffffffffffffff1660038460405161114491906125f8565b908152602001604051809103902060009054906101000a900473ffffffffffffffffffffffffffffffffffffffff1660048560405161118391906125f8565b908152602001604051809103902060009054906101000a900473ffffffffffffffffffffffffffffffffffffffff16856040516111c3949392919061264e565b60405180910390a15b5050565b600b5481565b336000826040516111e791906125f8565b908152602001604051809103902060006101000a81548173ffffffffffffffffffffffffffffffffffffffff021916908373ffffffffffffffffffffffffffffffffffffffff16021790555061123c816107ea565b6000600d60003373ffffffffffffffffffffffffffffffffffffffff1673ffffffffffffffffffffffffffffffffffffffff168152602001908152602001600020549050600b548110156112cb57600b54816040517f8c9053680000000000000000000000000000000000000000000000000000000081526004016112c292919061293d565b60405180910390fd5b600b54600d60003373ffffffffffffffffffffffffffffffffffffffff1673ffffffffffffffffffffffffffffffffffffffff168152602001908152602001600020600082825461131c9190612a93565b92505081905550600b5460028360405161133691906125f8565b908152602001604051809103902081905550600060068360405161135a91906125f8565b908152602001604051809103902081905550600060078360405161137e91906125f8565b908152602001604051809103902060006101000a81548160ff02191690831515021790555060006008836040516113b591906125f8565b908152602001604051809103902060006101000a81548160ff0219169083151502179055507f6ef95f06320e7a25a04a175ca677b7052bdd97131872c2192525a629f51be77033600b5460405161140d929190612716565b60405180910390a15050565b60011515600560003373ffffffffffffffffffffffffffffffffffffffff1673ffffffffffffffffffffffffffffffffffffffff16815260200190815260200160002060009054906101000a900460ff161515146114ac576040517f08c379a00000000000000000000000000000000000000000000000000000000081526004016114a390612822565b60405180910390fd5b60006008836040516114be91906125f8565b908152602001604051809103902060006101000a81548160ff0219169083151502179055611521576040517f08c379a000000000000000000000000000000000000000000000000000000000815260040161151890612882565b60405180910390fd5b801561169357600060068360405161153991906125f8565b90815260200160405180910390205414611588576040517f08c379a000000000000000000000000000000000000000000000000000000000815260040161157f906128e2565b60405180910390fd5b6000151560078360405161159c91906125f8565b908152602001604051809103902060009054906101000a900460ff161515146115fa576040517f08c379a00000000000000000000000000000000000000000000000000000000081526004016115f190612842565b60405180910390fd5b600160078360405161160c91906125f8565b908152602001604051809103902060006101000a81548160ff0219169083151502179055503360038360405161164291906125f8565b908152602001604051809103902060006101000a81548173ffffffffffffffffffffffffffffffffffffffff021916908373ffffffffffffffffffffffffffffffffffffffff1602179055506118a8565b60016006836040516116a591906125f8565b908152602001604051809103902054146116f4576040517f08c379a00000000000000000000000000000000000000000000000000000000081526004016116eb90612842565b60405180910390fd5b6000151560078360405161170891906125f8565b908152602001604051809103902060009054906101000a900460ff16151514611766576040517f08c379a000000000000000000000000000000000000000000000000000000000815260040161175d90612842565b60405180910390fd5b3373ffffffffffffffffffffffffffffffffffffffff1660038360405161178d91906125f8565b908152602001604051809103902060009054906101000a900473ffffffffffffffffffffffffffffffffffffffff1673ffffffffffffffffffffffffffffffffffffffff161415611813576040517f08c379a000000000000000000000000000000000000000000000000000000000815260040161180a906128e2565b60405180910390fd5b600160078360405161182591906125f8565b908152602001604051809103902060006101000a81548160ff0219169083151502179055503360048360405161185b91906125f8565b908152602001604051809103902060006101000a81548173ffffffffffffffffffffffffffffffffffffffff021916908373ffffffffffffffffffffffffffffffffffffffff1602179055505b5050565b6000600d60008373ffffffffffffffffffffffffffffffffffffffff1673ffffffffffffffffffffffffffffffffffffffff16815260200190815260200160002081905550600f60008273ffffffffffffffffffffffffffffffffffffffff1673ffffffffffffffffffffffffffffffffffffffff16815260200190815260200160002050601060008273ffffffffffffffffffffffffffffffffffffffff1673ffffffffffffffffffffffffffffffffffffffff16815260200190815260200160002050600e819080600181540180825580915050600190039060005260206000200160009091909190916101000a81548173ffffffffffffffffffffffffffffffffffffffff021916908373ffffffffffffffffffffffffffffffffffffffff16021790555050565b6119e033611ab2565b6119ee576119ed336118ac565b5b6001600560003373ffffffffffffffffffffffffffffffffffffffff1673ffffffffffffffffffffffffffffffffffffffff16815260200190815260200160002060006101000a81548160ff021916908315150217905550565b600a5481565b600d6020528060005260406000206000915090505481565b60056020528060005260406000206000915054906101000a900460ff1681565b60608282604051602001611a9b92919061260f565b604051602081830303815290604052905092915050565b600080600090505b600e80549050811015611b7c57600e8181548110611b01577f4e487b7100000000000000000000000000000000000000000000000000000000600052603260045260246000fd5b9060005260206000200160009054906101000a900473ffffffffffffffffffffffffffffffffffffffff1673ffffffffffffffffffffffffffffffffffffffff168373ffffffffffffffffffffffffffffffffffffffff161415611b69576001915050611b82565b8080611b7490612bd8565b915050611aba565b50600090505b919050565b60011515600560008473ffffffffffffffffffffffffffffffffffffffff1673ffffffffffffffffffffffffffffffffffffffff16815260200190815260200160002060009054906101000a900460ff16151514611c1a576040517f08c379a0000000000000000000000000000000000000000000000000000000008152600401611c11906128c2565b60405180910390fd5b601060008373ffffffffffffffffffffffffffffffffffffffff1673ffffffffffffffffffffffffffffffffffffffff1681526020019081526020016000206040518060a00160405280858152602001600086604051611c7a91906125f8565b908152602001604051809103902060009054906101000a900473ffffffffffffffffffffffffffffffffffffffff1673ffffffffffffffffffffffffffffffffffffffff1681526020018473ffffffffffffffffffffffffffffffffffffffff168152602001838152602001600186604051611cf691906125f8565b90815260200160405180910390208054611d0f90612b75565b80601f0160208091040260200160405190810160405280929190818152602001828054611d3b90612b75565b8015611d885780601f10611d5d57610100808354040283529160200191611d88565b820191906000526020600020905b815481529060010190602001808311611d6b57829003601f168201915b505050505081525090806001815401808255809150506001900390600052602060002090600502016000909190919091506000820151816000019080519060200190611dd59291906121be565b5060208201518160010160006101000a81548173ffffffffffffffffffffffffffffffffffffffff021916908373ffffffffffffffffffffffffffffffffffffffff16021790555060408201518160020160006101000a81548173ffffffffffffffffffffffffffffffffffffffff021916908373ffffffffffffffffffffffffffffffffffffffff160217905550606082015181600301556080820151816004019080519060200190611e8a9291906121be565b505050505050565b60011515600560008373ffffffffffffffffffffffffffffffffffffffff1673ffffffffffffffffffffffffffffffffffffffff16815260200190815260200160002060009054906101000a900460ff16151514611f25576040517f08c379a0000000000000000000000000000000000000000000000000000000008152600401611f1c906128c2565b60405180910390fd5b600c54600d60008373ffffffffffffffffffffffffffffffffffffffff1673ffffffffffffffffffffffffffffffffffffffff1681526020019081526020016000206000828254611f7691906129e3565b9250508190555050565b6001600882604051611f9291906125f8565b908152602001604051809103902060006101000a81548160ff02191690831515021790555050565b600f60008273ffffffffffffffffffffffffffffffffffffffff1673ffffffffffffffffffffffffffffffffffffffff168152602001908152602001600020604051806060016040528084815260200160008560405161201a91906125f8565b908152602001604051809103902060009054906101000a900473ffffffffffffffffffffffffffffffffffffffff1673ffffffffffffffffffffffffffffffffffffffff16815260200160018560405161207491906125f8565b9081526020016040518091039020805461208d90612b75565b80601f01602080910402602001604051908101604052809291908181526020018280546120b990612b75565b80156121065780601f106120db57610100808354040283529160200191612106565b820191906000526020600020905b8154815290600101906020018083116120e957829003601f168201915b5050505050815250908060018154018082558091505060019003906000526020600020906003020160009091909190915060008201518160000190805190602001906121539291906121be565b5060208201518160010160006101000a81548173ffffffffffffffffffffffffffffffffffffffff021916908373ffffffffffffffffffffffffffffffffffffffff16021790555060408201518160020190805190602001906121b79291906121be565b5050505050565b8280546121ca90612b75565b90600052602060002090601f0160209004810192826121ec5760008555612233565b82601f1061220557805160ff1916838001178555612233565b82800160010185558215612233579182015b82811115612232578251825591602001919060010190612217565b5b5090506122409190612244565b5090565b5b8082111561225d576000816000905550600101612245565b5090565b600061227461226f8461298b565b612966565b90508281526020810184848401111561228c57600080fd5b612297848285612b33565b509392505050565b6000813590506122ae81612e79565b92915050565b6000813590506122c381612e90565b92915050565b600082601f8301126122da57600080fd5b81356122ea848260208601612261565b91505092915050565b60008135905061230281612ea7565b92915050565b60006020828403121561231a57600080fd5b60006123288482850161229f565b91505092915050565b6000806040838503121561234457600080fd5b60006123528582860161229f565b9250506020612363858286016122f3565b9150509250929050565b60006020828403121561237f57600080fd5b600082013567ffffffffffffffff81111561239957600080fd5b6123a5848285016122c9565b91505092915050565b600080604083850312156123c157600080fd5b600083013567ffffffffffffffff8111156123db57600080fd5b6123e7858286016122c9565b92505060206123f8858286016122b4565b9150509250929050565b60006020828403121561241457600080fd5b6000612422848285016122f3565b91505092915050565b61243481612ac7565b82525050565b61244381612ad9565b82525050565b61245281612b0f565b82525050565b61246181612b21565b82525050565b6000612472826129bc565b61247c81856129c7565b935061248c818560208601612b42565b61249581612cae565b840191505092915050565b60006124ab826129bc565b6124b581856129d8565b93506124c5818560208601612b42565b80840191505092915050565b60006124de600e836129c7565b91506124e982612cbf565b602082019050919050565b60006125016020836129c7565b915061250c82612ce8565b602082019050919050565b6000612524601d836129c7565b915061252f82612d11565b602082019050919050565b60006125476022836129c7565b915061255282612d3a565b604082019050919050565b600061256a6012836129c7565b915061257582612d89565b602082019050919050565b600061258d6012836129c7565b915061259882612db2565b602082019050919050565b60006125b06021836129c7565b91506125bb82612ddb565b604082019050919050565b60006125d36024836129c7565b91506125de82612e2a565b604082019050919050565b6125f281612b05565b82525050565b600061260482846124a0565b915081905092915050565b600061261b82856124a0565b915061262782846124a0565b91508190509392505050565b6000602082019050612648600083018461242b565b92915050565b6000608082019050612663600083018761242b565b612670602083018661242b565b61267d604083018561242b565b818103606083015261268f8184612467565b905095945050505050565b60006060820190506126af600083018661242b565b81810360208301526126c18185612467565b90506126d06040830184612449565b949350505050565b60006060820190506126ed600083018661242b565b81810360208301526126ff8185612467565b905061270e6040830184612458565b949350505050565b600060408201905061272b600083018561242b565b61273860208301846125e9565b9392505050565b6000602082019050612754600083018461243a565b92915050565b600060208201905081810360008301526127748184612467565b905092915050565b600060a08201905081810360008301526127968188612467565b90506127a5602083018761242b565b6127b2604083018661242b565b6127bf60608301856125e9565b81810360808301526127d18184612467565b90509695505050505050565b600060608201905081810360008301526127f78186612467565b9050612806602083018561242b565b81810360408301526128188184612467565b9050949350505050565b6000602082019050818103600083015261283b816124d1565b9050919050565b6000602082019050818103600083015261285b816124f4565b9050919050565b6000602082019050818103600083015261287b81612517565b9050919050565b6000602082019050818103600083015261289b8161253a565b9050919050565b600060208201905081810360008301526128bb8161255d565b9050919050565b600060208201905081810360008301526128db81612580565b9050919050565b600060208201905081810360008301526128fb816125a3565b9050919050565b6000602082019050818103600083015261291b816125c6565b9050919050565b600060208201905061293760008301846125e9565b92915050565b600060408201905061295260008301856125e9565b61295f60208301846125e9565b9392505050565b6000612970612981565b905061297c8282612ba7565b919050565b6000604051905090565b600067ffffffffffffffff8211156129a6576129a5612c7f565b5b6129af82612cae565b9050602081019050919050565b600081519050919050565b600082825260208201905092915050565b600081905092915050565b60006129ee82612b05565b91506129f983612b05565b9250827fffffffffffffffffffffffffffffffffffffffffffffffffffffffffffffffff03821115612a2e57612a2d612c21565b5b828201905092915050565b6000612a4482612b05565b9150612a4f83612b05565b9250817fffffffffffffffffffffffffffffffffffffffffffffffffffffffffffffffff0483118215151615612a8857612a87612c21565b5b828202905092915050565b6000612a9e82612b05565b9150612aa983612b05565b925082821015612abc57612abb612c21565b5b828203905092915050565b6000612ad282612ae5565b9050919050565b60008115159050919050565b600073ffffffffffffffffffffffffffffffffffffffff82169050919050565b6000819050919050565b6000612b1a82612b05565b9050919050565b6000612b2c82612b05565b9050919050565b82818337600083830152505050565b60005b83811015612b60578082015181840152602081019050612b45565b83811115612b6f576000848401525b50505050565b60006002820490506001821680612b8d57607f821691505b60208210811415612ba157612ba0612c50565b5b50919050565b612bb082612cae565b810181811067ffffffffffffffff82111715612bcf57612bce612c7f565b5b80604052505050565b6000612be382612b05565b91507fffffffffffffffffffffffffffffffffffffffffffffffffffffffffffffffff821415612c1657612c15612c21565b5b600182019050919050565b7f4e487b7100000000000000000000000000000000000000000000000000000000600052601160045260246000fd5b7f4e487b7100000000000000000000000000000000000000000000000000000000600052602260045260246000fd5b7f4e487b7100000000000000000000000000000000000000000000000000000000600052604160045260246000fd5b6000601f19601f8301169050919050565b7f4f6e6c7920526576696577657273000000000000000000000000000000000000600082015250565b7f54686973206d616e75736372697074206973206265696e672072657669736564600082015250565b7f596f752063616e6e6f742066696e697368207468697320726576696577000000600082015250565b7f54686973206d616e7573637269707420686173206265656e207075626c69736860008201527f6564000000000000000000000000000000000000000000000000000000000000602082015250565b7f596f75206e656564206d6f726520576569730000000000000000000000000000600082015250565b7f4f6e6c7920666f72207265766965776572730000000000000000000000000000600082015250565b7f596f752063616e6e6f74207265766965772074686973206d616e75736372697060008201527f7400000000000000000000000000000000000000000000000000000000000000602082015250565b7f54686973206d616e75736372697074206973206e6f74206265696e672072657660008201527f6973656400000000000000000000000000000000000000000000000000000000602082015250565b612e8281612ac7565b8114612e8d57600080fd5b50565b612e9981612ad9565b8114612ea457600080fd5b50565b612eb081612b05565b8114612ebb57600080fd5b5056fea264697066735822122095a6acf0ea9f0b91d328e6f194425d95123c88f20cda8b63d8157c558ca4462764736f6c63430008040033",
  "immutableReferences": {},
  "source": "// SPDX-License-Identifier: MIT\npragma solidity ^0.8.2;\n\nimport \"./DPubToken.sol\";\nimport \"./ReviewToken.sol\";\nimport \"./PaperToken.sol\";\n\nimport \"@openzeppelin/contracts/utils/Context.sol\";\n\n\n\ncontract DPublish is Context{\n    //-----------------------------------------------------------------------------------------\n                                      //DEFINICAO DE VARIAVEIS\n    //-----------------------------------------------------------------------------------------\n    mapping(string => address) public submited_manuscripts;\n    mapping(string => string) public manuscripts_links;//links dos artigos\n    mapping(string => uint256) public bounties; //pagamentos por artigos\n    \n    //Processo de Revisao\n    mapping(string => address) public review1_manuscripts;//artigos revisados uma vez\n    mapping(string => address) public review2_manuscripts;//artigso revisados duas vezes\n    mapping(address => bool) public reviewers;// Lista de revisores\n    mapping(string => uint) public review_qtd; // Quantidade de vezes que o manuscrito foi revisado\n    mapping(string => bool) public reviewing; // mostra se o arquivo ta sendo revisado\n    mapping(string => bool) public  published;//arquivos publicados\n\n    address private Editor;//Quem vai iniciar o dpublish\n    uint256 public WeiDPTK = 1000;// Valor escolhido(arbitrario) pra ser o Wei do DPTK  em Wei\n    uint256 public publishing_fee = 1000; //preco pra publicar\n    uint256 public review_fee = 250;//preco que cada revisor recebe\n\n    //-----------------------------------------------------------------------------------------\n                             //SIMULADORES DE TOKENS\n    //-----------------------------------------------------------------------------------------\n    \n    //simulador de aperToken\n    struct papertoken{\n        string idmanuscript;\n        address autor;\n        string link;\n    }\n\n    //simulador de ReviewToken \n    struct reviewtoken{\n        string idmanuscript;\n        address autor;\n        address reviewer;\n        uint256 review_number;\n        string link;\n    }\n\n    mapping(address => uint256) public wallet_dptk;\n    address[] wallet_owners;// pessoas que possuem carteiras\n    mapping(address => papertoken[]) public wallet_ptk;\n    mapping(address => reviewtoken[]) public wallet_rtk;\n\n\n    //-----------------------------------------------------------------------------------------\n                                          //EVENTOS E ERROS\n    //-----------------------------------------------------------------------------------------\n    event PaymentReceived(address from, uint256 amount);// evento quando o pagamento e recebido\n    event ManuscriptRevised(address reviwer, string idmanuscript, uint review_number);//Evento quando um artigo e revisado\n    event ManuscriptPublished(address autor,address reviwer_1,address reviwer_2, string idmanuscript);//Evento quando um artigo e publicado\n    \n    error NotEnoughFunds(uint256 requested, uint256 avaible);\n\n    //DPubToken  private DPubTokens;\n    //ReviewToken private ReviewTokens;\n    //PaperToken private PaperTokens;\n\n    //-----------------------------------------------------------------------------------------\n                                          //CONSTRUTOR\n    //-----------------------------------------------------------------------------------------\n\n\n    constructor(){\n        Editor = msg.sender;\n        wallet_dptk[Editor] = 1000000000;// Valor arbitrario de DPTK para o editor\n        //DPubTokens = new DPubToken();\n        //ReviewTokens  = new ReviewToken();\n        //PaperTokens = new PaperToken();\n\n    }\n\n    //Funcao que concatena duas strings\n    //precisa de teste\n    function append(string memory a, string memory b) internal pure returns (string memory ) {\n\n    return string(abi.encodePacked(a, b));\n\n}\n\n    //-----------------------------------------------------------------------------------------\n                                          //FUNCOES AUXILIARES\n    //-----------------------------------------------------------------------------------------\n\n\n    //Gera um link para o artigo mas nao deixa publico\n    function generate_link(string memory idmanuscript)public{\n        //criando um link , precisa de teste\n        manuscripts_links[idmanuscript] = append(\"https://dpublish.org/\", idmanuscript);\n\n    }\n\n\n    //Criando carteira\n    function create_wallet(address owner_wallet) public {\n        wallet_dptk[owner_wallet] = 0;\n        wallet_ptk[owner_wallet];\n        wallet_rtk[owner_wallet];\n        wallet_owners.push(owner_wallet);\n\n    }\n\n\n    //Descobrir se uma carteira existe\n    function exist_wallet_dptk(address owner_wallet)internal view returns(bool){\n        for (uint256 index = 0; index < wallet_owners.length; index++) {\n            if(owner_wallet == wallet_owners[index]){\n                return true;}\n        }\n        return false;\n    }\n\n    \n\n    //Editor pode mudar o preco do publishing fee\n    function set_publishing_fee(uint256 fee) private{\n        require(msg.sender == Editor);\n        publishing_fee = fee;\n    }\n\n\n        //Editor pode mudar o preco do review fee\n    function set_review_fee(uint256 fee) private{\n        review_fee = fee;\n    }\n\n    //Publica artigo\n    function publish_manuscript(string memory idmanuscript) internal {\n        published[idmanuscript] = true;\n    }\n\n    //Emite ReviewToken\n    function emits_reviewtoken(string memory idmanuscript, address reviewer,uint256 review_number) internal{\n        require(reviewers[reviewer]==true, \"Only for reviewers\");\n        wallet_rtk[reviewer].push(reviewtoken(idmanuscript,submited_manuscripts[idmanuscript],reviewer,review_number,manuscripts_links[idmanuscript]));\n        }\n\n    //Emite PaperToken\n    function emits_papertoken(string memory idmanuscript, address autor) internal{\n        wallet_ptk[autor].push(papertoken(idmanuscript,submited_manuscripts[idmanuscript],manuscripts_links[idmanuscript]));\n        }\n\n    //Pagando DPTK  para os revisores\n    function pay_reviewers(address reviewer) internal{\n        require(reviewers[reviewer]==true, \"Only for reviewers\");\n        wallet_dptk[reviewer] += review_fee;\n\n    }\n\n    //-----------------------------------------------------------------------------------------\n                                          //OBTER VALORES DE PAGAMENTOS\n    //-----------------------------------------------------------------------------------------\n\n    //Ver o preco do publishing fee\n    function get_publishing_fee() view public returns(uint256) {\n        return publishing_fee ;\n\n    }\n\n    //Ver o preco do review fee\n    function get_review_fee() view public returns(uint256) {\n        return review_fee ;\n    }\n\n    //-----------------------------------------------------------------------------------------\n                                          //COMPRAR DPubTokens\n    //-----------------------------------------------------------------------------------------\n\n\n\n\n     //Comprar DPubTokens\n    function buy_DPTK(uint256 qtd_DPTK)public payable{\n        require(msg.sender.balance >= WeiDPTK*qtd_DPTK, \"You need more Weis\");\n        if(!exist_wallet_dptk(msg.sender)){\n            create_wallet(msg.sender);\n            wallet_dptk[msg.sender] += qtd_DPTK;}\n        else{\n            wallet_dptk[msg.sender] += qtd_DPTK;\n        }\n\n    }\n\n    //-----------------------------------------------------------------------------------------\n                                          //ENVIAR MANUSCRITO\n    //-----------------------------------------------------------------------------------------\n    \n    //Envia manuscrito\n    function submit_manuscript(string memory idmanuscript) public payable{\n        submited_manuscripts[idmanuscript] = msg.sender;\n        generate_link(idmanuscript);\n        uint balance = wallet_dptk[msg.sender];\n        if (balance < publishing_fee)\n            revert NotEnoughFunds(publishing_fee, balance);\n        wallet_dptk[msg.sender] -= publishing_fee;\n        bounties[idmanuscript] = publishing_fee;\n\n        //nao esta sendo revisado\n        review_qtd[idmanuscript] = 0;\n        reviewing[idmanuscript] = false;\n        published[idmanuscript] = false;\n\n        emit PaymentReceived(msg.sender, publishing_fee);\n    }\n\n\n    //-----------------------------------------------------------------------------------------\n                                    //PROCESSO DE REVISO\n    //-----------------------------------------------------------------------------------------\n\n    //revisor se inscreve\n    function subscribe_reviewer()public {\n        if(!exist_wallet_dptk(msg.sender)){\n            create_wallet(msg.sender);}\n        reviewers[msg.sender] =  true;   \n    }\n\n    //Revisor comeca a revisao, pode ser a primeira ou segunda\n    function start_review(string memory idmanuscript, bool review_1) public {\n        //precisa que o msg.sender seja um revisor\n        require(reviewers[msg.sender] == true,\"Only Reviewers\");\n        //O manuscrito no pode ter sido publicado\n        require(published[idmanuscript] = false,\"This manuscript has been published\");\n        //se for a primeira revisao\n        if(review_1){\n            //manuscrito precisa ter 0 revisoes\n            require(review_qtd[idmanuscript] == 0, \"You cannot review this manuscript\");\n            //manuscrito nao pode estar sendo revisado\n            require(reviewing[idmanuscript] == false, \"This manuscript is being revised\");\n            //adiciona que o manuscrito esta sendo revisado\n            reviewing[idmanuscript] = true;\n            //adiciona o endereco do revisor \n            review1_manuscripts[idmanuscript] = msg.sender;\n        }\n        //segunda revisao\n        else{\n            //o manuscrito precisa ter sido revisado 1 vez\n            require(review_qtd[idmanuscript] == 1, \"This manuscript is being revised\");\n            //o manuscrito nao pode estar sendo revisado\n            require(reviewing[idmanuscript] == false, \"This manuscript is being revised\");\n            //o msg.sender nao pode ser o primeiro revisor\n            require(review1_manuscripts[idmanuscript] != msg.sender,\"You cannot review this manuscript\");\n            //adiciona que o manuscrito esta sendo revisado\n            reviewing[idmanuscript] = true;\n            //adiciona o endereco do revisor\n            review2_manuscripts[idmanuscript] = msg.sender;\n\n\n        }\n\n    }\n\n    function finish_review(string memory idmanuscript, bool review_1) public{\n        //O artigo precisa estar sendo revisado\n        require(reviewing[idmanuscript] = true, \"This manuscript is not being revised\");\n\n        //Caso for a primeira reviso\n        if(review_1){\n            //Apenas a pessoa que esta revisando o arquivo pode finalizar\n            require(review1_manuscripts[idmanuscript] == msg.sender,\"You cannot finish this review\");\n            //Incrementa 1 na quantidade de revisoes\n            review_qtd[idmanuscript] += 1;\n            //informa que o arquivo nao esta sendo mais revisado\n            reviewing[idmanuscript] = false;\n            //pay reviewr DPTK and RTK\n            emits_reviewtoken(idmanuscript,msg.sender, 1);\n            pay_reviewers(msg.sender);\n            //emitindo evento\n            emit ManuscriptRevised(msg.sender, idmanuscript, 1);\n        }\n        else{\n            //Apenas a pessoa que esta revisando o arquivo pode finalizar\n            require(review2_manuscripts[idmanuscript] == msg.sender,\"You cannot finish this review\");\n            //Incrementa 1 na quantidade de revisoes\n            review_qtd[idmanuscript] += 1;\n            //informa que o arquivo nao esta sendo mais revisado\n            reviewing[idmanuscript]  =  false;\n            //informa que o artigo foi publicado\n            publish_manuscript(idmanuscript);\n            //pay reviewer DPTK and RTK\n            emits_reviewtoken(idmanuscript,msg.sender, 1);\n            pay_reviewers(msg.sender);\n            //paper token  pro autor\n            emits_papertoken(idmanuscript, submited_manuscripts[idmanuscript]);\n            //emitindo os eventos\n            emit ManuscriptRevised(msg.sender, idmanuscript, 2);\n            emit ManuscriptPublished(submited_manuscripts[idmanuscript], review1_manuscripts[idmanuscript],review2_manuscripts[idmanuscript], idmanuscript);\n\n        }\n\n\n        }\n\n\n\n}",
  "sourcePath": "/home/alcindo/fgv/4p/cripto/Dpublish/contracts/DPublish.sol",
  "compiler": {
    "name": "solc",
    "version": "0.8.4+commit.c7e474f2.Emscripten.clang"
  },
  "schemaVersion": "3.4.3",
  "updatedAt": "2021-12-15T16:14:39.140Z",
  "devdoc": {
    "kind": "dev",
    "methods": {},
    "version": 1
  },
  "userdoc": {
    "kind": "user",
    "methods": {},
    "version": 1
  }
}