{
  "contractName": "DPublish",
  "abi": [
    {
      "inputs": [],
      "stateMutability": "nonpayable",
      "type": "constructor"
    },
    {
      "anonymous": false,
      "inputs": [
        {
          "indexed": false,
          "internalType": "address",
          "name": "from",
          "type": "address"
        },
        {
          "indexed": false,
          "internalType": "uint256",
          "name": "amount",
          "type": "uint256"
        }
      ],
      "name": "PaymentReceived",
      "type": "event"
    },
    {
      "inputs": [],
      "name": "actual_fee",
      "outputs": [
        {
          "internalType": "uint256",
          "name": "",
          "type": "uint256"
        }
      ],
      "stateMutability": "view",
      "type": "function",
      "constant": true
    },
    {
      "inputs": [
        {
          "internalType": "address",
          "name": "",
          "type": "address"
        }
      ],
      "name": "review_completed",
      "outputs": [
        {
          "internalType": "string",
          "name": "",
          "type": "string"
        }
      ],
      "stateMutability": "view",
      "type": "function",
      "constant": true
    },
    {
      "inputs": [
        {
          "internalType": "string",
          "name": "",
          "type": "string"
        }
      ],
      "name": "submitted_manuscripts",
      "outputs": [
        {
          "internalType": "address",
          "name": "",
          "type": "address"
        }
      ],
      "stateMutability": "view",
      "type": "function",
      "constant": true
    },
    {
      "inputs": [
        {
          "internalType": "address",
          "name": "",
          "type": "address"
        }
      ],
      "name": "wallet_amount",
      "outputs": [
        {
          "internalType": "uint256",
          "name": "",
          "type": "uint256"
        }
      ],
      "stateMutability": "view",
      "type": "function",
      "constant": true
    },
    {
      "inputs": [
        {
          "internalType": "string",
          "name": "idmanuscript",
          "type": "string"
        }
      ],
      "name": "submit_manuscript",
      "outputs": [],
      "stateMutability": "payable",
      "type": "function",
      "payable": true
    },
    {
      "inputs": [
        {
          "internalType": "address",
          "name": "account",
          "type": "address"
        }
      ],
      "name": "authorize_payment",
      "outputs": [
        {
          "internalType": "bool",
          "name": "",
          "type": "bool"
        }
      ],
      "stateMutability": "view",
      "type": "function",
      "constant": true
    },
    {
      "inputs": [
        {
          "internalType": "address",
          "name": "account",
          "type": "address"
        }
      ],
      "name": "get_balance",
      "outputs": [
        {
          "internalType": "uint256",
          "name": "",
          "type": "uint256"
        }
      ],
      "stateMutability": "view",
      "type": "function",
      "constant": true
    },
    {
      "inputs": [
        {
          "internalType": "uint256",
          "name": "amount",
          "type": "uint256"
        }
      ],
      "name": "set_fee",
      "outputs": [],
      "stateMutability": "payable",
      "type": "function",
      "payable": true
    },
    {
      "inputs": [
        {
          "internalType": "address",
          "name": "account",
          "type": "address"
        },
        {
          "internalType": "uint256",
          "name": "amount",
          "type": "uint256"
        }
      ],
      "name": "set_balance",
      "outputs": [],
      "stateMutability": "nonpayable",
      "type": "function"
    },
    {
      "inputs": [
        {
          "internalType": "string",
          "name": "article_link",
          "type": "string"
        }
      ],
      "name": "review_article",
      "outputs": [],
      "stateMutability": "nonpayable",
      "type": "function"
    }
  ],
  "bytecode": "0x608060405261271060055534801561001657600080fd5b5033600360006101000a81548173ffffffffffffffffffffffffffffffffffffffff021916908373ffffffffffffffffffffffffffffffffffffffff160217905550610ebb806100676000396000f3fe6080604052600436106100915760003560e01c8063bb22cae511610059578063bb22cae51461016c578063cdeca252146101a9578063e1938f14146101c5578063f46f4fe514610202578063f52fc3ca1461023f57610091565b80630776e4fa1461009657806315338db3146100bf5780631aa02d59146100ea5780631e279a37146101065780632da2e06e14610143575b600080fd5b3480156100a257600080fd5b506100bd60048036038101906100b891906108d7565b61027c565b005b3480156100cb57600080fd5b506100d461031e565b6040516100e19190610b32565b60405180910390f35b61010460048036038101906100ff9190610954565b610324565b005b34801561011257600080fd5b5061012d600480360381019061012891906108ae565b610396565b60405161013a9190610b32565b60405180910390f35b34801561014f57600080fd5b5061016a60048036038101906101659190610913565b61044d565b005b34801561017857600080fd5b50610193600480360381019061018e91906108ae565b6104ad565b6040516101a09190610ab5565b60405180910390f35b6101c360048036038101906101be9190610913565b610509565b005b3480156101d157600080fd5b506101ec60048036038101906101e791906108ae565b6105c2565b6040516101f99190610ad0565b60405180910390f35b34801561020e57600080fd5b5061022960048036038101906102249190610913565b610662565b6040516102369190610a71565b60405180910390f35b34801561024b57600080fd5b50610266600480360381019061026191906108ae565b6106ab565b6040516102739190610b32565b60405180910390f35b600360009054906101000a900473ffffffffffffffffffffffffffffffffffffffff1673ffffffffffffffffffffffffffffffffffffffff163373ffffffffffffffffffffffffffffffffffffffff16146102d657600080fd5b80600160008473ffffffffffffffffffffffffffffffffffffffff1673ffffffffffffffffffffffffffffffffffffffff168152602001908152602001600020819055505050565b60045481565b600360009054906101000a900473ffffffffffffffffffffffffffffffffffffffff1673ffffffffffffffffffffffffffffffffffffffff163373ffffffffffffffffffffffffffffffffffffffff161461037e57600080fd5b600554811161038c57600080fd5b8060048190555050565b60008173ffffffffffffffffffffffffffffffffffffffff163373ffffffffffffffffffffffffffffffffffffffff1614610406576040517f08c379a00000000000000000000000000000000000000000000000000000000081526004016103fd90610af2565b60405180910390fd5b600160008373ffffffffffffffffffffffffffffffffffffffff1673ffffffffffffffffffffffffffffffffffffffff168152602001908152602001600020549050919050565b80600260003373ffffffffffffffffffffffffffffffffffffffff1673ffffffffffffffffffffffffffffffffffffffff16815260200190815260200160002090805190602001906104a0929190610779565b506104aa336106c3565b50565b6000806104b983610396565b905060045481106104ff576040517f08c379a00000000000000000000000000000000000000000000000000000000081526004016104f690610b12565b60405180910390fd5b6001915050919050565b3360008260405161051a9190610a5a565b908152602001604051809103902060006101000a81548173ffffffffffffffffffffffffffffffffffffffff021916908373ffffffffffffffffffffffffffffffffffffffff1602179055506000610571336104ad565b90508015610583576105823361071e565b5b7f6ef95f06320e7a25a04a175ca677b7052bdd97131872c2192525a629f51be770336004546040516105b6929190610a8c565b60405180910390a15050565b600260205280600052604060002060009150905080546105e190610cde565b80601f016020809104026020016040519081016040528092919081815260200182805461060d90610cde565b801561065a5780601f1061062f5761010080835404028352916020019161065a565b820191906000526020600020905b81548152906001019060200180831161063d57829003601f168201915b505050505081565b6000818051602081018201805184825260208301602085012081835280955050505050506000915054906101000a900473ffffffffffffffffffffffffffffffffffffffff1681565b60016020528060005260406000206000915090505481565b600454600160008373ffffffffffffffffffffffffffffffffffffffff1673ffffffffffffffffffffffffffffffffffffffff16815260200190815260200160002060008282546107149190610bca565b9250508190555050565b600454600160008373ffffffffffffffffffffffffffffffffffffffff1673ffffffffffffffffffffffffffffffffffffffff168152602001908152602001600020600082825461076f9190610c20565b9250508190555050565b82805461078590610cde565b90600052602060002090601f0160209004810192826107a757600085556107ee565b82601f106107c057805160ff19168380011785556107ee565b828001600101855582156107ee579182015b828111156107ed5782518255916020019190600101906107d2565b5b5090506107fb91906107ff565b5090565b5b80821115610818576000816000905550600101610800565b5090565b600061082f61082a84610b72565b610b4d565b90508281526020810184848401111561084757600080fd5b610852848285610c9c565b509392505050565b60008135905061086981610e57565b92915050565b600082601f83011261088057600080fd5b813561089084826020860161081c565b91505092915050565b6000813590506108a881610e6e565b92915050565b6000602082840312156108c057600080fd5b60006108ce8482850161085a565b91505092915050565b600080604083850312156108ea57600080fd5b60006108f88582860161085a565b925050602061090985828601610899565b9150509250929050565b60006020828403121561092557600080fd5b600082013567ffffffffffffffff81111561093f57600080fd5b61094b8482850161086f565b91505092915050565b60006020828403121561096657600080fd5b600061097484828501610899565b91505092915050565b61098681610c54565b82525050565b61099581610c66565b82525050565b60006109a682610ba3565b6109b08185610bae565b93506109c0818560208601610cab565b6109c981610dce565b840191505092915050565b60006109df82610ba3565b6109e98185610bbf565b93506109f9818560208601610cab565b80840191505092915050565b6000610a12602283610bae565b9150610a1d82610ddf565b604082019050919050565b6000610a35601183610bae565b9150610a4082610e2e565b602082019050919050565b610a5481610c92565b82525050565b6000610a6682846109d4565b915081905092915050565b6000602082019050610a86600083018461097d565b92915050565b6000604082019050610aa1600083018561097d565b610aae6020830184610a4b565b9392505050565b6000602082019050610aca600083018461098c565b92915050565b60006020820190508181036000830152610aea818461099b565b905092915050565b60006020820190508181036000830152610b0b81610a05565b9050919050565b60006020820190508181036000830152610b2b81610a28565b9050919050565b6000602082019050610b476000830184610a4b565b92915050565b6000610b57610b68565b9050610b638282610d10565b919050565b6000604051905090565b600067ffffffffffffffff821115610b8d57610b8c610d9f565b5b610b9682610dce565b9050602081019050919050565b600081519050919050565b600082825260208201905092915050565b600081905092915050565b6000610bd582610c92565b9150610be083610c92565b9250827fffffffffffffffffffffffffffffffffffffffffffffffffffffffffffffffff03821115610c1557610c14610d41565b5b828201905092915050565b6000610c2b82610c92565b9150610c3683610c92565b925082821015610c4957610c48610d41565b5b828203905092915050565b6000610c5f82610c72565b9050919050565b60008115159050919050565b600073ffffffffffffffffffffffffffffffffffffffff82169050919050565b6000819050919050565b82818337600083830152505050565b60005b83811015610cc9578082015181840152602081019050610cae565b83811115610cd8576000848401525b50505050565b60006002820490506001821680610cf657607f821691505b60208210811415610d0a57610d09610d70565b5b50919050565b610d1982610dce565b810181811067ffffffffffffffff82111715610d3857610d37610d9f565b5b80604052505050565b7f4e487b7100000000000000000000000000000000000000000000000000000000600052601160045260246000fd5b7f4e487b7100000000000000000000000000000000000000000000000000000000600052602260045260246000fd5b7f4e487b7100000000000000000000000000000000000000000000000000000000600052604160045260246000fd5b6000601f19601f8301169050919050565b7f596f7520646f6e27742068617665207065726d697373696f6e20666f7220746860008201527f6174000000000000000000000000000000000000000000000000000000000000602082015250565b7f4e6f7420656e6f75676820746f6b656e73000000000000000000000000000000600082015250565b610e6081610c54565b8114610e6b57600080fd5b50565b610e7781610c92565b8114610e8257600080fd5b5056fea2646970667358221220950df99064cc2093582b42d6df57a949d8be1edd75410fdd4b0c98ccb9ea3da464736f6c63430008040033",
  "immutableReferences": {},
  "source": "// SPDX-License-Identifier: MIT\npragma solidity ^0.8.4;\n\ncontract DPublish {\n\n    mapping(string => address) public submitted_manuscripts;\n    mapping(address => uint256) public wallet_amount; // armazena o total da carteira\n    mapping (address => string) public review_completed; // armazena os links dos artigos revisados\n    \n    address private reviewr; // endereo do revisor\n    uint256 public actual_fee; // taxa pela revisao\n    uint256 min_fee = 10000; // taxa mnima\n    // no futuro, este valor dever ser mutvel por um usuio com permisso (comit)\n    \n    event PaymentReceived(address from, uint256 amount);\n\n    constructor(){\n        // o autor do contrato  o revisor\n        reviewr = msg.sender;\n    }\n\n    function submit_manuscript(string memory idmanuscript) public payable{\n        \n        submitted_manuscripts[idmanuscript] = msg.sender;\n\n        // verifica possibilidade de pagamento\n        bool payment_authorize = authorize_payment(msg.sender); \n\n        if (payment_authorize)\n    \n        // realizando pagamento da reviso:\n        make_payment(msg.sender);\n        \n        emit PaymentReceived(msg.sender, actual_fee);\n    }\n\n    function authorize_payment(address account) public view returns (bool){\n        // authorize payment\n        uint256 account_amount = get_balance(account);\n        require(account_amount < actual_fee, \"Not enough tokens\");\n        return true;\n    }\n\n    function get_balance(address account) public view returns (uint) {\n        // get account balance\n        require(msg.sender == account , \"You don't have permission for that\");\n        return wallet_amount[account];\n    }\n\n\n    function set_fee(uint256 amount) public payable{\n        // set revieww fee \n        require(msg.sender == reviewr);\n        require(amount > min_fee);\n        actual_fee = amount;\n    }\n\n    function set_balance(address account, uint256 amount) public{\n        // set wallet balance for account\n        require(msg.sender == reviewr);\n        wallet_amount[account] = amount;\n    }\n\n    function review_article(string memory article_link) public{\n        // publica o link do artigo revisado e recebe o pagamento\n        review_completed[msg.sender] = article_link;\n        receive_payment(msg.sender);\n    }\n\n    function receive_payment(address reviewer) private{\n        wallet_amount[reviewer] += actual_fee;\n    }\n\n    function make_payment(address author) private{\n        wallet_amount[author] -= actual_fee;\n    }\n\n\n}",
  "sourcePath": "/home/livia/Documentos/FGV/Cripto/Dpublish/contracts/DPublish.sol",
  "compiler": {
    "name": "solc",
    "version": "0.8.4+commit.c7e474f2.Emscripten.clang"
  },
  "schemaVersion": "3.4.3",
  "updatedAt": "2021-12-15T02:35:48.021Z",
  "networkType": "ethereum",
  "devdoc": {
    "kind": "dev",
    "methods": {},
    "version": 1
  },
  "userdoc": {
    "kind": "user",
    "methods": {},
    "version": 1
  }
}