{
  "contractName": "DPublish",
  "abi": [
    {
      "inputs": [],
      "stateMutability": "nonpayable",
      "type": "constructor"
    },
    {
      "inputs": [
        {
          "internalType": "uint256",
          "name": "pedido",
          "type": "uint256"
        },
        {
          "internalType": "uint256",
          "name": "disponivel",
          "type": "uint256"
        }
      ],
      "name": "SemFundos",
      "type": "error"
    },
    {
      "anonymous": false,
      "inputs": [
        {
          "indexed": false,
          "internalType": "address",
          "name": "origem",
          "type": "address"
        },
        {
          "indexed": false,
          "internalType": "uint256",
          "name": "quantidade",
          "type": "uint256"
        }
      ],
      "name": "receberPagamentos",
      "type": "event"
    },
    {
      "inputs": [
        {
          "internalType": "address",
          "name": "",
          "type": "address"
        }
      ],
      "name": "balancos",
      "outputs": [
        {
          "internalType": "uint256",
          "name": "",
          "type": "uint256"
        }
      ],
      "stateMutability": "view",
      "type": "function"
    },
    {
      "inputs": [
        {
          "internalType": "string",
          "name": "",
          "type": "string"
        }
      ],
      "name": "recebido",
      "outputs": [
        {
          "internalType": "uint256",
          "name": "",
          "type": "uint256"
        }
      ],
      "stateMutability": "view",
      "type": "function"
    },
    {
      "inputs": [
        {
          "internalType": "string",
          "name": "",
          "type": "string"
        }
      ],
      "name": "submitted_manuscripts",
      "outputs": [
        {
          "internalType": "address",
          "name": "",
          "type": "address"
        }
      ],
      "stateMutability": "view",
      "type": "function"
    },
    {
      "inputs": [],
      "name": "taxa_post",
      "outputs": [
        {
          "internalType": "uint256",
          "name": "",
          "type": "uint256"
        }
      ],
      "stateMutability": "view",
      "type": "function"
    },
    {
      "inputs": [],
      "name": "tempo_rev",
      "outputs": [
        {
          "internalType": "uint16",
          "name": "",
          "type": "uint16"
        }
      ],
      "stateMutability": "view",
      "type": "function"
    },
    {
      "inputs": [
        {
          "internalType": "string",
          "name": "idmanuscript",
          "type": "string"
        }
      ],
      "name": "submit_manuscripts",
      "outputs": [],
      "stateMutability": "payable",
      "type": "function"
    }
  ],
  "bytecode": "0x608060405234801561001057600080fd5b5033600360006101000a81548173ffffffffffffffffffffffffffffffffffffffff021916908373ffffffffffffffffffffffffffffffffffffffff160217905550610639806100616000396000f3fe6080604052600436106100555760003560e01c80631e7e8dec1461005a5780636eb40f7014610076578063ab469b5d146100a1578063b9ccce30146100de578063bc4425221461011b578063f46f4fe514610146575b600080fd5b610074600480360381019061006f9190610408565b610183565b005b34801561008257600080fd5b5061008b610205565b604051610098919061046a565b60405180910390f35b3480156100ad57600080fd5b506100c860048036038101906100c39190610408565b61020b565b6040516100d5919061046a565b60405180910390f35b3480156100ea57600080fd5b50610105600480360381019061010091906104e3565b610239565b604051610112919061046a565b60405180910390f35b34801561012757600080fd5b50610130610251565b60405161013d919061052d565b60405180910390f35b34801561015257600080fd5b5061016d60048036038101906101689190610408565b610265565b60405161017a9190610557565b60405180910390f35b600360009054906101000a900473ffffffffffffffffffffffffffffffffffffffff166000826040516101b691906105ec565b908152602001604051809103902060006101000a81548173ffffffffffffffffffffffffffffffffffffffff021916908373ffffffffffffffffffffffffffffffffffffffff16021790555050565b60045481565b6002818051602081018201805184825260208301602085012081835280955050505050506000915090505481565b60016020528060005260406000206000915090505481565b600560009054906101000a900461ffff1681565b6000818051602081018201805184825260208301602085012081835280955050505050506000915054906101000a900473ffffffffffffffffffffffffffffffffffffffff1681565b6000604051905090565b600080fd5b600080fd5b600080fd5b600080fd5b6000601f19601f8301169050919050565b7f4e487b7100000000000000000000000000000000000000000000000000000000600052604160045260246000fd5b610315826102cc565b810181811067ffffffffffffffff82111715610334576103336102dd565b5b80604052505050565b60006103476102ae565b9050610353828261030c565b919050565b600067ffffffffffffffff821115610373576103726102dd565b5b61037c826102cc565b9050602081019050919050565b82818337600083830152505050565b60006103ab6103a684610358565b61033d565b9050828152602081018484840111156103c7576103c66102c7565b5b6103d2848285610389565b509392505050565b600082601f8301126103ef576103ee6102c2565b5b81356103ff848260208601610398565b91505092915050565b60006020828403121561041e5761041d6102b8565b5b600082013567ffffffffffffffff81111561043c5761043b6102bd565b5b610448848285016103da565b91505092915050565b6000819050919050565b61046481610451565b82525050565b600060208201905061047f600083018461045b565b92915050565b600073ffffffffffffffffffffffffffffffffffffffff82169050919050565b60006104b082610485565b9050919050565b6104c0816104a5565b81146104cb57600080fd5b50565b6000813590506104dd816104b7565b92915050565b6000602082840312156104f9576104f86102b8565b5b6000610507848285016104ce565b91505092915050565b600061ffff82169050919050565b61052781610510565b82525050565b6000602082019050610542600083018461051e565b92915050565b610551816104a5565b82525050565b600060208201905061056c6000830184610548565b92915050565b600081519050919050565b600081905092915050565b60005b838110156105a657808201518184015260208101905061058b565b838111156105b5576000848401525b50505050565b60006105c682610572565b6105d0818561057d565b93506105e0818560208601610588565b80840191505092915050565b60006105f882846105bb565b91508190509291505056fea2646970667358221220ef86ccae99fa3bef1d01ec714d107ffc0944195969b953b0f4e42faa29b0c57464736f6c634300080a0033",
  "immutableReferences": {},
  "source": "// SPDX-License-Identifier: MIT\npragma solidity ^0.8.2;\n\nimport \"@openzeppelin/contracts/utils/Context.sol\";\nimport \"@openzeppelin/contracts/utils/Address.sol\";\n\ncontract DPublish {\n    mapping(string => address) public submitted_manuscripts;\n    mapping(address => uint256) public balancos; \n    mapping(string => uint256) public recebido; \n\n    address private instance;\n    uint256 public taxa_post;\n    uint16 public tempo_rev;\n\n    event receberPagamentos(address origem, uint256 quantidade);\n    error SemFundos(uint256 pedido, uint256 disponivel);\n\n    constructor(){\n        instance = msg.sender;\n    } \n\n    /**\n    * Submit manuscript\n     */\n\n    // No tenho tenho certeza se o tipo da funo  payable\n    function submit_manuscripts(string memory idmanuscript) public payable{\n        submitted_manuscripts[idmanuscript] = instance;\n    }\n    //function taxa(uint256, fee) public payable{\n\n    //}\n\n}",
  "sourcePath": "/media/ary/HD/ary/Documents/4P/CRYPTO/A2/Dpublish/contracts/DPublish.sol",
  "compiler": {
    "name": "solc",
    "version": "0.8.10+commit.fc410830.Emscripten.clang"
  },
  "schemaVersion": "3.4.3",
  "updatedAt": "2021-12-15T00:24:58.934Z",
  "devdoc": {
    "kind": "dev",
    "methods": {},
    "version": 1
  },
  "userdoc": {
    "kind": "user",
    "methods": {
      "submit_manuscripts(string)": {
        "notice": "Submit manuscript"
      }
    },
    "version": 1
  }
}