{
  "contractName": "DPublish",
  "abi": [
    {
      "inputs": [],
      "stateMutability": "nonpayable",
      "type": "constructor"
    },
    {
      "anonymous": false,
      "inputs": [
        {
          "indexed": false,
          "internalType": "address",
          "name": "from",
          "type": "address"
        },
        {
          "indexed": false,
          "internalType": "uint256",
          "name": "amount",
          "type": "uint256"
        }
      ],
      "name": "PaymentReceived",
      "type": "event"
    },
    {
      "inputs": [],
      "name": "actual_fee",
      "outputs": [
        {
          "internalType": "uint256",
          "name": "",
          "type": "uint256"
        }
      ],
      "stateMutability": "view",
      "type": "function",
      "constant": true
    },
    {
      "inputs": [],
      "name": "payed_value",
      "outputs": [
        {
          "internalType": "uint256",
          "name": "",
          "type": "uint256"
        }
      ],
      "stateMutability": "view",
      "type": "function",
      "constant": true
    },
    {
      "inputs": [
        {
          "internalType": "address",
          "name": "",
          "type": "address"
        }
      ],
      "name": "review_completed",
      "outputs": [
        {
          "internalType": "string",
          "name": "",
          "type": "string"
        }
      ],
      "stateMutability": "view",
      "type": "function",
      "constant": true
    },
    {
      "inputs": [
        {
          "internalType": "address",
          "name": "",
          "type": "address"
        }
      ],
      "name": "reviewer_list",
      "outputs": [
        {
          "internalType": "bool",
          "name": "",
          "type": "bool"
        }
      ],
      "stateMutability": "view",
      "type": "function",
      "constant": true
    },
    {
      "inputs": [
        {
          "internalType": "string",
          "name": "",
          "type": "string"
        }
      ],
      "name": "submitted_manuscripts",
      "outputs": [
        {
          "internalType": "address",
          "name": "",
          "type": "address"
        }
      ],
      "stateMutability": "view",
      "type": "function",
      "constant": true
    },
    {
      "inputs": [
        {
          "internalType": "address",
          "name": "",
          "type": "address"
        }
      ],
      "name": "wallet_amount",
      "outputs": [
        {
          "internalType": "uint256",
          "name": "",
          "type": "uint256"
        }
      ],
      "stateMutability": "view",
      "type": "function",
      "constant": true
    },
    {
      "inputs": [
        {
          "internalType": "string",
          "name": "idmanuscript",
          "type": "string"
        }
      ],
      "name": "submit_manuscript",
      "outputs": [],
      "stateMutability": "payable",
      "type": "function",
      "payable": true
    },
    {
      "inputs": [
        {
          "internalType": "address",
          "name": "account",
          "type": "address"
        }
      ],
      "name": "authorize_payment",
      "outputs": [
        {
          "internalType": "bool",
          "name": "",
          "type": "bool"
        }
      ],
      "stateMutability": "view",
      "type": "function",
      "constant": true
    },
    {
      "inputs": [
        {
          "internalType": "address",
          "name": "account",
          "type": "address"
        }
      ],
      "name": "get_balance",
      "outputs": [
        {
          "internalType": "uint256",
          "name": "",
          "type": "uint256"
        }
      ],
      "stateMutability": "view",
      "type": "function",
      "constant": true
    },
    {
      "inputs": [
        {
          "internalType": "uint256",
          "name": "amount",
          "type": "uint256"
        }
      ],
      "name": "set_fee",
      "outputs": [],
      "stateMutability": "payable",
      "type": "function",
      "payable": true
    },
    {
      "inputs": [
        {
          "internalType": "address",
          "name": "account",
          "type": "address"
        },
        {
          "internalType": "uint256",
          "name": "amount",
          "type": "uint256"
        }
      ],
      "name": "set_balance",
      "outputs": [],
      "stateMutability": "nonpayable",
      "type": "function"
    },
    {
      "inputs": [
        {
          "internalType": "address",
          "name": "account",
          "type": "address"
        }
      ],
      "name": "assign_reviewer",
      "outputs": [],
      "stateMutability": "nonpayable",
      "type": "function"
    },
    {
      "inputs": [
        {
          "internalType": "string",
          "name": "review_link",
          "type": "string"
        }
      ],
      "name": "review_article",
      "outputs": [],
      "stateMutability": "nonpayable",
      "type": "function"
    }
  ],
  "bytecode": "0x608060405261271060085534801561001657600080fd5b5033600560006101000a81548173ffffffffffffffffffffffffffffffffffffffff021916908373ffffffffffffffffffffffffffffffffffffffff1602179055506113f5806100676000396000f3fe6080604052600436106100c25760003560e01c80634c4320531161007f578063cdeca25211610059578063cdeca2521461026b578063e1938f1414610287578063f46f4fe5146102c4578063f52fc3ca14610301576100c2565b80634c432053146101da578063a17dc98a14610203578063bb22cae51461022e576100c2565b80630776e4fa146100c757806315338db3146100f05780631aa02d591461011b5780631d566590146101375780631e279a37146101745780632da2e06e146101b1575b600080fd5b3480156100d357600080fd5b506100ee60048036038101906100e99190610ca7565b61033e565b005b3480156100fc57600080fd5b506101056103e0565b6040516101129190610fcb565b60405180910390f35b61013560048036038101906101309190610d24565b6103e6565b005b34801561014357600080fd5b5061015e60048036038101906101599190610c7e565b6104c4565b60405161016b9190610eee565b60405180910390f35b34801561018057600080fd5b5061019b60048036038101906101969190610c7e565b6104e4565b6040516101a89190610fcb565b60405180910390f35b3480156101bd57600080fd5b506101d860048036038101906101d39190610ce3565b61059b565b005b3480156101e657600080fd5b5061020160048036038101906101fc9190610c7e565b61068e565b005b34801561020f57600080fd5b5061021861080d565b6040516102259190610fcb565b60405180910390f35b34801561023a57600080fd5b5061025560048036038101906102509190610c7e565b610813565b6040516102629190610eee565b60405180910390f35b61028560048036038101906102809190610ce3565b61086f565b005b34801561029357600080fd5b506102ae60048036038101906102a99190610c7e565b610928565b6040516102bb9190610f09565b60405180910390f35b3480156102d057600080fd5b506102eb60048036038101906102e69190610ce3565b6109c8565b6040516102f89190610eaa565b60405180910390f35b34801561030d57600080fd5b5061032860048036038101906103239190610c7e565b610a11565b6040516103359190610fcb565b60405180910390f35b600560009054906101000a900473ffffffffffffffffffffffffffffffffffffffff1673ffffffffffffffffffffffffffffffffffffffff163373ffffffffffffffffffffffffffffffffffffffff161461039857600080fd5b80600160008473ffffffffffffffffffffffffffffffffffffffff1673ffffffffffffffffffffffffffffffffffffffff168152602001908152602001600020819055505050565b60065481565b600560009054906101000a900473ffffffffffffffffffffffffffffffffffffffff1673ffffffffffffffffffffffffffffffffffffffff163373ffffffffffffffffffffffffffffffffffffffff1614610476576040517f08c379a000000000000000000000000000000000000000000000000000000000815260040161046d90610f4b565b60405180910390fd5b60085481116104ba576040517f08c379a00000000000000000000000000000000000000000000000000000000081526004016104b190610f2b565b60405180910390fd5b8060068190555050565b60036020528060005260406000206000915054906101000a900460ff1681565b60008173ffffffffffffffffffffffffffffffffffffffff163373ffffffffffffffffffffffffffffffffffffffff1614610554576040517f08c379a000000000000000000000000000000000000000000000000000000000815260040161054b90610f4b565b60405180910390fd5b600160008373ffffffffffffffffffffffffffffffffffffffff1673ffffffffffffffffffffffffffffffffffffffff168152602001908152602001600020549050919050565b60011515600360003373ffffffffffffffffffffffffffffffffffffffff1673ffffffffffffffffffffffffffffffffffffffff16815260200190815260200160002060009054906101000a900460ff1615151461062e576040517f08c379a000000000000000000000000000000000000000000000000000000000815260040161062590610f4b565b60405180910390fd5b80600260003373ffffffffffffffffffffffffffffffffffffffff1673ffffffffffffffffffffffffffffffffffffffff1681526020019081526020016000209080519060200190610681929190610b49565b5061068b33610a29565b50565b600560009054906101000a900473ffffffffffffffffffffffffffffffffffffffff1673ffffffffffffffffffffffffffffffffffffffff163373ffffffffffffffffffffffffffffffffffffffff161461071e576040517f08c379a000000000000000000000000000000000000000000000000000000000815260040161071590610f4b565b60405180910390fd5b60011515600360008373ffffffffffffffffffffffffffffffffffffffff1673ffffffffffffffffffffffffffffffffffffffff16815260200190815260200160002060009054906101000a900460ff16151514156107b2576040517f08c379a00000000000000000000000000000000000000000000000000000000081526004016107a990610f6b565b60405180910390fd5b6001600360008373ffffffffffffffffffffffffffffffffffffffff1673ffffffffffffffffffffffffffffffffffffffff16815260200190815260200160002060006101000a81548160ff02191690831515021790555050565b60075481565b60008061081f836104e4565b90506006548110610865576040517f08c379a000000000000000000000000000000000000000000000000000000000815260040161085c90610fab565b60405180910390fd5b6001915050919050565b336000826040516108809190610e93565b908152602001604051809103902060006101000a81548173ffffffffffffffffffffffffffffffffffffffff021916908373ffffffffffffffffffffffffffffffffffffffff16021790555060006108d733610813565b905080156108e9576108e833610ae5565b5b7f6ef95f06320e7a25a04a175ca677b7052bdd97131872c2192525a629f51be7703360065460405161091c929190610ec5565b60405180910390a15050565b6002602052806000526040600020600091509050805461094790611177565b80601f016020809104026020016040519081016040528092919081815260200182805461097390611177565b80156109c05780601f10610995576101008083540402835291602001916109c0565b820191906000526020600020905b8154815290600101906020018083116109a357829003601f168201915b505050505081565b6000818051602081018201805184825260208301602085012081835280955050505050506000915054906101000a900473ffffffffffffffffffffffffffffffffffffffff1681565b60016020528060005260406000206000915090505481565b60065460075414610a6f576040517f08c379a0000000000000000000000000000000000000000000000000000000008152600401610a6690610f8b565b60405180910390fd5b600654600160008373ffffffffffffffffffffffffffffffffffffffff1673ffffffffffffffffffffffffffffffffffffffff1681526020019081526020016000206000828254610ac09190611063565b9250508190555060065460076000828254610adb91906110b9565b9250508190555050565b600654600160008373ffffffffffffffffffffffffffffffffffffffff1673ffffffffffffffffffffffffffffffffffffffff1681526020019081526020016000206000828254610b3691906110b9565b9250508190555060065460078190555050565b828054610b5590611177565b90600052602060002090601f016020900481019282610b775760008555610bbe565b82601f10610b9057805160ff1916838001178555610bbe565b82800160010185558215610bbe579182015b82811115610bbd578251825591602001919060010190610ba2565b5b509050610bcb9190610bcf565b5090565b5b80821115610be8576000816000905550600101610bd0565b5090565b6000610bff610bfa8461100b565b610fe6565b905082815260208101848484011115610c1757600080fd5b610c22848285611135565b509392505050565b600081359050610c3981611391565b92915050565b600082601f830112610c5057600080fd5b8135610c60848260208601610bec565b91505092915050565b600081359050610c78816113a8565b92915050565b600060208284031215610c9057600080fd5b6000610c9e84828501610c2a565b91505092915050565b60008060408385031215610cba57600080fd5b6000610cc885828601610c2a565b9250506020610cd985828601610c69565b9150509250929050565b600060208284031215610cf557600080fd5b600082013567ffffffffffffffff811115610d0f57600080fd5b610d1b84828501610c3f565b91505092915050565b600060208284031215610d3657600080fd5b6000610d4484828501610c69565b91505092915050565b610d56816110ed565b82525050565b610d65816110ff565b82525050565b6000610d768261103c565b610d808185611047565b9350610d90818560208601611144565b610d9981611267565b840191505092915050565b6000610daf8261103c565b610db98185611058565b9350610dc9818560208601611144565b80840191505092915050565b6000610de2601783611047565b9150610ded82611278565b602082019050919050565b6000610e05602283611047565b9150610e10826112a1565b604082019050919050565b6000610e28602783611047565b9150610e33826112f0565b604082019050919050565b6000610e4b600583611047565b9150610e568261133f565b602082019050919050565b6000610e6e601183611047565b9150610e7982611368565b602082019050919050565b610e8d8161112b565b82525050565b6000610e9f8284610da4565b915081905092915050565b6000602082019050610ebf6000830184610d4d565b92915050565b6000604082019050610eda6000830185610d4d565b610ee76020830184610e84565b9392505050565b6000602082019050610f036000830184610d5c565b92915050565b60006020820190508181036000830152610f238184610d6b565b905092915050565b60006020820190508181036000830152610f4481610dd5565b9050919050565b60006020820190508181036000830152610f6481610df8565b9050919050565b60006020820190508181036000830152610f8481610e1b565b9050919050565b60006020820190508181036000830152610fa481610e3e565b9050919050565b60006020820190508181036000830152610fc481610e61565b9050919050565b6000602082019050610fe06000830184610e84565b92915050565b6000610ff0611001565b9050610ffc82826111a9565b919050565b6000604051905090565b600067ffffffffffffffff82111561102657611025611238565b5b61102f82611267565b9050602081019050919050565b600081519050919050565b600082825260208201905092915050565b600081905092915050565b600061106e8261112b565b91506110798361112b565b9250827fffffffffffffffffffffffffffffffffffffffffffffffffffffffffffffffff038211156110ae576110ad6111da565b5b828201905092915050565b60006110c48261112b565b91506110cf8361112b565b9250828210156110e2576110e16111da565b5b828203905092915050565b60006110f88261110b565b9050919050565b60008115159050919050565b600073ffffffffffffffffffffffffffffffffffffffff82169050919050565b6000819050919050565b82818337600083830152505050565b60005b83811015611162578082015181840152602081019050611147565b83811115611171576000848401525b50505050565b6000600282049050600182168061118f57607f821691505b602082108114156111a3576111a2611209565b5b50919050565b6111b282611267565b810181811067ffffffffffffffff821117156111d1576111d0611238565b5b80604052505050565b7f4e487b7100000000000000000000000000000000000000000000000000000000600052601160045260246000fd5b7f4e487b7100000000000000000000000000000000000000000000000000000000600052602260045260246000fd5b7f4e487b7100000000000000000000000000000000000000000000000000000000600052604160045260246000fd5b6000601f19601f8301169050919050565b7f596f757220666565206d75737420626520686967686572000000000000000000600082015250565b7f596f7520646f6e27742068617665207065726d697373696f6e20666f7220746860008201527f6174000000000000000000000000000000000000000000000000000000000000602082015250565b7f54686973206163636f756e7420697320616c72656164792066726f6d2061207260008201527f6576696577657200000000000000000000000000000000000000000000000000602082015250565b7f4572726f72000000000000000000000000000000000000000000000000000000600082015250565b7f4e6f7420656e6f75676820746f6b656e73000000000000000000000000000000600082015250565b61139a816110ed565b81146113a557600080fd5b50565b6113b18161112b565b81146113bc57600080fd5b5056fea2646970667358221220ac4fc5dd1bfc5901b587003e457adb088d2d2cad5bb9ca9a6b4fa86d15f7712764736f6c63430008040033",
  "immutableReferences": {},
  "source": "// SPDX-License-Identifier: MIT\npragma solidity ^0.8.4;\n\ncontract DPublish {\n\n    mapping(string => address) public submitted_manuscripts;\n    mapping(address => uint256) public wallet_amount; // armazena o total da carteira\n    mapping (address => string) public review_completed; // armazena os links dos artigos revisados\n    mapping(address => bool) public reviewer_list;\n    \n    address private reviewr; // endereo do revisor\n    address private editor; // endereo do revisor\n    uint256 public actual_fee; // taxa pela revisao\n    uint256 public payed_value; \n    uint256 min_fee = 10000; // taxa mnima\n    // no futuro, este valor dever ser mutvel por um usuio com permisso (comit)\n    \n    event PaymentReceived(address from, uint256 amount);\n\n    constructor(){\n        // o autor do contrato  o revisor\n        editor = msg.sender;\n    }\n\n    function submit_manuscript(string memory idmanuscript) public payable{\n        \n        submitted_manuscripts[idmanuscript] = msg.sender;\n\n        // verifica possibilidade de pagamento\n        bool payment_authorize = authorize_payment(msg.sender); \n\n        if (payment_authorize)\n    \n        // realizando pagamento da reviso:\n        make_payment(msg.sender);\n        \n        emit PaymentReceived(msg.sender, actual_fee);\n    }\n\n    function authorize_payment(address account) public view returns (bool){\n        // authorize payment\n        uint256 account_amount = get_balance(account);\n        require(account_amount < actual_fee, \"Not enough tokens\");\n        return true;\n    }\n\n    function get_balance(address account) public view returns (uint) {\n        // get account balance\n        require(msg.sender == account , \"You don't have permission for that\");\n        return wallet_amount[account];\n    }\n\n\n    function set_fee(uint256 amount) public payable{\n        // set revieww fee \n        require(msg.sender == editor, \"You don't have permission for that\");\n        require(amount > min_fee, \"Your fee must be higher\");\n        actual_fee = amount;\n    }\n\n    function set_balance(address account, uint256 amount) public{\n        // set wallet balance for account\n        require(msg.sender == editor);\n        wallet_amount[account] = amount;\n    }\n\n    function assign_reviewer(address account) public{\n        // only editor can assign reviewers\n        require(msg.sender == editor, \"You don't have permission for that\");\n        require(!(reviewer_list[account]==true), \"This account is already from a reviewer\");\n        reviewer_list[account] = true;\n    }\n\n    function review_article(string memory review_link) public{\n        // publica o link do artigo revisado e recebe o pagamento\n        require(reviewer_list[msg.sender]==true, \"You don't have permission for that\");\n        review_completed[msg.sender] = review_link;\n        receive_payment(msg.sender);\n    }\n\n    function receive_payment(address reviewer) private{\n        require(payed_value == actual_fee, \"Error\");\n        wallet_amount[reviewer] += actual_fee;\n        payed_value -= actual_fee; // evita pagamentos multiplos\n    }\n\n    function make_payment(address author) private{\n        wallet_amount[author] -= actual_fee;\n        payed_value = actual_fee; // armazena o valor pago\n    }\n\n    \n\n\n}",
  "sourcePath": "/home/livia/Documentos/FGV/Cripto/Dpublish/contracts/DPublish.sol",
  "compiler": {
    "name": "solc",
    "version": "0.8.4+commit.c7e474f2.Emscripten.clang"
  },
  "schemaVersion": "3.4.3",
  "updatedAt": "2021-12-16T00:31:57.641Z",
  "networkType": "ethereum",
  "devdoc": {
    "kind": "dev",
    "methods": {},
    "version": 1
  },
  "userdoc": {
    "kind": "user",
    "methods": {},
    "version": 1
  }
}