{
  "contractName": "DPublish",
  "abi": [
    {
      "inputs": [],
      "stateMutability": "nonpayable",
      "type": "constructor"
    },
    {
      "anonymous": false,
      "inputs": [
        {
          "indexed": true,
          "internalType": "address",
          "name": "_address",
          "type": "address"
        }
      ],
      "name": "GetDocsPublished",
      "type": "event"
    },
    {
      "anonymous": false,
      "inputs": [
        {
          "indexed": true,
          "internalType": "string",
          "name": "_name",
          "type": "string"
        },
        {
          "indexed": true,
          "internalType": "string",
          "name": "_contentLlink",
          "type": "string"
        },
        {
          "indexed": false,
          "internalType": "int256",
          "name": "amount",
          "type": "int256"
        }
      ],
      "name": "NewDoc",
      "type": "event"
    },
    {
      "anonymous": false,
      "inputs": [
        {
          "components": [
            {
              "internalType": "address",
              "name": "owner",
              "type": "address"
            },
            {
              "internalType": "string",
              "name": "name",
              "type": "string"
            },
            {
              "internalType": "enum DPublish.StatusDoc",
              "name": "status",
              "type": "uint8"
            },
            {
              "internalType": "string",
              "name": "contentLink",
              "type": "string"
            },
            {
              "internalType": "uint256",
              "name": "priority",
              "type": "uint256"
            },
            {
              "internalType": "uint256",
              "name": "paperID",
              "type": "uint256"
            }
          ],
          "indexed": true,
          "internalType": "struct DPublish.PublishDoc",
          "name": "_doc",
          "type": "tuple"
        },
        {
          "indexed": false,
          "internalType": "address",
          "name": "_reviewer",
          "type": "address"
        }
      ],
      "name": "Revised",
      "type": "event"
    },
    {
      "anonymous": false,
      "inputs": [
        {
          "indexed": true,
          "internalType": "address",
          "name": "from",
          "type": "address"
        },
        {
          "indexed": true,
          "internalType": "address",
          "name": "to",
          "type": "address"
        },
        {
          "indexed": false,
          "internalType": "uint256",
          "name": "value",
          "type": "uint256"
        }
      ],
      "name": "Transfer",
      "type": "event"
    },
    {
      "anonymous": false,
      "inputs": [
        {
          "indexed": true,
          "internalType": "address",
          "name": "_address",
          "type": "address"
        }
      ],
      "name": "etReviews",
      "type": "event"
    },
    {
      "inputs": [],
      "name": "paperNFT",
      "outputs": [
        {
          "internalType": "contract PaperToken",
          "name": "",
          "type": "address"
        }
      ],
      "stateMutability": "view",
      "type": "function"
    },
    {
      "inputs": [],
      "name": "plublisher",
      "outputs": [
        {
          "internalType": "address",
          "name": "",
          "type": "address"
        }
      ],
      "stateMutability": "view",
      "type": "function"
    },
    {
      "inputs": [],
      "name": "reviewNFT",
      "outputs": [
        {
          "internalType": "contract ReviewToken",
          "name": "",
          "type": "address"
        }
      ],
      "stateMutability": "view",
      "type": "function"
    },
    {
      "inputs": [],
      "name": "token",
      "outputs": [
        {
          "internalType": "contract DPubToken",
          "name": "",
          "type": "address"
        }
      ],
      "stateMutability": "view",
      "type": "function"
    },
    {
      "inputs": [
        {
          "internalType": "string",
          "name": "_name",
          "type": "string"
        },
        {
          "internalType": "string",
          "name": "_contentLlink",
          "type": "string"
        },
        {
          "internalType": "uint256",
          "name": "amount",
          "type": "uint256"
        }
      ],
      "name": "newDoc",
      "outputs": [
        {
          "internalType": "string",
          "name": "",
          "type": "string"
        }
      ],
      "stateMutability": "nonpayable",
      "type": "function"
    },
    {
      "inputs": [
        {
          "internalType": "address",
          "name": "_address",
          "type": "address"
        }
      ],
      "name": "getDocsPublished",
      "outputs": [
        {
          "components": [
            {
              "internalType": "address",
              "name": "owner",
              "type": "address"
            },
            {
              "internalType": "string",
              "name": "name",
              "type": "string"
            },
            {
              "internalType": "enum DPublish.StatusDoc",
              "name": "status",
              "type": "uint8"
            },
            {
              "internalType": "string",
              "name": "contentLink",
              "type": "string"
            },
            {
              "internalType": "uint256",
              "name": "priority",
              "type": "uint256"
            },
            {
              "internalType": "uint256",
              "name": "paperID",
              "type": "uint256"
            }
          ],
          "internalType": "struct DPublish.PublishDoc[]",
          "name": "",
          "type": "tuple[]"
        }
      ],
      "stateMutability": "view",
      "type": "function"
    },
    {
      "inputs": [
        {
          "components": [
            {
              "internalType": "address",
              "name": "owner",
              "type": "address"
            },
            {
              "internalType": "string",
              "name": "name",
              "type": "string"
            },
            {
              "internalType": "enum DPublish.StatusDoc",
              "name": "status",
              "type": "uint8"
            },
            {
              "internalType": "string",
              "name": "contentLink",
              "type": "string"
            },
            {
              "internalType": "uint256",
              "name": "priority",
              "type": "uint256"
            },
            {
              "internalType": "uint256",
              "name": "paperID",
              "type": "uint256"
            }
          ],
          "internalType": "struct DPublish.PublishDoc",
          "name": "doc",
          "type": "tuple"
        },
        {
          "internalType": "address",
          "name": "reviewer",
          "type": "address"
        }
      ],
      "name": "revised",
      "outputs": [
        {
          "internalType": "bool",
          "name": "",
          "type": "bool"
        }
      ],
      "stateMutability": "nonpayable",
      "type": "function"
    },
    {
      "inputs": [
        {
          "internalType": "address",
          "name": "_address",
          "type": "address"
        }
      ],
      "name": "getReviews",
      "outputs": [
        {
          "components": [
            {
              "internalType": "address",
              "name": "owner",
              "type": "address"
            },
            {
              "internalType": "string",
              "name": "name",
              "type": "string"
            },
            {
              "internalType": "enum DPublish.StatusDoc",
              "name": "status",
              "type": "uint8"
            },
            {
              "internalType": "string",
              "name": "contentLink",
              "type": "string"
            },
            {
              "internalType": "uint256",
              "name": "priority",
              "type": "uint256"
            },
            {
              "internalType": "uint256",
              "name": "paperID",
              "type": "uint256"
            }
          ],
          "internalType": "struct DPublish.PublishDoc[]",
          "name": "",
          "type": "tuple[]"
        }
      ],
      "stateMutability": "view",
      "type": "function"
    }
  ],
  "bytecode": "0x60806040526127106004553480156200001757600080fd5b50336000806101000a81548173ffffffffffffffffffffffffffffffffffffffff021916908373ffffffffffffffffffffffffffffffffffffffff1602179055506040516200006690620001a2565b604051809103906000f08015801562000083573d6000803e3d6000fd5b50600160006101000a81548173ffffffffffffffffffffffffffffffffffffffff021916908373ffffffffffffffffffffffffffffffffffffffff160217905550604051620000d290620001b0565b604051809103906000f080158015620000ef573d6000803e3d6000fd5b50600260006101000a81548173ffffffffffffffffffffffffffffffffffffffff021916908373ffffffffffffffffffffffffffffffffffffffff1602179055506040516200013e90620001be565b604051809103906000f0801580156200015b573d6000803e3d6000fd5b50600360006101000a81548173ffffffffffffffffffffffffffffffffffffffff021916908373ffffffffffffffffffffffffffffffffffffffff160217905550620001cc565b614dad806200273d83390190565b61308f80620074ea83390190565b61303f806200a57983390190565b61256180620001dc6000396000f3fe608060405234801561001057600080fd5b50600436106100885760003560e01c8063c0f7cb601161005b578063c0f7cb6014610129578063ec6b23bf14610147578063fc0c546a14610177578063fec59e161461019557610088565b8063353a173f1461008d5780634ef5a017146100ab5780638bd72dec146100db578063b94199291461010b575b600080fd5b6100956101c5565b6040516100a29190611f82565b60405180910390f35b6100c560048036038101906100c09190611ac1565b6101eb565b6040516100d29190611f2a565b60405180910390f35b6100f560048036038101906100f09190611b92565b6104a1565b6040516101029190611f4c565b60405180910390f35b610113610d53565b6040516101209190611f9d565b60405180910390f35b610131610d79565b60405161013e9190611eaf565b60405180910390f35b610161600480360381019061015c9190611ac1565b610d9d565b60405161016e9190611f2a565b60405180910390f35b61017f61129c565b60405161018c9190611f67565b60405180910390f35b6101af60048036038101906101aa9190611b13565b6112c2565b6040516101bc9190611fb8565b60405180910390f35b600260009054906101000a900473ffffffffffffffffffffffffffffffffffffffff1681565b6060600660008373ffffffffffffffffffffffffffffffffffffffff1673ffffffffffffffffffffffffffffffffffffffff168152602001908152602001600020600101805480602002602001604051908101604052809291908181526020016000905b8282101561049657838290600052602060002090600602016040518060c00160405290816000820160009054906101000a900473ffffffffffffffffffffffffffffffffffffffff1673ffffffffffffffffffffffffffffffffffffffff1673ffffffffffffffffffffffffffffffffffffffff1681526020016001820180546102d890612311565b80601f016020809104026020016040519081016040528092919081815260200182805461030490612311565b80156103515780601f1061032657610100808354040283529160200191610351565b820191906000526020600020905b81548152906001019060200180831161033457829003601f168201915b505050505081526020016002820160009054906101000a900460ff1660028111156103a5577f4e487b7100000000000000000000000000000000000000000000000000000000600052602160045260246000fd5b60028111156103dd577f4e487b7100000000000000000000000000000000000000000000000000000000600052602160045260246000fd5b81526020016003820180546103f190612311565b80601f016020809104026020016040519081016040528092919081815260200182805461041d90612311565b801561046a5780601f1061043f5761010080835404028352916020019161046a565b820191906000526020600020905b81548152906001019060200180831161044d57829003601f168201915b50505050508152602001600482015481526020016005820154815250508152602001906001019061024f565b505050509050919050565b60006002808111156104dc577f4e487b7100000000000000000000000000000000000000000000000000000000600052602160045260246000fd5b83604001516002811115610519577f4e487b7100000000000000000000000000000000000000000000000000000000600052602160045260246000fd5b14156105285760009050610d4d565b60008273ffffffffffffffffffffffffffffffffffffffff16600785602001516040516105559190611e98565b908152602001604051809103902060009054906101000a900473ffffffffffffffffffffffffffffffffffffffff1673ffffffffffffffffffffffffffffffffffffffff1614156105a95760009050610699565b600160009054906101000a900473ffffffffffffffffffffffffffffffffffffffff1673ffffffffffffffffffffffffffffffffffffffff166323b872dd60008054906101000a900473ffffffffffffffffffffffffffffffffffffffff168560056002896080015161061c9190612168565b6106269190612137565b6040518463ffffffff1660e01b815260040161064493929190611eca565b602060405180830381600087803b15801561065e57600080fd5b505af1158015610672573d6000803e3d6000fd5b505050506040513d601f19601f820116820180604052508101906106969190611aea565b90505b600060028111156106d3577f4e487b7100000000000000000000000000000000000000000000000000000000600052602160045260246000fd5b84604001516002811115610710577f4e487b7100000000000000000000000000000000000000000000000000000000600052602160045260246000fd5b14801561071a5750805b156109f257600360009054906101000a900473ffffffffffffffffffffffffffffffffffffffff1673ffffffffffffffffffffffffffffffffffffffff1663a144819485600001518660a001516040518363ffffffff1660e01b8152600401610784929190611f01565b600060405180830381600087803b15801561079e57600080fd5b505af11580156107b2573d6000803e3d6000fd5b505050506001846040019060028111156107f5577f4e487b7100000000000000000000000000000000000000000000000000000000600052602160045260246000fd5b9081600281111561082f577f4e487b7100000000000000000000000000000000000000000000000000000000600052602160045260246000fd5b8152505082600785602001516040516108489190611e98565b908152602001604051809103902060006101000a81548173ffffffffffffffffffffffffffffffffffffffff021916908373ffffffffffffffffffffffffffffffffffffffff160217905550600660008473ffffffffffffffffffffffffffffffffffffffff1673ffffffffffffffffffffffffffffffffffffffff16815260200190815260200160002060010184908060018154018082558091505060019003906000526020600020906006020160009091909190915060008201518160000160006101000a81548173ffffffffffffffffffffffffffffffffffffffff021916908373ffffffffffffffffffffffffffffffffffffffff16021790555060208201518160010190805190602001906109639291906117fd565b5060408201518160020160006101000a81548160ff021916908360028111156109b5577f4e487b7100000000000000000000000000000000000000000000000000000000600052602160045260246000fd5b021790555060608201518160030190805190602001906109d69291906117fd565b506080820151816004015560a082015181600501555050610d48565b60016002811115610a2c577f4e487b7100000000000000000000000000000000000000000000000000000000600052602160045260246000fd5b84604001516002811115610a69577f4e487b7100000000000000000000000000000000000000000000000000000000600052602160045260246000fd5b148015610a735750805b15610d4757600360009054906101000a900473ffffffffffffffffffffffffffffffffffffffff1673ffffffffffffffffffffffffffffffffffffffff1663a144819485600001518660a001516040518363ffffffff1660e01b8152600401610add929190611f01565b600060405180830381600087803b158015610af757600080fd5b505af1158015610b0b573d6000803e3d6000fd5b50505050600284604001906002811115610b4e577f4e487b7100000000000000000000000000000000000000000000000000000000600052602160045260246000fd5b90816002811115610b88577f4e487b7100000000000000000000000000000000000000000000000000000000600052602160045260246000fd5b815250508260088560200151604051610ba19190611e98565b908152602001604051809103902060006101000a81548173ffffffffffffffffffffffffffffffffffffffff021916908373ffffffffffffffffffffffffffffffffffffffff160217905550600660008473ffffffffffffffffffffffffffffffffffffffff1673ffffffffffffffffffffffffffffffffffffffff16815260200190815260200160002060010184908060018154018082558091505060019003906000526020600020906006020160009091909190915060008201518160000160006101000a81548173ffffffffffffffffffffffffffffffffffffffff021916908373ffffffffffffffffffffffffffffffffffffffff1602179055506020820151816001019080519060200190610cbc9291906117fd565b5060408201518160020160006101000a81548160ff02191690836002811115610d0e577f4e487b7100000000000000000000000000000000000000000000000000000000600052602160045260246000fd5b02179055506060820151816003019080519060200190610d2f9291906117fd565b506080820151816004015560a0820151816005015550505b5b809150505b92915050565b600360009054906101000a900473ffffffffffffffffffffffffffffffffffffffff1681565b60008054906101000a900473ffffffffffffffffffffffffffffffffffffffff1681565b60606000806000600660008673ffffffffffffffffffffffffffffffffffffffff1673ffffffffffffffffffffffffffffffffffffffff16815260200190815260200160002060020154905060008167ffffffffffffffff811115610e2b577f4e487b7100000000000000000000000000000000000000000000000000000000600052604160045260246000fd5b604051908082528060200260200182016040528015610e6457816020015b610e51611883565b815260200190600190039081610e495790505b5090505b8184101561129057600280811115610ea9577f4e487b7100000000000000000000000000000000000000000000000000000000600052602160045260246000fd5b600660008873ffffffffffffffffffffffffffffffffffffffff1673ffffffffffffffffffffffffffffffffffffffff1681526020019081526020016000206000018581548110610f23577f4e487b7100000000000000000000000000000000000000000000000000000000600052603260045260246000fd5b906000526020600020906006020160020160009054906101000a900460ff166002811115610f7a577f4e487b7100000000000000000000000000000000000000000000000000000000600052602160045260246000fd5b141561126d57600660008773ffffffffffffffffffffffffffffffffffffffff1673ffffffffffffffffffffffffffffffffffffffff1681526020019081526020016000206000018481548110610ffa577f4e487b7100000000000000000000000000000000000000000000000000000000600052603260045260246000fd5b90600052602060002090600602016040518060c00160405290816000820160009054906101000a900473ffffffffffffffffffffffffffffffffffffffff1673ffffffffffffffffffffffffffffffffffffffff1673ffffffffffffffffffffffffffffffffffffffff16815260200160018201805461107990612311565b80601f01602080910402602001604051908101604052809291908181526020018280546110a590612311565b80156110f25780601f106110c7576101008083540402835291602001916110f2565b820191906000526020600020905b8154815290600101906020018083116110d557829003601f168201915b505050505081526020016002820160009054906101000a900460ff166002811115611146577f4e487b7100000000000000000000000000000000000000000000000000000000600052602160045260246000fd5b600281111561117e577f4e487b7100000000000000000000000000000000000000000000000000000000600052602160045260246000fd5b815260200160038201805461119290612311565b80601f01602080910402602001604051908101604052809291908181526020018280546111be90612311565b801561120b5780601f106111e05761010080835404028352916020019161120b565b820191906000526020600020905b8154815290600101906020018083116111ee57829003601f168201915b5050505050815260200160048201548152602001600582015481525050818481518110611261577f4e487b7100000000000000000000000000000000000000000000000000000000600052603260045260246000fd5b60200260200101819052505b60018361127a91906120e1565b925060018461128991906120e1565b9350610e68565b80945050505050919050565b600160009054906101000a900473ffffffffffffffffffffffffffffffffffffffff1681565b60606004548211611308576040517f08c379a00000000000000000000000000000000000000000000000000000000081526004016112ff90611ffa565b60405180910390fd5b600082600560003373ffffffffffffffffffffffffffffffffffffffff1673ffffffffffffffffffffffffffffffffffffffff1681526020019081526020016000205461135591906121c2565b11611395576040517f08c379a000000000000000000000000000000000000000000000000000000000815260040161138c90611fda565b60405180910390fd5b6000600160009054906101000a900473ffffffffffffffffffffffffffffffffffffffff1673ffffffffffffffffffffffffffffffffffffffff166323b872dd3360008054906101000a900473ffffffffffffffffffffffffffffffffffffffff16866040518463ffffffff1660e01b815260040161141693929190611eca565b602060405180830381600087803b15801561143057600080fd5b505af1158015611444573d6000803e3d6000fd5b505050506040513d601f19601f820116820180604052508101906114689190611aea565b905080156117bc5760006040518060c001604052803373ffffffffffffffffffffffffffffffffffffffff168152602001878152602001600060028111156114d9577f4e487b7100000000000000000000000000000000000000000000000000000000600052602160045260246000fd5b8152602001868152602001858152602001600260009054906101000a900473ffffffffffffffffffffffffffffffffffffffff1673ffffffffffffffffffffffffffffffffffffffff16639f7a9f386040518163ffffffff1660e01b8152600401602060405180830381600087803b15801561155457600080fd5b505af1158015611568573d6000803e3d6000fd5b505050506040513d601f19601f8201168201806040525081019061158c9190611be6565b8152509050600660003373ffffffffffffffffffffffffffffffffffffffff1673ffffffffffffffffffffffffffffffffffffffff16815260200190815260200160002060000181908060018154018082558091505060019003906000526020600020906006020160009091909190915060008201518160000160006101000a81548173ffffffffffffffffffffffffffffffffffffffff021916908373ffffffffffffffffffffffffffffffffffffffff16021790555060208201518160010190805190602001906116609291906117fd565b5060408201518160020160006101000a81548160ff021916908360028111156116b2577f4e487b7100000000000000000000000000000000000000000000000000000000600052602160045260246000fd5b021790555060608201518160030190805190602001906116d39291906117fd565b506080820151816004015560a082015181600501555050600260009054906101000a900473ffffffffffffffffffffffffffffffffffffffff1673ffffffffffffffffffffffffffffffffffffffff1663a1448194338360a001516040518363ffffffff1660e01b815260040161174b929190611f01565b600060405180830381600087803b15801561176557600080fd5b505af1158015611779573d6000803e3d6000fd5b505050506040518060400160405280600d81526020017f4164642061206e657720646f6300000000000000000000000000000000000000815250925050506117f6565b6040518060400160405280601d81526020017f4572726f7220706572666f726d696e6720746865207472616e736665720000008152509150505b9392505050565b82805461180990612311565b90600052602060002090601f01602090048101928261182b5760008555611872565b82601f1061184457805160ff1916838001178555611872565b82800160010185558215611872579182015b82811115611871578251825591602001919060010190611856565b5b50905061187f9190611907565b5090565b6040518060c00160405280600073ffffffffffffffffffffffffffffffffffffffff16815260200160608152602001600060028111156118ec577f4e487b7100000000000000000000000000000000000000000000000000000000600052602160045260246000fd5b81526020016060815260200160008152602001600081525090565b5b80821115611920576000816000905550600101611908565b5090565b60006119376119328461203f565b61201a565b90508281526020810184848401111561194f57600080fd5b61195a8482856122cf565b509392505050565b600081359050611971816124d6565b92915050565b600081519050611986816124ed565b92915050565b60008135905061199b81612504565b92915050565b600082601f8301126119b257600080fd5b81356119c2848260208601611924565b91505092915050565b600060c082840312156119dd57600080fd5b6119e760c061201a565b905060006119f784828501611962565b600083015250602082013567ffffffffffffffff811115611a1757600080fd5b611a23848285016119a1565b6020830152506040611a378482850161198c565b604083015250606082013567ffffffffffffffff811115611a5757600080fd5b611a63848285016119a1565b6060830152506080611a7784828501611a97565b60808301525060a0611a8b84828501611a97565b60a08301525092915050565b600081359050611aa681612514565b92915050565b600081519050611abb81612514565b92915050565b600060208284031215611ad357600080fd5b6000611ae184828501611962565b91505092915050565b600060208284031215611afc57600080fd5b6000611b0a84828501611977565b91505092915050565b600080600060608486031215611b2857600080fd5b600084013567ffffffffffffffff811115611b4257600080fd5b611b4e868287016119a1565b935050602084013567ffffffffffffffff811115611b6b57600080fd5b611b77868287016119a1565b9250506040611b8886828701611a97565b9150509250925092565b60008060408385031215611ba557600080fd5b600083013567ffffffffffffffff811115611bbf57600080fd5b611bcb858286016119cb565b9250506020611bdc85828601611962565b9150509250929050565b600060208284031215611bf857600080fd5b6000611c0684828501611aac565b91505092915050565b6000611c1b8383611dea565b905092915050565b611c2c816121f6565b82525050565b611c3b816121f6565b82525050565b6000611c4c82612080565b611c5681856120a3565b935083602082028501611c6885612070565b8060005b85811015611ca45784840389528151611c858582611c0f565b9450611c9083612096565b925060208a01995050600181019050611c6c565b50829750879550505050505092915050565b611cbf81612208565b82525050565b611cce81612251565b82525050565b611cdd81612275565b82525050565b611cec81612299565b82525050565b611cfb816122bd565b82525050565b6000611d0c8261208b565b611d1681856120b4565b9350611d268185602086016122de565b611d2f8161245f565b840191505092915050565b6000611d458261208b565b611d4f81856120c5565b9350611d5f8185602086016122de565b611d688161245f565b840191505092915050565b6000611d7e8261208b565b611d8881856120d6565b9350611d988185602086016122de565b80840191505092915050565b6000611db1601d836120c5565b9150611dbc82612470565b602082019050919050565b6000611dd4601d836120c5565b9150611ddf82612499565b602082019050919050565b600060c083016000830151611e026000860182611c23565b5060208301518482036020860152611e1a8282611d01565b9150506040830151611e2f6040860182611cf2565b5060608301518482036060860152611e478282611d01565b9150506080830151611e5c6080860182611e7a565b5060a0830151611e6f60a0860182611e7a565b508091505092915050565b611e8381612247565b82525050565b611e9281612247565b82525050565b6000611ea48284611d73565b915081905092915050565b6000602082019050611ec46000830184611c32565b92915050565b6000606082019050611edf6000830186611c32565b611eec6020830185611c32565b611ef96040830184611e89565b949350505050565b6000604082019050611f166000830185611c32565b611f236020830184611e89565b9392505050565b60006020820190508181036000830152611f448184611c41565b905092915050565b6000602082019050611f616000830184611cb6565b92915050565b6000602082019050611f7c6000830184611cc5565b92915050565b6000602082019050611f976000830184611cd4565b92915050565b6000602082019050611fb26000830184611ce3565b92915050565b60006020820190508181036000830152611fd28184611d3a565b905092915050565b60006020820190508181036000830152611ff381611da4565b9050919050565b6000602082019050818103600083015261201381611dc7565b9050919050565b6000612024612035565b90506120308282612343565b919050565b6000604051905090565b600067ffffffffffffffff82111561205a57612059612430565b5b6120638261245f565b9050602081019050919050565b6000819050602082019050919050565b600081519050919050565b600081519050919050565b6000602082019050919050565b600082825260208201905092915050565b600082825260208201905092915050565b600082825260208201905092915050565b600081905092915050565b60006120ec82612247565b91506120f783612247565b9250827fffffffffffffffffffffffffffffffffffffffffffffffffffffffffffffffff0382111561212c5761212b612374565b5b828201905092915050565b600061214282612247565b915061214d83612247565b92508261215d5761215c6123a3565b5b828204905092915050565b600061217382612247565b915061217e83612247565b9250817fffffffffffffffffffffffffffffffffffffffffffffffffffffffffffffffff04831182151516156121b7576121b6612374565b5b828202905092915050565b60006121cd82612247565b91506121d883612247565b9250828210156121eb576121ea612374565b5b828203905092915050565b600061220182612227565b9050919050565b60008115159050919050565b6000819050612222826124c2565b919050565b600073ffffffffffffffffffffffffffffffffffffffff82169050919050565b6000819050919050565b600061225c82612263565b9050919050565b600061226e82612227565b9050919050565b600061228082612287565b9050919050565b600061229282612227565b9050919050565b60006122a4826122ab565b9050919050565b60006122b682612227565b9050919050565b60006122c882612214565b9050919050565b82818337600083830152505050565b60005b838110156122fc5780820151818401526020810190506122e1565b8381111561230b576000848401525b50505050565b6000600282049050600182168061232957607f821691505b6020821081141561233d5761233c612401565b5b50919050565b61234c8261245f565b810181811067ffffffffffffffff8211171561236b5761236a612430565b5b80604052505050565b7f4e487b7100000000000000000000000000000000000000000000000000000000600052601160045260246000fd5b7f4e487b7100000000000000000000000000000000000000000000000000000000600052601260045260246000fd5b7f4e487b7100000000000000000000000000000000000000000000000000000000600052602160045260246000fd5b7f4e487b7100000000000000000000000000000000000000000000000000000000600052602260045260246000fd5b7f4e487b7100000000000000000000000000000000000000000000000000000000600052604160045260246000fd5b6000601f19601f8301169050919050565b7f596f75722062616c616e636520697320696e73756666696369656e742e000000600082015250565b7f596f7572207061796d656e7420697320696e73756666696369656e742e000000600082015250565b600381106124d3576124d26123d2565b5b50565b6124df816121f6565b81146124ea57600080fd5b50565b6124f681612208565b811461250157600080fd5b50565b6003811061251157600080fd5b50565b61251d81612247565b811461252857600080fd5b5056fea264697066735822122035c4a943997460921a34078daba674f81f33d8f99287ed17f3929c20a25621cf64736f6c634300080200336101406040527f6e71edae12b1b97f4d1f60370fef10105fa2faae0126114a169c64845d6126c9610120908152503480156200003a57600080fd5b506040518060400160405280600981526020017f44507562546f6b656e0000000000000000000000000000000000000000000000815250806040518060400160405280600181526020017f31000000000000000000000000000000000000000000000000000000000000008152506040518060400160405280600981526020017f44507562546f6b656e00000000000000000000000000000000000000000000008152506040518060400160405280600481526020017f4450544b0000000000000000000000000000000000000000000000000000000081525081600390805190602001906200012c92919062000be4565b5080600490805190602001906200014592919062000be4565b50505060008280519060200120905060008280519060200120905060007f8b73c3c69bb8fe3d512ecc4cf759cc79239f7b179b0ffacaa9a75d522b39400f90508260c081815250508160e081815250504660a08181525050620001b08184846200020b60201b60201c565b608081815250508061010081815250505050505050506200020533620001db6200024760201b60201c565b600a620001e9919062000f5b565b620f4240620001f9919062001098565b6200025060201b60201c565b62001340565b600083838346306040516020016200022895949392919062000d63565b6040516020818303038152906040528051906020012090509392505050565b60006012905090565b6200026782826200026b60201b6200106f1760201c565b5050565b6200028282826200032960201b620010fc1760201c565b62000292620004a260201b60201c565b7bffffffffffffffffffffffffffffffffffffffffffffffffffffffff16620002c0620004c660201b60201c565b111562000304576040517f08c379a0000000000000000000000000000000000000000000000000000000008152600401620002fb9062000dc0565b60405180910390fd5b620003236008620004d060201b6200125c1783620004e860201b60201c565b50505050565b600073ffffffffffffffffffffffffffffffffffffffff168273ffffffffffffffffffffffffffffffffffffffff1614156200039c576040517f08c379a0000000000000000000000000000000000000000000000000000000008152600401620003939062000e26565b60405180910390fd5b620003b0600083836200080560201b60201c565b8060026000828254620003c4919062000ea3565b92505081905550806000808473ffffffffffffffffffffffffffffffffffffffff1673ffffffffffffffffffffffffffffffffffffffff16815260200190815260200160002060008282546200041b919062000ea3565b925050819055508173ffffffffffffffffffffffffffffffffffffffff16600073ffffffffffffffffffffffffffffffffffffffff167fddf252ad1be2c89b69c2b068fc378daa952ba7f163c4a11628f55a4df523b3ef8360405162000482919062000e48565b60405180910390a36200049e600083836200080a60201b60201c565b5050565b60007bffffffffffffffffffffffffffffffffffffffffffffffffffffffff905090565b6000600254905090565b60008183620004e0919062000ea3565b905092915050565b600080600085805490509050600081146200058157856001826200050d9190620010f9565b8154811062000545577f4e487b7100000000000000000000000000000000000000000000000000000000600052603260045260246000fd5b9060005260206000200160000160049054906101000a90047bffffffffffffffffffffffffffffffffffffffffffffffffffffffff1662000584565b60005b7bffffffffffffffffffffffffffffffffffffffffffffffffffffffff169250620005b083858760201c565b91506000811180156200062d57504386600183620005cf9190620010f9565b8154811062000607577f4e487b7100000000000000000000000000000000000000000000000000000000600052603260045260246000fd5b9060005260206000200160000160009054906101000a900463ffffffff1663ffffffff16145b15620006f25762000649826200082760201b620012721760201c565b86600183620006599190620010f9565b8154811062000691577f4e487b7100000000000000000000000000000000000000000000000000000000600052603260045260246000fd5b9060005260206000200160000160046101000a8154817bffffffffffffffffffffffffffffffffffffffffffffffffffffffff02191690837bffffffffffffffffffffffffffffffffffffffffffffffffffffffff160217905550620007fc565b85604051806040016040528062000714436200089560201b620012dd1760201c565b63ffffffff16815260200162000735856200082760201b620012721760201c565b7bffffffffffffffffffffffffffffffffffffffffffffffffffffffff168152509080600181540180825580915050600190039060005260206000200160009091909190915060008201518160000160006101000a81548163ffffffff021916908363ffffffff16021790555060208201518160000160046101000a8154817bffffffffffffffffffffffffffffffffffffffffffffffffffffffff02191690837bffffffffffffffffffffffffffffffffffffffffffffffffffffffff16021790555050505b50935093915050565b505050565b62000822838383620008eb60201b620013301760201c565b505050565b60007bffffffffffffffffffffffffffffffffffffffffffffffffffffffff80168211156200088d576040517f08c379a0000000000000000000000000000000000000000000000000000000008152600401620008849062000de2565b60405180910390fd5b819050919050565b600063ffffffff8016821115620008e3576040517f08c379a0000000000000000000000000000000000000000000000000000000008152600401620008da9062000e04565b60405180910390fd5b819050919050565b620009038383836200093b60201b6200135b1760201c565b6200093662000918846200094060201b60201c565b62000929846200094060201b60201c565b83620009a960201b60201c565b505050565b505050565b6000600660008373ffffffffffffffffffffffffffffffffffffffff1673ffffffffffffffffffffffffffffffffffffffff16815260200190815260200160002060009054906101000a900473ffffffffffffffffffffffffffffffffffffffff169050919050565b8173ffffffffffffffffffffffffffffffffffffffff168373ffffffffffffffffffffffffffffffffffffffff1614158015620009e65750600081115b1562000bc757600073ffffffffffffffffffffffffffffffffffffffff168373ffffffffffffffffffffffffffffffffffffffff161462000ad95760008062000a80600760008773ffffffffffffffffffffffffffffffffffffffff1673ffffffffffffffffffffffffffffffffffffffff16815260200190815260200160002062000bcc60201b620013601785620004e860201b60201c565b915091508473ffffffffffffffffffffffffffffffffffffffff167fdec2bacdd2f05b59de34da9b523dff8be42e5e38e818c82fdb0bae774387a724838360405162000ace92919062000e65565b60405180910390a250505b600073ffffffffffffffffffffffffffffffffffffffff168273ffffffffffffffffffffffffffffffffffffffff161462000bc65760008062000b6d600760008673ffffffffffffffffffffffffffffffffffffffff1673ffffffffffffffffffffffffffffffffffffffff168152602001908152602001600020620004d060201b6200125c1785620004e860201b60201c565b915091508373ffffffffffffffffffffffffffffffffffffffff167fdec2bacdd2f05b59de34da9b523dff8be42e5e38e818c82fdb0bae774387a724838360405162000bbb92919062000e65565b60405180910390a250505b5b505050565b6000818362000bdc9190620010f9565b905092915050565b82805462000bf29062001189565b90600052602060002090601f01602090048101928262000c16576000855562000c62565b82601f1062000c3157805160ff191683800117855562000c62565b8280016001018555821562000c62579182015b8281111562000c6157825182559160200191906001019062000c44565b5b50905062000c71919062000c75565b5090565b5b8082111562000c9057600081600090555060010162000c76565b5090565b62000c9f8162001134565b82525050565b62000cb08162001148565b82525050565b600062000cc560308362000e92565b915062000cd2826200122a565b604082019050919050565b600062000cec60278362000e92565b915062000cf98262001279565b604082019050919050565b600062000d1360268362000e92565b915062000d2082620012c8565b604082019050919050565b600062000d3a601f8362000e92565b915062000d478262001317565b602082019050919050565b62000d5d8162001172565b82525050565b600060a08201905062000d7a600083018862000ca5565b62000d89602083018762000ca5565b62000d98604083018662000ca5565b62000da7606083018562000d52565b62000db6608083018462000c94565b9695505050505050565b6000602082019050818103600083015262000ddb8162000cb6565b9050919050565b6000602082019050818103600083015262000dfd8162000cdd565b9050919050565b6000602082019050818103600083015262000e1f8162000d04565b9050919050565b6000602082019050818103600083015262000e418162000d2b565b9050919050565b600060208201905062000e5f600083018462000d52565b92915050565b600060408201905062000e7c600083018562000d52565b62000e8b602083018462000d52565b9392505050565b600082825260208201905092915050565b600062000eb08262001172565b915062000ebd8362001172565b9250827fffffffffffffffffffffffffffffffffffffffffffffffffffffffffffffffff0382111562000ef55762000ef4620011bf565b5b828201905092915050565b6000808291508390505b600185111562000f525780860481111562000f2a5762000f29620011bf565b5b600185161562000f3a5780820291505b808102905062000f4a856200121d565b945062000f0a565b94509492505050565b600062000f688262001172565b915062000f75836200117c565b925062000fa47fffffffffffffffffffffffffffffffffffffffffffffffffffffffffffffffff848462000fac565b905092915050565b60008262000fbe576001905062001091565b8162000fce576000905062001091565b816001811462000fe7576002811462000ff25762001028565b600191505062001091565b60ff841115620010075762001006620011bf565b5b8360020a915084821115620010215762001020620011bf565b5b5062001091565b5060208310610133831016604e8410600b8410161715620010625782820a9050838111156200105c576200105b620011bf565b5b62001091565b62001071848484600162000f00565b925090508184048111156200108b576200108a620011bf565b5b81810290505b9392505050565b6000620010a58262001172565b9150620010b28362001172565b9250817fffffffffffffffffffffffffffffffffffffffffffffffffffffffffffffffff0483118215151615620010ee57620010ed620011bf565b5b828202905092915050565b6000620011068262001172565b9150620011138362001172565b925082821015620011295762001128620011bf565b5b828203905092915050565b6000620011418262001152565b9050919050565b6000819050919050565b600073ffffffffffffffffffffffffffffffffffffffff82169050919050565b6000819050919050565b600060ff82169050919050565b60006002820490506001821680620011a257607f821691505b60208210811415620011b957620011b8620011ee565b5b50919050565b7f4e487b7100000000000000000000000000000000000000000000000000000000600052601160045260246000fd5b7f4e487b7100000000000000000000000000000000000000000000000000000000600052602260045260246000fd5b60008160011c9050919050565b7f4552433230566f7465733a20746f74616c20737570706c79207269736b73206f60008201527f766572666c6f77696e6720766f74657300000000000000000000000000000000602082015250565b7f53616665436173743a2076616c756520646f65736e27742066697420696e203260008201527f3234206269747300000000000000000000000000000000000000000000000000602082015250565b7f53616665436173743a2076616c756520646f65736e27742066697420696e203360008201527f3220626974730000000000000000000000000000000000000000000000000000602082015250565b7f45524332303a206d696e7420746f20746865207a65726f206164647265737300600082015250565b60805160a05160c05160e0516101005161012051613a1d620013906000396000610db7015260006118210152600061186301526000611842015260006117ce015260006117f60152613a1d6000f3fe608060405234801561001057600080fd5b50600436106101425760003560e01c806370a08231116100b8578063a457c2d71161007c578063a457c2d7146103d9578063a9059cbb14610409578063c3cda52014610439578063d505accf14610455578063dd62ed3e14610471578063f1127ed8146104a157610142565b806370a08231146102fb5780637ecebe001461032b5780638e539e8c1461035b57806395d89b411461038b5780639ab24eb0146103a957610142565b80633644e5151161010a5780633644e51514610201578063395093511461021f5780633a46b1a81461024f578063587cde1e1461027f5780635c19a95c146102af5780636fcfff45146102cb57610142565b806306fdde0314610147578063095ea7b31461016557806318160ddd1461019557806323b872dd146101b3578063313ce567146101e3575b600080fd5b61014f6104d1565b60405161015c9190612e92565b60405180910390f35b61017f600480360381019061017a91906127cc565b610563565b60405161018c9190612d1e565b60405180910390f35b61019d610581565b6040516101aa919061314f565b60405180910390f35b6101cd60048036038101906101c891906126df565b61058b565b6040516101da9190612d1e565b60405180910390f35b6101eb610683565b6040516101f891906131ae565b60405180910390f35b61020961068c565b6040516102169190612d39565b60405180910390f35b610239600480360381019061023491906127cc565b61069b565b6040516102469190612d1e565b60405180910390f35b610269600480360381019061026491906127cc565b610747565b604051610276919061314f565b60405180910390f35b6102996004803603810190610294919061267a565b6107db565b6040516102a69190612d03565b60405180910390f35b6102c960048036038101906102c4919061267a565b610844565b005b6102e560048036038101906102e0919061267a565b610858565b6040516102f29190613193565b60405180910390f35b6103156004803603810190610310919061267a565b6108ac565b604051610322919061314f565b60405180910390f35b6103456004803603810190610340919061267a565b6108f4565b604051610352919061314f565b60405180910390f35b610375600480360381019061037091906128cd565b610944565b604051610382919061314f565b60405180910390f35b61039361099a565b6040516103a09190612e92565b60405180910390f35b6103c360048036038101906103be919061267a565b610a2c565b6040516103d0919061314f565b60405180910390f35b6103f360048036038101906103ee91906127cc565b610b63565b6040516104009190612d1e565b60405180910390f35b610423600480360381019061041e91906127cc565b610c4e565b6040516104309190612d1e565b60405180910390f35b610453600480360381019061044e9190612808565b610c6c565b005b61046f600480360381019061046a919061272e565b610d70565b005b61048b600480360381019061048691906126a3565b610eb2565b604051610498919061314f565b60405180910390f35b6104bb60048036038101906104b69190612891565b610f39565b6040516104c89190613134565b60405180910390f35b6060600380546104e090613375565b80601f016020809104026020016040519081016040528092919081815260200182805461050c90613375565b80156105595780601f1061052e57610100808354040283529160200191610559565b820191906000526020600020905b81548152906001019060200180831161053c57829003601f168201915b5050505050905090565b6000610577610570611376565b848461137e565b6001905092915050565b6000600254905090565b6000610598848484611549565b6000600160008673ffffffffffffffffffffffffffffffffffffffff1673ffffffffffffffffffffffffffffffffffffffff16815260200190815260200160002060006105e3611376565b73ffffffffffffffffffffffffffffffffffffffff1673ffffffffffffffffffffffffffffffffffffffff16815260200190815260200160002054905082811015610663576040517f08c379a000000000000000000000000000000000000000000000000000000000815260040161065a90613034565b60405180910390fd5b6106778561066f611376565b85840361137e565b60019150509392505050565b60006012905090565b60006106966117ca565b905090565b600061073d6106a8611376565b8484600160006106b6611376565b73ffffffffffffffffffffffffffffffffffffffff1673ffffffffffffffffffffffffffffffffffffffff16815260200190815260200160002060008873ffffffffffffffffffffffffffffffffffffffff1673ffffffffffffffffffffffffffffffffffffffff1681526020019081526020016000205461073891906131f0565b61137e565b6001905092915050565b600043821061078b576040517f08c379a000000000000000000000000000000000000000000000000000000000815260040161078290612ef4565b60405180910390fd5b6107d3600760008573ffffffffffffffffffffffffffffffffffffffff1673ffffffffffffffffffffffffffffffffffffffff1681526020019081526020016000208361188d565b905092915050565b6000600660008373ffffffffffffffffffffffffffffffffffffffff1673ffffffffffffffffffffffffffffffffffffffff16815260200190815260200160002060009054906101000a900473ffffffffffffffffffffffffffffffffffffffff169050919050565b61085561084f611376565b826119e5565b50565b60006108a5600760008473ffffffffffffffffffffffffffffffffffffffff1673ffffffffffffffffffffffffffffffffffffffff168152602001908152602001600020805490506112dd565b9050919050565b60008060008373ffffffffffffffffffffffffffffffffffffffff1673ffffffffffffffffffffffffffffffffffffffff168152602001908152602001600020549050919050565b600061093d600560008473ffffffffffffffffffffffffffffffffffffffff1673ffffffffffffffffffffffffffffffffffffffff168152602001908152602001600020611aff565b9050919050565b6000438210610988576040517f08c379a000000000000000000000000000000000000000000000000000000000815260040161097f90612ef4565b60405180910390fd5b61099360088361188d565b9050919050565b6060600480546109a990613375565b80601f01602080910402602001604051908101604052809291908181526020018280546109d590613375565b8015610a225780601f106109f757610100808354040283529160200191610a22565b820191906000526020600020905b815481529060010190602001808311610a0557829003601f168201915b5050505050905090565b600080600760008473ffffffffffffffffffffffffffffffffffffffff1673ffffffffffffffffffffffffffffffffffffffff16815260200190815260200160002080549050905060008114610b3a57600760008473ffffffffffffffffffffffffffffffffffffffff1673ffffffffffffffffffffffffffffffffffffffff168152602001908152602001600020600182610ac89190613277565b81548110610aff577f4e487b7100000000000000000000000000000000000000000000000000000000600052603260045260246000fd5b9060005260206000200160000160049054906101000a90047bffffffffffffffffffffffffffffffffffffffffffffffffffffffff16610b3d565b60005b7bffffffffffffffffffffffffffffffffffffffffffffffffffffffff16915050919050565b60008060016000610b72611376565b73ffffffffffffffffffffffffffffffffffffffff1673ffffffffffffffffffffffffffffffffffffffff16815260200190815260200160002060008573ffffffffffffffffffffffffffffffffffffffff1673ffffffffffffffffffffffffffffffffffffffff16815260200190815260200160002054905082811015610c2f576040517f08c379a0000000000000000000000000000000000000000000000000000000008152600401610c26906130f4565b60405180910390fd5b610c43610c3a611376565b8585840361137e565b600191505092915050565b6000610c62610c5b611376565b8484611549565b6001905092915050565b83421115610caf576040517f08c379a0000000000000000000000000000000000000000000000000000000008152600401610ca690612f14565b60405180910390fd5b6000610d11610d097fe48329057bfd03d55e49b547132e39cffd9c1820ad7b9d4c5307691425d15adf898989604051602001610cee9493929190612db5565b60405160208183030381529060405280519060200120611b0d565b858585611b27565b9050610d1c81611b52565b8614610d5d576040517f08c379a0000000000000000000000000000000000000000000000000000000008152600401610d5490612f54565b60405180910390fd5b610d6781886119e5565b50505050505050565b83421115610db3576040517f08c379a0000000000000000000000000000000000000000000000000000000008152600401610daa90612f94565b60405180910390fd5b60007f0000000000000000000000000000000000000000000000000000000000000000888888610de28c611b52565b89604051602001610df896959493929190612d54565b6040516020818303038152906040528051906020012090506000610e1b82611b0d565b90506000610e2b82878787611b27565b90508973ffffffffffffffffffffffffffffffffffffffff168173ffffffffffffffffffffffffffffffffffffffff1614610e9b576040517f08c379a0000000000000000000000000000000000000000000000000000000008152600401610e9290613014565b60405180910390fd5b610ea68a8a8a61137e565b50505050505050505050565b6000600160008473ffffffffffffffffffffffffffffffffffffffff1673ffffffffffffffffffffffffffffffffffffffff16815260200190815260200160002060008373ffffffffffffffffffffffffffffffffffffffff1673ffffffffffffffffffffffffffffffffffffffff16815260200190815260200160002054905092915050565b610f416125d3565b600760008473ffffffffffffffffffffffffffffffffffffffff1673ffffffffffffffffffffffffffffffffffffffff1681526020019081526020016000208263ffffffff1681548110610fbe577f4e487b7100000000000000000000000000000000000000000000000000000000600052603260045260246000fd5b906000526020600020016040518060400160405290816000820160009054906101000a900463ffffffff1663ffffffff1663ffffffff1681526020016000820160049054906101000a90047bffffffffffffffffffffffffffffffffffffffffffffffffffffffff167bffffffffffffffffffffffffffffffffffffffffffffffffffffffff167bffffffffffffffffffffffffffffffffffffffffffffffffffffffff1681525050905092915050565b61107982826110fc565b611081611bb0565b7bffffffffffffffffffffffffffffffffffffffffffffffffffffffff166110a7610581565b11156110e8576040517f08c379a00000000000000000000000000000000000000000000000000000000081526004016110df90613054565b60405180910390fd5b6110f6600861125c83611bd4565b50505050565b600073ffffffffffffffffffffffffffffffffffffffff168273ffffffffffffffffffffffffffffffffffffffff16141561116c576040517f08c379a000000000000000000000000000000000000000000000000000000000815260040161116390613114565b60405180910390fd5b61117860008383611ebe565b806002600082825461118a91906131f0565b92505081905550806000808473ffffffffffffffffffffffffffffffffffffffff1673ffffffffffffffffffffffffffffffffffffffff16815260200190815260200160002060008282546111df91906131f0565b925050819055508173ffffffffffffffffffffffffffffffffffffffff16600073ffffffffffffffffffffffffffffffffffffffff167fddf252ad1be2c89b69c2b068fc378daa952ba7f163c4a11628f55a4df523b3ef83604051611244919061314f565b60405180910390a361125860008383611ec3565b5050565b6000818361126a91906131f0565b905092915050565b60007bffffffffffffffffffffffffffffffffffffffffffffffffffffffff80168211156112d5576040517f08c379a00000000000000000000000000000000000000000000000000000000081526004016112cc90613074565b60405180910390fd5b819050919050565b600063ffffffff8016821115611328576040517f08c379a000000000000000000000000000000000000000000000000000000000815260040161131f906130b4565b60405180910390fd5b819050919050565b61133b83838361135b565b611356611347846107db565b611350846107db565b83611ed3565b505050565b505050565b6000818361136e9190613277565b905092915050565b600033905090565b600073ffffffffffffffffffffffffffffffffffffffff168373ffffffffffffffffffffffffffffffffffffffff1614156113ee576040517f08c379a00000000000000000000000000000000000000000000000000000000081526004016113e5906130d4565b60405180910390fd5b600073ffffffffffffffffffffffffffffffffffffffff168273ffffffffffffffffffffffffffffffffffffffff16141561145e576040517f08c379a000000000000000000000000000000000000000000000000000000000815260040161145590612f74565b60405180910390fd5b80600160008573ffffffffffffffffffffffffffffffffffffffff1673ffffffffffffffffffffffffffffffffffffffff16815260200190815260200160002060008473ffffffffffffffffffffffffffffffffffffffff1673ffffffffffffffffffffffffffffffffffffffff168152602001908152602001600020819055508173ffffffffffffffffffffffffffffffffffffffff168373ffffffffffffffffffffffffffffffffffffffff167f8c5be1e5ebec7d5bd14f71427d1e84f3dd0314c0f7b2291e5b200ac8c7c3b9258360405161153c919061314f565b60405180910390a3505050565b600073ffffffffffffffffffffffffffffffffffffffff168373ffffffffffffffffffffffffffffffffffffffff1614156115b9576040517f08c379a00000000000000000000000000000000000000000000000000000000081526004016115b090613094565b60405180910390fd5b600073ffffffffffffffffffffffffffffffffffffffff168273ffffffffffffffffffffffffffffffffffffffff161415611629576040517f08c379a000000000000000000000000000000000000000000000000000000000815260040161162090612ed4565b60405180910390fd5b611634838383611ebe565b60008060008573ffffffffffffffffffffffffffffffffffffffff1673ffffffffffffffffffffffffffffffffffffffff168152602001908152602001600020549050818110156116ba576040517f08c379a00000000000000000000000000000000000000000000000000000000081526004016116b190612fb4565b60405180910390fd5b8181036000808673ffffffffffffffffffffffffffffffffffffffff1673ffffffffffffffffffffffffffffffffffffffff16815260200190815260200160002081905550816000808573ffffffffffffffffffffffffffffffffffffffff1673ffffffffffffffffffffffffffffffffffffffff168152602001908152602001600020600082825461174d91906131f0565b925050819055508273ffffffffffffffffffffffffffffffffffffffff168473ffffffffffffffffffffffffffffffffffffffff167fddf252ad1be2c89b69c2b068fc378daa952ba7f163c4a11628f55a4df523b3ef846040516117b1919061314f565b60405180910390a36117c4848484611ec3565b50505050565b60007f000000000000000000000000000000000000000000000000000000000000000046141561181c577f0000000000000000000000000000000000000000000000000000000000000000905061188a565b6118877f00000000000000000000000000000000000000000000000000000000000000007f00000000000000000000000000000000000000000000000000000000000000007f00000000000000000000000000000000000000000000000000000000000000006120cc565b90505b90565b6000808380549050905060005b818110156119325760006118ae8284612106565b9050848682815481106118ea577f4e487b7100000000000000000000000000000000000000000000000000000000600052603260045260246000fd5b9060005260206000200160000160009054906101000a900463ffffffff1663ffffffff16111561191c5780925061192c565b60018161192991906131f0565b91505b5061189a565b600082146119ba57846001836119489190613277565b8154811061197f577f4e487b7100000000000000000000000000000000000000000000000000000000600052603260045260246000fd5b9060005260206000200160000160049054906101000a90047bffffffffffffffffffffffffffffffffffffffffffffffffffffffff166119bd565b60005b7bffffffffffffffffffffffffffffffffffffffffffffffffffffffff169250505092915050565b60006119f0836107db565b905060006119fd846108ac565b905082600660008673ffffffffffffffffffffffffffffffffffffffff1673ffffffffffffffffffffffffffffffffffffffff16815260200190815260200160002060006101000a81548173ffffffffffffffffffffffffffffffffffffffff021916908373ffffffffffffffffffffffffffffffffffffffff1602179055508273ffffffffffffffffffffffffffffffffffffffff168273ffffffffffffffffffffffffffffffffffffffff168573ffffffffffffffffffffffffffffffffffffffff167f3134e8a2e6d97e929a7e54011ea5485d7d196dd5f0ba4d4ef95803e8e3fc257f60405160405180910390a4611af9828483611ed3565b50505050565b600081600001549050919050565b6000611b20611b1a6117ca565b8361212c565b9050919050565b6000806000611b388787878761215f565b91509150611b458161226c565b8192505050949350505050565b600080600560008473ffffffffffffffffffffffffffffffffffffffff1673ffffffffffffffffffffffffffffffffffffffff1681526020019081526020016000209050611b9f81611aff565b9150611baa816125bd565b50919050565b60007bffffffffffffffffffffffffffffffffffffffffffffffffffffffff905090565b60008060008580549050905060008114611c685785600182611bf69190613277565b81548110611c2d577f4e487b7100000000000000000000000000000000000000000000000000000000600052603260045260246000fd5b9060005260206000200160000160049054906101000a90047bffffffffffffffffffffffffffffffffffffffffffffffffffffffff16611c6b565b60005b7bffffffffffffffffffffffffffffffffffffffffffffffffffffffff169250611c9983858763ffffffff16565b9150600081118015611d1257504386600183611cb59190613277565b81548110611cec577f4e487b7100000000000000000000000000000000000000000000000000000000600052603260045260246000fd5b9060005260206000200160000160009054906101000a900463ffffffff1663ffffffff16145b15611dc557611d2082611272565b86600183611d2e9190613277565b81548110611d65577f4e487b7100000000000000000000000000000000000000000000000000000000600052603260045260246000fd5b9060005260206000200160000160046101000a8154817bffffffffffffffffffffffffffffffffffffffffffffffffffffffff02191690837bffffffffffffffffffffffffffffffffffffffffffffffffffffffff160217905550611eb5565b856040518060400160405280611dda436112dd565b63ffffffff168152602001611dee85611272565b7bffffffffffffffffffffffffffffffffffffffffffffffffffffffff168152509080600181540180825580915050600190039060005260206000200160009091909190915060008201518160000160006101000a81548163ffffffff021916908363ffffffff16021790555060208201518160000160046101000a8154817bffffffffffffffffffffffffffffffffffffffffffffffffffffffff02191690837bffffffffffffffffffffffffffffffffffffffffffffffffffffffff16021790555050505b50935093915050565b505050565b611ece838383611330565b505050565b8173ffffffffffffffffffffffffffffffffffffffff168373ffffffffffffffffffffffffffffffffffffffff1614158015611f0f5750600081115b156120c757600073ffffffffffffffffffffffffffffffffffffffff168373ffffffffffffffffffffffffffffffffffffffff1614611fed57600080611f96600760008773ffffffffffffffffffffffffffffffffffffffff1673ffffffffffffffffffffffffffffffffffffffff16815260200190815260200160002061136085611bd4565b915091508473ffffffffffffffffffffffffffffffffffffffff167fdec2bacdd2f05b59de34da9b523dff8be42e5e38e818c82fdb0bae774387a7248383604051611fe292919061316a565b60405180910390a250505b600073ffffffffffffffffffffffffffffffffffffffff168273ffffffffffffffffffffffffffffffffffffffff16146120c65760008061206f600760008673ffffffffffffffffffffffffffffffffffffffff1673ffffffffffffffffffffffffffffffffffffffff16815260200190815260200160002061125c85611bd4565b915091508373ffffffffffffffffffffffffffffffffffffffff167fdec2bacdd2f05b59de34da9b523dff8be42e5e38e818c82fdb0bae774387a72483836040516120bb92919061316a565b60405180910390a250505b5b505050565b600083838346306040516020016120e7959493929190612dfa565b6040516020818303038152906040528051906020012090509392505050565b600060028284186121179190613246565b82841661212491906131f0565b905092915050565b60008282604051602001612141929190612ccc565b60405160208183030381529060405280519060200120905092915050565b6000807f7fffffffffffffffffffffffffffffff5d576e7357a4501ddfe92f46681b20a08360001c111561219a576000600391509150612263565b601b8560ff16141580156121b25750601c8560ff1614155b156121c4576000600491509150612263565b6000600187878787604051600081526020016040526040516121e99493929190612e4d565b6020604051602081039080840390855afa15801561220b573d6000803e3d6000fd5b505050602060405103519050600073ffffffffffffffffffffffffffffffffffffffff168173ffffffffffffffffffffffffffffffffffffffff16141561225a57600060019250925050612263565b80600092509250505b94509492505050565b600060048111156122a6577f4e487b7100000000000000000000000000000000000000000000000000000000600052602160045260246000fd5b8160048111156122df577f4e487b7100000000000000000000000000000000000000000000000000000000600052602160045260246000fd5b14156122ea576125ba565b60016004811115612324577f4e487b7100000000000000000000000000000000000000000000000000000000600052602160045260246000fd5b81600481111561235d577f4e487b7100000000000000000000000000000000000000000000000000000000600052602160045260246000fd5b141561239e576040517f08c379a000000000000000000000000000000000000000000000000000000000815260040161239590612eb4565b60405180910390fd5b600260048111156123d8577f4e487b7100000000000000000000000000000000000000000000000000000000600052602160045260246000fd5b816004811115612411577f4e487b7100000000000000000000000000000000000000000000000000000000600052602160045260246000fd5b1415612452576040517f08c379a000000000000000000000000000000000000000000000000000000000815260040161244990612f34565b60405180910390fd5b6003600481111561248c577f4e487b7100000000000000000000000000000000000000000000000000000000600052602160045260246000fd5b8160048111156124c5577f4e487b7100000000000000000000000000000000000000000000000000000000600052602160045260246000fd5b1415612506576040517f08c379a00000000000000000000000000000000000000000000000000000000081526004016124fd90612fd4565b60405180910390fd5b60048081111561253f577f4e487b7100000000000000000000000000000000000000000000000000000000600052602160045260246000fd5b816004811115612578577f4e487b7100000000000000000000000000000000000000000000000000000000600052602160045260246000fd5b14156125b9576040517f08c379a00000000000000000000000000000000000000000000000000000000081526004016125b090612ff4565b60405180910390fd5b5b50565b6001816000016000828254019250508190555050565b6040518060400160405280600063ffffffff16815260200160007bffffffffffffffffffffffffffffffffffffffffffffffffffffffff1681525090565b60008135905061262081613974565b92915050565b6000813590506126358161398b565b92915050565b60008135905061264a816139a2565b92915050565b60008135905061265f816139b9565b92915050565b600081359050612674816139d0565b92915050565b60006020828403121561268c57600080fd5b600061269a84828501612611565b91505092915050565b600080604083850312156126b657600080fd5b60006126c485828601612611565b92505060206126d585828601612611565b9150509250929050565b6000806000606084860312156126f457600080fd5b600061270286828701612611565b935050602061271386828701612611565b92505060406127248682870161263b565b9150509250925092565b600080600080600080600060e0888a03121561274957600080fd5b60006127578a828b01612611565b97505060206127688a828b01612611565b96505060406127798a828b0161263b565b955050606061278a8a828b0161263b565b945050608061279b8a828b01612665565b93505060a06127ac8a828b01612626565b92505060c06127bd8a828b01612626565b91505092959891949750929550565b600080604083850312156127df57600080fd5b60006127ed85828601612611565b92505060206127fe8582860161263b565b9150509250929050565b60008060008060008060c0878903121561282157600080fd5b600061282f89828a01612611565b965050602061284089828a0161263b565b955050604061285189828a0161263b565b945050606061286289828a01612665565b935050608061287389828a01612626565b92505060a061288489828a01612626565b9150509295509295509295565b600080604083850312156128a457600080fd5b60006128b285828601612611565b92505060206128c385828601612650565b9150509250929050565b6000602082840312156128df57600080fd5b60006128ed8482850161263b565b91505092915050565b6128ff816132ab565b82525050565b61290e816132bd565b82525050565b61291d816132c9565b82525050565b61293461292f826132c9565b6133a7565b82525050565b6000612945826131c9565b61294f81856131d4565b935061295f818560208601613342565b6129688161343e565b840191505092915050565b60006129806018836131d4565b915061298b8261344f565b602082019050919050565b60006129a36023836131d4565b91506129ae82613478565b604082019050919050565b60006129c6601f836131d4565b91506129d1826134c7565b602082019050919050565b60006129e9601d836131d4565b91506129f4826134f0565b602082019050919050565b6000612a0c601f836131d4565b9150612a1782613519565b602082019050919050565b6000612a2f6019836131d4565b9150612a3a82613542565b602082019050919050565b6000612a526022836131d4565b9150612a5d8261356b565b604082019050919050565b6000612a756002836131e5565b9150612a80826135ba565b600282019050919050565b6000612a98601d836131d4565b9150612aa3826135e3565b602082019050919050565b6000612abb6026836131d4565b9150612ac68261360c565b604082019050919050565b6000612ade6022836131d4565b9150612ae98261365b565b604082019050919050565b6000612b016022836131d4565b9150612b0c826136aa565b604082019050919050565b6000612b24601e836131d4565b9150612b2f826136f9565b602082019050919050565b6000612b476028836131d4565b9150612b5282613722565b604082019050919050565b6000612b6a6030836131d4565b9150612b7582613771565b604082019050919050565b6000612b8d6027836131d4565b9150612b98826137c0565b604082019050919050565b6000612bb06025836131d4565b9150612bbb8261380f565b604082019050919050565b6000612bd36026836131d4565b9150612bde8261385e565b604082019050919050565b6000612bf66024836131d4565b9150612c01826138ad565b604082019050919050565b6000612c196025836131d4565b9150612c24826138fc565b604082019050919050565b6000612c3c601f836131d4565b9150612c478261394b565b602082019050919050565b604082016000820151612c686000850182612c9f565b506020820151612c7b6020850182612c81565b50505050565b612c8a816132f3565b82525050565b612c998161331b565b82525050565b612ca881613325565b82525050565b612cb781613325565b82525050565b612cc681613335565b82525050565b6000612cd782612a68565b9150612ce38285612923565b602082019150612cf38284612923565b6020820191508190509392505050565b6000602082019050612d1860008301846128f6565b92915050565b6000602082019050612d336000830184612905565b92915050565b6000602082019050612d4e6000830184612914565b92915050565b600060c082019050612d696000830189612914565b612d7660208301886128f6565b612d8360408301876128f6565b612d906060830186612c90565b612d9d6080830185612c90565b612daa60a0830184612c90565b979650505050505050565b6000608082019050612dca6000830187612914565b612dd760208301866128f6565b612de46040830185612c90565b612df16060830184612c90565b95945050505050565b600060a082019050612e0f6000830188612914565b612e1c6020830187612914565b612e296040830186612914565b612e366060830185612c90565b612e4360808301846128f6565b9695505050505050565b6000608082019050612e626000830187612914565b612e6f6020830186612cbd565b612e7c6040830185612914565b612e896060830184612914565b95945050505050565b60006020820190508181036000830152612eac818461293a565b905092915050565b60006020820190508181036000830152612ecd81612973565b9050919050565b60006020820190508181036000830152612eed81612996565b9050919050565b60006020820190508181036000830152612f0d816129b9565b9050919050565b60006020820190508181036000830152612f2d816129dc565b9050919050565b60006020820190508181036000830152612f4d816129ff565b9050919050565b60006020820190508181036000830152612f6d81612a22565b9050919050565b60006020820190508181036000830152612f8d81612a45565b9050919050565b60006020820190508181036000830152612fad81612a8b565b9050919050565b60006020820190508181036000830152612fcd81612aae565b9050919050565b60006020820190508181036000830152612fed81612ad1565b9050919050565b6000602082019050818103600083015261300d81612af4565b9050919050565b6000602082019050818103600083015261302d81612b17565b9050919050565b6000602082019050818103600083015261304d81612b3a565b9050919050565b6000602082019050818103600083015261306d81612b5d565b9050919050565b6000602082019050818103600083015261308d81612b80565b9050919050565b600060208201905081810360008301526130ad81612ba3565b9050919050565b600060208201905081810360008301526130cd81612bc6565b9050919050565b600060208201905081810360008301526130ed81612be9565b9050919050565b6000602082019050818103600083015261310d81612c0c565b9050919050565b6000602082019050818103600083015261312d81612c2f565b9050919050565b60006040820190506131496000830184612c52565b92915050565b60006020820190506131646000830184612c90565b92915050565b600060408201905061317f6000830185612c90565b61318c6020830184612c90565b9392505050565b60006020820190506131a86000830184612cae565b92915050565b60006020820190506131c36000830184612cbd565b92915050565b600081519050919050565b600082825260208201905092915050565b600081905092915050565b60006131fb8261331b565b91506132068361331b565b9250827fffffffffffffffffffffffffffffffffffffffffffffffffffffffffffffffff0382111561323b5761323a6133b1565b5b828201905092915050565b60006132518261331b565b915061325c8361331b565b92508261326c5761326b6133e0565b5b828204905092915050565b60006132828261331b565b915061328d8361331b565b9250828210156132a05761329f6133b1565b5b828203905092915050565b60006132b6826132d3565b9050919050565b60008115159050919050565b6000819050919050565b600073ffffffffffffffffffffffffffffffffffffffff82169050919050565b60007bffffffffffffffffffffffffffffffffffffffffffffffffffffffff82169050919050565b6000819050919050565b600063ffffffff82169050919050565b600060ff82169050919050565b60005b83811015613360578082015181840152602081019050613345565b8381111561336f576000848401525b50505050565b6000600282049050600182168061338d57607f821691505b602082108114156133a1576133a061340f565b5b50919050565b6000819050919050565b7f4e487b7100000000000000000000000000000000000000000000000000000000600052601160045260246000fd5b7f4e487b7100000000000000000000000000000000000000000000000000000000600052601260045260246000fd5b7f4e487b7100000000000000000000000000000000000000000000000000000000600052602260045260246000fd5b6000601f19601f8301169050919050565b7f45434453413a20696e76616c6964207369676e61747572650000000000000000600082015250565b7f45524332303a207472616e7366657220746f20746865207a65726f206164647260008201527f6573730000000000000000000000000000000000000000000000000000000000602082015250565b7f4552433230566f7465733a20626c6f636b206e6f7420796574206d696e656400600082015250565b7f4552433230566f7465733a207369676e61747572652065787069726564000000600082015250565b7f45434453413a20696e76616c6964207369676e6174757265206c656e67746800600082015250565b7f4552433230566f7465733a20696e76616c6964206e6f6e636500000000000000600082015250565b7f45524332303a20617070726f766520746f20746865207a65726f20616464726560008201527f7373000000000000000000000000000000000000000000000000000000000000602082015250565b7f1901000000000000000000000000000000000000000000000000000000000000600082015250565b7f45524332305065726d69743a206578706972656420646561646c696e65000000600082015250565b7f45524332303a207472616e7366657220616d6f756e742065786365656473206260008201527f616c616e63650000000000000000000000000000000000000000000000000000602082015250565b7f45434453413a20696e76616c6964207369676e6174757265202773272076616c60008201527f7565000000000000000000000000000000000000000000000000000000000000602082015250565b7f45434453413a20696e76616c6964207369676e6174757265202776272076616c60008201527f7565000000000000000000000000000000000000000000000000000000000000602082015250565b7f45524332305065726d69743a20696e76616c6964207369676e61747572650000600082015250565b7f45524332303a207472616e7366657220616d6f756e742065786365656473206160008201527f6c6c6f77616e6365000000000000000000000000000000000000000000000000602082015250565b7f4552433230566f7465733a20746f74616c20737570706c79207269736b73206f60008201527f766572666c6f77696e6720766f74657300000000000000000000000000000000602082015250565b7f53616665436173743a2076616c756520646f65736e27742066697420696e203260008201527f3234206269747300000000000000000000000000000000000000000000000000602082015250565b7f45524332303a207472616e736665722066726f6d20746865207a65726f20616460008201527f6472657373000000000000000000000000000000000000000000000000000000602082015250565b7f53616665436173743a2076616c756520646f65736e27742066697420696e203360008201527f3220626974730000000000000000000000000000000000000000000000000000602082015250565b7f45524332303a20617070726f76652066726f6d20746865207a65726f2061646460008201527f7265737300000000000000000000000000000000000000000000000000000000602082015250565b7f45524332303a2064656372656173656420616c6c6f77616e63652062656c6f7760008201527f207a65726f000000000000000000000000000000000000000000000000000000602082015250565b7f45524332303a206d696e7420746f20746865207a65726f206164647265737300600082015250565b61397d816132ab565b811461398857600080fd5b50565b613994816132c9565b811461399f57600080fd5b50565b6139ab8161331b565b81146139b657600080fd5b50565b6139c281613325565b81146139cd57600080fd5b50565b6139d981613335565b81146139e457600080fd5b5056fea2646970667358221220322c8006425aa9ad467c08cecb68f1969f6889d28a197724be09b90fdffecb1a64736f6c6343000802003360806040523480156200001157600080fd5b506040518060400160405280600a81526020017f5061706572546f6b656e000000000000000000000000000000000000000000008152506040518060400160405280600381526020017f50544b0000000000000000000000000000000000000000000000000000000000815250816000908051906020019062000096929190620001ae565b508060019080519060200190620000af929190620001ae565b505050620000d2620000c6620000e060201b60201c565b620000e860201b60201c565b6001600881905550620002c3565b600033905090565b6000600760009054906101000a900473ffffffffffffffffffffffffffffffffffffffff16905081600760006101000a81548173ffffffffffffffffffffffffffffffffffffffff021916908373ffffffffffffffffffffffffffffffffffffffff1602179055508173ffffffffffffffffffffffffffffffffffffffff168173ffffffffffffffffffffffffffffffffffffffff167f8be0079c531659141344cd1fd0a4f28419497f9722a3daafe3b4186f6b6457e060405160405180910390a35050565b828054620001bc906200025e565b90600052602060002090601f016020900481019282620001e057600085556200022c565b82601f10620001fb57805160ff19168380011785556200022c565b828001600101855582156200022c579182015b828111156200022b5782518255916020019190600101906200020e565b5b5090506200023b91906200023f565b5090565b5b808211156200025a57600081600090555060010162000240565b5090565b600060028204905060018216806200027757607f821691505b602082108114156200028e576200028d62000294565b5b50919050565b7f4e487b7100000000000000000000000000000000000000000000000000000000600052602260045260246000fd5b612dbc80620002d36000396000f3fe608060405234801561001057600080fd5b50600436106101165760003560e01c80638da5cb5b116100a2578063a22cb46511610071578063a22cb465146102cd578063b88d4fde146102e9578063c87b56dd14610305578063e985e9c514610335578063f2fde38b1461036557610116565b80638da5cb5b1461025757806395d89b41146102755780639f7a9f3814610293578063a1448194146102b157610116565b806323b872dd116100e957806323b872dd146101b557806342842e0e146101d15780636352211e146101ed57806370a082311461021d578063715018a61461024d57610116565b806301ffc9a71461011b57806306fdde031461014b578063081812fc14610169578063095ea7b314610199575b600080fd5b61013560048036038101906101309190611e2e565b610381565b6040516101429190612257565b60405180910390f35b610153610463565b6040516101609190612272565b60405180910390f35b610183600480360381019061017e9190611e80565b6104f5565b60405161019091906121f0565b60405180910390f35b6101b360048036038101906101ae9190611df2565b61057a565b005b6101cf60048036038101906101ca9190611cec565b610692565b005b6101eb60048036038101906101e69190611cec565b6106f2565b005b61020760048036038101906102029190611e80565b610712565b60405161021491906121f0565b60405180910390f35b61023760048036038101906102329190611c87565b6107c4565b60405161024491906124b4565b60405180910390f35b61025561087c565b005b61025f610904565b60405161026c91906121f0565b60405180910390f35b61027d61092e565b60405161028a9190612272565b60405180910390f35b61029b6109c0565b6040516102a891906124b4565b60405180910390f35b6102cb60048036038101906102c69190611df2565b6109df565b005b6102e760048036038101906102e29190611db6565b610a69565b005b61030360048036038101906102fe9190611d3b565b610bea565b005b61031f600480360381019061031a9190611e80565b610c4c565b60405161032c9190612272565b60405180910390f35b61034f600480360381019061034a9190611cb0565b610c5e565b60405161035c9190612257565b60405180910390f35b61037f600480360381019061037a9190611c87565b610cf2565b005b60007f80ac58cd000000000000000000000000000000000000000000000000000000007bffffffffffffffffffffffffffffffffffffffffffffffffffffffff1916827bffffffffffffffffffffffffffffffffffffffffffffffffffffffff1916148061044c57507f5b5e139f000000000000000000000000000000000000000000000000000000007bffffffffffffffffffffffffffffffffffffffffffffffffffffffff1916827bffffffffffffffffffffffffffffffffffffffffffffffffffffffff1916145b8061045c575061045b82610dea565b5b9050919050565b606060008054610472906126d9565b80601f016020809104026020016040519081016040528092919081815260200182805461049e906126d9565b80156104eb5780601f106104c0576101008083540402835291602001916104eb565b820191906000526020600020905b8154815290600101906020018083116104ce57829003601f168201915b5050505050905090565b600061050082610e54565b61053f576040517f08c379a0000000000000000000000000000000000000000000000000000000008152600401610536906123f4565b60405180910390fd5b6004600083815260200190815260200160002060009054906101000a900473ffffffffffffffffffffffffffffffffffffffff169050919050565b600061058582610712565b90508073ffffffffffffffffffffffffffffffffffffffff168373ffffffffffffffffffffffffffffffffffffffff1614156105f6576040517f08c379a00000000000000000000000000000000000000000000000000000000081526004016105ed90612474565b60405180910390fd5b8073ffffffffffffffffffffffffffffffffffffffff16610615610ec0565b73ffffffffffffffffffffffffffffffffffffffff16148061064457506106438161063e610ec0565b610c5e565b5b610683576040517f08c379a000000000000000000000000000000000000000000000000000000000815260040161067a90612354565b60405180910390fd5b61068d8383610ec8565b505050565b6106a361069d610ec0565b82610f81565b6106e2576040517f08c379a00000000000000000000000000000000000000000000000000000000081526004016106d990612494565b60405180910390fd5b6106ed83838361105f565b505050565b61070d83838360405180602001604052806000815250610bea565b505050565b6000806002600084815260200190815260200160002060009054906101000a900473ffffffffffffffffffffffffffffffffffffffff169050600073ffffffffffffffffffffffffffffffffffffffff168173ffffffffffffffffffffffffffffffffffffffff1614156107bb576040517f08c379a00000000000000000000000000000000000000000000000000000000081526004016107b290612394565b60405180910390fd5b80915050919050565b60008073ffffffffffffffffffffffffffffffffffffffff168273ffffffffffffffffffffffffffffffffffffffff161415610835576040517f08c379a000000000000000000000000000000000000000000000000000000000815260040161082c90612374565b60405180910390fd5b600360008373ffffffffffffffffffffffffffffffffffffffff1673ffffffffffffffffffffffffffffffffffffffff168152602001908152602001600020549050919050565b610884610ec0565b73ffffffffffffffffffffffffffffffffffffffff166108a2610904565b73ffffffffffffffffffffffffffffffffffffffff16146108f8576040517f08c379a00000000000000000000000000000000000000000000000000000000081526004016108ef90612414565b60405180910390fd5b61090260006112bb565b565b6000600760009054906101000a900473ffffffffffffffffffffffffffffffffffffffff16905090565b60606001805461093d906126d9565b80601f0160208091040260200160405190810160405280929190818152602001828054610969906126d9565b80156109b65780601f1061098b576101008083540402835291602001916109b6565b820191906000526020600020905b81548152906001019060200180831161099957829003601f168201915b5050505050905090565b600060016008546109d19190612568565b600881905550600854905090565b6109e7610ec0565b73ffffffffffffffffffffffffffffffffffffffff16610a05610904565b73ffffffffffffffffffffffffffffffffffffffff1614610a5b576040517f08c379a0000000000000000000000000000000000000000000000000000000008152600401610a5290612414565b60405180910390fd5b610a658282611381565b5050565b610a71610ec0565b73ffffffffffffffffffffffffffffffffffffffff168273ffffffffffffffffffffffffffffffffffffffff161415610adf576040517f08c379a0000000000000000000000000000000000000000000000000000000008152600401610ad690612314565b60405180910390fd5b8060056000610aec610ec0565b73ffffffffffffffffffffffffffffffffffffffff1673ffffffffffffffffffffffffffffffffffffffff16815260200190815260200160002060008473ffffffffffffffffffffffffffffffffffffffff1673ffffffffffffffffffffffffffffffffffffffff16815260200190815260200160002060006101000a81548160ff0219169083151502179055508173ffffffffffffffffffffffffffffffffffffffff16610b99610ec0565b73ffffffffffffffffffffffffffffffffffffffff167f17307eab39ab6107e8899845ad3d59bd9653f200f220920489ca2b5937696c3183604051610bde9190612257565b60405180910390a35050565b610bfb610bf5610ec0565b83610f81565b610c3a576040517f08c379a0000000000000000000000000000000000000000000000000000000008152600401610c3190612494565b60405180910390fd5b610c468484848461139f565b50505050565b6060610c57826113fb565b9050919050565b6000600560008473ffffffffffffffffffffffffffffffffffffffff1673ffffffffffffffffffffffffffffffffffffffff16815260200190815260200160002060008373ffffffffffffffffffffffffffffffffffffffff1673ffffffffffffffffffffffffffffffffffffffff16815260200190815260200160002060009054906101000a900460ff16905092915050565b610cfa610ec0565b73ffffffffffffffffffffffffffffffffffffffff16610d18610904565b73ffffffffffffffffffffffffffffffffffffffff1614610d6e576040517f08c379a0000000000000000000000000000000000000000000000000000000008152600401610d6590612414565b60405180910390fd5b600073ffffffffffffffffffffffffffffffffffffffff168173ffffffffffffffffffffffffffffffffffffffff161415610dde576040517f08c379a0000000000000000000000000000000000000000000000000000000008152600401610dd5906122b4565b60405180910390fd5b610de7816112bb565b50565b60007f01ffc9a7000000000000000000000000000000000000000000000000000000007bffffffffffffffffffffffffffffffffffffffffffffffffffffffff1916827bffffffffffffffffffffffffffffffffffffffffffffffffffffffff1916149050919050565b60008073ffffffffffffffffffffffffffffffffffffffff166002600084815260200190815260200160002060009054906101000a900473ffffffffffffffffffffffffffffffffffffffff1673ffffffffffffffffffffffffffffffffffffffff1614159050919050565b600033905090565b816004600083815260200190815260200160002060006101000a81548173ffffffffffffffffffffffffffffffffffffffff021916908373ffffffffffffffffffffffffffffffffffffffff160217905550808273ffffffffffffffffffffffffffffffffffffffff16610f3b83610712565b73ffffffffffffffffffffffffffffffffffffffff167f8c5be1e5ebec7d5bd14f71427d1e84f3dd0314c0f7b2291e5b200ac8c7c3b92560405160405180910390a45050565b6000610f8c82610e54565b610fcb576040517f08c379a0000000000000000000000000000000000000000000000000000000008152600401610fc290612334565b60405180910390fd5b6000610fd683610712565b90508073ffffffffffffffffffffffffffffffffffffffff168473ffffffffffffffffffffffffffffffffffffffff16148061104557508373ffffffffffffffffffffffffffffffffffffffff1661102d846104f5565b73ffffffffffffffffffffffffffffffffffffffff16145b8061105657506110558185610c5e565b5b91505092915050565b8273ffffffffffffffffffffffffffffffffffffffff1661107f82610712565b73ffffffffffffffffffffffffffffffffffffffff16146110d5576040517f08c379a00000000000000000000000000000000000000000000000000000000081526004016110cc90612434565b60405180910390fd5b600073ffffffffffffffffffffffffffffffffffffffff168273ffffffffffffffffffffffffffffffffffffffff161415611145576040517f08c379a000000000000000000000000000000000000000000000000000000000815260040161113c906122f4565b60405180910390fd5b61115083838361154d565b61115b600082610ec8565b6001600360008573ffffffffffffffffffffffffffffffffffffffff1673ffffffffffffffffffffffffffffffffffffffff16815260200190815260200160002060008282546111ab91906125ef565b925050819055506001600360008473ffffffffffffffffffffffffffffffffffffffff1673ffffffffffffffffffffffffffffffffffffffff16815260200190815260200160002060008282546112029190612568565b92505081905550816002600083815260200190815260200160002060006101000a81548173ffffffffffffffffffffffffffffffffffffffff021916908373ffffffffffffffffffffffffffffffffffffffff160217905550808273ffffffffffffffffffffffffffffffffffffffff168473ffffffffffffffffffffffffffffffffffffffff167fddf252ad1be2c89b69c2b068fc378daa952ba7f163c4a11628f55a4df523b3ef60405160405180910390a4505050565b6000600760009054906101000a900473ffffffffffffffffffffffffffffffffffffffff16905081600760006101000a81548173ffffffffffffffffffffffffffffffffffffffff021916908373ffffffffffffffffffffffffffffffffffffffff1602179055508173ffffffffffffffffffffffffffffffffffffffff168173ffffffffffffffffffffffffffffffffffffffff167f8be0079c531659141344cd1fd0a4f28419497f9722a3daafe3b4186f6b6457e060405160405180910390a35050565b61139b828260405180602001604052806000815250611552565b5050565b6113aa84848461105f565b6113b6848484846115ad565b6113f5576040517f08c379a00000000000000000000000000000000000000000000000000000000081526004016113ec90612294565b60405180910390fd5b50505050565b606061140682610e54565b611445576040517f08c379a000000000000000000000000000000000000000000000000000000000815260040161143c906123d4565b60405180910390fd5b6000600660008481526020019081526020016000208054611465906126d9565b80601f0160208091040260200160405190810160405280929190818152602001828054611491906126d9565b80156114de5780601f106114b3576101008083540402835291602001916114de565b820191906000526020600020905b8154815290600101906020018083116114c157829003601f168201915b5050505050905060006114ef611744565b9050600081511415611505578192505050611548565b60008251111561153a5780826040516020016115229291906121cc565b60405160208183030381529060405292505050611548565b61154384611781565b925050505b919050565b505050565b61155c8383611828565b61156960008484846115ad565b6115a8576040517f08c379a000000000000000000000000000000000000000000000000000000000815260040161159f90612294565b60405180910390fd5b505050565b60006115ce8473ffffffffffffffffffffffffffffffffffffffff166119f6565b15611737578373ffffffffffffffffffffffffffffffffffffffff1663150b7a026115f7610ec0565b8786866040518563ffffffff1660e01b8152600401611619949392919061220b565b602060405180830381600087803b15801561163357600080fd5b505af192505050801561166457506040513d601f19601f820116820180604052508101906116619190611e57565b60015b6116e7573d8060008114611694576040519150601f19603f3d011682016040523d82523d6000602084013e611699565b606091505b506000815114156116df576040517f08c379a00000000000000000000000000000000000000000000000000000000081526004016116d690612294565b60405180910390fd5b805181602001fd5b63150b7a0260e01b7bffffffffffffffffffffffffffffffffffffffffffffffffffffffff1916817bffffffffffffffffffffffffffffffffffffffffffffffffffffffff19161491505061173c565b600190505b949350505050565b60606040518060400160405280601481526020017f68747470733a2f2f647075626c6973682e6f7267000000000000000000000000815250905090565b606061178c82610e54565b6117cb576040517f08c379a00000000000000000000000000000000000000000000000000000000081526004016117c290612454565b60405180910390fd5b60006117d5611744565b905060008151116117f55760405180602001604052806000815250611820565b806117ff84611a09565b6040516020016118109291906121cc565b6040516020818303038152906040525b915050919050565b600073ffffffffffffffffffffffffffffffffffffffff168273ffffffffffffffffffffffffffffffffffffffff161415611898576040517f08c379a000000000000000000000000000000000000000000000000000000000815260040161188f906123b4565b60405180910390fd5b6118a181610e54565b156118e1576040517f08c379a00000000000000000000000000000000000000000000000000000000081526004016118d8906122d4565b60405180910390fd5b6118ed6000838361154d565b6001600360008473ffffffffffffffffffffffffffffffffffffffff1673ffffffffffffffffffffffffffffffffffffffff168152602001908152602001600020600082825461193d9190612568565b92505081905550816002600083815260200190815260200160002060006101000a81548173ffffffffffffffffffffffffffffffffffffffff021916908373ffffffffffffffffffffffffffffffffffffffff160217905550808273ffffffffffffffffffffffffffffffffffffffff16600073ffffffffffffffffffffffffffffffffffffffff167fddf252ad1be2c89b69c2b068fc378daa952ba7f163c4a11628f55a4df523b3ef60405160405180910390a45050565b600080823b905060008111915050919050565b60606000821415611a51576040518060400160405280600181526020017f30000000000000000000000000000000000000000000000000000000000000008152509050611bb1565b600082905060005b60008214611a83578080611a6c9061273c565b915050600a82611a7c91906125be565b9150611a59565b60008167ffffffffffffffff811115611ac5577f4e487b7100000000000000000000000000000000000000000000000000000000600052604160045260246000fd5b6040519080825280601f01601f191660200182016040528015611af75781602001600182028036833780820191505090505b5090505b60008514611baa57600182611b1091906125ef565b9150600a85611b1f9190612785565b6030611b2b9190612568565b60f81b818381518110611b67577f4e487b7100000000000000000000000000000000000000000000000000000000600052603260045260246000fd5b60200101907effffffffffffffffffffffffffffffffffffffffffffffffffffffffffffff1916908160001a905350600a85611ba391906125be565b9450611afb565b8093505050505b919050565b6000611bc9611bc4846124f4565b6124cf565b905082815260208101848484011115611be157600080fd5b611bec848285612697565b509392505050565b600081359050611c0381612d2a565b92915050565b600081359050611c1881612d41565b92915050565b600081359050611c2d81612d58565b92915050565b600081519050611c4281612d58565b92915050565b600082601f830112611c5957600080fd5b8135611c69848260208601611bb6565b91505092915050565b600081359050611c8181612d6f565b92915050565b600060208284031215611c9957600080fd5b6000611ca784828501611bf4565b91505092915050565b60008060408385031215611cc357600080fd5b6000611cd185828601611bf4565b9250506020611ce285828601611bf4565b9150509250929050565b600080600060608486031215611d0157600080fd5b6000611d0f86828701611bf4565b9350506020611d2086828701611bf4565b9250506040611d3186828701611c72565b9150509250925092565b60008060008060808587031215611d5157600080fd5b6000611d5f87828801611bf4565b9450506020611d7087828801611bf4565b9350506040611d8187828801611c72565b925050606085013567ffffffffffffffff811115611d9e57600080fd5b611daa87828801611c48565b91505092959194509250565b60008060408385031215611dc957600080fd5b6000611dd785828601611bf4565b9250506020611de885828601611c09565b9150509250929050565b60008060408385031215611e0557600080fd5b6000611e1385828601611bf4565b9250506020611e2485828601611c72565b9150509250929050565b600060208284031215611e4057600080fd5b6000611e4e84828501611c1e565b91505092915050565b600060208284031215611e6957600080fd5b6000611e7784828501611c33565b91505092915050565b600060208284031215611e9257600080fd5b6000611ea084828501611c72565b91505092915050565b611eb281612623565b82525050565b611ec181612635565b82525050565b6000611ed282612525565b611edc818561253b565b9350611eec8185602086016126a6565b611ef581612872565b840191505092915050565b6000611f0b82612530565b611f15818561254c565b9350611f258185602086016126a6565b611f2e81612872565b840191505092915050565b6000611f4482612530565b611f4e818561255d565b9350611f5e8185602086016126a6565b80840191505092915050565b6000611f7760328361254c565b9150611f8282612883565b604082019050919050565b6000611f9a60268361254c565b9150611fa5826128d2565b604082019050919050565b6000611fbd601c8361254c565b9150611fc882612921565b602082019050919050565b6000611fe060248361254c565b9150611feb8261294a565b604082019050919050565b600061200360198361254c565b915061200e82612999565b602082019050919050565b6000612026602c8361254c565b9150612031826129c2565b604082019050919050565b600061204960388361254c565b915061205482612a11565b604082019050919050565b600061206c602a8361254c565b915061207782612a60565b604082019050919050565b600061208f60298361254c565b915061209a82612aaf565b604082019050919050565b60006120b260208361254c565b91506120bd82612afe565b602082019050919050565b60006120d560318361254c565b91506120e082612b27565b604082019050919050565b60006120f8602c8361254c565b915061210382612b76565b604082019050919050565b600061211b60208361254c565b915061212682612bc5565b602082019050919050565b600061213e60298361254c565b915061214982612bee565b604082019050919050565b6000612161602f8361254c565b915061216c82612c3d565b604082019050919050565b600061218460218361254c565b915061218f82612c8c565b604082019050919050565b60006121a760318361254c565b91506121b282612cdb565b604082019050919050565b6121c68161268d565b82525050565b60006121d88285611f39565b91506121e48284611f39565b91508190509392505050565b60006020820190506122056000830184611ea9565b92915050565b60006080820190506122206000830187611ea9565b61222d6020830186611ea9565b61223a60408301856121bd565b818103606083015261224c8184611ec7565b905095945050505050565b600060208201905061226c6000830184611eb8565b92915050565b6000602082019050818103600083015261228c8184611f00565b905092915050565b600060208201905081810360008301526122ad81611f6a565b9050919050565b600060208201905081810360008301526122cd81611f8d565b9050919050565b600060208201905081810360008301526122ed81611fb0565b9050919050565b6000602082019050818103600083015261230d81611fd3565b9050919050565b6000602082019050818103600083015261232d81611ff6565b9050919050565b6000602082019050818103600083015261234d81612019565b9050919050565b6000602082019050818103600083015261236d8161203c565b9050919050565b6000602082019050818103600083015261238d8161205f565b9050919050565b600060208201905081810360008301526123ad81612082565b9050919050565b600060208201905081810360008301526123cd816120a5565b9050919050565b600060208201905081810360008301526123ed816120c8565b9050919050565b6000602082019050818103600083015261240d816120eb565b9050919050565b6000602082019050818103600083015261242d8161210e565b9050919050565b6000602082019050818103600083015261244d81612131565b9050919050565b6000602082019050818103600083015261246d81612154565b9050919050565b6000602082019050818103600083015261248d81612177565b9050919050565b600060208201905081810360008301526124ad8161219a565b9050919050565b60006020820190506124c960008301846121bd565b92915050565b60006124d96124ea565b90506124e5828261270b565b919050565b6000604051905090565b600067ffffffffffffffff82111561250f5761250e612843565b5b61251882612872565b9050602081019050919050565b600081519050919050565b600081519050919050565b600082825260208201905092915050565b600082825260208201905092915050565b600081905092915050565b60006125738261268d565b915061257e8361268d565b9250827fffffffffffffffffffffffffffffffffffffffffffffffffffffffffffffffff038211156125b3576125b26127b6565b5b828201905092915050565b60006125c98261268d565b91506125d48361268d565b9250826125e4576125e36127e5565b5b828204905092915050565b60006125fa8261268d565b91506126058361268d565b925082821015612618576126176127b6565b5b828203905092915050565b600061262e8261266d565b9050919050565b60008115159050919050565b60007fffffffff0000000000000000000000000000000000000000000000000000000082169050919050565b600073ffffffffffffffffffffffffffffffffffffffff82169050919050565b6000819050919050565b82818337600083830152505050565b60005b838110156126c45780820151818401526020810190506126a9565b838111156126d3576000848401525b50505050565b600060028204905060018216806126f157607f821691505b6020821081141561270557612704612814565b5b50919050565b61271482612872565b810181811067ffffffffffffffff8211171561273357612732612843565b5b80604052505050565b60006127478261268d565b91507fffffffffffffffffffffffffffffffffffffffffffffffffffffffffffffffff82141561277a576127796127b6565b5b600182019050919050565b60006127908261268d565b915061279b8361268d565b9250826127ab576127aa6127e5565b5b828206905092915050565b7f4e487b7100000000000000000000000000000000000000000000000000000000600052601160045260246000fd5b7f4e487b7100000000000000000000000000000000000000000000000000000000600052601260045260246000fd5b7f4e487b7100000000000000000000000000000000000000000000000000000000600052602260045260246000fd5b7f4e487b7100000000000000000000000000000000000000000000000000000000600052604160045260246000fd5b6000601f19601f8301169050919050565b7f4552433732313a207472616e7366657220746f206e6f6e20455243373231526560008201527f63656976657220696d706c656d656e7465720000000000000000000000000000602082015250565b7f4f776e61626c653a206e6577206f776e657220697320746865207a65726f206160008201527f6464726573730000000000000000000000000000000000000000000000000000602082015250565b7f4552433732313a20746f6b656e20616c7265616479206d696e74656400000000600082015250565b7f4552433732313a207472616e7366657220746f20746865207a65726f2061646460008201527f7265737300000000000000000000000000000000000000000000000000000000602082015250565b7f4552433732313a20617070726f766520746f2063616c6c657200000000000000600082015250565b7f4552433732313a206f70657261746f7220717565727920666f72206e6f6e657860008201527f697374656e7420746f6b656e0000000000000000000000000000000000000000602082015250565b7f4552433732313a20617070726f76652063616c6c6572206973206e6f74206f7760008201527f6e6572206e6f7220617070726f76656420666f7220616c6c0000000000000000602082015250565b7f4552433732313a2062616c616e636520717565727920666f7220746865207a6560008201527f726f206164647265737300000000000000000000000000000000000000000000602082015250565b7f4552433732313a206f776e657220717565727920666f72206e6f6e657869737460008201527f656e7420746f6b656e0000000000000000000000000000000000000000000000602082015250565b7f4552433732313a206d696e7420746f20746865207a65726f2061646472657373600082015250565b7f45524337323155524953746f726167653a2055524920717565727920666f722060008201527f6e6f6e6578697374656e7420746f6b656e000000000000000000000000000000602082015250565b7f4552433732313a20617070726f76656420717565727920666f72206e6f6e657860008201527f697374656e7420746f6b656e0000000000000000000000000000000000000000602082015250565b7f4f776e61626c653a2063616c6c6572206973206e6f7420746865206f776e6572600082015250565b7f4552433732313a207472616e73666572206f6620746f6b656e2074686174206960008201527f73206e6f74206f776e0000000000000000000000000000000000000000000000602082015250565b7f4552433732314d657461646174613a2055524920717565727920666f72206e6f60008201527f6e6578697374656e7420746f6b656e0000000000000000000000000000000000602082015250565b7f4552433732313a20617070726f76616c20746f2063757272656e74206f776e6560008201527f7200000000000000000000000000000000000000000000000000000000000000602082015250565b7f4552433732313a207472616e736665722063616c6c6572206973206e6f74206f60008201527f776e6572206e6f7220617070726f766564000000000000000000000000000000602082015250565b612d3381612623565b8114612d3e57600080fd5b50565b612d4a81612635565b8114612d5557600080fd5b50565b612d6181612641565b8114612d6c57600080fd5b50565b612d788161268d565b8114612d8357600080fd5b5056fea2646970667358221220ff16687365562924f0946e6dcb951ff251b8e430d32cb15334c790a6772813ac64736f6c6343000802003360806040523480156200001157600080fd5b506040518060400160405280600b81526020017f526576696577546f6b656e0000000000000000000000000000000000000000008152506040518060400160405280600381526020017f52544b0000000000000000000000000000000000000000000000000000000000815250816000908051906020019062000096929190620001a6565b508060019080519060200190620000af929190620001a6565b505050620000d2620000c6620000d860201b60201c565b620000e060201b60201c565b620002bb565b600033905090565b6000600760009054906101000a900473ffffffffffffffffffffffffffffffffffffffff16905081600760006101000a81548173ffffffffffffffffffffffffffffffffffffffff021916908373ffffffffffffffffffffffffffffffffffffffff1602179055508173ffffffffffffffffffffffffffffffffffffffff168173ffffffffffffffffffffffffffffffffffffffff167f8be0079c531659141344cd1fd0a4f28419497f9722a3daafe3b4186f6b6457e060405160405180910390a35050565b828054620001b49062000256565b90600052602060002090601f016020900481019282620001d8576000855562000224565b82601f10620001f357805160ff191683800117855562000224565b8280016001018555821562000224579182015b828111156200022357825182559160200191906001019062000206565b5b50905062000233919062000237565b5090565b5b808211156200025257600081600090555060010162000238565b5090565b600060028204905060018216806200026f57607f821691505b602082108114156200028657620002856200028c565b5b50919050565b7f4e487b7100000000000000000000000000000000000000000000000000000000600052602260045260246000fd5b612d7480620002cb6000396000f3fe608060405234801561001057600080fd5b506004361061010b5760003560e01c8063715018a6116100a2578063a22cb46511610071578063a22cb465146102a4578063b88d4fde146102c0578063c87b56dd146102dc578063e985e9c51461030c578063f2fde38b1461033c5761010b565b8063715018a6146102425780638da5cb5b1461024c57806395d89b411461026a578063a1448194146102885761010b565b806323b872dd116100de57806323b872dd146101aa57806342842e0e146101c65780636352211e146101e257806370a08231146102125761010b565b806301ffc9a71461011057806306fdde0314610140578063081812fc1461015e578063095ea7b31461018e575b600080fd5b61012a60048036038101906101259190611de6565b610358565b604051610137919061220f565b60405180910390f35b61014861043a565b604051610155919061222a565b60405180910390f35b61017860048036038101906101739190611e38565b6104cc565b60405161018591906121a8565b60405180910390f35b6101a860048036038101906101a39190611daa565b610551565b005b6101c460048036038101906101bf9190611ca4565b610669565b005b6101e060048036038101906101db9190611ca4565b6106c9565b005b6101fc60048036038101906101f79190611e38565b6106e9565b60405161020991906121a8565b60405180910390f35b61022c60048036038101906102279190611c3f565b61079b565b604051610239919061246c565b60405180910390f35b61024a610853565b005b6102546108db565b60405161026191906121a8565b60405180910390f35b610272610905565b60405161027f919061222a565b60405180910390f35b6102a2600480360381019061029d9190611daa565b610997565b005b6102be60048036038101906102b99190611d6e565b610a21565b005b6102da60048036038101906102d59190611cf3565b610ba2565b005b6102f660048036038101906102f19190611e38565b610c04565b604051610303919061222a565b60405180910390f35b61032660048036038101906103219190611c68565b610c16565b604051610333919061220f565b60405180910390f35b61035660048036038101906103519190611c3f565b610caa565b005b60007f80ac58cd000000000000000000000000000000000000000000000000000000007bffffffffffffffffffffffffffffffffffffffffffffffffffffffff1916827bffffffffffffffffffffffffffffffffffffffffffffffffffffffff1916148061042357507f5b5e139f000000000000000000000000000000000000000000000000000000007bffffffffffffffffffffffffffffffffffffffffffffffffffffffff1916827bffffffffffffffffffffffffffffffffffffffffffffffffffffffff1916145b80610433575061043282610da2565b5b9050919050565b60606000805461044990612691565b80601f016020809104026020016040519081016040528092919081815260200182805461047590612691565b80156104c25780601f10610497576101008083540402835291602001916104c2565b820191906000526020600020905b8154815290600101906020018083116104a557829003601f168201915b5050505050905090565b60006104d782610e0c565b610516576040517f08c379a000000000000000000000000000000000000000000000000000000000815260040161050d906123ac565b60405180910390fd5b6004600083815260200190815260200160002060009054906101000a900473ffffffffffffffffffffffffffffffffffffffff169050919050565b600061055c826106e9565b90508073ffffffffffffffffffffffffffffffffffffffff168373ffffffffffffffffffffffffffffffffffffffff1614156105cd576040517f08c379a00000000000000000000000000000000000000000000000000000000081526004016105c49061242c565b60405180910390fd5b8073ffffffffffffffffffffffffffffffffffffffff166105ec610e78565b73ffffffffffffffffffffffffffffffffffffffff16148061061b575061061a81610615610e78565b610c16565b5b61065a576040517f08c379a00000000000000000000000000000000000000000000000000000000081526004016106519061230c565b60405180910390fd5b6106648383610e80565b505050565b61067a610674610e78565b82610f39565b6106b9576040517f08c379a00000000000000000000000000000000000000000000000000000000081526004016106b09061244c565b60405180910390fd5b6106c4838383611017565b505050565b6106e483838360405180602001604052806000815250610ba2565b505050565b6000806002600084815260200190815260200160002060009054906101000a900473ffffffffffffffffffffffffffffffffffffffff169050600073ffffffffffffffffffffffffffffffffffffffff168173ffffffffffffffffffffffffffffffffffffffff161415610792576040517f08c379a00000000000000000000000000000000000000000000000000000000081526004016107899061234c565b60405180910390fd5b80915050919050565b60008073ffffffffffffffffffffffffffffffffffffffff168273ffffffffffffffffffffffffffffffffffffffff16141561080c576040517f08c379a00000000000000000000000000000000000000000000000000000000081526004016108039061232c565b60405180910390fd5b600360008373ffffffffffffffffffffffffffffffffffffffff1673ffffffffffffffffffffffffffffffffffffffff168152602001908152602001600020549050919050565b61085b610e78565b73ffffffffffffffffffffffffffffffffffffffff166108796108db565b73ffffffffffffffffffffffffffffffffffffffff16146108cf576040517f08c379a00000000000000000000000000000000000000000000000000000000081526004016108c6906123cc565b60405180910390fd5b6108d96000611273565b565b6000600760009054906101000a900473ffffffffffffffffffffffffffffffffffffffff16905090565b60606001805461091490612691565b80601f016020809104026020016040519081016040528092919081815260200182805461094090612691565b801561098d5780601f106109625761010080835404028352916020019161098d565b820191906000526020600020905b81548152906001019060200180831161097057829003601f168201915b5050505050905090565b61099f610e78565b73ffffffffffffffffffffffffffffffffffffffff166109bd6108db565b73ffffffffffffffffffffffffffffffffffffffff1614610a13576040517f08c379a0000000000000000000000000000000000000000000000000000000008152600401610a0a906123cc565b60405180910390fd5b610a1d8282611339565b5050565b610a29610e78565b73ffffffffffffffffffffffffffffffffffffffff168273ffffffffffffffffffffffffffffffffffffffff161415610a97576040517f08c379a0000000000000000000000000000000000000000000000000000000008152600401610a8e906122cc565b60405180910390fd5b8060056000610aa4610e78565b73ffffffffffffffffffffffffffffffffffffffff1673ffffffffffffffffffffffffffffffffffffffff16815260200190815260200160002060008473ffffffffffffffffffffffffffffffffffffffff1673ffffffffffffffffffffffffffffffffffffffff16815260200190815260200160002060006101000a81548160ff0219169083151502179055508173ffffffffffffffffffffffffffffffffffffffff16610b51610e78565b73ffffffffffffffffffffffffffffffffffffffff167f17307eab39ab6107e8899845ad3d59bd9653f200f220920489ca2b5937696c3183604051610b96919061220f565b60405180910390a35050565b610bb3610bad610e78565b83610f39565b610bf2576040517f08c379a0000000000000000000000000000000000000000000000000000000008152600401610be99061244c565b60405180910390fd5b610bfe84848484611357565b50505050565b6060610c0f826113b3565b9050919050565b6000600560008473ffffffffffffffffffffffffffffffffffffffff1673ffffffffffffffffffffffffffffffffffffffff16815260200190815260200160002060008373ffffffffffffffffffffffffffffffffffffffff1673ffffffffffffffffffffffffffffffffffffffff16815260200190815260200160002060009054906101000a900460ff16905092915050565b610cb2610e78565b73ffffffffffffffffffffffffffffffffffffffff16610cd06108db565b73ffffffffffffffffffffffffffffffffffffffff1614610d26576040517f08c379a0000000000000000000000000000000000000000000000000000000008152600401610d1d906123cc565b60405180910390fd5b600073ffffffffffffffffffffffffffffffffffffffff168173ffffffffffffffffffffffffffffffffffffffff161415610d96576040517f08c379a0000000000000000000000000000000000000000000000000000000008152600401610d8d9061226c565b60405180910390fd5b610d9f81611273565b50565b60007f01ffc9a7000000000000000000000000000000000000000000000000000000007bffffffffffffffffffffffffffffffffffffffffffffffffffffffff1916827bffffffffffffffffffffffffffffffffffffffffffffffffffffffff1916149050919050565b60008073ffffffffffffffffffffffffffffffffffffffff166002600084815260200190815260200160002060009054906101000a900473ffffffffffffffffffffffffffffffffffffffff1673ffffffffffffffffffffffffffffffffffffffff1614159050919050565b600033905090565b816004600083815260200190815260200160002060006101000a81548173ffffffffffffffffffffffffffffffffffffffff021916908373ffffffffffffffffffffffffffffffffffffffff160217905550808273ffffffffffffffffffffffffffffffffffffffff16610ef3836106e9565b73ffffffffffffffffffffffffffffffffffffffff167f8c5be1e5ebec7d5bd14f71427d1e84f3dd0314c0f7b2291e5b200ac8c7c3b92560405160405180910390a45050565b6000610f4482610e0c565b610f83576040517f08c379a0000000000000000000000000000000000000000000000000000000008152600401610f7a906122ec565b60405180910390fd5b6000610f8e836106e9565b90508073ffffffffffffffffffffffffffffffffffffffff168473ffffffffffffffffffffffffffffffffffffffff161480610ffd57508373ffffffffffffffffffffffffffffffffffffffff16610fe5846104cc565b73ffffffffffffffffffffffffffffffffffffffff16145b8061100e575061100d8185610c16565b5b91505092915050565b8273ffffffffffffffffffffffffffffffffffffffff16611037826106e9565b73ffffffffffffffffffffffffffffffffffffffff161461108d576040517f08c379a0000000000000000000000000000000000000000000000000000000008152600401611084906123ec565b60405180910390fd5b600073ffffffffffffffffffffffffffffffffffffffff168273ffffffffffffffffffffffffffffffffffffffff1614156110fd576040517f08c379a00000000000000000000000000000000000000000000000000000000081526004016110f4906122ac565b60405180910390fd5b611108838383611505565b611113600082610e80565b6001600360008573ffffffffffffffffffffffffffffffffffffffff1673ffffffffffffffffffffffffffffffffffffffff168152602001908152602001600020600082825461116391906125a7565b925050819055506001600360008473ffffffffffffffffffffffffffffffffffffffff1673ffffffffffffffffffffffffffffffffffffffff16815260200190815260200160002060008282546111ba9190612520565b92505081905550816002600083815260200190815260200160002060006101000a81548173ffffffffffffffffffffffffffffffffffffffff021916908373ffffffffffffffffffffffffffffffffffffffff160217905550808273ffffffffffffffffffffffffffffffffffffffff168473ffffffffffffffffffffffffffffffffffffffff167fddf252ad1be2c89b69c2b068fc378daa952ba7f163c4a11628f55a4df523b3ef60405160405180910390a4505050565b6000600760009054906101000a900473ffffffffffffffffffffffffffffffffffffffff16905081600760006101000a81548173ffffffffffffffffffffffffffffffffffffffff021916908373ffffffffffffffffffffffffffffffffffffffff1602179055508173ffffffffffffffffffffffffffffffffffffffff168173ffffffffffffffffffffffffffffffffffffffff167f8be0079c531659141344cd1fd0a4f28419497f9722a3daafe3b4186f6b6457e060405160405180910390a35050565b61135382826040518060200160405280600081525061150a565b5050565b611362848484611017565b61136e84848484611565565b6113ad576040517f08c379a00000000000000000000000000000000000000000000000000000000081526004016113a49061224c565b60405180910390fd5b50505050565b60606113be82610e0c565b6113fd576040517f08c379a00000000000000000000000000000000000000000000000000000000081526004016113f49061238c565b60405180910390fd5b600060066000848152602001908152602001600020805461141d90612691565b80601f016020809104026020016040519081016040528092919081815260200182805461144990612691565b80156114965780601f1061146b57610100808354040283529160200191611496565b820191906000526020600020905b81548152906001019060200180831161147957829003601f168201915b5050505050905060006114a76116fc565b90506000815114156114bd578192505050611500565b6000825111156114f25780826040516020016114da929190612184565b60405160208183030381529060405292505050611500565b6114fb84611739565b925050505b919050565b505050565b61151483836117e0565b6115216000848484611565565b611560576040517f08c379a00000000000000000000000000000000000000000000000000000000081526004016115579061224c565b60405180910390fd5b505050565b60006115868473ffffffffffffffffffffffffffffffffffffffff166119ae565b156116ef578373ffffffffffffffffffffffffffffffffffffffff1663150b7a026115af610e78565b8786866040518563ffffffff1660e01b81526004016115d194939291906121c3565b602060405180830381600087803b1580156115eb57600080fd5b505af192505050801561161c57506040513d601f19601f820116820180604052508101906116199190611e0f565b60015b61169f573d806000811461164c576040519150601f19603f3d011682016040523d82523d6000602084013e611651565b606091505b50600081511415611697576040517f08c379a000000000000000000000000000000000000000000000000000000000815260040161168e9061224c565b60405180910390fd5b805181602001fd5b63150b7a0260e01b7bffffffffffffffffffffffffffffffffffffffffffffffffffffffff1916817bffffffffffffffffffffffffffffffffffffffffffffffffffffffff1916149150506116f4565b600190505b949350505050565b60606040518060400160405280601481526020017f68747470733a2f2f647075626c6973682e6f7267000000000000000000000000815250905090565b606061174482610e0c565b611783576040517f08c379a000000000000000000000000000000000000000000000000000000000815260040161177a9061240c565b60405180910390fd5b600061178d6116fc565b905060008151116117ad57604051806020016040528060008152506117d8565b806117b7846119c1565b6040516020016117c8929190612184565b6040516020818303038152906040525b915050919050565b600073ffffffffffffffffffffffffffffffffffffffff168273ffffffffffffffffffffffffffffffffffffffff161415611850576040517f08c379a00000000000000000000000000000000000000000000000000000000081526004016118479061236c565b60405180910390fd5b61185981610e0c565b15611899576040517f08c379a00000000000000000000000000000000000000000000000000000000081526004016118909061228c565b60405180910390fd5b6118a560008383611505565b6001600360008473ffffffffffffffffffffffffffffffffffffffff1673ffffffffffffffffffffffffffffffffffffffff16815260200190815260200160002060008282546118f59190612520565b92505081905550816002600083815260200190815260200160002060006101000a81548173ffffffffffffffffffffffffffffffffffffffff021916908373ffffffffffffffffffffffffffffffffffffffff160217905550808273ffffffffffffffffffffffffffffffffffffffff16600073ffffffffffffffffffffffffffffffffffffffff167fddf252ad1be2c89b69c2b068fc378daa952ba7f163c4a11628f55a4df523b3ef60405160405180910390a45050565b600080823b905060008111915050919050565b60606000821415611a09576040518060400160405280600181526020017f30000000000000000000000000000000000000000000000000000000000000008152509050611b69565b600082905060005b60008214611a3b578080611a24906126f4565b915050600a82611a349190612576565b9150611a11565b60008167ffffffffffffffff811115611a7d577f4e487b7100000000000000000000000000000000000000000000000000000000600052604160045260246000fd5b6040519080825280601f01601f191660200182016040528015611aaf5781602001600182028036833780820191505090505b5090505b60008514611b6257600182611ac891906125a7565b9150600a85611ad7919061273d565b6030611ae39190612520565b60f81b818381518110611b1f577f4e487b7100000000000000000000000000000000000000000000000000000000600052603260045260246000fd5b60200101907effffffffffffffffffffffffffffffffffffffffffffffffffffffffffffff1916908160001a905350600a85611b5b9190612576565b9450611ab3565b8093505050505b919050565b6000611b81611b7c846124ac565b612487565b905082815260208101848484011115611b9957600080fd5b611ba484828561264f565b509392505050565b600081359050611bbb81612ce2565b92915050565b600081359050611bd081612cf9565b92915050565b600081359050611be581612d10565b92915050565b600081519050611bfa81612d10565b92915050565b600082601f830112611c1157600080fd5b8135611c21848260208601611b6e565b91505092915050565b600081359050611c3981612d27565b92915050565b600060208284031215611c5157600080fd5b6000611c5f84828501611bac565b91505092915050565b60008060408385031215611c7b57600080fd5b6000611c8985828601611bac565b9250506020611c9a85828601611bac565b9150509250929050565b600080600060608486031215611cb957600080fd5b6000611cc786828701611bac565b9350506020611cd886828701611bac565b9250506040611ce986828701611c2a565b9150509250925092565b60008060008060808587031215611d0957600080fd5b6000611d1787828801611bac565b9450506020611d2887828801611bac565b9350506040611d3987828801611c2a565b925050606085013567ffffffffffffffff811115611d5657600080fd5b611d6287828801611c00565b91505092959194509250565b60008060408385031215611d8157600080fd5b6000611d8f85828601611bac565b9250506020611da085828601611bc1565b9150509250929050565b60008060408385031215611dbd57600080fd5b6000611dcb85828601611bac565b9250506020611ddc85828601611c2a565b9150509250929050565b600060208284031215611df857600080fd5b6000611e0684828501611bd6565b91505092915050565b600060208284031215611e2157600080fd5b6000611e2f84828501611beb565b91505092915050565b600060208284031215611e4a57600080fd5b6000611e5884828501611c2a565b91505092915050565b611e6a816125db565b82525050565b611e79816125ed565b82525050565b6000611e8a826124dd565b611e9481856124f3565b9350611ea481856020860161265e565b611ead8161282a565b840191505092915050565b6000611ec3826124e8565b611ecd8185612504565b9350611edd81856020860161265e565b611ee68161282a565b840191505092915050565b6000611efc826124e8565b611f068185612515565b9350611f1681856020860161265e565b80840191505092915050565b6000611f2f603283612504565b9150611f3a8261283b565b604082019050919050565b6000611f52602683612504565b9150611f5d8261288a565b604082019050919050565b6000611f75601c83612504565b9150611f80826128d9565b602082019050919050565b6000611f98602483612504565b9150611fa382612902565b604082019050919050565b6000611fbb601983612504565b9150611fc682612951565b602082019050919050565b6000611fde602c83612504565b9150611fe98261297a565b604082019050919050565b6000612001603883612504565b915061200c826129c9565b604082019050919050565b6000612024602a83612504565b915061202f82612a18565b604082019050919050565b6000612047602983612504565b915061205282612a67565b604082019050919050565b600061206a602083612504565b915061207582612ab6565b602082019050919050565b600061208d603183612504565b915061209882612adf565b604082019050919050565b60006120b0602c83612504565b91506120bb82612b2e565b604082019050919050565b60006120d3602083612504565b91506120de82612b7d565b602082019050919050565b60006120f6602983612504565b915061210182612ba6565b604082019050919050565b6000612119602f83612504565b915061212482612bf5565b604082019050919050565b600061213c602183612504565b915061214782612c44565b604082019050919050565b600061215f603183612504565b915061216a82612c93565b604082019050919050565b61217e81612645565b82525050565b60006121908285611ef1565b915061219c8284611ef1565b91508190509392505050565b60006020820190506121bd6000830184611e61565b92915050565b60006080820190506121d86000830187611e61565b6121e56020830186611e61565b6121f26040830185612175565b81810360608301526122048184611e7f565b905095945050505050565b60006020820190506122246000830184611e70565b92915050565b600060208201905081810360008301526122448184611eb8565b905092915050565b6000602082019050818103600083015261226581611f22565b9050919050565b6000602082019050818103600083015261228581611f45565b9050919050565b600060208201905081810360008301526122a581611f68565b9050919050565b600060208201905081810360008301526122c581611f8b565b9050919050565b600060208201905081810360008301526122e581611fae565b9050919050565b6000602082019050818103600083015261230581611fd1565b9050919050565b6000602082019050818103600083015261232581611ff4565b9050919050565b6000602082019050818103600083015261234581612017565b9050919050565b600060208201905081810360008301526123658161203a565b9050919050565b600060208201905081810360008301526123858161205d565b9050919050565b600060208201905081810360008301526123a581612080565b9050919050565b600060208201905081810360008301526123c5816120a3565b9050919050565b600060208201905081810360008301526123e5816120c6565b9050919050565b60006020820190508181036000830152612405816120e9565b9050919050565b600060208201905081810360008301526124258161210c565b9050919050565b600060208201905081810360008301526124458161212f565b9050919050565b6000602082019050818103600083015261246581612152565b9050919050565b60006020820190506124816000830184612175565b92915050565b60006124916124a2565b905061249d82826126c3565b919050565b6000604051905090565b600067ffffffffffffffff8211156124c7576124c66127fb565b5b6124d08261282a565b9050602081019050919050565b600081519050919050565b600081519050919050565b600082825260208201905092915050565b600082825260208201905092915050565b600081905092915050565b600061252b82612645565b915061253683612645565b9250827fffffffffffffffffffffffffffffffffffffffffffffffffffffffffffffffff0382111561256b5761256a61276e565b5b828201905092915050565b600061258182612645565b915061258c83612645565b92508261259c5761259b61279d565b5b828204905092915050565b60006125b282612645565b91506125bd83612645565b9250828210156125d0576125cf61276e565b5b828203905092915050565b60006125e682612625565b9050919050565b60008115159050919050565b60007fffffffff0000000000000000000000000000000000000000000000000000000082169050919050565b600073ffffffffffffffffffffffffffffffffffffffff82169050919050565b6000819050919050565b82818337600083830152505050565b60005b8381101561267c578082015181840152602081019050612661565b8381111561268b576000848401525b50505050565b600060028204905060018216806126a957607f821691505b602082108114156126bd576126bc6127cc565b5b50919050565b6126cc8261282a565b810181811067ffffffffffffffff821117156126eb576126ea6127fb565b5b80604052505050565b60006126ff82612645565b91507fffffffffffffffffffffffffffffffffffffffffffffffffffffffffffffffff8214156127325761273161276e565b5b600182019050919050565b600061274882612645565b915061275383612645565b9250826127635761276261279d565b5b828206905092915050565b7f4e487b7100000000000000000000000000000000000000000000000000000000600052601160045260246000fd5b7f4e487b7100000000000000000000000000000000000000000000000000000000600052601260045260246000fd5b7f4e487b7100000000000000000000000000000000000000000000000000000000600052602260045260246000fd5b7f4e487b7100000000000000000000000000000000000000000000000000000000600052604160045260246000fd5b6000601f19601f8301169050919050565b7f4552433732313a207472616e7366657220746f206e6f6e20455243373231526560008201527f63656976657220696d706c656d656e7465720000000000000000000000000000602082015250565b7f4f776e61626c653a206e6577206f776e657220697320746865207a65726f206160008201527f6464726573730000000000000000000000000000000000000000000000000000602082015250565b7f4552433732313a20746f6b656e20616c7265616479206d696e74656400000000600082015250565b7f4552433732313a207472616e7366657220746f20746865207a65726f2061646460008201527f7265737300000000000000000000000000000000000000000000000000000000602082015250565b7f4552433732313a20617070726f766520746f2063616c6c657200000000000000600082015250565b7f4552433732313a206f70657261746f7220717565727920666f72206e6f6e657860008201527f697374656e7420746f6b656e0000000000000000000000000000000000000000602082015250565b7f4552433732313a20617070726f76652063616c6c6572206973206e6f74206f7760008201527f6e6572206e6f7220617070726f76656420666f7220616c6c0000000000000000602082015250565b7f4552433732313a2062616c616e636520717565727920666f7220746865207a6560008201527f726f206164647265737300000000000000000000000000000000000000000000602082015250565b7f4552433732313a206f776e657220717565727920666f72206e6f6e657869737460008201527f656e7420746f6b656e0000000000000000000000000000000000000000000000602082015250565b7f4552433732313a206d696e7420746f20746865207a65726f2061646472657373600082015250565b7f45524337323155524953746f726167653a2055524920717565727920666f722060008201527f6e6f6e6578697374656e7420746f6b656e000000000000000000000000000000602082015250565b7f4552433732313a20617070726f76656420717565727920666f72206e6f6e657860008201527f697374656e7420746f6b656e0000000000000000000000000000000000000000602082015250565b7f4f776e61626c653a2063616c6c6572206973206e6f7420746865206f776e6572600082015250565b7f4552433732313a207472616e73666572206f6620746f6b656e2074686174206960008201527f73206e6f74206f776e0000000000000000000000000000000000000000000000602082015250565b7f4552433732314d657461646174613a2055524920717565727920666f72206e6f60008201527f6e6578697374656e7420746f6b656e0000000000000000000000000000000000602082015250565b7f4552433732313a20617070726f76616c20746f2063757272656e74206f776e6560008201527f7200000000000000000000000000000000000000000000000000000000000000602082015250565b7f4552433732313a207472616e736665722063616c6c6572206973206e6f74206f60008201527f776e6572206e6f7220617070726f766564000000000000000000000000000000602082015250565b612ceb816125db565b8114612cf657600080fd5b50565b612d02816125ed565b8114612d0d57600080fd5b50565b612d19816125f9565b8114612d2457600080fd5b50565b612d3081612645565b8114612d3b57600080fd5b5056fea26469706673582212205ad83de8545fc7f97205ec8e9112a7198c928c1ec7f0d23ae7c560324be5830164736f6c63430008020033",
  "immutableReferences": {},
  "source": "pragma solidity ^0.8.2;\r\n\r\nimport \"@openzeppelin/contracts/token/ERC20/ERC20.sol\";\r\nimport \"@openzeppelin/contracts/token/ERC20/extensions/draft-ERC20Permit.sol\";\r\nimport \"@openzeppelin/contracts/token/ERC20/extensions/ERC20Votes.sol\";\r\n\r\nimport \"./DpubToken.sol\";\r\nimport \"./PaperToken.sol\";\r\nimport \"./ReviewToken.sol\";\r\n\r\n\r\ncontract DPublish {\r\n\r\n    address public plublisher;\r\n\r\n    DPubToken public token; \r\n\r\n    PaperToken public paperNFT;\r\n\r\n    ReviewToken public reviewNFT;\r\n    \r\n\r\n    struct _plublisherWalet {\r\n        address addr;\r\n        uint amount;\r\n    }\r\n\r\n    constructor(){\r\n        plublisher = msg.sender;\r\n        token = new DPubToken();\r\n        paperNFT = new PaperToken();\r\n        reviewNFT = new ReviewToken();\r\n    }\r\n\r\n\r\n    enum StatusDoc {unrevised, partial_review, revised}\r\n    \r\n\r\n    uint minimunRate = 10000;\r\n    struct PublishDoc {\r\n        address owner;\r\n        string name;\r\n        StatusDoc status;\r\n        string contentLink;\r\n        uint priority;\r\n        uint256 paperID;\r\n    }\r\n\r\n    struct walet{\r\n        PublishDoc[] myDocs;\r\n        PublishDoc[] RevisedDoc; \r\n        uint NumberOfDocs;\r\n    }\r\n\r\n    mapping (address => uint) private fund;\r\n    mapping(address => walet) private MyRecord;\r\n    mapping(string => address) private reviewer1;\r\n    mapping(string => address) private reviewer2;\r\n\r\n    function newDoc(string memory _name, string memory _contentLlink, uint amount) public returns(string memory){\r\n        require(amount>minimunRate, \"Your payment is insufficient.\");\r\n        require(fund[msg.sender] - amount>0, \"Your balance is insufficient.\");\r\n        bool x = token.transferFrom(msg.sender,plublisher,amount);  \r\n        if (x){\r\n\r\n                PublishDoc memory AuxDoc = PublishDoc({\r\n                owner: msg.sender,\r\n                name: _name,\r\n                status: StatusDoc.unrevised,\r\n                contentLink: _contentLlink,\r\n                priority: amount,\r\n                paperID: paperNFT.newID()\r\n            });\r\n            MyRecord[msg.sender].myDocs.push(AuxDoc);\r\n            paperNFT.safeMint(msg.sender, AuxDoc.paperID);\r\n            return(\"Add a new doc\");\r\n        }else{\r\n            return \"Error performing the transfer\";\r\n        }\r\n    }\r\n\r\n    function getDocsPublished(address _address) public view returns(PublishDoc[] memory){\r\n\r\n        uint j=0;\r\n        uint i = 0;\r\n        uint len = MyRecord[_address].NumberOfDocs ;\r\n\r\n        PublishDoc[] memory aux = new PublishDoc[](len);\r\n        \r\n        for (; j < len; j = j+1) {  \r\n            if (MyRecord[_address].myDocs[j].status == StatusDoc.revised){\r\n                aux[i] = MyRecord[_address].myDocs[j];\r\n            }      \r\n            i = i+1;\r\n        }\r\n\r\n        return aux; \r\n\r\n    } \r\n    \r\n\r\n    function revised(PublishDoc memory doc, address reviewer) public returns(bool){\r\n        if(doc.status == StatusDoc.revised){\r\n            return false;\r\n        }\r\n        else {\r\n            bool x;\r\n            if (reviewer1[doc.name] == reviewer){\r\n                x = false;\r\n            }\r\n            else{\r\n                x = token.transferFrom(plublisher,reviewer,doc.priority*2/5);\r\n            }\r\n            if (doc.status == StatusDoc.unrevised && x){\r\n                reviewNFT.safeMint(doc.owner, doc.paperID);\r\n                doc.status = StatusDoc.partial_review; \r\n                reviewer1[doc.name] = reviewer;\r\n                MyRecord[reviewer].RevisedDoc.push(doc);\r\n            }\r\n            else if(doc.status==StatusDoc.partial_review && x){\r\n                reviewNFT.safeMint(doc.owner, doc.paperID);\r\n                doc.status = StatusDoc.revised;\r\n                reviewer2[doc.name] = reviewer;\r\n                MyRecord[reviewer].RevisedDoc.push(doc);\r\n            }\r\n            return x;\r\n        }\r\n    } \r\n\r\n    function getReviews(address _address) public view returns(PublishDoc[] memory){\r\n        return MyRecord[_address].RevisedDoc;\r\n    }\r\n\r\n\r\n    event Transfer(address indexed from, address indexed to, uint value);\r\n\r\n    event NewDoc(string indexed _name,string indexed _contentLlink,int amount);\r\n\r\n    event Revised(PublishDoc indexed _doc, address _reviewer);\r\n\r\n    event GetDocsPublished(address indexed _address);\r\n\r\n    event etReviews(address indexed _address);\r\n\r\n}",
  "sourcePath": "/mnt/c/Users/emanu/Documents/GitHub/Dpublish/contracts/DPublish.sol",
  "compiler": {
    "name": "solc",
    "version": "0.8.2+commit.661d1103.Emscripten.clang"
  },
  "schemaVersion": "3.4.3",
  "updatedAt": "2021-11-30T20:58:19.679Z",
  "devdoc": {
    "kind": "dev",
    "methods": {},
    "version": 1
  },
  "userdoc": {
    "kind": "user",
    "methods": {},
    "version": 1
  }
}