{
  "contractName": "DPublish",
  "abi": [
    {
      "inputs": [],
      "stateMutability": "nonpayable",
      "type": "constructor"
    },
    {
      "inputs": [
        {
          "internalType": "uint256",
          "name": "requested",
          "type": "uint256"
        },
        {
          "internalType": "uint256",
          "name": "avaible",
          "type": "uint256"
        }
      ],
      "name": "NotEnoughFunds",
      "type": "error"
    },
    {
      "anonymous": false,
      "inputs": [
        {
          "indexed": false,
          "internalType": "address",
          "name": "autor",
          "type": "address"
        },
        {
          "indexed": false,
          "internalType": "address",
          "name": "reviwer_1",
          "type": "address"
        },
        {
          "indexed": false,
          "internalType": "address",
          "name": "reviwer_2",
          "type": "address"
        },
        {
          "indexed": false,
          "internalType": "string",
          "name": "idmanuscript",
          "type": "string"
        }
      ],
      "name": "ManuscriptPublished",
      "type": "event"
    },
    {
      "anonymous": false,
      "inputs": [
        {
          "indexed": false,
          "internalType": "address",
          "name": "reviwer",
          "type": "address"
        },
        {
          "indexed": false,
          "internalType": "string",
          "name": "idmanuscript",
          "type": "string"
        },
        {
          "indexed": false,
          "internalType": "uint256",
          "name": "review_number",
          "type": "uint256"
        }
      ],
      "name": "ManuscriptRevised",
      "type": "event"
    },
    {
      "anonymous": false,
      "inputs": [
        {
          "indexed": false,
          "internalType": "address",
          "name": "from",
          "type": "address"
        },
        {
          "indexed": false,
          "internalType": "uint256",
          "name": "amount",
          "type": "uint256"
        }
      ],
      "name": "PaymentReceived",
      "type": "event"
    },
    {
      "inputs": [],
      "name": "WeiDPTK",
      "outputs": [
        {
          "internalType": "uint256",
          "name": "",
          "type": "uint256"
        }
      ],
      "stateMutability": "view",
      "type": "function",
      "constant": true
    },
    {
      "inputs": [
        {
          "internalType": "string",
          "name": "",
          "type": "string"
        }
      ],
      "name": "bounties",
      "outputs": [
        {
          "internalType": "uint256",
          "name": "",
          "type": "uint256"
        }
      ],
      "stateMutability": "view",
      "type": "function",
      "constant": true
    },
    {
      "inputs": [
        {
          "internalType": "string",
          "name": "",
          "type": "string"
        }
      ],
      "name": "manuscripts_links",
      "outputs": [
        {
          "internalType": "string",
          "name": "",
          "type": "string"
        }
      ],
      "stateMutability": "view",
      "type": "function",
      "constant": true
    },
    {
      "inputs": [
        {
          "internalType": "string",
          "name": "",
          "type": "string"
        }
      ],
      "name": "published",
      "outputs": [
        {
          "internalType": "bool",
          "name": "",
          "type": "bool"
        }
      ],
      "stateMutability": "view",
      "type": "function",
      "constant": true
    },
    {
      "inputs": [],
      "name": "publishing_fee",
      "outputs": [
        {
          "internalType": "uint256",
          "name": "",
          "type": "uint256"
        }
      ],
      "stateMutability": "view",
      "type": "function",
      "constant": true
    },
    {
      "inputs": [
        {
          "internalType": "string",
          "name": "",
          "type": "string"
        }
      ],
      "name": "review1_manuscripts",
      "outputs": [
        {
          "internalType": "address",
          "name": "",
          "type": "address"
        }
      ],
      "stateMutability": "view",
      "type": "function",
      "constant": true
    },
    {
      "inputs": [
        {
          "internalType": "string",
          "name": "",
          "type": "string"
        }
      ],
      "name": "review2_manuscripts",
      "outputs": [
        {
          "internalType": "address",
          "name": "",
          "type": "address"
        }
      ],
      "stateMutability": "view",
      "type": "function",
      "constant": true
    },
    {
      "inputs": [],
      "name": "review_fee",
      "outputs": [
        {
          "internalType": "uint256",
          "name": "",
          "type": "uint256"
        }
      ],
      "stateMutability": "view",
      "type": "function",
      "constant": true
    },
    {
      "inputs": [
        {
          "internalType": "string",
          "name": "",
          "type": "string"
        }
      ],
      "name": "review_qtd",
      "outputs": [
        {
          "internalType": "uint256",
          "name": "",
          "type": "uint256"
        }
      ],
      "stateMutability": "view",
      "type": "function",
      "constant": true
    },
    {
      "inputs": [
        {
          "internalType": "address",
          "name": "",
          "type": "address"
        }
      ],
      "name": "reviewers",
      "outputs": [
        {
          "internalType": "bool",
          "name": "",
          "type": "bool"
        }
      ],
      "stateMutability": "view",
      "type": "function",
      "constant": true
    },
    {
      "inputs": [
        {
          "internalType": "string",
          "name": "",
          "type": "string"
        }
      ],
      "name": "reviewing",
      "outputs": [
        {
          "internalType": "bool",
          "name": "",
          "type": "bool"
        }
      ],
      "stateMutability": "view",
      "type": "function",
      "constant": true
    },
    {
      "inputs": [
        {
          "internalType": "string",
          "name": "",
          "type": "string"
        }
      ],
      "name": "submited_manuscripts",
      "outputs": [
        {
          "internalType": "address",
          "name": "",
          "type": "address"
        }
      ],
      "stateMutability": "view",
      "type": "function",
      "constant": true
    },
    {
      "inputs": [
        {
          "internalType": "address",
          "name": "",
          "type": "address"
        }
      ],
      "name": "wallet_dptk",
      "outputs": [
        {
          "internalType": "uint256",
          "name": "",
          "type": "uint256"
        }
      ],
      "stateMutability": "view",
      "type": "function",
      "constant": true
    },
    {
      "inputs": [
        {
          "internalType": "address",
          "name": "",
          "type": "address"
        },
        {
          "internalType": "uint256",
          "name": "",
          "type": "uint256"
        }
      ],
      "name": "wallet_ptk",
      "outputs": [
        {
          "internalType": "string",
          "name": "idmanuscript",
          "type": "string"
        },
        {
          "internalType": "address",
          "name": "autor",
          "type": "address"
        },
        {
          "internalType": "string",
          "name": "link",
          "type": "string"
        }
      ],
      "stateMutability": "view",
      "type": "function",
      "constant": true
    },
    {
      "inputs": [
        {
          "internalType": "address",
          "name": "",
          "type": "address"
        },
        {
          "internalType": "uint256",
          "name": "",
          "type": "uint256"
        }
      ],
      "name": "wallet_rtk",
      "outputs": [
        {
          "internalType": "string",
          "name": "idmanuscript",
          "type": "string"
        },
        {
          "internalType": "address",
          "name": "autor",
          "type": "address"
        },
        {
          "internalType": "address",
          "name": "reviewer",
          "type": "address"
        },
        {
          "internalType": "uint256",
          "name": "review_number",
          "type": "uint256"
        },
        {
          "internalType": "string",
          "name": "link",
          "type": "string"
        }
      ],
      "stateMutability": "view",
      "type": "function",
      "constant": true
    },
    {
      "inputs": [
        {
          "internalType": "address",
          "name": "owner_wallet",
          "type": "address"
        }
      ],
      "name": "create_wallet",
      "outputs": [],
      "stateMutability": "nonpayable",
      "type": "function"
    },
    {
      "inputs": [
        {
          "internalType": "string",
          "name": "idmanuscript",
          "type": "string"
        }
      ],
      "name": "generate_link",
      "outputs": [],
      "stateMutability": "nonpayable",
      "type": "function"
    },
    {
      "inputs": [
        {
          "internalType": "uint256",
          "name": "fee",
          "type": "uint256"
        }
      ],
      "name": "set_publishing_fee",
      "outputs": [],
      "stateMutability": "nonpayable",
      "type": "function"
    },
    {
      "inputs": [
        {
          "internalType": "uint256",
          "name": "fee",
          "type": "uint256"
        }
      ],
      "name": "set_review_fee",
      "outputs": [],
      "stateMutability": "nonpayable",
      "type": "function"
    },
    {
      "inputs": [],
      "name": "get_publishing_fee",
      "outputs": [
        {
          "internalType": "uint256",
          "name": "",
          "type": "uint256"
        }
      ],
      "stateMutability": "view",
      "type": "function",
      "constant": true
    },
    {
      "inputs": [],
      "name": "get_review_fee",
      "outputs": [
        {
          "internalType": "uint256",
          "name": "",
          "type": "uint256"
        }
      ],
      "stateMutability": "view",
      "type": "function",
      "constant": true
    },
    {
      "inputs": [
        {
          "internalType": "uint256",
          "name": "qtd_DPTK",
          "type": "uint256"
        }
      ],
      "name": "buy_DPTK",
      "outputs": [],
      "stateMutability": "payable",
      "type": "function",
      "payable": true
    },
    {
      "inputs": [
        {
          "internalType": "string",
          "name": "idmanuscript",
          "type": "string"
        }
      ],
      "name": "submit_manuscript",
      "outputs": [],
      "stateMutability": "payable",
      "type": "function",
      "payable": true
    },
    {
      "inputs": [],
      "name": "subscribe_reviewer",
      "outputs": [],
      "stateMutability": "nonpayable",
      "type": "function"
    },
    {
      "inputs": [
        {
          "internalType": "string",
          "name": "idmanuscript",
          "type": "string"
        },
        {
          "internalType": "bool",
          "name": "review_1",
          "type": "bool"
        }
      ],
      "name": "start_review",
      "outputs": [],
      "stateMutability": "nonpayable",
      "type": "function"
    },
    {
      "inputs": [
        {
          "internalType": "string",
          "name": "idmanuscript",
          "type": "string"
        },
        {
          "internalType": "bool",
          "name": "review_1",
          "type": "bool"
        }
      ],
      "name": "finish_review",
      "outputs": [],
      "stateMutability": "nonpayable",
      "type": "function"
    }
  ],
  "bytecode": "0x60806040526103e8600a556103e8600b5560fa600c5534801561002157600080fd5b5033600960006101000a81548173ffffffffffffffffffffffffffffffffffffffff021916908373ffffffffffffffffffffffffffffffffffffffff160217905550610094600960009054906101000a900473ffffffffffffffffffffffffffffffffffffffff1661010360201b60201c565b633b9aca00600d6000600960009054906101000a900473ffffffffffffffffffffffffffffffffffffffff1673ffffffffffffffffffffffffffffffffffffffff1673ffffffffffffffffffffffffffffffffffffffff1681526020019081526020016000208190555061022e565b6000600d60008373ffffffffffffffffffffffffffffffffffffffff1673ffffffffffffffffffffffffffffffffffffffff16815260200190815260200160002081905550600f60008273ffffffffffffffffffffffffffffffffffffffff1673ffffffffffffffffffffffffffffffffffffffff16815260200190815260200160002050601060008273ffffffffffffffffffffffffffffffffffffffff1673ffffffffffffffffffffffffffffffffffffffff16815260200190815260200160002050600e819080600181540180825580915050600190039060005260206000200160009091909190916101000a81548173ffffffffffffffffffffffffffffffffffffffff021916908373ffffffffffffffffffffffffffffffffffffffff16021790555050565b61311c806200023e6000396000f3fe6080604052600436106101815760003560e01c8063a52abdd2116100d1578063cdeca2521161008a578063d312aab611610064578063d312aab6146105c8578063dad5f954146105df578063eec8a1731461060a578063f7cbb1b21461064757610181565b8063cdeca2521461055a578063cf8f908514610576578063cfc253e51461059f57610181565b8063a52abdd214610424578063a64f4aeb14610461578063a7233bd31461049e578063bfb11e50146104db578063c4ee991c14610506578063cbb5f2d01461052f57610181565b80636edfe8e71161013e578063759d865611610118578063759d8656146103565780639a6f9d381461037f5780639a86285f146103bc578063a1338fa3146103e757610181565b80636edfe8e7146102af578063702778d6146102f0578063722a57131461031957610181565b80633a46b4c4146101865780633cbef373146101c35780634a50c23e1461020057806356da90961461023f5780635738555a14610268578063617c0e2e14610293575b600080fd5b34801561019257600080fd5b506101ad60048036038101906101a89190612529565b610684565b6040516101ba9190612812565b60405180910390f35b3480156101cf57600080fd5b506101ea60048036038101906101e59190612529565b6106cd565b6040516101f79190612b21565b60405180910390f35b34801561020c57600080fd5b50610227600480360381019061022291906124ed565b6106fb565b604051610236939291906129bc565b60405180910390f35b34801561024b57600080fd5b5061026660048036038101906102619190612529565b610872565b005b34801561027457600080fd5b5061027d6108e6565b60405161028a9190612b21565b60405180910390f35b6102ad60048036038101906102a891906125be565b6108ec565b005b3480156102bb57600080fd5b506102d660048036038101906102d191906124ed565b610a1e565b6040516102e795949392919061295b565b60405180910390f35b3480156102fc57600080fd5b50610317600480360381019061031291906125be565b610bc1565b005b34801561032557600080fd5b50610340600480360381019061033b9190612529565b610c5b565b60405161034d9190612b21565b60405180910390f35b34801561036257600080fd5b5061037d600480360381019061037891906125be565b610c89565b005b34801561038b57600080fd5b506103a660048036038101906103a19190612529565b610d23565b6040516103b39190612939565b60405180910390f35b3480156103c857600080fd5b506103d1610dd9565b6040516103de9190612b21565b60405180910390f35b3480156103f357600080fd5b5061040e60048036038101906104099190612529565b610de3565b60405161041b9190612812565b60405180910390f35b34801561043057600080fd5b5061044b60048036038101906104469190612529565b610e2c565b604051610458919061291e565b60405180910390f35b34801561046d57600080fd5b5061048860048036038101906104839190612529565b610e62565b6040516104959190612812565b60405180910390f35b3480156104aa57600080fd5b506104c560048036038101906104c09190612529565b610eab565b6040516104d2919061291e565b60405180910390f35b3480156104e757600080fd5b506104f0610ee1565b6040516104fd9190612b21565b60405180910390f35b34801561051257600080fd5b5061052d6004803603810190610528919061256a565b610eeb565b005b34801561053b57600080fd5b5061054461138c565b6040516105519190612b21565b60405180910390f35b610574600480360381019061056f9190612529565b611392565b005b34801561058257600080fd5b5061059d6004803603810190610598919061256a565b6115d5565b005b3480156105ab57600080fd5b506105c660048036038101906105c191906124c4565b611a68565b005b3480156105d457600080fd5b506105dd611b93565b005b3480156105eb57600080fd5b506105f4611c04565b6040516106019190612b21565b60405180910390f35b34801561061657600080fd5b50610631600480360381019061062c91906124c4565b611c0a565b60405161063e9190612b21565b60405180910390f35b34801561065357600080fd5b5061066e600480360381019061066991906124c4565b611c22565b60405161067b919061291e565b60405180910390f35b6003818051602081018201805184825260208301602085012081835280955050505050506000915054906101000a900473ffffffffffffffffffffffffffffffffffffffff1681565b6002818051602081018201805184825260208301602085012081835280955050505050506000915090505481565b600f602052816000526040600020818154811061071757600080fd5b90600052602060002090600302016000915091505080600001805461073b90612d74565b80601f016020809104026020016040519081016040528092919081815260200182805461076790612d74565b80156107b45780601f10610789576101008083540402835291602001916107b4565b820191906000526020600020905b81548152906001019060200180831161079757829003601f168201915b5050505050908060010160009054906101000a900473ffffffffffffffffffffffffffffffffffffffff16908060020180546107ef90612d74565b80601f016020809104026020016040519081016040528092919081815260200182805461081b90612d74565b80156108685780601f1061083d57610100808354040283529160200191610868565b820191906000526020600020905b81548152906001019060200180831161084b57829003601f168201915b5050505050905083565b6108b16040518060400160405280601581526020017f68747470733a2f2f647075626c6973682e6f72672f000000000000000000000081525082611c42565b6001826040516108c191906127d7565b908152602001604051809103902090805190602001906108e292919061237a565b5050565b600c5481565b80600a546108fa9190612c38565b3373ffffffffffffffffffffffffffffffffffffffff16311015610953576040517f08c379a000000000000000000000000000000000000000000000000000000000815260040161094a90612a81565b60405180910390fd5b61095c33611c6e565b6109c45761096933611a68565b80600d60003373ffffffffffffffffffffffffffffffffffffffff1673ffffffffffffffffffffffffffffffffffffffff16815260200190815260200160002060008282546109b89190612be2565b92505081905550610a1b565b80600d60003373ffffffffffffffffffffffffffffffffffffffff1673ffffffffffffffffffffffffffffffffffffffff1681526020019081526020016000206000828254610a139190612be2565b925050819055505b50565b60106020528160005260406000208181548110610a3a57600080fd5b906000526020600020906005020160009150915050806000018054610a5e90612d74565b80601f0160208091040260200160405190810160405280929190818152602001828054610a8a90612d74565b8015610ad75780601f10610aac57610100808354040283529160200191610ad7565b820191906000526020600020905b815481529060010190602001808311610aba57829003601f168201915b5050505050908060010160009054906101000a900473ffffffffffffffffffffffffffffffffffffffff16908060020160009054906101000a900473ffffffffffffffffffffffffffffffffffffffff1690806003015490806004018054610b3e90612d74565b80601f0160208091040260200160405190810160405280929190818152602001828054610b6a90612d74565b8015610bb75780601f10610b8c57610100808354040283529160200191610bb7565b820191906000526020600020905b815481529060010190602001808311610b9a57829003601f168201915b5050505050905085565b600960009054906101000a900473ffffffffffffffffffffffffffffffffffffffff1673ffffffffffffffffffffffffffffffffffffffff163373ffffffffffffffffffffffffffffffffffffffff1614610c51576040517f08c379a0000000000000000000000000000000000000000000000000000000008152600401610c4890612ae1565b60405180910390fd5b80600c8190555050565b6006818051602081018201805184825260208301602085012081835280955050505050506000915090505481565b600960009054906101000a900473ffffffffffffffffffffffffffffffffffffffff1673ffffffffffffffffffffffffffffffffffffffff163373ffffffffffffffffffffffffffffffffffffffff1614610d19576040517f08c379a0000000000000000000000000000000000000000000000000000000008152600401610d1090612ae1565b60405180910390fd5b80600b8190555050565b6001818051602081018201805184825260208301602085012081835280955050505050506000915090508054610d5890612d74565b80601f0160208091040260200160405190810160405280929190818152602001828054610d8490612d74565b8015610dd15780601f10610da657610100808354040283529160200191610dd1565b820191906000526020600020905b815481529060010190602001808311610db457829003601f168201915b505050505081565b6000600b54905090565b6004818051602081018201805184825260208301602085012081835280955050505050506000915054906101000a900473ffffffffffffffffffffffffffffffffffffffff1681565b6008818051602081018201805184825260208301602085012081835280955050505050506000915054906101000a900460ff1681565b6000818051602081018201805184825260208301602085012081835280955050505050506000915054906101000a900473ffffffffffffffffffffffffffffffffffffffff1681565b6007818051602081018201805184825260208301602085012081835280955050505050506000915054906101000a900460ff1681565b6000600c54905090565b6001600783604051610efd91906127d7565b908152602001604051809103902060006101000a81548160ff0219169083151502179055610f60576040517f08c379a0000000000000000000000000000000000000000000000000000000008152600401610f5790612b01565b60405180910390fd5b80156110d5573373ffffffffffffffffffffffffffffffffffffffff16600383604051610f8d91906127d7565b908152602001604051809103902060009054906101000a900473ffffffffffffffffffffffffffffffffffffffff1673ffffffffffffffffffffffffffffffffffffffff1614611012576040517f08c379a000000000000000000000000000000000000000000000000000000000815260040161100990612a41565b60405180910390fd5b600160068360405161102491906127d7565b908152602001604051809103902060008282546110419190612be2565b92505081905550600060078360405161105a91906127d7565b908152602001604051809103902060006101000a81548160ff02191690831515021790555061108b82336001611d43565b6110943361204e565b7f1fb0abc4c62b3a14144422a4374bda4e032b5353d8fc931237f3407e4cb92f54338360016040516110c893929190612879565b60405180910390a1611388565b3373ffffffffffffffffffffffffffffffffffffffff166004836040516110fc91906127d7565b908152602001604051809103902060009054906101000a900473ffffffffffffffffffffffffffffffffffffffff1673ffffffffffffffffffffffffffffffffffffffff1614611181576040517f08c379a000000000000000000000000000000000000000000000000000000000815260040161117890612a41565b60405180910390fd5b600160068360405161119391906127d7565b908152602001604051809103902060008282546111b09190612be2565b9250508190555060006007836040516111c991906127d7565b908152602001604051809103902060006101000a81548160ff0219169083151502179055506111f78261213c565b61120382336001611d43565b61120c3361204e565b6112548260008460405161122091906127d7565b908152602001604051809103902060009054906101000a900473ffffffffffffffffffffffffffffffffffffffff16612176565b7f1fb0abc4c62b3a14144422a4374bda4e032b5353d8fc931237f3407e4cb92f5433836002604051611288939291906128b7565b60405180910390a17f5745b6265ade898983f45b04ba7143ada49a0e961d7bb59bec36c85d2bb5911e6000836040516112c191906127d7565b908152602001604051809103902060009054906101000a900473ffffffffffffffffffffffffffffffffffffffff1660038460405161130091906127d7565b908152602001604051809103902060009054906101000a900473ffffffffffffffffffffffffffffffffffffffff1660048560405161133f91906127d7565b908152602001604051809103902060009054906101000a900473ffffffffffffffffffffffffffffffffffffffff168560405161137f949392919061282d565b60405180910390a15b5050565b600b5481565b336000826040516113a391906127d7565b908152602001604051809103902060006101000a81548173ffffffffffffffffffffffffffffffffffffffff021916908373ffffffffffffffffffffffffffffffffffffffff1602179055506113f881610872565b6000600d60003373ffffffffffffffffffffffffffffffffffffffff1673ffffffffffffffffffffffffffffffffffffffff168152602001908152602001600020549050600b5481101561148757600b54816040517f8c90536800000000000000000000000000000000000000000000000000000000815260040161147e929190612b3c565b60405180910390fd5b600b54600d60003373ffffffffffffffffffffffffffffffffffffffff1673ffffffffffffffffffffffffffffffffffffffff16815260200190815260200160002060008282546114d89190612c92565b92505081905550600b546002836040516114f291906127d7565b908152602001604051809103902081905550600060068360405161151691906127d7565b908152602001604051809103902081905550600060078360405161153a91906127d7565b908152602001604051809103902060006101000a81548160ff021916908315150217905550600060088360405161157191906127d7565b908152602001604051809103902060006101000a81548160ff0219169083151502179055507f6ef95f06320e7a25a04a175ca677b7052bdd97131872c2192525a629f51be77033600b546040516115c99291906128f5565b60405180910390a15050565b60011515600560003373ffffffffffffffffffffffffffffffffffffffff1673ffffffffffffffffffffffffffffffffffffffff16815260200190815260200160002060009054906101000a900460ff16151514611668576040517f08c379a000000000000000000000000000000000000000000000000000000000815260040161165f90612a01565b60405180910390fd5b600060088360405161167a91906127d7565b908152602001604051809103902060006101000a81548160ff02191690831515021790556116dd576040517f08c379a00000000000000000000000000000000000000000000000000000000081526004016116d490612a61565b60405180910390fd5b801561184f5760006006836040516116f591906127d7565b90815260200160405180910390205414611744576040517f08c379a000000000000000000000000000000000000000000000000000000000815260040161173b90612ac1565b60405180910390fd5b6000151560078360405161175891906127d7565b908152602001604051809103902060009054906101000a900460ff161515146117b6576040517f08c379a00000000000000000000000000000000000000000000000000000000081526004016117ad90612a21565b60405180910390fd5b60016007836040516117c891906127d7565b908152602001604051809103902060006101000a81548160ff021916908315150217905550336003836040516117fe91906127d7565b908152602001604051809103902060006101000a81548173ffffffffffffffffffffffffffffffffffffffff021916908373ffffffffffffffffffffffffffffffffffffffff160217905550611a64565b600160068360405161186191906127d7565b908152602001604051809103902054146118b0576040517f08c379a00000000000000000000000000000000000000000000000000000000081526004016118a790612a21565b60405180910390fd5b600015156007836040516118c491906127d7565b908152602001604051809103902060009054906101000a900460ff16151514611922576040517f08c379a000000000000000000000000000000000000000000000000000000000815260040161191990612a21565b60405180910390fd5b3373ffffffffffffffffffffffffffffffffffffffff1660038360405161194991906127d7565b908152602001604051809103902060009054906101000a900473ffffffffffffffffffffffffffffffffffffffff1673ffffffffffffffffffffffffffffffffffffffff1614156119cf576040517f08c379a00000000000000000000000000000000000000000000000000000000081526004016119c690612ac1565b60405180910390fd5b60016007836040516119e191906127d7565b908152602001604051809103902060006101000a81548160ff02191690831515021790555033600483604051611a1791906127d7565b908152602001604051809103902060006101000a81548173ffffffffffffffffffffffffffffffffffffffff021916908373ffffffffffffffffffffffffffffffffffffffff1602179055505b5050565b6000600d60008373ffffffffffffffffffffffffffffffffffffffff1673ffffffffffffffffffffffffffffffffffffffff16815260200190815260200160002081905550600f60008273ffffffffffffffffffffffffffffffffffffffff1673ffffffffffffffffffffffffffffffffffffffff16815260200190815260200160002050601060008273ffffffffffffffffffffffffffffffffffffffff1673ffffffffffffffffffffffffffffffffffffffff16815260200190815260200160002050600e819080600181540180825580915050600190039060005260206000200160009091909190916101000a81548173ffffffffffffffffffffffffffffffffffffffff021916908373ffffffffffffffffffffffffffffffffffffffff16021790555050565b611b9c33611c6e565b611baa57611ba933611a68565b5b6001600560003373ffffffffffffffffffffffffffffffffffffffff1673ffffffffffffffffffffffffffffffffffffffff16815260200190815260200160002060006101000a81548160ff021916908315150217905550565b600a5481565b600d6020528060005260406000206000915090505481565b60056020528060005260406000206000915054906101000a900460ff1681565b60608282604051602001611c579291906127ee565b604051602081830303815290604052905092915050565b600080600090505b600e80549050811015611d3857600e8181548110611cbd577f4e487b7100000000000000000000000000000000000000000000000000000000600052603260045260246000fd5b9060005260206000200160009054906101000a900473ffffffffffffffffffffffffffffffffffffffff1673ffffffffffffffffffffffffffffffffffffffff168373ffffffffffffffffffffffffffffffffffffffff161415611d25576001915050611d3e565b8080611d3090612dd7565b915050611c76565b50600090505b919050565b60011515600560008473ffffffffffffffffffffffffffffffffffffffff1673ffffffffffffffffffffffffffffffffffffffff16815260200190815260200160002060009054906101000a900460ff16151514611dd6576040517f08c379a0000000000000000000000000000000000000000000000000000000008152600401611dcd90612aa1565b60405180910390fd5b601060008373ffffffffffffffffffffffffffffffffffffffff1673ffffffffffffffffffffffffffffffffffffffff1681526020019081526020016000206040518060a00160405280858152602001600086604051611e3691906127d7565b908152602001604051809103902060009054906101000a900473ffffffffffffffffffffffffffffffffffffffff1673ffffffffffffffffffffffffffffffffffffffff1681526020018473ffffffffffffffffffffffffffffffffffffffff168152602001838152602001600186604051611eb291906127d7565b90815260200160405180910390208054611ecb90612d74565b80601f0160208091040260200160405190810160405280929190818152602001828054611ef790612d74565b8015611f445780601f10611f1957610100808354040283529160200191611f44565b820191906000526020600020905b815481529060010190602001808311611f2757829003601f168201915b505050505081525090806001815401808255809150506001900390600052602060002090600502016000909190919091506000820151816000019080519060200190611f9192919061237a565b5060208201518160010160006101000a81548173ffffffffffffffffffffffffffffffffffffffff021916908373ffffffffffffffffffffffffffffffffffffffff16021790555060408201518160020160006101000a81548173ffffffffffffffffffffffffffffffffffffffff021916908373ffffffffffffffffffffffffffffffffffffffff16021790555060608201518160030155608082015181600401908051906020019061204692919061237a565b505050505050565b60011515600560008373ffffffffffffffffffffffffffffffffffffffff1673ffffffffffffffffffffffffffffffffffffffff16815260200190815260200160002060009054906101000a900460ff161515146120e1576040517f08c379a00000000000000000000000000000000000000000000000000000000081526004016120d890612aa1565b60405180910390fd5b600c54600d60008373ffffffffffffffffffffffffffffffffffffffff1673ffffffffffffffffffffffffffffffffffffffff16815260200190815260200160002060008282546121329190612be2565b9250508190555050565b600160088260405161214e91906127d7565b908152602001604051809103902060006101000a81548160ff02191690831515021790555050565b600f60008273ffffffffffffffffffffffffffffffffffffffff1673ffffffffffffffffffffffffffffffffffffffff16815260200190815260200160002060405180606001604052808481526020016000856040516121d691906127d7565b908152602001604051809103902060009054906101000a900473ffffffffffffffffffffffffffffffffffffffff1673ffffffffffffffffffffffffffffffffffffffff16815260200160018560405161223091906127d7565b9081526020016040518091039020805461224990612d74565b80601f016020809104026020016040519081016040528092919081815260200182805461227590612d74565b80156122c25780601f10612297576101008083540402835291602001916122c2565b820191906000526020600020905b8154815290600101906020018083116122a557829003601f168201915b50505050508152509080600181540180825580915050600190039060005260206000209060030201600090919091909150600082015181600001908051906020019061230f92919061237a565b5060208201518160010160006101000a81548173ffffffffffffffffffffffffffffffffffffffff021916908373ffffffffffffffffffffffffffffffffffffffff160217905550604082015181600201908051906020019061237392919061237a565b5050505050565b82805461238690612d74565b90600052602060002090601f0160209004810192826123a857600085556123ef565b82601f106123c157805160ff19168380011785556123ef565b828001600101855582156123ef579182015b828111156123ee5782518255916020019190600101906123d3565b5b5090506123fc9190612400565b5090565b5b80821115612419576000816000905550600101612401565b5090565b600061243061242b84612b8a565b612b65565b90508281526020810184848401111561244857600080fd5b612453848285612d32565b509392505050565b60008135905061246a816130a1565b92915050565b60008135905061247f816130b8565b92915050565b600082601f83011261249657600080fd5b81356124a684826020860161241d565b91505092915050565b6000813590506124be816130cf565b92915050565b6000602082840312156124d657600080fd5b60006124e48482850161245b565b91505092915050565b6000806040838503121561250057600080fd5b600061250e8582860161245b565b925050602061251f858286016124af565b9150509250929050565b60006020828403121561253b57600080fd5b600082013567ffffffffffffffff81111561255557600080fd5b61256184828501612485565b91505092915050565b6000806040838503121561257d57600080fd5b600083013567ffffffffffffffff81111561259757600080fd5b6125a385828601612485565b92505060206125b485828601612470565b9150509250929050565b6000602082840312156125d057600080fd5b60006125de848285016124af565b91505092915050565b6125f081612cc6565b82525050565b6125ff81612cd8565b82525050565b61260e81612d0e565b82525050565b61261d81612d20565b82525050565b600061262e82612bbb565b6126388185612bc6565b9350612648818560208601612d41565b61265181612ead565b840191505092915050565b600061266782612bbb565b6126718185612bd7565b9350612681818560208601612d41565b80840191505092915050565b600061269a600e83612bc6565b91506126a582612ebe565b602082019050919050565b60006126bd602083612bc6565b91506126c882612ee7565b602082019050919050565b60006126e0601d83612bc6565b91506126eb82612f10565b602082019050919050565b6000612703602283612bc6565b915061270e82612f39565b604082019050919050565b6000612726601283612bc6565b915061273182612f88565b602082019050919050565b6000612749601283612bc6565b915061275482612fb1565b602082019050919050565b600061276c602183612bc6565b915061277782612fda565b604082019050919050565b600061278f601183612bc6565b915061279a82613029565b602082019050919050565b60006127b2602483612bc6565b91506127bd82613052565b604082019050919050565b6127d181612d04565b82525050565b60006127e3828461265c565b915081905092915050565b60006127fa828561265c565b9150612806828461265c565b91508190509392505050565b600060208201905061282760008301846125e7565b92915050565b600060808201905061284260008301876125e7565b61284f60208301866125e7565b61285c60408301856125e7565b818103606083015261286e8184612623565b905095945050505050565b600060608201905061288e60008301866125e7565b81810360208301526128a08185612623565b90506128af6040830184612605565b949350505050565b60006060820190506128cc60008301866125e7565b81810360208301526128de8185612623565b90506128ed6040830184612614565b949350505050565b600060408201905061290a60008301856125e7565b61291760208301846127c8565b9392505050565b600060208201905061293360008301846125f6565b92915050565b600060208201905081810360008301526129538184612623565b905092915050565b600060a08201905081810360008301526129758188612623565b905061298460208301876125e7565b61299160408301866125e7565b61299e60608301856127c8565b81810360808301526129b08184612623565b90509695505050505050565b600060608201905081810360008301526129d68186612623565b90506129e560208301856125e7565b81810360408301526129f78184612623565b9050949350505050565b60006020820190508181036000830152612a1a8161268d565b9050919050565b60006020820190508181036000830152612a3a816126b0565b9050919050565b60006020820190508181036000830152612a5a816126d3565b9050919050565b60006020820190508181036000830152612a7a816126f6565b9050919050565b60006020820190508181036000830152612a9a81612719565b9050919050565b60006020820190508181036000830152612aba8161273c565b9050919050565b60006020820190508181036000830152612ada8161275f565b9050919050565b60006020820190508181036000830152612afa81612782565b9050919050565b60006020820190508181036000830152612b1a816127a5565b9050919050565b6000602082019050612b3660008301846127c8565b92915050565b6000604082019050612b5160008301856127c8565b612b5e60208301846127c8565b9392505050565b6000612b6f612b80565b9050612b7b8282612da6565b919050565b6000604051905090565b600067ffffffffffffffff821115612ba557612ba4612e7e565b5b612bae82612ead565b9050602081019050919050565b600081519050919050565b600082825260208201905092915050565b600081905092915050565b6000612bed82612d04565b9150612bf883612d04565b9250827fffffffffffffffffffffffffffffffffffffffffffffffffffffffffffffffff03821115612c2d57612c2c612e20565b5b828201905092915050565b6000612c4382612d04565b9150612c4e83612d04565b9250817fffffffffffffffffffffffffffffffffffffffffffffffffffffffffffffffff0483118215151615612c8757612c86612e20565b5b828202905092915050565b6000612c9d82612d04565b9150612ca883612d04565b925082821015612cbb57612cba612e20565b5b828203905092915050565b6000612cd182612ce4565b9050919050565b60008115159050919050565b600073ffffffffffffffffffffffffffffffffffffffff82169050919050565b6000819050919050565b6000612d1982612d04565b9050919050565b6000612d2b82612d04565b9050919050565b82818337600083830152505050565b60005b83811015612d5f578082015181840152602081019050612d44565b83811115612d6e576000848401525b50505050565b60006002820490506001821680612d8c57607f821691505b60208210811415612da057612d9f612e4f565b5b50919050565b612daf82612ead565b810181811067ffffffffffffffff82111715612dce57612dcd612e7e565b5b80604052505050565b6000612de282612d04565b91507fffffffffffffffffffffffffffffffffffffffffffffffffffffffffffffffff821415612e1557612e14612e20565b5b600182019050919050565b7f4e487b7100000000000000000000000000000000000000000000000000000000600052601160045260246000fd5b7f4e487b7100000000000000000000000000000000000000000000000000000000600052602260045260246000fd5b7f4e487b7100000000000000000000000000000000000000000000000000000000600052604160045260246000fd5b6000601f19601f8301169050919050565b7f4f6e6c7920526576696577657273000000000000000000000000000000000000600082015250565b7f54686973206d616e75736372697074206973206265696e672072657669736564600082015250565b7f596f752063616e6e6f742066696e697368207468697320726576696577000000600082015250565b7f54686973206d616e7573637269707420686173206265656e207075626c69736860008201527f6564000000000000000000000000000000000000000000000000000000000000602082015250565b7f596f75206e656564206d6f726520576569730000000000000000000000000000600082015250565b7f4f6e6c7920666f72207265766965776572730000000000000000000000000000600082015250565b7f596f752063616e6e6f74207265766965772074686973206d616e75736372697060008201527f7400000000000000000000000000000000000000000000000000000000000000602082015250565b7f596f75206172656e277420456469746f72000000000000000000000000000000600082015250565b7f54686973206d616e75736372697074206973206e6f74206265696e672072657660008201527f6973656400000000000000000000000000000000000000000000000000000000602082015250565b6130aa81612cc6565b81146130b557600080fd5b50565b6130c181612cd8565b81146130cc57600080fd5b50565b6130d881612d04565b81146130e357600080fd5b5056fea26469706673582212205c522ef4c9a8d95f213876ba122fd64576906d053721c241fe3e5ad18b6f165f64736f6c63430008040033",
  "immutableReferences": {},
  "source": "// SPDX-License-Identifier: MIT\npragma solidity ^0.8.2;\n\nimport \"./DPubToken.sol\";\nimport \"./ReviewToken.sol\";\nimport \"./PaperToken.sol\";\n\nimport \"@openzeppelin/contracts/utils/Context.sol\";\n\n\n\ncontract DPublish is Context{\n    //-----------------------------------------------------------------------------------------\n                                      //DEFINICAO DE VARIAVEIS\n    //-----------------------------------------------------------------------------------------\n    mapping(string => address) public submited_manuscripts;\n    mapping(string => string) public manuscripts_links;//links dos artigos\n    mapping(string => uint256) public bounties; //pagamentos por artigos\n    \n    //Processo de Revisao\n    mapping(string => address) public review1_manuscripts;//artigos revisados uma vez\n    mapping(string => address) public review2_manuscripts;//artigso revisados duas vezes\n    mapping(address => bool) public reviewers;// Lista de revisores\n    mapping(string => uint) public review_qtd; // Quantidade de vezes que o manuscrito foi revisado\n    mapping(string => bool) public reviewing; // mostra se o arquivo ta sendo revisado\n    mapping(string => bool) public  published;//arquivos publicados\n\n    address private Editor;//Quem vai iniciar o dpublish\n    uint256 public WeiDPTK = 1000;// Valor escolhido(arbitrario) pra ser o Wei do DPTK  em Wei\n    uint256 public publishing_fee = 1000; //preco pra publicar\n    uint256 public review_fee = 250;//preco que cada revisor recebe\n\n    //-----------------------------------------------------------------------------------------\n                             //SIMULADORES DE TOKENS\n    //-----------------------------------------------------------------------------------------\n    \n    //simulador de aperToken\n    struct papertoken{\n        string idmanuscript;\n        address autor;\n        string link;\n    }\n\n    //simulador de ReviewToken \n    struct reviewtoken{\n        string idmanuscript;\n        address autor;\n        address reviewer;\n        uint256 review_number;\n        string link;\n    }\n\n    mapping(address => uint256) public wallet_dptk;\n    address[] wallet_owners;// pessoas que possuem carteiras\n    mapping(address => papertoken[]) public wallet_ptk;\n    mapping(address => reviewtoken[]) public wallet_rtk;\n\n\n    //-----------------------------------------------------------------------------------------\n                                          //EVENTOS E ERROS\n    //-----------------------------------------------------------------------------------------\n    event PaymentReceived(address from, uint256 amount);// evento quando o pagamento e recebido\n    event ManuscriptRevised(address reviwer, string idmanuscript, uint review_number);//Evento quando um artigo e revisado\n    event ManuscriptPublished(address autor,address reviwer_1,address reviwer_2, string idmanuscript);//Evento quando um artigo e publicado\n    \n    error NotEnoughFunds(uint256 requested, uint256 avaible);\n\n    //-----------------------------------------------------------------------------------------\n                                          //CONSTRUTOR\n    //-----------------------------------------------------------------------------------------\n    \n    //Criando carteira\n    function create_wallet(address owner_wallet) public {\n        wallet_dptk[owner_wallet] = 0;\n        wallet_ptk[owner_wallet];\n        wallet_rtk[owner_wallet];\n        wallet_owners.push(owner_wallet);\n\n    }\n\n\n    constructor(){\n        Editor = msg.sender;\n        create_wallet(Editor);\n        wallet_dptk[Editor] = 1000000000;// Valor arbitrario de DPTK para o editor\n\n    }\n\n    //-----------------------------------------------------------------------------------------\n                                          //FUNCOES AUXILIARES\n    //-----------------------------------------------------------------------------------------\n\n    //Funcao que concatena duas strings\n    //precisa de teste\n    function append(string memory a, string memory b) internal pure returns (string memory ) {\n\n    return string(abi.encodePacked(a, b));\n\n}\n\n    //Gera um link para o artigo mas nao deixa publico\n    function generate_link(string memory idmanuscript)public{\n        //criando um link , precisa de teste\n        manuscripts_links[idmanuscript] = append(\"https://dpublish.org/\", idmanuscript);\n\n    }\n\n\n    //Descobrir se uma carteira existe\n    function exist_wallet_dptk(address owner_wallet)internal view returns(bool){\n        for (uint256 index = 0; index < wallet_owners.length; index++) {\n            if(owner_wallet == wallet_owners[index]){\n                return true;}\n        }\n        return false;\n    }\n\n    \n\n    //Editor pode mudar o preco do publishing fee\n    function set_publishing_fee(uint256 fee) public{\n        require(msg.sender==Editor, \"You aren't Editor\");\n        publishing_fee = fee;\n    }\n\n\n        //Editor pode mudar o preco do review fee\n    function set_review_fee(uint256 fee) public{\n        require(msg.sender==Editor, \"You aren't Editor\");\n        review_fee = fee;\n    }\n\n    //Publica artigo\n    function publish_manuscript(string memory idmanuscript) internal {\n        published[idmanuscript] = true;\n    }\n\n    //Emite ReviewToken\n    function emits_reviewtoken(string memory idmanuscript, address reviewer,uint256 review_number) internal{\n        require(reviewers[reviewer]==true, \"Only for reviewers\");\n        wallet_rtk[reviewer].push(reviewtoken(idmanuscript,submited_manuscripts[idmanuscript],reviewer,review_number,manuscripts_links[idmanuscript]));\n        }\n\n    //Emite PaperToken\n    function emits_papertoken(string memory idmanuscript, address autor) internal{\n        wallet_ptk[autor].push(papertoken(idmanuscript,submited_manuscripts[idmanuscript],manuscripts_links[idmanuscript]));\n        }\n\n    //Pagando DPTK  para os revisores\n    function pay_reviewers(address reviewer) internal{\n        require(reviewers[reviewer]==true, \"Only for reviewers\");\n        wallet_dptk[reviewer] += review_fee;\n\n    }\n\n    //-----------------------------------------------------------------------------------------\n                                          //OBTER VALORES DE PAGAMENTOS\n    //-----------------------------------------------------------------------------------------\n\n    //Ver o preco do publishing fee\n    function get_publishing_fee() view public returns(uint256) {\n        return publishing_fee ;\n\n    }\n\n    //Ver o preco do review fee\n    function get_review_fee() view public returns(uint256) {\n        return review_fee ;\n    }\n\n    //-----------------------------------------------------------------------------------------\n                                          //COMPRAR DPubTokens\n    //-----------------------------------------------------------------------------------------\n\n\n\n     //Comprar DPubTokens\n    function buy_DPTK(uint256 qtd_DPTK)public payable{\n        require(msg.sender.balance >= WeiDPTK*qtd_DPTK, \"You need more Weis\");\n        if(!exist_wallet_dptk(msg.sender)){\n            create_wallet(msg.sender);\n            wallet_dptk[msg.sender] += qtd_DPTK;}\n        else{\n            wallet_dptk[msg.sender] += qtd_DPTK;\n        }\n\n    }\n\n    //-----------------------------------------------------------------------------------------\n                                          //ENVIAR MANUSCRITO\n    //-----------------------------------------------------------------------------------------\n    \n    //Envia manuscrito\n    function submit_manuscript(string memory idmanuscript) public payable{\n        submited_manuscripts[idmanuscript] = msg.sender;\n        generate_link(idmanuscript);\n        uint balance = wallet_dptk[msg.sender];\n        if (balance < publishing_fee)\n            revert NotEnoughFunds(publishing_fee, balance);\n        wallet_dptk[msg.sender] -= publishing_fee;\n        bounties[idmanuscript] = publishing_fee;\n\n        //nao esta sendo revisado\n        review_qtd[idmanuscript] = 0;\n        reviewing[idmanuscript] = false;\n        published[idmanuscript] = false;\n\n        emit PaymentReceived(msg.sender, publishing_fee);\n    }\n\n\n    //-----------------------------------------------------------------------------------------\n                                    //PROCESSO DE REVISO\n    //-----------------------------------------------------------------------------------------\n\n    //revisor se inscreve\n    function subscribe_reviewer()public {\n        if(!exist_wallet_dptk(msg.sender)){\n            create_wallet(msg.sender);}\n        reviewers[msg.sender] =  true;   \n    }\n\n    //Revisor comeca a revisao, pode ser a primeira ou segunda\n    function start_review(string memory idmanuscript, bool review_1) public {\n        //precisa que o msg.sender seja um revisor\n        require(reviewers[msg.sender] == true,\"Only Reviewers\");\n        //O manuscrito no pode ter sido publicado\n        require(published[idmanuscript] = false,\"This manuscript has been published\");\n        //se for a primeira revisao\n        if(review_1){\n            //manuscrito precisa ter 0 revisoes\n            require(review_qtd[idmanuscript] == 0, \"You cannot review this manuscript\");\n            //manuscrito nao pode estar sendo revisado\n            require(reviewing[idmanuscript] == false, \"This manuscript is being revised\");\n            //adiciona que o manuscrito esta sendo revisado\n            reviewing[idmanuscript] = true;\n            //adiciona o endereco do revisor \n            review1_manuscripts[idmanuscript] = msg.sender;\n        }\n        //segunda revisao\n        else{\n            //o manuscrito precisa ter sido revisado 1 vez\n            require(review_qtd[idmanuscript] == 1, \"This manuscript is being revised\");\n            //o manuscrito nao pode estar sendo revisado\n            require(reviewing[idmanuscript] == false, \"This manuscript is being revised\");\n            //o msg.sender nao pode ser o primeiro revisor\n            require(review1_manuscripts[idmanuscript] != msg.sender,\"You cannot review this manuscript\");\n            //adiciona que o manuscrito esta sendo revisado\n            reviewing[idmanuscript] = true;\n            //adiciona o endereco do revisor\n            review2_manuscripts[idmanuscript] = msg.sender;\n\n\n        }\n\n    }\n\n    function finish_review(string memory idmanuscript, bool review_1) public{\n        //O artigo precisa estar sendo revisado\n        require(reviewing[idmanuscript] = true, \"This manuscript is not being revised\");\n\n        //Caso for a primeira reviso\n        if(review_1){\n            //Apenas a pessoa que esta revisando o arquivo pode finalizar\n            require(review1_manuscripts[idmanuscript] == msg.sender,\"You cannot finish this review\");\n            //Incrementa 1 na quantidade de revisoes\n            review_qtd[idmanuscript] += 1;\n            //informa que o arquivo nao esta sendo mais revisado\n            reviewing[idmanuscript] = false;\n            //pay reviewr DPTK and RTK\n            emits_reviewtoken(idmanuscript,msg.sender, 1);\n            pay_reviewers(msg.sender);\n            //emitindo evento\n            emit ManuscriptRevised(msg.sender, idmanuscript, 1);\n        }\n        else{\n            //Apenas a pessoa que esta revisando o arquivo pode finalizar\n            require(review2_manuscripts[idmanuscript] == msg.sender,\"You cannot finish this review\");\n            //Incrementa 1 na quantidade de revisoes\n            review_qtd[idmanuscript] += 1;\n            //informa que o arquivo nao esta sendo mais revisado\n            reviewing[idmanuscript]  =  false;\n            //informa que o artigo foi publicado\n            publish_manuscript(idmanuscript);\n            //pay reviewer DPTK and RTK\n            emits_reviewtoken(idmanuscript,msg.sender, 1);\n            pay_reviewers(msg.sender);\n            //paper token  pro autor\n            emits_papertoken(idmanuscript, submited_manuscripts[idmanuscript]);\n            //emitindo os eventos\n            emit ManuscriptRevised(msg.sender, idmanuscript, 2);\n            emit ManuscriptPublished(submited_manuscripts[idmanuscript], review1_manuscripts[idmanuscript],review2_manuscripts[idmanuscript], idmanuscript);\n\n        }\n\n\n        }\n\n\n\n}",
  "sourcePath": "/home/alcindo/fgv/4p/cripto/Dpublish/contracts/DPublish.sol",
  "compiler": {
    "name": "solc",
    "version": "0.8.4+commit.c7e474f2.Emscripten.clang"
  },
  "schemaVersion": "3.4.3",
  "updatedAt": "2021-12-15T16:52:04.471Z",
  "networkType": "ethereum",
  "devdoc": {
    "kind": "dev",
    "methods": {},
    "version": 1
  },
  "userdoc": {
    "kind": "user",
    "methods": {},
    "version": 1
  }
}