{
  "contractName": "DPublish",
  "abi": [
    {
      "inputs": [
        {
          "internalType": "string",
          "name": "",
          "type": "string"
        }
      ],
      "name": "submitted_manuscripts",
      "outputs": [
        {
          "internalType": "address",
          "name": "",
          "type": "address"
        }
      ],
      "stateMutability": "view",
      "type": "function"
    },
    {
      "inputs": [
        {
          "internalType": "string",
          "name": "idmanuscript",
          "type": "string"
        }
      ],
      "name": "submit_manuscript",
      "outputs": [],
      "stateMutability": "nonpayable",
      "type": "function"
    }
  ],
  "bytecode": "0x608060405234801561001057600080fd5b5061041c806100206000396000f3fe608060405234801561001057600080fd5b50600436106100365760003560e01c8063cdeca2521461003b578063f46f4fe514610057575b600080fd5b610055600480360381019061005091906101e5565b610087565b005b610071600480360381019061006c919061022a565b6100ea565b60405161007e91906102b8565b60405180910390f35b336000838360405161009a92919061029f565b908152602001604051809103902060006101000a81548173ffffffffffffffffffffffffffffffffffffffff021916908373ffffffffffffffffffffffffffffffffffffffff1602179055505050565b6000818051602081018201805184825260208301602085012081835280955050505050506000915054906101000a900473ffffffffffffffffffffffffffffffffffffffff1681565b6000610146610141846102f8565b6102d3565b90508281526020810184848401111561015e57600080fd5b610169848285610366565b509392505050565b60008083601f84011261018357600080fd5b8235905067ffffffffffffffff81111561019c57600080fd5b6020830191508360018202830111156101b457600080fd5b9250929050565b600082601f8301126101cc57600080fd5b81356101dc848260208601610133565b91505092915050565b600080602083850312156101f857600080fd5b600083013567ffffffffffffffff81111561021257600080fd5b61021e85828601610171565b92509250509250929050565b60006020828403121561023c57600080fd5b600082013567ffffffffffffffff81111561025657600080fd5b610262848285016101bb565b91505092915050565b61027481610334565b82525050565b60006102868385610329565b9350610293838584610366565b82840190509392505050565b60006102ac82848661027a565b91508190509392505050565b60006020820190506102cd600083018461026b565b92915050565b60006102dd6102ee565b90506102e98282610375565b919050565b6000604051905090565b600067ffffffffffffffff821115610313576103126103a6565b5b61031c826103d5565b9050602081019050919050565b600081905092915050565b600061033f82610346565b9050919050565b600073ffffffffffffffffffffffffffffffffffffffff82169050919050565b82818337600083830152505050565b61037e826103d5565b810181811067ffffffffffffffff8211171561039d5761039c6103a6565b5b80604052505050565b7f4e487b7100000000000000000000000000000000000000000000000000000000600052604160045260246000fd5b6000601f19601f830116905091905056fea2646970667358221220868342095a27d346287d1b67caf4fe7040e36f40c71e4f0d7692dfcf22bb3e5c64736f6c63430008040033",
  "immutableReferences": {},
  "source": "// SPDX-License-Identifier: MIT\npragma solidity ^0.8.2;\n\ncontract DPublish {\n    mapping(string => address) public submitted_manuscripts;\n\n    /**\n    * Submit manuscript\n     */\n    function submit_manuscript(string calldata idmanuscript) public {\n        submitted_manuscripts[idmanuscript] = msg.sender;\n    }\n\n\n}",
  "sourcePath": "/home/administrador/rea de Trabalho/projects/intro-crypto/Dpublish/contracts/DPublish.sol",
  "compiler": {
    "name": "solc",
    "version": "0.8.4+commit.c7e474f2.Emscripten.clang"
  },
  "schemaVersion": "3.4.9",
  "updatedAt": "2022-10-16T21:07:23.084Z",
  "devdoc": {
    "kind": "dev",
    "methods": {},
    "version": 1
  },
  "userdoc": {
    "kind": "user",
    "methods": {
      "submit_manuscript(string)": {
        "notice": "Submit manuscript"
      }
    },
    "version": 1
  }
}