{
  "abi": [
    {
      "inputs": [],
      "name": "getBalance",
      "outputs": [
        {
          "internalType": "uint256",
          "name": "",
          "type": "uint256"
        }
      ],
      "stateMutability": "view",
      "type": "function"
    },
    {
      "inputs": [],
      "name": "papers",
      "outputs": [
        {
          "internalType": "contract PaperToken",
          "name": "",
          "type": "address"
        }
      ],
      "stateMutability": "view",
      "type": "function"
    },
    {
      "inputs": [
        {
          "internalType": "string",
          "name": "idmanuscript",
          "type": "string"
        }
      ],
      "name": "submit_manuscript",
      "outputs": [],
      "stateMutability": "payable",
      "type": "function"
    }
  ],
  "bytecode": "6080604052606460025534801561001557600080fd5b506101ff806100256000396000f3fe6080604052600436106100345760003560e01c806312065fe014610039578063222027ca14610059578063cdeca25214610091575b600080fd5b34801561004557600080fd5b506040514781526020015b60405180910390f35b34801561006557600080fd5b50600154610079906001600160a01b031681565b6040516001600160a01b039091168152602001610050565b6100a461009f366004610118565b6100a6565b005b60025433903410156100fe5760405162461bcd60e51b815260206004820152601960248201527f74686572652069732061207375626d697373696f6e2066656500000000000000604482015260640160405180910390fd5b5050565b634e487b7160e01b600052604160045260246000fd5b60006020828403121561012a57600080fd5b813567ffffffffffffffff8082111561014257600080fd5b818401915084601f83011261015657600080fd5b81358181111561016857610168610102565b604051601f8201601f19908116603f0116810190838211818310171561019057610190610102565b816040528281528760208487010111156101a957600080fd5b82602086016020830137600092810160200192909252509594505050505056fea2646970667358221220392eed207f70c546deee859430fdfdaa000f163af82687fdd637dfd4953bf27764736f6c634300080a0033",
  "bytecodeSha1": "4156f176f4f8dc1f0bd70f9598e85cad2e82f8ae",
  "compiler": {
    "evm_version": "istanbul",
    "optimizer": {
      "enabled": true,
      "runs": 200
    },
    "version": "0.8.10+commit.fc410830"
  },
  "contractName": "DPublish",
  "language": "Solidity",
  "natspec": {
    "kind": "dev",
    "methods": {
      "submit_manuscript(string)": {
        "notice": "Submit manuscript"
      }
    },
    "version": 1
  },
  "opcodes": "PUSH1 0x80 PUSH1 0x40 MSTORE PUSH1 0x4 CALLDATASIZE LT PUSH2 0x34 JUMPI PUSH1 0x0 CALLDATALOAD PUSH1 0xE0 SHR DUP1 PUSH4 0x12065FE0 EQ PUSH2 0x39 JUMPI DUP1 PUSH4 0x222027CA EQ PUSH2 0x59 JUMPI DUP1 PUSH4 0xCDECA252 EQ PUSH2 0x91 JUMPI JUMPDEST PUSH1 0x0 DUP1 REVERT JUMPDEST CALLVALUE DUP1 ISZERO PUSH2 0x45 JUMPI PUSH1 0x0 DUP1 REVERT JUMPDEST POP PUSH1 0x40 MLOAD SELFBALANCE DUP2 MSTORE PUSH1 0x20 ADD JUMPDEST PUSH1 0x40 MLOAD DUP1 SWAP2 SUB SWAP1 RETURN JUMPDEST CALLVALUE DUP1 ISZERO PUSH2 0x65 JUMPI PUSH1 0x0 DUP1 REVERT JUMPDEST POP PUSH1 0x1 SLOAD PUSH2 0x79 SWAP1 PUSH1 0x1 PUSH1 0x1 PUSH1 0xA0 SHL SUB AND DUP2 JUMP JUMPDEST PUSH1 0x40 MLOAD PUSH1 0x1 PUSH1 0x1 PUSH1 0xA0 SHL SUB SWAP1 SWAP2 AND DUP2 MSTORE PUSH1 0x20 ADD PUSH2 0x50 JUMP JUMPDEST PUSH2 0xA4 PUSH2 0x9F CALLDATASIZE PUSH1 0x4 PUSH2 0x118 JUMP JUMPDEST PUSH2 0xA6 JUMP JUMPDEST STOP JUMPDEST PUSH1 0x2 SLOAD CALLER SWAP1 CALLVALUE LT ISZERO PUSH2 0xFE JUMPI PUSH1 0x40 MLOAD PUSH3 0x461BCD PUSH1 0xE5 SHL DUP2 MSTORE PUSH1 0x20 PUSH1 0x4 DUP3 ADD MSTORE PUSH1 0x19 PUSH1 0x24 DUP3 ADD MSTORE PUSH32 0x74686572652069732061207375626D697373696F6E2066656500000000000000 PUSH1 0x44 DUP3 ADD MSTORE PUSH1 0x64 ADD PUSH1 0x40 MLOAD DUP1 SWAP2 SUB SWAP1 REVERT JUMPDEST POP POP JUMP JUMPDEST PUSH4 0x4E487B71 PUSH1 0xE0 SHL PUSH1 0x0 MSTORE PUSH1 0x41 PUSH1 0x4 MSTORE PUSH1 0x24 PUSH1 0x0 REVERT JUMPDEST PUSH1 0x0 PUSH1 0x20 DUP3 DUP5 SUB SLT ISZERO PUSH2 0x12A JUMPI PUSH1 0x0 DUP1 REVERT JUMPDEST DUP2 CALLDATALOAD PUSH8 0xFFFFFFFFFFFFFFFF DUP1 DUP3 GT ISZERO PUSH2 0x142 JUMPI PUSH1 0x0 DUP1 REVERT JUMPDEST DUP2 DUP5 ADD SWAP2 POP DUP5 PUSH1 0x1F DUP4 ADD SLT PUSH2 0x156 JUMPI PUSH1 0x0 DUP1 REVERT JUMPDEST DUP2 CALLDATALOAD DUP2 DUP2 GT ISZERO PUSH2 0x168 JUMPI PUSH2 0x168 PUSH2 0x102 JUMP JUMPDEST PUSH1 0x40 MLOAD PUSH1 0x1F DUP3 ADD PUSH1 0x1F NOT SWAP1 DUP2 AND PUSH1 0x3F ADD AND DUP2 ADD SWAP1 DUP4 DUP3 GT DUP2 DUP4 LT OR ISZERO PUSH2 0x190 JUMPI PUSH2 0x190 PUSH2 0x102 JUMP JUMPDEST DUP2 PUSH1 0x40 MSTORE DUP3 DUP2 MSTORE DUP8 PUSH1 0x20 DUP5 DUP8 ADD ADD GT ISZERO PUSH2 0x1A9 JUMPI PUSH1 0x0 DUP1 REVERT JUMPDEST DUP3 PUSH1 0x20 DUP7 ADD PUSH1 0x20 DUP4 ADD CALLDATACOPY PUSH1 0x0 SWAP3 DUP2 ADD PUSH1 0x20 ADD SWAP3 SWAP1 SWAP3 MSTORE POP SWAP6 SWAP5 POP POP POP POP POP JUMP INVALID LOG2 PUSH5 0x6970667358 0x22 SLT KECCAK256 CODECOPY 0x2E 0xED KECCAK256 PUSH32 0x70C546DEEE859430FDFDAA000F163AF82687FDD637DFD4953BF27764736F6C63 NUMBER STOP ADDMOD EXP STOP CALLER ",
  "sha1": "7e62ba91d04a76a3816c35d90052b7ffec0d2219",
  "source": "// SPDX-License-Identifier: MIT\npragma solidity ^0.8.2;\n\nimport \"./PaperToken.sol\"; \n\ncontract DPublish {\n    // mapping(string => address) public submitted_manuscripts;\n    mapping(address => uint) private balances; \n\n    PaperToken public papers; \n\n    uint internal submission_fee = 100; \t\n\n    function setSubmissionFee(uint fee) internal {\n\t    submission_fee = fee; \n    } \n\n    function getBalance() public view returns (uint) { \n\t    return address(this).balance; \n    } \n\n    /**\n    * Submit manuscript\n     */\n\n    function submit_manuscript(string memory idmanuscript) public payable { \n\taddress author = msg.sender; \n        require(msg.value >= submission_fee, \"there is a submission fee\"); \n    }\n\n}\n",
  "sourcePath": "contracts/DPublish.sol",
  "type": "contract"
}