{
  "contractName": "DPublish",
  "abi": [
    {
      "inputs": [],
      "stateMutability": "nonpayable",
      "type": "constructor"
    },
    {
      "inputs": [
        {
          "internalType": "uint256",
          "name": "requested",
          "type": "uint256"
        },
        {
          "internalType": "uint256",
          "name": "available",
          "type": "uint256"
        }
      ],
      "name": "MissingFunds",
      "type": "error"
    },
    {
      "anonymous": false,
      "inputs": [
        {
          "indexed": false,
          "internalType": "address",
          "name": "from",
          "type": "address"
        },
        {
          "indexed": false,
          "internalType": "uint256",
          "name": "amount",
          "type": "uint256"
        }
      ],
      "name": "PaymentReceived",
      "type": "event"
    },
    {
      "inputs": [
        {
          "internalType": "address",
          "name": "",
          "type": "address"
        }
      ],
      "name": "is_reviewer",
      "outputs": [
        {
          "internalType": "bool",
          "name": "",
          "type": "bool"
        }
      ],
      "stateMutability": "view",
      "type": "function"
    },
    {
      "inputs": [
        {
          "internalType": "string",
          "name": "",
          "type": "string"
        }
      ],
      "name": "payments",
      "outputs": [
        {
          "internalType": "uint256",
          "name": "",
          "type": "uint256"
        }
      ],
      "stateMutability": "view",
      "type": "function"
    },
    {
      "inputs": [],
      "name": "price",
      "outputs": [
        {
          "internalType": "uint256",
          "name": "",
          "type": "uint256"
        }
      ],
      "stateMutability": "view",
      "type": "function"
    },
    {
      "inputs": [],
      "name": "review_payment",
      "outputs": [
        {
          "internalType": "uint16",
          "name": "",
          "type": "uint16"
        }
      ],
      "stateMutability": "view",
      "type": "function"
    },
    {
      "inputs": [
        {
          "internalType": "address",
          "name": "",
          "type": "address"
        }
      ],
      "name": "reviewed_links",
      "outputs": [
        {
          "internalType": "string",
          "name": "",
          "type": "string"
        }
      ],
      "stateMutability": "view",
      "type": "function"
    },
    {
      "inputs": [
        {
          "internalType": "string",
          "name": "",
          "type": "string"
        }
      ],
      "name": "submitted_manuscripts",
      "outputs": [
        {
          "internalType": "address",
          "name": "",
          "type": "address"
        }
      ],
      "stateMutability": "view",
      "type": "function"
    },
    {
      "inputs": [
        {
          "internalType": "address",
          "name": "",
          "type": "address"
        }
      ],
      "name": "wallet_funds",
      "outputs": [
        {
          "internalType": "uint256",
          "name": "",
          "type": "uint256"
        }
      ],
      "stateMutability": "view",
      "type": "function"
    },
    {
      "inputs": [
        {
          "internalType": "string",
          "name": "idmanuscript",
          "type": "string"
        }
      ],
      "name": "submit_manuscript",
      "outputs": [],
      "stateMutability": "payable",
      "type": "function"
    },
    {
      "inputs": [
        {
          "internalType": "address",
          "name": "user",
          "type": "address"
        },
        {
          "internalType": "uint256",
          "name": "value",
          "type": "uint256"
        }
      ],
      "name": "set_balance",
      "outputs": [],
      "stateMutability": "nonpayable",
      "type": "function"
    },
    {
      "inputs": [
        {
          "internalType": "uint256",
          "name": "n_fee",
          "type": "uint256"
        }
      ],
      "name": "set_price",
      "outputs": [],
      "stateMutability": "payable",
      "type": "function"
    },
    {
      "inputs": [
        {
          "internalType": "address",
          "name": "user",
          "type": "address"
        }
      ],
      "name": "subscribe_to_review",
      "outputs": [],
      "stateMutability": "nonpayable",
      "type": "function"
    },
    {
      "inputs": [
        {
          "internalType": "string",
          "name": "linkIPFS",
          "type": "string"
        }
      ],
      "name": "sent_review",
      "outputs": [],
      "stateMutability": "nonpayable",
      "type": "function"
    }
  ],
  "bytecode": "0x60806040526000601260006101000a81548161ffff021916908361ffff16021790555034801561002e57600080fd5b5033600560006101000a81548173ffffffffffffffffffffffffffffffffffffffff021916908373ffffffffffffffffffffffffffffffffffffffff1602179055506112808061007f6000396000f3fe6080604052600436106100a75760003560e01c8063a035b1fe11610064578063a035b1fe146101bd578063cd4e2201146101e8578063cdeca25214610225578063f46f4fe514610241578063f7147dc91461027e578063f9468713146102a9576100a7565b80630776e4fa146100ac5780631956c483146100d557806328bf794d146100fe5780636b8368551461011a5780636f7fd04b146101435780637e44361c14610180575b600080fd5b3480156100b857600080fd5b506100d360048036038101906100ce9190610b91565b6102e6565b005b3480156100e157600080fd5b506100fc60048036038101906100f79190610bd1565b610388565b005b61011860048036038101906101139190610bfe565b610571565b005b34801561012657600080fd5b50610141600480360381019061013c9190610d71565b6105d5565b005b34801561014f57600080fd5b5061016a60048036038101906101659190610bd1565b6106c8565b6040516101779190610e42565b60405180910390f35b34801561018c57600080fd5b506101a760048036038101906101a29190610bd1565b610768565b6040516101b49190610e7f565b60405180910390f35b3480156101c957600080fd5b506101d2610788565b6040516101df9190610ea9565b60405180910390f35b3480156101f457600080fd5b5061020f600480360381019061020a9190610bd1565b61078e565b60405161021c9190610ea9565b60405180910390f35b61023f600480360381019061023a9190610d71565b6107a6565b005b34801561024d57600080fd5b5061026860048036038101906102639190610d71565b61094e565b6040516102759190610ed3565b60405180910390f35b34801561028a57600080fd5b50610293610997565b6040516102a09190610f0b565b60405180910390f35b3480156102b557600080fd5b506102d060048036038101906102cb9190610d71565b6109ab565b6040516102dd9190610ea9565b60405180910390f35b600560009054906101000a900473ffffffffffffffffffffffffffffffffffffffff1673ffffffffffffffffffffffffffffffffffffffff163373ffffffffffffffffffffffffffffffffffffffff161461034057600080fd5b80600260008473ffffffffffffffffffffffffffffffffffffffff1673ffffffffffffffffffffffffffffffffffffffff168152602001908152602001600020819055505050565b600a601260009054906101000a900461ffff1661ffff1611156103e0576040517f08c379a00000000000000000000000000000000000000000000000000000000081526004016103d790610f72565b60405180910390fd5b60011515600460003373ffffffffffffffffffffffffffffffffffffffff1673ffffffffffffffffffffffffffffffffffffffff16815260200190815260200160002060009054906101000a900460ff1615151415610474576040517f08c379a000000000000000000000000000000000000000000000000000000000815260040161046b90611004565b60405180910390fd5b806008601260009054906101000a900461ffff1661ffff16600a811061049d5761049c611024565b5b0160006101000a81548173ffffffffffffffffffffffffffffffffffffffff021916908373ffffffffffffffffffffffffffffffffffffffff1602179055506001601260008282829054906101000a900461ffff166104fc9190611082565b92506101000a81548161ffff021916908361ffff1602179055506001600460008373ffffffffffffffffffffffffffffffffffffffff1673ffffffffffffffffffffffffffffffffffffffff16815260200190815260200160002060006101000a81548160ff02191690831515021790555050565b600560009054906101000a900473ffffffffffffffffffffffffffffffffffffffff1673ffffffffffffffffffffffffffffffffffffffff163373ffffffffffffffffffffffffffffffffffffffff16146105cb57600080fd5b8060068190555050565b60011515600460003373ffffffffffffffffffffffffffffffffffffffff1673ffffffffffffffffffffffffffffffffffffffff16815260200190815260200160002060009054906101000a900460ff16151514610668576040517f08c379a000000000000000000000000000000000000000000000000000000000815260040161065f90611004565b60405180910390fd5b80600360003373ffffffffffffffffffffffffffffffffffffffff1673ffffffffffffffffffffffffffffffffffffffff16815260200190815260200160002090805190602001906106bb929190610a46565b506106c5336109d9565b50565b600360205280600052604060002060009150905080546106e7906110e9565b80601f0160208091040260200160405190810160405280929190818152602001828054610713906110e9565b80156107605780601f1061073557610100808354040283529160200191610760565b820191906000526020600020905b81548152906001019060200180831161074357829003601f168201915b505050505081565b60046020528060005260406000206000915054906101000a900460ff1681565b60065481565b60026020528060005260406000206000915090505481565b336000826040516107b79190611157565b908152602001604051809103902060006101000a81548173ffffffffffffffffffffffffffffffffffffffff021916908373ffffffffffffffffffffffffffffffffffffffff1602179055506000600260003373ffffffffffffffffffffffffffffffffffffffff1673ffffffffffffffffffffffffffffffffffffffff16815260200190815260200160002054905080600654111561089257600654816040517f667b14a100000000000000000000000000000000000000000000000000000000815260040161088992919061116e565b60405180910390fd5b600654600260003373ffffffffffffffffffffffffffffffffffffffff1673ffffffffffffffffffffffffffffffffffffffff16815260200190815260200160002060008282546108e39190611197565b925050819055506006546001836040516108fd9190611157565b9081526020016040518091039020819055507f6ef95f06320e7a25a04a175ca677b7052bdd97131872c2192525a629f51be770336006546040516109429291906111cb565b60405180910390a15050565b6000818051602081018201805184825260208301602085012081835280955050505050506000915054906101000a900473ffffffffffffffffffffffffffffffffffffffff1681565b600760009054906101000a900461ffff1681565b6001818051602081018201805184825260208301602085012081835280955050505050506000915090505481565b600760009054906101000a900461ffff1661ffff16600260008373ffffffffffffffffffffffffffffffffffffffff1673ffffffffffffffffffffffffffffffffffffffff1681526020019081526020016000206000828254610a3c91906111f4565b9250508190555050565b828054610a52906110e9565b90600052602060002090601f016020900481019282610a745760008555610abb565b82601f10610a8d57805160ff1916838001178555610abb565b82800160010185558215610abb579182015b82811115610aba578251825591602001919060010190610a9f565b5b509050610ac89190610acc565b5090565b5b80821115610ae5576000816000905550600101610acd565b5090565b6000604051905090565b600080fd5b600080fd5b600073ffffffffffffffffffffffffffffffffffffffff82169050919050565b6000610b2882610afd565b9050919050565b610b3881610b1d565b8114610b4357600080fd5b50565b600081359050610b5581610b2f565b92915050565b6000819050919050565b610b6e81610b5b565b8114610b7957600080fd5b50565b600081359050610b8b81610b65565b92915050565b60008060408385031215610ba857610ba7610af3565b5b6000610bb685828601610b46565b9250506020610bc785828601610b7c565b9150509250929050565b600060208284031215610be757610be6610af3565b5b6000610bf584828501610b46565b91505092915050565b600060208284031215610c1457610c13610af3565b5b6000610c2284828501610b7c565b91505092915050565b600080fd5b600080fd5b6000601f19601f8301169050919050565b7f4e487b7100000000000000000000000000000000000000000000000000000000600052604160045260246000fd5b610c7e82610c35565b810181811067ffffffffffffffff82111715610c9d57610c9c610c46565b5b80604052505050565b6000610cb0610ae9565b9050610cbc8282610c75565b919050565b600067ffffffffffffffff821115610cdc57610cdb610c46565b5b610ce582610c35565b9050602081019050919050565b82818337600083830152505050565b6000610d14610d0f84610cc1565b610ca6565b905082815260208101848484011115610d3057610d2f610c30565b5b610d3b848285610cf2565b509392505050565b600082601f830112610d5857610d57610c2b565b5b8135610d68848260208601610d01565b91505092915050565b600060208284031215610d8757610d86610af3565b5b600082013567ffffffffffffffff811115610da557610da4610af8565b5b610db184828501610d43565b91505092915050565b600081519050919050565b600082825260208201905092915050565b60005b83811015610df4578082015181840152602081019050610dd9565b83811115610e03576000848401525b50505050565b6000610e1482610dba565b610e1e8185610dc5565b9350610e2e818560208601610dd6565b610e3781610c35565b840191505092915050565b60006020820190508181036000830152610e5c8184610e09565b905092915050565b60008115159050919050565b610e7981610e64565b82525050565b6000602082019050610e946000830184610e70565b92915050565b610ea381610b5b565b82525050565b6000602082019050610ebe6000830184610e9a565b92915050565b610ecd81610b1d565b82525050565b6000602082019050610ee86000830184610ec4565b92915050565b600061ffff82169050919050565b610f0581610eee565b82525050565b6000602082019050610f206000830184610efc565b92915050565b7f4e616f20706f6465206d61697320726576697361720000000000000000000000600082015250565b6000610f5c601583610dc5565b9150610f6782610f26565b602082019050919050565b60006020820190508181036000830152610f8b81610f4f565b9050919050565b7f5072656369736120736520696e7363726576657220636f6d6f2072657669736f60008201527f7200000000000000000000000000000000000000000000000000000000000000602082015250565b6000610fee602183610dc5565b9150610ff982610f92565b604082019050919050565b6000602082019050818103600083015261101d81610fe1565b9050919050565b7f4e487b7100000000000000000000000000000000000000000000000000000000600052603260045260246000fd5b7f4e487b7100000000000000000000000000000000000000000000000000000000600052601160045260246000fd5b600061108d82610eee565b915061109883610eee565b92508261ffff038211156110af576110ae611053565b5b828201905092915050565b7f4e487b7100000000000000000000000000000000000000000000000000000000600052602260045260246000fd5b6000600282049050600182168061110157607f821691505b60208210811415611115576111146110ba565b5b50919050565b600081905092915050565b600061113182610dba565b61113b818561111b565b935061114b818560208601610dd6565b80840191505092915050565b60006111638284611126565b915081905092915050565b60006040820190506111836000830185610e9a565b6111906020830184610e9a565b9392505050565b60006111a282610b5b565b91506111ad83610b5b565b9250828210156111c0576111bf611053565b5b828203905092915050565b60006040820190506111e06000830185610ec4565b6111ed6020830184610e9a565b9392505050565b60006111ff82610b5b565b915061120a83610b5b565b9250827fffffffffffffffffffffffffffffffffffffffffffffffffffffffffffffffff0382111561123f5761123e611053565b5b82820190509291505056fea2646970667358221220c0bdb20768830e5b2c6e2f61aa4f72c935cb20daa611731f6c353af5588431e464736f6c634300080a0033",
  "immutableReferences": {},
  "source": "// SPDX-License-Identifier: MIT\npragma solidity ^0.8.4;\n\n\nimport \"@openzeppelin/contracts/utils/Context.sol\";\nimport \"@openzeppelin/contracts/utils/Address.sol\";\n\ncontract DPublish {\n    mapping(string => address) public submitted_manuscripts;\n    mapping(string => uint256) public payments; //Pagamentos feitos aos revisores\n    mapping(address => uint256) public wallet_funds; //Total de tokens possudos pelos usurios\n    mapping (address => string) public reviewed_links;\n    mapping(address => bool) public is_reviewer;\n    \n    address private Editor; // Editor address\n    uint256 public price; // Preo para publicao\n    uint16 public review_payment; // Pagamento para o revisor\n    \n    address[10] reviewers;\n    uint16 count_review = 0;\n    \n    //events\n    event PaymentReceived(address from, uint256 amount);\n\n    //errors\n    error MissingFunds(uint256 requested, uint256 available);\n\n    constructor(){\n        Editor = msg.sender;\n    }\n\n\n    function submit_manuscript(string memory idmanuscript) public payable{\n        submitted_manuscripts[idmanuscript] = msg.sender; // Usurio que publicou\n\n        uint funds = wallet_funds[msg.sender];\n        if (price > funds)// Verificando se o usurio possui saldo suficiente\n            revert MissingFunds(price, funds);\n        \n        wallet_funds[msg.sender] -= price;// Pagamento feito\n        payments[idmanuscript] = price;// Armazena pagamento\n        \n        emit PaymentReceived(msg.sender, price);\n    }\n\n    function set_balance(address user, uint256 value) public{\n        require(msg.sender == Editor);\n        wallet_funds[user] = value; //Atribuindo valor a uma determinada wallet\n    }\n\n    function set_price(uint256 n_fee) public payable{\n        require(msg.sender == Editor);// Preo determinado pelo Editor\n        price = n_fee;\n    }\n\n\n    function subscribe_to_review(address user) public{\n        require(count_review <= 10, \"Nao pode mais revisar\");\n        require(!(is_reviewer[msg.sender]==true), \"Precisa se inscrever como revisor\");\n        reviewers[count_review] = user;\n        count_review += 1 ;\n        is_reviewer[user] = true;\n    }\n\n\n    function sent_review(string memory linkIPFS) public{\n        require(is_reviewer[msg.sender]==true, \"Precisa se inscrever como revisor\");\n        reviewed_links[msg.sender] = linkIPFS;\n        pay_review(msg.sender);\n\n    }\n\n    function pay_review(address reviewer) private{\n        wallet_funds[reviewer] += review_payment;\n    }\n\n\n}\n",
  "sourcePath": "/home/fccoelho/Mega/Cursos/Blockchain_EMAp/Dpublish/contracts/git .sol",
  "compiler": {
    "name": "solc",
    "version": "0.8.10+commit.fc410830.Emscripten.clang"
  },
  "schemaVersion": "3.4.3",
  "updatedAt": "2021-12-16T18:55:55.620Z",
  "devdoc": {
    "kind": "dev",
    "methods": {},
    "version": 1
  },
  "userdoc": {
    "kind": "user",
    "methods": {},
    "version": 1
  }
}