{
  "contractName": "ERC20VotesMock",
  "abi": [
    {
      "inputs": [
        {
          "internalType": "string",
          "name": "name",
          "type": "string"
        },
        {
          "internalType": "string",
          "name": "symbol",
          "type": "string"
        }
      ],
      "stateMutability": "nonpayable",
      "type": "constructor"
    },
    {
      "anonymous": false,
      "inputs": [
        {
          "indexed": true,
          "internalType": "address",
          "name": "owner",
          "type": "address"
        },
        {
          "indexed": true,
          "internalType": "address",
          "name": "spender",
          "type": "address"
        },
        {
          "indexed": false,
          "internalType": "uint256",
          "name": "value",
          "type": "uint256"
        }
      ],
      "name": "Approval",
      "type": "event"
    },
    {
      "anonymous": false,
      "inputs": [
        {
          "indexed": true,
          "internalType": "address",
          "name": "delegator",
          "type": "address"
        },
        {
          "indexed": true,
          "internalType": "address",
          "name": "fromDelegate",
          "type": "address"
        },
        {
          "indexed": true,
          "internalType": "address",
          "name": "toDelegate",
          "type": "address"
        }
      ],
      "name": "DelegateChanged",
      "type": "event"
    },
    {
      "anonymous": false,
      "inputs": [
        {
          "indexed": true,
          "internalType": "address",
          "name": "delegate",
          "type": "address"
        },
        {
          "indexed": false,
          "internalType": "uint256",
          "name": "previousBalance",
          "type": "uint256"
        },
        {
          "indexed": false,
          "internalType": "uint256",
          "name": "newBalance",
          "type": "uint256"
        }
      ],
      "name": "DelegateVotesChanged",
      "type": "event"
    },
    {
      "anonymous": false,
      "inputs": [
        {
          "indexed": true,
          "internalType": "address",
          "name": "from",
          "type": "address"
        },
        {
          "indexed": true,
          "internalType": "address",
          "name": "to",
          "type": "address"
        },
        {
          "indexed": false,
          "internalType": "uint256",
          "name": "value",
          "type": "uint256"
        }
      ],
      "name": "Transfer",
      "type": "event"
    },
    {
      "inputs": [],
      "name": "DOMAIN_SEPARATOR",
      "outputs": [
        {
          "internalType": "bytes32",
          "name": "",
          "type": "bytes32"
        }
      ],
      "stateMutability": "view",
      "type": "function"
    },
    {
      "inputs": [
        {
          "internalType": "address",
          "name": "owner",
          "type": "address"
        },
        {
          "internalType": "address",
          "name": "spender",
          "type": "address"
        }
      ],
      "name": "allowance",
      "outputs": [
        {
          "internalType": "uint256",
          "name": "",
          "type": "uint256"
        }
      ],
      "stateMutability": "view",
      "type": "function"
    },
    {
      "inputs": [
        {
          "internalType": "address",
          "name": "spender",
          "type": "address"
        },
        {
          "internalType": "uint256",
          "name": "amount",
          "type": "uint256"
        }
      ],
      "name": "approve",
      "outputs": [
        {
          "internalType": "bool",
          "name": "",
          "type": "bool"
        }
      ],
      "stateMutability": "nonpayable",
      "type": "function"
    },
    {
      "inputs": [
        {
          "internalType": "address",
          "name": "account",
          "type": "address"
        }
      ],
      "name": "balanceOf",
      "outputs": [
        {
          "internalType": "uint256",
          "name": "",
          "type": "uint256"
        }
      ],
      "stateMutability": "view",
      "type": "function"
    },
    {
      "inputs": [
        {
          "internalType": "address",
          "name": "account",
          "type": "address"
        },
        {
          "internalType": "uint32",
          "name": "pos",
          "type": "uint32"
        }
      ],
      "name": "checkpoints",
      "outputs": [
        {
          "components": [
            {
              "internalType": "uint32",
              "name": "fromBlock",
              "type": "uint32"
            },
            {
              "internalType": "uint224",
              "name": "votes",
              "type": "uint224"
            }
          ],
          "internalType": "struct ERC20Votes.Checkpoint",
          "name": "",
          "type": "tuple"
        }
      ],
      "stateMutability": "view",
      "type": "function"
    },
    {
      "inputs": [],
      "name": "decimals",
      "outputs": [
        {
          "internalType": "uint8",
          "name": "",
          "type": "uint8"
        }
      ],
      "stateMutability": "view",
      "type": "function"
    },
    {
      "inputs": [
        {
          "internalType": "address",
          "name": "spender",
          "type": "address"
        },
        {
          "internalType": "uint256",
          "name": "subtractedValue",
          "type": "uint256"
        }
      ],
      "name": "decreaseAllowance",
      "outputs": [
        {
          "internalType": "bool",
          "name": "",
          "type": "bool"
        }
      ],
      "stateMutability": "nonpayable",
      "type": "function"
    },
    {
      "inputs": [
        {
          "internalType": "address",
          "name": "delegatee",
          "type": "address"
        }
      ],
      "name": "delegate",
      "outputs": [],
      "stateMutability": "nonpayable",
      "type": "function"
    },
    {
      "inputs": [
        {
          "internalType": "address",
          "name": "delegatee",
          "type": "address"
        },
        {
          "internalType": "uint256",
          "name": "nonce",
          "type": "uint256"
        },
        {
          "internalType": "uint256",
          "name": "expiry",
          "type": "uint256"
        },
        {
          "internalType": "uint8",
          "name": "v",
          "type": "uint8"
        },
        {
          "internalType": "bytes32",
          "name": "r",
          "type": "bytes32"
        },
        {
          "internalType": "bytes32",
          "name": "s",
          "type": "bytes32"
        }
      ],
      "name": "delegateBySig",
      "outputs": [],
      "stateMutability": "nonpayable",
      "type": "function"
    },
    {
      "inputs": [
        {
          "internalType": "address",
          "name": "account",
          "type": "address"
        }
      ],
      "name": "delegates",
      "outputs": [
        {
          "internalType": "address",
          "name": "",
          "type": "address"
        }
      ],
      "stateMutability": "view",
      "type": "function"
    },
    {
      "inputs": [
        {
          "internalType": "uint256",
          "name": "blockNumber",
          "type": "uint256"
        }
      ],
      "name": "getPastTotalSupply",
      "outputs": [
        {
          "internalType": "uint256",
          "name": "",
          "type": "uint256"
        }
      ],
      "stateMutability": "view",
      "type": "function"
    },
    {
      "inputs": [
        {
          "internalType": "address",
          "name": "account",
          "type": "address"
        },
        {
          "internalType": "uint256",
          "name": "blockNumber",
          "type": "uint256"
        }
      ],
      "name": "getPastVotes",
      "outputs": [
        {
          "internalType": "uint256",
          "name": "",
          "type": "uint256"
        }
      ],
      "stateMutability": "view",
      "type": "function"
    },
    {
      "inputs": [
        {
          "internalType": "address",
          "name": "account",
          "type": "address"
        }
      ],
      "name": "getVotes",
      "outputs": [
        {
          "internalType": "uint256",
          "name": "",
          "type": "uint256"
        }
      ],
      "stateMutability": "view",
      "type": "function"
    },
    {
      "inputs": [
        {
          "internalType": "address",
          "name": "spender",
          "type": "address"
        },
        {
          "internalType": "uint256",
          "name": "addedValue",
          "type": "uint256"
        }
      ],
      "name": "increaseAllowance",
      "outputs": [
        {
          "internalType": "bool",
          "name": "",
          "type": "bool"
        }
      ],
      "stateMutability": "nonpayable",
      "type": "function"
    },
    {
      "inputs": [],
      "name": "name",
      "outputs": [
        {
          "internalType": "string",
          "name": "",
          "type": "string"
        }
      ],
      "stateMutability": "view",
      "type": "function"
    },
    {
      "inputs": [
        {
          "internalType": "address",
          "name": "owner",
          "type": "address"
        }
      ],
      "name": "nonces",
      "outputs": [
        {
          "internalType": "uint256",
          "name": "",
          "type": "uint256"
        }
      ],
      "stateMutability": "view",
      "type": "function"
    },
    {
      "inputs": [
        {
          "internalType": "address",
          "name": "account",
          "type": "address"
        }
      ],
      "name": "numCheckpoints",
      "outputs": [
        {
          "internalType": "uint32",
          "name": "",
          "type": "uint32"
        }
      ],
      "stateMutability": "view",
      "type": "function"
    },
    {
      "inputs": [
        {
          "internalType": "address",
          "name": "owner",
          "type": "address"
        },
        {
          "internalType": "address",
          "name": "spender",
          "type": "address"
        },
        {
          "internalType": "uint256",
          "name": "value",
          "type": "uint256"
        },
        {
          "internalType": "uint256",
          "name": "deadline",
          "type": "uint256"
        },
        {
          "internalType": "uint8",
          "name": "v",
          "type": "uint8"
        },
        {
          "internalType": "bytes32",
          "name": "r",
          "type": "bytes32"
        },
        {
          "internalType": "bytes32",
          "name": "s",
          "type": "bytes32"
        }
      ],
      "name": "permit",
      "outputs": [],
      "stateMutability": "nonpayable",
      "type": "function"
    },
    {
      "inputs": [],
      "name": "symbol",
      "outputs": [
        {
          "internalType": "string",
          "name": "",
          "type": "string"
        }
      ],
      "stateMutability": "view",
      "type": "function"
    },
    {
      "inputs": [],
      "name": "totalSupply",
      "outputs": [
        {
          "internalType": "uint256",
          "name": "",
          "type": "uint256"
        }
      ],
      "stateMutability": "view",
      "type": "function"
    },
    {
      "inputs": [
        {
          "internalType": "address",
          "name": "recipient",
          "type": "address"
        },
        {
          "internalType": "uint256",
          "name": "amount",
          "type": "uint256"
        }
      ],
      "name": "transfer",
      "outputs": [
        {
          "internalType": "bool",
          "name": "",
          "type": "bool"
        }
      ],
      "stateMutability": "nonpayable",
      "type": "function"
    },
    {
      "inputs": [
        {
          "internalType": "address",
          "name": "sender",
          "type": "address"
        },
        {
          "internalType": "address",
          "name": "recipient",
          "type": "address"
        },
        {
          "internalType": "uint256",
          "name": "amount",
          "type": "uint256"
        }
      ],
      "name": "transferFrom",
      "outputs": [
        {
          "internalType": "bool",
          "name": "",
          "type": "bool"
        }
      ],
      "stateMutability": "nonpayable",
      "type": "function"
    },
    {
      "inputs": [
        {
          "internalType": "address",
          "name": "account",
          "type": "address"
        },
        {
          "internalType": "uint256",
          "name": "amount",
          "type": "uint256"
        }
      ],
      "name": "mint",
      "outputs": [],
      "stateMutability": "nonpayable",
      "type": "function"
    },
    {
      "inputs": [
        {
          "internalType": "address",
          "name": "account",
          "type": "address"
        },
        {
          "internalType": "uint256",
          "name": "amount",
          "type": "uint256"
        }
      ],
      "name": "burn",
      "outputs": [],
      "stateMutability": "nonpayable",
      "type": "function"
    },
    {
      "inputs": [],
      "name": "getChainId",
      "outputs": [
        {
          "internalType": "uint256",
          "name": "",
          "type": "uint256"
        }
      ],
      "stateMutability": "view",
      "type": "function"
    }
  ],
  "bytecode": "0x6101406040527f6e71edae12b1b97f4d1f60370fef10105fa2faae0126114a169c64845d6126c9610120908152503480156200003a57600080fd5b506040516200438e3803806200438e8339818101604052810190620000609190620002b2565b81806040518060400160405280600181526020017f310000000000000000000000000000000000000000000000000000000000000081525084848160039080519060200190620000b292919062000190565b508060049080519060200190620000cb92919062000190565b50505060008280519060200120905060008280519060200120905060007f8b73c3c69bb8fe3d512ecc4cf759cc79239f7b179b0ffacaa9a75d522b39400f90508260c081815250508160e081815250504660a08181525050620001368184846200015460201b60201c565b6080818152505080610100818152505050505050505050506200056d565b600083838346306040516020016200017195949392919062000358565b6040516020818303038152906040528051906020012090509392505050565b8280546200019e9062000492565b90600052602060002090601f016020900481019282620001c257600085556200020e565b82601f10620001dd57805160ff19168380011785556200020e565b828001600101855582156200020e579182015b828111156200020d578251825591602001919060010190620001f0565b5b5090506200021d919062000221565b5090565b5b808211156200023c57600081600090555060010162000222565b5090565b6000620002576200025184620003de565b620003b5565b9050828152602081018484840111156200027057600080fd5b6200027d8482856200045c565b509392505050565b600082601f8301126200029757600080fd5b8151620002a984826020860162000240565b91505092915050565b60008060408385031215620002c657600080fd5b600083015167ffffffffffffffff811115620002e157600080fd5b620002ef8582860162000285565b925050602083015167ffffffffffffffff8111156200030d57600080fd5b6200031b8582860162000285565b9150509250929050565b620003308162000414565b82525050565b620003418162000428565b82525050565b620003528162000452565b82525050565b600060a0820190506200036f600083018862000336565b6200037e602083018762000336565b6200038d604083018662000336565b6200039c606083018562000347565b620003ab608083018462000325565b9695505050505050565b6000620003c1620003d4565b9050620003cf8282620004c8565b919050565b6000604051905090565b600067ffffffffffffffff821115620003fc57620003fb6200052d565b5b62000407826200055c565b9050602081019050919050565b6000620004218262000432565b9050919050565b6000819050919050565b600073ffffffffffffffffffffffffffffffffffffffff82169050919050565b6000819050919050565b60005b838110156200047c5780820151818401526020810190506200045f565b838111156200048c576000848401525b50505050565b60006002820490506001821680620004ab57607f821691505b60208210811415620004c257620004c1620004fe565b5b50919050565b620004d3826200055c565b810181811067ffffffffffffffff82111715620004f557620004f46200052d565b5b80604052505050565b7f4e487b7100000000000000000000000000000000000000000000000000000000600052602260045260246000fd5b7f4e487b7100000000000000000000000000000000000000000000000000000000600052604160045260246000fd5b6000601f19601f8301169050919050565b60805160a05160c05160e0516101005161012051613dd1620005bd6000396000610e62015260006115c501526000611607015260006115e6015260006115720152600061159a0152613dd16000f3fe608060405234801561001057600080fd5b50600436106101735760003560e01c80636fcfff45116100de5780639dc29fac11610097578063c3cda52011610071578063c3cda520146104c0578063d505accf146104dc578063dd62ed3e146104f8578063f1127ed81461052857610173565b80639dc29fac14610444578063a457c2d714610460578063a9059cbb1461049057610173565b80636fcfff451461033657806370a08231146103665780637ecebe00146103965780638e539e8c146103c657806395d89b41146103f65780639ab24eb01461041457610173565b80633644e515116101305780633644e51514610250578063395093511461026e5780633a46b1a81461029e57806340c10f19146102ce578063587cde1e146102ea5780635c19a95c1461031a57610173565b806306fdde0314610178578063095ea7b31461019657806318160ddd146101c657806323b872dd146101e4578063313ce567146102145780633408e47014610232575b600080fd5b610180610558565b60405161018d9190613168565b60405180910390f35b6101b060048036038101906101ab9190612a5c565b6105ea565b6040516101bd9190612ff4565b60405180910390f35b6101ce610608565b6040516101db9190613465565b60405180910390f35b6101fe60048036038101906101f9919061296f565b610612565b60405161020b9190612ff4565b60405180910390f35b61021c61070a565b60405161022991906134c4565b60405180910390f35b61023a610713565b6040516102479190613465565b60405180910390f35b61025861071b565b604051610265919061300f565b60405180910390f35b61028860048036038101906102839190612a5c565b61072a565b6040516102959190612ff4565b60405180910390f35b6102b860048036038101906102b39190612a5c565b6107d6565b6040516102c59190613465565b60405180910390f35b6102e860048036038101906102e39190612a5c565b61086a565b005b61030460048036038101906102ff919061290a565b610878565b6040516103119190612fd9565b60405180910390f35b610334600480360381019061032f919061290a565b6108e1565b005b610350600480360381019061034b919061290a565b6108f5565b60405161035d91906134a9565b60405180910390f35b610380600480360381019061037b919061290a565b610949565b60405161038d9190613465565b60405180910390f35b6103b060048036038101906103ab919061290a565b610991565b6040516103bd9190613465565b60405180910390f35b6103e060048036038101906103db9190612b5d565b6109e1565b6040516103ed9190613465565b60405180910390f35b6103fe610a37565b60405161040b9190613168565b60405180910390f35b61042e6004803603810190610429919061290a565b610ac9565b60405161043b9190613465565b60405180910390f35b61045e60048036038101906104599190612a5c565b610c00565b005b61047a60048036038101906104759190612a5c565b610c0e565b6040516104879190612ff4565b60405180910390f35b6104aa60048036038101906104a59190612a5c565b610cf9565b6040516104b79190612ff4565b60405180910390f35b6104da60048036038101906104d59190612a98565b610d17565b005b6104f660048036038101906104f191906129be565b610e1b565b005b610512600480360381019061050d9190612933565b610f5d565b60405161051f9190613465565b60405180910390f35b610542600480360381019061053d9190612b21565b610fe4565b60405161054f919061344a565b60405180910390f35b6060600380546105679061368b565b80601f01602080910402602001604051908101604052809291908181526020018280546105939061368b565b80156105e05780601f106105b5576101008083540402835291602001916105e0565b820191906000526020600020905b8154815290600101906020018083116105c357829003601f168201915b5050505050905090565b60006105fe6105f761111a565b8484611122565b6001905092915050565b6000600254905090565b600061061f8484846112ed565b6000600160008673ffffffffffffffffffffffffffffffffffffffff1673ffffffffffffffffffffffffffffffffffffffff168152602001908152602001600020600061066a61111a565b73ffffffffffffffffffffffffffffffffffffffff1673ffffffffffffffffffffffffffffffffffffffff168152602001908152602001600020549050828110156106ea576040517f08c379a00000000000000000000000000000000000000000000000000000000081526004016106e19061332a565b60405180910390fd5b6106fe856106f661111a565b858403611122565b60019150509392505050565b60006012905090565b600046905090565b600061072561156e565b905090565b60006107cc61073761111a565b84846001600061074561111a565b73ffffffffffffffffffffffffffffffffffffffff1673ffffffffffffffffffffffffffffffffffffffff16815260200190815260200160002060008873ffffffffffffffffffffffffffffffffffffffff1673ffffffffffffffffffffffffffffffffffffffff168152602001908152602001600020546107c79190613506565b611122565b6001905092915050565b600043821061081a576040517f08c379a0000000000000000000000000000000000000000000000000000000008152600401610811906131ca565b60405180910390fd5b610862600760008573ffffffffffffffffffffffffffffffffffffffff1673ffffffffffffffffffffffffffffffffffffffff16815260200190815260200160002083611631565b905092915050565b6108748282611789565b5050565b6000600660008373ffffffffffffffffffffffffffffffffffffffff1673ffffffffffffffffffffffffffffffffffffffff16815260200190815260200160002060009054906101000a900473ffffffffffffffffffffffffffffffffffffffff169050919050565b6108f26108ec61111a565b82611816565b50565b6000610942600760008473ffffffffffffffffffffffffffffffffffffffff1673ffffffffffffffffffffffffffffffffffffffff16815260200190815260200160002080549050611930565b9050919050565b60008060008373ffffffffffffffffffffffffffffffffffffffff1673ffffffffffffffffffffffffffffffffffffffff168152602001908152602001600020549050919050565b60006109da600560008473ffffffffffffffffffffffffffffffffffffffff1673ffffffffffffffffffffffffffffffffffffffff168152602001908152602001600020611983565b9050919050565b6000438210610a25576040517f08c379a0000000000000000000000000000000000000000000000000000000008152600401610a1c906131ca565b60405180910390fd5b610a30600883611631565b9050919050565b606060048054610a469061368b565b80601f0160208091040260200160405190810160405280929190818152602001828054610a729061368b565b8015610abf5780601f10610a9457610100808354040283529160200191610abf565b820191906000526020600020905b815481529060010190602001808311610aa257829003601f168201915b5050505050905090565b600080600760008473ffffffffffffffffffffffffffffffffffffffff1673ffffffffffffffffffffffffffffffffffffffff16815260200190815260200160002080549050905060008114610bd757600760008473ffffffffffffffffffffffffffffffffffffffff1673ffffffffffffffffffffffffffffffffffffffff168152602001908152602001600020600182610b65919061358d565b81548110610b9c577f4e487b7100000000000000000000000000000000000000000000000000000000600052603260045260246000fd5b9060005260206000200160000160049054906101000a90047bffffffffffffffffffffffffffffffffffffffffffffffffffffffff16610bda565b60005b7bffffffffffffffffffffffffffffffffffffffffffffffffffffffff16915050919050565b610c0a8282611991565b5050565b60008060016000610c1d61111a565b73ffffffffffffffffffffffffffffffffffffffff1673ffffffffffffffffffffffffffffffffffffffff16815260200190815260200160002060008573ffffffffffffffffffffffffffffffffffffffff1673ffffffffffffffffffffffffffffffffffffffff16815260200190815260200160002054905082811015610cda576040517f08c379a0000000000000000000000000000000000000000000000000000000008152600401610cd19061340a565b60405180910390fd5b610cee610ce561111a565b85858403611122565b600191505092915050565b6000610d0d610d0661111a565b84846112ed565b6001905092915050565b83421115610d5a576040517f08c379a0000000000000000000000000000000000000000000000000000000008152600401610d51906131ea565b60405180910390fd5b6000610dbc610db47fe48329057bfd03d55e49b547132e39cffd9c1820ad7b9d4c5307691425d15adf898989604051602001610d99949392919061308b565b604051602081830303815290604052805190602001206119af565b8585856119c9565b9050610dc7816119f4565b8614610e08576040517f08c379a0000000000000000000000000000000000000000000000000000000008152600401610dff9061324a565b60405180910390fd5b610e128188611816565b50505050505050565b83421115610e5e576040517f08c379a0000000000000000000000000000000000000000000000000000000008152600401610e559061328a565b60405180910390fd5b60007f0000000000000000000000000000000000000000000000000000000000000000888888610e8d8c6119f4565b89604051602001610ea39695949392919061302a565b6040516020818303038152906040528051906020012090506000610ec6826119af565b90506000610ed6828787876119c9565b90508973ffffffffffffffffffffffffffffffffffffffff168173ffffffffffffffffffffffffffffffffffffffff1614610f46576040517f08c379a0000000000000000000000000000000000000000000000000000000008152600401610f3d9061330a565b60405180910390fd5b610f518a8a8a611122565b50505050505050505050565b6000600160008473ffffffffffffffffffffffffffffffffffffffff1673ffffffffffffffffffffffffffffffffffffffff16815260200190815260200160002060008373ffffffffffffffffffffffffffffffffffffffff1673ffffffffffffffffffffffffffffffffffffffff16815260200190815260200160002054905092915050565b610fec612863565b600760008473ffffffffffffffffffffffffffffffffffffffff1673ffffffffffffffffffffffffffffffffffffffff1681526020019081526020016000208263ffffffff1681548110611069577f4e487b7100000000000000000000000000000000000000000000000000000000600052603260045260246000fd5b906000526020600020016040518060400160405290816000820160009054906101000a900463ffffffff1663ffffffff1663ffffffff1681526020016000820160049054906101000a90047bffffffffffffffffffffffffffffffffffffffffffffffffffffffff167bffffffffffffffffffffffffffffffffffffffffffffffffffffffff167bffffffffffffffffffffffffffffffffffffffffffffffffffffffff1681525050905092915050565b600033905090565b600073ffffffffffffffffffffffffffffffffffffffff168373ffffffffffffffffffffffffffffffffffffffff161415611192576040517f08c379a0000000000000000000000000000000000000000000000000000000008152600401611189906133ea565b60405180910390fd5b600073ffffffffffffffffffffffffffffffffffffffff168273ffffffffffffffffffffffffffffffffffffffff161415611202576040517f08c379a00000000000000000000000000000000000000000000000000000000081526004016111f99061326a565b60405180910390fd5b80600160008573ffffffffffffffffffffffffffffffffffffffff1673ffffffffffffffffffffffffffffffffffffffff16815260200190815260200160002060008473ffffffffffffffffffffffffffffffffffffffff1673ffffffffffffffffffffffffffffffffffffffff168152602001908152602001600020819055508173ffffffffffffffffffffffffffffffffffffffff168373ffffffffffffffffffffffffffffffffffffffff167f8c5be1e5ebec7d5bd14f71427d1e84f3dd0314c0f7b2291e5b200ac8c7c3b925836040516112e09190613465565b60405180910390a3505050565b600073ffffffffffffffffffffffffffffffffffffffff168373ffffffffffffffffffffffffffffffffffffffff16141561135d576040517f08c379a0000000000000000000000000000000000000000000000000000000008152600401611354906133aa565b60405180910390fd5b600073ffffffffffffffffffffffffffffffffffffffff168273ffffffffffffffffffffffffffffffffffffffff1614156113cd576040517f08c379a00000000000000000000000000000000000000000000000000000000081526004016113c4906131aa565b60405180910390fd5b6113d8838383611a52565b60008060008573ffffffffffffffffffffffffffffffffffffffff1673ffffffffffffffffffffffffffffffffffffffff1681526020019081526020016000205490508181101561145e576040517f08c379a0000000000000000000000000000000000000000000000000000000008152600401611455906132aa565b60405180910390fd5b8181036000808673ffffffffffffffffffffffffffffffffffffffff1673ffffffffffffffffffffffffffffffffffffffff16815260200190815260200160002081905550816000808573ffffffffffffffffffffffffffffffffffffffff1673ffffffffffffffffffffffffffffffffffffffff16815260200190815260200160002060008282546114f19190613506565b925050819055508273ffffffffffffffffffffffffffffffffffffffff168473ffffffffffffffffffffffffffffffffffffffff167fddf252ad1be2c89b69c2b068fc378daa952ba7f163c4a11628f55a4df523b3ef846040516115559190613465565b60405180910390a3611568848484611a57565b50505050565b60007f00000000000000000000000000000000000000000000000000000000000000004614156115c0577f0000000000000000000000000000000000000000000000000000000000000000905061162e565b61162b7f00000000000000000000000000000000000000000000000000000000000000007f00000000000000000000000000000000000000000000000000000000000000007f0000000000000000000000000000000000000000000000000000000000000000611a82565b90505b90565b6000808380549050905060005b818110156116d65760006116528284611abc565b90508486828154811061168e577f4e487b7100000000000000000000000000000000000000000000000000000000600052603260045260246000fd5b9060005260206000200160000160009054906101000a900463ffffffff1663ffffffff1611156116c0578092506116d0565b6001816116cd9190613506565b91505b5061163e565b6000821461175e57846001836116ec919061358d565b81548110611723577f4e487b7100000000000000000000000000000000000000000000000000000000600052603260045260246000fd5b9060005260206000200160000160049054906101000a90047bffffffffffffffffffffffffffffffffffffffffffffffffffffffff16611761565b60005b7bffffffffffffffffffffffffffffffffffffffffffffffffffffffff169250505092915050565b6117938282611ae2565b61179b611c42565b7bffffffffffffffffffffffffffffffffffffffffffffffffffffffff166117c1610608565b1115611802576040517f08c379a00000000000000000000000000000000000000000000000000000000081526004016117f99061334a565b60405180910390fd5b6118106008611c6683611c7c565b50505050565b600061182183610878565b9050600061182e84610949565b905082600660008673ffffffffffffffffffffffffffffffffffffffff1673ffffffffffffffffffffffffffffffffffffffff16815260200190815260200160002060006101000a81548173ffffffffffffffffffffffffffffffffffffffff021916908373ffffffffffffffffffffffffffffffffffffffff1602179055508273ffffffffffffffffffffffffffffffffffffffff168273ffffffffffffffffffffffffffffffffffffffff168573ffffffffffffffffffffffffffffffffffffffff167f3134e8a2e6d97e929a7e54011ea5485d7d196dd5f0ba4d4ef95803e8e3fc257f60405160405180910390a461192a828483611f66565b50505050565b600063ffffffff801682111561197b576040517f08c379a0000000000000000000000000000000000000000000000000000000008152600401611972906133ca565b60405180910390fd5b819050919050565b600081600001549050919050565b61199b828261215f565b6119a9600861233683611c7c565b50505050565b60006119c26119bc61156e565b8361234c565b9050919050565b60008060006119da8787878761237f565b915091506119e78161248c565b8192505050949350505050565b600080600560008473ffffffffffffffffffffffffffffffffffffffff1673ffffffffffffffffffffffffffffffffffffffff1681526020019081526020016000209050611a4181611983565b9150611a4c816127dd565b50919050565b505050565b611a628383836127f3565b611a7d611a6e84610878565b611a7784610878565b83611f66565b505050565b60008383834630604051602001611a9d9594939291906130d0565b6040516020818303038152906040528051906020012090509392505050565b60006002828418611acd919061355c565b828416611ada9190613506565b905092915050565b600073ffffffffffffffffffffffffffffffffffffffff168273ffffffffffffffffffffffffffffffffffffffff161415611b52576040517f08c379a0000000000000000000000000000000000000000000000000000000008152600401611b499061342a565b60405180910390fd5b611b5e60008383611a52565b8060026000828254611b709190613506565b92505081905550806000808473ffffffffffffffffffffffffffffffffffffffff1673ffffffffffffffffffffffffffffffffffffffff1681526020019081526020016000206000828254611bc59190613506565b925050819055508173ffffffffffffffffffffffffffffffffffffffff16600073ffffffffffffffffffffffffffffffffffffffff167fddf252ad1be2c89b69c2b068fc378daa952ba7f163c4a11628f55a4df523b3ef83604051611c2a9190613465565b60405180910390a3611c3e60008383611a57565b5050565b60007bffffffffffffffffffffffffffffffffffffffffffffffffffffffff905090565b60008183611c749190613506565b905092915050565b60008060008580549050905060008114611d105785600182611c9e919061358d565b81548110611cd5577f4e487b7100000000000000000000000000000000000000000000000000000000600052603260045260246000fd5b9060005260206000200160000160049054906101000a90047bffffffffffffffffffffffffffffffffffffffffffffffffffffffff16611d13565b60005b7bffffffffffffffffffffffffffffffffffffffffffffffffffffffff169250611d4183858763ffffffff16565b9150600081118015611dba57504386600183611d5d919061358d565b81548110611d94577f4e487b7100000000000000000000000000000000000000000000000000000000600052603260045260246000fd5b9060005260206000200160000160009054906101000a900463ffffffff1663ffffffff16145b15611e6d57611dc8826127f8565b86600183611dd6919061358d565b81548110611e0d577f4e487b7100000000000000000000000000000000000000000000000000000000600052603260045260246000fd5b9060005260206000200160000160046101000a8154817bffffffffffffffffffffffffffffffffffffffffffffffffffffffff02191690837bffffffffffffffffffffffffffffffffffffffffffffffffffffffff160217905550611f5d565b856040518060400160405280611e8243611930565b63ffffffff168152602001611e96856127f8565b7bffffffffffffffffffffffffffffffffffffffffffffffffffffffff168152509080600181540180825580915050600190039060005260206000200160009091909190915060008201518160000160006101000a81548163ffffffff021916908363ffffffff16021790555060208201518160000160046101000a8154817bffffffffffffffffffffffffffffffffffffffffffffffffffffffff02191690837bffffffffffffffffffffffffffffffffffffffffffffffffffffffff16021790555050505b50935093915050565b8173ffffffffffffffffffffffffffffffffffffffff168373ffffffffffffffffffffffffffffffffffffffff1614158015611fa25750600081115b1561215a57600073ffffffffffffffffffffffffffffffffffffffff168373ffffffffffffffffffffffffffffffffffffffff161461208057600080612029600760008773ffffffffffffffffffffffffffffffffffffffff1673ffffffffffffffffffffffffffffffffffffffff16815260200190815260200160002061233685611c7c565b915091508473ffffffffffffffffffffffffffffffffffffffff167fdec2bacdd2f05b59de34da9b523dff8be42e5e38e818c82fdb0bae774387a7248383604051612075929190613480565b60405180910390a250505b600073ffffffffffffffffffffffffffffffffffffffff168273ffffffffffffffffffffffffffffffffffffffff161461215957600080612102600760008673ffffffffffffffffffffffffffffffffffffffff1673ffffffffffffffffffffffffffffffffffffffff168152602001908152602001600020611c6685611c7c565b915091508373ffffffffffffffffffffffffffffffffffffffff167fdec2bacdd2f05b59de34da9b523dff8be42e5e38e818c82fdb0bae774387a724838360405161214e929190613480565b60405180910390a250505b5b505050565b600073ffffffffffffffffffffffffffffffffffffffff168273ffffffffffffffffffffffffffffffffffffffff1614156121cf576040517f08c379a00000000000000000000000000000000000000000000000000000000081526004016121c69061338a565b60405180910390fd5b6121db82600083611a52565b60008060008473ffffffffffffffffffffffffffffffffffffffff1673ffffffffffffffffffffffffffffffffffffffff16815260200190815260200160002054905081811015612261576040517f08c379a00000000000000000000000000000000000000000000000000000000081526004016122589061320a565b60405180910390fd5b8181036000808573ffffffffffffffffffffffffffffffffffffffff1673ffffffffffffffffffffffffffffffffffffffff1681526020019081526020016000208190555081600260008282546122b8919061358d565b92505081905550600073ffffffffffffffffffffffffffffffffffffffff168373ffffffffffffffffffffffffffffffffffffffff167fddf252ad1be2c89b69c2b068fc378daa952ba7f163c4a11628f55a4df523b3ef8460405161231d9190613465565b60405180910390a361233183600084611a57565b505050565b60008183612344919061358d565b905092915050565b60008282604051602001612361929190612fa2565b60405160208183030381529060405280519060200120905092915050565b6000807f7fffffffffffffffffffffffffffffff5d576e7357a4501ddfe92f46681b20a08360001c11156123ba576000600391509150612483565b601b8560ff16141580156123d25750601c8560ff1614155b156123e4576000600491509150612483565b6000600187878787604051600081526020016040526040516124099493929190613123565b6020604051602081039080840390855afa15801561242b573d6000803e3d6000fd5b505050602060405103519050600073ffffffffffffffffffffffffffffffffffffffff168173ffffffffffffffffffffffffffffffffffffffff16141561247a57600060019250925050612483565b80600092509250505b94509492505050565b600060048111156124c6577f4e487b7100000000000000000000000000000000000000000000000000000000600052602160045260246000fd5b8160048111156124ff577f4e487b7100000000000000000000000000000000000000000000000000000000600052602160045260246000fd5b141561250a576127da565b60016004811115612544577f4e487b7100000000000000000000000000000000000000000000000000000000600052602160045260246000fd5b81600481111561257d577f4e487b7100000000000000000000000000000000000000000000000000000000600052602160045260246000fd5b14156125be576040517f08c379a00000000000000000000000000000000000000000000000000000000081526004016125b59061318a565b60405180910390fd5b600260048111156125f8577f4e487b7100000000000000000000000000000000000000000000000000000000600052602160045260246000fd5b816004811115612631577f4e487b7100000000000000000000000000000000000000000000000000000000600052602160045260246000fd5b1415612672576040517f08c379a00000000000000000000000000000000000000000000000000000000081526004016126699061322a565b60405180910390fd5b600360048111156126ac577f4e487b7100000000000000000000000000000000000000000000000000000000600052602160045260246000fd5b8160048111156126e5577f4e487b7100000000000000000000000000000000000000000000000000000000600052602160045260246000fd5b1415612726576040517f08c379a000000000000000000000000000000000000000000000000000000000815260040161271d906132ca565b60405180910390fd5b60048081111561275f577f4e487b7100000000000000000000000000000000000000000000000000000000600052602160045260246000fd5b816004811115612798577f4e487b7100000000000000000000000000000000000000000000000000000000600052602160045260246000fd5b14156127d9576040517f08c379a00000000000000000000000000000000000000000000000000000000081526004016127d0906132ea565b60405180910390fd5b5b50565b6001816000016000828254019250508190555050565b505050565b60007bffffffffffffffffffffffffffffffffffffffffffffffffffffffff801682111561285b576040517f08c379a00000000000000000000000000000000000000000000000000000000081526004016128529061336a565b60405180910390fd5b819050919050565b6040518060400160405280600063ffffffff16815260200160007bffffffffffffffffffffffffffffffffffffffffffffffffffffffff1681525090565b6000813590506128b081613d28565b92915050565b6000813590506128c581613d3f565b92915050565b6000813590506128da81613d56565b92915050565b6000813590506128ef81613d6d565b92915050565b60008135905061290481613d84565b92915050565b60006020828403121561291c57600080fd5b600061292a848285016128a1565b91505092915050565b6000806040838503121561294657600080fd5b6000612954858286016128a1565b9250506020612965858286016128a1565b9150509250929050565b60008060006060848603121561298457600080fd5b6000612992868287016128a1565b93505060206129a3868287016128a1565b92505060406129b4868287016128cb565b9150509250925092565b600080600080600080600060e0888a0312156129d957600080fd5b60006129e78a828b016128a1565b97505060206129f88a828b016128a1565b9650506040612a098a828b016128cb565b9550506060612a1a8a828b016128cb565b9450506080612a2b8a828b016128f5565b93505060a0612a3c8a828b016128b6565b92505060c0612a4d8a828b016128b6565b91505092959891949750929550565b60008060408385031215612a6f57600080fd5b6000612a7d858286016128a1565b9250506020612a8e858286016128cb565b9150509250929050565b60008060008060008060c08789031215612ab157600080fd5b6000612abf89828a016128a1565b9650506020612ad089828a016128cb565b9550506040612ae189828a016128cb565b9450506060612af289828a016128f5565b9350506080612b0389828a016128b6565b92505060a0612b1489828a016128b6565b9150509295509295509295565b60008060408385031215612b3457600080fd5b6000612b42858286016128a1565b9250506020612b53858286016128e0565b9150509250929050565b600060208284031215612b6f57600080fd5b6000612b7d848285016128cb565b91505092915050565b612b8f816135c1565b82525050565b612b9e816135d3565b82525050565b612bad816135df565b82525050565b612bc4612bbf826135df565b6136bd565b82525050565b6000612bd5826134df565b612bdf81856134ea565b9350612bef818560208601613658565b612bf881613754565b840191505092915050565b6000612c106018836134ea565b9150612c1b82613765565b602082019050919050565b6000612c336023836134ea565b9150612c3e8261378e565b604082019050919050565b6000612c56601f836134ea565b9150612c61826137dd565b602082019050919050565b6000612c79601d836134ea565b9150612c8482613806565b602082019050919050565b6000612c9c6022836134ea565b9150612ca78261382f565b604082019050919050565b6000612cbf601f836134ea565b9150612cca8261387e565b602082019050919050565b6000612ce26019836134ea565b9150612ced826138a7565b602082019050919050565b6000612d056022836134ea565b9150612d10826138d0565b604082019050919050565b6000612d286002836134fb565b9150612d338261391f565b600282019050919050565b6000612d4b601d836134ea565b9150612d5682613948565b602082019050919050565b6000612d6e6026836134ea565b9150612d7982613971565b604082019050919050565b6000612d916022836134ea565b9150612d9c826139c0565b604082019050919050565b6000612db46022836134ea565b9150612dbf82613a0f565b604082019050919050565b6000612dd7601e836134ea565b9150612de282613a5e565b602082019050919050565b6000612dfa6028836134ea565b9150612e0582613a87565b604082019050919050565b6000612e1d6030836134ea565b9150612e2882613ad6565b604082019050919050565b6000612e406027836134ea565b9150612e4b82613b25565b604082019050919050565b6000612e636021836134ea565b9150612e6e82613b74565b604082019050919050565b6000612e866025836134ea565b9150612e9182613bc3565b604082019050919050565b6000612ea96026836134ea565b9150612eb482613c12565b604082019050919050565b6000612ecc6024836134ea565b9150612ed782613c61565b604082019050919050565b6000612eef6025836134ea565b9150612efa82613cb0565b604082019050919050565b6000612f12601f836134ea565b9150612f1d82613cff565b602082019050919050565b604082016000820151612f3e6000850182612f75565b506020820151612f516020850182612f57565b50505050565b612f6081613609565b82525050565b612f6f81613631565b82525050565b612f7e8161363b565b82525050565b612f8d8161363b565b82525050565b612f9c8161364b565b82525050565b6000612fad82612d1b565b9150612fb98285612bb3565b602082019150612fc98284612bb3565b6020820191508190509392505050565b6000602082019050612fee6000830184612b86565b92915050565b60006020820190506130096000830184612b95565b92915050565b60006020820190506130246000830184612ba4565b92915050565b600060c08201905061303f6000830189612ba4565b61304c6020830188612b86565b6130596040830187612b86565b6130666060830186612f66565b6130736080830185612f66565b61308060a0830184612f66565b979650505050505050565b60006080820190506130a06000830187612ba4565b6130ad6020830186612b86565b6130ba6040830185612f66565b6130c76060830184612f66565b95945050505050565b600060a0820190506130e56000830188612ba4565b6130f26020830187612ba4565b6130ff6040830186612ba4565b61310c6060830185612f66565b6131196080830184612b86565b9695505050505050565b60006080820190506131386000830187612ba4565b6131456020830186612f93565b6131526040830185612ba4565b61315f6060830184612ba4565b95945050505050565b600060208201905081810360008301526131828184612bca565b905092915050565b600060208201905081810360008301526131a381612c03565b9050919050565b600060208201905081810360008301526131c381612c26565b9050919050565b600060208201905081810360008301526131e381612c49565b9050919050565b6000602082019050818103600083015261320381612c6c565b9050919050565b6000602082019050818103600083015261322381612c8f565b9050919050565b6000602082019050818103600083015261324381612cb2565b9050919050565b6000602082019050818103600083015261326381612cd5565b9050919050565b6000602082019050818103600083015261328381612cf8565b9050919050565b600060208201905081810360008301526132a381612d3e565b9050919050565b600060208201905081810360008301526132c381612d61565b9050919050565b600060208201905081810360008301526132e381612d84565b9050919050565b6000602082019050818103600083015261330381612da7565b9050919050565b6000602082019050818103600083015261332381612dca565b9050919050565b6000602082019050818103600083015261334381612ded565b9050919050565b6000602082019050818103600083015261336381612e10565b9050919050565b6000602082019050818103600083015261338381612e33565b9050919050565b600060208201905081810360008301526133a381612e56565b9050919050565b600060208201905081810360008301526133c381612e79565b9050919050565b600060208201905081810360008301526133e381612e9c565b9050919050565b6000602082019050818103600083015261340381612ebf565b9050919050565b6000602082019050818103600083015261342381612ee2565b9050919050565b6000602082019050818103600083015261344381612f05565b9050919050565b600060408201905061345f6000830184612f28565b92915050565b600060208201905061347a6000830184612f66565b92915050565b60006040820190506134956000830185612f66565b6134a26020830184612f66565b9392505050565b60006020820190506134be6000830184612f84565b92915050565b60006020820190506134d96000830184612f93565b92915050565b600081519050919050565b600082825260208201905092915050565b600081905092915050565b600061351182613631565b915061351c83613631565b9250827fffffffffffffffffffffffffffffffffffffffffffffffffffffffffffffffff03821115613551576135506136c7565b5b828201905092915050565b600061356782613631565b915061357283613631565b925082613582576135816136f6565b5b828204905092915050565b600061359882613631565b91506135a383613631565b9250828210156135b6576135b56136c7565b5b828203905092915050565b60006135cc826135e9565b9050919050565b60008115159050919050565b6000819050919050565b600073ffffffffffffffffffffffffffffffffffffffff82169050919050565b60007bffffffffffffffffffffffffffffffffffffffffffffffffffffffff82169050919050565b6000819050919050565b600063ffffffff82169050919050565b600060ff82169050919050565b60005b8381101561367657808201518184015260208101905061365b565b83811115613685576000848401525b50505050565b600060028204905060018216806136a357607f821691505b602082108114156136b7576136b6613725565b5b50919050565b6000819050919050565b7f4e487b7100000000000000000000000000000000000000000000000000000000600052601160045260246000fd5b7f4e487b7100000000000000000000000000000000000000000000000000000000600052601260045260246000fd5b7f4e487b7100000000000000000000000000000000000000000000000000000000600052602260045260246000fd5b6000601f19601f8301169050919050565b7f45434453413a20696e76616c6964207369676e61747572650000000000000000600082015250565b7f45524332303a207472616e7366657220746f20746865207a65726f206164647260008201527f6573730000000000000000000000000000000000000000000000000000000000602082015250565b7f4552433230566f7465733a20626c6f636b206e6f7420796574206d696e656400600082015250565b7f4552433230566f7465733a207369676e61747572652065787069726564000000600082015250565b7f45524332303a206275726e20616d6f756e7420657863656564732062616c616e60008201527f6365000000000000000000000000000000000000000000000000000000000000602082015250565b7f45434453413a20696e76616c6964207369676e6174757265206c656e67746800600082015250565b7f4552433230566f7465733a20696e76616c6964206e6f6e636500000000000000600082015250565b7f45524332303a20617070726f766520746f20746865207a65726f20616464726560008201527f7373000000000000000000000000000000000000000000000000000000000000602082015250565b7f1901000000000000000000000000000000000000000000000000000000000000600082015250565b7f45524332305065726d69743a206578706972656420646561646c696e65000000600082015250565b7f45524332303a207472616e7366657220616d6f756e742065786365656473206260008201527f616c616e63650000000000000000000000000000000000000000000000000000602082015250565b7f45434453413a20696e76616c6964207369676e6174757265202773272076616c60008201527f7565000000000000000000000000000000000000000000000000000000000000602082015250565b7f45434453413a20696e76616c6964207369676e6174757265202776272076616c60008201527f7565000000000000000000000000000000000000000000000000000000000000602082015250565b7f45524332305065726d69743a20696e76616c6964207369676e61747572650000600082015250565b7f45524332303a207472616e7366657220616d6f756e742065786365656473206160008201527f6c6c6f77616e6365000000000000000000000000000000000000000000000000602082015250565b7f4552433230566f7465733a20746f74616c20737570706c79207269736b73206f60008201527f766572666c6f77696e6720766f74657300000000000000000000000000000000602082015250565b7f53616665436173743a2076616c756520646f65736e27742066697420696e203260008201527f3234206269747300000000000000000000000000000000000000000000000000602082015250565b7f45524332303a206275726e2066726f6d20746865207a65726f2061646472657360008201527f7300000000000000000000000000000000000000000000000000000000000000602082015250565b7f45524332303a207472616e736665722066726f6d20746865207a65726f20616460008201527f6472657373000000000000000000000000000000000000000000000000000000602082015250565b7f53616665436173743a2076616c756520646f65736e27742066697420696e203360008201527f3220626974730000000000000000000000000000000000000000000000000000602082015250565b7f45524332303a20617070726f76652066726f6d20746865207a65726f2061646460008201527f7265737300000000000000000000000000000000000000000000000000000000602082015250565b7f45524332303a2064656372656173656420616c6c6f77616e63652062656c6f7760008201527f207a65726f000000000000000000000000000000000000000000000000000000602082015250565b7f45524332303a206d696e7420746f20746865207a65726f206164647265737300600082015250565b613d31816135c1565b8114613d3c57600080fd5b50565b613d48816135df565b8114613d5357600080fd5b50565b613d5f81613631565b8114613d6a57600080fd5b50565b613d768161363b565b8114613d8157600080fd5b50565b613d8d8161364b565b8114613d9857600080fd5b5056fea2646970667358221220ed905f016d72e51cf10ec0c9a6614827e334173d4023114562870006e82d39b564736f6c63430008020033",
  "immutableReferences": {
    "1322": [
      {
        "length": 32,
        "start": 3682
      }
    ],
    "1968": [
      {
        "length": 32,
        "start": 5530
      }
    ],
    "1970": [
      {
        "length": 32,
        "start": 5490
      }
    ],
    "1972": [
      {
        "length": 32,
        "start": 5606
      }
    ],
    "1974": [
      {
        "length": 32,
        "start": 5639
      }
    ],
    "1976": [
      {
        "length": 32,
        "start": 5573
      }
    ]
  },
  "source": "// SPDX-License-Identifier: MIT\n\npragma solidity ^0.8.0;\n\nimport \"@openzeppelin/contracts/token/ERC20/extensions/ERC20Votes.sol\";\n\ncontract ERC20VotesMock is ERC20Votes {\n    constructor(string memory name, string memory symbol) ERC20(name, symbol) ERC20Permit(name) {}\n\n    function mint(address account, uint256 amount) public {\n        _mint(account, amount);\n    }\n\n    function burn(address account, uint256 amount) public {\n        _burn(account, amount);\n    }\n\n    function getChainId() external view returns (uint256) {\n        return block.chainid;\n    }\n}",
  "sourcePath": "/home/fccoelho/Mega/Cursos/Blockchain_EMAp/Dpublish/contracts/ERC20VotesMock.sol",
  "compiler": {
    "name": "solc",
    "version": "0.8.2+commit.661d1103.Emscripten.clang"
  },
  "schemaVersion": "3.4.3",
  "updatedAt": "2021-10-29T13:19:06.730Z",
  "devdoc": {
    "kind": "dev",
    "methods": {
      "DOMAIN_SEPARATOR()": {
        "details": "See {IERC20Permit-DOMAIN_SEPARATOR}."
      },
      "allowance(address,address)": {
        "details": "See {IERC20-allowance}."
      },
      "approve(address,uint256)": {
        "details": "See {IERC20-approve}. Requirements: - `spender` cannot be the zero address."
      },
      "balanceOf(address)": {
        "details": "See {IERC20-balanceOf}."
      },
      "checkpoints(address,uint32)": {
        "details": "Get the `pos`-th checkpoint for `account`."
      },
      "decimals()": {
        "details": "Returns the number of decimals used to get its user representation. For example, if `decimals` equals `2`, a balance of `505` tokens should be displayed to a user as `5.05` (`505 / 10 ** 2`). Tokens usually opt for a value of 18, imitating the relationship between Ether and Wei. This is the value {ERC20} uses, unless this function is overridden; NOTE: This information is only used for _display_ purposes: it in no way affects any of the arithmetic of the contract, including {IERC20-balanceOf} and {IERC20-transfer}."
      },
      "decreaseAllowance(address,uint256)": {
        "details": "Atomically decreases the allowance granted to `spender` by the caller. This is an alternative to {approve} that can be used as a mitigation for problems described in {IERC20-approve}. Emits an {Approval} event indicating the updated allowance. Requirements: - `spender` cannot be the zero address. - `spender` must have allowance for the caller of at least `subtractedValue`."
      },
      "delegate(address)": {
        "details": "Delegate votes from the sender to `delegatee`."
      },
      "delegateBySig(address,uint256,uint256,uint8,bytes32,bytes32)": {
        "details": "Delegates votes from signer to `delegatee`"
      },
      "delegates(address)": {
        "details": "Get the address `account` is currently delegating to."
      },
      "getPastTotalSupply(uint256)": {
        "details": "Retrieve the `totalSupply` at the end of `blockNumber`. Note, this value is the sum of all balances. It is but NOT the sum of all the delegated votes! Requirements: - `blockNumber` must have been already mined"
      },
      "getPastVotes(address,uint256)": {
        "details": "Retrieve the number of votes for `account` at the end of `blockNumber`. Requirements: - `blockNumber` must have been already mined"
      },
      "getVotes(address)": {
        "details": "Gets the current votes balance for `account`"
      },
      "increaseAllowance(address,uint256)": {
        "details": "Atomically increases the allowance granted to `spender` by the caller. This is an alternative to {approve} that can be used as a mitigation for problems described in {IERC20-approve}. Emits an {Approval} event indicating the updated allowance. Requirements: - `spender` cannot be the zero address."
      },
      "name()": {
        "details": "Returns the name of the token."
      },
      "nonces(address)": {
        "details": "See {IERC20Permit-nonces}."
      },
      "numCheckpoints(address)": {
        "details": "Get number of checkpoints for `account`."
      },
      "permit(address,address,uint256,uint256,uint8,bytes32,bytes32)": {
        "details": "See {IERC20Permit-permit}."
      },
      "symbol()": {
        "details": "Returns the symbol of the token, usually a shorter version of the name."
      },
      "totalSupply()": {
        "details": "See {IERC20-totalSupply}."
      },
      "transfer(address,uint256)": {
        "details": "See {IERC20-transfer}. Requirements: - `recipient` cannot be the zero address. - the caller must have a balance of at least `amount`."
      },
      "transferFrom(address,address,uint256)": {
        "details": "See {IERC20-transferFrom}. Emits an {Approval} event indicating the updated allowance. This is not required by the EIP. See the note at the beginning of {ERC20}. Requirements: - `sender` and `recipient` cannot be the zero address. - `sender` must have a balance of at least `amount`. - the caller must have allowance for ``sender``'s tokens of at least `amount`."
      }
    },
    "version": 1
  },
  "userdoc": {
    "kind": "user",
    "methods": {},
    "version": 1
  }
}