{
  "contractName": "PaperToken",
  "abi": [
    {
      "inputs": [],
      "stateMutability": "nonpayable",
      "type": "constructor"
    },
    {
      "anonymous": false,
      "inputs": [
        {
          "indexed": true,
          "internalType": "address",
          "name": "owner",
          "type": "address"
        },
        {
          "indexed": true,
          "internalType": "address",
          "name": "approved",
          "type": "address"
        },
        {
          "indexed": true,
          "internalType": "uint256",
          "name": "tokenId",
          "type": "uint256"
        }
      ],
      "name": "Approval",
      "type": "event"
    },
    {
      "anonymous": false,
      "inputs": [
        {
          "indexed": true,
          "internalType": "address",
          "name": "owner",
          "type": "address"
        },
        {
          "indexed": true,
          "internalType": "address",
          "name": "operator",
          "type": "address"
        },
        {
          "indexed": false,
          "internalType": "bool",
          "name": "approved",
          "type": "bool"
        }
      ],
      "name": "ApprovalForAll",
      "type": "event"
    },
    {
      "anonymous": false,
      "inputs": [
        {
          "indexed": true,
          "internalType": "address",
          "name": "previousOwner",
          "type": "address"
        },
        {
          "indexed": true,
          "internalType": "address",
          "name": "newOwner",
          "type": "address"
        }
      ],
      "name": "OwnershipTransferred",
      "type": "event"
    },
    {
      "anonymous": false,
      "inputs": [
        {
          "indexed": true,
          "internalType": "address",
          "name": "from",
          "type": "address"
        },
        {
          "indexed": true,
          "internalType": "address",
          "name": "to",
          "type": "address"
        },
        {
          "indexed": true,
          "internalType": "uint256",
          "name": "tokenId",
          "type": "uint256"
        }
      ],
      "name": "Transfer",
      "type": "event"
    },
    {
      "inputs": [
        {
          "internalType": "address",
          "name": "to",
          "type": "address"
        },
        {
          "internalType": "uint256",
          "name": "tokenId",
          "type": "uint256"
        }
      ],
      "name": "approve",
      "outputs": [],
      "stateMutability": "nonpayable",
      "type": "function"
    },
    {
      "inputs": [
        {
          "internalType": "address",
          "name": "owner",
          "type": "address"
        }
      ],
      "name": "balanceOf",
      "outputs": [
        {
          "internalType": "uint256",
          "name": "",
          "type": "uint256"
        }
      ],
      "stateMutability": "view",
      "type": "function"
    },
    {
      "inputs": [
        {
          "internalType": "uint256",
          "name": "tokenId",
          "type": "uint256"
        }
      ],
      "name": "getApproved",
      "outputs": [
        {
          "internalType": "address",
          "name": "",
          "type": "address"
        }
      ],
      "stateMutability": "view",
      "type": "function"
    },
    {
      "inputs": [
        {
          "internalType": "address",
          "name": "owner",
          "type": "address"
        },
        {
          "internalType": "address",
          "name": "operator",
          "type": "address"
        }
      ],
      "name": "isApprovedForAll",
      "outputs": [
        {
          "internalType": "bool",
          "name": "",
          "type": "bool"
        }
      ],
      "stateMutability": "view",
      "type": "function"
    },
    {
      "inputs": [],
      "name": "name",
      "outputs": [
        {
          "internalType": "string",
          "name": "",
          "type": "string"
        }
      ],
      "stateMutability": "view",
      "type": "function"
    },
    {
      "inputs": [],
      "name": "owner",
      "outputs": [
        {
          "internalType": "address",
          "name": "",
          "type": "address"
        }
      ],
      "stateMutability": "view",
      "type": "function"
    },
    {
      "inputs": [
        {
          "internalType": "uint256",
          "name": "tokenId",
          "type": "uint256"
        }
      ],
      "name": "ownerOf",
      "outputs": [
        {
          "internalType": "address",
          "name": "",
          "type": "address"
        }
      ],
      "stateMutability": "view",
      "type": "function"
    },
    {
      "inputs": [],
      "name": "renounceOwnership",
      "outputs": [],
      "stateMutability": "nonpayable",
      "type": "function"
    },
    {
      "inputs": [
        {
          "internalType": "address",
          "name": "from",
          "type": "address"
        },
        {
          "internalType": "address",
          "name": "to",
          "type": "address"
        },
        {
          "internalType": "uint256",
          "name": "tokenId",
          "type": "uint256"
        }
      ],
      "name": "safeTransferFrom",
      "outputs": [],
      "stateMutability": "nonpayable",
      "type": "function"
    },
    {
      "inputs": [
        {
          "internalType": "address",
          "name": "from",
          "type": "address"
        },
        {
          "internalType": "address",
          "name": "to",
          "type": "address"
        },
        {
          "internalType": "uint256",
          "name": "tokenId",
          "type": "uint256"
        },
        {
          "internalType": "bytes",
          "name": "_data",
          "type": "bytes"
        }
      ],
      "name": "safeTransferFrom",
      "outputs": [],
      "stateMutability": "nonpayable",
      "type": "function"
    },
    {
      "inputs": [
        {
          "internalType": "address",
          "name": "operator",
          "type": "address"
        },
        {
          "internalType": "bool",
          "name": "approved",
          "type": "bool"
        }
      ],
      "name": "setApprovalForAll",
      "outputs": [],
      "stateMutability": "nonpayable",
      "type": "function"
    },
    {
      "inputs": [
        {
          "internalType": "bytes4",
          "name": "interfaceId",
          "type": "bytes4"
        }
      ],
      "name": "supportsInterface",
      "outputs": [
        {
          "internalType": "bool",
          "name": "",
          "type": "bool"
        }
      ],
      "stateMutability": "view",
      "type": "function"
    },
    {
      "inputs": [],
      "name": "symbol",
      "outputs": [
        {
          "internalType": "string",
          "name": "",
          "type": "string"
        }
      ],
      "stateMutability": "view",
      "type": "function"
    },
    {
      "inputs": [
        {
          "internalType": "address",
          "name": "from",
          "type": "address"
        },
        {
          "internalType": "address",
          "name": "to",
          "type": "address"
        },
        {
          "internalType": "uint256",
          "name": "tokenId",
          "type": "uint256"
        }
      ],
      "name": "transferFrom",
      "outputs": [],
      "stateMutability": "nonpayable",
      "type": "function"
    },
    {
      "inputs": [
        {
          "internalType": "address",
          "name": "newOwner",
          "type": "address"
        }
      ],
      "name": "transferOwnership",
      "outputs": [],
      "stateMutability": "nonpayable",
      "type": "function"
    },
    {
      "inputs": [],
      "name": "newID",
      "outputs": [
        {
          "internalType": "uint256",
          "name": "",
          "type": "uint256"
        }
      ],
      "stateMutability": "nonpayable",
      "type": "function"
    },
    {
      "inputs": [
        {
          "internalType": "address",
          "name": "to",
          "type": "address"
        },
        {
          "internalType": "uint256",
          "name": "tokenId",
          "type": "uint256"
        }
      ],
      "name": "safeMint",
      "outputs": [],
      "stateMutability": "nonpayable",
      "type": "function"
    },
    {
      "inputs": [
        {
          "internalType": "uint256",
          "name": "tokenId",
          "type": "uint256"
        }
      ],
      "name": "tokenURI",
      "outputs": [
        {
          "internalType": "string",
          "name": "",
          "type": "string"
        }
      ],
      "stateMutability": "view",
      "type": "function"
    }
  ],
  "bytecode": "0x60806040523480156200001157600080fd5b506040518060400160405280600a81526020017f5061706572546f6b656e000000000000000000000000000000000000000000008152506040518060400160405280600381526020017f50544b0000000000000000000000000000000000000000000000000000000000815250816000908051906020019062000096929190620001ae565b508060019080519060200190620000af929190620001ae565b505050620000d2620000c6620000e060201b60201c565b620000e860201b60201c565b6001600881905550620002c3565b600033905090565b6000600760009054906101000a900473ffffffffffffffffffffffffffffffffffffffff16905081600760006101000a81548173ffffffffffffffffffffffffffffffffffffffff021916908373ffffffffffffffffffffffffffffffffffffffff1602179055508173ffffffffffffffffffffffffffffffffffffffff168173ffffffffffffffffffffffffffffffffffffffff167f8be0079c531659141344cd1fd0a4f28419497f9722a3daafe3b4186f6b6457e060405160405180910390a35050565b828054620001bc906200025e565b90600052602060002090601f016020900481019282620001e057600085556200022c565b82601f10620001fb57805160ff19168380011785556200022c565b828001600101855582156200022c579182015b828111156200022b5782518255916020019190600101906200020e565b5b5090506200023b91906200023f565b5090565b5b808211156200025a57600081600090555060010162000240565b5090565b600060028204905060018216806200027757607f821691505b602082108114156200028e576200028d62000294565b5b50919050565b7f4e487b7100000000000000000000000000000000000000000000000000000000600052602260045260246000fd5b612dbc80620002d36000396000f3fe608060405234801561001057600080fd5b50600436106101165760003560e01c80638da5cb5b116100a2578063a22cb46511610071578063a22cb465146102cd578063b88d4fde146102e9578063c87b56dd14610305578063e985e9c514610335578063f2fde38b1461036557610116565b80638da5cb5b1461025757806395d89b41146102755780639f7a9f3814610293578063a1448194146102b157610116565b806323b872dd116100e957806323b872dd146101b557806342842e0e146101d15780636352211e146101ed57806370a082311461021d578063715018a61461024d57610116565b806301ffc9a71461011b57806306fdde031461014b578063081812fc14610169578063095ea7b314610199575b600080fd5b61013560048036038101906101309190611e2e565b610381565b6040516101429190612257565b60405180910390f35b610153610463565b6040516101609190612272565b60405180910390f35b610183600480360381019061017e9190611e80565b6104f5565b60405161019091906121f0565b60405180910390f35b6101b360048036038101906101ae9190611df2565b61057a565b005b6101cf60048036038101906101ca9190611cec565b610692565b005b6101eb60048036038101906101e69190611cec565b6106f2565b005b61020760048036038101906102029190611e80565b610712565b60405161021491906121f0565b60405180910390f35b61023760048036038101906102329190611c87565b6107c4565b60405161024491906124b4565b60405180910390f35b61025561087c565b005b61025f610904565b60405161026c91906121f0565b60405180910390f35b61027d61092e565b60405161028a9190612272565b60405180910390f35b61029b6109c0565b6040516102a891906124b4565b60405180910390f35b6102cb60048036038101906102c69190611df2565b6109df565b005b6102e760048036038101906102e29190611db6565b610a69565b005b61030360048036038101906102fe9190611d3b565b610bea565b005b61031f600480360381019061031a9190611e80565b610c4c565b60405161032c9190612272565b60405180910390f35b61034f600480360381019061034a9190611cb0565b610c5e565b60405161035c9190612257565b60405180910390f35b61037f600480360381019061037a9190611c87565b610cf2565b005b60007f80ac58cd000000000000000000000000000000000000000000000000000000007bffffffffffffffffffffffffffffffffffffffffffffffffffffffff1916827bffffffffffffffffffffffffffffffffffffffffffffffffffffffff1916148061044c57507f5b5e139f000000000000000000000000000000000000000000000000000000007bffffffffffffffffffffffffffffffffffffffffffffffffffffffff1916827bffffffffffffffffffffffffffffffffffffffffffffffffffffffff1916145b8061045c575061045b82610dea565b5b9050919050565b606060008054610472906126d9565b80601f016020809104026020016040519081016040528092919081815260200182805461049e906126d9565b80156104eb5780601f106104c0576101008083540402835291602001916104eb565b820191906000526020600020905b8154815290600101906020018083116104ce57829003601f168201915b5050505050905090565b600061050082610e54565b61053f576040517f08c379a0000000000000000000000000000000000000000000000000000000008152600401610536906123f4565b60405180910390fd5b6004600083815260200190815260200160002060009054906101000a900473ffffffffffffffffffffffffffffffffffffffff169050919050565b600061058582610712565b90508073ffffffffffffffffffffffffffffffffffffffff168373ffffffffffffffffffffffffffffffffffffffff1614156105f6576040517f08c379a00000000000000000000000000000000000000000000000000000000081526004016105ed90612474565b60405180910390fd5b8073ffffffffffffffffffffffffffffffffffffffff16610615610ec0565b73ffffffffffffffffffffffffffffffffffffffff16148061064457506106438161063e610ec0565b610c5e565b5b610683576040517f08c379a000000000000000000000000000000000000000000000000000000000815260040161067a90612354565b60405180910390fd5b61068d8383610ec8565b505050565b6106a361069d610ec0565b82610f81565b6106e2576040517f08c379a00000000000000000000000000000000000000000000000000000000081526004016106d990612494565b60405180910390fd5b6106ed83838361105f565b505050565b61070d83838360405180602001604052806000815250610bea565b505050565b6000806002600084815260200190815260200160002060009054906101000a900473ffffffffffffffffffffffffffffffffffffffff169050600073ffffffffffffffffffffffffffffffffffffffff168173ffffffffffffffffffffffffffffffffffffffff1614156107bb576040517f08c379a00000000000000000000000000000000000000000000000000000000081526004016107b290612394565b60405180910390fd5b80915050919050565b60008073ffffffffffffffffffffffffffffffffffffffff168273ffffffffffffffffffffffffffffffffffffffff161415610835576040517f08c379a000000000000000000000000000000000000000000000000000000000815260040161082c90612374565b60405180910390fd5b600360008373ffffffffffffffffffffffffffffffffffffffff1673ffffffffffffffffffffffffffffffffffffffff168152602001908152602001600020549050919050565b610884610ec0565b73ffffffffffffffffffffffffffffffffffffffff166108a2610904565b73ffffffffffffffffffffffffffffffffffffffff16146108f8576040517f08c379a00000000000000000000000000000000000000000000000000000000081526004016108ef90612414565b60405180910390fd5b61090260006112bb565b565b6000600760009054906101000a900473ffffffffffffffffffffffffffffffffffffffff16905090565b60606001805461093d906126d9565b80601f0160208091040260200160405190810160405280929190818152602001828054610969906126d9565b80156109b65780601f1061098b576101008083540402835291602001916109b6565b820191906000526020600020905b81548152906001019060200180831161099957829003601f168201915b5050505050905090565b600060016008546109d19190612568565b600881905550600854905090565b6109e7610ec0565b73ffffffffffffffffffffffffffffffffffffffff16610a05610904565b73ffffffffffffffffffffffffffffffffffffffff1614610a5b576040517f08c379a0000000000000000000000000000000000000000000000000000000008152600401610a5290612414565b60405180910390fd5b610a658282611381565b5050565b610a71610ec0565b73ffffffffffffffffffffffffffffffffffffffff168273ffffffffffffffffffffffffffffffffffffffff161415610adf576040517f08c379a0000000000000000000000000000000000000000000000000000000008152600401610ad690612314565b60405180910390fd5b8060056000610aec610ec0565b73ffffffffffffffffffffffffffffffffffffffff1673ffffffffffffffffffffffffffffffffffffffff16815260200190815260200160002060008473ffffffffffffffffffffffffffffffffffffffff1673ffffffffffffffffffffffffffffffffffffffff16815260200190815260200160002060006101000a81548160ff0219169083151502179055508173ffffffffffffffffffffffffffffffffffffffff16610b99610ec0565b73ffffffffffffffffffffffffffffffffffffffff167f17307eab39ab6107e8899845ad3d59bd9653f200f220920489ca2b5937696c3183604051610bde9190612257565b60405180910390a35050565b610bfb610bf5610ec0565b83610f81565b610c3a576040517f08c379a0000000000000000000000000000000000000000000000000000000008152600401610c3190612494565b60405180910390fd5b610c468484848461139f565b50505050565b6060610c57826113fb565b9050919050565b6000600560008473ffffffffffffffffffffffffffffffffffffffff1673ffffffffffffffffffffffffffffffffffffffff16815260200190815260200160002060008373ffffffffffffffffffffffffffffffffffffffff1673ffffffffffffffffffffffffffffffffffffffff16815260200190815260200160002060009054906101000a900460ff16905092915050565b610cfa610ec0565b73ffffffffffffffffffffffffffffffffffffffff16610d18610904565b73ffffffffffffffffffffffffffffffffffffffff1614610d6e576040517f08c379a0000000000000000000000000000000000000000000000000000000008152600401610d6590612414565b60405180910390fd5b600073ffffffffffffffffffffffffffffffffffffffff168173ffffffffffffffffffffffffffffffffffffffff161415610dde576040517f08c379a0000000000000000000000000000000000000000000000000000000008152600401610dd5906122b4565b60405180910390fd5b610de7816112bb565b50565b60007f01ffc9a7000000000000000000000000000000000000000000000000000000007bffffffffffffffffffffffffffffffffffffffffffffffffffffffff1916827bffffffffffffffffffffffffffffffffffffffffffffffffffffffff1916149050919050565b60008073ffffffffffffffffffffffffffffffffffffffff166002600084815260200190815260200160002060009054906101000a900473ffffffffffffffffffffffffffffffffffffffff1673ffffffffffffffffffffffffffffffffffffffff1614159050919050565b600033905090565b816004600083815260200190815260200160002060006101000a81548173ffffffffffffffffffffffffffffffffffffffff021916908373ffffffffffffffffffffffffffffffffffffffff160217905550808273ffffffffffffffffffffffffffffffffffffffff16610f3b83610712565b73ffffffffffffffffffffffffffffffffffffffff167f8c5be1e5ebec7d5bd14f71427d1e84f3dd0314c0f7b2291e5b200ac8c7c3b92560405160405180910390a45050565b6000610f8c82610e54565b610fcb576040517f08c379a0000000000000000000000000000000000000000000000000000000008152600401610fc290612334565b60405180910390fd5b6000610fd683610712565b90508073ffffffffffffffffffffffffffffffffffffffff168473ffffffffffffffffffffffffffffffffffffffff16148061104557508373ffffffffffffffffffffffffffffffffffffffff1661102d846104f5565b73ffffffffffffffffffffffffffffffffffffffff16145b8061105657506110558185610c5e565b5b91505092915050565b8273ffffffffffffffffffffffffffffffffffffffff1661107f82610712565b73ffffffffffffffffffffffffffffffffffffffff16146110d5576040517f08c379a00000000000000000000000000000000000000000000000000000000081526004016110cc90612434565b60405180910390fd5b600073ffffffffffffffffffffffffffffffffffffffff168273ffffffffffffffffffffffffffffffffffffffff161415611145576040517f08c379a000000000000000000000000000000000000000000000000000000000815260040161113c906122f4565b60405180910390fd5b61115083838361154d565b61115b600082610ec8565b6001600360008573ffffffffffffffffffffffffffffffffffffffff1673ffffffffffffffffffffffffffffffffffffffff16815260200190815260200160002060008282546111ab91906125ef565b925050819055506001600360008473ffffffffffffffffffffffffffffffffffffffff1673ffffffffffffffffffffffffffffffffffffffff16815260200190815260200160002060008282546112029190612568565b92505081905550816002600083815260200190815260200160002060006101000a81548173ffffffffffffffffffffffffffffffffffffffff021916908373ffffffffffffffffffffffffffffffffffffffff160217905550808273ffffffffffffffffffffffffffffffffffffffff168473ffffffffffffffffffffffffffffffffffffffff167fddf252ad1be2c89b69c2b068fc378daa952ba7f163c4a11628f55a4df523b3ef60405160405180910390a4505050565b6000600760009054906101000a900473ffffffffffffffffffffffffffffffffffffffff16905081600760006101000a81548173ffffffffffffffffffffffffffffffffffffffff021916908373ffffffffffffffffffffffffffffffffffffffff1602179055508173ffffffffffffffffffffffffffffffffffffffff168173ffffffffffffffffffffffffffffffffffffffff167f8be0079c531659141344cd1fd0a4f28419497f9722a3daafe3b4186f6b6457e060405160405180910390a35050565b61139b828260405180602001604052806000815250611552565b5050565b6113aa84848461105f565b6113b6848484846115ad565b6113f5576040517f08c379a00000000000000000000000000000000000000000000000000000000081526004016113ec90612294565b60405180910390fd5b50505050565b606061140682610e54565b611445576040517f08c379a000000000000000000000000000000000000000000000000000000000815260040161143c906123d4565b60405180910390fd5b6000600660008481526020019081526020016000208054611465906126d9565b80601f0160208091040260200160405190810160405280929190818152602001828054611491906126d9565b80156114de5780601f106114b3576101008083540402835291602001916114de565b820191906000526020600020905b8154815290600101906020018083116114c157829003601f168201915b5050505050905060006114ef611744565b9050600081511415611505578192505050611548565b60008251111561153a5780826040516020016115229291906121cc565b60405160208183030381529060405292505050611548565b61154384611781565b925050505b919050565b505050565b61155c8383611828565b61156960008484846115ad565b6115a8576040517f08c379a000000000000000000000000000000000000000000000000000000000815260040161159f90612294565b60405180910390fd5b505050565b60006115ce8473ffffffffffffffffffffffffffffffffffffffff166119f6565b15611737578373ffffffffffffffffffffffffffffffffffffffff1663150b7a026115f7610ec0565b8786866040518563ffffffff1660e01b8152600401611619949392919061220b565b602060405180830381600087803b15801561163357600080fd5b505af192505050801561166457506040513d601f19601f820116820180604052508101906116619190611e57565b60015b6116e7573d8060008114611694576040519150601f19603f3d011682016040523d82523d6000602084013e611699565b606091505b506000815114156116df576040517f08c379a00000000000000000000000000000000000000000000000000000000081526004016116d690612294565b60405180910390fd5b805181602001fd5b63150b7a0260e01b7bffffffffffffffffffffffffffffffffffffffffffffffffffffffff1916817bffffffffffffffffffffffffffffffffffffffffffffffffffffffff19161491505061173c565b600190505b949350505050565b60606040518060400160405280601481526020017f68747470733a2f2f647075626c6973682e6f7267000000000000000000000000815250905090565b606061178c82610e54565b6117cb576040517f08c379a00000000000000000000000000000000000000000000000000000000081526004016117c290612454565b60405180910390fd5b60006117d5611744565b905060008151116117f55760405180602001604052806000815250611820565b806117ff84611a09565b6040516020016118109291906121cc565b6040516020818303038152906040525b915050919050565b600073ffffffffffffffffffffffffffffffffffffffff168273ffffffffffffffffffffffffffffffffffffffff161415611898576040517f08c379a000000000000000000000000000000000000000000000000000000000815260040161188f906123b4565b60405180910390fd5b6118a181610e54565b156118e1576040517f08c379a00000000000000000000000000000000000000000000000000000000081526004016118d8906122d4565b60405180910390fd5b6118ed6000838361154d565b6001600360008473ffffffffffffffffffffffffffffffffffffffff1673ffffffffffffffffffffffffffffffffffffffff168152602001908152602001600020600082825461193d9190612568565b92505081905550816002600083815260200190815260200160002060006101000a81548173ffffffffffffffffffffffffffffffffffffffff021916908373ffffffffffffffffffffffffffffffffffffffff160217905550808273ffffffffffffffffffffffffffffffffffffffff16600073ffffffffffffffffffffffffffffffffffffffff167fddf252ad1be2c89b69c2b068fc378daa952ba7f163c4a11628f55a4df523b3ef60405160405180910390a45050565b600080823b905060008111915050919050565b60606000821415611a51576040518060400160405280600181526020017f30000000000000000000000000000000000000000000000000000000000000008152509050611bb1565b600082905060005b60008214611a83578080611a6c9061273c565b915050600a82611a7c91906125be565b9150611a59565b60008167ffffffffffffffff811115611ac5577f4e487b7100000000000000000000000000000000000000000000000000000000600052604160045260246000fd5b6040519080825280601f01601f191660200182016040528015611af75781602001600182028036833780820191505090505b5090505b60008514611baa57600182611b1091906125ef565b9150600a85611b1f9190612785565b6030611b2b9190612568565b60f81b818381518110611b67577f4e487b7100000000000000000000000000000000000000000000000000000000600052603260045260246000fd5b60200101907effffffffffffffffffffffffffffffffffffffffffffffffffffffffffffff1916908160001a905350600a85611ba391906125be565b9450611afb565b8093505050505b919050565b6000611bc9611bc4846124f4565b6124cf565b905082815260208101848484011115611be157600080fd5b611bec848285612697565b509392505050565b600081359050611c0381612d2a565b92915050565b600081359050611c1881612d41565b92915050565b600081359050611c2d81612d58565b92915050565b600081519050611c4281612d58565b92915050565b600082601f830112611c5957600080fd5b8135611c69848260208601611bb6565b91505092915050565b600081359050611c8181612d6f565b92915050565b600060208284031215611c9957600080fd5b6000611ca784828501611bf4565b91505092915050565b60008060408385031215611cc357600080fd5b6000611cd185828601611bf4565b9250506020611ce285828601611bf4565b9150509250929050565b600080600060608486031215611d0157600080fd5b6000611d0f86828701611bf4565b9350506020611d2086828701611bf4565b9250506040611d3186828701611c72565b9150509250925092565b60008060008060808587031215611d5157600080fd5b6000611d5f87828801611bf4565b9450506020611d7087828801611bf4565b9350506040611d8187828801611c72565b925050606085013567ffffffffffffffff811115611d9e57600080fd5b611daa87828801611c48565b91505092959194509250565b60008060408385031215611dc957600080fd5b6000611dd785828601611bf4565b9250506020611de885828601611c09565b9150509250929050565b60008060408385031215611e0557600080fd5b6000611e1385828601611bf4565b9250506020611e2485828601611c72565b9150509250929050565b600060208284031215611e4057600080fd5b6000611e4e84828501611c1e565b91505092915050565b600060208284031215611e6957600080fd5b6000611e7784828501611c33565b91505092915050565b600060208284031215611e9257600080fd5b6000611ea084828501611c72565b91505092915050565b611eb281612623565b82525050565b611ec181612635565b82525050565b6000611ed282612525565b611edc818561253b565b9350611eec8185602086016126a6565b611ef581612872565b840191505092915050565b6000611f0b82612530565b611f15818561254c565b9350611f258185602086016126a6565b611f2e81612872565b840191505092915050565b6000611f4482612530565b611f4e818561255d565b9350611f5e8185602086016126a6565b80840191505092915050565b6000611f7760328361254c565b9150611f8282612883565b604082019050919050565b6000611f9a60268361254c565b9150611fa5826128d2565b604082019050919050565b6000611fbd601c8361254c565b9150611fc882612921565b602082019050919050565b6000611fe060248361254c565b9150611feb8261294a565b604082019050919050565b600061200360198361254c565b915061200e82612999565b602082019050919050565b6000612026602c8361254c565b9150612031826129c2565b604082019050919050565b600061204960388361254c565b915061205482612a11565b604082019050919050565b600061206c602a8361254c565b915061207782612a60565b604082019050919050565b600061208f60298361254c565b915061209a82612aaf565b604082019050919050565b60006120b260208361254c565b91506120bd82612afe565b602082019050919050565b60006120d560318361254c565b91506120e082612b27565b604082019050919050565b60006120f8602c8361254c565b915061210382612b76565b604082019050919050565b600061211b60208361254c565b915061212682612bc5565b602082019050919050565b600061213e60298361254c565b915061214982612bee565b604082019050919050565b6000612161602f8361254c565b915061216c82612c3d565b604082019050919050565b600061218460218361254c565b915061218f82612c8c565b604082019050919050565b60006121a760318361254c565b91506121b282612cdb565b604082019050919050565b6121c68161268d565b82525050565b60006121d88285611f39565b91506121e48284611f39565b91508190509392505050565b60006020820190506122056000830184611ea9565b92915050565b60006080820190506122206000830187611ea9565b61222d6020830186611ea9565b61223a60408301856121bd565b818103606083015261224c8184611ec7565b905095945050505050565b600060208201905061226c6000830184611eb8565b92915050565b6000602082019050818103600083015261228c8184611f00565b905092915050565b600060208201905081810360008301526122ad81611f6a565b9050919050565b600060208201905081810360008301526122cd81611f8d565b9050919050565b600060208201905081810360008301526122ed81611fb0565b9050919050565b6000602082019050818103600083015261230d81611fd3565b9050919050565b6000602082019050818103600083015261232d81611ff6565b9050919050565b6000602082019050818103600083015261234d81612019565b9050919050565b6000602082019050818103600083015261236d8161203c565b9050919050565b6000602082019050818103600083015261238d8161205f565b9050919050565b600060208201905081810360008301526123ad81612082565b9050919050565b600060208201905081810360008301526123cd816120a5565b9050919050565b600060208201905081810360008301526123ed816120c8565b9050919050565b6000602082019050818103600083015261240d816120eb565b9050919050565b6000602082019050818103600083015261242d8161210e565b9050919050565b6000602082019050818103600083015261244d81612131565b9050919050565b6000602082019050818103600083015261246d81612154565b9050919050565b6000602082019050818103600083015261248d81612177565b9050919050565b600060208201905081810360008301526124ad8161219a565b9050919050565b60006020820190506124c960008301846121bd565b92915050565b60006124d96124ea565b90506124e5828261270b565b919050565b6000604051905090565b600067ffffffffffffffff82111561250f5761250e612843565b5b61251882612872565b9050602081019050919050565b600081519050919050565b600081519050919050565b600082825260208201905092915050565b600082825260208201905092915050565b600081905092915050565b60006125738261268d565b915061257e8361268d565b9250827fffffffffffffffffffffffffffffffffffffffffffffffffffffffffffffffff038211156125b3576125b26127b6565b5b828201905092915050565b60006125c98261268d565b91506125d48361268d565b9250826125e4576125e36127e5565b5b828204905092915050565b60006125fa8261268d565b91506126058361268d565b925082821015612618576126176127b6565b5b828203905092915050565b600061262e8261266d565b9050919050565b60008115159050919050565b60007fffffffff0000000000000000000000000000000000000000000000000000000082169050919050565b600073ffffffffffffffffffffffffffffffffffffffff82169050919050565b6000819050919050565b82818337600083830152505050565b60005b838110156126c45780820151818401526020810190506126a9565b838111156126d3576000848401525b50505050565b600060028204905060018216806126f157607f821691505b6020821081141561270557612704612814565b5b50919050565b61271482612872565b810181811067ffffffffffffffff8211171561273357612732612843565b5b80604052505050565b60006127478261268d565b91507fffffffffffffffffffffffffffffffffffffffffffffffffffffffffffffffff82141561277a576127796127b6565b5b600182019050919050565b60006127908261268d565b915061279b8361268d565b9250826127ab576127aa6127e5565b5b828206905092915050565b7f4e487b7100000000000000000000000000000000000000000000000000000000600052601160045260246000fd5b7f4e487b7100000000000000000000000000000000000000000000000000000000600052601260045260246000fd5b7f4e487b7100000000000000000000000000000000000000000000000000000000600052602260045260246000fd5b7f4e487b7100000000000000000000000000000000000000000000000000000000600052604160045260246000fd5b6000601f19601f8301169050919050565b7f4552433732313a207472616e7366657220746f206e6f6e20455243373231526560008201527f63656976657220696d706c656d656e7465720000000000000000000000000000602082015250565b7f4f776e61626c653a206e6577206f776e657220697320746865207a65726f206160008201527f6464726573730000000000000000000000000000000000000000000000000000602082015250565b7f4552433732313a20746f6b656e20616c7265616479206d696e74656400000000600082015250565b7f4552433732313a207472616e7366657220746f20746865207a65726f2061646460008201527f7265737300000000000000000000000000000000000000000000000000000000602082015250565b7f4552433732313a20617070726f766520746f2063616c6c657200000000000000600082015250565b7f4552433732313a206f70657261746f7220717565727920666f72206e6f6e657860008201527f697374656e7420746f6b656e0000000000000000000000000000000000000000602082015250565b7f4552433732313a20617070726f76652063616c6c6572206973206e6f74206f7760008201527f6e6572206e6f7220617070726f76656420666f7220616c6c0000000000000000602082015250565b7f4552433732313a2062616c616e636520717565727920666f7220746865207a6560008201527f726f206164647265737300000000000000000000000000000000000000000000602082015250565b7f4552433732313a206f776e657220717565727920666f72206e6f6e657869737460008201527f656e7420746f6b656e0000000000000000000000000000000000000000000000602082015250565b7f4552433732313a206d696e7420746f20746865207a65726f2061646472657373600082015250565b7f45524337323155524953746f726167653a2055524920717565727920666f722060008201527f6e6f6e6578697374656e7420746f6b656e000000000000000000000000000000602082015250565b7f4552433732313a20617070726f76656420717565727920666f72206e6f6e657860008201527f697374656e7420746f6b656e0000000000000000000000000000000000000000602082015250565b7f4f776e61626c653a2063616c6c6572206973206e6f7420746865206f776e6572600082015250565b7f4552433732313a207472616e73666572206f6620746f6b656e2074686174206960008201527f73206e6f74206f776e0000000000000000000000000000000000000000000000602082015250565b7f4552433732314d657461646174613a2055524920717565727920666f72206e6f60008201527f6e6578697374656e7420746f6b656e0000000000000000000000000000000000602082015250565b7f4552433732313a20617070726f76616c20746f2063757272656e74206f776e6560008201527f7200000000000000000000000000000000000000000000000000000000000000602082015250565b7f4552433732313a207472616e736665722063616c6c6572206973206e6f74206f60008201527f776e6572206e6f7220617070726f766564000000000000000000000000000000602082015250565b612d3381612623565b8114612d3e57600080fd5b50565b612d4a81612635565b8114612d5557600080fd5b50565b612d6181612641565b8114612d6c57600080fd5b50565b612d788161268d565b8114612d8357600080fd5b5056fea2646970667358221220ff16687365562924f0946e6dcb951ff251b8e430d32cb15334c790a6772813ac64736f6c63430008020033",
  "immutableReferences": {},
  "source": "// SPDX-License-Identifier: MIT\r\npragma solidity ^0.8.2;\r\n\r\nimport \"@openzeppelin/contracts/token/ERC721/ERC721.sol\";\r\nimport \"@openzeppelin/contracts/token/ERC721/extensions/ERC721URIStorage.sol\";\r\nimport \"@openzeppelin/contracts/access/Ownable.sol\";\r\n\r\ncontract PaperToken is ERC721, ERC721URIStorage, Ownable {\r\n\r\n    uint256 private tokenID;\r\n\r\n    function newID() public returns(uint256){\r\n        tokenID = tokenID + 1;\r\n        return tokenID;\r\n    }\r\n\r\n    constructor() ERC721(\"PaperToken\", \"PTK\") {\r\n        tokenID =1;\r\n    }\r\n\r\n    function _baseURI() internal pure override returns (string memory) {\r\n        return \"https://dpublish.org\";\r\n    }\r\n\r\n    function safeMint(address to, uint256 tokenId) public onlyOwner {\r\n        _safeMint(to, tokenId);\r\n    }\r\n\r\n    // The following functions are overrides required by Solidity.\r\n\r\n    function _burn(uint256 tokenId) internal override(ERC721, ERC721URIStorage) {\r\n        super._burn(tokenId);\r\n    }\r\n\r\n    function tokenURI(uint256 tokenId)\r\n        public\r\n        view\r\n        override(ERC721, ERC721URIStorage)\r\n        returns (string memory)\r\n    {\r\n        return super.tokenURI(tokenId);\r\n    }\r\n}",
  "sourcePath": "/mnt/c/Users/emanu/Documents/GitHub/Dpublish/contracts/PaperToken.sol",
  "compiler": {
    "name": "solc",
    "version": "0.8.2+commit.661d1103.Emscripten.clang"
  },
  "schemaVersion": "3.4.3",
  "updatedAt": "2021-11-30T20:58:19.715Z",
  "devdoc": {
    "kind": "dev",
    "methods": {
      "approve(address,uint256)": {
        "details": "See {IERC721-approve}."
      },
      "balanceOf(address)": {
        "details": "See {IERC721-balanceOf}."
      },
      "getApproved(uint256)": {
        "details": "See {IERC721-getApproved}."
      },
      "isApprovedForAll(address,address)": {
        "details": "See {IERC721-isApprovedForAll}."
      },
      "name()": {
        "details": "See {IERC721Metadata-name}."
      },
      "owner()": {
        "details": "Returns the address of the current owner."
      },
      "ownerOf(uint256)": {
        "details": "See {IERC721-ownerOf}."
      },
      "renounceOwnership()": {
        "details": "Leaves the contract without owner. It will not be possible to call `onlyOwner` functions anymore. Can only be called by the current owner. NOTE: Renouncing ownership will leave the contract without an owner, thereby removing any functionality that is only available to the owner."
      },
      "safeTransferFrom(address,address,uint256)": {
        "details": "See {IERC721-safeTransferFrom}."
      },
      "safeTransferFrom(address,address,uint256,bytes)": {
        "details": "See {IERC721-safeTransferFrom}."
      },
      "setApprovalForAll(address,bool)": {
        "details": "See {IERC721-setApprovalForAll}."
      },
      "supportsInterface(bytes4)": {
        "details": "See {IERC165-supportsInterface}."
      },
      "symbol()": {
        "details": "See {IERC721Metadata-symbol}."
      },
      "transferFrom(address,address,uint256)": {
        "details": "See {IERC721-transferFrom}."
      },
      "transferOwnership(address)": {
        "details": "Transfers ownership of the contract to a new account (`newOwner`). Can only be called by the current owner."
      }
    },
    "version": 1
  },
  "userdoc": {
    "kind": "user",
    "methods": {},
    "version": 1
  }
}