{
  "contractName": "PaperToken",
  "abi": [
    {
      "inputs": [
        {
          "internalType": "contract IERC20",
          "name": "DPubTokenContractAddress",
          "type": "address"
        }
      ],
      "stateMutability": "nonpayable",
      "type": "constructor"
    },
    {
      "anonymous": false,
      "inputs": [
        {
          "indexed": true,
          "internalType": "address",
          "name": "owner",
          "type": "address"
        },
        {
          "indexed": true,
          "internalType": "address",
          "name": "approved",
          "type": "address"
        },
        {
          "indexed": true,
          "internalType": "uint256",
          "name": "tokenId",
          "type": "uint256"
        }
      ],
      "name": "Approval",
      "type": "event"
    },
    {
      "anonymous": false,
      "inputs": [
        {
          "indexed": true,
          "internalType": "address",
          "name": "owner",
          "type": "address"
        },
        {
          "indexed": true,
          "internalType": "address",
          "name": "operator",
          "type": "address"
        },
        {
          "indexed": false,
          "internalType": "bool",
          "name": "approved",
          "type": "bool"
        }
      ],
      "name": "ApprovalForAll",
      "type": "event"
    },
    {
      "anonymous": false,
      "inputs": [
        {
          "indexed": true,
          "internalType": "address",
          "name": "previousOwner",
          "type": "address"
        },
        {
          "indexed": true,
          "internalType": "address",
          "name": "newOwner",
          "type": "address"
        }
      ],
      "name": "OwnershipTransferred",
      "type": "event"
    },
    {
      "anonymous": false,
      "inputs": [
        {
          "indexed": true,
          "internalType": "address",
          "name": "from",
          "type": "address"
        },
        {
          "indexed": true,
          "internalType": "address",
          "name": "to",
          "type": "address"
        },
        {
          "indexed": true,
          "internalType": "uint256",
          "name": "tokenId",
          "type": "uint256"
        }
      ],
      "name": "Transfer",
      "type": "event"
    },
    {
      "inputs": [
        {
          "internalType": "address",
          "name": "to",
          "type": "address"
        },
        {
          "internalType": "uint256",
          "name": "tokenId",
          "type": "uint256"
        }
      ],
      "name": "approve",
      "outputs": [],
      "stateMutability": "nonpayable",
      "type": "function"
    },
    {
      "inputs": [
        {
          "internalType": "address",
          "name": "owner",
          "type": "address"
        }
      ],
      "name": "balanceOf",
      "outputs": [
        {
          "internalType": "uint256",
          "name": "",
          "type": "uint256"
        }
      ],
      "stateMutability": "view",
      "type": "function",
      "constant": true
    },
    {
      "inputs": [
        {
          "internalType": "uint256",
          "name": "tokenId",
          "type": "uint256"
        }
      ],
      "name": "getApproved",
      "outputs": [
        {
          "internalType": "address",
          "name": "",
          "type": "address"
        }
      ],
      "stateMutability": "view",
      "type": "function",
      "constant": true
    },
    {
      "inputs": [
        {
          "internalType": "address",
          "name": "owner",
          "type": "address"
        },
        {
          "internalType": "address",
          "name": "operator",
          "type": "address"
        }
      ],
      "name": "isApprovedForAll",
      "outputs": [
        {
          "internalType": "bool",
          "name": "",
          "type": "bool"
        }
      ],
      "stateMutability": "view",
      "type": "function",
      "constant": true
    },
    {
      "inputs": [],
      "name": "name",
      "outputs": [
        {
          "internalType": "string",
          "name": "",
          "type": "string"
        }
      ],
      "stateMutability": "view",
      "type": "function",
      "constant": true
    },
    {
      "inputs": [],
      "name": "owner",
      "outputs": [
        {
          "internalType": "address",
          "name": "",
          "type": "address"
        }
      ],
      "stateMutability": "view",
      "type": "function",
      "constant": true
    },
    {
      "inputs": [
        {
          "internalType": "uint256",
          "name": "tokenId",
          "type": "uint256"
        }
      ],
      "name": "ownerOf",
      "outputs": [
        {
          "internalType": "address",
          "name": "",
          "type": "address"
        }
      ],
      "stateMutability": "view",
      "type": "function",
      "constant": true
    },
    {
      "inputs": [],
      "name": "renounceOwnership",
      "outputs": [],
      "stateMutability": "nonpayable",
      "type": "function"
    },
    {
      "inputs": [
        {
          "internalType": "address",
          "name": "from",
          "type": "address"
        },
        {
          "internalType": "address",
          "name": "to",
          "type": "address"
        },
        {
          "internalType": "uint256",
          "name": "tokenId",
          "type": "uint256"
        }
      ],
      "name": "safeTransferFrom",
      "outputs": [],
      "stateMutability": "nonpayable",
      "type": "function"
    },
    {
      "inputs": [
        {
          "internalType": "address",
          "name": "from",
          "type": "address"
        },
        {
          "internalType": "address",
          "name": "to",
          "type": "address"
        },
        {
          "internalType": "uint256",
          "name": "tokenId",
          "type": "uint256"
        },
        {
          "internalType": "bytes",
          "name": "data",
          "type": "bytes"
        }
      ],
      "name": "safeTransferFrom",
      "outputs": [],
      "stateMutability": "nonpayable",
      "type": "function"
    },
    {
      "inputs": [
        {
          "internalType": "address",
          "name": "operator",
          "type": "address"
        },
        {
          "internalType": "bool",
          "name": "approved",
          "type": "bool"
        }
      ],
      "name": "setApprovalForAll",
      "outputs": [],
      "stateMutability": "nonpayable",
      "type": "function"
    },
    {
      "inputs": [
        {
          "internalType": "bytes4",
          "name": "interfaceId",
          "type": "bytes4"
        }
      ],
      "name": "supportsInterface",
      "outputs": [
        {
          "internalType": "bool",
          "name": "",
          "type": "bool"
        }
      ],
      "stateMutability": "view",
      "type": "function",
      "constant": true
    },
    {
      "inputs": [],
      "name": "symbol",
      "outputs": [
        {
          "internalType": "string",
          "name": "",
          "type": "string"
        }
      ],
      "stateMutability": "view",
      "type": "function",
      "constant": true
    },
    {
      "inputs": [
        {
          "internalType": "address",
          "name": "from",
          "type": "address"
        },
        {
          "internalType": "address",
          "name": "to",
          "type": "address"
        },
        {
          "internalType": "uint256",
          "name": "tokenId",
          "type": "uint256"
        }
      ],
      "name": "transferFrom",
      "outputs": [],
      "stateMutability": "nonpayable",
      "type": "function"
    },
    {
      "inputs": [
        {
          "internalType": "address",
          "name": "newOwner",
          "type": "address"
        }
      ],
      "name": "transferOwnership",
      "outputs": [],
      "stateMutability": "nonpayable",
      "type": "function"
    },
    {
      "inputs": [
        {
          "internalType": "string",
          "name": "_tokenURI",
          "type": "string"
        }
      ],
      "name": "safeMint",
      "outputs": [],
      "stateMutability": "nonpayable",
      "type": "function"
    },
    {
      "inputs": [
        {
          "internalType": "uint256",
          "name": "tokenId",
          "type": "uint256"
        }
      ],
      "name": "tokenURI",
      "outputs": [
        {
          "internalType": "string",
          "name": "",
          "type": "string"
        }
      ],
      "stateMutability": "view",
      "type": "function",
      "constant": true
    }
  ],
  "bytecode": "0x60806040526103e8600a553480156200001757600080fd5b50604051620034963803806200349683398181016040528101906200003d9190620002da565b6040518060400160405280600a81526020017f5061706572546f6b656e000000000000000000000000000000000000000000008152506040518060400160405280600381526020017f50544b00000000000000000000000000000000000000000000000000000000008152508160009080519060200190620000c192919062000213565b508060019080519060200190620000da92919062000213565b505050620000fd620000f16200014560201b60201c565b6200014d60201b60201c565b80600960006101000a81548173ffffffffffffffffffffffffffffffffffffffff021916908373ffffffffffffffffffffffffffffffffffffffff16021790555050620003cd565b600033905090565b6000600760009054906101000a900473ffffffffffffffffffffffffffffffffffffffff16905081600760006101000a81548173ffffffffffffffffffffffffffffffffffffffff021916908373ffffffffffffffffffffffffffffffffffffffff1602179055508173ffffffffffffffffffffffffffffffffffffffff168173ffffffffffffffffffffffffffffffffffffffff167f8be0079c531659141344cd1fd0a4f28419497f9722a3daafe3b4186f6b6457e060405160405180910390a35050565b82805462000221906200034e565b90600052602060002090601f01602090048101928262000245576000855562000291565b82601f106200026057805160ff191683800117855562000291565b8280016001018555821562000291579182015b828111156200029057825182559160200191906001019062000273565b5b509050620002a09190620002a4565b5090565b5b80821115620002bf576000816000905550600101620002a5565b5090565b600081519050620002d481620003b3565b92915050565b600060208284031215620002ed57600080fd5b6000620002fd84828501620002c3565b91505092915050565b600062000313826200032e565b9050919050565b6000620003278262000306565b9050919050565b600073ffffffffffffffffffffffffffffffffffffffff82169050919050565b600060028204905060018216806200036757607f821691505b602082108114156200037e576200037d62000384565b5b50919050565b7f4e487b7100000000000000000000000000000000000000000000000000000000600052602260045260246000fd5b620003be816200031a565b8114620003ca57600080fd5b50565b6130b980620003dd6000396000f3fe608060405234801561001057600080fd5b506004361061010b5760003560e01c806370a08231116100a2578063a22cb46511610071578063a22cb465146102a4578063b88d4fde146102c0578063c87b56dd146102dc578063e985e9c51461030c578063f2fde38b1461033c5761010b565b806370a082311461022e578063715018a61461025e5780638da5cb5b1461026857806395d89b41146102865761010b565b806323b872dd116100de57806323b872dd146101aa57806342842e0e146101c65780636352211e146101e2578063695850fb146102125761010b565b806301ffc9a71461011057806306fdde0314610140578063081812fc1461015e578063095ea7b31461018e575b600080fd5b61012a600480360381019061012591906120bc565b610358565b6040516101379190612569565b60405180910390f35b61014861043a565b6040516101559190612584565b60405180910390f35b6101786004803603810190610173919061214f565b6104cc565b60405161018591906124a2565b60405180910390f35b6101a860048036038101906101a39190612057565b610512565b005b6101c460048036038101906101bf9190611f51565b61062a565b005b6101e060048036038101906101db9190611f51565b61068a565b005b6101fc60048036038101906101f7919061214f565b6106aa565b60405161020991906124a2565b60405180910390f35b61022c6004803603810190610227919061210e565b61075c565b005b61024860048036038101906102439190611eec565b6109db565b6040516102559190612786565b60405180910390f35b610266610a93565b005b610270610aa7565b60405161027d91906124a2565b60405180910390f35b61028e610ad1565b60405161029b9190612584565b60405180910390f35b6102be60048036038101906102b9919061201b565b610b63565b005b6102da60048036038101906102d59190611fa0565b610b79565b005b6102f660048036038101906102f1919061214f565b610bdb565b6040516103039190612584565b60405180910390f35b61032660048036038101906103219190611f15565b610bed565b6040516103339190612569565b60405180910390f35b61035660048036038101906103519190611eec565b610c81565b005b60007f80ac58cd000000000000000000000000000000000000000000000000000000007bffffffffffffffffffffffffffffffffffffffffffffffffffffffff1916827bffffffffffffffffffffffffffffffffffffffffffffffffffffffff1916148061042357507f5b5e139f000000000000000000000000000000000000000000000000000000007bffffffffffffffffffffffffffffffffffffffffffffffffffffffff1916827bffffffffffffffffffffffffffffffffffffffffffffffffffffffff1916145b80610433575061043282610d05565b5b9050919050565b606060008054610449906129dc565b80601f0160208091040260200160405190810160405280929190818152602001828054610475906129dc565b80156104c25780601f10610497576101008083540402835291602001916104c2565b820191906000526020600020905b8154815290600101906020018083116104a557829003601f168201915b5050505050905090565b60006104d782610d6f565b6004600083815260200190815260200160002060009054906101000a900473ffffffffffffffffffffffffffffffffffffffff169050919050565b600061051d826106aa565b90508073ffffffffffffffffffffffffffffffffffffffff168373ffffffffffffffffffffffffffffffffffffffff16141561058e576040517f08c379a000000000000000000000000000000000000000000000000000000000815260040161058590612726565b60405180910390fd5b8073ffffffffffffffffffffffffffffffffffffffff166105ad610dba565b73ffffffffffffffffffffffffffffffffffffffff1614806105dc57506105db816105d6610dba565b610bed565b5b61061b576040517f08c379a0000000000000000000000000000000000000000000000000000000008152600401610612906126a6565b60405180910390fd5b6106258383610dc2565b505050565b61063b610635610dba565b82610e7b565b61067a576040517f08c379a000000000000000000000000000000000000000000000000000000000815260040161067190612766565b60405180910390fd5b610685838383610f10565b505050565b6106a583838360405180602001604052806000815250610b79565b505050565b6000806002600084815260200190815260200160002060009054906101000a900473ffffffffffffffffffffffffffffffffffffffff169050600073ffffffffffffffffffffffffffffffffffffffff168173ffffffffffffffffffffffffffffffffffffffff161415610753576040517f08c379a000000000000000000000000000000000000000000000000000000000815260040161074a90612706565b60405180910390fd5b80915050919050565b600a54600960009054906101000a900473ffffffffffffffffffffffffffffffffffffffff1673ffffffffffffffffffffffffffffffffffffffff1663dd62ed3e6107a5610dba565b306040518363ffffffff1660e01b81526004016107c39291906124bd565b60206040518083038186803b1580156107db57600080fd5b505afa1580156107ef573d6000803e3d6000fd5b505050506040513d601f19601f820116820180604052508101906108139190612178565b1015610854576040517f08c379a000000000000000000000000000000000000000000000000000000000815260040161084b90612746565b60405180910390fd5b600960009054906101000a900473ffffffffffffffffffffffffffffffffffffffff1673ffffffffffffffffffffffffffffffffffffffff166323b872dd61089a610dba565b600960009054906101000a900473ffffffffffffffffffffffffffffffffffffffff16600a546040518463ffffffff1660e01b81526004016108de939291906124e6565b602060405180830381600087803b1580156108f857600080fd5b505af115801561090c573d6000803e3d6000fd5b505050506040513d601f19601f820116820180604052508101906109309190612093565b50600061093d6008611177565b905061096061094a610dba565b8260405180602001604052806000815250611185565b61096a81836111e0565b80610973610dba565b73ffffffffffffffffffffffffffffffffffffffff16600073ffffffffffffffffffffffffffffffffffffffff167fddf252ad1be2c89b69c2b068fc378daa952ba7f163c4a11628f55a4df523b3ef60405160405180910390a46109d76008611254565b5050565b60008073ffffffffffffffffffffffffffffffffffffffff168273ffffffffffffffffffffffffffffffffffffffff161415610a4c576040517f08c379a0000000000000000000000000000000000000000000000000000000008152600401610a4390612666565b60405180910390fd5b600360008373ffffffffffffffffffffffffffffffffffffffff1673ffffffffffffffffffffffffffffffffffffffff168152602001908152602001600020549050919050565b610a9b61126a565b610aa560006112e8565b565b6000600760009054906101000a900473ffffffffffffffffffffffffffffffffffffffff16905090565b606060018054610ae0906129dc565b80601f0160208091040260200160405190810160405280929190818152602001828054610b0c906129dc565b8015610b595780601f10610b2e57610100808354040283529160200191610b59565b820191906000526020600020905b815481529060010190602001808311610b3c57829003601f168201915b5050505050905090565b610b75610b6e610dba565b83836113ae565b5050565b610b8a610b84610dba565b83610e7b565b610bc9576040517f08c379a0000000000000000000000000000000000000000000000000000000008152600401610bc090612766565b60405180910390fd5b610bd58484848461151b565b50505050565b6060610be682611577565b9050919050565b6000600560008473ffffffffffffffffffffffffffffffffffffffff1673ffffffffffffffffffffffffffffffffffffffff16815260200190815260200160002060008373ffffffffffffffffffffffffffffffffffffffff1673ffffffffffffffffffffffffffffffffffffffff16815260200190815260200160002060009054906101000a900460ff16905092915050565b610c8961126a565b600073ffffffffffffffffffffffffffffffffffffffff168173ffffffffffffffffffffffffffffffffffffffff161415610cf9576040517f08c379a0000000000000000000000000000000000000000000000000000000008152600401610cf0906125c6565b60405180910390fd5b610d02816112e8565b50565b60007f01ffc9a7000000000000000000000000000000000000000000000000000000007bffffffffffffffffffffffffffffffffffffffffffffffffffffffff1916827bffffffffffffffffffffffffffffffffffffffffffffffffffffffff1916149050919050565b610d788161168a565b610db7576040517f08c379a0000000000000000000000000000000000000000000000000000000008152600401610dae90612706565b60405180910390fd5b50565b600033905090565b816004600083815260200190815260200160002060006101000a81548173ffffffffffffffffffffffffffffffffffffffff021916908373ffffffffffffffffffffffffffffffffffffffff160217905550808273ffffffffffffffffffffffffffffffffffffffff16610e35836106aa565b73ffffffffffffffffffffffffffffffffffffffff167f8c5be1e5ebec7d5bd14f71427d1e84f3dd0314c0f7b2291e5b200ac8c7c3b92560405160405180910390a45050565b600080610e87836106aa565b90508073ffffffffffffffffffffffffffffffffffffffff168473ffffffffffffffffffffffffffffffffffffffff161480610ec95750610ec88185610bed565b5b80610f0757508373ffffffffffffffffffffffffffffffffffffffff16610eef846104cc565b73ffffffffffffffffffffffffffffffffffffffff16145b91505092915050565b8273ffffffffffffffffffffffffffffffffffffffff16610f30826106aa565b73ffffffffffffffffffffffffffffffffffffffff1614610f86576040517f08c379a0000000000000000000000000000000000000000000000000000000008152600401610f7d906125e6565b60405180910390fd5b600073ffffffffffffffffffffffffffffffffffffffff168273ffffffffffffffffffffffffffffffffffffffff161415610ff6576040517f08c379a0000000000000000000000000000000000000000000000000000000008152600401610fed90612626565b60405180910390fd5b6110018383836116f6565b61100c600082610dc2565b6001600360008573ffffffffffffffffffffffffffffffffffffffff1673ffffffffffffffffffffffffffffffffffffffff168152602001908152602001600020600082825461105c91906128f2565b925050819055506001600360008473ffffffffffffffffffffffffffffffffffffffff1673ffffffffffffffffffffffffffffffffffffffff16815260200190815260200160002060008282546110b3919061286b565b92505081905550816002600083815260200190815260200160002060006101000a81548173ffffffffffffffffffffffffffffffffffffffff021916908373ffffffffffffffffffffffffffffffffffffffff160217905550808273ffffffffffffffffffffffffffffffffffffffff168473ffffffffffffffffffffffffffffffffffffffff167fddf252ad1be2c89b69c2b068fc378daa952ba7f163c4a11628f55a4df523b3ef60405160405180910390a46111728383836116fb565b505050565b600081600001549050919050565b61118f8383611700565b61119c60008484846118da565b6111db576040517f08c379a00000000000000000000000000000000000000000000000000000000081526004016111d2906125a6565b60405180910390fd5b505050565b6111e98261168a565b611228576040517f08c379a000000000000000000000000000000000000000000000000000000000815260040161121f90612686565b60405180910390fd5b8060066000848152602001908152602001600020908051906020019061124f929190611ce6565b505050565b6001816000016000828254019250508190555050565b611272610dba565b73ffffffffffffffffffffffffffffffffffffffff16611290610aa7565b73ffffffffffffffffffffffffffffffffffffffff16146112e6576040517f08c379a00000000000000000000000000000000000000000000000000000000081526004016112dd906126e6565b60405180910390fd5b565b6000600760009054906101000a900473ffffffffffffffffffffffffffffffffffffffff16905081600760006101000a81548173ffffffffffffffffffffffffffffffffffffffff021916908373ffffffffffffffffffffffffffffffffffffffff1602179055508173ffffffffffffffffffffffffffffffffffffffff168173ffffffffffffffffffffffffffffffffffffffff167f8be0079c531659141344cd1fd0a4f28419497f9722a3daafe3b4186f6b6457e060405160405180910390a35050565b8173ffffffffffffffffffffffffffffffffffffffff168373ffffffffffffffffffffffffffffffffffffffff16141561141d576040517f08c379a000000000000000000000000000000000000000000000000000000000815260040161141490612646565b60405180910390fd5b80600560008573ffffffffffffffffffffffffffffffffffffffff1673ffffffffffffffffffffffffffffffffffffffff16815260200190815260200160002060008473ffffffffffffffffffffffffffffffffffffffff1673ffffffffffffffffffffffffffffffffffffffff16815260200190815260200160002060006101000a81548160ff0219169083151502179055508173ffffffffffffffffffffffffffffffffffffffff168373ffffffffffffffffffffffffffffffffffffffff167f17307eab39ab6107e8899845ad3d59bd9653f200f220920489ca2b5937696c318360405161150e9190612569565b60405180910390a3505050565b611526848484610f10565b611532848484846118da565b611571576040517f08c379a0000000000000000000000000000000000000000000000000000000008152600401611568906125a6565b60405180910390fd5b50505050565b606061158282610d6f565b60006006600084815260200190815260200160002080546115a2906129dc565b80601f01602080910402602001604051908101604052809291908181526020018280546115ce906129dc565b801561161b5780601f106115f05761010080835404028352916020019161161b565b820191906000526020600020905b8154815290600101906020018083116115fe57829003601f168201915b50505050509050600061162c611a71565b9050600081511415611642578192505050611685565b60008251111561167757808260405160200161165f92919061247e565b60405160208183030381529060405292505050611685565b61168084611aae565b925050505b919050565b60008073ffffffffffffffffffffffffffffffffffffffff166002600084815260200190815260200160002060009054906101000a900473ffffffffffffffffffffffffffffffffffffffff1673ffffffffffffffffffffffffffffffffffffffff1614159050919050565b505050565b505050565b600073ffffffffffffffffffffffffffffffffffffffff168273ffffffffffffffffffffffffffffffffffffffff161415611770576040517f08c379a0000000000000000000000000000000000000000000000000000000008152600401611767906126c6565b60405180910390fd5b6117798161168a565b156117b9576040517f08c379a00000000000000000000000000000000000000000000000000000000081526004016117b090612606565b60405180910390fd5b6117c5600083836116f6565b6001600360008473ffffffffffffffffffffffffffffffffffffffff1673ffffffffffffffffffffffffffffffffffffffff1681526020019081526020016000206000828254611815919061286b565b92505081905550816002600083815260200190815260200160002060006101000a81548173ffffffffffffffffffffffffffffffffffffffff021916908373ffffffffffffffffffffffffffffffffffffffff160217905550808273ffffffffffffffffffffffffffffffffffffffff16600073ffffffffffffffffffffffffffffffffffffffff167fddf252ad1be2c89b69c2b068fc378daa952ba7f163c4a11628f55a4df523b3ef60405160405180910390a46118d6600083836116fb565b5050565b60006118fb8473ffffffffffffffffffffffffffffffffffffffff16611b16565b15611a64578373ffffffffffffffffffffffffffffffffffffffff1663150b7a02611924610dba565b8786866040518563ffffffff1660e01b8152600401611946949392919061251d565b602060405180830381600087803b15801561196057600080fd5b505af192505050801561199157506040513d601f19601f8201168201806040525081019061198e91906120e5565b60015b611a14573d80600081146119c1576040519150601f19603f3d011682016040523d82523d6000602084013e6119c6565b606091505b50600081511415611a0c576040517f08c379a0000000000000000000000000000000000000000000000000000000008152600401611a03906125a6565b60405180910390fd5b805181602001fd5b63150b7a0260e01b7bffffffffffffffffffffffffffffffffffffffffffffffffffffffff1916817bffffffffffffffffffffffffffffffffffffffffffffffffffffffff191614915050611a69565b600190505b949350505050565b60606040518060400160405280601481526020017f68747470733a2f2f647075626c6973682e6f7267000000000000000000000000815250905090565b6060611ab982610d6f565b6000611ac3611a71565b90506000815111611ae35760405180602001604052806000815250611b0e565b80611aed84611b39565b604051602001611afe92919061247e565b6040516020818303038152906040525b915050919050565b6000808273ffffffffffffffffffffffffffffffffffffffff163b119050919050565b60606000821415611b81576040518060400160405280600181526020017f30000000000000000000000000000000000000000000000000000000000000008152509050611ce1565b600082905060005b60008214611bb3578080611b9c90612a3f565b915050600a82611bac91906128c1565b9150611b89565b60008167ffffffffffffffff811115611bf5577f4e487b7100000000000000000000000000000000000000000000000000000000600052604160045260246000fd5b6040519080825280601f01601f191660200182016040528015611c275781602001600182028036833780820191505090505b5090505b60008514611cda57600182611c4091906128f2565b9150600a85611c4f9190612a88565b6030611c5b919061286b565b60f81b818381518110611c97577f4e487b7100000000000000000000000000000000000000000000000000000000600052603260045260246000fd5b60200101907effffffffffffffffffffffffffffffffffffffffffffffffffffffffffffff1916908160001a905350600a85611cd391906128c1565b9450611c2b565b8093505050505b919050565b828054611cf2906129dc565b90600052602060002090601f016020900481019282611d145760008555611d5b565b82601f10611d2d57805160ff1916838001178555611d5b565b82800160010185558215611d5b579182015b82811115611d5a578251825591602001919060010190611d3f565b5b509050611d689190611d6c565b5090565b5b80821115611d85576000816000905550600101611d6d565b5090565b6000611d9c611d97846127c6565b6127a1565b905082815260208101848484011115611db457600080fd5b611dbf84828561299a565b509392505050565b6000611dda611dd5846127f7565b6127a1565b905082815260208101848484011115611df257600080fd5b611dfd84828561299a565b509392505050565b600081359050611e1481613027565b92915050565b600081359050611e298161303e565b92915050565b600081519050611e3e8161303e565b92915050565b600081359050611e5381613055565b92915050565b600081519050611e6881613055565b92915050565b600082601f830112611e7f57600080fd5b8135611e8f848260208601611d89565b91505092915050565b600082601f830112611ea957600080fd5b8135611eb9848260208601611dc7565b91505092915050565b600081359050611ed18161306c565b92915050565b600081519050611ee68161306c565b92915050565b600060208284031215611efe57600080fd5b6000611f0c84828501611e05565b91505092915050565b60008060408385031215611f2857600080fd5b6000611f3685828601611e05565b9250506020611f4785828601611e05565b9150509250929050565b600080600060608486031215611f6657600080fd5b6000611f7486828701611e05565b9350506020611f8586828701611e05565b9250506040611f9686828701611ec2565b9150509250925092565b60008060008060808587031215611fb657600080fd5b6000611fc487828801611e05565b9450506020611fd587828801611e05565b9350506040611fe687828801611ec2565b925050606085013567ffffffffffffffff81111561200357600080fd5b61200f87828801611e6e565b91505092959194509250565b6000806040838503121561202e57600080fd5b600061203c85828601611e05565b925050602061204d85828601611e1a565b9150509250929050565b6000806040838503121561206a57600080fd5b600061207885828601611e05565b925050602061208985828601611ec2565b9150509250929050565b6000602082840312156120a557600080fd5b60006120b384828501611e2f565b91505092915050565b6000602082840312156120ce57600080fd5b60006120dc84828501611e44565b91505092915050565b6000602082840312156120f757600080fd5b600061210584828501611e59565b91505092915050565b60006020828403121561212057600080fd5b600082013567ffffffffffffffff81111561213a57600080fd5b61214684828501611e98565b91505092915050565b60006020828403121561216157600080fd5b600061216f84828501611ec2565b91505092915050565b60006020828403121561218a57600080fd5b600061219884828501611ed7565b91505092915050565b6121aa81612926565b82525050565b6121b981612938565b82525050565b60006121ca82612828565b6121d4818561283e565b93506121e48185602086016129a9565b6121ed81612b75565b840191505092915050565b600061220382612833565b61220d818561284f565b935061221d8185602086016129a9565b61222681612b75565b840191505092915050565b600061223c82612833565b6122468185612860565b93506122568185602086016129a9565b80840191505092915050565b600061226f60328361284f565b915061227a82612b86565b604082019050919050565b600061229260268361284f565b915061229d82612bd5565b604082019050919050565b60006122b560258361284f565b91506122c082612c24565b604082019050919050565b60006122d8601c8361284f565b91506122e382612c73565b602082019050919050565b60006122fb60248361284f565b915061230682612c9c565b604082019050919050565b600061231e60198361284f565b915061232982612ceb565b602082019050919050565b600061234160298361284f565b915061234c82612d14565b604082019050919050565b6000612364602e8361284f565b915061236f82612d63565b604082019050919050565b6000612387603e8361284f565b915061239282612db2565b604082019050919050565b60006123aa60208361284f565b91506123b582612e01565b602082019050919050565b60006123cd60208361284f565b91506123d882612e2a565b602082019050919050565b60006123f060188361284f565b91506123fb82612e53565b602082019050919050565b600061241360218361284f565b915061241e82612e7c565b604082019050919050565b600061243660d08361284f565b915061244182612ecb565b60e082019050919050565b6000612459602e8361284f565b915061246482612fd8565b604082019050919050565b61247881612990565b82525050565b600061248a8285612231565b91506124968284612231565b91508190509392505050565b60006020820190506124b760008301846121a1565b92915050565b60006040820190506124d260008301856121a1565b6124df60208301846121a1565b9392505050565b60006060820190506124fb60008301866121a1565b61250860208301856121a1565b612515604083018461246f565b949350505050565b600060808201905061253260008301876121a1565b61253f60208301866121a1565b61254c604083018561246f565b818103606083015261255e81846121bf565b905095945050505050565b600060208201905061257e60008301846121b0565b92915050565b6000602082019050818103600083015261259e81846121f8565b905092915050565b600060208201905081810360008301526125bf81612262565b9050919050565b600060208201905081810360008301526125df81612285565b9050919050565b600060208201905081810360008301526125ff816122a8565b9050919050565b6000602082019050818103600083015261261f816122cb565b9050919050565b6000602082019050818103600083015261263f816122ee565b9050919050565b6000602082019050818103600083015261265f81612311565b9050919050565b6000602082019050818103600083015261267f81612334565b9050919050565b6000602082019050818103600083015261269f81612357565b9050919050565b600060208201905081810360008301526126bf8161237a565b9050919050565b600060208201905081810360008301526126df8161239d565b9050919050565b600060208201905081810360008301526126ff816123c0565b9050919050565b6000602082019050818103600083015261271f816123e3565b9050919050565b6000602082019050818103600083015261273f81612406565b9050919050565b6000602082019050818103600083015261275f81612429565b9050919050565b6000602082019050818103600083015261277f8161244c565b9050919050565b600060208201905061279b600083018461246f565b92915050565b60006127ab6127bc565b90506127b78282612a0e565b919050565b6000604051905090565b600067ffffffffffffffff8211156127e1576127e0612b46565b5b6127ea82612b75565b9050602081019050919050565b600067ffffffffffffffff82111561281257612811612b46565b5b61281b82612b75565b9050602081019050919050565b600081519050919050565b600081519050919050565b600082825260208201905092915050565b600082825260208201905092915050565b600081905092915050565b600061287682612990565b915061288183612990565b9250827fffffffffffffffffffffffffffffffffffffffffffffffffffffffffffffffff038211156128b6576128b5612ab9565b5b828201905092915050565b60006128cc82612990565b91506128d783612990565b9250826128e7576128e6612ae8565b5b828204905092915050565b60006128fd82612990565b915061290883612990565b92508282101561291b5761291a612ab9565b5b828203905092915050565b600061293182612970565b9050919050565b60008115159050919050565b60007fffffffff0000000000000000000000000000000000000000000000000000000082169050919050565b600073ffffffffffffffffffffffffffffffffffffffff82169050919050565b6000819050919050565b82818337600083830152505050565b60005b838110156129c75780820151818401526020810190506129ac565b838111156129d6576000848401525b50505050565b600060028204905060018216806129f457607f821691505b60208210811415612a0857612a07612b17565b5b50919050565b612a1782612b75565b810181811067ffffffffffffffff82111715612a3657612a35612b46565b5b80604052505050565b6000612a4a82612990565b91507fffffffffffffffffffffffffffffffffffffffffffffffffffffffffffffffff821415612a7d57612a7c612ab9565b5b600182019050919050565b6000612a9382612990565b9150612a9e83612990565b925082612aae57612aad612ae8565b5b828206905092915050565b7f4e487b7100000000000000000000000000000000000000000000000000000000600052601160045260246000fd5b7f4e487b7100000000000000000000000000000000000000000000000000000000600052601260045260246000fd5b7f4e487b7100000000000000000000000000000000000000000000000000000000600052602260045260246000fd5b7f4e487b7100000000000000000000000000000000000000000000000000000000600052604160045260246000fd5b6000601f19601f8301169050919050565b7f4552433732313a207472616e7366657220746f206e6f6e20455243373231526560008201527f63656976657220696d706c656d656e7465720000000000000000000000000000602082015250565b7f4f776e61626c653a206e6577206f776e657220697320746865207a65726f206160008201527f6464726573730000000000000000000000000000000000000000000000000000602082015250565b7f4552433732313a207472616e736665722066726f6d20696e636f72726563742060008201527f6f776e6572000000000000000000000000000000000000000000000000000000602082015250565b7f4552433732313a20746f6b656e20616c7265616479206d696e74656400000000600082015250565b7f4552433732313a207472616e7366657220746f20746865207a65726f2061646460008201527f7265737300000000000000000000000000000000000000000000000000000000602082015250565b7f4552433732313a20617070726f766520746f2063616c6c657200000000000000600082015250565b7f4552433732313a2061646472657373207a65726f206973206e6f74206120766160008201527f6c6964206f776e65720000000000000000000000000000000000000000000000602082015250565b7f45524337323155524953746f726167653a2055524920736574206f66206e6f6e60008201527f6578697374656e7420746f6b656e000000000000000000000000000000000000602082015250565b7f4552433732313a20617070726f76652063616c6c6572206973206e6f7420746f60008201527f6b656e206f776e6572206e6f7220617070726f76656420666f7220616c6c0000602082015250565b7f4552433732313a206d696e7420746f20746865207a65726f2061646472657373600082015250565b7f4f776e61626c653a2063616c6c6572206973206e6f7420746865206f776e6572600082015250565b7f4552433732313a20696e76616c696420746f6b656e2049440000000000000000600082015250565b7f4552433732313a20617070726f76616c20746f2063757272656e74206f776e6560008201527f7200000000000000000000000000000000000000000000000000000000000000602082015250565b7f4e6f7420656e6f75676820616c6c6f77616e63652e2054686973206f7065726160008201527f74696f6e2072657175697265732063616c6c696e67207468652060617070726f60208201527f7665606f722060696e637265617365416c6c6f77616e6365602066756e63746960408201527f6f6e73206f6e207468652044507562546f6b656e20636f6e747261637420776960608201527f74682074686973636f6e74726163742773206164647265737320616e6420612060808201527f76616c7565207468617420636f7665727320746865207075626c69736820636f60a08201527f737420617320617267756d656e74732e0000000000000000000000000000000060c082015250565b7f4552433732313a2063616c6c6572206973206e6f7420746f6b656e206f776e6560008201527f72206e6f7220617070726f766564000000000000000000000000000000000000602082015250565b61303081612926565b811461303b57600080fd5b50565b61304781612938565b811461305257600080fd5b50565b61305e81612944565b811461306957600080fd5b50565b61307581612990565b811461308057600080fd5b5056fea2646970667358221220cfcb446df3a45f908f9088163e885975236a6499fda8b77534759f105a76683f64736f6c63430008040033",
  "immutableReferences": {},
  "source": "// SPDX-License-Identifier: MIT\npragma solidity ^0.8.2;\n\n// Imports the base contract for the DPubToken so that its functions can be called\nimport \"@openzeppelin/contracts/token/ERC20/ERC20.sol\";\nimport \"@openzeppelin/contracts/token/ERC721/ERC721.sol\";\nimport \"@openzeppelin/contracts/token/ERC721/extensions/ERC721URIStorage.sol\";\nimport \"@openzeppelin/contracts/access/Ownable.sol\";\nimport \"@openzeppelin/contracts/utils/Counters.sol\";\n\ncontract PaperToken is ERC721, ERC721URIStorage, Ownable {\n    using Counters for Counters.Counter;\n    Counters.Counter private _tokenIds;\n    IERC20 DPTKContract;\n    uint256 publishCost = 1000;\n\n    constructor(IERC20 DPubTokenContractAddress) ERC721(\"PaperToken\", \"PTK\") {\n        DPTKContract = DPubTokenContractAddress;\n    }\n\n    function _baseURI() internal pure override returns (string memory) {\n        return \"https://dpublish.org\";\n    }\n\n    // Mints a PaperToken by transferring the publish cost from the caller to the contract\n    function safeMint(string memory _tokenURI) public {\n        require(DPTKContract.allowance(_msgSender(), address(this)) >= publishCost,\n            \"Not enough allowance. This operation requires calling the `approve`\"\n            \"or `increaseAllowance` functions on the DPubToken contract with this\"\n            \"contract's address and a value that covers the publish cost as arguments.\");\n        DPTKContract.transferFrom(_msgSender(), address(DPTKContract), publishCost);\n        uint256 newTokenId = _tokenIds.current();\n        _safeMint(_msgSender(), newTokenId, \"\");\n        _setTokenURI(newTokenId, _tokenURI);\n        // Emits the event which signals that a new token has been minted\n        emit Transfer(address(0), _msgSender(), newTokenId);\n        _tokenIds.increment();\n    }\n\n    // The following functions are overrides required by Solidity.\n\n    function _burn(uint256 tokenId) internal override(ERC721, ERC721URIStorage) {\n        super._burn(tokenId);\n    }\n\n    function tokenURI(uint256 tokenId)\n        public\n        view\n        override(ERC721, ERC721URIStorage)\n        returns (string memory)\n    {\n        return super.tokenURI(tokenId);\n    }\n}",
  "sourcePath": "C:\\Users\\Marcelo\\Repositories\\Dpublish\\contracts\\PaperToken.sol",
  "compiler": {
    "name": "solc",
    "version": "0.8.4+commit.c7e474f2.Emscripten.clang"
  },
  "schemaVersion": "3.4.10",
  "updatedAt": "2022-12-16T02:46:02.264Z",
  "networkType": "ethereum",
  "devdoc": {
    "kind": "dev",
    "methods": {
      "approve(address,uint256)": {
        "details": "See {IERC721-approve}."
      },
      "balanceOf(address)": {
        "details": "See {IERC721-balanceOf}."
      },
      "getApproved(uint256)": {
        "details": "See {IERC721-getApproved}."
      },
      "isApprovedForAll(address,address)": {
        "details": "See {IERC721-isApprovedForAll}."
      },
      "name()": {
        "details": "See {IERC721Metadata-name}."
      },
      "owner()": {
        "details": "Returns the address of the current owner."
      },
      "ownerOf(uint256)": {
        "details": "See {IERC721-ownerOf}."
      },
      "renounceOwnership()": {
        "details": "Leaves the contract without owner. It will not be possible to call `onlyOwner` functions anymore. Can only be called by the current owner. NOTE: Renouncing ownership will leave the contract without an owner, thereby removing any functionality that is only available to the owner."
      },
      "safeTransferFrom(address,address,uint256)": {
        "details": "See {IERC721-safeTransferFrom}."
      },
      "safeTransferFrom(address,address,uint256,bytes)": {
        "details": "See {IERC721-safeTransferFrom}."
      },
      "setApprovalForAll(address,bool)": {
        "details": "See {IERC721-setApprovalForAll}."
      },
      "supportsInterface(bytes4)": {
        "details": "See {IERC165-supportsInterface}."
      },
      "symbol()": {
        "details": "See {IERC721Metadata-symbol}."
      },
      "transferFrom(address,address,uint256)": {
        "details": "See {IERC721-transferFrom}."
      },
      "transferOwnership(address)": {
        "details": "Transfers ownership of the contract to a new account (`newOwner`). Can only be called by the current owner."
      }
    },
    "version": 1
  },
  "userdoc": {
    "kind": "user",
    "methods": {},
    "version": 1
  }
}