{
  "contractName": "ReviewToken",
  "abi": [
    {
      "inputs": [],
      "stateMutability": "nonpayable",
      "type": "constructor"
    },
    {
      "anonymous": false,
      "inputs": [
        {
          "indexed": true,
          "internalType": "address",
          "name": "owner",
          "type": "address"
        },
        {
          "indexed": true,
          "internalType": "address",
          "name": "approved",
          "type": "address"
        },
        {
          "indexed": true,
          "internalType": "uint256",
          "name": "tokenId",
          "type": "uint256"
        }
      ],
      "name": "Approval",
      "type": "event"
    },
    {
      "anonymous": false,
      "inputs": [
        {
          "indexed": true,
          "internalType": "address",
          "name": "owner",
          "type": "address"
        },
        {
          "indexed": true,
          "internalType": "address",
          "name": "operator",
          "type": "address"
        },
        {
          "indexed": false,
          "internalType": "bool",
          "name": "approved",
          "type": "bool"
        }
      ],
      "name": "ApprovalForAll",
      "type": "event"
    },
    {
      "anonymous": false,
      "inputs": [
        {
          "indexed": true,
          "internalType": "address",
          "name": "previousOwner",
          "type": "address"
        },
        {
          "indexed": true,
          "internalType": "address",
          "name": "newOwner",
          "type": "address"
        }
      ],
      "name": "OwnershipTransferred",
      "type": "event"
    },
    {
      "anonymous": false,
      "inputs": [
        {
          "indexed": true,
          "internalType": "address",
          "name": "from",
          "type": "address"
        },
        {
          "indexed": true,
          "internalType": "address",
          "name": "to",
          "type": "address"
        },
        {
          "indexed": true,
          "internalType": "uint256",
          "name": "tokenId",
          "type": "uint256"
        }
      ],
      "name": "Transfer",
      "type": "event"
    },
    {
      "inputs": [
        {
          "internalType": "address",
          "name": "to",
          "type": "address"
        },
        {
          "internalType": "uint256",
          "name": "tokenId",
          "type": "uint256"
        }
      ],
      "name": "approve",
      "outputs": [],
      "stateMutability": "nonpayable",
      "type": "function"
    },
    {
      "inputs": [
        {
          "internalType": "address",
          "name": "owner",
          "type": "address"
        }
      ],
      "name": "balanceOf",
      "outputs": [
        {
          "internalType": "uint256",
          "name": "",
          "type": "uint256"
        }
      ],
      "stateMutability": "view",
      "type": "function",
      "constant": true
    },
    {
      "inputs": [
        {
          "internalType": "uint256",
          "name": "tokenId",
          "type": "uint256"
        }
      ],
      "name": "getApproved",
      "outputs": [
        {
          "internalType": "address",
          "name": "",
          "type": "address"
        }
      ],
      "stateMutability": "view",
      "type": "function",
      "constant": true
    },
    {
      "inputs": [
        {
          "internalType": "address",
          "name": "owner",
          "type": "address"
        },
        {
          "internalType": "address",
          "name": "operator",
          "type": "address"
        }
      ],
      "name": "isApprovedForAll",
      "outputs": [
        {
          "internalType": "bool",
          "name": "",
          "type": "bool"
        }
      ],
      "stateMutability": "view",
      "type": "function",
      "constant": true
    },
    {
      "inputs": [],
      "name": "name",
      "outputs": [
        {
          "internalType": "string",
          "name": "",
          "type": "string"
        }
      ],
      "stateMutability": "view",
      "type": "function",
      "constant": true
    },
    {
      "inputs": [],
      "name": "owner",
      "outputs": [
        {
          "internalType": "address",
          "name": "",
          "type": "address"
        }
      ],
      "stateMutability": "view",
      "type": "function",
      "constant": true
    },
    {
      "inputs": [
        {
          "internalType": "uint256",
          "name": "tokenId",
          "type": "uint256"
        }
      ],
      "name": "ownerOf",
      "outputs": [
        {
          "internalType": "address",
          "name": "",
          "type": "address"
        }
      ],
      "stateMutability": "view",
      "type": "function",
      "constant": true
    },
    {
      "inputs": [],
      "name": "renounceOwnership",
      "outputs": [],
      "stateMutability": "nonpayable",
      "type": "function"
    },
    {
      "inputs": [
        {
          "internalType": "address",
          "name": "from",
          "type": "address"
        },
        {
          "internalType": "address",
          "name": "to",
          "type": "address"
        },
        {
          "internalType": "uint256",
          "name": "tokenId",
          "type": "uint256"
        }
      ],
      "name": "safeTransferFrom",
      "outputs": [],
      "stateMutability": "nonpayable",
      "type": "function"
    },
    {
      "inputs": [
        {
          "internalType": "address",
          "name": "from",
          "type": "address"
        },
        {
          "internalType": "address",
          "name": "to",
          "type": "address"
        },
        {
          "internalType": "uint256",
          "name": "tokenId",
          "type": "uint256"
        },
        {
          "internalType": "bytes",
          "name": "data",
          "type": "bytes"
        }
      ],
      "name": "safeTransferFrom",
      "outputs": [],
      "stateMutability": "nonpayable",
      "type": "function"
    },
    {
      "inputs": [
        {
          "internalType": "address",
          "name": "operator",
          "type": "address"
        },
        {
          "internalType": "bool",
          "name": "approved",
          "type": "bool"
        }
      ],
      "name": "setApprovalForAll",
      "outputs": [],
      "stateMutability": "nonpayable",
      "type": "function"
    },
    {
      "inputs": [
        {
          "internalType": "bytes4",
          "name": "interfaceId",
          "type": "bytes4"
        }
      ],
      "name": "supportsInterface",
      "outputs": [
        {
          "internalType": "bool",
          "name": "",
          "type": "bool"
        }
      ],
      "stateMutability": "view",
      "type": "function",
      "constant": true
    },
    {
      "inputs": [],
      "name": "symbol",
      "outputs": [
        {
          "internalType": "string",
          "name": "",
          "type": "string"
        }
      ],
      "stateMutability": "view",
      "type": "function",
      "constant": true
    },
    {
      "inputs": [
        {
          "internalType": "address",
          "name": "from",
          "type": "address"
        },
        {
          "internalType": "address",
          "name": "to",
          "type": "address"
        },
        {
          "internalType": "uint256",
          "name": "tokenId",
          "type": "uint256"
        }
      ],
      "name": "transferFrom",
      "outputs": [],
      "stateMutability": "nonpayable",
      "type": "function"
    },
    {
      "inputs": [
        {
          "internalType": "address",
          "name": "newOwner",
          "type": "address"
        }
      ],
      "name": "transferOwnership",
      "outputs": [],
      "stateMutability": "nonpayable",
      "type": "function"
    },
    {
      "inputs": [
        {
          "internalType": "address",
          "name": "reviewer",
          "type": "address"
        },
        {
          "internalType": "string",
          "name": "tokenUri",
          "type": "string"
        }
      ],
      "name": "safeMint",
      "outputs": [],
      "stateMutability": "nonpayable",
      "type": "function"
    },
    {
      "inputs": [
        {
          "internalType": "uint256",
          "name": "tokenId",
          "type": "uint256"
        }
      ],
      "name": "tokenURI",
      "outputs": [
        {
          "internalType": "string",
          "name": "",
          "type": "string"
        }
      ],
      "stateMutability": "view",
      "type": "function",
      "constant": true
    }
  ],
  "bytecode": "0x60806040523480156200001157600080fd5b506040518060400160405280600b81526020017f526576696577546f6b656e0000000000000000000000000000000000000000008152506040518060400160405280600381526020017f52544b0000000000000000000000000000000000000000000000000000000000815250816000908051906020019062000096929190620001a6565b508060019080519060200190620000af929190620001a6565b505050620000d2620000c6620000d860201b60201c565b620000e060201b60201c565b620002bb565b600033905090565b6000600760009054906101000a900473ffffffffffffffffffffffffffffffffffffffff16905081600760006101000a81548173ffffffffffffffffffffffffffffffffffffffff021916908373ffffffffffffffffffffffffffffffffffffffff1602179055508173ffffffffffffffffffffffffffffffffffffffff168173ffffffffffffffffffffffffffffffffffffffff167f8be0079c531659141344cd1fd0a4f28419497f9722a3daafe3b4186f6b6457e060405160405180910390a35050565b828054620001b49062000256565b90600052602060002090601f016020900481019282620001d8576000855562000224565b82601f10620001f357805160ff191683800117855562000224565b8280016001018555821562000224579182015b828111156200022357825182559160200191906001019062000206565b5b50905062000233919062000237565b5090565b5b808211156200025257600081600090555060010162000238565b5090565b600060028204905060018216806200026f57607f821691505b602082108114156200028657620002856200028c565b5b50919050565b7f4e487b7100000000000000000000000000000000000000000000000000000000600052602260045260246000fd5b612cd480620002cb6000396000f3fe608060405234801561001057600080fd5b506004361061010b5760003560e01c8063715018a6116100a2578063b88d4fde11610071578063b88d4fde146102a4578063c87b56dd146102c0578063d204c45e146102f0578063e985e9c51461030c578063f2fde38b1461033c5761010b565b8063715018a6146102425780638da5cb5b1461024c57806395d89b411461026a578063a22cb465146102885761010b565b806323b872dd116100de57806323b872dd146101aa57806342842e0e146101c65780636352211e146101e257806370a08231146102125761010b565b806301ffc9a71461011057806306fdde0314610140578063081812fc1461015e578063095ea7b31461018e575b600080fd5b61012a60048036038101906101259190611ef1565b610358565b60405161013791906122b1565b60405180910390f35b61014861043a565b60405161015591906122cc565b60405180910390f35b61017860048036038101906101739190611f43565b6104cc565b604051610185919061224a565b60405180910390f35b6101a860048036038101906101a39190611eb5565b610512565b005b6101c460048036038101906101bf9190611d5b565b61062a565b005b6101e060048036038101906101db9190611d5b565b61068a565b005b6101fc60048036038101906101f79190611f43565b6106aa565b604051610209919061224a565b60405180910390f35b61022c60048036038101906102279190611cf6565b61075c565b60405161023991906124ae565b60405180910390f35b61024a610814565b005b610254610828565b604051610261919061224a565b60405180910390f35b610272610852565b60405161027f91906122cc565b60405180910390f35b6102a2600480360381019061029d9190611e25565b6108e4565b005b6102be60048036038101906102b99190611daa565b6108fa565b005b6102da60048036038101906102d59190611f43565b61095c565b6040516102e791906122cc565b60405180910390f35b61030a60048036038101906103059190611e61565b61096e565b005b61032660048036038101906103219190611d1f565b610a03565b60405161033391906122b1565b60405180910390f35b61035660048036038101906103519190611cf6565b610a97565b005b60007f80ac58cd000000000000000000000000000000000000000000000000000000007bffffffffffffffffffffffffffffffffffffffffffffffffffffffff1916827bffffffffffffffffffffffffffffffffffffffffffffffffffffffff1916148061042357507f5b5e139f000000000000000000000000000000000000000000000000000000007bffffffffffffffffffffffffffffffffffffffffffffffffffffffff1916827bffffffffffffffffffffffffffffffffffffffffffffffffffffffff1916145b80610433575061043282610b1b565b5b9050919050565b60606000805461044990612704565b80601f016020809104026020016040519081016040528092919081815260200182805461047590612704565b80156104c25780601f10610497576101008083540402835291602001916104c2565b820191906000526020600020905b8154815290600101906020018083116104a557829003601f168201915b5050505050905090565b60006104d782610b85565b6004600083815260200190815260200160002060009054906101000a900473ffffffffffffffffffffffffffffffffffffffff169050919050565b600061051d826106aa565b90508073ffffffffffffffffffffffffffffffffffffffff168373ffffffffffffffffffffffffffffffffffffffff16141561058e576040517f08c379a00000000000000000000000000000000000000000000000000000000081526004016105859061246e565b60405180910390fd5b8073ffffffffffffffffffffffffffffffffffffffff166105ad610bd0565b73ffffffffffffffffffffffffffffffffffffffff1614806105dc57506105db816105d6610bd0565b610a03565b5b61061b576040517f08c379a0000000000000000000000000000000000000000000000000000000008152600401610612906123ee565b60405180910390fd5b6106258383610bd8565b505050565b61063b610635610bd0565b82610c91565b61067a576040517f08c379a00000000000000000000000000000000000000000000000000000000081526004016106719061248e565b60405180910390fd5b610685838383610d26565b505050565b6106a5838383604051806020016040528060008152506108fa565b505050565b6000806002600084815260200190815260200160002060009054906101000a900473ffffffffffffffffffffffffffffffffffffffff169050600073ffffffffffffffffffffffffffffffffffffffff168173ffffffffffffffffffffffffffffffffffffffff161415610753576040517f08c379a000000000000000000000000000000000000000000000000000000000815260040161074a9061244e565b60405180910390fd5b80915050919050565b60008073ffffffffffffffffffffffffffffffffffffffff168273ffffffffffffffffffffffffffffffffffffffff1614156107cd576040517f08c379a00000000000000000000000000000000000000000000000000000000081526004016107c4906123ae565b60405180910390fd5b600360008373ffffffffffffffffffffffffffffffffffffffff1673ffffffffffffffffffffffffffffffffffffffff168152602001908152602001600020549050919050565b61081c610f8d565b610826600061100b565b565b6000600760009054906101000a900473ffffffffffffffffffffffffffffffffffffffff16905090565b60606001805461086190612704565b80601f016020809104026020016040519081016040528092919081815260200182805461088d90612704565b80156108da5780601f106108af576101008083540402835291602001916108da565b820191906000526020600020905b8154815290600101906020018083116108bd57829003601f168201915b5050505050905090565b6108f66108ef610bd0565b83836110d1565b5050565b61090b610905610bd0565b83610c91565b61094a576040517f08c379a00000000000000000000000000000000000000000000000000000000081526004016109419061248e565b60405180910390fd5b6109568484848461123e565b50505050565b60606109678261129a565b9050919050565b610976610f8d565b600061098260086113ad565b905061098e83826113bb565b61099881836113d9565b808373ffffffffffffffffffffffffffffffffffffffff16600073ffffffffffffffffffffffffffffffffffffffff167fddf252ad1be2c89b69c2b068fc378daa952ba7f163c4a11628f55a4df523b3ef60405160405180910390a46109fe600861144d565b505050565b6000600560008473ffffffffffffffffffffffffffffffffffffffff1673ffffffffffffffffffffffffffffffffffffffff16815260200190815260200160002060008373ffffffffffffffffffffffffffffffffffffffff1673ffffffffffffffffffffffffffffffffffffffff16815260200190815260200160002060009054906101000a900460ff16905092915050565b610a9f610f8d565b600073ffffffffffffffffffffffffffffffffffffffff168173ffffffffffffffffffffffffffffffffffffffff161415610b0f576040517f08c379a0000000000000000000000000000000000000000000000000000000008152600401610b069061230e565b60405180910390fd5b610b188161100b565b50565b60007f01ffc9a7000000000000000000000000000000000000000000000000000000007bffffffffffffffffffffffffffffffffffffffffffffffffffffffff1916827bffffffffffffffffffffffffffffffffffffffffffffffffffffffff1916149050919050565b610b8e81611463565b610bcd576040517f08c379a0000000000000000000000000000000000000000000000000000000008152600401610bc49061244e565b60405180910390fd5b50565b600033905090565b816004600083815260200190815260200160002060006101000a81548173ffffffffffffffffffffffffffffffffffffffff021916908373ffffffffffffffffffffffffffffffffffffffff160217905550808273ffffffffffffffffffffffffffffffffffffffff16610c4b836106aa565b73ffffffffffffffffffffffffffffffffffffffff167f8c5be1e5ebec7d5bd14f71427d1e84f3dd0314c0f7b2291e5b200ac8c7c3b92560405160405180910390a45050565b600080610c9d836106aa565b90508073ffffffffffffffffffffffffffffffffffffffff168473ffffffffffffffffffffffffffffffffffffffff161480610cdf5750610cde8185610a03565b5b80610d1d57508373ffffffffffffffffffffffffffffffffffffffff16610d05846104cc565b73ffffffffffffffffffffffffffffffffffffffff16145b91505092915050565b8273ffffffffffffffffffffffffffffffffffffffff16610d46826106aa565b73ffffffffffffffffffffffffffffffffffffffff1614610d9c576040517f08c379a0000000000000000000000000000000000000000000000000000000008152600401610d939061232e565b60405180910390fd5b600073ffffffffffffffffffffffffffffffffffffffff168273ffffffffffffffffffffffffffffffffffffffff161415610e0c576040517f08c379a0000000000000000000000000000000000000000000000000000000008152600401610e039061236e565b60405180910390fd5b610e178383836114cf565b610e22600082610bd8565b6001600360008573ffffffffffffffffffffffffffffffffffffffff1673ffffffffffffffffffffffffffffffffffffffff1681526020019081526020016000206000828254610e72919061261a565b925050819055506001600360008473ffffffffffffffffffffffffffffffffffffffff1673ffffffffffffffffffffffffffffffffffffffff1681526020019081526020016000206000828254610ec99190612593565b92505081905550816002600083815260200190815260200160002060006101000a81548173ffffffffffffffffffffffffffffffffffffffff021916908373ffffffffffffffffffffffffffffffffffffffff160217905550808273ffffffffffffffffffffffffffffffffffffffff168473ffffffffffffffffffffffffffffffffffffffff167fddf252ad1be2c89b69c2b068fc378daa952ba7f163c4a11628f55a4df523b3ef60405160405180910390a4610f888383836114d4565b505050565b610f95610bd0565b73ffffffffffffffffffffffffffffffffffffffff16610fb3610828565b73ffffffffffffffffffffffffffffffffffffffff1614611009576040517f08c379a00000000000000000000000000000000000000000000000000000000081526004016110009061242e565b60405180910390fd5b565b6000600760009054906101000a900473ffffffffffffffffffffffffffffffffffffffff16905081600760006101000a81548173ffffffffffffffffffffffffffffffffffffffff021916908373ffffffffffffffffffffffffffffffffffffffff1602179055508173ffffffffffffffffffffffffffffffffffffffff168173ffffffffffffffffffffffffffffffffffffffff167f8be0079c531659141344cd1fd0a4f28419497f9722a3daafe3b4186f6b6457e060405160405180910390a35050565b8173ffffffffffffffffffffffffffffffffffffffff168373ffffffffffffffffffffffffffffffffffffffff161415611140576040517f08c379a00000000000000000000000000000000000000000000000000000000081526004016111379061238e565b60405180910390fd5b80600560008573ffffffffffffffffffffffffffffffffffffffff1673ffffffffffffffffffffffffffffffffffffffff16815260200190815260200160002060008473ffffffffffffffffffffffffffffffffffffffff1673ffffffffffffffffffffffffffffffffffffffff16815260200190815260200160002060006101000a81548160ff0219169083151502179055508173ffffffffffffffffffffffffffffffffffffffff168373ffffffffffffffffffffffffffffffffffffffff167f17307eab39ab6107e8899845ad3d59bd9653f200f220920489ca2b5937696c318360405161123191906122b1565b60405180910390a3505050565b611249848484610d26565b611255848484846114d9565b611294576040517f08c379a000000000000000000000000000000000000000000000000000000000815260040161128b906122ee565b60405180910390fd5b50505050565b60606112a582610b85565b60006006600084815260200190815260200160002080546112c590612704565b80601f01602080910402602001604051908101604052809291908181526020018280546112f190612704565b801561133e5780601f106113135761010080835404028352916020019161133e565b820191906000526020600020905b81548152906001019060200180831161132157829003601f168201915b50505050509050600061134f611670565b90506000815114156113655781925050506113a8565b60008251111561139a578082604051602001611382929190612226565b604051602081830303815290604052925050506113a8565b6113a3846116ad565b925050505b919050565b600081600001549050919050565b6113d5828260405180602001604052806000815250611715565b5050565b6113e282611463565b611421576040517f08c379a0000000000000000000000000000000000000000000000000000000008152600401611418906123ce565b60405180910390fd5b80600660008481526020019081526020016000209080519060200190611448929190611b1a565b505050565b6001816000016000828254019250508190555050565b60008073ffffffffffffffffffffffffffffffffffffffff166002600084815260200190815260200160002060009054906101000a900473ffffffffffffffffffffffffffffffffffffffff1673ffffffffffffffffffffffffffffffffffffffff1614159050919050565b505050565b505050565b60006114fa8473ffffffffffffffffffffffffffffffffffffffff16611770565b15611663578373ffffffffffffffffffffffffffffffffffffffff1663150b7a02611523610bd0565b8786866040518563ffffffff1660e01b81526004016115459493929190612265565b602060405180830381600087803b15801561155f57600080fd5b505af192505050801561159057506040513d601f19601f8201168201806040525081019061158d9190611f1a565b60015b611613573d80600081146115c0576040519150601f19603f3d011682016040523d82523d6000602084013e6115c5565b606091505b5060008151141561160b576040517f08c379a0000000000000000000000000000000000000000000000000000000008152600401611602906122ee565b60405180910390fd5b805181602001fd5b63150b7a0260e01b7bffffffffffffffffffffffffffffffffffffffffffffffffffffffff1916817bffffffffffffffffffffffffffffffffffffffffffffffffffffffff191614915050611668565b600190505b949350505050565b60606040518060400160405280601481526020017f68747470733a2f2f647075626c6973682e6f7267000000000000000000000000815250905090565b60606116b882610b85565b60006116c2611670565b905060008151116116e2576040518060200160405280600081525061170d565b806116ec84611793565b6040516020016116fd929190612226565b6040516020818303038152906040525b915050919050565b61171f8383611940565b61172c60008484846114d9565b61176b576040517f08c379a0000000000000000000000000000000000000000000000000000000008152600401611762906122ee565b60405180910390fd5b505050565b6000808273ffffffffffffffffffffffffffffffffffffffff163b119050919050565b606060008214156117db576040518060400160405280600181526020017f3000000000000000000000000000000000000000000000000000000000000000815250905061193b565b600082905060005b6000821461180d5780806117f690612767565b915050600a8261180691906125e9565b91506117e3565b60008167ffffffffffffffff81111561184f577f4e487b7100000000000000000000000000000000000000000000000000000000600052604160045260246000fd5b6040519080825280601f01601f1916602001820160405280156118815781602001600182028036833780820191505090505b5090505b600085146119345760018261189a919061261a565b9150600a856118a991906127b0565b60306118b59190612593565b60f81b8183815181106118f1577f4e487b7100000000000000000000000000000000000000000000000000000000600052603260045260246000fd5b60200101907effffffffffffffffffffffffffffffffffffffffffffffffffffffffffffff1916908160001a905350600a8561192d91906125e9565b9450611885565b8093505050505b919050565b600073ffffffffffffffffffffffffffffffffffffffff168273ffffffffffffffffffffffffffffffffffffffff1614156119b0576040517f08c379a00000000000000000000000000000000000000000000000000000000081526004016119a79061240e565b60405180910390fd5b6119b981611463565b156119f9576040517f08c379a00000000000000000000000000000000000000000000000000000000081526004016119f09061234e565b60405180910390fd5b611a05600083836114cf565b6001600360008473ffffffffffffffffffffffffffffffffffffffff1673ffffffffffffffffffffffffffffffffffffffff1681526020019081526020016000206000828254611a559190612593565b92505081905550816002600083815260200190815260200160002060006101000a81548173ffffffffffffffffffffffffffffffffffffffff021916908373ffffffffffffffffffffffffffffffffffffffff160217905550808273ffffffffffffffffffffffffffffffffffffffff16600073ffffffffffffffffffffffffffffffffffffffff167fddf252ad1be2c89b69c2b068fc378daa952ba7f163c4a11628f55a4df523b3ef60405160405180910390a4611b16600083836114d4565b5050565b828054611b2690612704565b90600052602060002090601f016020900481019282611b485760008555611b8f565b82601f10611b6157805160ff1916838001178555611b8f565b82800160010185558215611b8f579182015b82811115611b8e578251825591602001919060010190611b73565b5b509050611b9c9190611ba0565b5090565b5b80821115611bb9576000816000905550600101611ba1565b5090565b6000611bd0611bcb846124ee565b6124c9565b905082815260208101848484011115611be857600080fd5b611bf38482856126c2565b509392505050565b6000611c0e611c098461251f565b6124c9565b905082815260208101848484011115611c2657600080fd5b611c318482856126c2565b509392505050565b600081359050611c4881612c42565b92915050565b600081359050611c5d81612c59565b92915050565b600081359050611c7281612c70565b92915050565b600081519050611c8781612c70565b92915050565b600082601f830112611c9e57600080fd5b8135611cae848260208601611bbd565b91505092915050565b600082601f830112611cc857600080fd5b8135611cd8848260208601611bfb565b91505092915050565b600081359050611cf081612c87565b92915050565b600060208284031215611d0857600080fd5b6000611d1684828501611c39565b91505092915050565b60008060408385031215611d3257600080fd5b6000611d4085828601611c39565b9250506020611d5185828601611c39565b9150509250929050565b600080600060608486031215611d7057600080fd5b6000611d7e86828701611c39565b9350506020611d8f86828701611c39565b9250506040611da086828701611ce1565b9150509250925092565b60008060008060808587031215611dc057600080fd5b6000611dce87828801611c39565b9450506020611ddf87828801611c39565b9350506040611df087828801611ce1565b925050606085013567ffffffffffffffff811115611e0d57600080fd5b611e1987828801611c8d565b91505092959194509250565b60008060408385031215611e3857600080fd5b6000611e4685828601611c39565b9250506020611e5785828601611c4e565b9150509250929050565b60008060408385031215611e7457600080fd5b6000611e8285828601611c39565b925050602083013567ffffffffffffffff811115611e9f57600080fd5b611eab85828601611cb7565b9150509250929050565b60008060408385031215611ec857600080fd5b6000611ed685828601611c39565b9250506020611ee785828601611ce1565b9150509250929050565b600060208284031215611f0357600080fd5b6000611f1184828501611c63565b91505092915050565b600060208284031215611f2c57600080fd5b6000611f3a84828501611c78565b91505092915050565b600060208284031215611f5557600080fd5b6000611f6384828501611ce1565b91505092915050565b611f758161264e565b82525050565b611f8481612660565b82525050565b6000611f9582612550565b611f9f8185612566565b9350611faf8185602086016126d1565b611fb88161289d565b840191505092915050565b6000611fce8261255b565b611fd88185612577565b9350611fe88185602086016126d1565b611ff18161289d565b840191505092915050565b60006120078261255b565b6120118185612588565b93506120218185602086016126d1565b80840191505092915050565b600061203a603283612577565b9150612045826128ae565b604082019050919050565b600061205d602683612577565b9150612068826128fd565b604082019050919050565b6000612080602583612577565b915061208b8261294c565b604082019050919050565b60006120a3601c83612577565b91506120ae8261299b565b602082019050919050565b60006120c6602483612577565b91506120d1826129c4565b604082019050919050565b60006120e9601983612577565b91506120f482612a13565b602082019050919050565b600061210c602983612577565b915061211782612a3c565b604082019050919050565b600061212f602e83612577565b915061213a82612a8b565b604082019050919050565b6000612152603e83612577565b915061215d82612ada565b604082019050919050565b6000612175602083612577565b915061218082612b29565b602082019050919050565b6000612198602083612577565b91506121a382612b52565b602082019050919050565b60006121bb601883612577565b91506121c682612b7b565b602082019050919050565b60006121de602183612577565b91506121e982612ba4565b604082019050919050565b6000612201602e83612577565b915061220c82612bf3565b604082019050919050565b612220816126b8565b82525050565b60006122328285611ffc565b915061223e8284611ffc565b91508190509392505050565b600060208201905061225f6000830184611f6c565b92915050565b600060808201905061227a6000830187611f6c565b6122876020830186611f6c565b6122946040830185612217565b81810360608301526122a68184611f8a565b905095945050505050565b60006020820190506122c66000830184611f7b565b92915050565b600060208201905081810360008301526122e68184611fc3565b905092915050565b600060208201905081810360008301526123078161202d565b9050919050565b6000602082019050818103600083015261232781612050565b9050919050565b6000602082019050818103600083015261234781612073565b9050919050565b6000602082019050818103600083015261236781612096565b9050919050565b60006020820190508181036000830152612387816120b9565b9050919050565b600060208201905081810360008301526123a7816120dc565b9050919050565b600060208201905081810360008301526123c7816120ff565b9050919050565b600060208201905081810360008301526123e781612122565b9050919050565b6000602082019050818103600083015261240781612145565b9050919050565b6000602082019050818103600083015261242781612168565b9050919050565b600060208201905081810360008301526124478161218b565b9050919050565b60006020820190508181036000830152612467816121ae565b9050919050565b60006020820190508181036000830152612487816121d1565b9050919050565b600060208201905081810360008301526124a7816121f4565b9050919050565b60006020820190506124c36000830184612217565b92915050565b60006124d36124e4565b90506124df8282612736565b919050565b6000604051905090565b600067ffffffffffffffff8211156125095761250861286e565b5b6125128261289d565b9050602081019050919050565b600067ffffffffffffffff82111561253a5761253961286e565b5b6125438261289d565b9050602081019050919050565b600081519050919050565b600081519050919050565b600082825260208201905092915050565b600082825260208201905092915050565b600081905092915050565b600061259e826126b8565b91506125a9836126b8565b9250827fffffffffffffffffffffffffffffffffffffffffffffffffffffffffffffffff038211156125de576125dd6127e1565b5b828201905092915050565b60006125f4826126b8565b91506125ff836126b8565b92508261260f5761260e612810565b5b828204905092915050565b6000612625826126b8565b9150612630836126b8565b925082821015612643576126426127e1565b5b828203905092915050565b600061265982612698565b9050919050565b60008115159050919050565b60007fffffffff0000000000000000000000000000000000000000000000000000000082169050919050565b600073ffffffffffffffffffffffffffffffffffffffff82169050919050565b6000819050919050565b82818337600083830152505050565b60005b838110156126ef5780820151818401526020810190506126d4565b838111156126fe576000848401525b50505050565b6000600282049050600182168061271c57607f821691505b602082108114156127305761272f61283f565b5b50919050565b61273f8261289d565b810181811067ffffffffffffffff8211171561275e5761275d61286e565b5b80604052505050565b6000612772826126b8565b91507fffffffffffffffffffffffffffffffffffffffffffffffffffffffffffffffff8214156127a5576127a46127e1565b5b600182019050919050565b60006127bb826126b8565b91506127c6836126b8565b9250826127d6576127d5612810565b5b828206905092915050565b7f4e487b7100000000000000000000000000000000000000000000000000000000600052601160045260246000fd5b7f4e487b7100000000000000000000000000000000000000000000000000000000600052601260045260246000fd5b7f4e487b7100000000000000000000000000000000000000000000000000000000600052602260045260246000fd5b7f4e487b7100000000000000000000000000000000000000000000000000000000600052604160045260246000fd5b6000601f19601f8301169050919050565b7f4552433732313a207472616e7366657220746f206e6f6e20455243373231526560008201527f63656976657220696d706c656d656e7465720000000000000000000000000000602082015250565b7f4f776e61626c653a206e6577206f776e657220697320746865207a65726f206160008201527f6464726573730000000000000000000000000000000000000000000000000000602082015250565b7f4552433732313a207472616e736665722066726f6d20696e636f72726563742060008201527f6f776e6572000000000000000000000000000000000000000000000000000000602082015250565b7f4552433732313a20746f6b656e20616c7265616479206d696e74656400000000600082015250565b7f4552433732313a207472616e7366657220746f20746865207a65726f2061646460008201527f7265737300000000000000000000000000000000000000000000000000000000602082015250565b7f4552433732313a20617070726f766520746f2063616c6c657200000000000000600082015250565b7f4552433732313a2061646472657373207a65726f206973206e6f74206120766160008201527f6c6964206f776e65720000000000000000000000000000000000000000000000602082015250565b7f45524337323155524953746f726167653a2055524920736574206f66206e6f6e60008201527f6578697374656e7420746f6b656e000000000000000000000000000000000000602082015250565b7f4552433732313a20617070726f76652063616c6c6572206973206e6f7420746f60008201527f6b656e206f776e6572206e6f7220617070726f76656420666f7220616c6c0000602082015250565b7f4552433732313a206d696e7420746f20746865207a65726f2061646472657373600082015250565b7f4f776e61626c653a2063616c6c6572206973206e6f7420746865206f776e6572600082015250565b7f4552433732313a20696e76616c696420746f6b656e2049440000000000000000600082015250565b7f4552433732313a20617070726f76616c20746f2063757272656e74206f776e6560008201527f7200000000000000000000000000000000000000000000000000000000000000602082015250565b7f4552433732313a2063616c6c6572206973206e6f7420746f6b656e206f776e6560008201527f72206e6f7220617070726f766564000000000000000000000000000000000000602082015250565b612c4b8161264e565b8114612c5657600080fd5b50565b612c6281612660565b8114612c6d57600080fd5b50565b612c798161266c565b8114612c8457600080fd5b50565b612c90816126b8565b8114612c9b57600080fd5b5056fea264697066735822122074b9ddc589a8c80bfcecf38af867fa3ba1b685059f7fdd455f971a2fdc8b578364736f6c63430008040033",
  "immutableReferences": {},
  "source": "// SPDX-License-Identifier: MIT\npragma solidity ^0.8.2;\n\nimport \"@openzeppelin/contracts/token/ERC721/ERC721.sol\";\nimport \"@openzeppelin/contracts/token/ERC721/extensions/ERC721URIStorage.sol\";\nimport \"@openzeppelin/contracts/access/Ownable.sol\";\nimport \"@openzeppelin/contracts/utils/Counters.sol\";\n\ncontract ReviewToken is ERC721, ERC721URIStorage, Ownable {\n    using Counters for Counters.Counter;\n    Counters.Counter private _tokenIds;\n\n    constructor() ERC721(\"ReviewToken\", \"RTK\") {}\n\n    function _baseURI() internal pure override returns (string memory) {\n        return \"https://dpublish.org\";\n    }\n\n    function safeMint(address reviewer, string memory tokenUri) public onlyOwner {\n        uint256 newItemId = _tokenIds.current();\n        _safeMint(reviewer, newItemId);\n        _setTokenURI(newItemId, tokenUri);\n        emit Transfer(address(0), reviewer, newItemId);\n        _tokenIds.increment();\n    }\n\n    // The following functions are overrides required by Solidity.\n\n    function _burn(uint256 tokenId) internal override(ERC721, ERC721URIStorage) {\n        super._burn(tokenId);\n    }\n\n    function tokenURI(uint256 tokenId)\n        public\n        view\n        override(ERC721, ERC721URIStorage)\n        returns (string memory)\n    {\n        return super.tokenURI(tokenId);\n    }\n}",
  "sourcePath": "C:\\Users\\Marcelo\\Repositories\\Dpublish\\contracts\\ReviewToken.sol",
  "compiler": {
    "name": "solc",
    "version": "0.8.4+commit.c7e474f2.Emscripten.clang"
  },
  "schemaVersion": "3.4.10",
  "updatedAt": "2022-12-16T02:45:59.524Z",
  "networkType": "ethereum",
  "devdoc": {
    "kind": "dev",
    "methods": {
      "approve(address,uint256)": {
        "details": "See {IERC721-approve}."
      },
      "balanceOf(address)": {
        "details": "See {IERC721-balanceOf}."
      },
      "getApproved(uint256)": {
        "details": "See {IERC721-getApproved}."
      },
      "isApprovedForAll(address,address)": {
        "details": "See {IERC721-isApprovedForAll}."
      },
      "name()": {
        "details": "See {IERC721Metadata-name}."
      },
      "owner()": {
        "details": "Returns the address of the current owner."
      },
      "ownerOf(uint256)": {
        "details": "See {IERC721-ownerOf}."
      },
      "renounceOwnership()": {
        "details": "Leaves the contract without owner. It will not be possible to call `onlyOwner` functions anymore. Can only be called by the current owner. NOTE: Renouncing ownership will leave the contract without an owner, thereby removing any functionality that is only available to the owner."
      },
      "safeTransferFrom(address,address,uint256)": {
        "details": "See {IERC721-safeTransferFrom}."
      },
      "safeTransferFrom(address,address,uint256,bytes)": {
        "details": "See {IERC721-safeTransferFrom}."
      },
      "setApprovalForAll(address,bool)": {
        "details": "See {IERC721-setApprovalForAll}."
      },
      "supportsInterface(bytes4)": {
        "details": "See {IERC165-supportsInterface}."
      },
      "symbol()": {
        "details": "See {IERC721Metadata-symbol}."
      },
      "transferFrom(address,address,uint256)": {
        "details": "See {IERC721-transferFrom}."
      },
      "transferOwnership(address)": {
        "details": "Transfers ownership of the contract to a new account (`newOwner`). Can only be called by the current owner."
      }
    },
    "version": 1
  },
  "userdoc": {
    "kind": "user",
    "methods": {},
    "version": 1
  }
}