{
  "contractName": "Tokens",
  "abi": [
    {
      "inputs": [],
      "stateMutability": "nonpayable",
      "type": "constructor"
    },
    {
      "anonymous": false,
      "inputs": [
        {
          "indexed": true,
          "internalType": "address",
          "name": "account",
          "type": "address"
        },
        {
          "indexed": true,
          "internalType": "address",
          "name": "operator",
          "type": "address"
        },
        {
          "indexed": false,
          "internalType": "bool",
          "name": "approved",
          "type": "bool"
        }
      ],
      "name": "ApprovalForAll",
      "type": "event"
    },
    {
      "anonymous": false,
      "inputs": [
        {
          "indexed": true,
          "internalType": "address",
          "name": "operator",
          "type": "address"
        },
        {
          "indexed": true,
          "internalType": "address",
          "name": "from",
          "type": "address"
        },
        {
          "indexed": true,
          "internalType": "address",
          "name": "to",
          "type": "address"
        },
        {
          "indexed": false,
          "internalType": "uint256[]",
          "name": "ids",
          "type": "uint256[]"
        },
        {
          "indexed": false,
          "internalType": "uint256[]",
          "name": "values",
          "type": "uint256[]"
        }
      ],
      "name": "TransferBatch",
      "type": "event"
    },
    {
      "anonymous": false,
      "inputs": [
        {
          "indexed": true,
          "internalType": "address",
          "name": "operator",
          "type": "address"
        },
        {
          "indexed": true,
          "internalType": "address",
          "name": "from",
          "type": "address"
        },
        {
          "indexed": true,
          "internalType": "address",
          "name": "to",
          "type": "address"
        },
        {
          "indexed": false,
          "internalType": "uint256",
          "name": "id",
          "type": "uint256"
        },
        {
          "indexed": false,
          "internalType": "uint256",
          "name": "value",
          "type": "uint256"
        }
      ],
      "name": "TransferSingle",
      "type": "event"
    },
    {
      "anonymous": false,
      "inputs": [
        {
          "indexed": false,
          "internalType": "string",
          "name": "value",
          "type": "string"
        },
        {
          "indexed": true,
          "internalType": "uint256",
          "name": "id",
          "type": "uint256"
        }
      ],
      "name": "URI",
      "type": "event"
    },
    {
      "inputs": [],
      "name": "DPub",
      "outputs": [
        {
          "internalType": "uint256",
          "name": "",
          "type": "uint256"
        }
      ],
      "stateMutability": "view",
      "type": "function"
    },
    {
      "inputs": [],
      "name": "Paper",
      "outputs": [
        {
          "internalType": "uint256",
          "name": "",
          "type": "uint256"
        }
      ],
      "stateMutability": "view",
      "type": "function"
    },
    {
      "inputs": [],
      "name": "Review",
      "outputs": [
        {
          "internalType": "uint256",
          "name": "",
          "type": "uint256"
        }
      ],
      "stateMutability": "view",
      "type": "function"
    },
    {
      "inputs": [
        {
          "internalType": "address",
          "name": "account",
          "type": "address"
        },
        {
          "internalType": "uint256",
          "name": "id",
          "type": "uint256"
        }
      ],
      "name": "balanceOf",
      "outputs": [
        {
          "internalType": "uint256",
          "name": "",
          "type": "uint256"
        }
      ],
      "stateMutability": "view",
      "type": "function"
    },
    {
      "inputs": [
        {
          "internalType": "address[]",
          "name": "accounts",
          "type": "address[]"
        },
        {
          "internalType": "uint256[]",
          "name": "ids",
          "type": "uint256[]"
        }
      ],
      "name": "balanceOfBatch",
      "outputs": [
        {
          "internalType": "uint256[]",
          "name": "",
          "type": "uint256[]"
        }
      ],
      "stateMutability": "view",
      "type": "function"
    },
    {
      "inputs": [
        {
          "internalType": "address",
          "name": "account",
          "type": "address"
        },
        {
          "internalType": "address",
          "name": "operator",
          "type": "address"
        }
      ],
      "name": "isApprovedForAll",
      "outputs": [
        {
          "internalType": "bool",
          "name": "",
          "type": "bool"
        }
      ],
      "stateMutability": "view",
      "type": "function"
    },
    {
      "inputs": [
        {
          "internalType": "address",
          "name": "from",
          "type": "address"
        },
        {
          "internalType": "address",
          "name": "to",
          "type": "address"
        },
        {
          "internalType": "uint256[]",
          "name": "ids",
          "type": "uint256[]"
        },
        {
          "internalType": "uint256[]",
          "name": "amounts",
          "type": "uint256[]"
        },
        {
          "internalType": "bytes",
          "name": "data",
          "type": "bytes"
        }
      ],
      "name": "safeBatchTransferFrom",
      "outputs": [],
      "stateMutability": "nonpayable",
      "type": "function"
    },
    {
      "inputs": [
        {
          "internalType": "address",
          "name": "from",
          "type": "address"
        },
        {
          "internalType": "address",
          "name": "to",
          "type": "address"
        },
        {
          "internalType": "uint256",
          "name": "id",
          "type": "uint256"
        },
        {
          "internalType": "uint256",
          "name": "amount",
          "type": "uint256"
        },
        {
          "internalType": "bytes",
          "name": "data",
          "type": "bytes"
        }
      ],
      "name": "safeTransferFrom",
      "outputs": [],
      "stateMutability": "nonpayable",
      "type": "function"
    },
    {
      "inputs": [
        {
          "internalType": "address",
          "name": "operator",
          "type": "address"
        },
        {
          "internalType": "bool",
          "name": "approved",
          "type": "bool"
        }
      ],
      "name": "setApprovalForAll",
      "outputs": [],
      "stateMutability": "nonpayable",
      "type": "function"
    },
    {
      "inputs": [
        {
          "internalType": "bytes4",
          "name": "interfaceId",
          "type": "bytes4"
        }
      ],
      "name": "supportsInterface",
      "outputs": [
        {
          "internalType": "bool",
          "name": "",
          "type": "bool"
        }
      ],
      "stateMutability": "view",
      "type": "function"
    },
    {
      "inputs": [
        {
          "internalType": "uint256",
          "name": "",
          "type": "uint256"
        }
      ],
      "name": "uri",
      "outputs": [
        {
          "internalType": "string",
          "name": "",
          "type": "string"
        }
      ],
      "stateMutability": "view",
      "type": "function"
    }
  ],
  "bytecode": "0x60806040523480156200001157600080fd5b50604051806060016040528060288152602001620031e8602891396200003d816200007060201b60201c565b506200006a336000670de0b6b3a7640000604051806020016040528060008152506200008c60201b60201c565b62000bdc565b8060029080519060200190620000889291906200052d565b5050565b600073ffffffffffffffffffffffffffffffffffffffff168473ffffffffffffffffffffffffffffffffffffffff161415620000ff576040517f08c379a0000000000000000000000000000000000000000000000000000000008152600401620000f690620008c8565b60405180910390fd5b6000620001116200025160201b60201c565b90506200014a816000876200012c886200025960201b60201c565b6200013d886200025960201b60201c565b876200032260201b60201c565b8260008086815260200190815260200160002060008773ffffffffffffffffffffffffffffffffffffffff1673ffffffffffffffffffffffffffffffffffffffff1681526020019081526020016000206000828254620001ab91906200094f565b925050819055508473ffffffffffffffffffffffffffffffffffffffff16600073ffffffffffffffffffffffffffffffffffffffff168273ffffffffffffffffffffffffffffffffffffffff167fc3d58168c5ae7397731d063d5bbf3d657854427343f4c083240f7aacaa2d0f6287876040516200022b929190620008ea565b60405180910390a46200024a816000878787876200032a60201b60201c565b5050505050565b600033905090565b60606000600167ffffffffffffffff8111156200029f577f4e487b7100000000000000000000000000000000000000000000000000000000600052604160045260246000fd5b604051908082528060200260200182016040528015620002ce5781602001602082028036833780820191505090505b50905082816000815181106200030d577f4e487b7100000000000000000000000000000000000000000000000000000000600052603260045260246000fd5b60200260200101818152505080915050919050565b505050505050565b620003568473ffffffffffffffffffffffffffffffffffffffff166200051a60201b620009a11760201c565b1562000512578373ffffffffffffffffffffffffffffffffffffffff1663f23a6e6187878686866040518663ffffffff1660e01b81526004016200039f959493929190620007fc565b602060405180830381600087803b158015620003ba57600080fd5b505af1925050508015620003ee57506040513d601f19601f82011682018060405250810190620003eb9190620005f4565b60015b6200048657620003fd62000afe565b806200040a575062000449565b806040517f08c379a000000000000000000000000000000000000000000000000000000000815260040162000440919062000860565b60405180910390fd5b6040517f08c379a00000000000000000000000000000000000000000000000000000000081526004016200047d9062000884565b60405180910390fd5b63f23a6e6160e01b7bffffffffffffffffffffffffffffffffffffffffffffffffffffffff1916817bffffffffffffffffffffffffffffffffffffffffffffffffffffffff19161462000510576040517f08c379a00000000000000000000000000000000000000000000000000000000081526004016200050790620008a6565b60405180910390fd5b505b505050505050565b600080823b905060008111915050919050565b8280546200053b9062000a4c565b90600052602060002090601f0160209004810192826200055f5760008555620005ab565b82601f106200057a57805160ff1916838001178555620005ab565b82800160010185558215620005ab579182015b82811115620005aa5782518255916020019190600101906200058d565b5b509050620005ba9190620005be565b5090565b5b80821115620005d9576000816000905550600101620005bf565b5090565b600081519050620005ee8162000bc2565b92915050565b6000602082840312156200060757600080fd5b60006200061784828501620005dd565b91505092915050565b6200062b81620009ac565b82525050565b60006200063e8262000917565b6200064a81856200092d565b93506200065c81856020860162000a16565b620006678162000ae0565b840191505092915050565b60006200067f8262000922565b6200068b81856200093e565b93506200069d81856020860162000a16565b620006a88162000ae0565b840191505092915050565b6000620006c26034836200093e565b91507f455243313135353a207472616e7366657220746f206e6f6e204552433131353560008301527f526563656976657220696d706c656d656e7465720000000000000000000000006020830152604082019050919050565b60006200072a6028836200093e565b91507f455243313135353a204552433131353552656365697665722072656a6563746560008301527f6420746f6b656e730000000000000000000000000000000000000000000000006020830152604082019050919050565b6000620007926021836200093e565b91507f455243313135353a206d696e7420746f20746865207a65726f2061646472657360008301527f73000000000000000000000000000000000000000000000000000000000000006020830152604082019050919050565b620007f68162000a0c565b82525050565b600060a08201905062000813600083018862000620565b62000822602083018762000620565b620008316040830186620007eb565b620008406060830185620007eb565b818103608083015262000854818462000631565b90509695505050505050565b600060208201905081810360008301526200087c818462000672565b905092915050565b600060208201905081810360008301526200089f81620006b3565b9050919050565b60006020820190508181036000830152620008c1816200071b565b9050919050565b60006020820190508181036000830152620008e38162000783565b9050919050565b6000604082019050620009016000830185620007eb565b620009106020830184620007eb565b9392505050565b600081519050919050565b600081519050919050565b600082825260208201905092915050565b600082825260208201905092915050565b60006200095c8262000a0c565b9150620009698362000a0c565b9250827fffffffffffffffffffffffffffffffffffffffffffffffffffffffffffffffff03821115620009a157620009a062000a82565b5b828201905092915050565b6000620009b982620009ec565b9050919050565b60007fffffffff0000000000000000000000000000000000000000000000000000000082169050919050565b600073ffffffffffffffffffffffffffffffffffffffff82169050919050565b6000819050919050565b60005b8381101562000a3657808201518184015260208101905062000a19565b8381111562000a46576000848401525b50505050565b6000600282049050600182168062000a6557607f821691505b6020821081141562000a7c5762000a7b62000ab1565b5b50919050565b7f4e487b7100000000000000000000000000000000000000000000000000000000600052601160045260246000fd5b7f4e487b7100000000000000000000000000000000000000000000000000000000600052602260045260246000fd5b6000601f19601f8301169050919050565b60008160e01c9050919050565b600060443d101562000b105762000bbf565b60046000803e62000b2360005162000af1565b6308c379a0811462000b36575062000bbf565b60405160043d036004823e80513d602482011167ffffffffffffffff8211171562000b645750505062000bbf565b808201805167ffffffffffffffff81111562000b8557505050505062000bbf565b8060208301013d850181111562000ba25750505050505062000bbf565b62000bad8262000ae0565b60208401016040528296505050505050505b90565b62000bcd81620009c0565b811462000bd957600080fd5b50565b6125fc8062000bec6000396000f3fe608060405234801561001057600080fd5b50600436106100a85760003560e01c806394b4c4dc1161007157806394b4c4dc14610189578063a22cb465146101a7578063af769eff146101c3578063c751da8f146101e1578063e985e9c5146101ff578063f242432a1461022f576100a8565b8062fdd58e146100ad57806301ffc9a7146100dd5780630e89341c1461010d5780632eb2c2d61461013d5780634e1273f414610159575b600080fd5b6100c760048036038101906100c29190611839565b61024b565b6040516100d49190612114565b60405180910390f35b6100f760048036038101906100f291906118e1565b610314565b6040516101049190611f97565b60405180910390f35b61012760048036038101906101229190611933565b6103f6565b6040516101349190611fb2565b60405180910390f35b610157600480360381019061015291906116af565b61048a565b005b610173600480360381019061016e9190611875565b61052b565b6040516101809190611f3e565b60405180910390f35b6101916106dc565b60405161019e9190612114565b60405180910390f35b6101c160048036038101906101bc91906117fd565b6106e1565b005b6101cb610862565b6040516101d89190612114565b60405180910390f35b6101e9610867565b6040516101f69190612114565b60405180910390f35b61021960048036038101906102149190611673565b61086c565b6040516102269190611f97565b60405180910390f35b6102496004803603810190610244919061176e565b610900565b005b60008073ffffffffffffffffffffffffffffffffffffffff168373ffffffffffffffffffffffffffffffffffffffff1614156102bc576040517f08c379a00000000000000000000000000000000000000000000000000000000081526004016102b390612014565b60405180910390fd5b60008083815260200190815260200160002060008473ffffffffffffffffffffffffffffffffffffffff1673ffffffffffffffffffffffffffffffffffffffff16815260200190815260200160002054905092915050565b60007fd9b67a26000000000000000000000000000000000000000000000000000000007bffffffffffffffffffffffffffffffffffffffffffffffffffffffff1916827bffffffffffffffffffffffffffffffffffffffffffffffffffffffff191614806103df57507f0e89341c000000000000000000000000000000000000000000000000000000007bffffffffffffffffffffffffffffffffffffffffffffffffffffffff1916827bffffffffffffffffffffffffffffffffffffffffffffffffffffffff1916145b806103ef57506103ee826109b4565b5b9050919050565b6060600280546104059061238e565b80601f01602080910402602001604051908101604052809291908181526020018280546104319061238e565b801561047e5780601f106104535761010080835404028352916020019161047e565b820191906000526020600020905b81548152906001019060200180831161046157829003601f168201915b50505050509050919050565b610492610a1e565b73ffffffffffffffffffffffffffffffffffffffff168573ffffffffffffffffffffffffffffffffffffffff1614806104d857506104d7856104d2610a1e565b61086c565b5b610517576040517f08c379a000000000000000000000000000000000000000000000000000000000815260040161050e90612074565b60405180910390fd5b6105248585858585610a26565b5050505050565b60608151835114610571576040517f08c379a0000000000000000000000000000000000000000000000000000000008152600401610568906120d4565b60405180910390fd5b6000835167ffffffffffffffff8111156105b4577f4e487b7100000000000000000000000000000000000000000000000000000000600052604160045260246000fd5b6040519080825280602002602001820160405280156105e25781602001602082028036833780820191505090505b50905060005b84518110156106d15761067b85828151811061062d577f4e487b7100000000000000000000000000000000000000000000000000000000600052603260045260246000fd5b602002602001015185838151811061066e577f4e487b7100000000000000000000000000000000000000000000000000000000600052603260045260246000fd5b602002602001015161024b565b8282815181106106b4577f4e487b7100000000000000000000000000000000000000000000000000000000600052603260045260246000fd5b602002602001018181525050806106ca906123c0565b90506105e8565b508091505092915050565b600081565b8173ffffffffffffffffffffffffffffffffffffffff16610700610a1e565b73ffffffffffffffffffffffffffffffffffffffff161415610757576040517f08c379a000000000000000000000000000000000000000000000000000000000815260040161074e906120b4565b60405180910390fd5b8060016000610764610a1e565b73ffffffffffffffffffffffffffffffffffffffff1673ffffffffffffffffffffffffffffffffffffffff16815260200190815260200160002060008473ffffffffffffffffffffffffffffffffffffffff1673ffffffffffffffffffffffffffffffffffffffff16815260200190815260200160002060006101000a81548160ff0219169083151502179055508173ffffffffffffffffffffffffffffffffffffffff16610811610a1e565b73ffffffffffffffffffffffffffffffffffffffff167f17307eab39ab6107e8899845ad3d59bd9653f200f220920489ca2b5937696c31836040516108569190611f97565b60405180910390a35050565b600281565b600181565b6000600160008473ffffffffffffffffffffffffffffffffffffffff1673ffffffffffffffffffffffffffffffffffffffff16815260200190815260200160002060008373ffffffffffffffffffffffffffffffffffffffff1673ffffffffffffffffffffffffffffffffffffffff16815260200190815260200160002060009054906101000a900460ff16905092915050565b610908610a1e565b73ffffffffffffffffffffffffffffffffffffffff168573ffffffffffffffffffffffffffffffffffffffff16148061094e575061094d85610948610a1e565b61086c565b5b61098d576040517f08c379a000000000000000000000000000000000000000000000000000000000815260040161098490612034565b60405180910390fd5b61099a8585858585610d86565b5050505050565b600080823b905060008111915050919050565b60007f01ffc9a7000000000000000000000000000000000000000000000000000000007bffffffffffffffffffffffffffffffffffffffffffffffffffffffff1916827bffffffffffffffffffffffffffffffffffffffffffffffffffffffff1916149050919050565b600033905090565b8151835114610a6a576040517f08c379a0000000000000000000000000000000000000000000000000000000008152600401610a61906120f4565b60405180910390fd5b600073ffffffffffffffffffffffffffffffffffffffff168473ffffffffffffffffffffffffffffffffffffffff161415610ada576040517f08c379a0000000000000000000000000000000000000000000000000000000008152600401610ad190612054565b60405180910390fd5b6000610ae4610a1e565b9050610af4818787878787611008565b60005b8451811015610cf1576000858281518110610b3b577f4e487b7100000000000000000000000000000000000000000000000000000000600052603260045260246000fd5b602002602001015190506000858381518110610b80577f4e487b7100000000000000000000000000000000000000000000000000000000600052603260045260246000fd5b60200260200101519050600080600084815260200190815260200160002060008b73ffffffffffffffffffffffffffffffffffffffff1673ffffffffffffffffffffffffffffffffffffffff16815260200190815260200160002054905081811015610c21576040517f08c379a0000000000000000000000000000000000000000000000000000000008152600401610c1890612094565b60405180910390fd5b81810360008085815260200190815260200160002060008c73ffffffffffffffffffffffffffffffffffffffff1673ffffffffffffffffffffffffffffffffffffffff168152602001908152602001600020819055508160008085815260200190815260200160002060008b73ffffffffffffffffffffffffffffffffffffffff1673ffffffffffffffffffffffffffffffffffffffff1681526020019081526020016000206000828254610cd69190612282565b9250508190555050505080610cea906123c0565b9050610af7565b508473ffffffffffffffffffffffffffffffffffffffff168673ffffffffffffffffffffffffffffffffffffffff168273ffffffffffffffffffffffffffffffffffffffff167f4a39dc06d4c0dbc64b70af90fd698a233a518aa5d07e595d983b8c0526c8f7fb8787604051610d68929190611f60565b60405180910390a4610d7e818787878787611010565b505050505050565b600073ffffffffffffffffffffffffffffffffffffffff168473ffffffffffffffffffffffffffffffffffffffff161415610df6576040517f08c379a0000000000000000000000000000000000000000000000000000000008152600401610ded90612054565b60405180910390fd5b6000610e00610a1e565b9050610e20818787610e11886111e0565b610e1a886111e0565b87611008565b600080600086815260200190815260200160002060008873ffffffffffffffffffffffffffffffffffffffff1673ffffffffffffffffffffffffffffffffffffffff16815260200190815260200160002054905083811015610eb7576040517f08c379a0000000000000000000000000000000000000000000000000000000008152600401610eae90612094565b60405180910390fd5b83810360008087815260200190815260200160002060008973ffffffffffffffffffffffffffffffffffffffff1673ffffffffffffffffffffffffffffffffffffffff168152602001908152602001600020819055508360008087815260200190815260200160002060008873ffffffffffffffffffffffffffffffffffffffff1673ffffffffffffffffffffffffffffffffffffffff1681526020019081526020016000206000828254610f6c9190612282565b925050819055508573ffffffffffffffffffffffffffffffffffffffff168773ffffffffffffffffffffffffffffffffffffffff168373ffffffffffffffffffffffffffffffffffffffff167fc3d58168c5ae7397731d063d5bbf3d657854427343f4c083240f7aacaa2d0f628888604051610fe992919061212f565b60405180910390a4610fff8288888888886112a6565b50505050505050565b505050505050565b61102f8473ffffffffffffffffffffffffffffffffffffffff166109a1565b156111d8578373ffffffffffffffffffffffffffffffffffffffff1663bc197c8187878686866040518663ffffffff1660e01b8152600401611075959493929190611e7c565b602060405180830381600087803b15801561108f57600080fd5b505af19250505080156110c057506040513d601f19601f820116820180604052508101906110bd919061190a565b60015b61114f576110cc6124b4565b806110d75750611114565b806040517f08c379a000000000000000000000000000000000000000000000000000000000815260040161110b9190611fb2565b60405180910390fd5b6040517f08c379a000000000000000000000000000000000000000000000000000000000815260040161114690611fd4565b60405180910390fd5b63bc197c8160e01b7bffffffffffffffffffffffffffffffffffffffffffffffffffffffff1916817bffffffffffffffffffffffffffffffffffffffffffffffffffffffff1916146111d6576040517f08c379a00000000000000000000000000000000000000000000000000000000081526004016111cd90611ff4565b60405180910390fd5b505b505050505050565b60606000600167ffffffffffffffff811115611225577f4e487b7100000000000000000000000000000000000000000000000000000000600052604160045260246000fd5b6040519080825280602002602001820160405280156112535781602001602082028036833780820191505090505b5090508281600081518110611291577f4e487b7100000000000000000000000000000000000000000000000000000000600052603260045260246000fd5b60200260200101818152505080915050919050565b6112c58473ffffffffffffffffffffffffffffffffffffffff166109a1565b1561146e578373ffffffffffffffffffffffffffffffffffffffff1663f23a6e6187878686866040518663ffffffff1660e01b815260040161130b959493929190611ee4565b602060405180830381600087803b15801561132557600080fd5b505af192505050801561135657506040513d601f19601f82011682018060405250810190611353919061190a565b60015b6113e5576113626124b4565b8061136d57506113aa565b806040517f08c379a00000000000000000000000000000000000000000000000000000000081526004016113a19190611fb2565b60405180910390fd5b6040517f08c379a00000000000000000000000000000000000000000000000000000000081526004016113dc90611fd4565b60405180910390fd5b63f23a6e6160e01b7bffffffffffffffffffffffffffffffffffffffffffffffffffffffff1916817bffffffffffffffffffffffffffffffffffffffffffffffffffffffff19161461146c576040517f08c379a000000000000000000000000000000000000000000000000000000000815260040161146390611ff4565b60405180910390fd5b505b505050505050565b600061148961148484612189565b612158565b905080838252602082019050828560208602820111156114a857600080fd5b60005b858110156114d857816114be888261158c565b8452602084019350602083019250506001810190506114ab565b5050509392505050565b60006114f56114f0846121b5565b612158565b9050808382526020820190508285602086028201111561151457600080fd5b60005b85811015611544578161152a888261165e565b845260208401935060208301925050600181019050611517565b5050509392505050565b600061156161155c846121e1565b612158565b90508281526020810184848401111561157957600080fd5b61158484828561234c565b509392505050565b60008135905061159b8161256a565b92915050565b600082601f8301126115b257600080fd5b81356115c2848260208601611476565b91505092915050565b600082601f8301126115dc57600080fd5b81356115ec8482602086016114e2565b91505092915050565b60008135905061160481612581565b92915050565b60008135905061161981612598565b92915050565b60008151905061162e81612598565b92915050565b600082601f83011261164557600080fd5b813561165584826020860161154e565b91505092915050565b60008135905061166d816125af565b92915050565b6000806040838503121561168657600080fd5b60006116948582860161158c565b92505060206116a58582860161158c565b9150509250929050565b600080600080600060a086880312156116c757600080fd5b60006116d58882890161158c565b95505060206116e68882890161158c565b945050604086013567ffffffffffffffff81111561170357600080fd5b61170f888289016115cb565b935050606086013567ffffffffffffffff81111561172c57600080fd5b611738888289016115cb565b925050608086013567ffffffffffffffff81111561175557600080fd5b61176188828901611634565b9150509295509295909350565b600080600080600060a0868803121561178657600080fd5b60006117948882890161158c565b95505060206117a58882890161158c565b94505060406117b68882890161165e565b93505060606117c78882890161165e565b925050608086013567ffffffffffffffff8111156117e457600080fd5b6117f088828901611634565b9150509295509295909350565b6000806040838503121561181057600080fd5b600061181e8582860161158c565b925050602061182f858286016115f5565b9150509250929050565b6000806040838503121561184c57600080fd5b600061185a8582860161158c565b925050602061186b8582860161165e565b9150509250929050565b6000806040838503121561188857600080fd5b600083013567ffffffffffffffff8111156118a257600080fd5b6118ae858286016115a1565b925050602083013567ffffffffffffffff8111156118cb57600080fd5b6118d7858286016115cb565b9150509250929050565b6000602082840312156118f357600080fd5b60006119018482850161160a565b91505092915050565b60006020828403121561191c57600080fd5b600061192a8482850161161f565b91505092915050565b60006020828403121561194557600080fd5b60006119538482850161165e565b91505092915050565b60006119688383611e5e565b60208301905092915050565b61197d816122d8565b82525050565b600061198e82612221565b611998818561224f565b93506119a383612211565b8060005b838110156119d45781516119bb888261195c565b97506119c683612242565b9250506001810190506119a7565b5085935050505092915050565b6119ea816122ea565b82525050565b60006119fb8261222c565b611a058185612260565b9350611a1581856020860161235b565b611a1e81612496565b840191505092915050565b6000611a3482612237565b611a3e8185612271565b9350611a4e81856020860161235b565b611a5781612496565b840191505092915050565b6000611a6f603483612271565b91507f455243313135353a207472616e7366657220746f206e6f6e204552433131353560008301527f526563656976657220696d706c656d656e7465720000000000000000000000006020830152604082019050919050565b6000611ad5602883612271565b91507f455243313135353a204552433131353552656365697665722072656a6563746560008301527f6420746f6b656e730000000000000000000000000000000000000000000000006020830152604082019050919050565b6000611b3b602b83612271565b91507f455243313135353a2062616c616e636520717565727920666f7220746865207a60008301527f65726f20616464726573730000000000000000000000000000000000000000006020830152604082019050919050565b6000611ba1602983612271565b91507f455243313135353a2063616c6c6572206973206e6f74206f776e6572206e6f7260008301527f20617070726f76656400000000000000000000000000000000000000000000006020830152604082019050919050565b6000611c07602583612271565b91507f455243313135353a207472616e7366657220746f20746865207a65726f20616460008301527f64726573730000000000000000000000000000000000000000000000000000006020830152604082019050919050565b6000611c6d603283612271565b91507f455243313135353a207472616e736665722063616c6c6572206973206e6f742060008301527f6f776e6572206e6f7220617070726f76656400000000000000000000000000006020830152604082019050919050565b6000611cd3602a83612271565b91507f455243313135353a20696e73756666696369656e742062616c616e636520666f60008301527f72207472616e73666572000000000000000000000000000000000000000000006020830152604082019050919050565b6000611d39602983612271565b91507f455243313135353a2073657474696e6720617070726f76616c2073746174757360008301527f20666f722073656c6600000000000000000000000000000000000000000000006020830152604082019050919050565b6000611d9f602983612271565b91507f455243313135353a206163636f756e747320616e6420696473206c656e67746860008301527f206d69736d6174636800000000000000000000000000000000000000000000006020830152604082019050919050565b6000611e05602883612271565b91507f455243313135353a2069647320616e6420616d6f756e7473206c656e6774682060008301527f6d69736d617463680000000000000000000000000000000000000000000000006020830152604082019050919050565b611e6781612342565b82525050565b611e7681612342565b82525050565b600060a082019050611e916000830188611974565b611e9e6020830187611974565b8181036040830152611eb08186611983565b90508181036060830152611ec48185611983565b90508181036080830152611ed881846119f0565b90509695505050505050565b600060a082019050611ef96000830188611974565b611f066020830187611974565b611f136040830186611e6d565b611f206060830185611e6d565b8181036080830152611f3281846119f0565b90509695505050505050565b60006020820190508181036000830152611f588184611983565b905092915050565b60006040820190508181036000830152611f7a8185611983565b90508181036020830152611f8e8184611983565b90509392505050565b6000602082019050611fac60008301846119e1565b92915050565b60006020820190508181036000830152611fcc8184611a29565b905092915050565b60006020820190508181036000830152611fed81611a62565b9050919050565b6000602082019050818103600083015261200d81611ac8565b9050919050565b6000602082019050818103600083015261202d81611b2e565b9050919050565b6000602082019050818103600083015261204d81611b94565b9050919050565b6000602082019050818103600083015261206d81611bfa565b9050919050565b6000602082019050818103600083015261208d81611c60565b9050919050565b600060208201905081810360008301526120ad81611cc6565b9050919050565b600060208201905081810360008301526120cd81611d2c565b9050919050565b600060208201905081810360008301526120ed81611d92565b9050919050565b6000602082019050818103600083015261210d81611df8565b9050919050565b60006020820190506121296000830184611e6d565b92915050565b60006040820190506121446000830185611e6d565b6121516020830184611e6d565b9392505050565b6000604051905081810181811067ffffffffffffffff8211171561217f5761217e612467565b5b8060405250919050565b600067ffffffffffffffff8211156121a4576121a3612467565b5b602082029050602081019050919050565b600067ffffffffffffffff8211156121d0576121cf612467565b5b602082029050602081019050919050565b600067ffffffffffffffff8211156121fc576121fb612467565b5b601f19601f8301169050602081019050919050565b6000819050602082019050919050565b600081519050919050565b600081519050919050565b600081519050919050565b6000602082019050919050565b600082825260208201905092915050565b600082825260208201905092915050565b600082825260208201905092915050565b600061228d82612342565b915061229883612342565b9250827fffffffffffffffffffffffffffffffffffffffffffffffffffffffffffffffff038211156122cd576122cc612409565b5b828201905092915050565b60006122e382612322565b9050919050565b60008115159050919050565b60007fffffffff0000000000000000000000000000000000000000000000000000000082169050919050565b600073ffffffffffffffffffffffffffffffffffffffff82169050919050565b6000819050919050565b82818337600083830152505050565b60005b8381101561237957808201518184015260208101905061235e565b83811115612388576000848401525b50505050565b600060028204905060018216806123a657607f821691505b602082108114156123ba576123b9612438565b5b50919050565b60006123cb82612342565b91507fffffffffffffffffffffffffffffffffffffffffffffffffffffffffffffffff8214156123fe576123fd612409565b5b600182019050919050565b7f4e487b7100000000000000000000000000000000000000000000000000000000600052601160045260246000fd5b7f4e487b7100000000000000000000000000000000000000000000000000000000600052602260045260246000fd5b7f4e487b7100000000000000000000000000000000000000000000000000000000600052604160045260246000fd5b6000601f19601f8301169050919050565b60008160e01c9050919050565b600060443d10156124c457612567565b60046000803e6124d56000516124a7565b6308c379a081146124e65750612567565b60405160043d036004823e80513d602482011167ffffffffffffffff8211171561251257505050612567565b808201805167ffffffffffffffff811115612531575050505050612567565b8060208301013d850181111561254c57505050505050612567565b61255582612496565b60208401016040528296505050505050505b90565b612573816122d8565b811461257e57600080fd5b50565b61258a816122ea565b811461259557600080fd5b50565b6125a1816122f6565b81146125ac57600080fd5b50565b6125b881612342565b81146125c357600080fd5b5056fea264697066735822122079a1661565d69429996d07f770c3f3b93f22098fcdd26d2589a9e1e3c7fc372a64736f6c6343000800003368747470733a2f2f647075626c6973682e6f72672f6170692f746f6b656e2f7b69647d2e6a736f6e",
  "immutableReferences": {},
  "source": "// contracts/Tokens.sol\n// SPDX-License-Identifier: MIT\npragma solidity ^0.8.0;\n\nimport \"@openzeppelin/contracts/token/ERC1155/ERC1155.sol\";\n\ncontract Tokens is ERC1155 {\n    uint256 public constant DPub = 0;\n    uint256 public constant Review = 1;\n    uint256 public constant Paper = 2;\n    \n\n    constructor() ERC1155(\"https://dpublish.org/api/token/{id}.json\") {\n        _mint(msg.sender, DPub, 10**18, \"\"); //only DPub token is minted from the start\n        \n    }\n}",
  "sourcePath": "/home/fccoelho/Mega/Cursos/Blockchain_EMAp/Dpublish/contracts/Tokens.sol",
  "compiler": {
    "name": "solc",
    "version": "0.8.0+commit.c7dfd78e.Emscripten.clang"
  },
  "schemaVersion": "3.4.3",
  "updatedAt": "2021-10-22T06:33:28.463Z",
  "devdoc": {
    "kind": "dev",
    "methods": {
      "balanceOf(address,uint256)": {
        "details": "See {IERC1155-balanceOf}. Requirements: - `account` cannot be the zero address."
      },
      "balanceOfBatch(address[],uint256[])": {
        "details": "See {IERC1155-balanceOfBatch}. Requirements: - `accounts` and `ids` must have the same length."
      },
      "isApprovedForAll(address,address)": {
        "details": "See {IERC1155-isApprovedForAll}."
      },
      "safeBatchTransferFrom(address,address,uint256[],uint256[],bytes)": {
        "details": "See {IERC1155-safeBatchTransferFrom}."
      },
      "safeTransferFrom(address,address,uint256,uint256,bytes)": {
        "details": "See {IERC1155-safeTransferFrom}."
      },
      "setApprovalForAll(address,bool)": {
        "details": "See {IERC1155-setApprovalForAll}."
      },
      "supportsInterface(bytes4)": {
        "details": "See {IERC165-supportsInterface}."
      },
      "uri(uint256)": {
        "details": "See {IERC1155MetadataURI-uri}. This implementation returns the same URI for *all* token types. It relies on the token type ID substitution mechanism https://eips.ethereum.org/EIPS/eip-1155#metadata[defined in the EIP]. Clients calling this function must replace the `\\{id\\}` substring with the actual token type ID."
      }
    },
    "version": 1
  },
  "userdoc": {
    "kind": "user",
    "methods": {},
    "version": 1
  }
}